{
  "transactions": [
    {
      "hash": "0xa1ff4aca706ec55d7d5386e1885e85883a932b673e8b4cb009a0d7cc87835f51",
      "transactionType": "CALL",
      "contractName": null,
      "contractAddress": "0x7be02decc3dc3be771d851fcf457bd9baa99010a",
      "function": "setApprovalForAll(address,bool)",
      "arguments": [
        "0x61684fc62B6a0f1273f69D9Fca0E264001a61Db6",
        "true"
      ],
      "transaction": {
        "from": "0x6faff29226219756aa40ce648dbc65fb41de5f72",
        "to": "0x7be02decc3dc3be771d851fcf457bd9baa99010a",
        "gas": "0xda14",
        "value": "0x0",
        "input": "0xa22cb46500000000000000000000000061684fc62b6a0f1273f69d9fca0e264001a61db60000000000000000000000000000000000000000000000000000000000000001",
        "nonce": "0x106",
        "chainId": "0x3e9"
      },
      "additionalContracts": [],
      "isFixedGasLimit": false
    },
    {
      "hash": "0x4d876042a20cf514f23b64d5e298766fbe73b36a9ceaa0ac48960535b941d141",
      "transactionType": "CALL",
      "contractName": null,
      "contractAddress": "0x61684fc62b6a0f1273f69d9fca0e264001a61db6",
      "function": "airdropERC721(address,address[],uint256[])",
      "arguments": [
        "0x7bE02dECC3DC3BE771d851fcF457Bd9bAA99010A",
        "[0x51f389021B2A80fCfE1eB2a7bFE8b24109C67670, 0x9CF16f72CF9BC492cc0A0B6c25361cBc215326Ac, 0x576B8e71D8d0144E4cb378C4EAd7313B1D5775A8]",
        "[6, 7, 8]"
      ],
      "transaction": {
        "from": "0x6faff29226219756aa40ce648dbc65fb41de5f72",
        "to": "0x61684fc62b6a0f1273f69d9fca0e264001a61db6",
        "gas": "0x82be0",
        "value": "0x0",
        "input": "0x1d5659fb0000000000000000000000007be02decc3dc3be771d851fcf457bd9baa99010a000000000000000000000000000000000000000000000000000000000000006000000000000000000000000000000000000000000000000000000000000000e0000000000000000000000000000000000000000000000000000000000000000300000000000000000000000051f389021b2a80fcfe1eb2a7bfe8b24109c676700000000000000000000000009cf16f72cf9bc492cc0a0b6c25361cbc215326ac000000000000000000000000576b8e71d8d0144e4cb378c4ead7313b1d5775a80000000000000000000000000000000000000000000000000000000000000003000000000000000000000000000000000000000000000000000000000000000600000000000000000000000000000000000000000000000000000000000000070000000000000000000000000000000000000000000000000000000000000008",
        "nonce": "0x107",
        "chainId": "0x3e9"
      },
      "additionalContracts": [],
      "isFixedGasLimit": false
    }
  ],
  "receipts": [
    {
      "status": "0x1",
      "cumulativeGasUsed": "0x7ef4",
      "logs": [
        {
          "address": "0x7be02decc3dc3be771d851fcf457bd9baa99010a",
          "topics": [
            "0x17307eab39ab6107e8899845ad3d59bd9653f200f220920489ca2b5937696c31",
            "0x0000000000000000000000006faff29226219756aa40ce648dbc65fb41de5f72",
            "0x00000000000000000000000061684fc62b6a0f1273f69d9fca0e264001a61db6"
          ],
          "data": "0x0000000000000000000000000000000000000000000000000000000000000001",
          "blockHash": "0x38b8c680ed07a24963e2cb12cff84c76eb1ef5ca685dcaac63b9ef61056803d3",
          "blockNumber": "0x9b8631d",
          "transactionHash": "0xa1ff4aca706ec55d7d5386e1885e85883a932b673e8b4cb009a0d7cc87835f51",
          "transactionIndex": "0x0",
          "logIndex": "0x0",
          "removed": false
        }
      ],
      "logsBloom": "0x00000000000000100000000000000000000000000000000000000000000000000000000000000000000000000000000000000000000000000000010080000000000000000000000000000000000000000000000000000000000000000000000002000000000000000000000000000000000000000004000000000000000000000000000000000000000000000000000000000000000000000000000000000000000000000008000000000000000000000000000000000000000000000000020000000002000000000000000000000000000000000000000000000000000000000040200800000000000000000000000800000000000000000000000000000000",
      "type": "0x2",
      "transactionHash": "0xa1ff4aca706ec55d7d5386e1885e85883a932b673e8b4cb009a0d7cc87835f51",
      "transactionIndex": "0x0",
      "blockHash": "0x38b8c680ed07a24963e2cb12cff84c76eb1ef5ca685dcaac63b9ef61056803d3",
      "blockNumber": "0x9b8631d",
      "gasUsed": "0x7ef4",
      "effectiveGasPrice": "0x66720b300",
      "from": "0x6faff29226219756aa40ce648dbc65fb41de5f72",
      "to": "0x7be02decc3dc3be771d851fcf457bd9baa99010a",
      "contractAddress": null
    },
    {
      "status": "0x1",
      "cumulativeGasUsed": "0x552dd",
      "logs": [
        {
          "address": "0x7be02decc3dc3be771d851fcf457bd9baa99010a",
          "topics": [
            "0xddf252ad1be2c89b69c2b068fc378daa952ba7f163c4a11628f55a4df523b3ef",
            "0x0000000000000000000000006faff29226219756aa40ce648dbc65fb41de5f72",
            "0x00000000000000000000000051f389021b2a80fcfe1eb2a7bfe8b24109c67670",
            "0x0000000000000000000000000000000000000000000000000000000000000006"
          ],
          "data": "0x",
          "blockHash": "0x38b8c680ed07a24963e2cb12cff84c76eb1ef5ca685dcaac63b9ef61056803d3",
          "blockNumber": "0x9b8631d",
          "transactionHash": "0x4d876042a20cf514f23b64d5e298766fbe73b36a9ceaa0ac48960535b941d141",
          "transactionIndex": "0x2",
          "logIndex": "0x1",
          "removed": false
        },
        {
          "address": "0x7be02decc3dc3be771d851fcf457bd9baa99010a",
          "topics": [
            "0xddf252ad1be2c89b69c2b068fc378daa952ba7f163c4a11628f55a4df523b3ef",
            "0x0000000000000000000000006faff29226219756aa40ce648dbc65fb41de5f72",
            "0x0000000000000000000000009cf16f72cf9bc492cc0a0b6c25361cbc215326ac",
            "0x0000000000000000000000000000000000000000000000000000000000000007"
          ],
          "data": "0x",
          "blockHash": "0x38b8c680ed07a24963e2cb12cff84c76eb1ef5ca685dcaac63b9ef61056803d3",
          "blockNumber": "0x9b8631d",
          "transactionHash": "0x4d876042a20cf514f23b64d5e298766fbe73b36a9ceaa0ac48960535b941d141",
          "transactionIndex": "0x2",
          "logIndex": "0x2",
          "removed": false
        },
        {
          "address": "0x7be02decc3dc3be771d851fcf457bd9baa99010a",
          "topics": [
            "0xddf252ad1be2c89b69c2b068fc378daa952ba7f163c4a11628f55a4df523b3ef",
            "0x0000000000000000000000006faff29226219756aa40ce648dbc65fb41de5f72",
            "0x000000000000000000000000576b8e71d8d0144e4cb378c4ead7313b1d5775a8",
            "0x0000000000000000000000000000000000000000000000000000000000000008"
          ],
          "data": "0x",
          "blockHash": "0x38b8c680ed07a24963e2cb12cff84c76eb1ef5ca685dcaac63b9ef61056803d3",
          "blockNumber": "0x9b8631d",
          "transactionHash": "0x4d876042a20cf514f23b64d5e298766fbe73b36a9ceaa0ac48960535b941d141",
          "transactionIndex": "0x2",
          "logIndex": "0x3",
          "removed": false
        }
      ],
      "logsBloom": "0x00000000000000100000000000000000000000000000000000008000000000000000000000000000000000000000000000001000000481000000010000000000000020000000000000000008000000000000000000000000000000000000000000000000000000000000000000000000000000000000000000000010000000000080000400000000000000000000000000000000100100000000800000000000000000000028000000000000000000000000020000000008000000080400020040000002000000000000000000000000000000000000000000000100000000000040000000000000000000000000000800000000000000000000000000000000",
      "type": "0x2",
      "transactionHash": "0x4d876042a20cf514f23b64d5e298766fbe73b36a9ceaa0ac48960535b941d141",
      "transactionIndex": "0x2",
      "blockHash": "0x38b8c680ed07a24963e2cb12cff84c76eb1ef5ca685dcaac63b9ef61056803d3",
      "blockNumber": "0x9b8631d",
      "gasUsed": "0x422f5",
      "effectiveGasPrice": "0x66720b300",
      "from": "0x6faff29226219756aa40ce648dbc65fb41de5f72",
      "to": "0x61684fc62b6a0f1273f69d9fca0e264001a61db6",
      "contractAddress": null
    }
  ],
  "libraries": [],
  "pending": [],
  "returns": {},
  "timestamp": 1724660595,
  "chain": 1001,
  "commit": "d61a3f6"
}