{
  "transactions": [
    {
      "hash": "0x5a628c1835bf4c2fef811442c43948b573063a7308d08dafdf99f18e6360836a",
      "transactionType": "CALL",
      "contractName": null,
      "contractAddress": "0x7be02decc3dc3be771d851fcf457bd9baa99010a",
      "function": "setApprovalForAll(address,bool)",
      "arguments": [
        "0x61684fc62B6a0f1273f69D9Fca0E264001a61Db6",
        "true"
      ],
      "transaction": {
        "from": "0x6faff29226219756aa40ce648dbc65fb41de5f72",
        "to": "0x7be02decc3dc3be771d851fcf457bd9baa99010a",
        "gas": "0x17f42",
        "value": "0x0",
        "input": "0xa22cb46500000000000000000000000061684fc62b6a0f1273f69d9fca0e264001a61db60000000000000000000000000000000000000000000000000000000000000001",
        "nonce": "0xfd",
        "chainId": "0x3e9"
      },
      "additionalContracts": [],
      "isFixedGasLimit": false
    },
    {
      "hash": "0x9526fcd6a7cf67869d7b33da07fad6810b77a96da170c20bbf6396a1298e8354",
      "transactionType": "CALL",
      "contractName": null,
      "contractAddress": "0x61684fc62b6a0f1273f69d9fca0e264001a61db6",
      "function": "airdropERC721(address,address[],uint256[])",
      "arguments": [
        "0x7bE02dECC3DC3BE771d851fcF457Bd9bAA99010A",
        "[0xb3cA98BB125B071C2D15032150F129e8A697EB06, 0xfbC511E6cd7b9478ab8bc98Fa358fEa869624c1E, 0x130fe337B89101bc9197Eff4C3AdaBfb9364a212, 0x8Fc8cAA43109Ab3f0D6d62A707842ff2a6F6BA32, 0x2dD7Cd23a3f8C51EC5Cf47810440b93fbe1944b5]",
        "[1, 2, 3, 4, 5]"
      ],
      "transaction": {
        "from": "0x6faff29226219756aa40ce648dbc65fb41de5f72",
        "to": "0x61684fc62b6a0f1273f69d9fca0e264001a61db6",
        "gas": "0xcc8ee",
        "value": "0x0",
        "input": "0x1d5659fb0000000000000000000000007be02decc3dc3be771d851fcf457bd9baa99010a000000000000000000000000000000000000000000000000000000000000006000000000000000000000000000000000000000000000000000000000000001200000000000000000000000000000000000000000000000000000000000000005000000000000000000000000b3ca98bb125b071c2d15032150f129e8a697eb06000000000000000000000000fbc511e6cd7b9478ab8bc98fa358fea869624c1e000000000000000000000000130fe337b89101bc9197eff4c3adabfb9364a2120000000000000000000000008fc8caa43109ab3f0d6d62a707842ff2a6f6ba320000000000000000000000002dd7cd23a3f8c51ec5cf47810440b93fbe1944b5000000000000000000000000000000000000000000000000000000000000000500000000000000000000000000000000000000000000000000000000000000010000000000000000000000000000000000000000000000000000000000000002000000000000000000000000000000000000000000000000000000000000000300000000000000000000000000000000000000000000000000000000000000040000000000000000000000000000000000000000000000000000000000000005",
        "nonce": "0xfe",
        "chainId": "0x3e9"
      },
      "additionalContracts": [],
      "isFixedGasLimit": false
    }
  ],
  "receipts": [
    {
      "status": "0x1",
      "cumulativeGasUsed": "0xccb0",
      "logs": [
        {
          "address": "0x7be02decc3dc3be771d851fcf457bd9baa99010a",
          "topics": [
            "0x17307eab39ab6107e8899845ad3d59bd9653f200f220920489ca2b5937696c31",
            "0x0000000000000000000000006faff29226219756aa40ce648dbc65fb41de5f72",
            "0x00000000000000000000000061684fc62b6a0f1273f69d9fca0e264001a61db6"
          ],
          "data": "0x0000000000000000000000000000000000000000000000000000000000000001",
          "blockHash": "0x25eafd2d79c48516261a28ab5f0b513f7d1746186f5b818fa8659e48b9a6db43",
          "blockNumber": "0x9b85853",
          "transactionHash": "0x5a628c1835bf4c2fef811442c43948b573063a7308d08dafdf99f18e6360836a",
          "transactionIndex": "0x0",
          "logIndex": "0x0",
          "removed": false
        }
      ],
      "logsBloom": "0x00000000000000100000000000000000000000000000000000000000000000000000000000000000000000000000000000000000000000000000010080000000000000000000000000000000000000000000000000000000000000000000000002000000000000000000000000000000000000000004000000000000000000000000000000000000000000000000000000000000000000000000000000000000000000000008000000000000000000000000000000000000000000000000020000000002000000000000000000000000000000000000000000000000000000000040200800000000000000000000000800000000000000000000000000000000",
      "type": "0x2",
      "transactionHash": "0x5a628c1835bf4c2fef811442c43948b573063a7308d08dafdf99f18e6360836a",
      "transactionIndex": "0x0",
      "blockHash": "0x25eafd2d79c48516261a28ab5f0b513f7d1746186f5b818fa8659e48b9a6db43",
      "blockNumber": "0x9b85853",
      "gasUsed": "0xccb0",
      "effectiveGasPrice": "0x5d21dba01",
      "from": "0x6faff29226219756aa40ce648dbc65fb41de5f72",
      "to": "0x7be02decc3dc3be771d851fcf457bd9baa99010a",
      "contractAddress": null
    },
    {
      "status": "0x1",
      "cumulativeGasUsed": "0x72a8b",
      "logs": [
        {
          "address": "0x7be02decc3dc3be771d851fcf457bd9baa99010a",
          "topics": [
            "0xddf252ad1be2c89b69c2b068fc378daa952ba7f163c4a11628f55a4df523b3ef",
            "0x0000000000000000000000006faff29226219756aa40ce648dbc65fb41de5f72",
            "0x000000000000000000000000b3ca98bb125b071c2d15032150f129e8a697eb06",
            "0x0000000000000000000000000000000000000000000000000000000000000001"
          ],
          "data": "0x",
          "blockHash": "0x25eafd2d79c48516261a28ab5f0b513f7d1746186f5b818fa8659e48b9a6db43",
          "blockNumber": "0x9b85853",
          "transactionHash": "0x9526fcd6a7cf67869d7b33da07fad6810b77a96da170c20bbf6396a1298e8354",
          "transactionIndex": "0x1",
          "logIndex": "0x1",
          "removed": false
        },
        {
          "address": "0x7be02decc3dc3be771d851fcf457bd9baa99010a",
          "topics": [
            "0xddf252ad1be2c89b69c2b068fc378daa952ba7f163c4a11628f55a4df523b3ef",
            "0x0000000000000000000000006faff29226219756aa40ce648dbc65fb41de5f72",
            "0x000000000000000000000000fbc511e6cd7b9478ab8bc98fa358fea869624c1e",
            "0x0000000000000000000000000000000000000000000000000000000000000002"
          ],
          "data": "0x",
          "blockHash": "0x25eafd2d79c48516261a28ab5f0b513f7d1746186f5b818fa8659e48b9a6db43",
          "blockNumber": "0x9b85853",
          "transactionHash": "0x9526fcd6a7cf67869d7b33da07fad6810b77a96da170c20bbf6396a1298e8354",
          "transactionIndex": "0x1",
          "logIndex": "0x2",
          "removed": false
        },
        {
          "address": "0x7be02decc3dc3be771d851fcf457bd9baa99010a",
          "topics": [
            "0xddf252ad1be2c89b69c2b068fc378daa952ba7f163c4a11628f55a4df523b3ef",
            "0x0000000000000000000000006faff29226219756aa40ce648dbc65fb41de5f72",
            "0x000000000000000000000000130fe337b89101bc9197eff4c3adabfb9364a212",
            "0x0000000000000000000000000000000000000000000000000000000000000003"
          ],
          "data": "0x",
          "blockHash": "0x25eafd2d79c48516261a28ab5f0b513f7d1746186f5b818fa8659e48b9a6db43",
          "blockNumber": "0x9b85853",
          "transactionHash": "0x9526fcd6a7cf67869d7b33da07fad6810b77a96da170c20bbf6396a1298e8354",
          "transactionIndex": "0x1",
          "logIndex": "0x3",
          "removed": false
        },
        {
          "address": "0x7be02decc3dc3be771d851fcf457bd9baa99010a",
          "topics": [
            "0xddf252ad1be2c89b69c2b068fc378daa952ba7f163c4a11628f55a4df523b3ef",
            "0x0000000000000000000000006faff29226219756aa40ce648dbc65fb41de5f72",
            "0x0000000000000000000000008fc8caa43109ab3f0d6d62a707842ff2a6f6ba32",
            "0x0000000000000000000000000000000000000000000000000000000000000004"
          ],
          "data": "0x",
          "blockHash": "0x25eafd2d79c48516261a28ab5f0b513f7d1746186f5b818fa8659e48b9a6db43",
          "blockNumber": "0x9b85853",
          "transactionHash": "0x9526fcd6a7cf67869d7b33da07fad6810b77a96da170c20bbf6396a1298e8354",
          "transactionIndex": "0x1",
          "logIndex": "0x4",
          "removed": false
        },
        {
          "address": "0x7be02decc3dc3be771d851fcf457bd9baa99010a",
          "topics": [
            "0xddf252ad1be2c89b69c2b068fc378daa952ba7f163c4a11628f55a4df523b3ef",
            "0x0000000000000000000000006faff29226219756aa40ce648dbc65fb41de5f72",
            "0x0000000000000000000000002dd7cd23a3f8c51ec5cf47810440b93fbe1944b5",
            "0x0000000000000000000000000000000000000000000000000000000000000005"
          ],
          "data": "0x",
          "blockHash": "0x25eafd2d79c48516261a28ab5f0b513f7d1746186f5b818fa8659e48b9a6db43",
          "blockNumber": "0x9b85853",
          "transactionHash": "0x9526fcd6a7cf67869d7b33da07fad6810b77a96da170c20bbf6396a1298e8354",
          "transactionIndex": "0x1",
          "logIndex": "0x5",
          "removed": false
        }
      ],
      "logsBloom": "0x04000000000000104000000080000000000000000000000000000000000000000000000000002008000000000000000040000000020000000000010000040000100010000000000000000008000000000000000000040000000000000000000008000000000000000000000000000000000000000000000000000010000000000000000000000000001020000000001000000800000200000000040000000000000000000008000000000100000000000000000001800020002000000000420000000002020000000000400000000000000000008000000000000000000040000040000000000000000000000000000800000000008000000008000000000000",
      "type": "0x2",
      "transactionHash": "0x9526fcd6a7cf67869d7b33da07fad6810b77a96da170c20bbf6396a1298e8354",
      "transactionIndex": "0x1",
      "blockHash": "0x25eafd2d79c48516261a28ab5f0b513f7d1746186f5b818fa8659e48b9a6db43",
      "blockNumber": "0x9b85853",
      "gasUsed": "0x65ddb",
      "effectiveGasPrice": "0x5d21dba01",
      "from": "0x6faff29226219756aa40ce648dbc65fb41de5f72",
      "to": "0x61684fc62b6a0f1273f69d9fca0e264001a61db6",
      "contractAddress": null
    }
  ],
  "libraries": [],
  "pending": [],
  "returns": {},
  "timestamp": 1724657837,
  "chain": 1001,
  "commit": "a55e010"
}