{
  "transactions": [
    {
      "hash": "0xa14a2786b39978cc55bb1c86136182e6687521700e97705d6cfbd935f89add5d",
      "transactionType": "CREATE",
      "contractName": "RaidTreasury",
      "contractAddress": "0xb281baaa08dad248a13326ad649f501fa7d4fc05",
      "function": null,
      "arguments": null,
      "transaction": {
        "from": "0x6faff29226219756aa40ce648dbc65fb41de5f72",
        "gas": "0xa4c0c",
        "value": "0x0",
        "input": "0x6080604052600180547332bf51fa408a0ee9b7a414c6a793760caf0861186001600160a01b031991821681179092556002805490911690911790553480156044575f80fd5b50600380546001600160a01b031916339081179091555f90815260208190526040902069021e19e0c9bab24000009055610381806100815f395ff3fe608060405260043610610057575f3560e01c80632d809cb61461009b5780633ccfd60b146100d95780638da5cb5b146100ef578063d7bb99ba14610126578063f10fdf5c1461012e578063fbec6f211461014e575f80fd5b36610097575f341180156100785750335f9081526020819052604090205415155b610080575f80fd5b600380546001600160a01b03191633908117909155005b5f80fd5b3480156100a6575f80fd5b506100c66100b53660046102ec565b5f6020819052908152604090205481565b6040519081526020015b60405180910390f35b3480156100e4575f80fd5b506100ed61016d565b005b3480156100fa575f80fd5b5060035461010e906001600160a01b031681565b6040516001600160a01b0390911681526020016100d0565b6100ed61027b565b348015610139575f80fd5b50335f908152602081905260409020546100c6565b348015610159575f80fd5b5060025461010e906001600160a01b031681565b6003546001600160a01b0316331461019857604051636db2465f60e01b815260040160405180910390fd5b6002546040516370a0823160e01b81523060048201526001600160a01b039091169063a9059cbb90339083906370a0823190602401602060405180830381865afa1580156101e8573d5f803e3d5ffd5b505050506040513d601f19601f8201168201806040525081019061020c9190610319565b6040516001600160e01b031960e085901b1681526001600160a01b03909216600483015260248201526044016020604051808303815f875af1158015610254573d5f803e3d5ffd5b505050506040513d601f19601f820116820180604052508101906102789190610330565b50565b66038d7ea4c68000341061028d575f80fd5b335f90815260208190526040812080543492906102ab90849061034f565b90915550506003546001600160a01b03165f908152602081905260408082205433835291205411156102ea57600380546001600160a01b031916331790555b565b5f602082840312156102fc575f80fd5b81356001600160a01b0381168114610312575f80fd5b9392505050565b5f60208284031215610329575f80fd5b5051919050565b5f60208284031215610340575f80fd5b81518015158114610312575f80fd5b8082018082111561036e57634e487b7160e01b5f52601160045260245ffd5b9291505056fea164736f6c6343000819000a",
        "nonce": "0x17e",
        "chainId": "0x3e9"
      },
      "additionalContracts": [],
      "isFixedGasLimit": false
    },
    {
      "hash": "0xc3e2905f286414ed7b877b6d61a41d3b34da412811eec28368f824db065c23cb",
      "transactionType": "CALL",
      "contractName": null,
      "contractAddress": "0x95ce14ee82410c4a7296205e0c663969703dc857",
      "function": "addTreasuryCastle(address)",
      "arguments": [
        "0xB281baAa08DAd248A13326Ad649F501FA7d4Fc05"
      ],
      "transaction": {
        "from": "0x6faff29226219756aa40ce648dbc65fb41de5f72",
        "to": "0x95ce14ee82410c4a7296205e0c663969703dc857",
        "gas": "0x1a8a4",
        "value": "0x0",
        "input": "0x8deee157000000000000000000000000b281baaa08dad248a13326ad649f501fa7d4fc05",
        "nonce": "0x17f",
        "chainId": "0x3e9"
      },
      "additionalContracts": [],
      "isFixedGasLimit": false
    },
    {
      "hash": "0xc1095735848542a342040a6514ce838dcaecd45a741cd3ad1200790fa0a194dc",
      "transactionType": "CREATE",
      "contractName": "RaidTreasury",
      "contractAddress": "0x692e1b9d099d99e9ac2be2801fb78fce5d7ef652",
      "function": null,
      "arguments": null,
      "transaction": {
        "from": "0x6faff29226219756aa40ce648dbc65fb41de5f72",
        "gas": "0xa4c0c",
        "value": "0x0",
        "input": "0x6080604052600180547332bf51fa408a0ee9b7a414c6a793760caf0861186001600160a01b031991821681179092556002805490911690911790553480156044575f80fd5b50600380546001600160a01b031916339081179091555f90815260208190526040902069021e19e0c9bab24000009055610381806100815f395ff3fe608060405260043610610057575f3560e01c80632d809cb61461009b5780633ccfd60b146100d95780638da5cb5b146100ef578063d7bb99ba14610126578063f10fdf5c1461012e578063fbec6f211461014e575f80fd5b36610097575f341180156100785750335f9081526020819052604090205415155b610080575f80fd5b600380546001600160a01b03191633908117909155005b5f80fd5b3480156100a6575f80fd5b506100c66100b53660046102ec565b5f6020819052908152604090205481565b6040519081526020015b60405180910390f35b3480156100e4575f80fd5b506100ed61016d565b005b3480156100fa575f80fd5b5060035461010e906001600160a01b031681565b6040516001600160a01b0390911681526020016100d0565b6100ed61027b565b348015610139575f80fd5b50335f908152602081905260409020546100c6565b348015610159575f80fd5b5060025461010e906001600160a01b031681565b6003546001600160a01b0316331461019857604051636db2465f60e01b815260040160405180910390fd5b6002546040516370a0823160e01b81523060048201526001600160a01b039091169063a9059cbb90339083906370a0823190602401602060405180830381865afa1580156101e8573d5f803e3d5ffd5b505050506040513d601f19601f8201168201806040525081019061020c9190610319565b6040516001600160e01b031960e085901b1681526001600160a01b03909216600483015260248201526044016020604051808303815f875af1158015610254573d5f803e3d5ffd5b505050506040513d601f19601f820116820180604052508101906102789190610330565b50565b66038d7ea4c68000341061028d575f80fd5b335f90815260208190526040812080543492906102ab90849061034f565b90915550506003546001600160a01b03165f908152602081905260408082205433835291205411156102ea57600380546001600160a01b031916331790555b565b5f602082840312156102fc575f80fd5b81356001600160a01b0381168114610312575f80fd5b9392505050565b5f60208284031215610329575f80fd5b5051919050565b5f60208284031215610340575f80fd5b81518015158114610312575f80fd5b8082018082111561036e57634e487b7160e01b5f52601160045260245ffd5b9291505056fea164736f6c6343000819000a",
        "nonce": "0x180",
        "chainId": "0x3e9"
      },
      "additionalContracts": [],
      "isFixedGasLimit": false
    },
    {
      "hash": "0x013714419bc1c3d0b80d92d3b426eb0ad0e02b6380fa9bdddccd478cb44c61ee",
      "transactionType": "CALL",
      "contractName": null,
      "contractAddress": "0x95ce14ee82410c4a7296205e0c663969703dc857",
      "function": "addTreasuryCastle(address)",
      "arguments": [
        "0x692E1b9d099d99E9aC2Be2801Fb78fCe5d7Ef652"
      ],
      "transaction": {
        "from": "0x6faff29226219756aa40ce648dbc65fb41de5f72",
        "to": "0x95ce14ee82410c4a7296205e0c663969703dc857",
        "gas": "0x1a8a4",
        "value": "0x0",
        "input": "0x8deee157000000000000000000000000692e1b9d099d99e9ac2be2801fb78fce5d7ef652",
        "nonce": "0x181",
        "chainId": "0x3e9"
      },
      "additionalContracts": [],
      "isFixedGasLimit": false
    },
    {
      "hash": "0xe28f583db97b91a8a49416f361fbb37791a237a4221d558124215ba0cf8024b5",
      "transactionType": "CREATE",
      "contractName": "RaidTreasury",
      "contractAddress": "0xbabc81d56c85755e6a553b04815bd669f1ae8c44",
      "function": null,
      "arguments": null,
      "transaction": {
        "from": "0x6faff29226219756aa40ce648dbc65fb41de5f72",
        "gas": "0xa4c0c",
        "value": "0x0",
        "input": "0x6080604052600180547332bf51fa408a0ee9b7a414c6a793760caf0861186001600160a01b031991821681179092556002805490911690911790553480156044575f80fd5b50600380546001600160a01b031916339081179091555f90815260208190526040902069021e19e0c9bab24000009055610381806100815f395ff3fe608060405260043610610057575f3560e01c80632d809cb61461009b5780633ccfd60b146100d95780638da5cb5b146100ef578063d7bb99ba14610126578063f10fdf5c1461012e578063fbec6f211461014e575f80fd5b36610097575f341180156100785750335f9081526020819052604090205415155b610080575f80fd5b600380546001600160a01b03191633908117909155005b5f80fd5b3480156100a6575f80fd5b506100c66100b53660046102ec565b5f6020819052908152604090205481565b6040519081526020015b60405180910390f35b3480156100e4575f80fd5b506100ed61016d565b005b3480156100fa575f80fd5b5060035461010e906001600160a01b031681565b6040516001600160a01b0390911681526020016100d0565b6100ed61027b565b348015610139575f80fd5b50335f908152602081905260409020546100c6565b348015610159575f80fd5b5060025461010e906001600160a01b031681565b6003546001600160a01b0316331461019857604051636db2465f60e01b815260040160405180910390fd5b6002546040516370a0823160e01b81523060048201526001600160a01b039091169063a9059cbb90339083906370a0823190602401602060405180830381865afa1580156101e8573d5f803e3d5ffd5b505050506040513d601f19601f8201168201806040525081019061020c9190610319565b6040516001600160e01b031960e085901b1681526001600160a01b03909216600483015260248201526044016020604051808303815f875af1158015610254573d5f803e3d5ffd5b505050506040513d601f19601f820116820180604052508101906102789190610330565b50565b66038d7ea4c68000341061028d575f80fd5b335f90815260208190526040812080543492906102ab90849061034f565b90915550506003546001600160a01b03165f908152602081905260408082205433835291205411156102ea57600380546001600160a01b031916331790555b565b5f602082840312156102fc575f80fd5b81356001600160a01b0381168114610312575f80fd5b9392505050565b5f60208284031215610329575f80fd5b5051919050565b5f60208284031215610340575f80fd5b81518015158114610312575f80fd5b8082018082111561036e57634e487b7160e01b5f52601160045260245ffd5b9291505056fea164736f6c6343000819000a",
        "nonce": "0x182",
        "chainId": "0x3e9"
      },
      "additionalContracts": [],
      "isFixedGasLimit": false
    },
    {
      "hash": "0xf5a04497eaab8b242650e7521f2e2a5d2510aa2dd83306a8a40305f47f471279",
      "transactionType": "CALL",
      "contractName": null,
      "contractAddress": "0x95ce14ee82410c4a7296205e0c663969703dc857",
      "function": "addTreasuryCastle(address)",
      "arguments": [
        "0xbABC81d56C85755e6a553B04815bD669f1Ae8C44"
      ],
      "transaction": {
        "from": "0x6faff29226219756aa40ce648dbc65fb41de5f72",
        "to": "0x95ce14ee82410c4a7296205e0c663969703dc857",
        "gas": "0x1a8a4",
        "value": "0x0",
        "input": "0x8deee157000000000000000000000000babc81d56c85755e6a553b04815bd669f1ae8c44",
        "nonce": "0x183",
        "chainId": "0x3e9"
      },
      "additionalContracts": [],
      "isFixedGasLimit": false
    },
    {
      "hash": "0x6459df1cd3fe811044cb5fdb6fd007fefe612a5a1a474eeab79b62ed449d6bd0",
      "transactionType": "CREATE",
      "contractName": "RaidTreasury",
      "contractAddress": "0x6f593139fc1acd73018d6488a839999aa36fd989",
      "function": null,
      "arguments": null,
      "transaction": {
        "from": "0x6faff29226219756aa40ce648dbc65fb41de5f72",
        "gas": "0xa4c0c",
        "value": "0x0",
        "input": "0x6080604052600180547332bf51fa408a0ee9b7a414c6a793760caf0861186001600160a01b031991821681179092556002805490911690911790553480156044575f80fd5b50600380546001600160a01b031916339081179091555f90815260208190526040902069021e19e0c9bab24000009055610381806100815f395ff3fe608060405260043610610057575f3560e01c80632d809cb61461009b5780633ccfd60b146100d95780638da5cb5b146100ef578063d7bb99ba14610126578063f10fdf5c1461012e578063fbec6f211461014e575f80fd5b36610097575f341180156100785750335f9081526020819052604090205415155b610080575f80fd5b600380546001600160a01b03191633908117909155005b5f80fd5b3480156100a6575f80fd5b506100c66100b53660046102ec565b5f6020819052908152604090205481565b6040519081526020015b60405180910390f35b3480156100e4575f80fd5b506100ed61016d565b005b3480156100fa575f80fd5b5060035461010e906001600160a01b031681565b6040516001600160a01b0390911681526020016100d0565b6100ed61027b565b348015610139575f80fd5b50335f908152602081905260409020546100c6565b348015610159575f80fd5b5060025461010e906001600160a01b031681565b6003546001600160a01b0316331461019857604051636db2465f60e01b815260040160405180910390fd5b6002546040516370a0823160e01b81523060048201526001600160a01b039091169063a9059cbb90339083906370a0823190602401602060405180830381865afa1580156101e8573d5f803e3d5ffd5b505050506040513d601f19601f8201168201806040525081019061020c9190610319565b6040516001600160e01b031960e085901b1681526001600160a01b03909216600483015260248201526044016020604051808303815f875af1158015610254573d5f803e3d5ffd5b505050506040513d601f19601f820116820180604052508101906102789190610330565b50565b66038d7ea4c68000341061028d575f80fd5b335f90815260208190526040812080543492906102ab90849061034f565b90915550506003546001600160a01b03165f908152602081905260408082205433835291205411156102ea57600380546001600160a01b031916331790555b565b5f602082840312156102fc575f80fd5b81356001600160a01b0381168114610312575f80fd5b9392505050565b5f60208284031215610329575f80fd5b5051919050565b5f60208284031215610340575f80fd5b81518015158114610312575f80fd5b8082018082111561036e57634e487b7160e01b5f52601160045260245ffd5b9291505056fea164736f6c6343000819000a",
        "nonce": "0x184",
        "chainId": "0x3e9"
      },
      "additionalContracts": [],
      "isFixedGasLimit": false
    },
    {
      "hash": "0x583b76757e6170428d7f9e9d47499ad64aa39711f8716ee00c4d80dbc45e3c3f",
      "transactionType": "CALL",
      "contractName": null,
      "contractAddress": "0x95ce14ee82410c4a7296205e0c663969703dc857",
      "function": "addTreasuryCastle(address)",
      "arguments": [
        "0x6f593139fC1acD73018D6488a839999aa36FD989"
      ],
      "transaction": {
        "from": "0x6faff29226219756aa40ce648dbc65fb41de5f72",
        "to": "0x95ce14ee82410c4a7296205e0c663969703dc857",
        "gas": "0x1a8a4",
        "value": "0x0",
        "input": "0x8deee1570000000000000000000000006f593139fc1acd73018d6488a839999aa36fd989",
        "nonce": "0x185",
        "chainId": "0x3e9"
      },
      "additionalContracts": [],
      "isFixedGasLimit": false
    },
    {
      "hash": "0x9b4ad9bf8558c52a9610a69a25a0ebb1e63ba0786b657764f6aa18fa25e0ebbb",
      "transactionType": "CREATE",
      "contractName": "RaidTreasury",
      "contractAddress": "0xed190dd278a4c0431af344b81cf433ac1b1cd18e",
      "function": null,
      "arguments": null,
      "transaction": {
        "from": "0x6faff29226219756aa40ce648dbc65fb41de5f72",
        "gas": "0xa4c0c",
        "value": "0x0",
        "input": "0x6080604052600180547332bf51fa408a0ee9b7a414c6a793760caf0861186001600160a01b031991821681179092556002805490911690911790553480156044575f80fd5b50600380546001600160a01b031916339081179091555f90815260208190526040902069021e19e0c9bab24000009055610381806100815f395ff3fe608060405260043610610057575f3560e01c80632d809cb61461009b5780633ccfd60b146100d95780638da5cb5b146100ef578063d7bb99ba14610126578063f10fdf5c1461012e578063fbec6f211461014e575f80fd5b36610097575f341180156100785750335f9081526020819052604090205415155b610080575f80fd5b600380546001600160a01b03191633908117909155005b5f80fd5b3480156100a6575f80fd5b506100c66100b53660046102ec565b5f6020819052908152604090205481565b6040519081526020015b60405180910390f35b3480156100e4575f80fd5b506100ed61016d565b005b3480156100fa575f80fd5b5060035461010e906001600160a01b031681565b6040516001600160a01b0390911681526020016100d0565b6100ed61027b565b348015610139575f80fd5b50335f908152602081905260409020546100c6565b348015610159575f80fd5b5060025461010e906001600160a01b031681565b6003546001600160a01b0316331461019857604051636db2465f60e01b815260040160405180910390fd5b6002546040516370a0823160e01b81523060048201526001600160a01b039091169063a9059cbb90339083906370a0823190602401602060405180830381865afa1580156101e8573d5f803e3d5ffd5b505050506040513d601f19601f8201168201806040525081019061020c9190610319565b6040516001600160e01b031960e085901b1681526001600160a01b03909216600483015260248201526044016020604051808303815f875af1158015610254573d5f803e3d5ffd5b505050506040513d601f19601f820116820180604052508101906102789190610330565b50565b66038d7ea4c68000341061028d575f80fd5b335f90815260208190526040812080543492906102ab90849061034f565b90915550506003546001600160a01b03165f908152602081905260408082205433835291205411156102ea57600380546001600160a01b031916331790555b565b5f602082840312156102fc575f80fd5b81356001600160a01b0381168114610312575f80fd5b9392505050565b5f60208284031215610329575f80fd5b5051919050565b5f60208284031215610340575f80fd5b81518015158114610312575f80fd5b8082018082111561036e57634e487b7160e01b5f52601160045260245ffd5b9291505056fea164736f6c6343000819000a",
        "nonce": "0x186",
        "chainId": "0x3e9"
      },
      "additionalContracts": [],
      "isFixedGasLimit": false
    },
    {
      "hash": "0xf37b7a333001750799b7fff61997df2cdb63f8a390de7e21d48871762c9d5354",
      "transactionType": "CALL",
      "contractName": null,
      "contractAddress": "0x95ce14ee82410c4a7296205e0c663969703dc857",
      "function": "addTreasuryCastle(address)",
      "arguments": [
        "0xEd190Dd278a4c0431Af344B81cF433AC1b1Cd18e"
      ],
      "transaction": {
        "from": "0x6faff29226219756aa40ce648dbc65fb41de5f72",
        "to": "0x95ce14ee82410c4a7296205e0c663969703dc857",
        "gas": "0x1a8a4",
        "value": "0x0",
        "input": "0x8deee157000000000000000000000000ed190dd278a4c0431af344b81cf433ac1b1cd18e",
        "nonce": "0x187",
        "chainId": "0x3e9"
      },
      "additionalContracts": [],
      "isFixedGasLimit": false
    },
    {
      "hash": "0x288f2938b43a2b31d2c2502e10b707a41e6af3fb8cc36cc9426c23232e84b948",
      "transactionType": "CREATE",
      "contractName": "RaidTreasury",
      "contractAddress": "0x4b70f6c5e257ebf6987cbd7faaf5fb1bc25de0a2",
      "function": null,
      "arguments": null,
      "transaction": {
        "from": "0x6faff29226219756aa40ce648dbc65fb41de5f72",
        "gas": "0xa4c0c",
        "value": "0x0",
        "input": "0x6080604052600180547332bf51fa408a0ee9b7a414c6a793760caf0861186001600160a01b031991821681179092556002805490911690911790553480156044575f80fd5b50600380546001600160a01b031916339081179091555f90815260208190526040902069021e19e0c9bab24000009055610381806100815f395ff3fe608060405260043610610057575f3560e01c80632d809cb61461009b5780633ccfd60b146100d95780638da5cb5b146100ef578063d7bb99ba14610126578063f10fdf5c1461012e578063fbec6f211461014e575f80fd5b36610097575f341180156100785750335f9081526020819052604090205415155b610080575f80fd5b600380546001600160a01b03191633908117909155005b5f80fd5b3480156100a6575f80fd5b506100c66100b53660046102ec565b5f6020819052908152604090205481565b6040519081526020015b60405180910390f35b3480156100e4575f80fd5b506100ed61016d565b005b3480156100fa575f80fd5b5060035461010e906001600160a01b031681565b6040516001600160a01b0390911681526020016100d0565b6100ed61027b565b348015610139575f80fd5b50335f908152602081905260409020546100c6565b348015610159575f80fd5b5060025461010e906001600160a01b031681565b6003546001600160a01b0316331461019857604051636db2465f60e01b815260040160405180910390fd5b6002546040516370a0823160e01b81523060048201526001600160a01b039091169063a9059cbb90339083906370a0823190602401602060405180830381865afa1580156101e8573d5f803e3d5ffd5b505050506040513d601f19601f8201168201806040525081019061020c9190610319565b6040516001600160e01b031960e085901b1681526001600160a01b03909216600483015260248201526044016020604051808303815f875af1158015610254573d5f803e3d5ffd5b505050506040513d601f19601f820116820180604052508101906102789190610330565b50565b66038d7ea4c68000341061028d575f80fd5b335f90815260208190526040812080543492906102ab90849061034f565b90915550506003546001600160a01b03165f908152602081905260408082205433835291205411156102ea57600380546001600160a01b031916331790555b565b5f602082840312156102fc575f80fd5b81356001600160a01b0381168114610312575f80fd5b9392505050565b5f60208284031215610329575f80fd5b5051919050565b5f60208284031215610340575f80fd5b81518015158114610312575f80fd5b8082018082111561036e57634e487b7160e01b5f52601160045260245ffd5b9291505056fea164736f6c6343000819000a",
        "nonce": "0x188",
        "chainId": "0x3e9"
      },
      "additionalContracts": [],
      "isFixedGasLimit": false
    },
    {
      "hash": "0x9b23f5034be9004f1b6025bfc01d720ab0d4e9d4c1ce5113258e759df143b7cb",
      "transactionType": "CALL",
      "contractName": null,
      "contractAddress": "0x95ce14ee82410c4a7296205e0c663969703dc857",
      "function": "addTreasuryCastle(address)",
      "arguments": [
        "0x4b70f6C5E257eBF6987CBD7fAAf5fb1bC25dE0A2"
      ],
      "transaction": {
        "from": "0x6faff29226219756aa40ce648dbc65fb41de5f72",
        "to": "0x95ce14ee82410c4a7296205e0c663969703dc857",
        "gas": "0x1a8a4",
        "value": "0x0",
        "input": "0x8deee1570000000000000000000000004b70f6c5e257ebf6987cbd7faaf5fb1bc25de0a2",
        "nonce": "0x189",
        "chainId": "0x3e9"
      },
      "additionalContracts": [],
      "isFixedGasLimit": false
    },
    {
      "hash": "0xfa5cd182391fb1fb94e65d937c2e491c0ed1c3b52710d46c996f614b540ab425",
      "transactionType": "CREATE",
      "contractName": "RaidTreasury",
      "contractAddress": "0x3b4013c8a0a7852e026d28a6d48f39d02a6a0e95",
      "function": null,
      "arguments": null,
      "transaction": {
        "from": "0x6faff29226219756aa40ce648dbc65fb41de5f72",
        "gas": "0xa4c0c",
        "value": "0x0",
        "input": "0x6080604052600180547332bf51fa408a0ee9b7a414c6a793760caf0861186001600160a01b031991821681179092556002805490911690911790553480156044575f80fd5b50600380546001600160a01b031916339081179091555f90815260208190526040902069021e19e0c9bab24000009055610381806100815f395ff3fe608060405260043610610057575f3560e01c80632d809cb61461009b5780633ccfd60b146100d95780638da5cb5b146100ef578063d7bb99ba14610126578063f10fdf5c1461012e578063fbec6f211461014e575f80fd5b36610097575f341180156100785750335f9081526020819052604090205415155b610080575f80fd5b600380546001600160a01b03191633908117909155005b5f80fd5b3480156100a6575f80fd5b506100c66100b53660046102ec565b5f6020819052908152604090205481565b6040519081526020015b60405180910390f35b3480156100e4575f80fd5b506100ed61016d565b005b3480156100fa575f80fd5b5060035461010e906001600160a01b031681565b6040516001600160a01b0390911681526020016100d0565b6100ed61027b565b348015610139575f80fd5b50335f908152602081905260409020546100c6565b348015610159575f80fd5b5060025461010e906001600160a01b031681565b6003546001600160a01b0316331461019857604051636db2465f60e01b815260040160405180910390fd5b6002546040516370a0823160e01b81523060048201526001600160a01b039091169063a9059cbb90339083906370a0823190602401602060405180830381865afa1580156101e8573d5f803e3d5ffd5b505050506040513d601f19601f8201168201806040525081019061020c9190610319565b6040516001600160e01b031960e085901b1681526001600160a01b03909216600483015260248201526044016020604051808303815f875af1158015610254573d5f803e3d5ffd5b505050506040513d601f19601f820116820180604052508101906102789190610330565b50565b66038d7ea4c68000341061028d575f80fd5b335f90815260208190526040812080543492906102ab90849061034f565b90915550506003546001600160a01b03165f908152602081905260408082205433835291205411156102ea57600380546001600160a01b031916331790555b565b5f602082840312156102fc575f80fd5b81356001600160a01b0381168114610312575f80fd5b9392505050565b5f60208284031215610329575f80fd5b5051919050565b5f60208284031215610340575f80fd5b81518015158114610312575f80fd5b8082018082111561036e57634e487b7160e01b5f52601160045260245ffd5b9291505056fea164736f6c6343000819000a",
        "nonce": "0x18a",
        "chainId": "0x3e9"
      },
      "additionalContracts": [],
      "isFixedGasLimit": false
    },
    {
      "hash": "0x54bd73b0fbfc37ede46a23f0c5e46ef72956b1bb953743201289135f5a066166",
      "transactionType": "CALL",
      "contractName": null,
      "contractAddress": "0x95ce14ee82410c4a7296205e0c663969703dc857",
      "function": "addTreasuryCastle(address)",
      "arguments": [
        "0x3B4013c8a0a7852e026d28A6D48f39D02a6A0e95"
      ],
      "transaction": {
        "from": "0x6faff29226219756aa40ce648dbc65fb41de5f72",
        "to": "0x95ce14ee82410c4a7296205e0c663969703dc857",
        "gas": "0x1a8a4",
        "value": "0x0",
        "input": "0x8deee1570000000000000000000000003b4013c8a0a7852e026d28a6d48f39d02a6a0e95",
        "nonce": "0x18b",
        "chainId": "0x3e9"
      },
      "additionalContracts": [],
      "isFixedGasLimit": false
    },
    {
      "hash": "0xd436bb4aaa2129ce75d9a0855e7caf1a45dddc7f4df15245fc8a3edbc75a12fc",
      "transactionType": "CREATE",
      "contractName": "RaidTreasury",
      "contractAddress": "0x9e263bff4d9ac6a5641b5671d59aac4b11c5c454",
      "function": null,
      "arguments": null,
      "transaction": {
        "from": "0x6faff29226219756aa40ce648dbc65fb41de5f72",
        "gas": "0xa4c0c",
        "value": "0x0",
        "input": "0x6080604052600180547332bf51fa408a0ee9b7a414c6a793760caf0861186001600160a01b031991821681179092556002805490911690911790553480156044575f80fd5b50600380546001600160a01b031916339081179091555f90815260208190526040902069021e19e0c9bab24000009055610381806100815f395ff3fe608060405260043610610057575f3560e01c80632d809cb61461009b5780633ccfd60b146100d95780638da5cb5b146100ef578063d7bb99ba14610126578063f10fdf5c1461012e578063fbec6f211461014e575f80fd5b36610097575f341180156100785750335f9081526020819052604090205415155b610080575f80fd5b600380546001600160a01b03191633908117909155005b5f80fd5b3480156100a6575f80fd5b506100c66100b53660046102ec565b5f6020819052908152604090205481565b6040519081526020015b60405180910390f35b3480156100e4575f80fd5b506100ed61016d565b005b3480156100fa575f80fd5b5060035461010e906001600160a01b031681565b6040516001600160a01b0390911681526020016100d0565b6100ed61027b565b348015610139575f80fd5b50335f908152602081905260409020546100c6565b348015610159575f80fd5b5060025461010e906001600160a01b031681565b6003546001600160a01b0316331461019857604051636db2465f60e01b815260040160405180910390fd5b6002546040516370a0823160e01b81523060048201526001600160a01b039091169063a9059cbb90339083906370a0823190602401602060405180830381865afa1580156101e8573d5f803e3d5ffd5b505050506040513d601f19601f8201168201806040525081019061020c9190610319565b6040516001600160e01b031960e085901b1681526001600160a01b03909216600483015260248201526044016020604051808303815f875af1158015610254573d5f803e3d5ffd5b505050506040513d601f19601f820116820180604052508101906102789190610330565b50565b66038d7ea4c68000341061028d575f80fd5b335f90815260208190526040812080543492906102ab90849061034f565b90915550506003546001600160a01b03165f908152602081905260408082205433835291205411156102ea57600380546001600160a01b031916331790555b565b5f602082840312156102fc575f80fd5b81356001600160a01b0381168114610312575f80fd5b9392505050565b5f60208284031215610329575f80fd5b5051919050565b5f60208284031215610340575f80fd5b81518015158114610312575f80fd5b8082018082111561036e57634e487b7160e01b5f52601160045260245ffd5b9291505056fea164736f6c6343000819000a",
        "nonce": "0x18c",
        "chainId": "0x3e9"
      },
      "additionalContracts": [],
      "isFixedGasLimit": false
    },
    {
      "hash": "0x1e10002ee0acf2dbb74f85e6ac7aeab5be36620479fec64d81d1112019caca1d",
      "transactionType": "CALL",
      "contractName": null,
      "contractAddress": "0x95ce14ee82410c4a7296205e0c663969703dc857",
      "function": "addTreasuryCastle(address)",
      "arguments": [
        "0x9E263bfF4D9Ac6a5641b5671D59aAC4B11C5c454"
      ],
      "transaction": {
        "from": "0x6faff29226219756aa40ce648dbc65fb41de5f72",
        "to": "0x95ce14ee82410c4a7296205e0c663969703dc857",
        "gas": "0x1a8a4",
        "value": "0x0",
        "input": "0x8deee1570000000000000000000000009e263bff4d9ac6a5641b5671d59aac4b11c5c454",
        "nonce": "0x18d",
        "chainId": "0x3e9"
      },
      "additionalContracts": [],
      "isFixedGasLimit": false
    },
    {
      "hash": "0x408f8839085edbf1d7d7c0cba207549608bdf84fb833ebe289a7c7f963e5601c",
      "transactionType": "CREATE",
      "contractName": "RaidTreasury",
      "contractAddress": "0x2f0fbcdd060b43a775094d92d683abc3b8796b74",
      "function": null,
      "arguments": null,
      "transaction": {
        "from": "0x6faff29226219756aa40ce648dbc65fb41de5f72",
        "gas": "0xa4c0c",
        "value": "0x0",
        "input": "0x6080604052600180547332bf51fa408a0ee9b7a414c6a793760caf0861186001600160a01b031991821681179092556002805490911690911790553480156044575f80fd5b50600380546001600160a01b031916339081179091555f90815260208190526040902069021e19e0c9bab24000009055610381806100815f395ff3fe608060405260043610610057575f3560e01c80632d809cb61461009b5780633ccfd60b146100d95780638da5cb5b146100ef578063d7bb99ba14610126578063f10fdf5c1461012e578063fbec6f211461014e575f80fd5b36610097575f341180156100785750335f9081526020819052604090205415155b610080575f80fd5b600380546001600160a01b03191633908117909155005b5f80fd5b3480156100a6575f80fd5b506100c66100b53660046102ec565b5f6020819052908152604090205481565b6040519081526020015b60405180910390f35b3480156100e4575f80fd5b506100ed61016d565b005b3480156100fa575f80fd5b5060035461010e906001600160a01b031681565b6040516001600160a01b0390911681526020016100d0565b6100ed61027b565b348015610139575f80fd5b50335f908152602081905260409020546100c6565b348015610159575f80fd5b5060025461010e906001600160a01b031681565b6003546001600160a01b0316331461019857604051636db2465f60e01b815260040160405180910390fd5b6002546040516370a0823160e01b81523060048201526001600160a01b039091169063a9059cbb90339083906370a0823190602401602060405180830381865afa1580156101e8573d5f803e3d5ffd5b505050506040513d601f19601f8201168201806040525081019061020c9190610319565b6040516001600160e01b031960e085901b1681526001600160a01b03909216600483015260248201526044016020604051808303815f875af1158015610254573d5f803e3d5ffd5b505050506040513d601f19601f820116820180604052508101906102789190610330565b50565b66038d7ea4c68000341061028d575f80fd5b335f90815260208190526040812080543492906102ab90849061034f565b90915550506003546001600160a01b03165f908152602081905260408082205433835291205411156102ea57600380546001600160a01b031916331790555b565b5f602082840312156102fc575f80fd5b81356001600160a01b0381168114610312575f80fd5b9392505050565b5f60208284031215610329575f80fd5b5051919050565b5f60208284031215610340575f80fd5b81518015158114610312575f80fd5b8082018082111561036e57634e487b7160e01b5f52601160045260245ffd5b9291505056fea164736f6c6343000819000a",
        "nonce": "0x18e",
        "chainId": "0x3e9"
      },
      "additionalContracts": [],
      "isFixedGasLimit": false
    },
    {
      "hash": "0xe7a5cee7c834b8a56ddcbf29b395a07f128fddb6f2a7cec60ce43f7162c286d4",
      "transactionType": "CALL",
      "contractName": null,
      "contractAddress": "0x95ce14ee82410c4a7296205e0c663969703dc857",
      "function": "addTreasuryCastle(address)",
      "arguments": [
        "0x2F0fBcdd060B43a775094D92D683abC3B8796B74"
      ],
      "transaction": {
        "from": "0x6faff29226219756aa40ce648dbc65fb41de5f72",
        "to": "0x95ce14ee82410c4a7296205e0c663969703dc857",
        "gas": "0x1a8a4",
        "value": "0x0",
        "input": "0x8deee1570000000000000000000000002f0fbcdd060b43a775094d92d683abc3b8796b74",
        "nonce": "0x18f",
        "chainId": "0x3e9"
      },
      "additionalContracts": [],
      "isFixedGasLimit": false
    },
    {
      "hash": "0xc4670d55bba0b8f028bdb3accc69143c238900f940b6db2926e3465a62e771b2",
      "transactionType": "CREATE",
      "contractName": "RaidTreasury",
      "contractAddress": "0xac8a389004a1275a76bfd387dfa584058ea7cc7d",
      "function": null,
      "arguments": null,
      "transaction": {
        "from": "0x6faff29226219756aa40ce648dbc65fb41de5f72",
        "gas": "0xa4c0c",
        "value": "0x0",
        "input": "0x6080604052600180547332bf51fa408a0ee9b7a414c6a793760caf0861186001600160a01b031991821681179092556002805490911690911790553480156044575f80fd5b50600380546001600160a01b031916339081179091555f90815260208190526040902069021e19e0c9bab24000009055610381806100815f395ff3fe608060405260043610610057575f3560e01c80632d809cb61461009b5780633ccfd60b146100d95780638da5cb5b146100ef578063d7bb99ba14610126578063f10fdf5c1461012e578063fbec6f211461014e575f80fd5b36610097575f341180156100785750335f9081526020819052604090205415155b610080575f80fd5b600380546001600160a01b03191633908117909155005b5f80fd5b3480156100a6575f80fd5b506100c66100b53660046102ec565b5f6020819052908152604090205481565b6040519081526020015b60405180910390f35b3480156100e4575f80fd5b506100ed61016d565b005b3480156100fa575f80fd5b5060035461010e906001600160a01b031681565b6040516001600160a01b0390911681526020016100d0565b6100ed61027b565b348015610139575f80fd5b50335f908152602081905260409020546100c6565b348015610159575f80fd5b5060025461010e906001600160a01b031681565b6003546001600160a01b0316331461019857604051636db2465f60e01b815260040160405180910390fd5b6002546040516370a0823160e01b81523060048201526001600160a01b039091169063a9059cbb90339083906370a0823190602401602060405180830381865afa1580156101e8573d5f803e3d5ffd5b505050506040513d601f19601f8201168201806040525081019061020c9190610319565b6040516001600160e01b031960e085901b1681526001600160a01b03909216600483015260248201526044016020604051808303815f875af1158015610254573d5f803e3d5ffd5b505050506040513d601f19601f820116820180604052508101906102789190610330565b50565b66038d7ea4c68000341061028d575f80fd5b335f90815260208190526040812080543492906102ab90849061034f565b90915550506003546001600160a01b03165f908152602081905260408082205433835291205411156102ea57600380546001600160a01b031916331790555b565b5f602082840312156102fc575f80fd5b81356001600160a01b0381168114610312575f80fd5b9392505050565b5f60208284031215610329575f80fd5b5051919050565b5f60208284031215610340575f80fd5b81518015158114610312575f80fd5b8082018082111561036e57634e487b7160e01b5f52601160045260245ffd5b9291505056fea164736f6c6343000819000a",
        "nonce": "0x190",
        "chainId": "0x3e9"
      },
      "additionalContracts": [],
      "isFixedGasLimit": false
    },
    {
      "hash": "0x57f1cdbd81002c35d5c5d5c55ba360758e4904fa13ee858d27d796918778be65",
      "transactionType": "CALL",
      "contractName": null,
      "contractAddress": "0x95ce14ee82410c4a7296205e0c663969703dc857",
      "function": "addTreasuryCastle(address)",
      "arguments": [
        "0xac8A389004A1275a76BFd387DFA584058eA7CC7d"
      ],
      "transaction": {
        "from": "0x6faff29226219756aa40ce648dbc65fb41de5f72",
        "to": "0x95ce14ee82410c4a7296205e0c663969703dc857",
        "gas": "0x1a8a4",
        "value": "0x0",
        "input": "0x8deee157000000000000000000000000ac8a389004a1275a76bfd387dfa584058ea7cc7d",
        "nonce": "0x191",
        "chainId": "0x3e9"
      },
      "additionalContracts": [],
      "isFixedGasLimit": false
    }
  ],
  "receipts": [
    {
      "status": "0x1",
      "cumulativeGasUsed": "0x677ce",
      "logs": [],
      "logsBloom": "0x00000000000000000000000000000000000000000000000000000000000000000000000000000000000000000000000000000000000000000000000000000000000000000000000000000000000000000000000000000000000000000000000000000000000000000000000000000000000000000000000000000000000000000000000000000000000000000000000000000000000000000000000000000000000000000000000000000000000000000000000000000000000000000000000000000000000000000000000000000000000000000000000000000000000000000000000000000000000000000000000000000000000000000000000000000000",
      "type": "0x2",
      "transactionHash": "0xa14a2786b39978cc55bb1c86136182e6687521700e97705d6cfbd935f89add5d",
      "transactionIndex": "0x0",
      "blockHash": "0x4e0e004e12ece0e0c459dae650248a1ae68ed6abddb3cc6effebec9b7d5a6395",
      "blockNumber": "0x9bb17b6",
      "gasUsed": "0x677ce",
      "effectiveGasPrice": "0x70b0a5e80",
      "from": "0x6faff29226219756aa40ce648dbc65fb41de5f72",
      "to": null,
      "contractAddress": "0xb281baaa08dad248a13326ad649f501fa7d4fc05"
    },
    {
      "status": "0x1",
      "cumulativeGasUsed": "0x74c03",
      "logs": [],
      "logsBloom": "0x00000000000000000000000000000000000000000000000000000000000000000000000000000000000000000000000000000000000000000000000000000000000000000000000000000000000000000000000000000000000000000000000000000000000000000000000000000000000000000000000000000000000000000000000000000000000000000000000000000000000000000000000000000000000000000000000000000000000000000000000000000000000000000000000000000000000000000000000000000000000000000000000000000000000000000000000000000000000000000000000000000000000000000000000000000000",
      "type": "0x2",
      "transactionHash": "0xc3e2905f286414ed7b877b6d61a41d3b34da412811eec28368f824db065c23cb",
      "transactionIndex": "0x1",
      "blockHash": "0x4e0e004e12ece0e0c459dae650248a1ae68ed6abddb3cc6effebec9b7d5a6395",
      "blockNumber": "0x9bb17b6",
      "gasUsed": "0xd435",
      "effectiveGasPrice": "0x70b0a5e80",
      "from": "0x6faff29226219756aa40ce648dbc65fb41de5f72",
      "to": "0x95ce14ee82410c4a7296205e0c663969703dc857",
      "contractAddress": null
    },
    {
      "status": "0x1",
      "cumulativeGasUsed": "0xdc3d1",
      "logs": [],
      "logsBloom": "0x00000000000000000000000000000000000000000000000000000000000000000000000000000000000000000000000000000000000000000000000000000000000000000000000000000000000000000000000000000000000000000000000000000000000000000000000000000000000000000000000000000000000000000000000000000000000000000000000000000000000000000000000000000000000000000000000000000000000000000000000000000000000000000000000000000000000000000000000000000000000000000000000000000000000000000000000000000000000000000000000000000000000000000000000000000000",
      "type": "0x2",
      "transactionHash": "0xc1095735848542a342040a6514ce838dcaecd45a741cd3ad1200790fa0a194dc",
      "transactionIndex": "0x2",
      "blockHash": "0x4e0e004e12ece0e0c459dae650248a1ae68ed6abddb3cc6effebec9b7d5a6395",
      "blockNumber": "0x9bb17b6",
      "gasUsed": "0x677ce",
      "effectiveGasPrice": "0x70b0a5e80",
      "from": "0x6faff29226219756aa40ce648dbc65fb41de5f72",
      "to": null,
      "contractAddress": "0x692e1b9d099d99e9ac2be2801fb78fce5d7ef652"
    },
    {
      "status": "0x1",
      "cumulativeGasUsed": "0xe9806",
      "logs": [],
      "logsBloom": "0x00000000000000000000000000000000000000000000000000000000000000000000000000000000000000000000000000000000000000000000000000000000000000000000000000000000000000000000000000000000000000000000000000000000000000000000000000000000000000000000000000000000000000000000000000000000000000000000000000000000000000000000000000000000000000000000000000000000000000000000000000000000000000000000000000000000000000000000000000000000000000000000000000000000000000000000000000000000000000000000000000000000000000000000000000000000",
      "type": "0x2",
      "transactionHash": "0x013714419bc1c3d0b80d92d3b426eb0ad0e02b6380fa9bdddccd478cb44c61ee",
      "transactionIndex": "0x3",
      "blockHash": "0x4e0e004e12ece0e0c459dae650248a1ae68ed6abddb3cc6effebec9b7d5a6395",
      "blockNumber": "0x9bb17b6",
      "gasUsed": "0xd435",
      "effectiveGasPrice": "0x70b0a5e80",
      "from": "0x6faff29226219756aa40ce648dbc65fb41de5f72",
      "to": "0x95ce14ee82410c4a7296205e0c663969703dc857",
      "contractAddress": null
    },
    {
      "status": "0x1",
      "cumulativeGasUsed": "0x150fd4",
      "logs": [],
      "logsBloom": "0x00000000000000000000000000000000000000000000000000000000000000000000000000000000000000000000000000000000000000000000000000000000000000000000000000000000000000000000000000000000000000000000000000000000000000000000000000000000000000000000000000000000000000000000000000000000000000000000000000000000000000000000000000000000000000000000000000000000000000000000000000000000000000000000000000000000000000000000000000000000000000000000000000000000000000000000000000000000000000000000000000000000000000000000000000000000",
      "type": "0x2",
      "transactionHash": "0xe28f583db97b91a8a49416f361fbb37791a237a4221d558124215ba0cf8024b5",
      "transactionIndex": "0x4",
      "blockHash": "0x4e0e004e12ece0e0c459dae650248a1ae68ed6abddb3cc6effebec9b7d5a6395",
      "blockNumber": "0x9bb17b6",
      "gasUsed": "0x677ce",
      "effectiveGasPrice": "0x70b0a5e80",
      "from": "0x6faff29226219756aa40ce648dbc65fb41de5f72",
      "to": null,
      "contractAddress": "0xbabc81d56c85755e6a553b04815bd669f1ae8c44"
    },
    {
      "status": "0x1",
      "cumulativeGasUsed": "0x15e409",
      "logs": [],
      "logsBloom": "0x00000000000000000000000000000000000000000000000000000000000000000000000000000000000000000000000000000000000000000000000000000000000000000000000000000000000000000000000000000000000000000000000000000000000000000000000000000000000000000000000000000000000000000000000000000000000000000000000000000000000000000000000000000000000000000000000000000000000000000000000000000000000000000000000000000000000000000000000000000000000000000000000000000000000000000000000000000000000000000000000000000000000000000000000000000000",
      "type": "0x2",
      "transactionHash": "0xf5a04497eaab8b242650e7521f2e2a5d2510aa2dd83306a8a40305f47f471279",
      "transactionIndex": "0x5",
      "blockHash": "0x4e0e004e12ece0e0c459dae650248a1ae68ed6abddb3cc6effebec9b7d5a6395",
      "blockNumber": "0x9bb17b6",
      "gasUsed": "0xd435",
      "effectiveGasPrice": "0x70b0a5e80",
      "from": "0x6faff29226219756aa40ce648dbc65fb41de5f72",
      "to": "0x95ce14ee82410c4a7296205e0c663969703dc857",
      "contractAddress": null
    },
    {
      "status": "0x1",
      "cumulativeGasUsed": "0x1c5bd7",
      "logs": [],
      "logsBloom": "0x00000000000000000000000000000000000000000000000000000000000000000000000000000000000000000000000000000000000000000000000000000000000000000000000000000000000000000000000000000000000000000000000000000000000000000000000000000000000000000000000000000000000000000000000000000000000000000000000000000000000000000000000000000000000000000000000000000000000000000000000000000000000000000000000000000000000000000000000000000000000000000000000000000000000000000000000000000000000000000000000000000000000000000000000000000000",
      "type": "0x2",
      "transactionHash": "0x6459df1cd3fe811044cb5fdb6fd007fefe612a5a1a474eeab79b62ed449d6bd0",
      "transactionIndex": "0x6",
      "blockHash": "0x4e0e004e12ece0e0c459dae650248a1ae68ed6abddb3cc6effebec9b7d5a6395",
      "blockNumber": "0x9bb17b6",
      "gasUsed": "0x677ce",
      "effectiveGasPrice": "0x70b0a5e80",
      "from": "0x6faff29226219756aa40ce648dbc65fb41de5f72",
      "to": null,
      "contractAddress": "0x6f593139fc1acd73018d6488a839999aa36fd989"
    },
    {
      "status": "0x1",
      "cumulativeGasUsed": "0x1d300c",
      "logs": [],
      "logsBloom": "0x00000000000000000000000000000000000000000000000000000000000000000000000000000000000000000000000000000000000000000000000000000000000000000000000000000000000000000000000000000000000000000000000000000000000000000000000000000000000000000000000000000000000000000000000000000000000000000000000000000000000000000000000000000000000000000000000000000000000000000000000000000000000000000000000000000000000000000000000000000000000000000000000000000000000000000000000000000000000000000000000000000000000000000000000000000000",
      "type": "0x2",
      "transactionHash": "0x583b76757e6170428d7f9e9d47499ad64aa39711f8716ee00c4d80dbc45e3c3f",
      "transactionIndex": "0x7",
      "blockHash": "0x4e0e004e12ece0e0c459dae650248a1ae68ed6abddb3cc6effebec9b7d5a6395",
      "blockNumber": "0x9bb17b6",
      "gasUsed": "0xd435",
      "effectiveGasPrice": "0x70b0a5e80",
      "from": "0x6faff29226219756aa40ce648dbc65fb41de5f72",
      "to": "0x95ce14ee82410c4a7296205e0c663969703dc857",
      "contractAddress": null
    },
    {
      "status": "0x1",
      "cumulativeGasUsed": "0x23a7da",
      "logs": [],
      "logsBloom": "0x00000000000000000000000000000000000000000000000000000000000000000000000000000000000000000000000000000000000000000000000000000000000000000000000000000000000000000000000000000000000000000000000000000000000000000000000000000000000000000000000000000000000000000000000000000000000000000000000000000000000000000000000000000000000000000000000000000000000000000000000000000000000000000000000000000000000000000000000000000000000000000000000000000000000000000000000000000000000000000000000000000000000000000000000000000000",
      "type": "0x2",
      "transactionHash": "0x9b4ad9bf8558c52a9610a69a25a0ebb1e63ba0786b657764f6aa18fa25e0ebbb",
      "transactionIndex": "0x8",
      "blockHash": "0x4e0e004e12ece0e0c459dae650248a1ae68ed6abddb3cc6effebec9b7d5a6395",
      "blockNumber": "0x9bb17b6",
      "gasUsed": "0x677ce",
      "effectiveGasPrice": "0x70b0a5e80",
      "from": "0x6faff29226219756aa40ce648dbc65fb41de5f72",
      "to": null,
      "contractAddress": "0xed190dd278a4c0431af344b81cf433ac1b1cd18e"
    },
    {
      "status": "0x1",
      "cumulativeGasUsed": "0x247c0f",
      "logs": [],
      "logsBloom": "0x00000000000000000000000000000000000000000000000000000000000000000000000000000000000000000000000000000000000000000000000000000000000000000000000000000000000000000000000000000000000000000000000000000000000000000000000000000000000000000000000000000000000000000000000000000000000000000000000000000000000000000000000000000000000000000000000000000000000000000000000000000000000000000000000000000000000000000000000000000000000000000000000000000000000000000000000000000000000000000000000000000000000000000000000000000000",
      "type": "0x2",
      "transactionHash": "0xf37b7a333001750799b7fff61997df2cdb63f8a390de7e21d48871762c9d5354",
      "transactionIndex": "0x9",
      "blockHash": "0x4e0e004e12ece0e0c459dae650248a1ae68ed6abddb3cc6effebec9b7d5a6395",
      "blockNumber": "0x9bb17b6",
      "gasUsed": "0xd435",
      "effectiveGasPrice": "0x70b0a5e80",
      "from": "0x6faff29226219756aa40ce648dbc65fb41de5f72",
      "to": "0x95ce14ee82410c4a7296205e0c663969703dc857",
      "contractAddress": null
    },
    {
      "status": "0x1",
      "cumulativeGasUsed": "0x2af3dd",
      "logs": [],
      "logsBloom": "0x00000000000000000000000000000000000000000000000000000000000000000000000000000000000000000000000000000000000000000000000000000000000000000000000000000000000000000000000000000000000000000000000000000000000000000000000000000000000000000000000000000000000000000000000000000000000000000000000000000000000000000000000000000000000000000000000000000000000000000000000000000000000000000000000000000000000000000000000000000000000000000000000000000000000000000000000000000000000000000000000000000000000000000000000000000000",
      "type": "0x2",
      "transactionHash": "0x288f2938b43a2b31d2c2502e10b707a41e6af3fb8cc36cc9426c23232e84b948",
      "transactionIndex": "0xa",
      "blockHash": "0x4e0e004e12ece0e0c459dae650248a1ae68ed6abddb3cc6effebec9b7d5a6395",
      "blockNumber": "0x9bb17b6",
      "gasUsed": "0x677ce",
      "effectiveGasPrice": "0x70b0a5e80",
      "from": "0x6faff29226219756aa40ce648dbc65fb41de5f72",
      "to": null,
      "contractAddress": "0x4b70f6c5e257ebf6987cbd7faaf5fb1bc25de0a2"
    },
    {
      "status": "0x1",
      "cumulativeGasUsed": "0x2bc812",
      "logs": [],
      "logsBloom": "0x00000000000000000000000000000000000000000000000000000000000000000000000000000000000000000000000000000000000000000000000000000000000000000000000000000000000000000000000000000000000000000000000000000000000000000000000000000000000000000000000000000000000000000000000000000000000000000000000000000000000000000000000000000000000000000000000000000000000000000000000000000000000000000000000000000000000000000000000000000000000000000000000000000000000000000000000000000000000000000000000000000000000000000000000000000000",
      "type": "0x2",
      "transactionHash": "0x9b23f5034be9004f1b6025bfc01d720ab0d4e9d4c1ce5113258e759df143b7cb",
      "transactionIndex": "0xb",
      "blockHash": "0x4e0e004e12ece0e0c459dae650248a1ae68ed6abddb3cc6effebec9b7d5a6395",
      "blockNumber": "0x9bb17b6",
      "gasUsed": "0xd435",
      "effectiveGasPrice": "0x70b0a5e80",
      "from": "0x6faff29226219756aa40ce648dbc65fb41de5f72",
      "to": "0x95ce14ee82410c4a7296205e0c663969703dc857",
      "contractAddress": null
    },
    {
      "status": "0x1",
      "cumulativeGasUsed": "0x323fe0",
      "logs": [],
      "logsBloom": "0x00000000000000000000000000000000000000000000000000000000000000000000000000000000000000000000000000000000000000000000000000000000000000000000000000000000000000000000000000000000000000000000000000000000000000000000000000000000000000000000000000000000000000000000000000000000000000000000000000000000000000000000000000000000000000000000000000000000000000000000000000000000000000000000000000000000000000000000000000000000000000000000000000000000000000000000000000000000000000000000000000000000000000000000000000000000",
      "type": "0x2",
      "transactionHash": "0xfa5cd182391fb1fb94e65d937c2e491c0ed1c3b52710d46c996f614b540ab425",
      "transactionIndex": "0xc",
      "blockHash": "0x4e0e004e12ece0e0c459dae650248a1ae68ed6abddb3cc6effebec9b7d5a6395",
      "blockNumber": "0x9bb17b6",
      "gasUsed": "0x677ce",
      "effectiveGasPrice": "0x70b0a5e80",
      "from": "0x6faff29226219756aa40ce648dbc65fb41de5f72",
      "to": null,
      "contractAddress": "0x3b4013c8a0a7852e026d28a6d48f39d02a6a0e95"
    },
    {
      "status": "0x1",
      "cumulativeGasUsed": "0x331415",
      "logs": [],
      "logsBloom": "0x00000000000000000000000000000000000000000000000000000000000000000000000000000000000000000000000000000000000000000000000000000000000000000000000000000000000000000000000000000000000000000000000000000000000000000000000000000000000000000000000000000000000000000000000000000000000000000000000000000000000000000000000000000000000000000000000000000000000000000000000000000000000000000000000000000000000000000000000000000000000000000000000000000000000000000000000000000000000000000000000000000000000000000000000000000000",
      "type": "0x2",
      "transactionHash": "0x54bd73b0fbfc37ede46a23f0c5e46ef72956b1bb953743201289135f5a066166",
      "transactionIndex": "0xd",
      "blockHash": "0x4e0e004e12ece0e0c459dae650248a1ae68ed6abddb3cc6effebec9b7d5a6395",
      "blockNumber": "0x9bb17b6",
      "gasUsed": "0xd435",
      "effectiveGasPrice": "0x70b0a5e80",
      "from": "0x6faff29226219756aa40ce648dbc65fb41de5f72",
      "to": "0x95ce14ee82410c4a7296205e0c663969703dc857",
      "contractAddress": null
    },
    {
      "status": "0x1",
      "cumulativeGasUsed": "0x398be3",
      "logs": [],
      "logsBloom": "0x00000000000000000000000000000000000000000000000000000000000000000000000000000000000000000000000000000000000000000000000000000000000000000000000000000000000000000000000000000000000000000000000000000000000000000000000000000000000000000000000000000000000000000000000000000000000000000000000000000000000000000000000000000000000000000000000000000000000000000000000000000000000000000000000000000000000000000000000000000000000000000000000000000000000000000000000000000000000000000000000000000000000000000000000000000000",
      "type": "0x2",
      "transactionHash": "0xd436bb4aaa2129ce75d9a0855e7caf1a45dddc7f4df15245fc8a3edbc75a12fc",
      "transactionIndex": "0xe",
      "blockHash": "0x4e0e004e12ece0e0c459dae650248a1ae68ed6abddb3cc6effebec9b7d5a6395",
      "blockNumber": "0x9bb17b6",
      "gasUsed": "0x677ce",
      "effectiveGasPrice": "0x70b0a5e80",
      "from": "0x6faff29226219756aa40ce648dbc65fb41de5f72",
      "to": null,
      "contractAddress": "0x9e263bff4d9ac6a5641b5671d59aac4b11c5c454"
    },
    {
      "status": "0x1",
      "cumulativeGasUsed": "0x3a6018",
      "logs": [],
      "logsBloom": "0x00000000000000000000000000000000000000000000000000000000000000000000000000000000000000000000000000000000000000000000000000000000000000000000000000000000000000000000000000000000000000000000000000000000000000000000000000000000000000000000000000000000000000000000000000000000000000000000000000000000000000000000000000000000000000000000000000000000000000000000000000000000000000000000000000000000000000000000000000000000000000000000000000000000000000000000000000000000000000000000000000000000000000000000000000000000",
      "type": "0x2",
      "transactionHash": "0x1e10002ee0acf2dbb74f85e6ac7aeab5be36620479fec64d81d1112019caca1d",
      "transactionIndex": "0xf",
      "blockHash": "0x4e0e004e12ece0e0c459dae650248a1ae68ed6abddb3cc6effebec9b7d5a6395",
      "blockNumber": "0x9bb17b6",
      "gasUsed": "0xd435",
      "effectiveGasPrice": "0x70b0a5e80",
      "from": "0x6faff29226219756aa40ce648dbc65fb41de5f72",
      "to": "0x95ce14ee82410c4a7296205e0c663969703dc857",
      "contractAddress": null
    },
    {
      "status": "0x1",
      "cumulativeGasUsed": "0x40d7e6",
      "logs": [],
      "logsBloom": "0x00000000000000000000000000000000000000000000000000000000000000000000000000000000000000000000000000000000000000000000000000000000000000000000000000000000000000000000000000000000000000000000000000000000000000000000000000000000000000000000000000000000000000000000000000000000000000000000000000000000000000000000000000000000000000000000000000000000000000000000000000000000000000000000000000000000000000000000000000000000000000000000000000000000000000000000000000000000000000000000000000000000000000000000000000000000",
      "type": "0x2",
      "transactionHash": "0x408f8839085edbf1d7d7c0cba207549608bdf84fb833ebe289a7c7f963e5601c",
      "transactionIndex": "0x10",
      "blockHash": "0x4e0e004e12ece0e0c459dae650248a1ae68ed6abddb3cc6effebec9b7d5a6395",
      "blockNumber": "0x9bb17b6",
      "gasUsed": "0x677ce",
      "effectiveGasPrice": "0x70b0a5e80",
      "from": "0x6faff29226219756aa40ce648dbc65fb41de5f72",
      "to": null,
      "contractAddress": "0x2f0fbcdd060b43a775094d92d683abc3b8796b74"
    },
    {
      "status": "0x1",
      "cumulativeGasUsed": "0x41ac1b",
      "logs": [],
      "logsBloom": "0x00000000000000000000000000000000000000000000000000000000000000000000000000000000000000000000000000000000000000000000000000000000000000000000000000000000000000000000000000000000000000000000000000000000000000000000000000000000000000000000000000000000000000000000000000000000000000000000000000000000000000000000000000000000000000000000000000000000000000000000000000000000000000000000000000000000000000000000000000000000000000000000000000000000000000000000000000000000000000000000000000000000000000000000000000000000",
      "type": "0x2",
      "transactionHash": "0xe7a5cee7c834b8a56ddcbf29b395a07f128fddb6f2a7cec60ce43f7162c286d4",
      "transactionIndex": "0x11",
      "blockHash": "0x4e0e004e12ece0e0c459dae650248a1ae68ed6abddb3cc6effebec9b7d5a6395",
      "blockNumber": "0x9bb17b6",
      "gasUsed": "0xd435",
      "effectiveGasPrice": "0x70b0a5e80",
      "from": "0x6faff29226219756aa40ce648dbc65fb41de5f72",
      "to": "0x95ce14ee82410c4a7296205e0c663969703dc857",
      "contractAddress": null
    },
    {
      "status": "0x1",
      "cumulativeGasUsed": "0x4823e9",
      "logs": [],
      "logsBloom": "0x00000000000000000000000000000000000000000000000000000000000000000000000000000000000000000000000000000000000000000000000000000000000000000000000000000000000000000000000000000000000000000000000000000000000000000000000000000000000000000000000000000000000000000000000000000000000000000000000000000000000000000000000000000000000000000000000000000000000000000000000000000000000000000000000000000000000000000000000000000000000000000000000000000000000000000000000000000000000000000000000000000000000000000000000000000000",
      "type": "0x2",
      "transactionHash": "0xc4670d55bba0b8f028bdb3accc69143c238900f940b6db2926e3465a62e771b2",
      "transactionIndex": "0x12",
      "blockHash": "0x4e0e004e12ece0e0c459dae650248a1ae68ed6abddb3cc6effebec9b7d5a6395",
      "blockNumber": "0x9bb17b6",
      "gasUsed": "0x677ce",
      "effectiveGasPrice": "0x70b0a5e80",
      "from": "0x6faff29226219756aa40ce648dbc65fb41de5f72",
      "to": null,
      "contractAddress": "0xac8a389004a1275a76bfd387dfa584058ea7cc7d"
    },
    {
      "status": "0x1",
      "cumulativeGasUsed": "0x48f81e",
      "logs": [],
      "logsBloom": "0x00000000000000000000000000000000000000000000000000000000000000000000000000000000000000000000000000000000000000000000000000000000000000000000000000000000000000000000000000000000000000000000000000000000000000000000000000000000000000000000000000000000000000000000000000000000000000000000000000000000000000000000000000000000000000000000000000000000000000000000000000000000000000000000000000000000000000000000000000000000000000000000000000000000000000000000000000000000000000000000000000000000000000000000000000000000",
      "type": "0x2",
      "transactionHash": "0x57f1cdbd81002c35d5c5d5c55ba360758e4904fa13ee858d27d796918778be65",
      "transactionIndex": "0x13",
      "blockHash": "0x4e0e004e12ece0e0c459dae650248a1ae68ed6abddb3cc6effebec9b7d5a6395",
      "blockNumber": "0x9bb17b6",
      "gasUsed": "0xd435",
      "effectiveGasPrice": "0x70b0a5e80",
      "from": "0x6faff29226219756aa40ce648dbc65fb41de5f72",
      "to": "0x95ce14ee82410c4a7296205e0c663969703dc857",
      "contractAddress": null
    }
  ],
  "libraries": [],
  "pending": [],
  "returns": {},
  "timestamp": 1724837904,
  "chain": 1001,
  "commit": "dbc37e5"
}