{
  "transactions": [
    {
      "hash": "0x4f96d364ec692c4ee34f1416874a331e97d1376dec063376d24d983990a33c68",
      "transactionType": "CREATE",
      "contractName": "RaidTreasury",
      "contractAddress": "0x9973c1504f133b04f8b8b24d3871c373d9296d18",
      "function": null,
      "arguments": null,
      "transaction": {
        "from": "0x6faff29226219756aa40ce648dbc65fb41de5f72",
        "gas": "0xa4c0c",
        "value": "0x0",
        "input": "0x6080604052600180547332bf51fa408a0ee9b7a414c6a793760caf0861186001600160a01b031991821681179092556002805490911690911790553480156044575f80fd5b50600380546001600160a01b031916339081179091555f90815260208190526040902069021e19e0c9bab24000009055610381806100815f395ff3fe608060405260043610610057575f3560e01c80632d809cb61461009b5780633ccfd60b146100d95780638da5cb5b146100ef578063d7bb99ba14610126578063f10fdf5c1461012e578063fbec6f211461014e575f80fd5b36610097575f341180156100785750335f9081526020819052604090205415155b610080575f80fd5b600380546001600160a01b03191633908117909155005b5f80fd5b3480156100a6575f80fd5b506100c66100b53660046102ec565b5f6020819052908152604090205481565b6040519081526020015b60405180910390f35b3480156100e4575f80fd5b506100ed61016d565b005b3480156100fa575f80fd5b5060035461010e906001600160a01b031681565b6040516001600160a01b0390911681526020016100d0565b6100ed61027b565b348015610139575f80fd5b50335f908152602081905260409020546100c6565b348015610159575f80fd5b5060025461010e906001600160a01b031681565b6003546001600160a01b0316331461019857604051636db2465f60e01b815260040160405180910390fd5b6002546040516370a0823160e01b81523060048201526001600160a01b039091169063a9059cbb90339083906370a0823190602401602060405180830381865afa1580156101e8573d5f803e3d5ffd5b505050506040513d601f19601f8201168201806040525081019061020c9190610319565b6040516001600160e01b031960e085901b1681526001600160a01b03909216600483015260248201526044016020604051808303815f875af1158015610254573d5f803e3d5ffd5b505050506040513d601f19601f820116820180604052508101906102789190610330565b50565b66038d7ea4c68000341061028d575f80fd5b335f90815260208190526040812080543492906102ab90849061034f565b90915550506003546001600160a01b03165f908152602081905260408082205433835291205411156102ea57600380546001600160a01b031916331790555b565b5f602082840312156102fc575f80fd5b81356001600160a01b0381168114610312575f80fd5b9392505050565b5f60208284031215610329575f80fd5b5051919050565b5f60208284031215610340575f80fd5b81518015158114610312575f80fd5b8082018082111561036e57634e487b7160e01b5f52601160045260245ffd5b9291505056fea164736f6c6343000819000a",
        "nonce": "0x192",
        "chainId": "0x3e9"
      },
      "additionalContracts": [],
      "isFixedGasLimit": false
    },
    {
      "hash": "0xe28401ea8251ae581552ffa8be3df2c337f1b110bd76bd2072d5ee21009a1631",
      "transactionType": "CALL",
      "contractName": null,
      "contractAddress": "0x95ce14ee82410c4a7296205e0c663969703dc857",
      "function": "addTreasuryCastle(address)",
      "arguments": [
        "0x9973c1504F133B04F8B8B24d3871C373d9296D18"
      ],
      "transaction": {
        "from": "0x6faff29226219756aa40ce648dbc65fb41de5f72",
        "to": "0x95ce14ee82410c4a7296205e0c663969703dc857",
        "gas": "0x1a8a4",
        "value": "0x0",
        "input": "0x8deee1570000000000000000000000009973c1504f133b04f8b8b24d3871c373d9296d18",
        "nonce": "0x193",
        "chainId": "0x3e9"
      },
      "additionalContracts": [],
      "isFixedGasLimit": false
    },
    {
      "hash": "0x960dbf96bf899a494af7a76208c427ffa93e1a515e04acd5bf31b0835cdec48e",
      "transactionType": "CREATE",
      "contractName": "RaidTreasury",
      "contractAddress": "0x1406116f6d9b66b855d3cdb78e193c7be64887f0",
      "function": null,
      "arguments": null,
      "transaction": {
        "from": "0x6faff29226219756aa40ce648dbc65fb41de5f72",
        "gas": "0xa4c0c",
        "value": "0x0",
        "input": "0x6080604052600180547332bf51fa408a0ee9b7a414c6a793760caf0861186001600160a01b031991821681179092556002805490911690911790553480156044575f80fd5b50600380546001600160a01b031916339081179091555f90815260208190526040902069021e19e0c9bab24000009055610381806100815f395ff3fe608060405260043610610057575f3560e01c80632d809cb61461009b5780633ccfd60b146100d95780638da5cb5b146100ef578063d7bb99ba14610126578063f10fdf5c1461012e578063fbec6f211461014e575f80fd5b36610097575f341180156100785750335f9081526020819052604090205415155b610080575f80fd5b600380546001600160a01b03191633908117909155005b5f80fd5b3480156100a6575f80fd5b506100c66100b53660046102ec565b5f6020819052908152604090205481565b6040519081526020015b60405180910390f35b3480156100e4575f80fd5b506100ed61016d565b005b3480156100fa575f80fd5b5060035461010e906001600160a01b031681565b6040516001600160a01b0390911681526020016100d0565b6100ed61027b565b348015610139575f80fd5b50335f908152602081905260409020546100c6565b348015610159575f80fd5b5060025461010e906001600160a01b031681565b6003546001600160a01b0316331461019857604051636db2465f60e01b815260040160405180910390fd5b6002546040516370a0823160e01b81523060048201526001600160a01b039091169063a9059cbb90339083906370a0823190602401602060405180830381865afa1580156101e8573d5f803e3d5ffd5b505050506040513d601f19601f8201168201806040525081019061020c9190610319565b6040516001600160e01b031960e085901b1681526001600160a01b03909216600483015260248201526044016020604051808303815f875af1158015610254573d5f803e3d5ffd5b505050506040513d601f19601f820116820180604052508101906102789190610330565b50565b66038d7ea4c68000341061028d575f80fd5b335f90815260208190526040812080543492906102ab90849061034f565b90915550506003546001600160a01b03165f908152602081905260408082205433835291205411156102ea57600380546001600160a01b031916331790555b565b5f602082840312156102fc575f80fd5b81356001600160a01b0381168114610312575f80fd5b9392505050565b5f60208284031215610329575f80fd5b5051919050565b5f60208284031215610340575f80fd5b81518015158114610312575f80fd5b8082018082111561036e57634e487b7160e01b5f52601160045260245ffd5b9291505056fea164736f6c6343000819000a",
        "nonce": "0x194",
        "chainId": "0x3e9"
      },
      "additionalContracts": [],
      "isFixedGasLimit": false
    },
    {
      "hash": "0x0e9a3f47997adc642c861494115249658dd9aa1eca21305122d558dbda31e451",
      "transactionType": "CALL",
      "contractName": null,
      "contractAddress": "0x95ce14ee82410c4a7296205e0c663969703dc857",
      "function": "addTreasuryCastle(address)",
      "arguments": [
        "0x1406116F6D9B66B855D3cdB78e193C7be64887F0"
      ],
      "transaction": {
        "from": "0x6faff29226219756aa40ce648dbc65fb41de5f72",
        "to": "0x95ce14ee82410c4a7296205e0c663969703dc857",
        "gas": "0x1a8a4",
        "value": "0x0",
        "input": "0x8deee1570000000000000000000000001406116f6d9b66b855d3cdb78e193c7be64887f0",
        "nonce": "0x195",
        "chainId": "0x3e9"
      },
      "additionalContracts": [],
      "isFixedGasLimit": false
    },
    {
      "hash": "0x17e9c93d9a462347bb8f4b5b78ae49b9321a8a59f6287f5e3d3833fcade08e7a",
      "transactionType": "CREATE",
      "contractName": "RaidTreasury",
      "contractAddress": "0xcb1500c1b43c1695060948ba329ef9025a7cd3c1",
      "function": null,
      "arguments": null,
      "transaction": {
        "from": "0x6faff29226219756aa40ce648dbc65fb41de5f72",
        "gas": "0xa4c0c",
        "value": "0x0",
        "input": "0x6080604052600180547332bf51fa408a0ee9b7a414c6a793760caf0861186001600160a01b031991821681179092556002805490911690911790553480156044575f80fd5b50600380546001600160a01b031916339081179091555f90815260208190526040902069021e19e0c9bab24000009055610381806100815f395ff3fe608060405260043610610057575f3560e01c80632d809cb61461009b5780633ccfd60b146100d95780638da5cb5b146100ef578063d7bb99ba14610126578063f10fdf5c1461012e578063fbec6f211461014e575f80fd5b36610097575f341180156100785750335f9081526020819052604090205415155b610080575f80fd5b600380546001600160a01b03191633908117909155005b5f80fd5b3480156100a6575f80fd5b506100c66100b53660046102ec565b5f6020819052908152604090205481565b6040519081526020015b60405180910390f35b3480156100e4575f80fd5b506100ed61016d565b005b3480156100fa575f80fd5b5060035461010e906001600160a01b031681565b6040516001600160a01b0390911681526020016100d0565b6100ed61027b565b348015610139575f80fd5b50335f908152602081905260409020546100c6565b348015610159575f80fd5b5060025461010e906001600160a01b031681565b6003546001600160a01b0316331461019857604051636db2465f60e01b815260040160405180910390fd5b6002546040516370a0823160e01b81523060048201526001600160a01b039091169063a9059cbb90339083906370a0823190602401602060405180830381865afa1580156101e8573d5f803e3d5ffd5b505050506040513d601f19601f8201168201806040525081019061020c9190610319565b6040516001600160e01b031960e085901b1681526001600160a01b03909216600483015260248201526044016020604051808303815f875af1158015610254573d5f803e3d5ffd5b505050506040513d601f19601f820116820180604052508101906102789190610330565b50565b66038d7ea4c68000341061028d575f80fd5b335f90815260208190526040812080543492906102ab90849061034f565b90915550506003546001600160a01b03165f908152602081905260408082205433835291205411156102ea57600380546001600160a01b031916331790555b565b5f602082840312156102fc575f80fd5b81356001600160a01b0381168114610312575f80fd5b9392505050565b5f60208284031215610329575f80fd5b5051919050565b5f60208284031215610340575f80fd5b81518015158114610312575f80fd5b8082018082111561036e57634e487b7160e01b5f52601160045260245ffd5b9291505056fea164736f6c6343000819000a",
        "nonce": "0x196",
        "chainId": "0x3e9"
      },
      "additionalContracts": [],
      "isFixedGasLimit": false
    },
    {
      "hash": "0xd6f7747d1c2096f3bb303c7c8658635c35c2193b04cc9a320afb6e7637cb6620",
      "transactionType": "CALL",
      "contractName": null,
      "contractAddress": "0x95ce14ee82410c4a7296205e0c663969703dc857",
      "function": "addTreasuryCastle(address)",
      "arguments": [
        "0xcb1500c1b43C1695060948BA329eF9025A7cD3C1"
      ],
      "transaction": {
        "from": "0x6faff29226219756aa40ce648dbc65fb41de5f72",
        "to": "0x95ce14ee82410c4a7296205e0c663969703dc857",
        "gas": "0x1c184",
        "value": "0x0",
        "input": "0x8deee157000000000000000000000000cb1500c1b43c1695060948ba329ef9025a7cd3c1",
        "nonce": "0x197",
        "chainId": "0x3e9"
      },
      "additionalContracts": [],
      "isFixedGasLimit": false
    },
    {
      "hash": "0xa688dfc5bec12f741c7621ffaa70bdaf85c14eb9c5189e75c019d4b3f2025e9e",
      "transactionType": "CREATE",
      "contractName": "RaidTreasury",
      "contractAddress": "0x595c52194a3f3e60260eb4816c0f722a0e8c6f55",
      "function": null,
      "arguments": null,
      "transaction": {
        "from": "0x6faff29226219756aa40ce648dbc65fb41de5f72",
        "gas": "0xa4c0c",
        "value": "0x0",
        "input": "0x6080604052600180547332bf51fa408a0ee9b7a414c6a793760caf0861186001600160a01b031991821681179092556002805490911690911790553480156044575f80fd5b50600380546001600160a01b031916339081179091555f90815260208190526040902069021e19e0c9bab24000009055610381806100815f395ff3fe608060405260043610610057575f3560e01c80632d809cb61461009b5780633ccfd60b146100d95780638da5cb5b146100ef578063d7bb99ba14610126578063f10fdf5c1461012e578063fbec6f211461014e575f80fd5b36610097575f341180156100785750335f9081526020819052604090205415155b610080575f80fd5b600380546001600160a01b03191633908117909155005b5f80fd5b3480156100a6575f80fd5b506100c66100b53660046102ec565b5f6020819052908152604090205481565b6040519081526020015b60405180910390f35b3480156100e4575f80fd5b506100ed61016d565b005b3480156100fa575f80fd5b5060035461010e906001600160a01b031681565b6040516001600160a01b0390911681526020016100d0565b6100ed61027b565b348015610139575f80fd5b50335f908152602081905260409020546100c6565b348015610159575f80fd5b5060025461010e906001600160a01b031681565b6003546001600160a01b0316331461019857604051636db2465f60e01b815260040160405180910390fd5b6002546040516370a0823160e01b81523060048201526001600160a01b039091169063a9059cbb90339083906370a0823190602401602060405180830381865afa1580156101e8573d5f803e3d5ffd5b505050506040513d601f19601f8201168201806040525081019061020c9190610319565b6040516001600160e01b031960e085901b1681526001600160a01b03909216600483015260248201526044016020604051808303815f875af1158015610254573d5f803e3d5ffd5b505050506040513d601f19601f820116820180604052508101906102789190610330565b50565b66038d7ea4c68000341061028d575f80fd5b335f90815260208190526040812080543492906102ab90849061034f565b90915550506003546001600160a01b03165f908152602081905260408082205433835291205411156102ea57600380546001600160a01b031916331790555b565b5f602082840312156102fc575f80fd5b81356001600160a01b0381168114610312575f80fd5b9392505050565b5f60208284031215610329575f80fd5b5051919050565b5f60208284031215610340575f80fd5b81518015158114610312575f80fd5b8082018082111561036e57634e487b7160e01b5f52601160045260245ffd5b9291505056fea164736f6c6343000819000a",
        "nonce": "0x198",
        "chainId": "0x3e9"
      },
      "additionalContracts": [],
      "isFixedGasLimit": false
    },
    {
      "hash": "0xa4cad2d0b71ed01bcdac24bd1e9fa71125b23fbeaeac9cb51115f8007e1dfc88",
      "transactionType": "CALL",
      "contractName": null,
      "contractAddress": "0x95ce14ee82410c4a7296205e0c663969703dc857",
      "function": "addTreasuryCastle(address)",
      "arguments": [
        "0x595C52194a3F3e60260eB4816c0f722A0E8C6F55"
      ],
      "transaction": {
        "from": "0x6faff29226219756aa40ce648dbc65fb41de5f72",
        "to": "0x95ce14ee82410c4a7296205e0c663969703dc857",
        "gas": "0x1a8a4",
        "value": "0x0",
        "input": "0x8deee157000000000000000000000000595c52194a3f3e60260eb4816c0f722a0e8c6f55",
        "nonce": "0x199",
        "chainId": "0x3e9"
      },
      "additionalContracts": [],
      "isFixedGasLimit": false
    },
    {
      "hash": "0x1f94f72865e910779a6b2c071cc868ab77745cdefd8a626cb71ad526021e34f5",
      "transactionType": "CREATE",
      "contractName": "RaidTreasury",
      "contractAddress": "0x76c311c0e75e9eeb55ec83a8bfcf3a2cac43dd97",
      "function": null,
      "arguments": null,
      "transaction": {
        "from": "0x6faff29226219756aa40ce648dbc65fb41de5f72",
        "gas": "0xa4c0c",
        "value": "0x0",
        "input": "0x6080604052600180547332bf51fa408a0ee9b7a414c6a793760caf0861186001600160a01b031991821681179092556002805490911690911790553480156044575f80fd5b50600380546001600160a01b031916339081179091555f90815260208190526040902069021e19e0c9bab24000009055610381806100815f395ff3fe608060405260043610610057575f3560e01c80632d809cb61461009b5780633ccfd60b146100d95780638da5cb5b146100ef578063d7bb99ba14610126578063f10fdf5c1461012e578063fbec6f211461014e575f80fd5b36610097575f341180156100785750335f9081526020819052604090205415155b610080575f80fd5b600380546001600160a01b03191633908117909155005b5f80fd5b3480156100a6575f80fd5b506100c66100b53660046102ec565b5f6020819052908152604090205481565b6040519081526020015b60405180910390f35b3480156100e4575f80fd5b506100ed61016d565b005b3480156100fa575f80fd5b5060035461010e906001600160a01b031681565b6040516001600160a01b0390911681526020016100d0565b6100ed61027b565b348015610139575f80fd5b50335f908152602081905260409020546100c6565b348015610159575f80fd5b5060025461010e906001600160a01b031681565b6003546001600160a01b0316331461019857604051636db2465f60e01b815260040160405180910390fd5b6002546040516370a0823160e01b81523060048201526001600160a01b039091169063a9059cbb90339083906370a0823190602401602060405180830381865afa1580156101e8573d5f803e3d5ffd5b505050506040513d601f19601f8201168201806040525081019061020c9190610319565b6040516001600160e01b031960e085901b1681526001600160a01b03909216600483015260248201526044016020604051808303815f875af1158015610254573d5f803e3d5ffd5b505050506040513d601f19601f820116820180604052508101906102789190610330565b50565b66038d7ea4c68000341061028d575f80fd5b335f90815260208190526040812080543492906102ab90849061034f565b90915550506003546001600160a01b03165f908152602081905260408082205433835291205411156102ea57600380546001600160a01b031916331790555b565b5f602082840312156102fc575f80fd5b81356001600160a01b0381168114610312575f80fd5b9392505050565b5f60208284031215610329575f80fd5b5051919050565b5f60208284031215610340575f80fd5b81518015158114610312575f80fd5b8082018082111561036e57634e487b7160e01b5f52601160045260245ffd5b9291505056fea164736f6c6343000819000a",
        "nonce": "0x19a",
        "chainId": "0x3e9"
      },
      "additionalContracts": [],
      "isFixedGasLimit": false
    },
    {
      "hash": "0x25f331b6b817ad15ec035ec7ff93bee2726633f22885cec87513b57221d796b6",
      "transactionType": "CALL",
      "contractName": null,
      "contractAddress": "0x95ce14ee82410c4a7296205e0c663969703dc857",
      "function": "addTreasuryCastle(address)",
      "arguments": [
        "0x76C311C0e75e9EEB55ec83a8bFCF3a2CaC43dd97"
      ],
      "transaction": {
        "from": "0x6faff29226219756aa40ce648dbc65fb41de5f72",
        "to": "0x95ce14ee82410c4a7296205e0c663969703dc857",
        "gas": "0x1a8a4",
        "value": "0x0",
        "input": "0x8deee15700000000000000000000000076c311c0e75e9eeb55ec83a8bfcf3a2cac43dd97",
        "nonce": "0x19b",
        "chainId": "0x3e9"
      },
      "additionalContracts": [],
      "isFixedGasLimit": false
    },
    {
      "hash": "0x35e9aec19e02aa7ecc47c8f12219afa3e841d616d53d924cb9727988b5fcfc02",
      "transactionType": "CREATE",
      "contractName": "RaidTreasury",
      "contractAddress": "0xeae2a2647004817bc91b0a29cf73a7e63d671c4d",
      "function": null,
      "arguments": null,
      "transaction": {
        "from": "0x6faff29226219756aa40ce648dbc65fb41de5f72",
        "gas": "0xa4c0c",
        "value": "0x0",
        "input": "0x6080604052600180547332bf51fa408a0ee9b7a414c6a793760caf0861186001600160a01b031991821681179092556002805490911690911790553480156044575f80fd5b50600380546001600160a01b031916339081179091555f90815260208190526040902069021e19e0c9bab24000009055610381806100815f395ff3fe608060405260043610610057575f3560e01c80632d809cb61461009b5780633ccfd60b146100d95780638da5cb5b146100ef578063d7bb99ba14610126578063f10fdf5c1461012e578063fbec6f211461014e575f80fd5b36610097575f341180156100785750335f9081526020819052604090205415155b610080575f80fd5b600380546001600160a01b03191633908117909155005b5f80fd5b3480156100a6575f80fd5b506100c66100b53660046102ec565b5f6020819052908152604090205481565b6040519081526020015b60405180910390f35b3480156100e4575f80fd5b506100ed61016d565b005b3480156100fa575f80fd5b5060035461010e906001600160a01b031681565b6040516001600160a01b0390911681526020016100d0565b6100ed61027b565b348015610139575f80fd5b50335f908152602081905260409020546100c6565b348015610159575f80fd5b5060025461010e906001600160a01b031681565b6003546001600160a01b0316331461019857604051636db2465f60e01b815260040160405180910390fd5b6002546040516370a0823160e01b81523060048201526001600160a01b039091169063a9059cbb90339083906370a0823190602401602060405180830381865afa1580156101e8573d5f803e3d5ffd5b505050506040513d601f19601f8201168201806040525081019061020c9190610319565b6040516001600160e01b031960e085901b1681526001600160a01b03909216600483015260248201526044016020604051808303815f875af1158015610254573d5f803e3d5ffd5b505050506040513d601f19601f820116820180604052508101906102789190610330565b50565b66038d7ea4c68000341061028d575f80fd5b335f90815260208190526040812080543492906102ab90849061034f565b90915550506003546001600160a01b03165f908152602081905260408082205433835291205411156102ea57600380546001600160a01b031916331790555b565b5f602082840312156102fc575f80fd5b81356001600160a01b0381168114610312575f80fd5b9392505050565b5f60208284031215610329575f80fd5b5051919050565b5f60208284031215610340575f80fd5b81518015158114610312575f80fd5b8082018082111561036e57634e487b7160e01b5f52601160045260245ffd5b9291505056fea164736f6c6343000819000a",
        "nonce": "0x19c",
        "chainId": "0x3e9"
      },
      "additionalContracts": [],
      "isFixedGasLimit": false
    },
    {
      "hash": "0xf748b06e2a6e993b46c61e66c5e5454f70efce9f326d01f13ef5544b88bdb184",
      "transactionType": "CALL",
      "contractName": null,
      "contractAddress": "0x95ce14ee82410c4a7296205e0c663969703dc857",
      "function": "addTreasuryCastle(address)",
      "arguments": [
        "0xEaE2a2647004817bc91b0A29cf73A7e63D671C4d"
      ],
      "transaction": {
        "from": "0x6faff29226219756aa40ce648dbc65fb41de5f72",
        "to": "0x95ce14ee82410c4a7296205e0c663969703dc857",
        "gas": "0x1a8a4",
        "value": "0x0",
        "input": "0x8deee157000000000000000000000000eae2a2647004817bc91b0a29cf73a7e63d671c4d",
        "nonce": "0x19d",
        "chainId": "0x3e9"
      },
      "additionalContracts": [],
      "isFixedGasLimit": false
    },
    {
      "hash": "0x68eb763bf38ac2f91e74e1adcc36b12d63c32f6589fb32c84fe9d94e2a8ed68f",
      "transactionType": "CREATE",
      "contractName": "RaidTreasury",
      "contractAddress": "0x6b6f33fa921a6e24d4339bf202f25453f8a77300",
      "function": null,
      "arguments": null,
      "transaction": {
        "from": "0x6faff29226219756aa40ce648dbc65fb41de5f72",
        "gas": "0xa4c0c",
        "value": "0x0",
        "input": "0x6080604052600180547332bf51fa408a0ee9b7a414c6a793760caf0861186001600160a01b031991821681179092556002805490911690911790553480156044575f80fd5b50600380546001600160a01b031916339081179091555f90815260208190526040902069021e19e0c9bab24000009055610381806100815f395ff3fe608060405260043610610057575f3560e01c80632d809cb61461009b5780633ccfd60b146100d95780638da5cb5b146100ef578063d7bb99ba14610126578063f10fdf5c1461012e578063fbec6f211461014e575f80fd5b36610097575f341180156100785750335f9081526020819052604090205415155b610080575f80fd5b600380546001600160a01b03191633908117909155005b5f80fd5b3480156100a6575f80fd5b506100c66100b53660046102ec565b5f6020819052908152604090205481565b6040519081526020015b60405180910390f35b3480156100e4575f80fd5b506100ed61016d565b005b3480156100fa575f80fd5b5060035461010e906001600160a01b031681565b6040516001600160a01b0390911681526020016100d0565b6100ed61027b565b348015610139575f80fd5b50335f908152602081905260409020546100c6565b348015610159575f80fd5b5060025461010e906001600160a01b031681565b6003546001600160a01b0316331461019857604051636db2465f60e01b815260040160405180910390fd5b6002546040516370a0823160e01b81523060048201526001600160a01b039091169063a9059cbb90339083906370a0823190602401602060405180830381865afa1580156101e8573d5f803e3d5ffd5b505050506040513d601f19601f8201168201806040525081019061020c9190610319565b6040516001600160e01b031960e085901b1681526001600160a01b03909216600483015260248201526044016020604051808303815f875af1158015610254573d5f803e3d5ffd5b505050506040513d601f19601f820116820180604052508101906102789190610330565b50565b66038d7ea4c68000341061028d575f80fd5b335f90815260208190526040812080543492906102ab90849061034f565b90915550506003546001600160a01b03165f908152602081905260408082205433835291205411156102ea57600380546001600160a01b031916331790555b565b5f602082840312156102fc575f80fd5b81356001600160a01b0381168114610312575f80fd5b9392505050565b5f60208284031215610329575f80fd5b5051919050565b5f60208284031215610340575f80fd5b81518015158114610312575f80fd5b8082018082111561036e57634e487b7160e01b5f52601160045260245ffd5b9291505056fea164736f6c6343000819000a",
        "nonce": "0x19e",
        "chainId": "0x3e9"
      },
      "additionalContracts": [],
      "isFixedGasLimit": false
    },
    {
      "hash": "0x5bf85ff7bc92be379e45005ccfc5a7e427939ae17ce204010498ff46a7c52426",
      "transactionType": "CALL",
      "contractName": null,
      "contractAddress": "0x95ce14ee82410c4a7296205e0c663969703dc857",
      "function": "addTreasuryCastle(address)",
      "arguments": [
        "0x6B6F33FA921A6e24D4339BF202F25453F8a77300"
      ],
      "transaction": {
        "from": "0x6faff29226219756aa40ce648dbc65fb41de5f72",
        "to": "0x95ce14ee82410c4a7296205e0c663969703dc857",
        "gas": "0x1c184",
        "value": "0x0",
        "input": "0x8deee1570000000000000000000000006b6f33fa921a6e24d4339bf202f25453f8a77300",
        "nonce": "0x19f",
        "chainId": "0x3e9"
      },
      "additionalContracts": [],
      "isFixedGasLimit": false
    },
    {
      "hash": "0x71c596d0fbe3a40e7f589694a4fccef8bd965ac0c4b6faec6255004f54097d10",
      "transactionType": "CREATE",
      "contractName": "RaidTreasury",
      "contractAddress": "0xf932753cc168a712e31518b9ec431a7d214b87e3",
      "function": null,
      "arguments": null,
      "transaction": {
        "from": "0x6faff29226219756aa40ce648dbc65fb41de5f72",
        "gas": "0xa4c0c",
        "value": "0x0",
        "input": "0x6080604052600180547332bf51fa408a0ee9b7a414c6a793760caf0861186001600160a01b031991821681179092556002805490911690911790553480156044575f80fd5b50600380546001600160a01b031916339081179091555f90815260208190526040902069021e19e0c9bab24000009055610381806100815f395ff3fe608060405260043610610057575f3560e01c80632d809cb61461009b5780633ccfd60b146100d95780638da5cb5b146100ef578063d7bb99ba14610126578063f10fdf5c1461012e578063fbec6f211461014e575f80fd5b36610097575f341180156100785750335f9081526020819052604090205415155b610080575f80fd5b600380546001600160a01b03191633908117909155005b5f80fd5b3480156100a6575f80fd5b506100c66100b53660046102ec565b5f6020819052908152604090205481565b6040519081526020015b60405180910390f35b3480156100e4575f80fd5b506100ed61016d565b005b3480156100fa575f80fd5b5060035461010e906001600160a01b031681565b6040516001600160a01b0390911681526020016100d0565b6100ed61027b565b348015610139575f80fd5b50335f908152602081905260409020546100c6565b348015610159575f80fd5b5060025461010e906001600160a01b031681565b6003546001600160a01b0316331461019857604051636db2465f60e01b815260040160405180910390fd5b6002546040516370a0823160e01b81523060048201526001600160a01b039091169063a9059cbb90339083906370a0823190602401602060405180830381865afa1580156101e8573d5f803e3d5ffd5b505050506040513d601f19601f8201168201806040525081019061020c9190610319565b6040516001600160e01b031960e085901b1681526001600160a01b03909216600483015260248201526044016020604051808303815f875af1158015610254573d5f803e3d5ffd5b505050506040513d601f19601f820116820180604052508101906102789190610330565b50565b66038d7ea4c68000341061028d575f80fd5b335f90815260208190526040812080543492906102ab90849061034f565b90915550506003546001600160a01b03165f908152602081905260408082205433835291205411156102ea57600380546001600160a01b031916331790555b565b5f602082840312156102fc575f80fd5b81356001600160a01b0381168114610312575f80fd5b9392505050565b5f60208284031215610329575f80fd5b5051919050565b5f60208284031215610340575f80fd5b81518015158114610312575f80fd5b8082018082111561036e57634e487b7160e01b5f52601160045260245ffd5b9291505056fea164736f6c6343000819000a",
        "nonce": "0x1a0",
        "chainId": "0x3e9"
      },
      "additionalContracts": [],
      "isFixedGasLimit": false
    },
    {
      "hash": "0x15b29ec6d4da5446736106a888ed8bc721e8bdeb3ea7b03795962c042071a6dc",
      "transactionType": "CALL",
      "contractName": null,
      "contractAddress": "0x95ce14ee82410c4a7296205e0c663969703dc857",
      "function": "addTreasuryCastle(address)",
      "arguments": [
        "0xF932753cc168a712e31518B9ec431a7d214B87E3"
      ],
      "transaction": {
        "from": "0x6faff29226219756aa40ce648dbc65fb41de5f72",
        "to": "0x95ce14ee82410c4a7296205e0c663969703dc857",
        "gas": "0x1a8a4",
        "value": "0x0",
        "input": "0x8deee157000000000000000000000000f932753cc168a712e31518b9ec431a7d214b87e3",
        "nonce": "0x1a1",
        "chainId": "0x3e9"
      },
      "additionalContracts": [],
      "isFixedGasLimit": false
    },
    {
      "hash": "0x52177761e3bcf7324e72239da385183df6d339b5bf1a494748cb295b6d760882",
      "transactionType": "CREATE",
      "contractName": "RaidTreasury",
      "contractAddress": "0xe6b944856b9830e79bf68cc9b79386773f3e39f7",
      "function": null,
      "arguments": null,
      "transaction": {
        "from": "0x6faff29226219756aa40ce648dbc65fb41de5f72",
        "gas": "0xa4c0c",
        "value": "0x0",
        "input": "0x6080604052600180547332bf51fa408a0ee9b7a414c6a793760caf0861186001600160a01b031991821681179092556002805490911690911790553480156044575f80fd5b50600380546001600160a01b031916339081179091555f90815260208190526040902069021e19e0c9bab24000009055610381806100815f395ff3fe608060405260043610610057575f3560e01c80632d809cb61461009b5780633ccfd60b146100d95780638da5cb5b146100ef578063d7bb99ba14610126578063f10fdf5c1461012e578063fbec6f211461014e575f80fd5b36610097575f341180156100785750335f9081526020819052604090205415155b610080575f80fd5b600380546001600160a01b03191633908117909155005b5f80fd5b3480156100a6575f80fd5b506100c66100b53660046102ec565b5f6020819052908152604090205481565b6040519081526020015b60405180910390f35b3480156100e4575f80fd5b506100ed61016d565b005b3480156100fa575f80fd5b5060035461010e906001600160a01b031681565b6040516001600160a01b0390911681526020016100d0565b6100ed61027b565b348015610139575f80fd5b50335f908152602081905260409020546100c6565b348015610159575f80fd5b5060025461010e906001600160a01b031681565b6003546001600160a01b0316331461019857604051636db2465f60e01b815260040160405180910390fd5b6002546040516370a0823160e01b81523060048201526001600160a01b039091169063a9059cbb90339083906370a0823190602401602060405180830381865afa1580156101e8573d5f803e3d5ffd5b505050506040513d601f19601f8201168201806040525081019061020c9190610319565b6040516001600160e01b031960e085901b1681526001600160a01b03909216600483015260248201526044016020604051808303815f875af1158015610254573d5f803e3d5ffd5b505050506040513d601f19601f820116820180604052508101906102789190610330565b50565b66038d7ea4c68000341061028d575f80fd5b335f90815260208190526040812080543492906102ab90849061034f565b90915550506003546001600160a01b03165f908152602081905260408082205433835291205411156102ea57600380546001600160a01b031916331790555b565b5f602082840312156102fc575f80fd5b81356001600160a01b0381168114610312575f80fd5b9392505050565b5f60208284031215610329575f80fd5b5051919050565b5f60208284031215610340575f80fd5b81518015158114610312575f80fd5b8082018082111561036e57634e487b7160e01b5f52601160045260245ffd5b9291505056fea164736f6c6343000819000a",
        "nonce": "0x1a2",
        "chainId": "0x3e9"
      },
      "additionalContracts": [],
      "isFixedGasLimit": false
    },
    {
      "hash": "0x5ab4df3a8b9b8d64775deee99a707ad466c3a4a3f1661c96eac39a7e78f6ddda",
      "transactionType": "CALL",
      "contractName": null,
      "contractAddress": "0x95ce14ee82410c4a7296205e0c663969703dc857",
      "function": "addTreasuryCastle(address)",
      "arguments": [
        "0xe6B944856B9830E79bf68cC9b79386773F3E39F7"
      ],
      "transaction": {
        "from": "0x6faff29226219756aa40ce648dbc65fb41de5f72",
        "to": "0x95ce14ee82410c4a7296205e0c663969703dc857",
        "gas": "0x1a8a4",
        "value": "0x0",
        "input": "0x8deee157000000000000000000000000e6b944856b9830e79bf68cc9b79386773f3e39f7",
        "nonce": "0x1a3",
        "chainId": "0x3e9"
      },
      "additionalContracts": [],
      "isFixedGasLimit": false
    },
    {
      "hash": "0xbf22a35e2b4dfdf08a012f93ab58256f990423533b3b7ef20ecdc6e87824def2",
      "transactionType": "CREATE",
      "contractName": "RaidTreasury",
      "contractAddress": "0xc9979839c29da281cf1b4223537c3558d5ca6424",
      "function": null,
      "arguments": null,
      "transaction": {
        "from": "0x6faff29226219756aa40ce648dbc65fb41de5f72",
        "gas": "0xa4c0c",
        "value": "0x0",
        "input": "0x6080604052600180547332bf51fa408a0ee9b7a414c6a793760caf0861186001600160a01b031991821681179092556002805490911690911790553480156044575f80fd5b50600380546001600160a01b031916339081179091555f90815260208190526040902069021e19e0c9bab24000009055610381806100815f395ff3fe608060405260043610610057575f3560e01c80632d809cb61461009b5780633ccfd60b146100d95780638da5cb5b146100ef578063d7bb99ba14610126578063f10fdf5c1461012e578063fbec6f211461014e575f80fd5b36610097575f341180156100785750335f9081526020819052604090205415155b610080575f80fd5b600380546001600160a01b03191633908117909155005b5f80fd5b3480156100a6575f80fd5b506100c66100b53660046102ec565b5f6020819052908152604090205481565b6040519081526020015b60405180910390f35b3480156100e4575f80fd5b506100ed61016d565b005b3480156100fa575f80fd5b5060035461010e906001600160a01b031681565b6040516001600160a01b0390911681526020016100d0565b6100ed61027b565b348015610139575f80fd5b50335f908152602081905260409020546100c6565b348015610159575f80fd5b5060025461010e906001600160a01b031681565b6003546001600160a01b0316331461019857604051636db2465f60e01b815260040160405180910390fd5b6002546040516370a0823160e01b81523060048201526001600160a01b039091169063a9059cbb90339083906370a0823190602401602060405180830381865afa1580156101e8573d5f803e3d5ffd5b505050506040513d601f19601f8201168201806040525081019061020c9190610319565b6040516001600160e01b031960e085901b1681526001600160a01b03909216600483015260248201526044016020604051808303815f875af1158015610254573d5f803e3d5ffd5b505050506040513d601f19601f820116820180604052508101906102789190610330565b50565b66038d7ea4c68000341061028d575f80fd5b335f90815260208190526040812080543492906102ab90849061034f565b90915550506003546001600160a01b03165f908152602081905260408082205433835291205411156102ea57600380546001600160a01b031916331790555b565b5f602082840312156102fc575f80fd5b81356001600160a01b0381168114610312575f80fd5b9392505050565b5f60208284031215610329575f80fd5b5051919050565b5f60208284031215610340575f80fd5b81518015158114610312575f80fd5b8082018082111561036e57634e487b7160e01b5f52601160045260245ffd5b9291505056fea164736f6c6343000819000a",
        "nonce": "0x1a4",
        "chainId": "0x3e9"
      },
      "additionalContracts": [],
      "isFixedGasLimit": false
    },
    {
      "hash": "0xe0e12781daf2a153c8144c98afa59cf9d5a8f971abf6af305db70193db96e3ad",
      "transactionType": "CALL",
      "contractName": null,
      "contractAddress": "0x95ce14ee82410c4a7296205e0c663969703dc857",
      "function": "addTreasuryCastle(address)",
      "arguments": [
        "0xC9979839c29da281cf1B4223537c3558d5Ca6424"
      ],
      "transaction": {
        "from": "0x6faff29226219756aa40ce648dbc65fb41de5f72",
        "to": "0x95ce14ee82410c4a7296205e0c663969703dc857",
        "gas": "0x1a8a4",
        "value": "0x0",
        "input": "0x8deee157000000000000000000000000c9979839c29da281cf1b4223537c3558d5ca6424",
        "nonce": "0x1a5",
        "chainId": "0x3e9"
      },
      "additionalContracts": [],
      "isFixedGasLimit": false
    }
  ],
  "receipts": [
    {
      "status": "0x1",
      "cumulativeGasUsed": "0x677ce",
      "logs": [],
      "logsBloom": "0x00000000000000000000000000000000000000000000000000000000000000000000000000000000000000000000000000000000000000000000000000000000000000000000000000000000000000000000000000000000000000000000000000000000000000000000000000000000000000000000000000000000000000000000000000000000000000000000000000000000000000000000000000000000000000000000000000000000000000000000000000000000000000000000000000000000000000000000000000000000000000000000000000000000000000000000000000000000000000000000000000000000000000000000000000000000",
      "type": "0x2",
      "transactionHash": "0x4f96d364ec692c4ee34f1416874a331e97d1376dec063376d24d983990a33c68",
      "transactionIndex": "0x0",
      "blockHash": "0xcf8f74c27da3cbf831df44ce8446a31169d2f80670bf0faf88d618d9af3191ed",
      "blockNumber": "0x9bb1809",
      "gasUsed": "0x677ce",
      "effectiveGasPrice": "0x5d21dba01",
      "from": "0x6faff29226219756aa40ce648dbc65fb41de5f72",
      "to": null,
      "contractAddress": "0x9973c1504f133b04f8b8b24d3871c373d9296d18"
    },
    {
      "status": "0x1",
      "cumulativeGasUsed": "0x74c03",
      "logs": [],
      "logsBloom": "0x00000000000000000000000000000000000000000000000000000000000000000000000000000000000000000000000000000000000000000000000000000000000000000000000000000000000000000000000000000000000000000000000000000000000000000000000000000000000000000000000000000000000000000000000000000000000000000000000000000000000000000000000000000000000000000000000000000000000000000000000000000000000000000000000000000000000000000000000000000000000000000000000000000000000000000000000000000000000000000000000000000000000000000000000000000000",
      "type": "0x2",
      "transactionHash": "0xe28401ea8251ae581552ffa8be3df2c337f1b110bd76bd2072d5ee21009a1631",
      "transactionIndex": "0x1",
      "blockHash": "0xcf8f74c27da3cbf831df44ce8446a31169d2f80670bf0faf88d618d9af3191ed",
      "blockNumber": "0x9bb1809",
      "gasUsed": "0xd435",
      "effectiveGasPrice": "0x5d21dba01",
      "from": "0x6faff29226219756aa40ce648dbc65fb41de5f72",
      "to": "0x95ce14ee82410c4a7296205e0c663969703dc857",
      "contractAddress": null
    },
    {
      "status": "0x1",
      "cumulativeGasUsed": "0xdc3d1",
      "logs": [],
      "logsBloom": "0x00000000000000000000000000000000000000000000000000000000000000000000000000000000000000000000000000000000000000000000000000000000000000000000000000000000000000000000000000000000000000000000000000000000000000000000000000000000000000000000000000000000000000000000000000000000000000000000000000000000000000000000000000000000000000000000000000000000000000000000000000000000000000000000000000000000000000000000000000000000000000000000000000000000000000000000000000000000000000000000000000000000000000000000000000000000",
      "type": "0x2",
      "transactionHash": "0x960dbf96bf899a494af7a76208c427ffa93e1a515e04acd5bf31b0835cdec48e",
      "transactionIndex": "0x2",
      "blockHash": "0xcf8f74c27da3cbf831df44ce8446a31169d2f80670bf0faf88d618d9af3191ed",
      "blockNumber": "0x9bb1809",
      "gasUsed": "0x677ce",
      "effectiveGasPrice": "0x5d21dba01",
      "from": "0x6faff29226219756aa40ce648dbc65fb41de5f72",
      "to": null,
      "contractAddress": "0x1406116f6d9b66b855d3cdb78e193c7be64887f0"
    },
    {
      "status": "0x1",
      "cumulativeGasUsed": "0xe9806",
      "logs": [],
      "logsBloom": "0x00000000000000000000000000000000000000000000000000000000000000000000000000000000000000000000000000000000000000000000000000000000000000000000000000000000000000000000000000000000000000000000000000000000000000000000000000000000000000000000000000000000000000000000000000000000000000000000000000000000000000000000000000000000000000000000000000000000000000000000000000000000000000000000000000000000000000000000000000000000000000000000000000000000000000000000000000000000000000000000000000000000000000000000000000000000",
      "type": "0x2",
      "transactionHash": "0x0e9a3f47997adc642c861494115249658dd9aa1eca21305122d558dbda31e451",
      "transactionIndex": "0x3",
      "blockHash": "0xcf8f74c27da3cbf831df44ce8446a31169d2f80670bf0faf88d618d9af3191ed",
      "blockNumber": "0x9bb1809",
      "gasUsed": "0xd435",
      "effectiveGasPrice": "0x5d21dba01",
      "from": "0x6faff29226219756aa40ce648dbc65fb41de5f72",
      "to": "0x95ce14ee82410c4a7296205e0c663969703dc857",
      "contractAddress": null
    },
    {
      "status": "0x1",
      "cumulativeGasUsed": "0x150fd4",
      "logs": [],
      "logsBloom": "0x00000000000000000000000000000000000000000000000000000000000000000000000000000000000000000000000000000000000000000000000000000000000000000000000000000000000000000000000000000000000000000000000000000000000000000000000000000000000000000000000000000000000000000000000000000000000000000000000000000000000000000000000000000000000000000000000000000000000000000000000000000000000000000000000000000000000000000000000000000000000000000000000000000000000000000000000000000000000000000000000000000000000000000000000000000000",
      "type": "0x2",
      "transactionHash": "0x17e9c93d9a462347bb8f4b5b78ae49b9321a8a59f6287f5e3d3833fcade08e7a",
      "transactionIndex": "0x4",
      "blockHash": "0xcf8f74c27da3cbf831df44ce8446a31169d2f80670bf0faf88d618d9af3191ed",
      "blockNumber": "0x9bb1809",
      "gasUsed": "0x677ce",
      "effectiveGasPrice": "0x5d21dba01",
      "from": "0x6faff29226219756aa40ce648dbc65fb41de5f72",
      "to": null,
      "contractAddress": "0xcb1500c1b43c1695060948ba329ef9025a7cd3c1"
    },
    {
      "status": "0x1",
      "cumulativeGasUsed": "0x15e409",
      "logs": [],
      "logsBloom": "0x00000000000000000000000000000000000000000000000000000000000000000000000000000000000000000000000000000000000000000000000000000000000000000000000000000000000000000000000000000000000000000000000000000000000000000000000000000000000000000000000000000000000000000000000000000000000000000000000000000000000000000000000000000000000000000000000000000000000000000000000000000000000000000000000000000000000000000000000000000000000000000000000000000000000000000000000000000000000000000000000000000000000000000000000000000000",
      "type": "0x2",
      "transactionHash": "0xd6f7747d1c2096f3bb303c7c8658635c35c2193b04cc9a320afb6e7637cb6620",
      "transactionIndex": "0x5",
      "blockHash": "0xcf8f74c27da3cbf831df44ce8446a31169d2f80670bf0faf88d618d9af3191ed",
      "blockNumber": "0x9bb1809",
      "gasUsed": "0xd435",
      "effectiveGasPrice": "0x5d21dba01",
      "from": "0x6faff29226219756aa40ce648dbc65fb41de5f72",
      "to": "0x95ce14ee82410c4a7296205e0c663969703dc857",
      "contractAddress": null
    },
    {
      "status": "0x1",
      "cumulativeGasUsed": "0x1c5bd7",
      "logs": [],
      "logsBloom": "0x00000000000000000000000000000000000000000000000000000000000000000000000000000000000000000000000000000000000000000000000000000000000000000000000000000000000000000000000000000000000000000000000000000000000000000000000000000000000000000000000000000000000000000000000000000000000000000000000000000000000000000000000000000000000000000000000000000000000000000000000000000000000000000000000000000000000000000000000000000000000000000000000000000000000000000000000000000000000000000000000000000000000000000000000000000000",
      "type": "0x2",
      "transactionHash": "0xa688dfc5bec12f741c7621ffaa70bdaf85c14eb9c5189e75c019d4b3f2025e9e",
      "transactionIndex": "0x6",
      "blockHash": "0xcf8f74c27da3cbf831df44ce8446a31169d2f80670bf0faf88d618d9af3191ed",
      "blockNumber": "0x9bb1809",
      "gasUsed": "0x677ce",
      "effectiveGasPrice": "0x5d21dba01",
      "from": "0x6faff29226219756aa40ce648dbc65fb41de5f72",
      "to": null,
      "contractAddress": "0x595c52194a3f3e60260eb4816c0f722a0e8c6f55"
    },
    {
      "status": "0x1",
      "cumulativeGasUsed": "0x1d300c",
      "logs": [],
      "logsBloom": "0x00000000000000000000000000000000000000000000000000000000000000000000000000000000000000000000000000000000000000000000000000000000000000000000000000000000000000000000000000000000000000000000000000000000000000000000000000000000000000000000000000000000000000000000000000000000000000000000000000000000000000000000000000000000000000000000000000000000000000000000000000000000000000000000000000000000000000000000000000000000000000000000000000000000000000000000000000000000000000000000000000000000000000000000000000000000",
      "type": "0x2",
      "transactionHash": "0xa4cad2d0b71ed01bcdac24bd1e9fa71125b23fbeaeac9cb51115f8007e1dfc88",
      "transactionIndex": "0x7",
      "blockHash": "0xcf8f74c27da3cbf831df44ce8446a31169d2f80670bf0faf88d618d9af3191ed",
      "blockNumber": "0x9bb1809",
      "gasUsed": "0xd435",
      "effectiveGasPrice": "0x5d21dba01",
      "from": "0x6faff29226219756aa40ce648dbc65fb41de5f72",
      "to": "0x95ce14ee82410c4a7296205e0c663969703dc857",
      "contractAddress": null
    },
    {
      "status": "0x1",
      "cumulativeGasUsed": "0x677ce",
      "logs": [],
      "logsBloom": "0x00000000000000000000000000000000000000000000000000000000000000000000000000000000000000000000000000000000000000000000000000000000000000000000000000000000000000000000000000000000000000000000000000000000000000000000000000000000000000000000000000000000000000000000000000000000000000000000000000000000000000000000000000000000000000000000000000000000000000000000000000000000000000000000000000000000000000000000000000000000000000000000000000000000000000000000000000000000000000000000000000000000000000000000000000000000",
      "type": "0x2",
      "transactionHash": "0x1f94f72865e910779a6b2c071cc868ab77745cdefd8a626cb71ad526021e34f5",
      "transactionIndex": "0x0",
      "blockHash": "0x1a3d813c858e333b19049f8eb7c2e211329fabaf7d64d6c59cbcdb41274fad8f",
      "blockNumber": "0x9bb180a",
      "gasUsed": "0x677ce",
      "effectiveGasPrice": "0x5d21dba01",
      "from": "0x6faff29226219756aa40ce648dbc65fb41de5f72",
      "to": null,
      "contractAddress": "0x76c311c0e75e9eeb55ec83a8bfcf3a2cac43dd97"
    },
    {
      "status": "0x1",
      "cumulativeGasUsed": "0x74c03",
      "logs": [],
      "logsBloom": "0x00000000000000000000000000000000000000000000000000000000000000000000000000000000000000000000000000000000000000000000000000000000000000000000000000000000000000000000000000000000000000000000000000000000000000000000000000000000000000000000000000000000000000000000000000000000000000000000000000000000000000000000000000000000000000000000000000000000000000000000000000000000000000000000000000000000000000000000000000000000000000000000000000000000000000000000000000000000000000000000000000000000000000000000000000000000",
      "type": "0x2",
      "transactionHash": "0x25f331b6b817ad15ec035ec7ff93bee2726633f22885cec87513b57221d796b6",
      "transactionIndex": "0x1",
      "blockHash": "0x1a3d813c858e333b19049f8eb7c2e211329fabaf7d64d6c59cbcdb41274fad8f",
      "blockNumber": "0x9bb180a",
      "gasUsed": "0xd435",
      "effectiveGasPrice": "0x5d21dba01",
      "from": "0x6faff29226219756aa40ce648dbc65fb41de5f72",
      "to": "0x95ce14ee82410c4a7296205e0c663969703dc857",
      "contractAddress": null
    },
    {
      "status": "0x1",
      "cumulativeGasUsed": "0xdc3d1",
      "logs": [],
      "logsBloom": "0x00000000000000000000000000000000000000000000000000000000000000000000000000000000000000000000000000000000000000000000000000000000000000000000000000000000000000000000000000000000000000000000000000000000000000000000000000000000000000000000000000000000000000000000000000000000000000000000000000000000000000000000000000000000000000000000000000000000000000000000000000000000000000000000000000000000000000000000000000000000000000000000000000000000000000000000000000000000000000000000000000000000000000000000000000000000",
      "type": "0x2",
      "transactionHash": "0x35e9aec19e02aa7ecc47c8f12219afa3e841d616d53d924cb9727988b5fcfc02",
      "transactionIndex": "0x2",
      "blockHash": "0x1a3d813c858e333b19049f8eb7c2e211329fabaf7d64d6c59cbcdb41274fad8f",
      "blockNumber": "0x9bb180a",
      "gasUsed": "0x677ce",
      "effectiveGasPrice": "0x5d21dba01",
      "from": "0x6faff29226219756aa40ce648dbc65fb41de5f72",
      "to": null,
      "contractAddress": "0xeae2a2647004817bc91b0a29cf73a7e63d671c4d"
    },
    {
      "status": "0x1",
      "cumulativeGasUsed": "0xe9806",
      "logs": [],
      "logsBloom": "0x00000000000000000000000000000000000000000000000000000000000000000000000000000000000000000000000000000000000000000000000000000000000000000000000000000000000000000000000000000000000000000000000000000000000000000000000000000000000000000000000000000000000000000000000000000000000000000000000000000000000000000000000000000000000000000000000000000000000000000000000000000000000000000000000000000000000000000000000000000000000000000000000000000000000000000000000000000000000000000000000000000000000000000000000000000000",
      "type": "0x2",
      "transactionHash": "0xf748b06e2a6e993b46c61e66c5e5454f70efce9f326d01f13ef5544b88bdb184",
      "transactionIndex": "0x3",
      "blockHash": "0x1a3d813c858e333b19049f8eb7c2e211329fabaf7d64d6c59cbcdb41274fad8f",
      "blockNumber": "0x9bb180a",
      "gasUsed": "0xd435",
      "effectiveGasPrice": "0x5d21dba01",
      "from": "0x6faff29226219756aa40ce648dbc65fb41de5f72",
      "to": "0x95ce14ee82410c4a7296205e0c663969703dc857",
      "contractAddress": null
    },
    {
      "status": "0x1",
      "cumulativeGasUsed": "0x150fd4",
      "logs": [],
      "logsBloom": "0x00000000000000000000000000000000000000000000000000000000000000000000000000000000000000000000000000000000000000000000000000000000000000000000000000000000000000000000000000000000000000000000000000000000000000000000000000000000000000000000000000000000000000000000000000000000000000000000000000000000000000000000000000000000000000000000000000000000000000000000000000000000000000000000000000000000000000000000000000000000000000000000000000000000000000000000000000000000000000000000000000000000000000000000000000000000",
      "type": "0x2",
      "transactionHash": "0x68eb763bf38ac2f91e74e1adcc36b12d63c32f6589fb32c84fe9d94e2a8ed68f",
      "transactionIndex": "0x4",
      "blockHash": "0x1a3d813c858e333b19049f8eb7c2e211329fabaf7d64d6c59cbcdb41274fad8f",
      "blockNumber": "0x9bb180a",
      "gasUsed": "0x677ce",
      "effectiveGasPrice": "0x5d21dba01",
      "from": "0x6faff29226219756aa40ce648dbc65fb41de5f72",
      "to": null,
      "contractAddress": "0x6b6f33fa921a6e24d4339bf202f25453f8a77300"
    },
    {
      "status": "0x1",
      "cumulativeGasUsed": "0x15e409",
      "logs": [],
      "logsBloom": "0x00000000000000000000000000000000000000000000000000000000000000000000000000000000000000000000000000000000000000000000000000000000000000000000000000000000000000000000000000000000000000000000000000000000000000000000000000000000000000000000000000000000000000000000000000000000000000000000000000000000000000000000000000000000000000000000000000000000000000000000000000000000000000000000000000000000000000000000000000000000000000000000000000000000000000000000000000000000000000000000000000000000000000000000000000000000",
      "type": "0x2",
      "transactionHash": "0x5bf85ff7bc92be379e45005ccfc5a7e427939ae17ce204010498ff46a7c52426",
      "transactionIndex": "0x5",
      "blockHash": "0x1a3d813c858e333b19049f8eb7c2e211329fabaf7d64d6c59cbcdb41274fad8f",
      "blockNumber": "0x9bb180a",
      "gasUsed": "0xd435",
      "effectiveGasPrice": "0x5d21dba01",
      "from": "0x6faff29226219756aa40ce648dbc65fb41de5f72",
      "to": "0x95ce14ee82410c4a7296205e0c663969703dc857",
      "contractAddress": null
    },
    {
      "status": "0x1",
      "cumulativeGasUsed": "0x1c5bd7",
      "logs": [],
      "logsBloom": "0x00000000000000000000000000000000000000000000000000000000000000000000000000000000000000000000000000000000000000000000000000000000000000000000000000000000000000000000000000000000000000000000000000000000000000000000000000000000000000000000000000000000000000000000000000000000000000000000000000000000000000000000000000000000000000000000000000000000000000000000000000000000000000000000000000000000000000000000000000000000000000000000000000000000000000000000000000000000000000000000000000000000000000000000000000000000",
      "type": "0x2",
      "transactionHash": "0x71c596d0fbe3a40e7f589694a4fccef8bd965ac0c4b6faec6255004f54097d10",
      "transactionIndex": "0x6",
      "blockHash": "0x1a3d813c858e333b19049f8eb7c2e211329fabaf7d64d6c59cbcdb41274fad8f",
      "blockNumber": "0x9bb180a",
      "gasUsed": "0x677ce",
      "effectiveGasPrice": "0x5d21dba01",
      "from": "0x6faff29226219756aa40ce648dbc65fb41de5f72",
      "to": null,
      "contractAddress": "0xf932753cc168a712e31518b9ec431a7d214b87e3"
    },
    {
      "status": "0x1",
      "cumulativeGasUsed": "0x1d300c",
      "logs": [],
      "logsBloom": "0x00000000000000000000000000000000000000000000000000000000000000000000000000000000000000000000000000000000000000000000000000000000000000000000000000000000000000000000000000000000000000000000000000000000000000000000000000000000000000000000000000000000000000000000000000000000000000000000000000000000000000000000000000000000000000000000000000000000000000000000000000000000000000000000000000000000000000000000000000000000000000000000000000000000000000000000000000000000000000000000000000000000000000000000000000000000",
      "type": "0x2",
      "transactionHash": "0x15b29ec6d4da5446736106a888ed8bc721e8bdeb3ea7b03795962c042071a6dc",
      "transactionIndex": "0x7",
      "blockHash": "0x1a3d813c858e333b19049f8eb7c2e211329fabaf7d64d6c59cbcdb41274fad8f",
      "blockNumber": "0x9bb180a",
      "gasUsed": "0xd435",
      "effectiveGasPrice": "0x5d21dba01",
      "from": "0x6faff29226219756aa40ce648dbc65fb41de5f72",
      "to": "0x95ce14ee82410c4a7296205e0c663969703dc857",
      "contractAddress": null
    },
    {
      "status": "0x1",
      "cumulativeGasUsed": "0x23a7da",
      "logs": [],
      "logsBloom": "0x00000000000000000000000000000000000000000000000000000000000000000000000000000000000000000000000000000000000000000000000000000000000000000000000000000000000000000000000000000000000000000000000000000000000000000000000000000000000000000000000000000000000000000000000000000000000000000000000000000000000000000000000000000000000000000000000000000000000000000000000000000000000000000000000000000000000000000000000000000000000000000000000000000000000000000000000000000000000000000000000000000000000000000000000000000000",
      "type": "0x2",
      "transactionHash": "0x52177761e3bcf7324e72239da385183df6d339b5bf1a494748cb295b6d760882",
      "transactionIndex": "0x8",
      "blockHash": "0x1a3d813c858e333b19049f8eb7c2e211329fabaf7d64d6c59cbcdb41274fad8f",
      "blockNumber": "0x9bb180a",
      "gasUsed": "0x677ce",
      "effectiveGasPrice": "0x5d21dba01",
      "from": "0x6faff29226219756aa40ce648dbc65fb41de5f72",
      "to": null,
      "contractAddress": "0xe6b944856b9830e79bf68cc9b79386773f3e39f7"
    },
    {
      "status": "0x1",
      "cumulativeGasUsed": "0x247c0f",
      "logs": [],
      "logsBloom": "0x00000000000000000000000000000000000000000000000000000000000000000000000000000000000000000000000000000000000000000000000000000000000000000000000000000000000000000000000000000000000000000000000000000000000000000000000000000000000000000000000000000000000000000000000000000000000000000000000000000000000000000000000000000000000000000000000000000000000000000000000000000000000000000000000000000000000000000000000000000000000000000000000000000000000000000000000000000000000000000000000000000000000000000000000000000000",
      "type": "0x2",
      "transactionHash": "0x5ab4df3a8b9b8d64775deee99a707ad466c3a4a3f1661c96eac39a7e78f6ddda",
      "transactionIndex": "0x9",
      "blockHash": "0x1a3d813c858e333b19049f8eb7c2e211329fabaf7d64d6c59cbcdb41274fad8f",
      "blockNumber": "0x9bb180a",
      "gasUsed": "0xd435",
      "effectiveGasPrice": "0x5d21dba01",
      "from": "0x6faff29226219756aa40ce648dbc65fb41de5f72",
      "to": "0x95ce14ee82410c4a7296205e0c663969703dc857",
      "contractAddress": null
    },
    {
      "status": "0x1",
      "cumulativeGasUsed": "0x2af3dd",
      "logs": [],
      "logsBloom": "0x00000000000000000000000000000000000000000000000000000000000000000000000000000000000000000000000000000000000000000000000000000000000000000000000000000000000000000000000000000000000000000000000000000000000000000000000000000000000000000000000000000000000000000000000000000000000000000000000000000000000000000000000000000000000000000000000000000000000000000000000000000000000000000000000000000000000000000000000000000000000000000000000000000000000000000000000000000000000000000000000000000000000000000000000000000000",
      "type": "0x2",
      "transactionHash": "0xbf22a35e2b4dfdf08a012f93ab58256f990423533b3b7ef20ecdc6e87824def2",
      "transactionIndex": "0xa",
      "blockHash": "0x1a3d813c858e333b19049f8eb7c2e211329fabaf7d64d6c59cbcdb41274fad8f",
      "blockNumber": "0x9bb180a",
      "gasUsed": "0x677ce",
      "effectiveGasPrice": "0x5d21dba01",
      "from": "0x6faff29226219756aa40ce648dbc65fb41de5f72",
      "to": null,
      "contractAddress": "0xc9979839c29da281cf1b4223537c3558d5ca6424"
    },
    {
      "status": "0x1",
      "cumulativeGasUsed": "0x2bc812",
      "logs": [],
      "logsBloom": "0x00000000000000000000000000000000000000000000000000000000000000000000000000000000000000000000000000000000000000000000000000000000000000000000000000000000000000000000000000000000000000000000000000000000000000000000000000000000000000000000000000000000000000000000000000000000000000000000000000000000000000000000000000000000000000000000000000000000000000000000000000000000000000000000000000000000000000000000000000000000000000000000000000000000000000000000000000000000000000000000000000000000000000000000000000000000",
      "type": "0x2",
      "transactionHash": "0xe0e12781daf2a153c8144c98afa59cf9d5a8f971abf6af305db70193db96e3ad",
      "transactionIndex": "0xb",
      "blockHash": "0x1a3d813c858e333b19049f8eb7c2e211329fabaf7d64d6c59cbcdb41274fad8f",
      "blockNumber": "0x9bb180a",
      "gasUsed": "0xd435",
      "effectiveGasPrice": "0x5d21dba01",
      "from": "0x6faff29226219756aa40ce648dbc65fb41de5f72",
      "to": "0x95ce14ee82410c4a7296205e0c663969703dc857",
      "contractAddress": null
    }
  ],
  "libraries": [],
  "pending": [],
  "returns": {},
  "timestamp": 1724837988,
  "chain": 1001,
  "commit": "dbc37e5"
}