{
  "transactions": [
    {
      "hash": "0x6e840ade8cb8fda7492aafb0704ae1a420d58db7238c3739be0b4ddb04778239",
      "transactionType": "CREATE",
      "contractName": "RaidTreasury",
      "contractAddress": "0x4f0ea71a55e9668de8fd1b368dad08450467b611",
      "function": null,
      "arguments": null,
      "transaction": {
        "from": "0x6faff29226219756aa40ce648dbc65fb41de5f72",
        "gas": "0xa4c0c",
        "value": "0x0",
        "input": "0x6080604052600180547332bf51fa408a0ee9b7a414c6a793760caf0861186001600160a01b031991821681179092556002805490911690911790553480156044575f80fd5b50600380546001600160a01b031916339081179091555f90815260208190526040902069021e19e0c9bab24000009055610381806100815f395ff3fe608060405260043610610057575f3560e01c80632d809cb61461009b5780633ccfd60b146100d95780638da5cb5b146100ef578063d7bb99ba14610126578063f10fdf5c1461012e578063fbec6f211461014e575f80fd5b36610097575f341180156100785750335f9081526020819052604090205415155b610080575f80fd5b600380546001600160a01b03191633908117909155005b5f80fd5b3480156100a6575f80fd5b506100c66100b53660046102ec565b5f6020819052908152604090205481565b6040519081526020015b60405180910390f35b3480156100e4575f80fd5b506100ed61016d565b005b3480156100fa575f80fd5b5060035461010e906001600160a01b031681565b6040516001600160a01b0390911681526020016100d0565b6100ed61027b565b348015610139575f80fd5b50335f908152602081905260409020546100c6565b348015610159575f80fd5b5060025461010e906001600160a01b031681565b6003546001600160a01b0316331461019857604051636db2465f60e01b815260040160405180910390fd5b6002546040516370a0823160e01b81523060048201526001600160a01b039091169063a9059cbb90339083906370a0823190602401602060405180830381865afa1580156101e8573d5f803e3d5ffd5b505050506040513d601f19601f8201168201806040525081019061020c9190610319565b6040516001600160e01b031960e085901b1681526001600160a01b03909216600483015260248201526044016020604051808303815f875af1158015610254573d5f803e3d5ffd5b505050506040513d601f19601f820116820180604052508101906102789190610330565b50565b66038d7ea4c68000341061028d575f80fd5b335f90815260208190526040812080543492906102ab90849061034f565b90915550506003546001600160a01b03165f908152602081905260408082205433835291205411156102ea57600380546001600160a01b031916331790555b565b5f602082840312156102fc575f80fd5b81356001600160a01b0381168114610312575f80fd5b9392505050565b5f60208284031215610329575f80fd5b5051919050565b5f60208284031215610340575f80fd5b81518015158114610312575f80fd5b8082018082111561036e57634e487b7160e01b5f52601160045260245ffd5b9291505056fea164736f6c6343000819000a",
        "nonce": "0x11c",
        "chainId": "0x3e9"
      },
      "additionalContracts": [],
      "isFixedGasLimit": false
    },
    {
      "hash": "0xaf816c8bfbfec521916ef9e0be275db8dd51e6486345555edc4be1cfcd76ebab",
      "transactionType": "CALL",
      "contractName": null,
      "contractAddress": "0x95ce14ee82410c4a7296205e0c663969703dc857",
      "function": "addTreasuryCastle(address)",
      "arguments": [
        "0x4F0ea71a55E9668DE8Fd1b368Dad08450467B611"
      ],
      "transaction": {
        "from": "0x6faff29226219756aa40ce648dbc65fb41de5f72",
        "to": "0x95ce14ee82410c4a7296205e0c663969703dc857",
        "gas": "0x257ea",
        "value": "0x0",
        "input": "0x8deee1570000000000000000000000004f0ea71a55e9668de8fd1b368dad08450467b611",
        "nonce": "0x11d",
        "chainId": "0x3e9"
      },
      "additionalContracts": [],
      "isFixedGasLimit": false
    },
    {
      "hash": "0xb43549908a56d1181ce76ee73494de8876ea777e90c45517fae278329651fdfb",
      "transactionType": "CREATE",
      "contractName": "RaidTreasury",
      "contractAddress": "0xce47d79489ae373b36b65afab9304b960ffac6a4",
      "function": null,
      "arguments": null,
      "transaction": {
        "from": "0x6faff29226219756aa40ce648dbc65fb41de5f72",
        "gas": "0xa4c0c",
        "value": "0x0",
        "input": "0x6080604052600180547332bf51fa408a0ee9b7a414c6a793760caf0861186001600160a01b031991821681179092556002805490911690911790553480156044575f80fd5b50600380546001600160a01b031916339081179091555f90815260208190526040902069021e19e0c9bab24000009055610381806100815f395ff3fe608060405260043610610057575f3560e01c80632d809cb61461009b5780633ccfd60b146100d95780638da5cb5b146100ef578063d7bb99ba14610126578063f10fdf5c1461012e578063fbec6f211461014e575f80fd5b36610097575f341180156100785750335f9081526020819052604090205415155b610080575f80fd5b600380546001600160a01b03191633908117909155005b5f80fd5b3480156100a6575f80fd5b506100c66100b53660046102ec565b5f6020819052908152604090205481565b6040519081526020015b60405180910390f35b3480156100e4575f80fd5b506100ed61016d565b005b3480156100fa575f80fd5b5060035461010e906001600160a01b031681565b6040516001600160a01b0390911681526020016100d0565b6100ed61027b565b348015610139575f80fd5b50335f908152602081905260409020546100c6565b348015610159575f80fd5b5060025461010e906001600160a01b031681565b6003546001600160a01b0316331461019857604051636db2465f60e01b815260040160405180910390fd5b6002546040516370a0823160e01b81523060048201526001600160a01b039091169063a9059cbb90339083906370a0823190602401602060405180830381865afa1580156101e8573d5f803e3d5ffd5b505050506040513d601f19601f8201168201806040525081019061020c9190610319565b6040516001600160e01b031960e085901b1681526001600160a01b03909216600483015260248201526044016020604051808303815f875af1158015610254573d5f803e3d5ffd5b505050506040513d601f19601f820116820180604052508101906102789190610330565b50565b66038d7ea4c68000341061028d575f80fd5b335f90815260208190526040812080543492906102ab90849061034f565b90915550506003546001600160a01b03165f908152602081905260408082205433835291205411156102ea57600380546001600160a01b031916331790555b565b5f602082840312156102fc575f80fd5b81356001600160a01b0381168114610312575f80fd5b9392505050565b5f60208284031215610329575f80fd5b5051919050565b5f60208284031215610340575f80fd5b81518015158114610312575f80fd5b8082018082111561036e57634e487b7160e01b5f52601160045260245ffd5b9291505056fea164736f6c6343000819000a",
        "nonce": "0x11e",
        "chainId": "0x3e9"
      },
      "additionalContracts": [],
      "isFixedGasLimit": false
    },
    {
      "hash": "0x8abf89b4fcc08c37b4dbb34fb34151e95862bf8f76e9191b14f28352629527a5",
      "transactionType": "CALL",
      "contractName": null,
      "contractAddress": "0x95ce14ee82410c4a7296205e0c663969703dc857",
      "function": "addTreasuryCastle(address)",
      "arguments": [
        "0xce47D79489aE373B36b65AFab9304B960Ffac6a4"
      ],
      "transaction": {
        "from": "0x6faff29226219756aa40ce648dbc65fb41de5f72",
        "to": "0x95ce14ee82410c4a7296205e0c663969703dc857",
        "gas": "0x1a8a4",
        "value": "0x0",
        "input": "0x8deee157000000000000000000000000ce47d79489ae373b36b65afab9304b960ffac6a4",
        "nonce": "0x11f",
        "chainId": "0x3e9"
      },
      "additionalContracts": [],
      "isFixedGasLimit": false
    },
    {
      "hash": "0xa82842c56c62cff1673cdbbca43ff4f641c8a33ce212ee35886ced359dae28bf",
      "transactionType": "CREATE",
      "contractName": "RaidTreasury",
      "contractAddress": "0x0f2ff5784b874db6d16314085165f37375d0fbe9",
      "function": null,
      "arguments": null,
      "transaction": {
        "from": "0x6faff29226219756aa40ce648dbc65fb41de5f72",
        "gas": "0xa4c0c",
        "value": "0x0",
        "input": "0x6080604052600180547332bf51fa408a0ee9b7a414c6a793760caf0861186001600160a01b031991821681179092556002805490911690911790553480156044575f80fd5b50600380546001600160a01b031916339081179091555f90815260208190526040902069021e19e0c9bab24000009055610381806100815f395ff3fe608060405260043610610057575f3560e01c80632d809cb61461009b5780633ccfd60b146100d95780638da5cb5b146100ef578063d7bb99ba14610126578063f10fdf5c1461012e578063fbec6f211461014e575f80fd5b36610097575f341180156100785750335f9081526020819052604090205415155b610080575f80fd5b600380546001600160a01b03191633908117909155005b5f80fd5b3480156100a6575f80fd5b506100c66100b53660046102ec565b5f6020819052908152604090205481565b6040519081526020015b60405180910390f35b3480156100e4575f80fd5b506100ed61016d565b005b3480156100fa575f80fd5b5060035461010e906001600160a01b031681565b6040516001600160a01b0390911681526020016100d0565b6100ed61027b565b348015610139575f80fd5b50335f908152602081905260409020546100c6565b348015610159575f80fd5b5060025461010e906001600160a01b031681565b6003546001600160a01b0316331461019857604051636db2465f60e01b815260040160405180910390fd5b6002546040516370a0823160e01b81523060048201526001600160a01b039091169063a9059cbb90339083906370a0823190602401602060405180830381865afa1580156101e8573d5f803e3d5ffd5b505050506040513d601f19601f8201168201806040525081019061020c9190610319565b6040516001600160e01b031960e085901b1681526001600160a01b03909216600483015260248201526044016020604051808303815f875af1158015610254573d5f803e3d5ffd5b505050506040513d601f19601f820116820180604052508101906102789190610330565b50565b66038d7ea4c68000341061028d575f80fd5b335f90815260208190526040812080543492906102ab90849061034f565b90915550506003546001600160a01b03165f908152602081905260408082205433835291205411156102ea57600380546001600160a01b031916331790555b565b5f602082840312156102fc575f80fd5b81356001600160a01b0381168114610312575f80fd5b9392505050565b5f60208284031215610329575f80fd5b5051919050565b5f60208284031215610340575f80fd5b81518015158114610312575f80fd5b8082018082111561036e57634e487b7160e01b5f52601160045260245ffd5b9291505056fea164736f6c6343000819000a",
        "nonce": "0x120",
        "chainId": "0x3e9"
      },
      "additionalContracts": [],
      "isFixedGasLimit": false
    },
    {
      "hash": "0x2d82474668740e32f0ee92919b1fa6da5a81256afa4a0145d356d374dfdcf16e",
      "transactionType": "CALL",
      "contractName": null,
      "contractAddress": "0x95ce14ee82410c4a7296205e0c663969703dc857",
      "function": "addTreasuryCastle(address)",
      "arguments": [
        "0x0f2fF5784b874DB6D16314085165f37375D0fBe9"
      ],
      "transaction": {
        "from": "0x6faff29226219756aa40ce648dbc65fb41de5f72",
        "to": "0x95ce14ee82410c4a7296205e0c663969703dc857",
        "gas": "0x1a8a4",
        "value": "0x0",
        "input": "0x8deee1570000000000000000000000000f2ff5784b874db6d16314085165f37375d0fbe9",
        "nonce": "0x121",
        "chainId": "0x3e9"
      },
      "additionalContracts": [],
      "isFixedGasLimit": false
    },
    {
      "hash": "0xedff08dc8ffb65726e335a944491f553d0506bbf1ae207e789b4478443b6e9d6",
      "transactionType": "CREATE",
      "contractName": "RaidTreasury",
      "contractAddress": "0x60595198b3d0340f0d441133e4d4650cec1b7cee",
      "function": null,
      "arguments": null,
      "transaction": {
        "from": "0x6faff29226219756aa40ce648dbc65fb41de5f72",
        "gas": "0xa4c0c",
        "value": "0x0",
        "input": "0x6080604052600180547332bf51fa408a0ee9b7a414c6a793760caf0861186001600160a01b031991821681179092556002805490911690911790553480156044575f80fd5b50600380546001600160a01b031916339081179091555f90815260208190526040902069021e19e0c9bab24000009055610381806100815f395ff3fe608060405260043610610057575f3560e01c80632d809cb61461009b5780633ccfd60b146100d95780638da5cb5b146100ef578063d7bb99ba14610126578063f10fdf5c1461012e578063fbec6f211461014e575f80fd5b36610097575f341180156100785750335f9081526020819052604090205415155b610080575f80fd5b600380546001600160a01b03191633908117909155005b5f80fd5b3480156100a6575f80fd5b506100c66100b53660046102ec565b5f6020819052908152604090205481565b6040519081526020015b60405180910390f35b3480156100e4575f80fd5b506100ed61016d565b005b3480156100fa575f80fd5b5060035461010e906001600160a01b031681565b6040516001600160a01b0390911681526020016100d0565b6100ed61027b565b348015610139575f80fd5b50335f908152602081905260409020546100c6565b348015610159575f80fd5b5060025461010e906001600160a01b031681565b6003546001600160a01b0316331461019857604051636db2465f60e01b815260040160405180910390fd5b6002546040516370a0823160e01b81523060048201526001600160a01b039091169063a9059cbb90339083906370a0823190602401602060405180830381865afa1580156101e8573d5f803e3d5ffd5b505050506040513d601f19601f8201168201806040525081019061020c9190610319565b6040516001600160e01b031960e085901b1681526001600160a01b03909216600483015260248201526044016020604051808303815f875af1158015610254573d5f803e3d5ffd5b505050506040513d601f19601f820116820180604052508101906102789190610330565b50565b66038d7ea4c68000341061028d575f80fd5b335f90815260208190526040812080543492906102ab90849061034f565b90915550506003546001600160a01b03165f908152602081905260408082205433835291205411156102ea57600380546001600160a01b031916331790555b565b5f602082840312156102fc575f80fd5b81356001600160a01b0381168114610312575f80fd5b9392505050565b5f60208284031215610329575f80fd5b5051919050565b5f60208284031215610340575f80fd5b81518015158114610312575f80fd5b8082018082111561036e57634e487b7160e01b5f52601160045260245ffd5b9291505056fea164736f6c6343000819000a",
        "nonce": "0x122",
        "chainId": "0x3e9"
      },
      "additionalContracts": [],
      "isFixedGasLimit": false
    },
    {
      "hash": "0x55a8ea904909ea21a75e4cb8f4a2243304bede0c8addfd74451c22f2e887b413",
      "transactionType": "CALL",
      "contractName": null,
      "contractAddress": "0x95ce14ee82410c4a7296205e0c663969703dc857",
      "function": "addTreasuryCastle(address)",
      "arguments": [
        "0x60595198B3D0340F0D441133E4D4650CeC1B7Cee"
      ],
      "transaction": {
        "from": "0x6faff29226219756aa40ce648dbc65fb41de5f72",
        "to": "0x95ce14ee82410c4a7296205e0c663969703dc857",
        "gas": "0x1a8a4",
        "value": "0x0",
        "input": "0x8deee15700000000000000000000000060595198b3d0340f0d441133e4d4650cec1b7cee",
        "nonce": "0x123",
        "chainId": "0x3e9"
      },
      "additionalContracts": [],
      "isFixedGasLimit": false
    },
    {
      "hash": "0x2a62c0a3c39cec86bc1ea0ab38b7d1de6fd21eeff5e0cde22b3ad35683cbb35e",
      "transactionType": "CREATE",
      "contractName": "RaidTreasury",
      "contractAddress": "0xbe59cf415a61903ad9f91be14078b9040f4bfccb",
      "function": null,
      "arguments": null,
      "transaction": {
        "from": "0x6faff29226219756aa40ce648dbc65fb41de5f72",
        "gas": "0xa4c0c",
        "value": "0x0",
        "input": "0x6080604052600180547332bf51fa408a0ee9b7a414c6a793760caf0861186001600160a01b031991821681179092556002805490911690911790553480156044575f80fd5b50600380546001600160a01b031916339081179091555f90815260208190526040902069021e19e0c9bab24000009055610381806100815f395ff3fe608060405260043610610057575f3560e01c80632d809cb61461009b5780633ccfd60b146100d95780638da5cb5b146100ef578063d7bb99ba14610126578063f10fdf5c1461012e578063fbec6f211461014e575f80fd5b36610097575f341180156100785750335f9081526020819052604090205415155b610080575f80fd5b600380546001600160a01b03191633908117909155005b5f80fd5b3480156100a6575f80fd5b506100c66100b53660046102ec565b5f6020819052908152604090205481565b6040519081526020015b60405180910390f35b3480156100e4575f80fd5b506100ed61016d565b005b3480156100fa575f80fd5b5060035461010e906001600160a01b031681565b6040516001600160a01b0390911681526020016100d0565b6100ed61027b565b348015610139575f80fd5b50335f908152602081905260409020546100c6565b348015610159575f80fd5b5060025461010e906001600160a01b031681565b6003546001600160a01b0316331461019857604051636db2465f60e01b815260040160405180910390fd5b6002546040516370a0823160e01b81523060048201526001600160a01b039091169063a9059cbb90339083906370a0823190602401602060405180830381865afa1580156101e8573d5f803e3d5ffd5b505050506040513d601f19601f8201168201806040525081019061020c9190610319565b6040516001600160e01b031960e085901b1681526001600160a01b03909216600483015260248201526044016020604051808303815f875af1158015610254573d5f803e3d5ffd5b505050506040513d601f19601f820116820180604052508101906102789190610330565b50565b66038d7ea4c68000341061028d575f80fd5b335f90815260208190526040812080543492906102ab90849061034f565b90915550506003546001600160a01b03165f908152602081905260408082205433835291205411156102ea57600380546001600160a01b031916331790555b565b5f602082840312156102fc575f80fd5b81356001600160a01b0381168114610312575f80fd5b9392505050565b5f60208284031215610329575f80fd5b5051919050565b5f60208284031215610340575f80fd5b81518015158114610312575f80fd5b8082018082111561036e57634e487b7160e01b5f52601160045260245ffd5b9291505056fea164736f6c6343000819000a",
        "nonce": "0x124",
        "chainId": "0x3e9"
      },
      "additionalContracts": [],
      "isFixedGasLimit": false
    },
    {
      "hash": "0x490d0620cf7c8590c95f2160301eeab98db4ae92b18c7d40a3facfec50aba064",
      "transactionType": "CALL",
      "contractName": null,
      "contractAddress": "0x95ce14ee82410c4a7296205e0c663969703dc857",
      "function": "addTreasuryCastle(address)",
      "arguments": [
        "0xBe59cF415A61903ad9F91BE14078b9040f4bFCCb"
      ],
      "transaction": {
        "from": "0x6faff29226219756aa40ce648dbc65fb41de5f72",
        "to": "0x95ce14ee82410c4a7296205e0c663969703dc857",
        "gas": "0x1a8a4",
        "value": "0x0",
        "input": "0x8deee157000000000000000000000000be59cf415a61903ad9f91be14078b9040f4bfccb",
        "nonce": "0x125",
        "chainId": "0x3e9"
      },
      "additionalContracts": [],
      "isFixedGasLimit": false
    },
    {
      "hash": "0xa7c944d6a3745c57f29fb8418322f9c9d14a091930d5e9b1cdf5086d780ec05b",
      "transactionType": "CREATE",
      "contractName": "RaidTreasury",
      "contractAddress": "0xa7ca377cf99149170ae872f263e0de2b1597471a",
      "function": null,
      "arguments": null,
      "transaction": {
        "from": "0x6faff29226219756aa40ce648dbc65fb41de5f72",
        "gas": "0xa4c0c",
        "value": "0x0",
        "input": "0x6080604052600180547332bf51fa408a0ee9b7a414c6a793760caf0861186001600160a01b031991821681179092556002805490911690911790553480156044575f80fd5b50600380546001600160a01b031916339081179091555f90815260208190526040902069021e19e0c9bab24000009055610381806100815f395ff3fe608060405260043610610057575f3560e01c80632d809cb61461009b5780633ccfd60b146100d95780638da5cb5b146100ef578063d7bb99ba14610126578063f10fdf5c1461012e578063fbec6f211461014e575f80fd5b36610097575f341180156100785750335f9081526020819052604090205415155b610080575f80fd5b600380546001600160a01b03191633908117909155005b5f80fd5b3480156100a6575f80fd5b506100c66100b53660046102ec565b5f6020819052908152604090205481565b6040519081526020015b60405180910390f35b3480156100e4575f80fd5b506100ed61016d565b005b3480156100fa575f80fd5b5060035461010e906001600160a01b031681565b6040516001600160a01b0390911681526020016100d0565b6100ed61027b565b348015610139575f80fd5b50335f908152602081905260409020546100c6565b348015610159575f80fd5b5060025461010e906001600160a01b031681565b6003546001600160a01b0316331461019857604051636db2465f60e01b815260040160405180910390fd5b6002546040516370a0823160e01b81523060048201526001600160a01b039091169063a9059cbb90339083906370a0823190602401602060405180830381865afa1580156101e8573d5f803e3d5ffd5b505050506040513d601f19601f8201168201806040525081019061020c9190610319565b6040516001600160e01b031960e085901b1681526001600160a01b03909216600483015260248201526044016020604051808303815f875af1158015610254573d5f803e3d5ffd5b505050506040513d601f19601f820116820180604052508101906102789190610330565b50565b66038d7ea4c68000341061028d575f80fd5b335f90815260208190526040812080543492906102ab90849061034f565b90915550506003546001600160a01b03165f908152602081905260408082205433835291205411156102ea57600380546001600160a01b031916331790555b565b5f602082840312156102fc575f80fd5b81356001600160a01b0381168114610312575f80fd5b9392505050565b5f60208284031215610329575f80fd5b5051919050565b5f60208284031215610340575f80fd5b81518015158114610312575f80fd5b8082018082111561036e57634e487b7160e01b5f52601160045260245ffd5b9291505056fea164736f6c6343000819000a",
        "nonce": "0x126",
        "chainId": "0x3e9"
      },
      "additionalContracts": [],
      "isFixedGasLimit": false
    },
    {
      "hash": "0x8abdb83b8290d3070349c948672369e117fecee52b76754dd0e9f53adbde6569",
      "transactionType": "CALL",
      "contractName": null,
      "contractAddress": "0x95ce14ee82410c4a7296205e0c663969703dc857",
      "function": "addTreasuryCastle(address)",
      "arguments": [
        "0xA7ca377CF99149170ae872f263e0De2b1597471a"
      ],
      "transaction": {
        "from": "0x6faff29226219756aa40ce648dbc65fb41de5f72",
        "to": "0x95ce14ee82410c4a7296205e0c663969703dc857",
        "gas": "0x1a8a4",
        "value": "0x0",
        "input": "0x8deee157000000000000000000000000a7ca377cf99149170ae872f263e0de2b1597471a",
        "nonce": "0x127",
        "chainId": "0x3e9"
      },
      "additionalContracts": [],
      "isFixedGasLimit": false
    },
    {
      "hash": "0x4a9a2c22df3e3fff3589cf6cc4c2203632b7f64f97e14e2cafd5d101a16305c6",
      "transactionType": "CREATE",
      "contractName": "RaidTreasury",
      "contractAddress": "0x22b99ab80f12e88508d285756c8b4f94db54699a",
      "function": null,
      "arguments": null,
      "transaction": {
        "from": "0x6faff29226219756aa40ce648dbc65fb41de5f72",
        "gas": "0xa4c0c",
        "value": "0x0",
        "input": "0x6080604052600180547332bf51fa408a0ee9b7a414c6a793760caf0861186001600160a01b031991821681179092556002805490911690911790553480156044575f80fd5b50600380546001600160a01b031916339081179091555f90815260208190526040902069021e19e0c9bab24000009055610381806100815f395ff3fe608060405260043610610057575f3560e01c80632d809cb61461009b5780633ccfd60b146100d95780638da5cb5b146100ef578063d7bb99ba14610126578063f10fdf5c1461012e578063fbec6f211461014e575f80fd5b36610097575f341180156100785750335f9081526020819052604090205415155b610080575f80fd5b600380546001600160a01b03191633908117909155005b5f80fd5b3480156100a6575f80fd5b506100c66100b53660046102ec565b5f6020819052908152604090205481565b6040519081526020015b60405180910390f35b3480156100e4575f80fd5b506100ed61016d565b005b3480156100fa575f80fd5b5060035461010e906001600160a01b031681565b6040516001600160a01b0390911681526020016100d0565b6100ed61027b565b348015610139575f80fd5b50335f908152602081905260409020546100c6565b348015610159575f80fd5b5060025461010e906001600160a01b031681565b6003546001600160a01b0316331461019857604051636db2465f60e01b815260040160405180910390fd5b6002546040516370a0823160e01b81523060048201526001600160a01b039091169063a9059cbb90339083906370a0823190602401602060405180830381865afa1580156101e8573d5f803e3d5ffd5b505050506040513d601f19601f8201168201806040525081019061020c9190610319565b6040516001600160e01b031960e085901b1681526001600160a01b03909216600483015260248201526044016020604051808303815f875af1158015610254573d5f803e3d5ffd5b505050506040513d601f19601f820116820180604052508101906102789190610330565b50565b66038d7ea4c68000341061028d575f80fd5b335f90815260208190526040812080543492906102ab90849061034f565b90915550506003546001600160a01b03165f908152602081905260408082205433835291205411156102ea57600380546001600160a01b031916331790555b565b5f602082840312156102fc575f80fd5b81356001600160a01b0381168114610312575f80fd5b9392505050565b5f60208284031215610329575f80fd5b5051919050565b5f60208284031215610340575f80fd5b81518015158114610312575f80fd5b8082018082111561036e57634e487b7160e01b5f52601160045260245ffd5b9291505056fea164736f6c6343000819000a",
        "nonce": "0x128",
        "chainId": "0x3e9"
      },
      "additionalContracts": [],
      "isFixedGasLimit": false
    },
    {
      "hash": "0x22ec07c27646083e9c37d9dc17923e4d07a3cd428750f33391a0c47c275df4d0",
      "transactionType": "CALL",
      "contractName": null,
      "contractAddress": "0x95ce14ee82410c4a7296205e0c663969703dc857",
      "function": "addTreasuryCastle(address)",
      "arguments": [
        "0x22B99AB80F12E88508d285756C8B4f94db54699A"
      ],
      "transaction": {
        "from": "0x6faff29226219756aa40ce648dbc65fb41de5f72",
        "to": "0x95ce14ee82410c4a7296205e0c663969703dc857",
        "gas": "0x1a8a4",
        "value": "0x0",
        "input": "0x8deee15700000000000000000000000022b99ab80f12e88508d285756c8b4f94db54699a",
        "nonce": "0x129",
        "chainId": "0x3e9"
      },
      "additionalContracts": [],
      "isFixedGasLimit": false
    },
    {
      "hash": "0x7c610362aaf1cf99b318b9a2e379c250f56ad63a6f6e4f5124acc9e8d35a9f89",
      "transactionType": "CREATE",
      "contractName": "RaidTreasury",
      "contractAddress": "0x4f158ca8ddd2eeaa39f612efa9b36e7be70030ba",
      "function": null,
      "arguments": null,
      "transaction": {
        "from": "0x6faff29226219756aa40ce648dbc65fb41de5f72",
        "gas": "0xa4c0c",
        "value": "0x0",
        "input": "0x6080604052600180547332bf51fa408a0ee9b7a414c6a793760caf0861186001600160a01b031991821681179092556002805490911690911790553480156044575f80fd5b50600380546001600160a01b031916339081179091555f90815260208190526040902069021e19e0c9bab24000009055610381806100815f395ff3fe608060405260043610610057575f3560e01c80632d809cb61461009b5780633ccfd60b146100d95780638da5cb5b146100ef578063d7bb99ba14610126578063f10fdf5c1461012e578063fbec6f211461014e575f80fd5b36610097575f341180156100785750335f9081526020819052604090205415155b610080575f80fd5b600380546001600160a01b03191633908117909155005b5f80fd5b3480156100a6575f80fd5b506100c66100b53660046102ec565b5f6020819052908152604090205481565b6040519081526020015b60405180910390f35b3480156100e4575f80fd5b506100ed61016d565b005b3480156100fa575f80fd5b5060035461010e906001600160a01b031681565b6040516001600160a01b0390911681526020016100d0565b6100ed61027b565b348015610139575f80fd5b50335f908152602081905260409020546100c6565b348015610159575f80fd5b5060025461010e906001600160a01b031681565b6003546001600160a01b0316331461019857604051636db2465f60e01b815260040160405180910390fd5b6002546040516370a0823160e01b81523060048201526001600160a01b039091169063a9059cbb90339083906370a0823190602401602060405180830381865afa1580156101e8573d5f803e3d5ffd5b505050506040513d601f19601f8201168201806040525081019061020c9190610319565b6040516001600160e01b031960e085901b1681526001600160a01b03909216600483015260248201526044016020604051808303815f875af1158015610254573d5f803e3d5ffd5b505050506040513d601f19601f820116820180604052508101906102789190610330565b50565b66038d7ea4c68000341061028d575f80fd5b335f90815260208190526040812080543492906102ab90849061034f565b90915550506003546001600160a01b03165f908152602081905260408082205433835291205411156102ea57600380546001600160a01b031916331790555b565b5f602082840312156102fc575f80fd5b81356001600160a01b0381168114610312575f80fd5b9392505050565b5f60208284031215610329575f80fd5b5051919050565b5f60208284031215610340575f80fd5b81518015158114610312575f80fd5b8082018082111561036e57634e487b7160e01b5f52601160045260245ffd5b9291505056fea164736f6c6343000819000a",
        "nonce": "0x12a",
        "chainId": "0x3e9"
      },
      "additionalContracts": [],
      "isFixedGasLimit": false
    },
    {
      "hash": "0x446f801971d95aff423aa80556253f12f10fa40a02d6affa58b3410dccec80d1",
      "transactionType": "CALL",
      "contractName": null,
      "contractAddress": "0x95ce14ee82410c4a7296205e0c663969703dc857",
      "function": "addTreasuryCastle(address)",
      "arguments": [
        "0x4f158Ca8ddD2eEAa39F612efA9b36E7BE70030Ba"
      ],
      "transaction": {
        "from": "0x6faff29226219756aa40ce648dbc65fb41de5f72",
        "to": "0x95ce14ee82410c4a7296205e0c663969703dc857",
        "gas": "0x1c184",
        "value": "0x0",
        "input": "0x8deee1570000000000000000000000004f158ca8ddd2eeaa39f612efa9b36e7be70030ba",
        "nonce": "0x12b",
        "chainId": "0x3e9"
      },
      "additionalContracts": [],
      "isFixedGasLimit": false
    },
    {
      "hash": "0x1b1bf772f2bc36ecfcb1908dfbc9827249c6cb4226b10e17e3340bcae41d31eb",
      "transactionType": "CREATE",
      "contractName": "RaidTreasury",
      "contractAddress": "0xe26cd746f3966241228aaf184d651b07bc0664e4",
      "function": null,
      "arguments": null,
      "transaction": {
        "from": "0x6faff29226219756aa40ce648dbc65fb41de5f72",
        "gas": "0xa4c0c",
        "value": "0x0",
        "input": "0x6080604052600180547332bf51fa408a0ee9b7a414c6a793760caf0861186001600160a01b031991821681179092556002805490911690911790553480156044575f80fd5b50600380546001600160a01b031916339081179091555f90815260208190526040902069021e19e0c9bab24000009055610381806100815f395ff3fe608060405260043610610057575f3560e01c80632d809cb61461009b5780633ccfd60b146100d95780638da5cb5b146100ef578063d7bb99ba14610126578063f10fdf5c1461012e578063fbec6f211461014e575f80fd5b36610097575f341180156100785750335f9081526020819052604090205415155b610080575f80fd5b600380546001600160a01b03191633908117909155005b5f80fd5b3480156100a6575f80fd5b506100c66100b53660046102ec565b5f6020819052908152604090205481565b6040519081526020015b60405180910390f35b3480156100e4575f80fd5b506100ed61016d565b005b3480156100fa575f80fd5b5060035461010e906001600160a01b031681565b6040516001600160a01b0390911681526020016100d0565b6100ed61027b565b348015610139575f80fd5b50335f908152602081905260409020546100c6565b348015610159575f80fd5b5060025461010e906001600160a01b031681565b6003546001600160a01b0316331461019857604051636db2465f60e01b815260040160405180910390fd5b6002546040516370a0823160e01b81523060048201526001600160a01b039091169063a9059cbb90339083906370a0823190602401602060405180830381865afa1580156101e8573d5f803e3d5ffd5b505050506040513d601f19601f8201168201806040525081019061020c9190610319565b6040516001600160e01b031960e085901b1681526001600160a01b03909216600483015260248201526044016020604051808303815f875af1158015610254573d5f803e3d5ffd5b505050506040513d601f19601f820116820180604052508101906102789190610330565b50565b66038d7ea4c68000341061028d575f80fd5b335f90815260208190526040812080543492906102ab90849061034f565b90915550506003546001600160a01b03165f908152602081905260408082205433835291205411156102ea57600380546001600160a01b031916331790555b565b5f602082840312156102fc575f80fd5b81356001600160a01b0381168114610312575f80fd5b9392505050565b5f60208284031215610329575f80fd5b5051919050565b5f60208284031215610340575f80fd5b81518015158114610312575f80fd5b8082018082111561036e57634e487b7160e01b5f52601160045260245ffd5b9291505056fea164736f6c6343000819000a",
        "nonce": "0x12c",
        "chainId": "0x3e9"
      },
      "additionalContracts": [],
      "isFixedGasLimit": false
    },
    {
      "hash": "0x10ca60755e4c89cdde6c8a36d32addf300821bc6c09f77fc93bf663db853e7e8",
      "transactionType": "CALL",
      "contractName": null,
      "contractAddress": "0x95ce14ee82410c4a7296205e0c663969703dc857",
      "function": "addTreasuryCastle(address)",
      "arguments": [
        "0xe26cD746f3966241228aaF184d651B07BC0664E4"
      ],
      "transaction": {
        "from": "0x6faff29226219756aa40ce648dbc65fb41de5f72",
        "to": "0x95ce14ee82410c4a7296205e0c663969703dc857",
        "gas": "0x1a8a4",
        "value": "0x0",
        "input": "0x8deee157000000000000000000000000e26cd746f3966241228aaf184d651b07bc0664e4",
        "nonce": "0x12d",
        "chainId": "0x3e9"
      },
      "additionalContracts": [],
      "isFixedGasLimit": false
    },
    {
      "hash": "0xa90b868585f5e28d7fce26f08d79fb20fca5cf2ed65d45269e76233ec13ed69d",
      "transactionType": "CREATE",
      "contractName": "RaidTreasury",
      "contractAddress": "0x34cfc5d2ee8e7e7ddcd5f2f1aa807c03209d9b7f",
      "function": null,
      "arguments": null,
      "transaction": {
        "from": "0x6faff29226219756aa40ce648dbc65fb41de5f72",
        "gas": "0xa4c0c",
        "value": "0x0",
        "input": "0x6080604052600180547332bf51fa408a0ee9b7a414c6a793760caf0861186001600160a01b031991821681179092556002805490911690911790553480156044575f80fd5b50600380546001600160a01b031916339081179091555f90815260208190526040902069021e19e0c9bab24000009055610381806100815f395ff3fe608060405260043610610057575f3560e01c80632d809cb61461009b5780633ccfd60b146100d95780638da5cb5b146100ef578063d7bb99ba14610126578063f10fdf5c1461012e578063fbec6f211461014e575f80fd5b36610097575f341180156100785750335f9081526020819052604090205415155b610080575f80fd5b600380546001600160a01b03191633908117909155005b5f80fd5b3480156100a6575f80fd5b506100c66100b53660046102ec565b5f6020819052908152604090205481565b6040519081526020015b60405180910390f35b3480156100e4575f80fd5b506100ed61016d565b005b3480156100fa575f80fd5b5060035461010e906001600160a01b031681565b6040516001600160a01b0390911681526020016100d0565b6100ed61027b565b348015610139575f80fd5b50335f908152602081905260409020546100c6565b348015610159575f80fd5b5060025461010e906001600160a01b031681565b6003546001600160a01b0316331461019857604051636db2465f60e01b815260040160405180910390fd5b6002546040516370a0823160e01b81523060048201526001600160a01b039091169063a9059cbb90339083906370a0823190602401602060405180830381865afa1580156101e8573d5f803e3d5ffd5b505050506040513d601f19601f8201168201806040525081019061020c9190610319565b6040516001600160e01b031960e085901b1681526001600160a01b03909216600483015260248201526044016020604051808303815f875af1158015610254573d5f803e3d5ffd5b505050506040513d601f19601f820116820180604052508101906102789190610330565b50565b66038d7ea4c68000341061028d575f80fd5b335f90815260208190526040812080543492906102ab90849061034f565b90915550506003546001600160a01b03165f908152602081905260408082205433835291205411156102ea57600380546001600160a01b031916331790555b565b5f602082840312156102fc575f80fd5b81356001600160a01b0381168114610312575f80fd5b9392505050565b5f60208284031215610329575f80fd5b5051919050565b5f60208284031215610340575f80fd5b81518015158114610312575f80fd5b8082018082111561036e57634e487b7160e01b5f52601160045260245ffd5b9291505056fea164736f6c6343000819000a",
        "nonce": "0x12e",
        "chainId": "0x3e9"
      },
      "additionalContracts": [],
      "isFixedGasLimit": false
    },
    {
      "hash": "0x98cf84fc52b89886425359c163399a3d26ebe6462db202c233566cb0b61aea6a",
      "transactionType": "CALL",
      "contractName": null,
      "contractAddress": "0x95ce14ee82410c4a7296205e0c663969703dc857",
      "function": "addTreasuryCastle(address)",
      "arguments": [
        "0x34cfC5d2Ee8E7E7DDcD5f2F1aa807c03209D9b7F"
      ],
      "transaction": {
        "from": "0x6faff29226219756aa40ce648dbc65fb41de5f72",
        "to": "0x95ce14ee82410c4a7296205e0c663969703dc857",
        "gas": "0x1a8a4",
        "value": "0x0",
        "input": "0x8deee15700000000000000000000000034cfc5d2ee8e7e7ddcd5f2f1aa807c03209d9b7f",
        "nonce": "0x12f",
        "chainId": "0x3e9"
      },
      "additionalContracts": [],
      "isFixedGasLimit": false
    },
    {
      "hash": "0x806d4dc5a800cd3300676e2c68eaad847b0d6408d918299d79c17bcf45c81659",
      "transactionType": "CREATE",
      "contractName": "RaidTreasury",
      "contractAddress": "0xd88d76829c0537f9d54c3d2be07842031c7b67af",
      "function": null,
      "arguments": null,
      "transaction": {
        "from": "0x6faff29226219756aa40ce648dbc65fb41de5f72",
        "gas": "0xa4c0c",
        "value": "0x0",
        "input": "0x6080604052600180547332bf51fa408a0ee9b7a414c6a793760caf0861186001600160a01b031991821681179092556002805490911690911790553480156044575f80fd5b50600380546001600160a01b031916339081179091555f90815260208190526040902069021e19e0c9bab24000009055610381806100815f395ff3fe608060405260043610610057575f3560e01c80632d809cb61461009b5780633ccfd60b146100d95780638da5cb5b146100ef578063d7bb99ba14610126578063f10fdf5c1461012e578063fbec6f211461014e575f80fd5b36610097575f341180156100785750335f9081526020819052604090205415155b610080575f80fd5b600380546001600160a01b03191633908117909155005b5f80fd5b3480156100a6575f80fd5b506100c66100b53660046102ec565b5f6020819052908152604090205481565b6040519081526020015b60405180910390f35b3480156100e4575f80fd5b506100ed61016d565b005b3480156100fa575f80fd5b5060035461010e906001600160a01b031681565b6040516001600160a01b0390911681526020016100d0565b6100ed61027b565b348015610139575f80fd5b50335f908152602081905260409020546100c6565b348015610159575f80fd5b5060025461010e906001600160a01b031681565b6003546001600160a01b0316331461019857604051636db2465f60e01b815260040160405180910390fd5b6002546040516370a0823160e01b81523060048201526001600160a01b039091169063a9059cbb90339083906370a0823190602401602060405180830381865afa1580156101e8573d5f803e3d5ffd5b505050506040513d601f19601f8201168201806040525081019061020c9190610319565b6040516001600160e01b031960e085901b1681526001600160a01b03909216600483015260248201526044016020604051808303815f875af1158015610254573d5f803e3d5ffd5b505050506040513d601f19601f820116820180604052508101906102789190610330565b50565b66038d7ea4c68000341061028d575f80fd5b335f90815260208190526040812080543492906102ab90849061034f565b90915550506003546001600160a01b03165f908152602081905260408082205433835291205411156102ea57600380546001600160a01b031916331790555b565b5f602082840312156102fc575f80fd5b81356001600160a01b0381168114610312575f80fd5b9392505050565b5f60208284031215610329575f80fd5b5051919050565b5f60208284031215610340575f80fd5b81518015158114610312575f80fd5b8082018082111561036e57634e487b7160e01b5f52601160045260245ffd5b9291505056fea164736f6c6343000819000a",
        "nonce": "0x130",
        "chainId": "0x3e9"
      },
      "additionalContracts": [],
      "isFixedGasLimit": false
    },
    {
      "hash": "0x4c8276eafb234aabe8785d52f4e91b4476c6d9289082e56c5f1d5464586f7852",
      "transactionType": "CALL",
      "contractName": null,
      "contractAddress": "0x95ce14ee82410c4a7296205e0c663969703dc857",
      "function": "addTreasuryCastle(address)",
      "arguments": [
        "0xd88D76829C0537f9d54C3D2Be07842031c7B67AF"
      ],
      "transaction": {
        "from": "0x6faff29226219756aa40ce648dbc65fb41de5f72",
        "to": "0x95ce14ee82410c4a7296205e0c663969703dc857",
        "gas": "0x1a8a4",
        "value": "0x0",
        "input": "0x8deee157000000000000000000000000d88d76829c0537f9d54c3d2be07842031c7b67af",
        "nonce": "0x131",
        "chainId": "0x3e9"
      },
      "additionalContracts": [],
      "isFixedGasLimit": false
    },
    {
      "hash": "0xf758dcb5d584f2f571a79aaba1aa91b20a0e181ec6d7078b45d13e8151f4822f",
      "transactionType": "CREATE",
      "contractName": "RaidTreasury",
      "contractAddress": "0xc20fec9ed5bc0eb58a001d925a33da96c48b409a",
      "function": null,
      "arguments": null,
      "transaction": {
        "from": "0x6faff29226219756aa40ce648dbc65fb41de5f72",
        "gas": "0xa4c0c",
        "value": "0x0",
        "input": "0x6080604052600180547332bf51fa408a0ee9b7a414c6a793760caf0861186001600160a01b031991821681179092556002805490911690911790553480156044575f80fd5b50600380546001600160a01b031916339081179091555f90815260208190526040902069021e19e0c9bab24000009055610381806100815f395ff3fe608060405260043610610057575f3560e01c80632d809cb61461009b5780633ccfd60b146100d95780638da5cb5b146100ef578063d7bb99ba14610126578063f10fdf5c1461012e578063fbec6f211461014e575f80fd5b36610097575f341180156100785750335f9081526020819052604090205415155b610080575f80fd5b600380546001600160a01b03191633908117909155005b5f80fd5b3480156100a6575f80fd5b506100c66100b53660046102ec565b5f6020819052908152604090205481565b6040519081526020015b60405180910390f35b3480156100e4575f80fd5b506100ed61016d565b005b3480156100fa575f80fd5b5060035461010e906001600160a01b031681565b6040516001600160a01b0390911681526020016100d0565b6100ed61027b565b348015610139575f80fd5b50335f908152602081905260409020546100c6565b348015610159575f80fd5b5060025461010e906001600160a01b031681565b6003546001600160a01b0316331461019857604051636db2465f60e01b815260040160405180910390fd5b6002546040516370a0823160e01b81523060048201526001600160a01b039091169063a9059cbb90339083906370a0823190602401602060405180830381865afa1580156101e8573d5f803e3d5ffd5b505050506040513d601f19601f8201168201806040525081019061020c9190610319565b6040516001600160e01b031960e085901b1681526001600160a01b03909216600483015260248201526044016020604051808303815f875af1158015610254573d5f803e3d5ffd5b505050506040513d601f19601f820116820180604052508101906102789190610330565b50565b66038d7ea4c68000341061028d575f80fd5b335f90815260208190526040812080543492906102ab90849061034f565b90915550506003546001600160a01b03165f908152602081905260408082205433835291205411156102ea57600380546001600160a01b031916331790555b565b5f602082840312156102fc575f80fd5b81356001600160a01b0381168114610312575f80fd5b9392505050565b5f60208284031215610329575f80fd5b5051919050565b5f60208284031215610340575f80fd5b81518015158114610312575f80fd5b8082018082111561036e57634e487b7160e01b5f52601160045260245ffd5b9291505056fea164736f6c6343000819000a",
        "nonce": "0x132",
        "chainId": "0x3e9"
      },
      "additionalContracts": [],
      "isFixedGasLimit": false
    },
    {
      "hash": "0x828f61dd246a49e0ad4aa08f0eefcdba427fb639ce02def3c26ccded552353dc",
      "transactionType": "CALL",
      "contractName": null,
      "contractAddress": "0x95ce14ee82410c4a7296205e0c663969703dc857",
      "function": "addTreasuryCastle(address)",
      "arguments": [
        "0xC20feC9Ed5Bc0eB58A001d925A33da96c48b409a"
      ],
      "transaction": {
        "from": "0x6faff29226219756aa40ce648dbc65fb41de5f72",
        "to": "0x95ce14ee82410c4a7296205e0c663969703dc857",
        "gas": "0x1c184",
        "value": "0x0",
        "input": "0x8deee157000000000000000000000000c20fec9ed5bc0eb58a001d925a33da96c48b409a",
        "nonce": "0x133",
        "chainId": "0x3e9"
      },
      "additionalContracts": [],
      "isFixedGasLimit": false
    },
    {
      "hash": "0x0dbe823f73007ba60c128467e1e66414eaa387e0c6a39acb916acf5ce3cafaa6",
      "transactionType": "CREATE",
      "contractName": "RaidTreasury",
      "contractAddress": "0x89917efb5a75da92618491aa57e0a262f8db2dad",
      "function": null,
      "arguments": null,
      "transaction": {
        "from": "0x6faff29226219756aa40ce648dbc65fb41de5f72",
        "gas": "0xa4c0c",
        "value": "0x0",
        "input": "0x6080604052600180547332bf51fa408a0ee9b7a414c6a793760caf0861186001600160a01b031991821681179092556002805490911690911790553480156044575f80fd5b50600380546001600160a01b031916339081179091555f90815260208190526040902069021e19e0c9bab24000009055610381806100815f395ff3fe608060405260043610610057575f3560e01c80632d809cb61461009b5780633ccfd60b146100d95780638da5cb5b146100ef578063d7bb99ba14610126578063f10fdf5c1461012e578063fbec6f211461014e575f80fd5b36610097575f341180156100785750335f9081526020819052604090205415155b610080575f80fd5b600380546001600160a01b03191633908117909155005b5f80fd5b3480156100a6575f80fd5b506100c66100b53660046102ec565b5f6020819052908152604090205481565b6040519081526020015b60405180910390f35b3480156100e4575f80fd5b506100ed61016d565b005b3480156100fa575f80fd5b5060035461010e906001600160a01b031681565b6040516001600160a01b0390911681526020016100d0565b6100ed61027b565b348015610139575f80fd5b50335f908152602081905260409020546100c6565b348015610159575f80fd5b5060025461010e906001600160a01b031681565b6003546001600160a01b0316331461019857604051636db2465f60e01b815260040160405180910390fd5b6002546040516370a0823160e01b81523060048201526001600160a01b039091169063a9059cbb90339083906370a0823190602401602060405180830381865afa1580156101e8573d5f803e3d5ffd5b505050506040513d601f19601f8201168201806040525081019061020c9190610319565b6040516001600160e01b031960e085901b1681526001600160a01b03909216600483015260248201526044016020604051808303815f875af1158015610254573d5f803e3d5ffd5b505050506040513d601f19601f820116820180604052508101906102789190610330565b50565b66038d7ea4c68000341061028d575f80fd5b335f90815260208190526040812080543492906102ab90849061034f565b90915550506003546001600160a01b03165f908152602081905260408082205433835291205411156102ea57600380546001600160a01b031916331790555b565b5f602082840312156102fc575f80fd5b81356001600160a01b0381168114610312575f80fd5b9392505050565b5f60208284031215610329575f80fd5b5051919050565b5f60208284031215610340575f80fd5b81518015158114610312575f80fd5b8082018082111561036e57634e487b7160e01b5f52601160045260245ffd5b9291505056fea164736f6c6343000819000a",
        "nonce": "0x134",
        "chainId": "0x3e9"
      },
      "additionalContracts": [],
      "isFixedGasLimit": false
    },
    {
      "hash": "0x80f404fad039ad4f07a377eb5fc5c378e445d545d19098551cd3aa7207e1479c",
      "transactionType": "CALL",
      "contractName": null,
      "contractAddress": "0x95ce14ee82410c4a7296205e0c663969703dc857",
      "function": "addTreasuryCastle(address)",
      "arguments": [
        "0x89917EFB5a75DA92618491Aa57E0a262F8dB2dad"
      ],
      "transaction": {
        "from": "0x6faff29226219756aa40ce648dbc65fb41de5f72",
        "to": "0x95ce14ee82410c4a7296205e0c663969703dc857",
        "gas": "0x1a8a4",
        "value": "0x0",
        "input": "0x8deee15700000000000000000000000089917efb5a75da92618491aa57e0a262f8db2dad",
        "nonce": "0x135",
        "chainId": "0x3e9"
      },
      "additionalContracts": [],
      "isFixedGasLimit": false
    },
    {
      "hash": "0x5e873844356d7194cd59d8de13c38393206bab43703abf3abf04b03b973854de",
      "transactionType": "CREATE",
      "contractName": "RaidTreasury",
      "contractAddress": "0xf10df82ff7b0e417e8318be7feaf4fabdaab8bb9",
      "function": null,
      "arguments": null,
      "transaction": {
        "from": "0x6faff29226219756aa40ce648dbc65fb41de5f72",
        "gas": "0xa4c0c",
        "value": "0x0",
        "input": "0x6080604052600180547332bf51fa408a0ee9b7a414c6a793760caf0861186001600160a01b031991821681179092556002805490911690911790553480156044575f80fd5b50600380546001600160a01b031916339081179091555f90815260208190526040902069021e19e0c9bab24000009055610381806100815f395ff3fe608060405260043610610057575f3560e01c80632d809cb61461009b5780633ccfd60b146100d95780638da5cb5b146100ef578063d7bb99ba14610126578063f10fdf5c1461012e578063fbec6f211461014e575f80fd5b36610097575f341180156100785750335f9081526020819052604090205415155b610080575f80fd5b600380546001600160a01b03191633908117909155005b5f80fd5b3480156100a6575f80fd5b506100c66100b53660046102ec565b5f6020819052908152604090205481565b6040519081526020015b60405180910390f35b3480156100e4575f80fd5b506100ed61016d565b005b3480156100fa575f80fd5b5060035461010e906001600160a01b031681565b6040516001600160a01b0390911681526020016100d0565b6100ed61027b565b348015610139575f80fd5b50335f908152602081905260409020546100c6565b348015610159575f80fd5b5060025461010e906001600160a01b031681565b6003546001600160a01b0316331461019857604051636db2465f60e01b815260040160405180910390fd5b6002546040516370a0823160e01b81523060048201526001600160a01b039091169063a9059cbb90339083906370a0823190602401602060405180830381865afa1580156101e8573d5f803e3d5ffd5b505050506040513d601f19601f8201168201806040525081019061020c9190610319565b6040516001600160e01b031960e085901b1681526001600160a01b03909216600483015260248201526044016020604051808303815f875af1158015610254573d5f803e3d5ffd5b505050506040513d601f19601f820116820180604052508101906102789190610330565b50565b66038d7ea4c68000341061028d575f80fd5b335f90815260208190526040812080543492906102ab90849061034f565b90915550506003546001600160a01b03165f908152602081905260408082205433835291205411156102ea57600380546001600160a01b031916331790555b565b5f602082840312156102fc575f80fd5b81356001600160a01b0381168114610312575f80fd5b9392505050565b5f60208284031215610329575f80fd5b5051919050565b5f60208284031215610340575f80fd5b81518015158114610312575f80fd5b8082018082111561036e57634e487b7160e01b5f52601160045260245ffd5b9291505056fea164736f6c6343000819000a",
        "nonce": "0x136",
        "chainId": "0x3e9"
      },
      "additionalContracts": [],
      "isFixedGasLimit": false
    },
    {
      "hash": "0x4da48938e086869ed2d6818b27c90a1d3bef4853e398e2ae740f5fc3cb30a5d8",
      "transactionType": "CALL",
      "contractName": null,
      "contractAddress": "0x95ce14ee82410c4a7296205e0c663969703dc857",
      "function": "addTreasuryCastle(address)",
      "arguments": [
        "0xF10dF82fF7b0e417e8318BE7feAF4fABdaAB8bb9"
      ],
      "transaction": {
        "from": "0x6faff29226219756aa40ce648dbc65fb41de5f72",
        "to": "0x95ce14ee82410c4a7296205e0c663969703dc857",
        "gas": "0x1a8a4",
        "value": "0x0",
        "input": "0x8deee157000000000000000000000000f10df82ff7b0e417e8318be7feaf4fabdaab8bb9",
        "nonce": "0x137",
        "chainId": "0x3e9"
      },
      "additionalContracts": [],
      "isFixedGasLimit": false
    },
    {
      "hash": "0xb53848ba4cf1b21ab0e89a747acf20b6b10a5bf92925d13c071b3cba7ae32fe7",
      "transactionType": "CREATE",
      "contractName": "RaidTreasury",
      "contractAddress": "0x23cfcef31a53c1f2b7bb49d5067635f168270fc0",
      "function": null,
      "arguments": null,
      "transaction": {
        "from": "0x6faff29226219756aa40ce648dbc65fb41de5f72",
        "gas": "0xa4c0c",
        "value": "0x0",
        "input": "0x6080604052600180547332bf51fa408a0ee9b7a414c6a793760caf0861186001600160a01b031991821681179092556002805490911690911790553480156044575f80fd5b50600380546001600160a01b031916339081179091555f90815260208190526040902069021e19e0c9bab24000009055610381806100815f395ff3fe608060405260043610610057575f3560e01c80632d809cb61461009b5780633ccfd60b146100d95780638da5cb5b146100ef578063d7bb99ba14610126578063f10fdf5c1461012e578063fbec6f211461014e575f80fd5b36610097575f341180156100785750335f9081526020819052604090205415155b610080575f80fd5b600380546001600160a01b03191633908117909155005b5f80fd5b3480156100a6575f80fd5b506100c66100b53660046102ec565b5f6020819052908152604090205481565b6040519081526020015b60405180910390f35b3480156100e4575f80fd5b506100ed61016d565b005b3480156100fa575f80fd5b5060035461010e906001600160a01b031681565b6040516001600160a01b0390911681526020016100d0565b6100ed61027b565b348015610139575f80fd5b50335f908152602081905260409020546100c6565b348015610159575f80fd5b5060025461010e906001600160a01b031681565b6003546001600160a01b0316331461019857604051636db2465f60e01b815260040160405180910390fd5b6002546040516370a0823160e01b81523060048201526001600160a01b039091169063a9059cbb90339083906370a0823190602401602060405180830381865afa1580156101e8573d5f803e3d5ffd5b505050506040513d601f19601f8201168201806040525081019061020c9190610319565b6040516001600160e01b031960e085901b1681526001600160a01b03909216600483015260248201526044016020604051808303815f875af1158015610254573d5f803e3d5ffd5b505050506040513d601f19601f820116820180604052508101906102789190610330565b50565b66038d7ea4c68000341061028d575f80fd5b335f90815260208190526040812080543492906102ab90849061034f565b90915550506003546001600160a01b03165f908152602081905260408082205433835291205411156102ea57600380546001600160a01b031916331790555b565b5f602082840312156102fc575f80fd5b81356001600160a01b0381168114610312575f80fd5b9392505050565b5f60208284031215610329575f80fd5b5051919050565b5f60208284031215610340575f80fd5b81518015158114610312575f80fd5b8082018082111561036e57634e487b7160e01b5f52601160045260245ffd5b9291505056fea164736f6c6343000819000a",
        "nonce": "0x138",
        "chainId": "0x3e9"
      },
      "additionalContracts": [],
      "isFixedGasLimit": false
    },
    {
      "hash": "0xbc604c37846a15399b534590cfef2e20ac6de7cddba016c80243331d76890f77",
      "transactionType": "CALL",
      "contractName": null,
      "contractAddress": "0x95ce14ee82410c4a7296205e0c663969703dc857",
      "function": "addTreasuryCastle(address)",
      "arguments": [
        "0x23CFcEF31a53C1F2B7bB49D5067635f168270FC0"
      ],
      "transaction": {
        "from": "0x6faff29226219756aa40ce648dbc65fb41de5f72",
        "to": "0x95ce14ee82410c4a7296205e0c663969703dc857",
        "gas": "0x1a8a4",
        "value": "0x0",
        "input": "0x8deee15700000000000000000000000023cfcef31a53c1f2b7bb49d5067635f168270fc0",
        "nonce": "0x139",
        "chainId": "0x3e9"
      },
      "additionalContracts": [],
      "isFixedGasLimit": false
    },
    {
      "hash": "0x909d936aafded15352938ee2a756fa3bc7614e5d7af8a4c35fbed2fb18f71fd5",
      "transactionType": "CREATE",
      "contractName": "RaidTreasury",
      "contractAddress": "0x449b9b967d9cd46c0b39890670ce0ab48c56a304",
      "function": null,
      "arguments": null,
      "transaction": {
        "from": "0x6faff29226219756aa40ce648dbc65fb41de5f72",
        "gas": "0xa4c0c",
        "value": "0x0",
        "input": "0x6080604052600180547332bf51fa408a0ee9b7a414c6a793760caf0861186001600160a01b031991821681179092556002805490911690911790553480156044575f80fd5b50600380546001600160a01b031916339081179091555f90815260208190526040902069021e19e0c9bab24000009055610381806100815f395ff3fe608060405260043610610057575f3560e01c80632d809cb61461009b5780633ccfd60b146100d95780638da5cb5b146100ef578063d7bb99ba14610126578063f10fdf5c1461012e578063fbec6f211461014e575f80fd5b36610097575f341180156100785750335f9081526020819052604090205415155b610080575f80fd5b600380546001600160a01b03191633908117909155005b5f80fd5b3480156100a6575f80fd5b506100c66100b53660046102ec565b5f6020819052908152604090205481565b6040519081526020015b60405180910390f35b3480156100e4575f80fd5b506100ed61016d565b005b3480156100fa575f80fd5b5060035461010e906001600160a01b031681565b6040516001600160a01b0390911681526020016100d0565b6100ed61027b565b348015610139575f80fd5b50335f908152602081905260409020546100c6565b348015610159575f80fd5b5060025461010e906001600160a01b031681565b6003546001600160a01b0316331461019857604051636db2465f60e01b815260040160405180910390fd5b6002546040516370a0823160e01b81523060048201526001600160a01b039091169063a9059cbb90339083906370a0823190602401602060405180830381865afa1580156101e8573d5f803e3d5ffd5b505050506040513d601f19601f8201168201806040525081019061020c9190610319565b6040516001600160e01b031960e085901b1681526001600160a01b03909216600483015260248201526044016020604051808303815f875af1158015610254573d5f803e3d5ffd5b505050506040513d601f19601f820116820180604052508101906102789190610330565b50565b66038d7ea4c68000341061028d575f80fd5b335f90815260208190526040812080543492906102ab90849061034f565b90915550506003546001600160a01b03165f908152602081905260408082205433835291205411156102ea57600380546001600160a01b031916331790555b565b5f602082840312156102fc575f80fd5b81356001600160a01b0381168114610312575f80fd5b9392505050565b5f60208284031215610329575f80fd5b5051919050565b5f60208284031215610340575f80fd5b81518015158114610312575f80fd5b8082018082111561036e57634e487b7160e01b5f52601160045260245ffd5b9291505056fea164736f6c6343000819000a",
        "nonce": "0x13a",
        "chainId": "0x3e9"
      },
      "additionalContracts": [],
      "isFixedGasLimit": false
    },
    {
      "hash": "0x2623736548453e4a9895321a535578e0ac7f8cd6418ceff58f9bd09f3baf5a4b",
      "transactionType": "CALL",
      "contractName": null,
      "contractAddress": "0x95ce14ee82410c4a7296205e0c663969703dc857",
      "function": "addTreasuryCastle(address)",
      "arguments": [
        "0x449B9b967d9cD46c0b39890670ce0ab48C56A304"
      ],
      "transaction": {
        "from": "0x6faff29226219756aa40ce648dbc65fb41de5f72",
        "to": "0x95ce14ee82410c4a7296205e0c663969703dc857",
        "gas": "0x1a8a4",
        "value": "0x0",
        "input": "0x8deee157000000000000000000000000449b9b967d9cd46c0b39890670ce0ab48c56a304",
        "nonce": "0x13b",
        "chainId": "0x3e9"
      },
      "additionalContracts": [],
      "isFixedGasLimit": false
    },
    {
      "hash": "0xba1f89b4dc32e802c5056617022765ad901ae029112208a845f31e2c68320f9b",
      "transactionType": "CREATE",
      "contractName": "RaidTreasury",
      "contractAddress": "0x74ad4222a0ec24a1b2b00f1bbabcb3910e7f2adb",
      "function": null,
      "arguments": null,
      "transaction": {
        "from": "0x6faff29226219756aa40ce648dbc65fb41de5f72",
        "gas": "0xa4c0c",
        "value": "0x0",
        "input": "0x6080604052600180547332bf51fa408a0ee9b7a414c6a793760caf0861186001600160a01b031991821681179092556002805490911690911790553480156044575f80fd5b50600380546001600160a01b031916339081179091555f90815260208190526040902069021e19e0c9bab24000009055610381806100815f395ff3fe608060405260043610610057575f3560e01c80632d809cb61461009b5780633ccfd60b146100d95780638da5cb5b146100ef578063d7bb99ba14610126578063f10fdf5c1461012e578063fbec6f211461014e575f80fd5b36610097575f341180156100785750335f9081526020819052604090205415155b610080575f80fd5b600380546001600160a01b03191633908117909155005b5f80fd5b3480156100a6575f80fd5b506100c66100b53660046102ec565b5f6020819052908152604090205481565b6040519081526020015b60405180910390f35b3480156100e4575f80fd5b506100ed61016d565b005b3480156100fa575f80fd5b5060035461010e906001600160a01b031681565b6040516001600160a01b0390911681526020016100d0565b6100ed61027b565b348015610139575f80fd5b50335f908152602081905260409020546100c6565b348015610159575f80fd5b5060025461010e906001600160a01b031681565b6003546001600160a01b0316331461019857604051636db2465f60e01b815260040160405180910390fd5b6002546040516370a0823160e01b81523060048201526001600160a01b039091169063a9059cbb90339083906370a0823190602401602060405180830381865afa1580156101e8573d5f803e3d5ffd5b505050506040513d601f19601f8201168201806040525081019061020c9190610319565b6040516001600160e01b031960e085901b1681526001600160a01b03909216600483015260248201526044016020604051808303815f875af1158015610254573d5f803e3d5ffd5b505050506040513d601f19601f820116820180604052508101906102789190610330565b50565b66038d7ea4c68000341061028d575f80fd5b335f90815260208190526040812080543492906102ab90849061034f565b90915550506003546001600160a01b03165f908152602081905260408082205433835291205411156102ea57600380546001600160a01b031916331790555b565b5f602082840312156102fc575f80fd5b81356001600160a01b0381168114610312575f80fd5b9392505050565b5f60208284031215610329575f80fd5b5051919050565b5f60208284031215610340575f80fd5b81518015158114610312575f80fd5b8082018082111561036e57634e487b7160e01b5f52601160045260245ffd5b9291505056fea164736f6c6343000819000a",
        "nonce": "0x13c",
        "chainId": "0x3e9"
      },
      "additionalContracts": [],
      "isFixedGasLimit": false
    },
    {
      "hash": "0xc851e9fa3ab9ef64e466d10e2f9ac0d0237ff7ff22778799621c1e6963078e65",
      "transactionType": "CALL",
      "contractName": null,
      "contractAddress": "0x95ce14ee82410c4a7296205e0c663969703dc857",
      "function": "addTreasuryCastle(address)",
      "arguments": [
        "0x74AD4222A0Ec24a1B2B00F1BBaBcb3910E7F2Adb"
      ],
      "transaction": {
        "from": "0x6faff29226219756aa40ce648dbc65fb41de5f72",
        "to": "0x95ce14ee82410c4a7296205e0c663969703dc857",
        "gas": "0x1a8a4",
        "value": "0x0",
        "input": "0x8deee15700000000000000000000000074ad4222a0ec24a1b2b00f1bbabcb3910e7f2adb",
        "nonce": "0x13d",
        "chainId": "0x3e9"
      },
      "additionalContracts": [],
      "isFixedGasLimit": false
    },
    {
      "hash": "0x75a788d82a0386911485c0e5e8aacfc8e3eaae4cbf1b2559a0e03e1085fdde0c",
      "transactionType": "CREATE",
      "contractName": "RaidTreasury",
      "contractAddress": "0x5db27fe3ccd7a8cf21845283bef6943605d15f3f",
      "function": null,
      "arguments": null,
      "transaction": {
        "from": "0x6faff29226219756aa40ce648dbc65fb41de5f72",
        "gas": "0xa4c0c",
        "value": "0x0",
        "input": "0x6080604052600180547332bf51fa408a0ee9b7a414c6a793760caf0861186001600160a01b031991821681179092556002805490911690911790553480156044575f80fd5b50600380546001600160a01b031916339081179091555f90815260208190526040902069021e19e0c9bab24000009055610381806100815f395ff3fe608060405260043610610057575f3560e01c80632d809cb61461009b5780633ccfd60b146100d95780638da5cb5b146100ef578063d7bb99ba14610126578063f10fdf5c1461012e578063fbec6f211461014e575f80fd5b36610097575f341180156100785750335f9081526020819052604090205415155b610080575f80fd5b600380546001600160a01b03191633908117909155005b5f80fd5b3480156100a6575f80fd5b506100c66100b53660046102ec565b5f6020819052908152604090205481565b6040519081526020015b60405180910390f35b3480156100e4575f80fd5b506100ed61016d565b005b3480156100fa575f80fd5b5060035461010e906001600160a01b031681565b6040516001600160a01b0390911681526020016100d0565b6100ed61027b565b348015610139575f80fd5b50335f908152602081905260409020546100c6565b348015610159575f80fd5b5060025461010e906001600160a01b031681565b6003546001600160a01b0316331461019857604051636db2465f60e01b815260040160405180910390fd5b6002546040516370a0823160e01b81523060048201526001600160a01b039091169063a9059cbb90339083906370a0823190602401602060405180830381865afa1580156101e8573d5f803e3d5ffd5b505050506040513d601f19601f8201168201806040525081019061020c9190610319565b6040516001600160e01b031960e085901b1681526001600160a01b03909216600483015260248201526044016020604051808303815f875af1158015610254573d5f803e3d5ffd5b505050506040513d601f19601f820116820180604052508101906102789190610330565b50565b66038d7ea4c68000341061028d575f80fd5b335f90815260208190526040812080543492906102ab90849061034f565b90915550506003546001600160a01b03165f908152602081905260408082205433835291205411156102ea57600380546001600160a01b031916331790555b565b5f602082840312156102fc575f80fd5b81356001600160a01b0381168114610312575f80fd5b9392505050565b5f60208284031215610329575f80fd5b5051919050565b5f60208284031215610340575f80fd5b81518015158114610312575f80fd5b8082018082111561036e57634e487b7160e01b5f52601160045260245ffd5b9291505056fea164736f6c6343000819000a",
        "nonce": "0x13e",
        "chainId": "0x3e9"
      },
      "additionalContracts": [],
      "isFixedGasLimit": false
    },
    {
      "hash": "0x73f865f33bfb8ea63ea9fb29beee3cfddbf50f6e7fa0e2087c8f0ea5a0026cd1",
      "transactionType": "CALL",
      "contractName": null,
      "contractAddress": "0x95ce14ee82410c4a7296205e0c663969703dc857",
      "function": "addTreasuryCastle(address)",
      "arguments": [
        "0x5Db27FE3ccD7a8cf21845283BeF6943605d15f3F"
      ],
      "transaction": {
        "from": "0x6faff29226219756aa40ce648dbc65fb41de5f72",
        "to": "0x95ce14ee82410c4a7296205e0c663969703dc857",
        "gas": "0x1a8a4",
        "value": "0x0",
        "input": "0x8deee1570000000000000000000000005db27fe3ccd7a8cf21845283bef6943605d15f3f",
        "nonce": "0x13f",
        "chainId": "0x3e9"
      },
      "additionalContracts": [],
      "isFixedGasLimit": false
    },
    {
      "hash": "0xb1637469eb2e50edddff045d1f5c745300f36535c169f3e402f0197cf0bd80d7",
      "transactionType": "CREATE",
      "contractName": "RaidTreasury",
      "contractAddress": "0x7c3e85650946ac1951cd1b69bc9263cfe0677667",
      "function": null,
      "arguments": null,
      "transaction": {
        "from": "0x6faff29226219756aa40ce648dbc65fb41de5f72",
        "gas": "0xa4c0c",
        "value": "0x0",
        "input": "0x6080604052600180547332bf51fa408a0ee9b7a414c6a793760caf0861186001600160a01b031991821681179092556002805490911690911790553480156044575f80fd5b50600380546001600160a01b031916339081179091555f90815260208190526040902069021e19e0c9bab24000009055610381806100815f395ff3fe608060405260043610610057575f3560e01c80632d809cb61461009b5780633ccfd60b146100d95780638da5cb5b146100ef578063d7bb99ba14610126578063f10fdf5c1461012e578063fbec6f211461014e575f80fd5b36610097575f341180156100785750335f9081526020819052604090205415155b610080575f80fd5b600380546001600160a01b03191633908117909155005b5f80fd5b3480156100a6575f80fd5b506100c66100b53660046102ec565b5f6020819052908152604090205481565b6040519081526020015b60405180910390f35b3480156100e4575f80fd5b506100ed61016d565b005b3480156100fa575f80fd5b5060035461010e906001600160a01b031681565b6040516001600160a01b0390911681526020016100d0565b6100ed61027b565b348015610139575f80fd5b50335f908152602081905260409020546100c6565b348015610159575f80fd5b5060025461010e906001600160a01b031681565b6003546001600160a01b0316331461019857604051636db2465f60e01b815260040160405180910390fd5b6002546040516370a0823160e01b81523060048201526001600160a01b039091169063a9059cbb90339083906370a0823190602401602060405180830381865afa1580156101e8573d5f803e3d5ffd5b505050506040513d601f19601f8201168201806040525081019061020c9190610319565b6040516001600160e01b031960e085901b1681526001600160a01b03909216600483015260248201526044016020604051808303815f875af1158015610254573d5f803e3d5ffd5b505050506040513d601f19601f820116820180604052508101906102789190610330565b50565b66038d7ea4c68000341061028d575f80fd5b335f90815260208190526040812080543492906102ab90849061034f565b90915550506003546001600160a01b03165f908152602081905260408082205433835291205411156102ea57600380546001600160a01b031916331790555b565b5f602082840312156102fc575f80fd5b81356001600160a01b0381168114610312575f80fd5b9392505050565b5f60208284031215610329575f80fd5b5051919050565b5f60208284031215610340575f80fd5b81518015158114610312575f80fd5b8082018082111561036e57634e487b7160e01b5f52601160045260245ffd5b9291505056fea164736f6c6343000819000a",
        "nonce": "0x140",
        "chainId": "0x3e9"
      },
      "additionalContracts": [],
      "isFixedGasLimit": false
    },
    {
      "hash": "0x1a54f84c91a0fe981818595de7637d865dae53fc517156057d558a4e860ae28a",
      "transactionType": "CALL",
      "contractName": null,
      "contractAddress": "0x95ce14ee82410c4a7296205e0c663969703dc857",
      "function": "addTreasuryCastle(address)",
      "arguments": [
        "0x7C3e85650946aC1951Cd1b69Bc9263Cfe0677667"
      ],
      "transaction": {
        "from": "0x6faff29226219756aa40ce648dbc65fb41de5f72",
        "to": "0x95ce14ee82410c4a7296205e0c663969703dc857",
        "gas": "0x1a8a4",
        "value": "0x0",
        "input": "0x8deee1570000000000000000000000007c3e85650946ac1951cd1b69bc9263cfe0677667",
        "nonce": "0x141",
        "chainId": "0x3e9"
      },
      "additionalContracts": [],
      "isFixedGasLimit": false
    },
    {
      "hash": "0x6cac0659b5b6044511fbaead41d6039c83cb16eba514431194d10d21acf5bcd3",
      "transactionType": "CREATE",
      "contractName": "RaidTreasury",
      "contractAddress": "0x7fb875063b134658a1c1e012a80a3f537e38ba52",
      "function": null,
      "arguments": null,
      "transaction": {
        "from": "0x6faff29226219756aa40ce648dbc65fb41de5f72",
        "gas": "0xa4c0c",
        "value": "0x0",
        "input": "0x6080604052600180547332bf51fa408a0ee9b7a414c6a793760caf0861186001600160a01b031991821681179092556002805490911690911790553480156044575f80fd5b50600380546001600160a01b031916339081179091555f90815260208190526040902069021e19e0c9bab24000009055610381806100815f395ff3fe608060405260043610610057575f3560e01c80632d809cb61461009b5780633ccfd60b146100d95780638da5cb5b146100ef578063d7bb99ba14610126578063f10fdf5c1461012e578063fbec6f211461014e575f80fd5b36610097575f341180156100785750335f9081526020819052604090205415155b610080575f80fd5b600380546001600160a01b03191633908117909155005b5f80fd5b3480156100a6575f80fd5b506100c66100b53660046102ec565b5f6020819052908152604090205481565b6040519081526020015b60405180910390f35b3480156100e4575f80fd5b506100ed61016d565b005b3480156100fa575f80fd5b5060035461010e906001600160a01b031681565b6040516001600160a01b0390911681526020016100d0565b6100ed61027b565b348015610139575f80fd5b50335f908152602081905260409020546100c6565b348015610159575f80fd5b5060025461010e906001600160a01b031681565b6003546001600160a01b0316331461019857604051636db2465f60e01b815260040160405180910390fd5b6002546040516370a0823160e01b81523060048201526001600160a01b039091169063a9059cbb90339083906370a0823190602401602060405180830381865afa1580156101e8573d5f803e3d5ffd5b505050506040513d601f19601f8201168201806040525081019061020c9190610319565b6040516001600160e01b031960e085901b1681526001600160a01b03909216600483015260248201526044016020604051808303815f875af1158015610254573d5f803e3d5ffd5b505050506040513d601f19601f820116820180604052508101906102789190610330565b50565b66038d7ea4c68000341061028d575f80fd5b335f90815260208190526040812080543492906102ab90849061034f565b90915550506003546001600160a01b03165f908152602081905260408082205433835291205411156102ea57600380546001600160a01b031916331790555b565b5f602082840312156102fc575f80fd5b81356001600160a01b0381168114610312575f80fd5b9392505050565b5f60208284031215610329575f80fd5b5051919050565b5f60208284031215610340575f80fd5b81518015158114610312575f80fd5b8082018082111561036e57634e487b7160e01b5f52601160045260245ffd5b9291505056fea164736f6c6343000819000a",
        "nonce": "0x142",
        "chainId": "0x3e9"
      },
      "additionalContracts": [],
      "isFixedGasLimit": false
    },
    {
      "hash": "0x3c468a209d559c54b89062549146dd74069cb751181bc52cb9459fbdeb807c3a",
      "transactionType": "CALL",
      "contractName": null,
      "contractAddress": "0x95ce14ee82410c4a7296205e0c663969703dc857",
      "function": "addTreasuryCastle(address)",
      "arguments": [
        "0x7Fb875063B134658A1C1E012A80a3f537E38BA52"
      ],
      "transaction": {
        "from": "0x6faff29226219756aa40ce648dbc65fb41de5f72",
        "to": "0x95ce14ee82410c4a7296205e0c663969703dc857",
        "gas": "0x1a8a4",
        "value": "0x0",
        "input": "0x8deee1570000000000000000000000007fb875063b134658a1c1e012a80a3f537e38ba52",
        "nonce": "0x143",
        "chainId": "0x3e9"
      },
      "additionalContracts": [],
      "isFixedGasLimit": false
    }
  ],
  "receipts": [
    {
      "status": "0x1",
      "cumulativeGasUsed": "0x677ce",
      "logs": [],
      "logsBloom": "0x00000000000000000000000000000000000000000000000000000000000000000000000000000000000000000000000000000000000000000000000000000000000000000000000000000000000000000000000000000000000000000000000000000000000000000000000000000000000000000000000000000000000000000000000000000000000000000000000000000000000000000000000000000000000000000000000000000000000000000000000000000000000000000000000000000000000000000000000000000000000000000000000000000000000000000000000000000000000000000000000000000000000000000000000000000000",
      "type": "0x2",
      "transactionHash": "0x6e840ade8cb8fda7492aafb0704ae1a420d58db7238c3739be0b4ddb04778239",
      "transactionIndex": "0x0",
      "blockHash": "0x32e72409c6ce53538e0b4cce261b04037a64c77450d77810aab4ae4f8d0e9f3c",
      "blockNumber": "0x9bb14f8",
      "gasUsed": "0x677ce",
      "effectiveGasPrice": "0x7aef40a00",
      "from": "0x6faff29226219756aa40ce648dbc65fb41de5f72",
      "to": null,
      "contractAddress": "0x4f0ea71a55e9668de8fd1b368dad08450467b611"
    },
    {
      "status": "0x1",
      "cumulativeGasUsed": "0x78ecf",
      "logs": [],
      "logsBloom": "0x00000000000000000000000000000000000000000000000000000000000000000000000000000000000000000000000000000000000000000000000000000000000000000000000000000000000000000000000000000000000000000000000000000000000000000000000000000000000000000000000000000000000000000000000000000000000000000000000000000000000000000000000000000000000000000000000000000000000000000000000000000000000000000000000000000000000000000000000000000000000000000000000000000000000000000000000000000000000000000000000000000000000000000000000000000000",
      "type": "0x2",
      "transactionHash": "0xaf816c8bfbfec521916ef9e0be275db8dd51e6486345555edc4be1cfcd76ebab",
      "transactionIndex": "0x1",
      "blockHash": "0x32e72409c6ce53538e0b4cce261b04037a64c77450d77810aab4ae4f8d0e9f3c",
      "blockNumber": "0x9bb14f8",
      "gasUsed": "0x11701",
      "effectiveGasPrice": "0x7aef40a00",
      "from": "0x6faff29226219756aa40ce648dbc65fb41de5f72",
      "to": "0x95ce14ee82410c4a7296205e0c663969703dc857",
      "contractAddress": null
    },
    {
      "status": "0x1",
      "cumulativeGasUsed": "0xe069d",
      "logs": [],
      "logsBloom": "0x00000000000000000000000000000000000000000000000000000000000000000000000000000000000000000000000000000000000000000000000000000000000000000000000000000000000000000000000000000000000000000000000000000000000000000000000000000000000000000000000000000000000000000000000000000000000000000000000000000000000000000000000000000000000000000000000000000000000000000000000000000000000000000000000000000000000000000000000000000000000000000000000000000000000000000000000000000000000000000000000000000000000000000000000000000000",
      "type": "0x2",
      "transactionHash": "0xb43549908a56d1181ce76ee73494de8876ea777e90c45517fae278329651fdfb",
      "transactionIndex": "0x2",
      "blockHash": "0x32e72409c6ce53538e0b4cce261b04037a64c77450d77810aab4ae4f8d0e9f3c",
      "blockNumber": "0x9bb14f8",
      "gasUsed": "0x677ce",
      "effectiveGasPrice": "0x7aef40a00",
      "from": "0x6faff29226219756aa40ce648dbc65fb41de5f72",
      "to": null,
      "contractAddress": "0xce47d79489ae373b36b65afab9304b960ffac6a4"
    },
    {
      "status": "0x1",
      "cumulativeGasUsed": "0xedad2",
      "logs": [],
      "logsBloom": "0x00000000000000000000000000000000000000000000000000000000000000000000000000000000000000000000000000000000000000000000000000000000000000000000000000000000000000000000000000000000000000000000000000000000000000000000000000000000000000000000000000000000000000000000000000000000000000000000000000000000000000000000000000000000000000000000000000000000000000000000000000000000000000000000000000000000000000000000000000000000000000000000000000000000000000000000000000000000000000000000000000000000000000000000000000000000",
      "type": "0x2",
      "transactionHash": "0x8abf89b4fcc08c37b4dbb34fb34151e95862bf8f76e9191b14f28352629527a5",
      "transactionIndex": "0x3",
      "blockHash": "0x32e72409c6ce53538e0b4cce261b04037a64c77450d77810aab4ae4f8d0e9f3c",
      "blockNumber": "0x9bb14f8",
      "gasUsed": "0xd435",
      "effectiveGasPrice": "0x7aef40a00",
      "from": "0x6faff29226219756aa40ce648dbc65fb41de5f72",
      "to": "0x95ce14ee82410c4a7296205e0c663969703dc857",
      "contractAddress": null
    },
    {
      "status": "0x1",
      "cumulativeGasUsed": "0x1552a0",
      "logs": [],
      "logsBloom": "0x00000000000000000000000000000000000000000000000000000000000000000000000000000000000000000000000000000000000000000000000000000000000000000000000000000000000000000000000000000000000000000000000000000000000000000000000000000000000000000000000000000000000000000000000000000000000000000000000000000000000000000000000000000000000000000000000000000000000000000000000000000000000000000000000000000000000000000000000000000000000000000000000000000000000000000000000000000000000000000000000000000000000000000000000000000000",
      "type": "0x2",
      "transactionHash": "0xa82842c56c62cff1673cdbbca43ff4f641c8a33ce212ee35886ced359dae28bf",
      "transactionIndex": "0x4",
      "blockHash": "0x32e72409c6ce53538e0b4cce261b04037a64c77450d77810aab4ae4f8d0e9f3c",
      "blockNumber": "0x9bb14f8",
      "gasUsed": "0x677ce",
      "effectiveGasPrice": "0x7aef40a00",
      "from": "0x6faff29226219756aa40ce648dbc65fb41de5f72",
      "to": null,
      "contractAddress": "0x0f2ff5784b874db6d16314085165f37375d0fbe9"
    },
    {
      "status": "0x1",
      "cumulativeGasUsed": "0x1626d5",
      "logs": [],
      "logsBloom": "0x00000000000000000000000000000000000000000000000000000000000000000000000000000000000000000000000000000000000000000000000000000000000000000000000000000000000000000000000000000000000000000000000000000000000000000000000000000000000000000000000000000000000000000000000000000000000000000000000000000000000000000000000000000000000000000000000000000000000000000000000000000000000000000000000000000000000000000000000000000000000000000000000000000000000000000000000000000000000000000000000000000000000000000000000000000000",
      "type": "0x2",
      "transactionHash": "0x2d82474668740e32f0ee92919b1fa6da5a81256afa4a0145d356d374dfdcf16e",
      "transactionIndex": "0x5",
      "blockHash": "0x32e72409c6ce53538e0b4cce261b04037a64c77450d77810aab4ae4f8d0e9f3c",
      "blockNumber": "0x9bb14f8",
      "gasUsed": "0xd435",
      "effectiveGasPrice": "0x7aef40a00",
      "from": "0x6faff29226219756aa40ce648dbc65fb41de5f72",
      "to": "0x95ce14ee82410c4a7296205e0c663969703dc857",
      "contractAddress": null
    },
    {
      "status": "0x1",
      "cumulativeGasUsed": "0x1c9ea3",
      "logs": [],
      "logsBloom": "0x00000000000000000000000000000000000000000000000000000000000000000000000000000000000000000000000000000000000000000000000000000000000000000000000000000000000000000000000000000000000000000000000000000000000000000000000000000000000000000000000000000000000000000000000000000000000000000000000000000000000000000000000000000000000000000000000000000000000000000000000000000000000000000000000000000000000000000000000000000000000000000000000000000000000000000000000000000000000000000000000000000000000000000000000000000000",
      "type": "0x2",
      "transactionHash": "0xedff08dc8ffb65726e335a944491f553d0506bbf1ae207e789b4478443b6e9d6",
      "transactionIndex": "0x6",
      "blockHash": "0x32e72409c6ce53538e0b4cce261b04037a64c77450d77810aab4ae4f8d0e9f3c",
      "blockNumber": "0x9bb14f8",
      "gasUsed": "0x677ce",
      "effectiveGasPrice": "0x7aef40a00",
      "from": "0x6faff29226219756aa40ce648dbc65fb41de5f72",
      "to": null,
      "contractAddress": "0x60595198b3d0340f0d441133e4d4650cec1b7cee"
    },
    {
      "status": "0x1",
      "cumulativeGasUsed": "0x1d72d8",
      "logs": [],
      "logsBloom": "0x00000000000000000000000000000000000000000000000000000000000000000000000000000000000000000000000000000000000000000000000000000000000000000000000000000000000000000000000000000000000000000000000000000000000000000000000000000000000000000000000000000000000000000000000000000000000000000000000000000000000000000000000000000000000000000000000000000000000000000000000000000000000000000000000000000000000000000000000000000000000000000000000000000000000000000000000000000000000000000000000000000000000000000000000000000000",
      "type": "0x2",
      "transactionHash": "0x55a8ea904909ea21a75e4cb8f4a2243304bede0c8addfd74451c22f2e887b413",
      "transactionIndex": "0x7",
      "blockHash": "0x32e72409c6ce53538e0b4cce261b04037a64c77450d77810aab4ae4f8d0e9f3c",
      "blockNumber": "0x9bb14f8",
      "gasUsed": "0xd435",
      "effectiveGasPrice": "0x7aef40a00",
      "from": "0x6faff29226219756aa40ce648dbc65fb41de5f72",
      "to": "0x95ce14ee82410c4a7296205e0c663969703dc857",
      "contractAddress": null
    },
    {
      "status": "0x1",
      "cumulativeGasUsed": "0x23eaa6",
      "logs": [],
      "logsBloom": "0x00000000000000000000000000000000000000000000000000000000000000000000000000000000000000000000000000000000000000000000000000000000000000000000000000000000000000000000000000000000000000000000000000000000000000000000000000000000000000000000000000000000000000000000000000000000000000000000000000000000000000000000000000000000000000000000000000000000000000000000000000000000000000000000000000000000000000000000000000000000000000000000000000000000000000000000000000000000000000000000000000000000000000000000000000000000",
      "type": "0x2",
      "transactionHash": "0x2a62c0a3c39cec86bc1ea0ab38b7d1de6fd21eeff5e0cde22b3ad35683cbb35e",
      "transactionIndex": "0x8",
      "blockHash": "0x32e72409c6ce53538e0b4cce261b04037a64c77450d77810aab4ae4f8d0e9f3c",
      "blockNumber": "0x9bb14f8",
      "gasUsed": "0x677ce",
      "effectiveGasPrice": "0x7aef40a00",
      "from": "0x6faff29226219756aa40ce648dbc65fb41de5f72",
      "to": null,
      "contractAddress": "0xbe59cf415a61903ad9f91be14078b9040f4bfccb"
    },
    {
      "status": "0x1",
      "cumulativeGasUsed": "0x24bedb",
      "logs": [],
      "logsBloom": "0x00000000000000000000000000000000000000000000000000000000000000000000000000000000000000000000000000000000000000000000000000000000000000000000000000000000000000000000000000000000000000000000000000000000000000000000000000000000000000000000000000000000000000000000000000000000000000000000000000000000000000000000000000000000000000000000000000000000000000000000000000000000000000000000000000000000000000000000000000000000000000000000000000000000000000000000000000000000000000000000000000000000000000000000000000000000",
      "type": "0x2",
      "transactionHash": "0x490d0620cf7c8590c95f2160301eeab98db4ae92b18c7d40a3facfec50aba064",
      "transactionIndex": "0x9",
      "blockHash": "0x32e72409c6ce53538e0b4cce261b04037a64c77450d77810aab4ae4f8d0e9f3c",
      "blockNumber": "0x9bb14f8",
      "gasUsed": "0xd435",
      "effectiveGasPrice": "0x7aef40a00",
      "from": "0x6faff29226219756aa40ce648dbc65fb41de5f72",
      "to": "0x95ce14ee82410c4a7296205e0c663969703dc857",
      "contractAddress": null
    },
    {
      "status": "0x1",
      "cumulativeGasUsed": "0x2b36a9",
      "logs": [],
      "logsBloom": "0x00000000000000000000000000000000000000000000000000000000000000000000000000000000000000000000000000000000000000000000000000000000000000000000000000000000000000000000000000000000000000000000000000000000000000000000000000000000000000000000000000000000000000000000000000000000000000000000000000000000000000000000000000000000000000000000000000000000000000000000000000000000000000000000000000000000000000000000000000000000000000000000000000000000000000000000000000000000000000000000000000000000000000000000000000000000",
      "type": "0x2",
      "transactionHash": "0xa7c944d6a3745c57f29fb8418322f9c9d14a091930d5e9b1cdf5086d780ec05b",
      "transactionIndex": "0xa",
      "blockHash": "0x32e72409c6ce53538e0b4cce261b04037a64c77450d77810aab4ae4f8d0e9f3c",
      "blockNumber": "0x9bb14f8",
      "gasUsed": "0x677ce",
      "effectiveGasPrice": "0x7aef40a00",
      "from": "0x6faff29226219756aa40ce648dbc65fb41de5f72",
      "to": null,
      "contractAddress": "0xa7ca377cf99149170ae872f263e0de2b1597471a"
    },
    {
      "status": "0x1",
      "cumulativeGasUsed": "0xd435",
      "logs": [],
      "logsBloom": "0x00000000000000000000000000000000000000000000000000000000000000000000000000000000000000000000000000000000000000000000000000000000000000000000000000000000000000000000000000000000000000000000000000000000000000000000000000000000000000000000000000000000000000000000000000000000000000000000000000000000000000000000000000000000000000000000000000000000000000000000000000000000000000000000000000000000000000000000000000000000000000000000000000000000000000000000000000000000000000000000000000000000000000000000000000000000",
      "type": "0x2",
      "transactionHash": "0x8abdb83b8290d3070349c948672369e117fecee52b76754dd0e9f53adbde6569",
      "transactionIndex": "0x0",
      "blockHash": "0xbfe407d72e7299c7a0823d387e001af88abd04ded4d5f917cc370b3a99cbcb48",
      "blockNumber": "0x9bb14f9",
      "gasUsed": "0xd435",
      "effectiveGasPrice": "0x7aef40a00",
      "from": "0x6faff29226219756aa40ce648dbc65fb41de5f72",
      "to": "0x95ce14ee82410c4a7296205e0c663969703dc857",
      "contractAddress": null
    },
    {
      "status": "0x1",
      "cumulativeGasUsed": "0x74c03",
      "logs": [],
      "logsBloom": "0x00000000000000000000000000000000000000000000000000000000000000000000000000000000000000000000000000000000000000000000000000000000000000000000000000000000000000000000000000000000000000000000000000000000000000000000000000000000000000000000000000000000000000000000000000000000000000000000000000000000000000000000000000000000000000000000000000000000000000000000000000000000000000000000000000000000000000000000000000000000000000000000000000000000000000000000000000000000000000000000000000000000000000000000000000000000",
      "type": "0x2",
      "transactionHash": "0x4a9a2c22df3e3fff3589cf6cc4c2203632b7f64f97e14e2cafd5d101a16305c6",
      "transactionIndex": "0x1",
      "blockHash": "0xbfe407d72e7299c7a0823d387e001af88abd04ded4d5f917cc370b3a99cbcb48",
      "blockNumber": "0x9bb14f9",
      "gasUsed": "0x677ce",
      "effectiveGasPrice": "0x7aef40a00",
      "from": "0x6faff29226219756aa40ce648dbc65fb41de5f72",
      "to": null,
      "contractAddress": "0x22b99ab80f12e88508d285756c8b4f94db54699a"
    },
    {
      "status": "0x1",
      "cumulativeGasUsed": "0x82038",
      "logs": [],
      "logsBloom": "0x00000000000000000000000000000000000000000000000000000000000000000000000000000000000000000000000000000000000000000000000000000000000000000000000000000000000000000000000000000000000000000000000000000000000000000000000000000000000000000000000000000000000000000000000000000000000000000000000000000000000000000000000000000000000000000000000000000000000000000000000000000000000000000000000000000000000000000000000000000000000000000000000000000000000000000000000000000000000000000000000000000000000000000000000000000000",
      "type": "0x2",
      "transactionHash": "0x22ec07c27646083e9c37d9dc17923e4d07a3cd428750f33391a0c47c275df4d0",
      "transactionIndex": "0x2",
      "blockHash": "0xbfe407d72e7299c7a0823d387e001af88abd04ded4d5f917cc370b3a99cbcb48",
      "blockNumber": "0x9bb14f9",
      "gasUsed": "0xd435",
      "effectiveGasPrice": "0x7aef40a00",
      "from": "0x6faff29226219756aa40ce648dbc65fb41de5f72",
      "to": "0x95ce14ee82410c4a7296205e0c663969703dc857",
      "contractAddress": null
    },
    {
      "status": "0x1",
      "cumulativeGasUsed": "0xe9806",
      "logs": [],
      "logsBloom": "0x00000000000000000000000000000000000000000000000000000000000000000000000000000000000000000000000000000000000000000000000000000000000000000000000000000000000000000000000000000000000000000000000000000000000000000000000000000000000000000000000000000000000000000000000000000000000000000000000000000000000000000000000000000000000000000000000000000000000000000000000000000000000000000000000000000000000000000000000000000000000000000000000000000000000000000000000000000000000000000000000000000000000000000000000000000000",
      "type": "0x2",
      "transactionHash": "0x7c610362aaf1cf99b318b9a2e379c250f56ad63a6f6e4f5124acc9e8d35a9f89",
      "transactionIndex": "0x3",
      "blockHash": "0xbfe407d72e7299c7a0823d387e001af88abd04ded4d5f917cc370b3a99cbcb48",
      "blockNumber": "0x9bb14f9",
      "gasUsed": "0x677ce",
      "effectiveGasPrice": "0x7aef40a00",
      "from": "0x6faff29226219756aa40ce648dbc65fb41de5f72",
      "to": null,
      "contractAddress": "0x4f158ca8ddd2eeaa39f612efa9b36e7be70030ba"
    },
    {
      "status": "0x1",
      "cumulativeGasUsed": "0xf6c3b",
      "logs": [],
      "logsBloom": "0x00000000000000000000000000000000000000000000000000000000000000000000000000000000000000000000000000000000000000000000000000000000000000000000000000000000000000000000000000000000000000000000000000000000000000000000000000000000000000000000000000000000000000000000000000000000000000000000000000000000000000000000000000000000000000000000000000000000000000000000000000000000000000000000000000000000000000000000000000000000000000000000000000000000000000000000000000000000000000000000000000000000000000000000000000000000",
      "type": "0x2",
      "transactionHash": "0x446f801971d95aff423aa80556253f12f10fa40a02d6affa58b3410dccec80d1",
      "transactionIndex": "0x4",
      "blockHash": "0xbfe407d72e7299c7a0823d387e001af88abd04ded4d5f917cc370b3a99cbcb48",
      "blockNumber": "0x9bb14f9",
      "gasUsed": "0xd435",
      "effectiveGasPrice": "0x7aef40a00",
      "from": "0x6faff29226219756aa40ce648dbc65fb41de5f72",
      "to": "0x95ce14ee82410c4a7296205e0c663969703dc857",
      "contractAddress": null
    },
    {
      "status": "0x1",
      "cumulativeGasUsed": "0x15e409",
      "logs": [],
      "logsBloom": "0x00000000000000000000000000000000000000000000000000000000000000000000000000000000000000000000000000000000000000000000000000000000000000000000000000000000000000000000000000000000000000000000000000000000000000000000000000000000000000000000000000000000000000000000000000000000000000000000000000000000000000000000000000000000000000000000000000000000000000000000000000000000000000000000000000000000000000000000000000000000000000000000000000000000000000000000000000000000000000000000000000000000000000000000000000000000",
      "type": "0x2",
      "transactionHash": "0x1b1bf772f2bc36ecfcb1908dfbc9827249c6cb4226b10e17e3340bcae41d31eb",
      "transactionIndex": "0x5",
      "blockHash": "0xbfe407d72e7299c7a0823d387e001af88abd04ded4d5f917cc370b3a99cbcb48",
      "blockNumber": "0x9bb14f9",
      "gasUsed": "0x677ce",
      "effectiveGasPrice": "0x7aef40a00",
      "from": "0x6faff29226219756aa40ce648dbc65fb41de5f72",
      "to": null,
      "contractAddress": "0xe26cd746f3966241228aaf184d651b07bc0664e4"
    },
    {
      "status": "0x1",
      "cumulativeGasUsed": "0x16b83e",
      "logs": [],
      "logsBloom": "0x00000000000000000000000000000000000000000000000000000000000000000000000000000000000000000000000000000000000000000000000000000000000000000000000000000000000000000000000000000000000000000000000000000000000000000000000000000000000000000000000000000000000000000000000000000000000000000000000000000000000000000000000000000000000000000000000000000000000000000000000000000000000000000000000000000000000000000000000000000000000000000000000000000000000000000000000000000000000000000000000000000000000000000000000000000000",
      "type": "0x2",
      "transactionHash": "0x10ca60755e4c89cdde6c8a36d32addf300821bc6c09f77fc93bf663db853e7e8",
      "transactionIndex": "0x6",
      "blockHash": "0xbfe407d72e7299c7a0823d387e001af88abd04ded4d5f917cc370b3a99cbcb48",
      "blockNumber": "0x9bb14f9",
      "gasUsed": "0xd435",
      "effectiveGasPrice": "0x7aef40a00",
      "from": "0x6faff29226219756aa40ce648dbc65fb41de5f72",
      "to": "0x95ce14ee82410c4a7296205e0c663969703dc857",
      "contractAddress": null
    },
    {
      "status": "0x1",
      "cumulativeGasUsed": "0x1d300c",
      "logs": [],
      "logsBloom": "0x00000000000000000000000000000000000000000000000000000000000000000000000000000000000000000000000000000000000000000000000000000000000000000000000000000000000000000000000000000000000000000000000000000000000000000000000000000000000000000000000000000000000000000000000000000000000000000000000000000000000000000000000000000000000000000000000000000000000000000000000000000000000000000000000000000000000000000000000000000000000000000000000000000000000000000000000000000000000000000000000000000000000000000000000000000000",
      "type": "0x2",
      "transactionHash": "0xa90b868585f5e28d7fce26f08d79fb20fca5cf2ed65d45269e76233ec13ed69d",
      "transactionIndex": "0x7",
      "blockHash": "0xbfe407d72e7299c7a0823d387e001af88abd04ded4d5f917cc370b3a99cbcb48",
      "blockNumber": "0x9bb14f9",
      "gasUsed": "0x677ce",
      "effectiveGasPrice": "0x7aef40a00",
      "from": "0x6faff29226219756aa40ce648dbc65fb41de5f72",
      "to": null,
      "contractAddress": "0x34cfc5d2ee8e7e7ddcd5f2f1aa807c03209d9b7f"
    },
    {
      "status": "0x1",
      "cumulativeGasUsed": "0x1e0441",
      "logs": [],
      "logsBloom": "0x00000000000000000000000000000000000000000000000000000000000000000000000000000000000000000000000000000000000000000000000000000000000000000000000000000000000000000000000000000000000000000000000000000000000000000000000000000000000000000000000000000000000000000000000000000000000000000000000000000000000000000000000000000000000000000000000000000000000000000000000000000000000000000000000000000000000000000000000000000000000000000000000000000000000000000000000000000000000000000000000000000000000000000000000000000000",
      "type": "0x2",
      "transactionHash": "0x98cf84fc52b89886425359c163399a3d26ebe6462db202c233566cb0b61aea6a",
      "transactionIndex": "0x8",
      "blockHash": "0xbfe407d72e7299c7a0823d387e001af88abd04ded4d5f917cc370b3a99cbcb48",
      "blockNumber": "0x9bb14f9",
      "gasUsed": "0xd435",
      "effectiveGasPrice": "0x7aef40a00",
      "from": "0x6faff29226219756aa40ce648dbc65fb41de5f72",
      "to": "0x95ce14ee82410c4a7296205e0c663969703dc857",
      "contractAddress": null
    },
    {
      "status": "0x1",
      "cumulativeGasUsed": "0x247c0f",
      "logs": [],
      "logsBloom": "0x00000000000000000000000000000000000000000000000000000000000000000000000000000000000000000000000000000000000000000000000000000000000000000000000000000000000000000000000000000000000000000000000000000000000000000000000000000000000000000000000000000000000000000000000000000000000000000000000000000000000000000000000000000000000000000000000000000000000000000000000000000000000000000000000000000000000000000000000000000000000000000000000000000000000000000000000000000000000000000000000000000000000000000000000000000000",
      "type": "0x2",
      "transactionHash": "0x806d4dc5a800cd3300676e2c68eaad847b0d6408d918299d79c17bcf45c81659",
      "transactionIndex": "0x9",
      "blockHash": "0xbfe407d72e7299c7a0823d387e001af88abd04ded4d5f917cc370b3a99cbcb48",
      "blockNumber": "0x9bb14f9",
      "gasUsed": "0x677ce",
      "effectiveGasPrice": "0x7aef40a00",
      "from": "0x6faff29226219756aa40ce648dbc65fb41de5f72",
      "to": null,
      "contractAddress": "0xd88d76829c0537f9d54c3d2be07842031c7b67af"
    },
    {
      "status": "0x1",
      "cumulativeGasUsed": "0xd435",
      "logs": [],
      "logsBloom": "0x00000000000000000000000000000000000000000000000000000000000000000000000000000000000000000000000000000000000000000000000000000000000000000000000000000000000000000000000000000000000000000000000000000000000000000000000000000000000000000000000000000000000000000000000000000000000000000000000000000000000000000000000000000000000000000000000000000000000000000000000000000000000000000000000000000000000000000000000000000000000000000000000000000000000000000000000000000000000000000000000000000000000000000000000000000000",
      "type": "0x2",
      "transactionHash": "0x4c8276eafb234aabe8785d52f4e91b4476c6d9289082e56c5f1d5464586f7852",
      "transactionIndex": "0x0",
      "blockHash": "0x1f3704ad2b8280762a377564458b6f6344fd12fa2ab5de3dd292ec3a3cb14258",
      "blockNumber": "0x9bb14fa",
      "gasUsed": "0xd435",
      "effectiveGasPrice": "0x7aef40a00",
      "from": "0x6faff29226219756aa40ce648dbc65fb41de5f72",
      "to": "0x95ce14ee82410c4a7296205e0c663969703dc857",
      "contractAddress": null
    },
    {
      "status": "0x1",
      "cumulativeGasUsed": "0x74c03",
      "logs": [],
      "logsBloom": "0x00000000000000000000000000000000000000000000000000000000000000000000000000000000000000000000000000000000000000000000000000000000000000000000000000000000000000000000000000000000000000000000000000000000000000000000000000000000000000000000000000000000000000000000000000000000000000000000000000000000000000000000000000000000000000000000000000000000000000000000000000000000000000000000000000000000000000000000000000000000000000000000000000000000000000000000000000000000000000000000000000000000000000000000000000000000",
      "type": "0x2",
      "transactionHash": "0xf758dcb5d584f2f571a79aaba1aa91b20a0e181ec6d7078b45d13e8151f4822f",
      "transactionIndex": "0x1",
      "blockHash": "0x1f3704ad2b8280762a377564458b6f6344fd12fa2ab5de3dd292ec3a3cb14258",
      "blockNumber": "0x9bb14fa",
      "gasUsed": "0x677ce",
      "effectiveGasPrice": "0x7aef40a00",
      "from": "0x6faff29226219756aa40ce648dbc65fb41de5f72",
      "to": null,
      "contractAddress": "0xc20fec9ed5bc0eb58a001d925a33da96c48b409a"
    },
    {
      "status": "0x1",
      "cumulativeGasUsed": "0x82038",
      "logs": [],
      "logsBloom": "0x00000000000000000000000000000000000000000000000000000000000000000000000000000000000000000000000000000000000000000000000000000000000000000000000000000000000000000000000000000000000000000000000000000000000000000000000000000000000000000000000000000000000000000000000000000000000000000000000000000000000000000000000000000000000000000000000000000000000000000000000000000000000000000000000000000000000000000000000000000000000000000000000000000000000000000000000000000000000000000000000000000000000000000000000000000000",
      "type": "0x2",
      "transactionHash": "0x828f61dd246a49e0ad4aa08f0eefcdba427fb639ce02def3c26ccded552353dc",
      "transactionIndex": "0x2",
      "blockHash": "0x1f3704ad2b8280762a377564458b6f6344fd12fa2ab5de3dd292ec3a3cb14258",
      "blockNumber": "0x9bb14fa",
      "gasUsed": "0xd435",
      "effectiveGasPrice": "0x7aef40a00",
      "from": "0x6faff29226219756aa40ce648dbc65fb41de5f72",
      "to": "0x95ce14ee82410c4a7296205e0c663969703dc857",
      "contractAddress": null
    },
    {
      "status": "0x1",
      "cumulativeGasUsed": "0xe9806",
      "logs": [],
      "logsBloom": "0x00000000000000000000000000000000000000000000000000000000000000000000000000000000000000000000000000000000000000000000000000000000000000000000000000000000000000000000000000000000000000000000000000000000000000000000000000000000000000000000000000000000000000000000000000000000000000000000000000000000000000000000000000000000000000000000000000000000000000000000000000000000000000000000000000000000000000000000000000000000000000000000000000000000000000000000000000000000000000000000000000000000000000000000000000000000",
      "type": "0x2",
      "transactionHash": "0x0dbe823f73007ba60c128467e1e66414eaa387e0c6a39acb916acf5ce3cafaa6",
      "transactionIndex": "0x3",
      "blockHash": "0x1f3704ad2b8280762a377564458b6f6344fd12fa2ab5de3dd292ec3a3cb14258",
      "blockNumber": "0x9bb14fa",
      "gasUsed": "0x677ce",
      "effectiveGasPrice": "0x7aef40a00",
      "from": "0x6faff29226219756aa40ce648dbc65fb41de5f72",
      "to": null,
      "contractAddress": "0x89917efb5a75da92618491aa57e0a262f8db2dad"
    },
    {
      "status": "0x1",
      "cumulativeGasUsed": "0xf6c3b",
      "logs": [],
      "logsBloom": "0x00000000000000000000000000000000000000000000000000000000000000000000000000000000000000000000000000000000000000000000000000000000000000000000000000000000000000000000000000000000000000000000000000000000000000000000000000000000000000000000000000000000000000000000000000000000000000000000000000000000000000000000000000000000000000000000000000000000000000000000000000000000000000000000000000000000000000000000000000000000000000000000000000000000000000000000000000000000000000000000000000000000000000000000000000000000",
      "type": "0x2",
      "transactionHash": "0x80f404fad039ad4f07a377eb5fc5c378e445d545d19098551cd3aa7207e1479c",
      "transactionIndex": "0x4",
      "blockHash": "0x1f3704ad2b8280762a377564458b6f6344fd12fa2ab5de3dd292ec3a3cb14258",
      "blockNumber": "0x9bb14fa",
      "gasUsed": "0xd435",
      "effectiveGasPrice": "0x7aef40a00",
      "from": "0x6faff29226219756aa40ce648dbc65fb41de5f72",
      "to": "0x95ce14ee82410c4a7296205e0c663969703dc857",
      "contractAddress": null
    },
    {
      "status": "0x1",
      "cumulativeGasUsed": "0x15e409",
      "logs": [],
      "logsBloom": "0x00000000000000000000000000000000000000000000000000000000000000000000000000000000000000000000000000000000000000000000000000000000000000000000000000000000000000000000000000000000000000000000000000000000000000000000000000000000000000000000000000000000000000000000000000000000000000000000000000000000000000000000000000000000000000000000000000000000000000000000000000000000000000000000000000000000000000000000000000000000000000000000000000000000000000000000000000000000000000000000000000000000000000000000000000000000",
      "type": "0x2",
      "transactionHash": "0x5e873844356d7194cd59d8de13c38393206bab43703abf3abf04b03b973854de",
      "transactionIndex": "0x5",
      "blockHash": "0x1f3704ad2b8280762a377564458b6f6344fd12fa2ab5de3dd292ec3a3cb14258",
      "blockNumber": "0x9bb14fa",
      "gasUsed": "0x677ce",
      "effectiveGasPrice": "0x7aef40a00",
      "from": "0x6faff29226219756aa40ce648dbc65fb41de5f72",
      "to": null,
      "contractAddress": "0xf10df82ff7b0e417e8318be7feaf4fabdaab8bb9"
    },
    {
      "status": "0x1",
      "cumulativeGasUsed": "0x16b83e",
      "logs": [],
      "logsBloom": "0x00000000000000000000000000000000000000000000000000000000000000000000000000000000000000000000000000000000000000000000000000000000000000000000000000000000000000000000000000000000000000000000000000000000000000000000000000000000000000000000000000000000000000000000000000000000000000000000000000000000000000000000000000000000000000000000000000000000000000000000000000000000000000000000000000000000000000000000000000000000000000000000000000000000000000000000000000000000000000000000000000000000000000000000000000000000",
      "type": "0x2",
      "transactionHash": "0x4da48938e086869ed2d6818b27c90a1d3bef4853e398e2ae740f5fc3cb30a5d8",
      "transactionIndex": "0x6",
      "blockHash": "0x1f3704ad2b8280762a377564458b6f6344fd12fa2ab5de3dd292ec3a3cb14258",
      "blockNumber": "0x9bb14fa",
      "gasUsed": "0xd435",
      "effectiveGasPrice": "0x7aef40a00",
      "from": "0x6faff29226219756aa40ce648dbc65fb41de5f72",
      "to": "0x95ce14ee82410c4a7296205e0c663969703dc857",
      "contractAddress": null
    },
    {
      "status": "0x1",
      "cumulativeGasUsed": "0x1d300c",
      "logs": [],
      "logsBloom": "0x00000000000000000000000000000000000000000000000000000000000000000000000000000000000000000000000000000000000000000000000000000000000000000000000000000000000000000000000000000000000000000000000000000000000000000000000000000000000000000000000000000000000000000000000000000000000000000000000000000000000000000000000000000000000000000000000000000000000000000000000000000000000000000000000000000000000000000000000000000000000000000000000000000000000000000000000000000000000000000000000000000000000000000000000000000000",
      "type": "0x2",
      "transactionHash": "0xb53848ba4cf1b21ab0e89a747acf20b6b10a5bf92925d13c071b3cba7ae32fe7",
      "transactionIndex": "0x7",
      "blockHash": "0x1f3704ad2b8280762a377564458b6f6344fd12fa2ab5de3dd292ec3a3cb14258",
      "blockNumber": "0x9bb14fa",
      "gasUsed": "0x677ce",
      "effectiveGasPrice": "0x7aef40a00",
      "from": "0x6faff29226219756aa40ce648dbc65fb41de5f72",
      "to": null,
      "contractAddress": "0x23cfcef31a53c1f2b7bb49d5067635f168270fc0"
    },
    {
      "status": "0x1",
      "cumulativeGasUsed": "0x1e0441",
      "logs": [],
      "logsBloom": "0x00000000000000000000000000000000000000000000000000000000000000000000000000000000000000000000000000000000000000000000000000000000000000000000000000000000000000000000000000000000000000000000000000000000000000000000000000000000000000000000000000000000000000000000000000000000000000000000000000000000000000000000000000000000000000000000000000000000000000000000000000000000000000000000000000000000000000000000000000000000000000000000000000000000000000000000000000000000000000000000000000000000000000000000000000000000",
      "type": "0x2",
      "transactionHash": "0xbc604c37846a15399b534590cfef2e20ac6de7cddba016c80243331d76890f77",
      "transactionIndex": "0x8",
      "blockHash": "0x1f3704ad2b8280762a377564458b6f6344fd12fa2ab5de3dd292ec3a3cb14258",
      "blockNumber": "0x9bb14fa",
      "gasUsed": "0xd435",
      "effectiveGasPrice": "0x7aef40a00",
      "from": "0x6faff29226219756aa40ce648dbc65fb41de5f72",
      "to": "0x95ce14ee82410c4a7296205e0c663969703dc857",
      "contractAddress": null
    },
    {
      "status": "0x1",
      "cumulativeGasUsed": "0x247c0f",
      "logs": [],
      "logsBloom": "0x00000000000000000000000000000000000000000000000000000000000000000000000000000000000000000000000000000000000000000000000000000000000000000000000000000000000000000000000000000000000000000000000000000000000000000000000000000000000000000000000000000000000000000000000000000000000000000000000000000000000000000000000000000000000000000000000000000000000000000000000000000000000000000000000000000000000000000000000000000000000000000000000000000000000000000000000000000000000000000000000000000000000000000000000000000000",
      "type": "0x2",
      "transactionHash": "0x909d936aafded15352938ee2a756fa3bc7614e5d7af8a4c35fbed2fb18f71fd5",
      "transactionIndex": "0x9",
      "blockHash": "0x1f3704ad2b8280762a377564458b6f6344fd12fa2ab5de3dd292ec3a3cb14258",
      "blockNumber": "0x9bb14fa",
      "gasUsed": "0x677ce",
      "effectiveGasPrice": "0x7aef40a00",
      "from": "0x6faff29226219756aa40ce648dbc65fb41de5f72",
      "to": null,
      "contractAddress": "0x449b9b967d9cd46c0b39890670ce0ab48c56a304"
    },
    {
      "status": "0x1",
      "cumulativeGasUsed": "0x255044",
      "logs": [],
      "logsBloom": "0x00000000000000000000000000000000000000000000000000000000000000000000000000000000000000000000000000000000000000000000000000000000000000000000000000000000000000000000000000000000000000000000000000000000000000000000000000000000000000000000000000000000000000000000000000000000000000000000000000000000000000000000000000000000000000000000000000000000000000000000000000000000000000000000000000000000000000000000000000000000000000000000000000000000000000000000000000000000000000000000000000000000000000000000000000000000",
      "type": "0x2",
      "transactionHash": "0x2623736548453e4a9895321a535578e0ac7f8cd6418ceff58f9bd09f3baf5a4b",
      "transactionIndex": "0xa",
      "blockHash": "0x1f3704ad2b8280762a377564458b6f6344fd12fa2ab5de3dd292ec3a3cb14258",
      "blockNumber": "0x9bb14fa",
      "gasUsed": "0xd435",
      "effectiveGasPrice": "0x7aef40a00",
      "from": "0x6faff29226219756aa40ce648dbc65fb41de5f72",
      "to": "0x95ce14ee82410c4a7296205e0c663969703dc857",
      "contractAddress": null
    },
    {
      "status": "0x1",
      "cumulativeGasUsed": "0x2bc812",
      "logs": [],
      "logsBloom": "0x00000000000000000000000000000000000000000000000000000000000000000000000000000000000000000000000000000000000000000000000000000000000000000000000000000000000000000000000000000000000000000000000000000000000000000000000000000000000000000000000000000000000000000000000000000000000000000000000000000000000000000000000000000000000000000000000000000000000000000000000000000000000000000000000000000000000000000000000000000000000000000000000000000000000000000000000000000000000000000000000000000000000000000000000000000000",
      "type": "0x2",
      "transactionHash": "0xba1f89b4dc32e802c5056617022765ad901ae029112208a845f31e2c68320f9b",
      "transactionIndex": "0xb",
      "blockHash": "0x1f3704ad2b8280762a377564458b6f6344fd12fa2ab5de3dd292ec3a3cb14258",
      "blockNumber": "0x9bb14fa",
      "gasUsed": "0x677ce",
      "effectiveGasPrice": "0x7aef40a00",
      "from": "0x6faff29226219756aa40ce648dbc65fb41de5f72",
      "to": null,
      "contractAddress": "0x74ad4222a0ec24a1b2b00f1bbabcb3910e7f2adb"
    },
    {
      "status": "0x1",
      "cumulativeGasUsed": "0x2c9c47",
      "logs": [],
      "logsBloom": "0x00000000000000000000000000000000000000000000000000000000000000000000000000000000000000000000000000000000000000000000000000000000000000000000000000000000000000000000000000000000000000000000000000000000000000000000000000000000000000000000000000000000000000000000000000000000000000000000000000000000000000000000000000000000000000000000000000000000000000000000000000000000000000000000000000000000000000000000000000000000000000000000000000000000000000000000000000000000000000000000000000000000000000000000000000000000",
      "type": "0x2",
      "transactionHash": "0xc851e9fa3ab9ef64e466d10e2f9ac0d0237ff7ff22778799621c1e6963078e65",
      "transactionIndex": "0xc",
      "blockHash": "0x1f3704ad2b8280762a377564458b6f6344fd12fa2ab5de3dd292ec3a3cb14258",
      "blockNumber": "0x9bb14fa",
      "gasUsed": "0xd435",
      "effectiveGasPrice": "0x7aef40a00",
      "from": "0x6faff29226219756aa40ce648dbc65fb41de5f72",
      "to": "0x95ce14ee82410c4a7296205e0c663969703dc857",
      "contractAddress": null
    },
    {
      "status": "0x1",
      "cumulativeGasUsed": "0x331415",
      "logs": [],
      "logsBloom": "0x00000000000000000000000000000000000000000000000000000000000000000000000000000000000000000000000000000000000000000000000000000000000000000000000000000000000000000000000000000000000000000000000000000000000000000000000000000000000000000000000000000000000000000000000000000000000000000000000000000000000000000000000000000000000000000000000000000000000000000000000000000000000000000000000000000000000000000000000000000000000000000000000000000000000000000000000000000000000000000000000000000000000000000000000000000000",
      "type": "0x2",
      "transactionHash": "0x75a788d82a0386911485c0e5e8aacfc8e3eaae4cbf1b2559a0e03e1085fdde0c",
      "transactionIndex": "0xd",
      "blockHash": "0x1f3704ad2b8280762a377564458b6f6344fd12fa2ab5de3dd292ec3a3cb14258",
      "blockNumber": "0x9bb14fa",
      "gasUsed": "0x677ce",
      "effectiveGasPrice": "0x7aef40a00",
      "from": "0x6faff29226219756aa40ce648dbc65fb41de5f72",
      "to": null,
      "contractAddress": "0x5db27fe3ccd7a8cf21845283bef6943605d15f3f"
    },
    {
      "status": "0x1",
      "cumulativeGasUsed": "0xd435",
      "logs": [],
      "logsBloom": "0x00000000000000000000000000000000000000000000000000000000000000000000000000000000000000000000000000000000000000000000000000000000000000000000000000000000000000000000000000000000000000000000000000000000000000000000000000000000000000000000000000000000000000000000000000000000000000000000000000000000000000000000000000000000000000000000000000000000000000000000000000000000000000000000000000000000000000000000000000000000000000000000000000000000000000000000000000000000000000000000000000000000000000000000000000000000",
      "type": "0x2",
      "transactionHash": "0x73f865f33bfb8ea63ea9fb29beee3cfddbf50f6e7fa0e2087c8f0ea5a0026cd1",
      "transactionIndex": "0x0",
      "blockHash": "0x342320bae11a40fed13466e985e23b54c33d55891419befc3cd9ba5813e23ae9",
      "blockNumber": "0x9bb14fb",
      "gasUsed": "0xd435",
      "effectiveGasPrice": "0x7aef40a00",
      "from": "0x6faff29226219756aa40ce648dbc65fb41de5f72",
      "to": "0x95ce14ee82410c4a7296205e0c663969703dc857",
      "contractAddress": null
    },
    {
      "status": "0x1",
      "cumulativeGasUsed": "0x74c03",
      "logs": [],
      "logsBloom": "0x00000000000000000000000000000000000000000000000000000000000000000000000000000000000000000000000000000000000000000000000000000000000000000000000000000000000000000000000000000000000000000000000000000000000000000000000000000000000000000000000000000000000000000000000000000000000000000000000000000000000000000000000000000000000000000000000000000000000000000000000000000000000000000000000000000000000000000000000000000000000000000000000000000000000000000000000000000000000000000000000000000000000000000000000000000000",
      "type": "0x2",
      "transactionHash": "0xb1637469eb2e50edddff045d1f5c745300f36535c169f3e402f0197cf0bd80d7",
      "transactionIndex": "0x1",
      "blockHash": "0x342320bae11a40fed13466e985e23b54c33d55891419befc3cd9ba5813e23ae9",
      "blockNumber": "0x9bb14fb",
      "gasUsed": "0x677ce",
      "effectiveGasPrice": "0x7aef40a00",
      "from": "0x6faff29226219756aa40ce648dbc65fb41de5f72",
      "to": null,
      "contractAddress": "0x7c3e85650946ac1951cd1b69bc9263cfe0677667"
    },
    {
      "status": "0x1",
      "cumulativeGasUsed": "0x82038",
      "logs": [],
      "logsBloom": "0x00000000000000000000000000000000000000000000000000000000000000000000000000000000000000000000000000000000000000000000000000000000000000000000000000000000000000000000000000000000000000000000000000000000000000000000000000000000000000000000000000000000000000000000000000000000000000000000000000000000000000000000000000000000000000000000000000000000000000000000000000000000000000000000000000000000000000000000000000000000000000000000000000000000000000000000000000000000000000000000000000000000000000000000000000000000",
      "type": "0x2",
      "transactionHash": "0x1a54f84c91a0fe981818595de7637d865dae53fc517156057d558a4e860ae28a",
      "transactionIndex": "0x2",
      "blockHash": "0x342320bae11a40fed13466e985e23b54c33d55891419befc3cd9ba5813e23ae9",
      "blockNumber": "0x9bb14fb",
      "gasUsed": "0xd435",
      "effectiveGasPrice": "0x7aef40a00",
      "from": "0x6faff29226219756aa40ce648dbc65fb41de5f72",
      "to": "0x95ce14ee82410c4a7296205e0c663969703dc857",
      "contractAddress": null
    },
    {
      "status": "0x1",
      "cumulativeGasUsed": "0xe9806",
      "logs": [],
      "logsBloom": "0x00000000000000000000000000000000000000000000000000000000000000000000000000000000000000000000000000000000000000000000000000000000000000000000000000000000000000000000000000000000000000000000000000000000000000000000000000000000000000000000000000000000000000000000000000000000000000000000000000000000000000000000000000000000000000000000000000000000000000000000000000000000000000000000000000000000000000000000000000000000000000000000000000000000000000000000000000000000000000000000000000000000000000000000000000000000",
      "type": "0x2",
      "transactionHash": "0x6cac0659b5b6044511fbaead41d6039c83cb16eba514431194d10d21acf5bcd3",
      "transactionIndex": "0x3",
      "blockHash": "0x342320bae11a40fed13466e985e23b54c33d55891419befc3cd9ba5813e23ae9",
      "blockNumber": "0x9bb14fb",
      "gasUsed": "0x677ce",
      "effectiveGasPrice": "0x7aef40a00",
      "from": "0x6faff29226219756aa40ce648dbc65fb41de5f72",
      "to": null,
      "contractAddress": "0x7fb875063b134658a1c1e012a80a3f537e38ba52"
    },
    {
      "status": "0x1",
      "cumulativeGasUsed": "0xf6c3b",
      "logs": [],
      "logsBloom": "0x00000000000000000000000000000000000000000000000000000000000000000000000000000000000000000000000000000000000000000000000000000000000000000000000000000000000000000000000000000000000000000000000000000000000000000000000000000000000000000000000000000000000000000000000000000000000000000000000000000000000000000000000000000000000000000000000000000000000000000000000000000000000000000000000000000000000000000000000000000000000000000000000000000000000000000000000000000000000000000000000000000000000000000000000000000000",
      "type": "0x2",
      "transactionHash": "0x3c468a209d559c54b89062549146dd74069cb751181bc52cb9459fbdeb807c3a",
      "transactionIndex": "0x4",
      "blockHash": "0x342320bae11a40fed13466e985e23b54c33d55891419befc3cd9ba5813e23ae9",
      "blockNumber": "0x9bb14fb",
      "gasUsed": "0xd435",
      "effectiveGasPrice": "0x7aef40a00",
      "from": "0x6faff29226219756aa40ce648dbc65fb41de5f72",
      "to": "0x95ce14ee82410c4a7296205e0c663969703dc857",
      "contractAddress": null
    }
  ],
  "libraries": [],
  "pending": [],
  "returns": {},
  "timestamp": 1724837204,
  "chain": 1001,
  "commit": "dbc37e5"
}