{
  "transactions": [
    {
      "hash": "0x9992cb282b8a7b85b753141225807e3576aa00ce5fdafc6bcf6f2c629f16358f",
      "transactionType": "CREATE",
      "contractName": "RaidTreasury",
      "contractAddress": "0xb3ca98bb125b071c2d15032150f129e8a697eb06",
      "function": null,
      "arguments": null,
      "transaction": {
        "from": "0x6faff29226219756aa40ce648dbc65fb41de5f72",
        "gas": "0xa4bec",
        "value": "0x0",
        "input": "0x608060405260018054730b1ffe056fd5cd4918747d5f4872901b6ad87abf6001600160a01b031991821681179092556002805490911690911790553480156044575f80fd5b50600380546001600160a01b031916339081179091555f908152602081905260409020683635c9adc5dea000009055610381806100805f395ff3fe608060405260043610610057575f3560e01c80632d809cb61461009b5780633ccfd60b146100d95780638da5cb5b146100ef578063d7bb99ba14610126578063e29fef961461012e578063f10fdf5c1461014d575f80fd5b36610097575f341180156100785750335f9081526020819052604090205415155b610080575f80fd5b600380546001600160a01b03191633908117909155005b5f80fd5b3480156100a6575f80fd5b506100c66100b53660046102ec565b5f6020819052908152604090205481565b6040519081526020015b60405180910390f35b3480156100e4575f80fd5b506100ed61016d565b005b3480156100fa575f80fd5b5060035461010e906001600160a01b031681565b6040516001600160a01b0390911681526020016100d0565b6100ed61027b565b348015610139575f80fd5b5060025461010e906001600160a01b031681565b348015610158575f80fd5b50335f908152602081905260409020546100c6565b6003546001600160a01b0316331461019857604051636db2465f60e01b815260040160405180910390fd5b6002546040516370a0823160e01b81523060048201526001600160a01b039091169063a9059cbb90339083906370a0823190602401602060405180830381865afa1580156101e8573d5f803e3d5ffd5b505050506040513d601f19601f8201168201806040525081019061020c9190610319565b6040516001600160e01b031960e085901b1681526001600160a01b03909216600483015260248201526044016020604051808303815f875af1158015610254573d5f803e3d5ffd5b505050506040513d601f19601f820116820180604052508101906102789190610330565b50565b66038d7ea4c68000341061028d575f80fd5b335f90815260208190526040812080543492906102ab90849061034f565b90915550506003546001600160a01b03165f908152602081905260408082205433835291205411156102ea57600380546001600160a01b031916331790555b565b5f602082840312156102fc575f80fd5b81356001600160a01b0381168114610312575f80fd5b9392505050565b5f60208284031215610329575f80fd5b5051919050565b5f60208284031215610340575f80fd5b81518015158114610312575f80fd5b8082018082111561036e57634e487b7160e01b5f52601160045260245ffd5b9291505056fea164736f6c6343000819000a",
        "nonce": "0x85",
        "chainId": "0x3e9"
      },
      "additionalContracts": [],
      "isFixedGasLimit": false
    },
    {
      "hash": "0x1445919fa1fb94ad8cabcb22ee0199e77ff20eac350475538450f9cc1fb198fb",
      "transactionType": "CALL",
      "contractName": null,
      "contractAddress": "0x6ef551c906ee7e658ec73471399d9c21fda0df18",
      "function": "addCastle(address)",
      "arguments": [
        "0xb3cA98BB125B071C2D15032150F129e8A697EB06"
      ],
      "transaction": {
        "from": "0x6faff29226219756aa40ce648dbc65fb41de5f72",
        "to": "0x6ef551c906ee7e658ec73471399d9c21fda0df18",
        "gas": "0x257b4",
        "value": "0x0",
        "input": "0xb4c2c139000000000000000000000000b3ca98bb125b071c2d15032150f129e8a697eb06",
        "nonce": "0x86",
        "chainId": "0x3e9"
      },
      "additionalContracts": [],
      "isFixedGasLimit": false
    },
    {
      "hash": "0xf74e405aff2033893147002cd0d4a33c15a14adf7048cbae41e621fe2afc1fc7",
      "transactionType": "CREATE",
      "contractName": "RaidTreasury",
      "contractAddress": "0xfbc511e6cd7b9478ab8bc98fa358fea869624c1e",
      "function": null,
      "arguments": null,
      "transaction": {
        "from": "0x6faff29226219756aa40ce648dbc65fb41de5f72",
        "gas": "0xa4bec",
        "value": "0x0",
        "input": "0x608060405260018054730b1ffe056fd5cd4918747d5f4872901b6ad87abf6001600160a01b031991821681179092556002805490911690911790553480156044575f80fd5b50600380546001600160a01b031916339081179091555f908152602081905260409020683635c9adc5dea000009055610381806100805f395ff3fe608060405260043610610057575f3560e01c80632d809cb61461009b5780633ccfd60b146100d95780638da5cb5b146100ef578063d7bb99ba14610126578063e29fef961461012e578063f10fdf5c1461014d575f80fd5b36610097575f341180156100785750335f9081526020819052604090205415155b610080575f80fd5b600380546001600160a01b03191633908117909155005b5f80fd5b3480156100a6575f80fd5b506100c66100b53660046102ec565b5f6020819052908152604090205481565b6040519081526020015b60405180910390f35b3480156100e4575f80fd5b506100ed61016d565b005b3480156100fa575f80fd5b5060035461010e906001600160a01b031681565b6040516001600160a01b0390911681526020016100d0565b6100ed61027b565b348015610139575f80fd5b5060025461010e906001600160a01b031681565b348015610158575f80fd5b50335f908152602081905260409020546100c6565b6003546001600160a01b0316331461019857604051636db2465f60e01b815260040160405180910390fd5b6002546040516370a0823160e01b81523060048201526001600160a01b039091169063a9059cbb90339083906370a0823190602401602060405180830381865afa1580156101e8573d5f803e3d5ffd5b505050506040513d601f19601f8201168201806040525081019061020c9190610319565b6040516001600160e01b031960e085901b1681526001600160a01b03909216600483015260248201526044016020604051808303815f875af1158015610254573d5f803e3d5ffd5b505050506040513d601f19601f820116820180604052508101906102789190610330565b50565b66038d7ea4c68000341061028d575f80fd5b335f90815260208190526040812080543492906102ab90849061034f565b90915550506003546001600160a01b03165f908152602081905260408082205433835291205411156102ea57600380546001600160a01b031916331790555b565b5f602082840312156102fc575f80fd5b81356001600160a01b0381168114610312575f80fd5b9392505050565b5f60208284031215610329575f80fd5b5051919050565b5f60208284031215610340575f80fd5b81518015158114610312575f80fd5b8082018082111561036e57634e487b7160e01b5f52601160045260245ffd5b9291505056fea164736f6c6343000819000a",
        "nonce": "0x87",
        "chainId": "0x3e9"
      },
      "additionalContracts": [],
      "isFixedGasLimit": false
    },
    {
      "hash": "0x0f299e228168c1a0796385981b0078df9ecb638a167c8f6b19c7b457080062d5",
      "transactionType": "CALL",
      "contractName": null,
      "contractAddress": "0x6ef551c906ee7e658ec73471399d9c21fda0df18",
      "function": "addCastle(address)",
      "arguments": [
        "0xfbC511E6cd7b9478ab8bc98Fa358fEa869624c1E"
      ],
      "transaction": {
        "from": "0x6faff29226219756aa40ce648dbc65fb41de5f72",
        "to": "0x6ef551c906ee7e658ec73471399d9c21fda0df18",
        "gas": "0x1a870",
        "value": "0x0",
        "input": "0xb4c2c139000000000000000000000000fbc511e6cd7b9478ab8bc98fa358fea869624c1e",
        "nonce": "0x88",
        "chainId": "0x3e9"
      },
      "additionalContracts": [],
      "isFixedGasLimit": false
    },
    {
      "hash": "0xa166280fa00ce14e31668775122207078bdf6c650e43612f1220552db7266f69",
      "transactionType": "CREATE",
      "contractName": "RaidTreasury",
      "contractAddress": "0x130fe337b89101bc9197eff4c3adabfb9364a212",
      "function": null,
      "arguments": null,
      "transaction": {
        "from": "0x6faff29226219756aa40ce648dbc65fb41de5f72",
        "gas": "0xa4bec",
        "value": "0x0",
        "input": "0x608060405260018054730b1ffe056fd5cd4918747d5f4872901b6ad87abf6001600160a01b031991821681179092556002805490911690911790553480156044575f80fd5b50600380546001600160a01b031916339081179091555f908152602081905260409020683635c9adc5dea000009055610381806100805f395ff3fe608060405260043610610057575f3560e01c80632d809cb61461009b5780633ccfd60b146100d95780638da5cb5b146100ef578063d7bb99ba14610126578063e29fef961461012e578063f10fdf5c1461014d575f80fd5b36610097575f341180156100785750335f9081526020819052604090205415155b610080575f80fd5b600380546001600160a01b03191633908117909155005b5f80fd5b3480156100a6575f80fd5b506100c66100b53660046102ec565b5f6020819052908152604090205481565b6040519081526020015b60405180910390f35b3480156100e4575f80fd5b506100ed61016d565b005b3480156100fa575f80fd5b5060035461010e906001600160a01b031681565b6040516001600160a01b0390911681526020016100d0565b6100ed61027b565b348015610139575f80fd5b5060025461010e906001600160a01b031681565b348015610158575f80fd5b50335f908152602081905260409020546100c6565b6003546001600160a01b0316331461019857604051636db2465f60e01b815260040160405180910390fd5b6002546040516370a0823160e01b81523060048201526001600160a01b039091169063a9059cbb90339083906370a0823190602401602060405180830381865afa1580156101e8573d5f803e3d5ffd5b505050506040513d601f19601f8201168201806040525081019061020c9190610319565b6040516001600160e01b031960e085901b1681526001600160a01b03909216600483015260248201526044016020604051808303815f875af1158015610254573d5f803e3d5ffd5b505050506040513d601f19601f820116820180604052508101906102789190610330565b50565b66038d7ea4c68000341061028d575f80fd5b335f90815260208190526040812080543492906102ab90849061034f565b90915550506003546001600160a01b03165f908152602081905260408082205433835291205411156102ea57600380546001600160a01b031916331790555b565b5f602082840312156102fc575f80fd5b81356001600160a01b0381168114610312575f80fd5b9392505050565b5f60208284031215610329575f80fd5b5051919050565b5f60208284031215610340575f80fd5b81518015158114610312575f80fd5b8082018082111561036e57634e487b7160e01b5f52601160045260245ffd5b9291505056fea164736f6c6343000819000a",
        "nonce": "0x89",
        "chainId": "0x3e9"
      },
      "additionalContracts": [],
      "isFixedGasLimit": false
    },
    {
      "hash": "0xf88c2a8e65de252f9eaf70e809f24ac7cd83b4f8f0a401158937a77f1877321c",
      "transactionType": "CALL",
      "contractName": null,
      "contractAddress": "0x6ef551c906ee7e658ec73471399d9c21fda0df18",
      "function": "addCastle(address)",
      "arguments": [
        "0x130fe337B89101bc9197Eff4C3AdaBfb9364a212"
      ],
      "transaction": {
        "from": "0x6faff29226219756aa40ce648dbc65fb41de5f72",
        "to": "0x6ef551c906ee7e658ec73471399d9c21fda0df18",
        "gas": "0x1a870",
        "value": "0x0",
        "input": "0xb4c2c139000000000000000000000000130fe337b89101bc9197eff4c3adabfb9364a212",
        "nonce": "0x8a",
        "chainId": "0x3e9"
      },
      "additionalContracts": [],
      "isFixedGasLimit": false
    },
    {
      "hash": "0x1ac33bfea3827dfc81da27b9fda4def3663d52150772dfcb838a5d34ad2c9df2",
      "transactionType": "CREATE",
      "contractName": "RaidTreasury",
      "contractAddress": "0x8fc8caa43109ab3f0d6d62a707842ff2a6f6ba32",
      "function": null,
      "arguments": null,
      "transaction": {
        "from": "0x6faff29226219756aa40ce648dbc65fb41de5f72",
        "gas": "0xa4bec",
        "value": "0x0",
        "input": "0x608060405260018054730b1ffe056fd5cd4918747d5f4872901b6ad87abf6001600160a01b031991821681179092556002805490911690911790553480156044575f80fd5b50600380546001600160a01b031916339081179091555f908152602081905260409020683635c9adc5dea000009055610381806100805f395ff3fe608060405260043610610057575f3560e01c80632d809cb61461009b5780633ccfd60b146100d95780638da5cb5b146100ef578063d7bb99ba14610126578063e29fef961461012e578063f10fdf5c1461014d575f80fd5b36610097575f341180156100785750335f9081526020819052604090205415155b610080575f80fd5b600380546001600160a01b03191633908117909155005b5f80fd5b3480156100a6575f80fd5b506100c66100b53660046102ec565b5f6020819052908152604090205481565b6040519081526020015b60405180910390f35b3480156100e4575f80fd5b506100ed61016d565b005b3480156100fa575f80fd5b5060035461010e906001600160a01b031681565b6040516001600160a01b0390911681526020016100d0565b6100ed61027b565b348015610139575f80fd5b5060025461010e906001600160a01b031681565b348015610158575f80fd5b50335f908152602081905260409020546100c6565b6003546001600160a01b0316331461019857604051636db2465f60e01b815260040160405180910390fd5b6002546040516370a0823160e01b81523060048201526001600160a01b039091169063a9059cbb90339083906370a0823190602401602060405180830381865afa1580156101e8573d5f803e3d5ffd5b505050506040513d601f19601f8201168201806040525081019061020c9190610319565b6040516001600160e01b031960e085901b1681526001600160a01b03909216600483015260248201526044016020604051808303815f875af1158015610254573d5f803e3d5ffd5b505050506040513d601f19601f820116820180604052508101906102789190610330565b50565b66038d7ea4c68000341061028d575f80fd5b335f90815260208190526040812080543492906102ab90849061034f565b90915550506003546001600160a01b03165f908152602081905260408082205433835291205411156102ea57600380546001600160a01b031916331790555b565b5f602082840312156102fc575f80fd5b81356001600160a01b0381168114610312575f80fd5b9392505050565b5f60208284031215610329575f80fd5b5051919050565b5f60208284031215610340575f80fd5b81518015158114610312575f80fd5b8082018082111561036e57634e487b7160e01b5f52601160045260245ffd5b9291505056fea164736f6c6343000819000a",
        "nonce": "0x8b",
        "chainId": "0x3e9"
      },
      "additionalContracts": [],
      "isFixedGasLimit": false
    },
    {
      "hash": "0xbef6d7f4b5bac69796e84014be863000d694b3d6a61204c2d8d7906ee4f30bc9",
      "transactionType": "CALL",
      "contractName": null,
      "contractAddress": "0x6ef551c906ee7e658ec73471399d9c21fda0df18",
      "function": "addCastle(address)",
      "arguments": [
        "0x8Fc8cAA43109Ab3f0D6d62A707842ff2a6F6BA32"
      ],
      "transaction": {
        "from": "0x6faff29226219756aa40ce648dbc65fb41de5f72",
        "to": "0x6ef551c906ee7e658ec73471399d9c21fda0df18",
        "gas": "0x1a870",
        "value": "0x0",
        "input": "0xb4c2c1390000000000000000000000008fc8caa43109ab3f0d6d62a707842ff2a6f6ba32",
        "nonce": "0x8c",
        "chainId": "0x3e9"
      },
      "additionalContracts": [],
      "isFixedGasLimit": false
    },
    {
      "hash": "0x9ec134bbaec86678c8bbb0a707eba0a0f13fbd6a4d2c6485402c96209efca383",
      "transactionType": "CREATE",
      "contractName": "RaidTreasury",
      "contractAddress": "0x2dd7cd23a3f8c51ec5cf47810440b93fbe1944b5",
      "function": null,
      "arguments": null,
      "transaction": {
        "from": "0x6faff29226219756aa40ce648dbc65fb41de5f72",
        "gas": "0xa4bec",
        "value": "0x0",
        "input": "0x608060405260018054730b1ffe056fd5cd4918747d5f4872901b6ad87abf6001600160a01b031991821681179092556002805490911690911790553480156044575f80fd5b50600380546001600160a01b031916339081179091555f908152602081905260409020683635c9adc5dea000009055610381806100805f395ff3fe608060405260043610610057575f3560e01c80632d809cb61461009b5780633ccfd60b146100d95780638da5cb5b146100ef578063d7bb99ba14610126578063e29fef961461012e578063f10fdf5c1461014d575f80fd5b36610097575f341180156100785750335f9081526020819052604090205415155b610080575f80fd5b600380546001600160a01b03191633908117909155005b5f80fd5b3480156100a6575f80fd5b506100c66100b53660046102ec565b5f6020819052908152604090205481565b6040519081526020015b60405180910390f35b3480156100e4575f80fd5b506100ed61016d565b005b3480156100fa575f80fd5b5060035461010e906001600160a01b031681565b6040516001600160a01b0390911681526020016100d0565b6100ed61027b565b348015610139575f80fd5b5060025461010e906001600160a01b031681565b348015610158575f80fd5b50335f908152602081905260409020546100c6565b6003546001600160a01b0316331461019857604051636db2465f60e01b815260040160405180910390fd5b6002546040516370a0823160e01b81523060048201526001600160a01b039091169063a9059cbb90339083906370a0823190602401602060405180830381865afa1580156101e8573d5f803e3d5ffd5b505050506040513d601f19601f8201168201806040525081019061020c9190610319565b6040516001600160e01b031960e085901b1681526001600160a01b03909216600483015260248201526044016020604051808303815f875af1158015610254573d5f803e3d5ffd5b505050506040513d601f19601f820116820180604052508101906102789190610330565b50565b66038d7ea4c68000341061028d575f80fd5b335f90815260208190526040812080543492906102ab90849061034f565b90915550506003546001600160a01b03165f908152602081905260408082205433835291205411156102ea57600380546001600160a01b031916331790555b565b5f602082840312156102fc575f80fd5b81356001600160a01b0381168114610312575f80fd5b9392505050565b5f60208284031215610329575f80fd5b5051919050565b5f60208284031215610340575f80fd5b81518015158114610312575f80fd5b8082018082111561036e57634e487b7160e01b5f52601160045260245ffd5b9291505056fea164736f6c6343000819000a",
        "nonce": "0x8d",
        "chainId": "0x3e9"
      },
      "additionalContracts": [],
      "isFixedGasLimit": false
    },
    {
      "hash": "0xfeb564eb0f40425f9c39d4feb155323f2a69d11fd0caa93c0e079e1386952d6b",
      "transactionType": "CALL",
      "contractName": null,
      "contractAddress": "0x6ef551c906ee7e658ec73471399d9c21fda0df18",
      "function": "addCastle(address)",
      "arguments": [
        "0x2dD7Cd23a3f8C51EC5Cf47810440b93fbe1944b5"
      ],
      "transaction": {
        "from": "0x6faff29226219756aa40ce648dbc65fb41de5f72",
        "to": "0x6ef551c906ee7e658ec73471399d9c21fda0df18",
        "gas": "0x1a870",
        "value": "0x0",
        "input": "0xb4c2c1390000000000000000000000002dd7cd23a3f8c51ec5cf47810440b93fbe1944b5",
        "nonce": "0x8e",
        "chainId": "0x3e9"
      },
      "additionalContracts": [],
      "isFixedGasLimit": false
    }
  ],
  "receipts": [
    {
      "status": "0x1",
      "cumulativeGasUsed": "0x6776a",
      "logs": [],
      "logsBloom": "0x00000000000000000000000000000000000000000000000000000000000000000000000000000000000000000000000000000000000000000000000000000000000000000000000000000000000000000000000000000000000000000000000000000000000000000000000000000000000000000000000000000000000000000000000000000000000000000000000000000000000000000000000000000000000000000000000000000000000000000000000000000000000000000000000000000000000000000000000000000000000000000000000000000000000000000000000000000000000000000000000000000000000000000000000000000000",
      "type": "0x2",
      "transactionHash": "0x9992cb282b8a7b85b753141225807e3576aa00ce5fdafc6bcf6f2c629f16358f",
      "transactionIndex": "0x0",
      "blockHash": "0xb3e0fde1f7f58698d7e1413328ff56ed0d8993bb8787d9f6c5a327a6876e728d",
      "blockNumber": "0x9b841df",
      "gasUsed": "0x6776a",
      "effectiveGasPrice": "0x66720b300",
      "from": "0x6faff29226219756aa40ce648dbc65fb41de5f72",
      "to": null,
      "contractAddress": "0xb3ca98bb125b071c2d15032150f129e8a697eb06"
    },
    {
      "status": "0x1",
      "cumulativeGasUsed": "0x78e53",
      "logs": [],
      "logsBloom": "0x00000000000000000000000000000000000000000000000000000000000000000000000000000000000000000000000000000000000000000000000000000000000000000000000000000000000000000000000000000000000000000000000000000000000000000000000000000000000000000000000000000000000000000000000000000000000000000000000000000000000000000000000000000000000000000000000000000000000000000000000000000000000000000000000000000000000000000000000000000000000000000000000000000000000000000000000000000000000000000000000000000000000000000000000000000000",
      "type": "0x2",
      "transactionHash": "0x1445919fa1fb94ad8cabcb22ee0199e77ff20eac350475538450f9cc1fb198fb",
      "transactionIndex": "0x1",
      "blockHash": "0xb3e0fde1f7f58698d7e1413328ff56ed0d8993bb8787d9f6c5a327a6876e728d",
      "blockNumber": "0x9b841df",
      "gasUsed": "0x116e9",
      "effectiveGasPrice": "0x66720b300",
      "from": "0x6faff29226219756aa40ce648dbc65fb41de5f72",
      "to": "0x6ef551c906ee7e658ec73471399d9c21fda0df18",
      "contractAddress": null
    },
    {
      "status": "0x1",
      "cumulativeGasUsed": "0xe05bd",
      "logs": [],
      "logsBloom": "0x00000000000000000000000000000000000000000000000000000000000000000000000000000000000000000000000000000000000000000000000000000000000000000000000000000000000000000000000000000000000000000000000000000000000000000000000000000000000000000000000000000000000000000000000000000000000000000000000000000000000000000000000000000000000000000000000000000000000000000000000000000000000000000000000000000000000000000000000000000000000000000000000000000000000000000000000000000000000000000000000000000000000000000000000000000000",
      "type": "0x2",
      "transactionHash": "0xf74e405aff2033893147002cd0d4a33c15a14adf7048cbae41e621fe2afc1fc7",
      "transactionIndex": "0x2",
      "blockHash": "0xb3e0fde1f7f58698d7e1413328ff56ed0d8993bb8787d9f6c5a327a6876e728d",
      "blockNumber": "0x9b841df",
      "gasUsed": "0x6776a",
      "effectiveGasPrice": "0x66720b300",
      "from": "0x6faff29226219756aa40ce648dbc65fb41de5f72",
      "to": null,
      "contractAddress": "0xfbc511e6cd7b9478ab8bc98fa358fea869624c1e"
    },
    {
      "status": "0x1",
      "cumulativeGasUsed": "0xed9da",
      "logs": [],
      "logsBloom": "0x00000000000000000000000000000000000000000000000000000000000000000000000000000000000000000000000000000000000000000000000000000000000000000000000000000000000000000000000000000000000000000000000000000000000000000000000000000000000000000000000000000000000000000000000000000000000000000000000000000000000000000000000000000000000000000000000000000000000000000000000000000000000000000000000000000000000000000000000000000000000000000000000000000000000000000000000000000000000000000000000000000000000000000000000000000000",
      "type": "0x2",
      "transactionHash": "0x0f299e228168c1a0796385981b0078df9ecb638a167c8f6b19c7b457080062d5",
      "transactionIndex": "0x3",
      "blockHash": "0xb3e0fde1f7f58698d7e1413328ff56ed0d8993bb8787d9f6c5a327a6876e728d",
      "blockNumber": "0x9b841df",
      "gasUsed": "0xd41d",
      "effectiveGasPrice": "0x66720b300",
      "from": "0x6faff29226219756aa40ce648dbc65fb41de5f72",
      "to": "0x6ef551c906ee7e658ec73471399d9c21fda0df18",
      "contractAddress": null
    },
    {
      "status": "0x1",
      "cumulativeGasUsed": "0x83236",
      "logs": [],
      "logsBloom": "0x00000000000000000000000000000000000000000000000000000000000000000000000000000000000000000000000000000000000000000000000000000000000000000000000000000000000000000000000000000000000000000000000000000000000000000000000000000000000000000000000000000000000000000000000000000000000000000000000000000000000000000000000000000000000000000000000000000000000000000000000000000000000000000000000000000000000000000000000000000000000000000000000000000000000000000000000000000000000000000000000000000000000000000000000000000000",
      "type": "0x2",
      "transactionHash": "0xa166280fa00ce14e31668775122207078bdf6c650e43612f1220552db7266f69",
      "transactionIndex": "0x2",
      "blockHash": "0x0aae9c3a2df7ebece524147edd6359574ce2a5b0291043a22251d40d4a0e0d6d",
      "blockNumber": "0x9b841e0",
      "gasUsed": "0x6776a",
      "effectiveGasPrice": "0x66720b300",
      "from": "0x6faff29226219756aa40ce648dbc65fb41de5f72",
      "to": null,
      "contractAddress": "0x130fe337b89101bc9197eff4c3adabfb9364a212"
    },
    {
      "status": "0x1",
      "cumulativeGasUsed": "0x90653",
      "logs": [],
      "logsBloom": "0x00000000000000000000000000000000000000000000000000000000000000000000000000000000000000000000000000000000000000000000000000000000000000000000000000000000000000000000000000000000000000000000000000000000000000000000000000000000000000000000000000000000000000000000000000000000000000000000000000000000000000000000000000000000000000000000000000000000000000000000000000000000000000000000000000000000000000000000000000000000000000000000000000000000000000000000000000000000000000000000000000000000000000000000000000000000",
      "type": "0x2",
      "transactionHash": "0xf88c2a8e65de252f9eaf70e809f24ac7cd83b4f8f0a401158937a77f1877321c",
      "transactionIndex": "0x3",
      "blockHash": "0x0aae9c3a2df7ebece524147edd6359574ce2a5b0291043a22251d40d4a0e0d6d",
      "blockNumber": "0x9b841e0",
      "gasUsed": "0xd41d",
      "effectiveGasPrice": "0x66720b300",
      "from": "0x6faff29226219756aa40ce648dbc65fb41de5f72",
      "to": "0x6ef551c906ee7e658ec73471399d9c21fda0df18",
      "contractAddress": null
    },
    {
      "status": "0x1",
      "cumulativeGasUsed": "0xf7dbd",
      "logs": [],
      "logsBloom": "0x00000000000000000000000000000000000000000000000000000000000000000000000000000000000000000000000000000000000000000000000000000000000000000000000000000000000000000000000000000000000000000000000000000000000000000000000000000000000000000000000000000000000000000000000000000000000000000000000000000000000000000000000000000000000000000000000000000000000000000000000000000000000000000000000000000000000000000000000000000000000000000000000000000000000000000000000000000000000000000000000000000000000000000000000000000000",
      "type": "0x2",
      "transactionHash": "0x1ac33bfea3827dfc81da27b9fda4def3663d52150772dfcb838a5d34ad2c9df2",
      "transactionIndex": "0x4",
      "blockHash": "0x0aae9c3a2df7ebece524147edd6359574ce2a5b0291043a22251d40d4a0e0d6d",
      "blockNumber": "0x9b841e0",
      "gasUsed": "0x6776a",
      "effectiveGasPrice": "0x66720b300",
      "from": "0x6faff29226219756aa40ce648dbc65fb41de5f72",
      "to": null,
      "contractAddress": "0x8fc8caa43109ab3f0d6d62a707842ff2a6f6ba32"
    },
    {
      "status": "0x1",
      "cumulativeGasUsed": "0x1051da",
      "logs": [],
      "logsBloom": "0x00000000000000000000000000000000000000000000000000000000000000000000000000000000000000000000000000000000000000000000000000000000000000000000000000000000000000000000000000000000000000000000000000000000000000000000000000000000000000000000000000000000000000000000000000000000000000000000000000000000000000000000000000000000000000000000000000000000000000000000000000000000000000000000000000000000000000000000000000000000000000000000000000000000000000000000000000000000000000000000000000000000000000000000000000000000",
      "type": "0x2",
      "transactionHash": "0xbef6d7f4b5bac69796e84014be863000d694b3d6a61204c2d8d7906ee4f30bc9",
      "transactionIndex": "0x5",
      "blockHash": "0x0aae9c3a2df7ebece524147edd6359574ce2a5b0291043a22251d40d4a0e0d6d",
      "blockNumber": "0x9b841e0",
      "gasUsed": "0xd41d",
      "effectiveGasPrice": "0x66720b300",
      "from": "0x6faff29226219756aa40ce648dbc65fb41de5f72",
      "to": "0x6ef551c906ee7e658ec73471399d9c21fda0df18",
      "contractAddress": null
    },
    {
      "status": "0x1",
      "cumulativeGasUsed": "0x16c944",
      "logs": [],
      "logsBloom": "0x00000000000000000000000000000000000000000000000000000000000000000000000000000000000000000000000000000000000000000000000000000000000000000000000000000000000000000000000000000000000000000000000000000000000000000000000000000000000000000000000000000000000000000000000000000000000000000000000000000000000000000000000000000000000000000000000000000000000000000000000000000000000000000000000000000000000000000000000000000000000000000000000000000000000000000000000000000000000000000000000000000000000000000000000000000000",
      "type": "0x2",
      "transactionHash": "0x9ec134bbaec86678c8bbb0a707eba0a0f13fbd6a4d2c6485402c96209efca383",
      "transactionIndex": "0x6",
      "blockHash": "0x0aae9c3a2df7ebece524147edd6359574ce2a5b0291043a22251d40d4a0e0d6d",
      "blockNumber": "0x9b841e0",
      "gasUsed": "0x6776a",
      "effectiveGasPrice": "0x66720b300",
      "from": "0x6faff29226219756aa40ce648dbc65fb41de5f72",
      "to": null,
      "contractAddress": "0x2dd7cd23a3f8c51ec5cf47810440b93fbe1944b5"
    },
    {
      "status": "0x1",
      "cumulativeGasUsed": "0x179d61",
      "logs": [],
      "logsBloom": "0x00000000000000000000000000000000000000000000000000000000000000000000000000000000000000000000000000000000000000000000000000000000000000000000000000000000000000000000000000000000000000000000000000000000000000000000000000000000000000000000000000000000000000000000000000000000000000000000000000000000000000000000000000000000000000000000000000000000000000000000000000000000000000000000000000000000000000000000000000000000000000000000000000000000000000000000000000000000000000000000000000000000000000000000000000000000",
      "type": "0x2",
      "transactionHash": "0xfeb564eb0f40425f9c39d4feb155323f2a69d11fd0caa93c0e079e1386952d6b",
      "transactionIndex": "0x7",
      "blockHash": "0x0aae9c3a2df7ebece524147edd6359574ce2a5b0291043a22251d40d4a0e0d6d",
      "blockNumber": "0x9b841e0",
      "gasUsed": "0xd41d",
      "effectiveGasPrice": "0x66720b300",
      "from": "0x6faff29226219756aa40ce648dbc65fb41de5f72",
      "to": "0x6ef551c906ee7e658ec73471399d9c21fda0df18",
      "contractAddress": null
    }
  ],
  "libraries": [],
  "pending": [],
  "returns": {},
  "timestamp": 1724652089,
  "chain": 1001,
  "commit": "4bda3ce"
}