{
  "transactions": [
    {
      "hash": "0x84af6590af9ec7d125ead781d6933610e4bf8866bbe23bb4950bd3bc127466f5",
      "transactionType": "CREATE",
      "contractName": "RaidTreasury",
      "contractAddress": "0x3a81760b13e46f38746cd491ee30402df8d3127c",
      "function": null,
      "arguments": null,
      "transaction": {
        "from": "0x6faff29226219756aa40ce648dbc65fb41de5f72",
        "gas": "0xa4c0c",
        "value": "0x0",
        "input": "0x6080604052600180547332bf51fa408a0ee9b7a414c6a793760caf0861186001600160a01b031991821681179092556002805490911690911790553480156044575f80fd5b50600380546001600160a01b031916339081179091555f90815260208190526040902069021e19e0c9bab24000009055610381806100815f395ff3fe608060405260043610610057575f3560e01c80632d809cb61461009b5780633ccfd60b146100d95780638da5cb5b146100ef578063d7bb99ba14610126578063f10fdf5c1461012e578063fbec6f211461014e575f80fd5b36610097575f341180156100785750335f9081526020819052604090205415155b610080575f80fd5b600380546001600160a01b03191633908117909155005b5f80fd5b3480156100a6575f80fd5b506100c66100b53660046102ec565b5f6020819052908152604090205481565b6040519081526020015b60405180910390f35b3480156100e4575f80fd5b506100ed61016d565b005b3480156100fa575f80fd5b5060035461010e906001600160a01b031681565b6040516001600160a01b0390911681526020016100d0565b6100ed61027b565b348015610139575f80fd5b50335f908152602081905260409020546100c6565b348015610159575f80fd5b5060025461010e906001600160a01b031681565b6003546001600160a01b0316331461019857604051636db2465f60e01b815260040160405180910390fd5b6002546040516370a0823160e01b81523060048201526001600160a01b039091169063a9059cbb90339083906370a0823190602401602060405180830381865afa1580156101e8573d5f803e3d5ffd5b505050506040513d601f19601f8201168201806040525081019061020c9190610319565b6040516001600160e01b031960e085901b1681526001600160a01b03909216600483015260248201526044016020604051808303815f875af1158015610254573d5f803e3d5ffd5b505050506040513d601f19601f820116820180604052508101906102789190610330565b50565b66038d7ea4c68000341061028d575f80fd5b335f90815260208190526040812080543492906102ab90849061034f565b90915550506003546001600160a01b03165f908152602081905260408082205433835291205411156102ea57600380546001600160a01b031916331790555b565b5f602082840312156102fc575f80fd5b81356001600160a01b0381168114610312575f80fd5b9392505050565b5f60208284031215610329575f80fd5b5051919050565b5f60208284031215610340575f80fd5b81518015158114610312575f80fd5b8082018082111561036e57634e487b7160e01b5f52601160045260245ffd5b9291505056fea164736f6c6343000819000a",
        "nonce": "0x3ee",
        "chainId": "0x3e9"
      },
      "additionalContracts": [],
      "isFixedGasLimit": false
    },
    {
      "hash": "0xd0a1cd77c4a79fcd676d2eb0f81c28cd861aca815ce407e3a7a00b8e21afd8a0",
      "transactionType": "CALL",
      "contractName": null,
      "contractAddress": "0x95ce14ee82410c4a7296205e0c663969703dc857",
      "function": "addTreasuryCastle(address)",
      "arguments": [
        "0x3A81760B13E46f38746Cd491ee30402df8D3127c"
      ],
      "transaction": {
        "from": "0x6faff29226219756aa40ce648dbc65fb41de5f72",
        "to": "0x95ce14ee82410c4a7296205e0c663969703dc857",
        "gas": "0x1a8a4",
        "value": "0x0",
        "input": "0x8deee1570000000000000000000000003a81760b13e46f38746cd491ee30402df8d3127c",
        "nonce": "0x3ef",
        "chainId": "0x3e9"
      },
      "additionalContracts": [],
      "isFixedGasLimit": false
    },
    {
      "hash": "0xd627055e23fe87b4409e969b1ad0d59abba99cb0c09221f8c210821c2fd249e1",
      "transactionType": "CREATE",
      "contractName": "RaidTreasury",
      "contractAddress": "0x390b5a45b109d29db0316f08135a1ed9dc39e1d4",
      "function": null,
      "arguments": null,
      "transaction": {
        "from": "0x6faff29226219756aa40ce648dbc65fb41de5f72",
        "gas": "0xa4c0c",
        "value": "0x0",
        "input": "0x6080604052600180547332bf51fa408a0ee9b7a414c6a793760caf0861186001600160a01b031991821681179092556002805490911690911790553480156044575f80fd5b50600380546001600160a01b031916339081179091555f90815260208190526040902069021e19e0c9bab24000009055610381806100815f395ff3fe608060405260043610610057575f3560e01c80632d809cb61461009b5780633ccfd60b146100d95780638da5cb5b146100ef578063d7bb99ba14610126578063f10fdf5c1461012e578063fbec6f211461014e575f80fd5b36610097575f341180156100785750335f9081526020819052604090205415155b610080575f80fd5b600380546001600160a01b03191633908117909155005b5f80fd5b3480156100a6575f80fd5b506100c66100b53660046102ec565b5f6020819052908152604090205481565b6040519081526020015b60405180910390f35b3480156100e4575f80fd5b506100ed61016d565b005b3480156100fa575f80fd5b5060035461010e906001600160a01b031681565b6040516001600160a01b0390911681526020016100d0565b6100ed61027b565b348015610139575f80fd5b50335f908152602081905260409020546100c6565b348015610159575f80fd5b5060025461010e906001600160a01b031681565b6003546001600160a01b0316331461019857604051636db2465f60e01b815260040160405180910390fd5b6002546040516370a0823160e01b81523060048201526001600160a01b039091169063a9059cbb90339083906370a0823190602401602060405180830381865afa1580156101e8573d5f803e3d5ffd5b505050506040513d601f19601f8201168201806040525081019061020c9190610319565b6040516001600160e01b031960e085901b1681526001600160a01b03909216600483015260248201526044016020604051808303815f875af1158015610254573d5f803e3d5ffd5b505050506040513d601f19601f820116820180604052508101906102789190610330565b50565b66038d7ea4c68000341061028d575f80fd5b335f90815260208190526040812080543492906102ab90849061034f565b90915550506003546001600160a01b03165f908152602081905260408082205433835291205411156102ea57600380546001600160a01b031916331790555b565b5f602082840312156102fc575f80fd5b81356001600160a01b0381168114610312575f80fd5b9392505050565b5f60208284031215610329575f80fd5b5051919050565b5f60208284031215610340575f80fd5b81518015158114610312575f80fd5b8082018082111561036e57634e487b7160e01b5f52601160045260245ffd5b9291505056fea164736f6c6343000819000a",
        "nonce": "0x3f0",
        "chainId": "0x3e9"
      },
      "additionalContracts": [],
      "isFixedGasLimit": false
    },
    {
      "hash": "0x1b728d42090095b22dd48b38b21c02248993d81100fe3bf674f568768a452516",
      "transactionType": "CALL",
      "contractName": null,
      "contractAddress": "0x95ce14ee82410c4a7296205e0c663969703dc857",
      "function": "addTreasuryCastle(address)",
      "arguments": [
        "0x390b5a45b109D29dB0316f08135a1ED9dC39E1D4"
      ],
      "transaction": {
        "from": "0x6faff29226219756aa40ce648dbc65fb41de5f72",
        "to": "0x95ce14ee82410c4a7296205e0c663969703dc857",
        "gas": "0x1a8a4",
        "value": "0x0",
        "input": "0x8deee157000000000000000000000000390b5a45b109d29db0316f08135a1ed9dc39e1d4",
        "nonce": "0x3f1",
        "chainId": "0x3e9"
      },
      "additionalContracts": [],
      "isFixedGasLimit": false
    },
    {
      "hash": "0x6359316998a2faf2a1d450c93cea38dc7252b09b1f556045bbfd4d10f79ca4e2",
      "transactionType": "CREATE",
      "contractName": "RaidTreasury",
      "contractAddress": "0xc5385c7cd4be3fa06f0ff504c85224c1b289bdd9",
      "function": null,
      "arguments": null,
      "transaction": {
        "from": "0x6faff29226219756aa40ce648dbc65fb41de5f72",
        "gas": "0xa4c0c",
        "value": "0x0",
        "input": "0x6080604052600180547332bf51fa408a0ee9b7a414c6a793760caf0861186001600160a01b031991821681179092556002805490911690911790553480156044575f80fd5b50600380546001600160a01b031916339081179091555f90815260208190526040902069021e19e0c9bab24000009055610381806100815f395ff3fe608060405260043610610057575f3560e01c80632d809cb61461009b5780633ccfd60b146100d95780638da5cb5b146100ef578063d7bb99ba14610126578063f10fdf5c1461012e578063fbec6f211461014e575f80fd5b36610097575f341180156100785750335f9081526020819052604090205415155b610080575f80fd5b600380546001600160a01b03191633908117909155005b5f80fd5b3480156100a6575f80fd5b506100c66100b53660046102ec565b5f6020819052908152604090205481565b6040519081526020015b60405180910390f35b3480156100e4575f80fd5b506100ed61016d565b005b3480156100fa575f80fd5b5060035461010e906001600160a01b031681565b6040516001600160a01b0390911681526020016100d0565b6100ed61027b565b348015610139575f80fd5b50335f908152602081905260409020546100c6565b348015610159575f80fd5b5060025461010e906001600160a01b031681565b6003546001600160a01b0316331461019857604051636db2465f60e01b815260040160405180910390fd5b6002546040516370a0823160e01b81523060048201526001600160a01b039091169063a9059cbb90339083906370a0823190602401602060405180830381865afa1580156101e8573d5f803e3d5ffd5b505050506040513d601f19601f8201168201806040525081019061020c9190610319565b6040516001600160e01b031960e085901b1681526001600160a01b03909216600483015260248201526044016020604051808303815f875af1158015610254573d5f803e3d5ffd5b505050506040513d601f19601f820116820180604052508101906102789190610330565b50565b66038d7ea4c68000341061028d575f80fd5b335f90815260208190526040812080543492906102ab90849061034f565b90915550506003546001600160a01b03165f908152602081905260408082205433835291205411156102ea57600380546001600160a01b031916331790555b565b5f602082840312156102fc575f80fd5b81356001600160a01b0381168114610312575f80fd5b9392505050565b5f60208284031215610329575f80fd5b5051919050565b5f60208284031215610340575f80fd5b81518015158114610312575f80fd5b8082018082111561036e57634e487b7160e01b5f52601160045260245ffd5b9291505056fea164736f6c6343000819000a",
        "nonce": "0x3f2",
        "chainId": "0x3e9"
      },
      "additionalContracts": [],
      "isFixedGasLimit": false
    },
    {
      "hash": "0x361946ea8053f20ce3c1e77430159535e6c482520affb4e0fbaefae9f8e86e31",
      "transactionType": "CALL",
      "contractName": null,
      "contractAddress": "0x95ce14ee82410c4a7296205e0c663969703dc857",
      "function": "addTreasuryCastle(address)",
      "arguments": [
        "0xC5385C7cd4BE3Fa06f0FF504C85224C1B289BDd9"
      ],
      "transaction": {
        "from": "0x6faff29226219756aa40ce648dbc65fb41de5f72",
        "to": "0x95ce14ee82410c4a7296205e0c663969703dc857",
        "gas": "0x1a8a4",
        "value": "0x0",
        "input": "0x8deee157000000000000000000000000c5385c7cd4be3fa06f0ff504c85224c1b289bdd9",
        "nonce": "0x3f3",
        "chainId": "0x3e9"
      },
      "additionalContracts": [],
      "isFixedGasLimit": false
    },
    {
      "hash": "0x2e1e1b893b0985b0e266ef25e17a47850bac6f5643b516843c500bbe04fcf598",
      "transactionType": "CREATE",
      "contractName": "RaidTreasury",
      "contractAddress": "0x7e806775bac5b5b6256f168ad582994fe29a26e7",
      "function": null,
      "arguments": null,
      "transaction": {
        "from": "0x6faff29226219756aa40ce648dbc65fb41de5f72",
        "gas": "0xa4c0c",
        "value": "0x0",
        "input": "0x6080604052600180547332bf51fa408a0ee9b7a414c6a793760caf0861186001600160a01b031991821681179092556002805490911690911790553480156044575f80fd5b50600380546001600160a01b031916339081179091555f90815260208190526040902069021e19e0c9bab24000009055610381806100815f395ff3fe608060405260043610610057575f3560e01c80632d809cb61461009b5780633ccfd60b146100d95780638da5cb5b146100ef578063d7bb99ba14610126578063f10fdf5c1461012e578063fbec6f211461014e575f80fd5b36610097575f341180156100785750335f9081526020819052604090205415155b610080575f80fd5b600380546001600160a01b03191633908117909155005b5f80fd5b3480156100a6575f80fd5b506100c66100b53660046102ec565b5f6020819052908152604090205481565b6040519081526020015b60405180910390f35b3480156100e4575f80fd5b506100ed61016d565b005b3480156100fa575f80fd5b5060035461010e906001600160a01b031681565b6040516001600160a01b0390911681526020016100d0565b6100ed61027b565b348015610139575f80fd5b50335f908152602081905260409020546100c6565b348015610159575f80fd5b5060025461010e906001600160a01b031681565b6003546001600160a01b0316331461019857604051636db2465f60e01b815260040160405180910390fd5b6002546040516370a0823160e01b81523060048201526001600160a01b039091169063a9059cbb90339083906370a0823190602401602060405180830381865afa1580156101e8573d5f803e3d5ffd5b505050506040513d601f19601f8201168201806040525081019061020c9190610319565b6040516001600160e01b031960e085901b1681526001600160a01b03909216600483015260248201526044016020604051808303815f875af1158015610254573d5f803e3d5ffd5b505050506040513d601f19601f820116820180604052508101906102789190610330565b50565b66038d7ea4c68000341061028d575f80fd5b335f90815260208190526040812080543492906102ab90849061034f565b90915550506003546001600160a01b03165f908152602081905260408082205433835291205411156102ea57600380546001600160a01b031916331790555b565b5f602082840312156102fc575f80fd5b81356001600160a01b0381168114610312575f80fd5b9392505050565b5f60208284031215610329575f80fd5b5051919050565b5f60208284031215610340575f80fd5b81518015158114610312575f80fd5b8082018082111561036e57634e487b7160e01b5f52601160045260245ffd5b9291505056fea164736f6c6343000819000a",
        "nonce": "0x3f4",
        "chainId": "0x3e9"
      },
      "additionalContracts": [],
      "isFixedGasLimit": false
    },
    {
      "hash": "0x2d2e2f254d999e20d8ee82e718feb4e614dfbacace1db7ba7a51ac6101e02674",
      "transactionType": "CALL",
      "contractName": null,
      "contractAddress": "0x95ce14ee82410c4a7296205e0c663969703dc857",
      "function": "addTreasuryCastle(address)",
      "arguments": [
        "0x7E806775bAC5b5b6256f168aD582994fe29A26E7"
      ],
      "transaction": {
        "from": "0x6faff29226219756aa40ce648dbc65fb41de5f72",
        "to": "0x95ce14ee82410c4a7296205e0c663969703dc857",
        "gas": "0x1a8a4",
        "value": "0x0",
        "input": "0x8deee1570000000000000000000000007e806775bac5b5b6256f168ad582994fe29a26e7",
        "nonce": "0x3f5",
        "chainId": "0x3e9"
      },
      "additionalContracts": [],
      "isFixedGasLimit": false
    },
    {
      "hash": "0x9b2023bd1c49924caf96cf65ce64b53fb9753959a4ed2f6cc0cc57d1ba0447c9",
      "transactionType": "CREATE",
      "contractName": "RaidTreasury",
      "contractAddress": "0x8855437ebef5777423c3cd5ad9a49e45e93f1698",
      "function": null,
      "arguments": null,
      "transaction": {
        "from": "0x6faff29226219756aa40ce648dbc65fb41de5f72",
        "gas": "0xa4c0c",
        "value": "0x0",
        "input": "0x6080604052600180547332bf51fa408a0ee9b7a414c6a793760caf0861186001600160a01b031991821681179092556002805490911690911790553480156044575f80fd5b50600380546001600160a01b031916339081179091555f90815260208190526040902069021e19e0c9bab24000009055610381806100815f395ff3fe608060405260043610610057575f3560e01c80632d809cb61461009b5780633ccfd60b146100d95780638da5cb5b146100ef578063d7bb99ba14610126578063f10fdf5c1461012e578063fbec6f211461014e575f80fd5b36610097575f341180156100785750335f9081526020819052604090205415155b610080575f80fd5b600380546001600160a01b03191633908117909155005b5f80fd5b3480156100a6575f80fd5b506100c66100b53660046102ec565b5f6020819052908152604090205481565b6040519081526020015b60405180910390f35b3480156100e4575f80fd5b506100ed61016d565b005b3480156100fa575f80fd5b5060035461010e906001600160a01b031681565b6040516001600160a01b0390911681526020016100d0565b6100ed61027b565b348015610139575f80fd5b50335f908152602081905260409020546100c6565b348015610159575f80fd5b5060025461010e906001600160a01b031681565b6003546001600160a01b0316331461019857604051636db2465f60e01b815260040160405180910390fd5b6002546040516370a0823160e01b81523060048201526001600160a01b039091169063a9059cbb90339083906370a0823190602401602060405180830381865afa1580156101e8573d5f803e3d5ffd5b505050506040513d601f19601f8201168201806040525081019061020c9190610319565b6040516001600160e01b031960e085901b1681526001600160a01b03909216600483015260248201526044016020604051808303815f875af1158015610254573d5f803e3d5ffd5b505050506040513d601f19601f820116820180604052508101906102789190610330565b50565b66038d7ea4c68000341061028d575f80fd5b335f90815260208190526040812080543492906102ab90849061034f565b90915550506003546001600160a01b03165f908152602081905260408082205433835291205411156102ea57600380546001600160a01b031916331790555b565b5f602082840312156102fc575f80fd5b81356001600160a01b0381168114610312575f80fd5b9392505050565b5f60208284031215610329575f80fd5b5051919050565b5f60208284031215610340575f80fd5b81518015158114610312575f80fd5b8082018082111561036e57634e487b7160e01b5f52601160045260245ffd5b9291505056fea164736f6c6343000819000a",
        "nonce": "0x3f6",
        "chainId": "0x3e9"
      },
      "additionalContracts": [],
      "isFixedGasLimit": false
    },
    {
      "hash": "0x3d4b17101066d57bfe096565e05f7eb9253af82083547ee9c13d58cba67c90b2",
      "transactionType": "CALL",
      "contractName": null,
      "contractAddress": "0x95ce14ee82410c4a7296205e0c663969703dc857",
      "function": "addTreasuryCastle(address)",
      "arguments": [
        "0x8855437ebEF5777423C3cd5AD9A49e45E93f1698"
      ],
      "transaction": {
        "from": "0x6faff29226219756aa40ce648dbc65fb41de5f72",
        "to": "0x95ce14ee82410c4a7296205e0c663969703dc857",
        "gas": "0x1a8a4",
        "value": "0x0",
        "input": "0x8deee1570000000000000000000000008855437ebef5777423c3cd5ad9a49e45e93f1698",
        "nonce": "0x3f7",
        "chainId": "0x3e9"
      },
      "additionalContracts": [],
      "isFixedGasLimit": false
    },
    {
      "hash": "0xc85187e4e8ceb804f975fffc014fa2b2bd5cd5f099b6854f29c28503d3ba92bf",
      "transactionType": "CREATE",
      "contractName": "RaidTreasury",
      "contractAddress": "0x804b3671903fe41e95e8459eba99e793f683e5f4",
      "function": null,
      "arguments": null,
      "transaction": {
        "from": "0x6faff29226219756aa40ce648dbc65fb41de5f72",
        "gas": "0xa4c0c",
        "value": "0x0",
        "input": "0x6080604052600180547332bf51fa408a0ee9b7a414c6a793760caf0861186001600160a01b031991821681179092556002805490911690911790553480156044575f80fd5b50600380546001600160a01b031916339081179091555f90815260208190526040902069021e19e0c9bab24000009055610381806100815f395ff3fe608060405260043610610057575f3560e01c80632d809cb61461009b5780633ccfd60b146100d95780638da5cb5b146100ef578063d7bb99ba14610126578063f10fdf5c1461012e578063fbec6f211461014e575f80fd5b36610097575f341180156100785750335f9081526020819052604090205415155b610080575f80fd5b600380546001600160a01b03191633908117909155005b5f80fd5b3480156100a6575f80fd5b506100c66100b53660046102ec565b5f6020819052908152604090205481565b6040519081526020015b60405180910390f35b3480156100e4575f80fd5b506100ed61016d565b005b3480156100fa575f80fd5b5060035461010e906001600160a01b031681565b6040516001600160a01b0390911681526020016100d0565b6100ed61027b565b348015610139575f80fd5b50335f908152602081905260409020546100c6565b348015610159575f80fd5b5060025461010e906001600160a01b031681565b6003546001600160a01b0316331461019857604051636db2465f60e01b815260040160405180910390fd5b6002546040516370a0823160e01b81523060048201526001600160a01b039091169063a9059cbb90339083906370a0823190602401602060405180830381865afa1580156101e8573d5f803e3d5ffd5b505050506040513d601f19601f8201168201806040525081019061020c9190610319565b6040516001600160e01b031960e085901b1681526001600160a01b03909216600483015260248201526044016020604051808303815f875af1158015610254573d5f803e3d5ffd5b505050506040513d601f19601f820116820180604052508101906102789190610330565b50565b66038d7ea4c68000341061028d575f80fd5b335f90815260208190526040812080543492906102ab90849061034f565b90915550506003546001600160a01b03165f908152602081905260408082205433835291205411156102ea57600380546001600160a01b031916331790555b565b5f602082840312156102fc575f80fd5b81356001600160a01b0381168114610312575f80fd5b9392505050565b5f60208284031215610329575f80fd5b5051919050565b5f60208284031215610340575f80fd5b81518015158114610312575f80fd5b8082018082111561036e57634e487b7160e01b5f52601160045260245ffd5b9291505056fea164736f6c6343000819000a",
        "nonce": "0x3f8",
        "chainId": "0x3e9"
      },
      "additionalContracts": [],
      "isFixedGasLimit": false
    },
    {
      "hash": "0x792fb3791ea5ff90bb63b05ae4d2fa991e31b277a372b83bebb9ff56a7345393",
      "transactionType": "CALL",
      "contractName": null,
      "contractAddress": "0x95ce14ee82410c4a7296205e0c663969703dc857",
      "function": "addTreasuryCastle(address)",
      "arguments": [
        "0x804b3671903fE41e95E8459EbA99e793F683e5f4"
      ],
      "transaction": {
        "from": "0x6faff29226219756aa40ce648dbc65fb41de5f72",
        "to": "0x95ce14ee82410c4a7296205e0c663969703dc857",
        "gas": "0x1a8a4",
        "value": "0x0",
        "input": "0x8deee157000000000000000000000000804b3671903fe41e95e8459eba99e793f683e5f4",
        "nonce": "0x3f9",
        "chainId": "0x3e9"
      },
      "additionalContracts": [],
      "isFixedGasLimit": false
    },
    {
      "hash": "0x23d78e8c5119dddee960b5c203eb8d4dc324969c67d28bbe5bc6cba4a7304ef2",
      "transactionType": "CREATE",
      "contractName": "RaidTreasury",
      "contractAddress": "0x67e278525dd83f4237ac992597497ad8b3a92ce3",
      "function": null,
      "arguments": null,
      "transaction": {
        "from": "0x6faff29226219756aa40ce648dbc65fb41de5f72",
        "gas": "0xa4c0c",
        "value": "0x0",
        "input": "0x6080604052600180547332bf51fa408a0ee9b7a414c6a793760caf0861186001600160a01b031991821681179092556002805490911690911790553480156044575f80fd5b50600380546001600160a01b031916339081179091555f90815260208190526040902069021e19e0c9bab24000009055610381806100815f395ff3fe608060405260043610610057575f3560e01c80632d809cb61461009b5780633ccfd60b146100d95780638da5cb5b146100ef578063d7bb99ba14610126578063f10fdf5c1461012e578063fbec6f211461014e575f80fd5b36610097575f341180156100785750335f9081526020819052604090205415155b610080575f80fd5b600380546001600160a01b03191633908117909155005b5f80fd5b3480156100a6575f80fd5b506100c66100b53660046102ec565b5f6020819052908152604090205481565b6040519081526020015b60405180910390f35b3480156100e4575f80fd5b506100ed61016d565b005b3480156100fa575f80fd5b5060035461010e906001600160a01b031681565b6040516001600160a01b0390911681526020016100d0565b6100ed61027b565b348015610139575f80fd5b50335f908152602081905260409020546100c6565b348015610159575f80fd5b5060025461010e906001600160a01b031681565b6003546001600160a01b0316331461019857604051636db2465f60e01b815260040160405180910390fd5b6002546040516370a0823160e01b81523060048201526001600160a01b039091169063a9059cbb90339083906370a0823190602401602060405180830381865afa1580156101e8573d5f803e3d5ffd5b505050506040513d601f19601f8201168201806040525081019061020c9190610319565b6040516001600160e01b031960e085901b1681526001600160a01b03909216600483015260248201526044016020604051808303815f875af1158015610254573d5f803e3d5ffd5b505050506040513d601f19601f820116820180604052508101906102789190610330565b50565b66038d7ea4c68000341061028d575f80fd5b335f90815260208190526040812080543492906102ab90849061034f565b90915550506003546001600160a01b03165f908152602081905260408082205433835291205411156102ea57600380546001600160a01b031916331790555b565b5f602082840312156102fc575f80fd5b81356001600160a01b0381168114610312575f80fd5b9392505050565b5f60208284031215610329575f80fd5b5051919050565b5f60208284031215610340575f80fd5b81518015158114610312575f80fd5b8082018082111561036e57634e487b7160e01b5f52601160045260245ffd5b9291505056fea164736f6c6343000819000a",
        "nonce": "0x3fa",
        "chainId": "0x3e9"
      },
      "additionalContracts": [],
      "isFixedGasLimit": false
    },
    {
      "hash": "0x4b44ee3bd6977ea20ec338383d948dcdce3588549a9b5f153f35877ead100406",
      "transactionType": "CALL",
      "contractName": null,
      "contractAddress": "0x95ce14ee82410c4a7296205e0c663969703dc857",
      "function": "addTreasuryCastle(address)",
      "arguments": [
        "0x67e278525dD83f4237AC992597497aD8b3a92Ce3"
      ],
      "transaction": {
        "from": "0x6faff29226219756aa40ce648dbc65fb41de5f72",
        "to": "0x95ce14ee82410c4a7296205e0c663969703dc857",
        "gas": "0x1a8a4",
        "value": "0x0",
        "input": "0x8deee15700000000000000000000000067e278525dd83f4237ac992597497ad8b3a92ce3",
        "nonce": "0x3fb",
        "chainId": "0x3e9"
      },
      "additionalContracts": [],
      "isFixedGasLimit": false
    },
    {
      "hash": "0x8722bc68028b162c51f1214663390cde1fb4a14f31ac5f0434936d5b837551a8",
      "transactionType": "CREATE",
      "contractName": "RaidTreasury",
      "contractAddress": "0xb6ffb5e85bcecbc3deac055a98548b688bf89e4a",
      "function": null,
      "arguments": null,
      "transaction": {
        "from": "0x6faff29226219756aa40ce648dbc65fb41de5f72",
        "gas": "0xa4c0c",
        "value": "0x0",
        "input": "0x6080604052600180547332bf51fa408a0ee9b7a414c6a793760caf0861186001600160a01b031991821681179092556002805490911690911790553480156044575f80fd5b50600380546001600160a01b031916339081179091555f90815260208190526040902069021e19e0c9bab24000009055610381806100815f395ff3fe608060405260043610610057575f3560e01c80632d809cb61461009b5780633ccfd60b146100d95780638da5cb5b146100ef578063d7bb99ba14610126578063f10fdf5c1461012e578063fbec6f211461014e575f80fd5b36610097575f341180156100785750335f9081526020819052604090205415155b610080575f80fd5b600380546001600160a01b03191633908117909155005b5f80fd5b3480156100a6575f80fd5b506100c66100b53660046102ec565b5f6020819052908152604090205481565b6040519081526020015b60405180910390f35b3480156100e4575f80fd5b506100ed61016d565b005b3480156100fa575f80fd5b5060035461010e906001600160a01b031681565b6040516001600160a01b0390911681526020016100d0565b6100ed61027b565b348015610139575f80fd5b50335f908152602081905260409020546100c6565b348015610159575f80fd5b5060025461010e906001600160a01b031681565b6003546001600160a01b0316331461019857604051636db2465f60e01b815260040160405180910390fd5b6002546040516370a0823160e01b81523060048201526001600160a01b039091169063a9059cbb90339083906370a0823190602401602060405180830381865afa1580156101e8573d5f803e3d5ffd5b505050506040513d601f19601f8201168201806040525081019061020c9190610319565b6040516001600160e01b031960e085901b1681526001600160a01b03909216600483015260248201526044016020604051808303815f875af1158015610254573d5f803e3d5ffd5b505050506040513d601f19601f820116820180604052508101906102789190610330565b50565b66038d7ea4c68000341061028d575f80fd5b335f90815260208190526040812080543492906102ab90849061034f565b90915550506003546001600160a01b03165f908152602081905260408082205433835291205411156102ea57600380546001600160a01b031916331790555b565b5f602082840312156102fc575f80fd5b81356001600160a01b0381168114610312575f80fd5b9392505050565b5f60208284031215610329575f80fd5b5051919050565b5f60208284031215610340575f80fd5b81518015158114610312575f80fd5b8082018082111561036e57634e487b7160e01b5f52601160045260245ffd5b9291505056fea164736f6c6343000819000a",
        "nonce": "0x3fc",
        "chainId": "0x3e9"
      },
      "additionalContracts": [],
      "isFixedGasLimit": false
    },
    {
      "hash": "0x5e440a425d2c3a349a45866f307d9edf16919cf056f46391815f8e685664f7a3",
      "transactionType": "CALL",
      "contractName": null,
      "contractAddress": "0x95ce14ee82410c4a7296205e0c663969703dc857",
      "function": "addTreasuryCastle(address)",
      "arguments": [
        "0xb6Ffb5e85bceCbc3dEAC055a98548b688bF89e4A"
      ],
      "transaction": {
        "from": "0x6faff29226219756aa40ce648dbc65fb41de5f72",
        "to": "0x95ce14ee82410c4a7296205e0c663969703dc857",
        "gas": "0x1a8a4",
        "value": "0x0",
        "input": "0x8deee157000000000000000000000000b6ffb5e85bcecbc3deac055a98548b688bf89e4a",
        "nonce": "0x3fd",
        "chainId": "0x3e9"
      },
      "additionalContracts": [],
      "isFixedGasLimit": false
    },
    {
      "hash": "0x8866412d50a6c9378540708dc671ba01715ca79744498bcc7b0f269bdc047c9a",
      "transactionType": "CREATE",
      "contractName": "RaidTreasury",
      "contractAddress": "0xdc5c40815b2a7f3e337407296c23c8e28f7d0f26",
      "function": null,
      "arguments": null,
      "transaction": {
        "from": "0x6faff29226219756aa40ce648dbc65fb41de5f72",
        "gas": "0xa4c0c",
        "value": "0x0",
        "input": "0x6080604052600180547332bf51fa408a0ee9b7a414c6a793760caf0861186001600160a01b031991821681179092556002805490911690911790553480156044575f80fd5b50600380546001600160a01b031916339081179091555f90815260208190526040902069021e19e0c9bab24000009055610381806100815f395ff3fe608060405260043610610057575f3560e01c80632d809cb61461009b5780633ccfd60b146100d95780638da5cb5b146100ef578063d7bb99ba14610126578063f10fdf5c1461012e578063fbec6f211461014e575f80fd5b36610097575f341180156100785750335f9081526020819052604090205415155b610080575f80fd5b600380546001600160a01b03191633908117909155005b5f80fd5b3480156100a6575f80fd5b506100c66100b53660046102ec565b5f6020819052908152604090205481565b6040519081526020015b60405180910390f35b3480156100e4575f80fd5b506100ed61016d565b005b3480156100fa575f80fd5b5060035461010e906001600160a01b031681565b6040516001600160a01b0390911681526020016100d0565b6100ed61027b565b348015610139575f80fd5b50335f908152602081905260409020546100c6565b348015610159575f80fd5b5060025461010e906001600160a01b031681565b6003546001600160a01b0316331461019857604051636db2465f60e01b815260040160405180910390fd5b6002546040516370a0823160e01b81523060048201526001600160a01b039091169063a9059cbb90339083906370a0823190602401602060405180830381865afa1580156101e8573d5f803e3d5ffd5b505050506040513d601f19601f8201168201806040525081019061020c9190610319565b6040516001600160e01b031960e085901b1681526001600160a01b03909216600483015260248201526044016020604051808303815f875af1158015610254573d5f803e3d5ffd5b505050506040513d601f19601f820116820180604052508101906102789190610330565b50565b66038d7ea4c68000341061028d575f80fd5b335f90815260208190526040812080543492906102ab90849061034f565b90915550506003546001600160a01b03165f908152602081905260408082205433835291205411156102ea57600380546001600160a01b031916331790555b565b5f602082840312156102fc575f80fd5b81356001600160a01b0381168114610312575f80fd5b9392505050565b5f60208284031215610329575f80fd5b5051919050565b5f60208284031215610340575f80fd5b81518015158114610312575f80fd5b8082018082111561036e57634e487b7160e01b5f52601160045260245ffd5b9291505056fea164736f6c6343000819000a",
        "nonce": "0x3fe",
        "chainId": "0x3e9"
      },
      "additionalContracts": [],
      "isFixedGasLimit": false
    },
    {
      "hash": "0xaa2b1997e935c1c0f873ee59d7758071970d4eb586d01ba2c61026b8eea6202f",
      "transactionType": "CALL",
      "contractName": null,
      "contractAddress": "0x95ce14ee82410c4a7296205e0c663969703dc857",
      "function": "addTreasuryCastle(address)",
      "arguments": [
        "0xDC5C40815B2A7f3E337407296c23c8e28f7d0F26"
      ],
      "transaction": {
        "from": "0x6faff29226219756aa40ce648dbc65fb41de5f72",
        "to": "0x95ce14ee82410c4a7296205e0c663969703dc857",
        "gas": "0x1a8a4",
        "value": "0x0",
        "input": "0x8deee157000000000000000000000000dc5c40815b2a7f3e337407296c23c8e28f7d0f26",
        "nonce": "0x3ff",
        "chainId": "0x3e9"
      },
      "additionalContracts": [],
      "isFixedGasLimit": false
    },
    {
      "hash": "0xbc8267907ad2405658947cbff9e1728722f181207fece0df7151e2fbb51e12ee",
      "transactionType": "CREATE",
      "contractName": "RaidTreasury",
      "contractAddress": "0xe647c6820d845173ae48f60f3d5954d7a3726c98",
      "function": null,
      "arguments": null,
      "transaction": {
        "from": "0x6faff29226219756aa40ce648dbc65fb41de5f72",
        "gas": "0xa4c0c",
        "value": "0x0",
        "input": "0x6080604052600180547332bf51fa408a0ee9b7a414c6a793760caf0861186001600160a01b031991821681179092556002805490911690911790553480156044575f80fd5b50600380546001600160a01b031916339081179091555f90815260208190526040902069021e19e0c9bab24000009055610381806100815f395ff3fe608060405260043610610057575f3560e01c80632d809cb61461009b5780633ccfd60b146100d95780638da5cb5b146100ef578063d7bb99ba14610126578063f10fdf5c1461012e578063fbec6f211461014e575f80fd5b36610097575f341180156100785750335f9081526020819052604090205415155b610080575f80fd5b600380546001600160a01b03191633908117909155005b5f80fd5b3480156100a6575f80fd5b506100c66100b53660046102ec565b5f6020819052908152604090205481565b6040519081526020015b60405180910390f35b3480156100e4575f80fd5b506100ed61016d565b005b3480156100fa575f80fd5b5060035461010e906001600160a01b031681565b6040516001600160a01b0390911681526020016100d0565b6100ed61027b565b348015610139575f80fd5b50335f908152602081905260409020546100c6565b348015610159575f80fd5b5060025461010e906001600160a01b031681565b6003546001600160a01b0316331461019857604051636db2465f60e01b815260040160405180910390fd5b6002546040516370a0823160e01b81523060048201526001600160a01b039091169063a9059cbb90339083906370a0823190602401602060405180830381865afa1580156101e8573d5f803e3d5ffd5b505050506040513d601f19601f8201168201806040525081019061020c9190610319565b6040516001600160e01b031960e085901b1681526001600160a01b03909216600483015260248201526044016020604051808303815f875af1158015610254573d5f803e3d5ffd5b505050506040513d601f19601f820116820180604052508101906102789190610330565b50565b66038d7ea4c68000341061028d575f80fd5b335f90815260208190526040812080543492906102ab90849061034f565b90915550506003546001600160a01b03165f908152602081905260408082205433835291205411156102ea57600380546001600160a01b031916331790555b565b5f602082840312156102fc575f80fd5b81356001600160a01b0381168114610312575f80fd5b9392505050565b5f60208284031215610329575f80fd5b5051919050565b5f60208284031215610340575f80fd5b81518015158114610312575f80fd5b8082018082111561036e57634e487b7160e01b5f52601160045260245ffd5b9291505056fea164736f6c6343000819000a",
        "nonce": "0x400",
        "chainId": "0x3e9"
      },
      "additionalContracts": [],
      "isFixedGasLimit": false
    },
    {
      "hash": "0x3a51d6fe914cbc1821ff445939eafefa46a53c610fb0b1ae54eaaa812730f339",
      "transactionType": "CALL",
      "contractName": null,
      "contractAddress": "0x95ce14ee82410c4a7296205e0c663969703dc857",
      "function": "addTreasuryCastle(address)",
      "arguments": [
        "0xe647C6820D845173aE48F60f3D5954D7A3726c98"
      ],
      "transaction": {
        "from": "0x6faff29226219756aa40ce648dbc65fb41de5f72",
        "to": "0x95ce14ee82410c4a7296205e0c663969703dc857",
        "gas": "0x1a8a4",
        "value": "0x0",
        "input": "0x8deee157000000000000000000000000e647c6820d845173ae48f60f3d5954d7a3726c98",
        "nonce": "0x401",
        "chainId": "0x3e9"
      },
      "additionalContracts": [],
      "isFixedGasLimit": false
    }
  ],
  "receipts": [
    {
      "status": "0x1",
      "cumulativeGasUsed": "0x677ce",
      "logs": [],
      "logsBloom": "0x00000000000000000000000000000000000000000000000000000000000000000000000000000000000000000000000000000000000000000000000000000000000000000000000000000000000000000000000000000000000000000000000000000000000000000000000000000000000000000000000000000000000000000000000000000000000000000000000000000000000000000000000000000000000000000000000000000000000000000000000000000000000000000000000000000000000000000000000000000000000000000000000000000000000000000000000000000000000000000000000000000000000000000000000000000000",
      "type": "0x2",
      "transactionHash": "0x84af6590af9ec7d125ead781d6933610e4bf8866bbe23bb4950bd3bc127466f5",
      "transactionIndex": "0x0",
      "blockHash": "0x566daec2187e88812ff05930a26e2d4048b1b16cc54306e986bc75fb39ffaaa6",
      "blockNumber": "0x9be1191",
      "gasUsed": "0x677ce",
      "effectiveGasPrice": "0x66720b300",
      "from": "0x6faff29226219756aa40ce648dbc65fb41de5f72",
      "to": null,
      "contractAddress": "0x3a81760b13e46f38746cd491ee30402df8d3127c"
    },
    {
      "status": "0x1",
      "cumulativeGasUsed": "0xd435",
      "logs": [],
      "logsBloom": "0x00000000000000000000000000000000000000000000000000000000000000000000000000000000000000000000000000000000000000000000000000000000000000000000000000000000000000000000000000000000000000000000000000000000000000000000000000000000000000000000000000000000000000000000000000000000000000000000000000000000000000000000000000000000000000000000000000000000000000000000000000000000000000000000000000000000000000000000000000000000000000000000000000000000000000000000000000000000000000000000000000000000000000000000000000000000",
      "type": "0x2",
      "transactionHash": "0xd0a1cd77c4a79fcd676d2eb0f81c28cd861aca815ce407e3a7a00b8e21afd8a0",
      "transactionIndex": "0x0",
      "blockHash": "0x12c083753dadc77ed6449f25cb837a508d88f921e0fceebbe43c59cd7fcee303",
      "blockNumber": "0x9be1192",
      "gasUsed": "0xd435",
      "effectiveGasPrice": "0x66720b300",
      "from": "0x6faff29226219756aa40ce648dbc65fb41de5f72",
      "to": "0x95ce14ee82410c4a7296205e0c663969703dc857",
      "contractAddress": null
    },
    {
      "status": "0x1",
      "cumulativeGasUsed": "0x74c03",
      "logs": [],
      "logsBloom": "0x00000000000000000000000000000000000000000000000000000000000000000000000000000000000000000000000000000000000000000000000000000000000000000000000000000000000000000000000000000000000000000000000000000000000000000000000000000000000000000000000000000000000000000000000000000000000000000000000000000000000000000000000000000000000000000000000000000000000000000000000000000000000000000000000000000000000000000000000000000000000000000000000000000000000000000000000000000000000000000000000000000000000000000000000000000000",
      "type": "0x2",
      "transactionHash": "0xd627055e23fe87b4409e969b1ad0d59abba99cb0c09221f8c210821c2fd249e1",
      "transactionIndex": "0x1",
      "blockHash": "0x12c083753dadc77ed6449f25cb837a508d88f921e0fceebbe43c59cd7fcee303",
      "blockNumber": "0x9be1192",
      "gasUsed": "0x677ce",
      "effectiveGasPrice": "0x66720b300",
      "from": "0x6faff29226219756aa40ce648dbc65fb41de5f72",
      "to": null,
      "contractAddress": "0x390b5a45b109d29db0316f08135a1ed9dc39e1d4"
    },
    {
      "status": "0x1",
      "cumulativeGasUsed": "0x82038",
      "logs": [],
      "logsBloom": "0x00000000000000000000000000000000000000000000000000000000000000000000000000000000000000000000000000000000000000000000000000000000000000000000000000000000000000000000000000000000000000000000000000000000000000000000000000000000000000000000000000000000000000000000000000000000000000000000000000000000000000000000000000000000000000000000000000000000000000000000000000000000000000000000000000000000000000000000000000000000000000000000000000000000000000000000000000000000000000000000000000000000000000000000000000000000",
      "type": "0x2",
      "transactionHash": "0x1b728d42090095b22dd48b38b21c02248993d81100fe3bf674f568768a452516",
      "transactionIndex": "0x2",
      "blockHash": "0x12c083753dadc77ed6449f25cb837a508d88f921e0fceebbe43c59cd7fcee303",
      "blockNumber": "0x9be1192",
      "gasUsed": "0xd435",
      "effectiveGasPrice": "0x66720b300",
      "from": "0x6faff29226219756aa40ce648dbc65fb41de5f72",
      "to": "0x95ce14ee82410c4a7296205e0c663969703dc857",
      "contractAddress": null
    },
    {
      "status": "0x1",
      "cumulativeGasUsed": "0xe9806",
      "logs": [],
      "logsBloom": "0x00000000000000000000000000000000000000000000000000000000000000000000000000000000000000000000000000000000000000000000000000000000000000000000000000000000000000000000000000000000000000000000000000000000000000000000000000000000000000000000000000000000000000000000000000000000000000000000000000000000000000000000000000000000000000000000000000000000000000000000000000000000000000000000000000000000000000000000000000000000000000000000000000000000000000000000000000000000000000000000000000000000000000000000000000000000",
      "type": "0x2",
      "transactionHash": "0x6359316998a2faf2a1d450c93cea38dc7252b09b1f556045bbfd4d10f79ca4e2",
      "transactionIndex": "0x3",
      "blockHash": "0x12c083753dadc77ed6449f25cb837a508d88f921e0fceebbe43c59cd7fcee303",
      "blockNumber": "0x9be1192",
      "gasUsed": "0x677ce",
      "effectiveGasPrice": "0x66720b300",
      "from": "0x6faff29226219756aa40ce648dbc65fb41de5f72",
      "to": null,
      "contractAddress": "0xc5385c7cd4be3fa06f0ff504c85224c1b289bdd9"
    },
    {
      "status": "0x1",
      "cumulativeGasUsed": "0xf6c3b",
      "logs": [],
      "logsBloom": "0x00000000000000000000000000000000000000000000000000000000000000000000000000000000000000000000000000000000000000000000000000000000000000000000000000000000000000000000000000000000000000000000000000000000000000000000000000000000000000000000000000000000000000000000000000000000000000000000000000000000000000000000000000000000000000000000000000000000000000000000000000000000000000000000000000000000000000000000000000000000000000000000000000000000000000000000000000000000000000000000000000000000000000000000000000000000",
      "type": "0x2",
      "transactionHash": "0x361946ea8053f20ce3c1e77430159535e6c482520affb4e0fbaefae9f8e86e31",
      "transactionIndex": "0x4",
      "blockHash": "0x12c083753dadc77ed6449f25cb837a508d88f921e0fceebbe43c59cd7fcee303",
      "blockNumber": "0x9be1192",
      "gasUsed": "0xd435",
      "effectiveGasPrice": "0x66720b300",
      "from": "0x6faff29226219756aa40ce648dbc65fb41de5f72",
      "to": "0x95ce14ee82410c4a7296205e0c663969703dc857",
      "contractAddress": null
    },
    {
      "status": "0x1",
      "cumulativeGasUsed": "0x15e409",
      "logs": [],
      "logsBloom": "0x00000000000000000000000000000000000000000000000000000000000000000000000000000000000000000000000000000000000000000000000000000000000000000000000000000000000000000000000000000000000000000000000000000000000000000000000000000000000000000000000000000000000000000000000000000000000000000000000000000000000000000000000000000000000000000000000000000000000000000000000000000000000000000000000000000000000000000000000000000000000000000000000000000000000000000000000000000000000000000000000000000000000000000000000000000000",
      "type": "0x2",
      "transactionHash": "0x2e1e1b893b0985b0e266ef25e17a47850bac6f5643b516843c500bbe04fcf598",
      "transactionIndex": "0x5",
      "blockHash": "0x12c083753dadc77ed6449f25cb837a508d88f921e0fceebbe43c59cd7fcee303",
      "blockNumber": "0x9be1192",
      "gasUsed": "0x677ce",
      "effectiveGasPrice": "0x66720b300",
      "from": "0x6faff29226219756aa40ce648dbc65fb41de5f72",
      "to": null,
      "contractAddress": "0x7e806775bac5b5b6256f168ad582994fe29a26e7"
    },
    {
      "status": "0x1",
      "cumulativeGasUsed": "0x16b83e",
      "logs": [],
      "logsBloom": "0x00000000000000000000000000000000000000000000000000000000000000000000000000000000000000000000000000000000000000000000000000000000000000000000000000000000000000000000000000000000000000000000000000000000000000000000000000000000000000000000000000000000000000000000000000000000000000000000000000000000000000000000000000000000000000000000000000000000000000000000000000000000000000000000000000000000000000000000000000000000000000000000000000000000000000000000000000000000000000000000000000000000000000000000000000000000",
      "type": "0x2",
      "transactionHash": "0x2d2e2f254d999e20d8ee82e718feb4e614dfbacace1db7ba7a51ac6101e02674",
      "transactionIndex": "0x6",
      "blockHash": "0x12c083753dadc77ed6449f25cb837a508d88f921e0fceebbe43c59cd7fcee303",
      "blockNumber": "0x9be1192",
      "gasUsed": "0xd435",
      "effectiveGasPrice": "0x66720b300",
      "from": "0x6faff29226219756aa40ce648dbc65fb41de5f72",
      "to": "0x95ce14ee82410c4a7296205e0c663969703dc857",
      "contractAddress": null
    },
    {
      "status": "0x1",
      "cumulativeGasUsed": "0x1d300c",
      "logs": [],
      "logsBloom": "0x00000000000000000000000000000000000000000000000000000000000000000000000000000000000000000000000000000000000000000000000000000000000000000000000000000000000000000000000000000000000000000000000000000000000000000000000000000000000000000000000000000000000000000000000000000000000000000000000000000000000000000000000000000000000000000000000000000000000000000000000000000000000000000000000000000000000000000000000000000000000000000000000000000000000000000000000000000000000000000000000000000000000000000000000000000000",
      "type": "0x2",
      "transactionHash": "0x9b2023bd1c49924caf96cf65ce64b53fb9753959a4ed2f6cc0cc57d1ba0447c9",
      "transactionIndex": "0x7",
      "blockHash": "0x12c083753dadc77ed6449f25cb837a508d88f921e0fceebbe43c59cd7fcee303",
      "blockNumber": "0x9be1192",
      "gasUsed": "0x677ce",
      "effectiveGasPrice": "0x66720b300",
      "from": "0x6faff29226219756aa40ce648dbc65fb41de5f72",
      "to": null,
      "contractAddress": "0x8855437ebef5777423c3cd5ad9a49e45e93f1698"
    },
    {
      "status": "0x1",
      "cumulativeGasUsed": "0x1e0441",
      "logs": [],
      "logsBloom": "0x00000000000000000000000000000000000000000000000000000000000000000000000000000000000000000000000000000000000000000000000000000000000000000000000000000000000000000000000000000000000000000000000000000000000000000000000000000000000000000000000000000000000000000000000000000000000000000000000000000000000000000000000000000000000000000000000000000000000000000000000000000000000000000000000000000000000000000000000000000000000000000000000000000000000000000000000000000000000000000000000000000000000000000000000000000000",
      "type": "0x2",
      "transactionHash": "0x3d4b17101066d57bfe096565e05f7eb9253af82083547ee9c13d58cba67c90b2",
      "transactionIndex": "0x8",
      "blockHash": "0x12c083753dadc77ed6449f25cb837a508d88f921e0fceebbe43c59cd7fcee303",
      "blockNumber": "0x9be1192",
      "gasUsed": "0xd435",
      "effectiveGasPrice": "0x66720b300",
      "from": "0x6faff29226219756aa40ce648dbc65fb41de5f72",
      "to": "0x95ce14ee82410c4a7296205e0c663969703dc857",
      "contractAddress": null
    },
    {
      "status": "0x1",
      "cumulativeGasUsed": "0x247c0f",
      "logs": [],
      "logsBloom": "0x00000000000000000000000000000000000000000000000000000000000000000000000000000000000000000000000000000000000000000000000000000000000000000000000000000000000000000000000000000000000000000000000000000000000000000000000000000000000000000000000000000000000000000000000000000000000000000000000000000000000000000000000000000000000000000000000000000000000000000000000000000000000000000000000000000000000000000000000000000000000000000000000000000000000000000000000000000000000000000000000000000000000000000000000000000000",
      "type": "0x2",
      "transactionHash": "0xc85187e4e8ceb804f975fffc014fa2b2bd5cd5f099b6854f29c28503d3ba92bf",
      "transactionIndex": "0x9",
      "blockHash": "0x12c083753dadc77ed6449f25cb837a508d88f921e0fceebbe43c59cd7fcee303",
      "blockNumber": "0x9be1192",
      "gasUsed": "0x677ce",
      "effectiveGasPrice": "0x66720b300",
      "from": "0x6faff29226219756aa40ce648dbc65fb41de5f72",
      "to": null,
      "contractAddress": "0x804b3671903fe41e95e8459eba99e793f683e5f4"
    },
    {
      "status": "0x1",
      "cumulativeGasUsed": "0x255044",
      "logs": [],
      "logsBloom": "0x00000000000000000000000000000000000000000000000000000000000000000000000000000000000000000000000000000000000000000000000000000000000000000000000000000000000000000000000000000000000000000000000000000000000000000000000000000000000000000000000000000000000000000000000000000000000000000000000000000000000000000000000000000000000000000000000000000000000000000000000000000000000000000000000000000000000000000000000000000000000000000000000000000000000000000000000000000000000000000000000000000000000000000000000000000000",
      "type": "0x2",
      "transactionHash": "0x792fb3791ea5ff90bb63b05ae4d2fa991e31b277a372b83bebb9ff56a7345393",
      "transactionIndex": "0xa",
      "blockHash": "0x12c083753dadc77ed6449f25cb837a508d88f921e0fceebbe43c59cd7fcee303",
      "blockNumber": "0x9be1192",
      "gasUsed": "0xd435",
      "effectiveGasPrice": "0x66720b300",
      "from": "0x6faff29226219756aa40ce648dbc65fb41de5f72",
      "to": "0x95ce14ee82410c4a7296205e0c663969703dc857",
      "contractAddress": null
    },
    {
      "status": "0x1",
      "cumulativeGasUsed": "0x2bc812",
      "logs": [],
      "logsBloom": "0x00000000000000000000000000000000000000000000000000000000000000000000000000000000000000000000000000000000000000000000000000000000000000000000000000000000000000000000000000000000000000000000000000000000000000000000000000000000000000000000000000000000000000000000000000000000000000000000000000000000000000000000000000000000000000000000000000000000000000000000000000000000000000000000000000000000000000000000000000000000000000000000000000000000000000000000000000000000000000000000000000000000000000000000000000000000",
      "type": "0x2",
      "transactionHash": "0x23d78e8c5119dddee960b5c203eb8d4dc324969c67d28bbe5bc6cba4a7304ef2",
      "transactionIndex": "0xb",
      "blockHash": "0x12c083753dadc77ed6449f25cb837a508d88f921e0fceebbe43c59cd7fcee303",
      "blockNumber": "0x9be1192",
      "gasUsed": "0x677ce",
      "effectiveGasPrice": "0x66720b300",
      "from": "0x6faff29226219756aa40ce648dbc65fb41de5f72",
      "to": null,
      "contractAddress": "0x67e278525dd83f4237ac992597497ad8b3a92ce3"
    },
    {
      "status": "0x1",
      "cumulativeGasUsed": "0x2c9c47",
      "logs": [],
      "logsBloom": "0x00000000000000000000000000000000000000000000000000000000000000000000000000000000000000000000000000000000000000000000000000000000000000000000000000000000000000000000000000000000000000000000000000000000000000000000000000000000000000000000000000000000000000000000000000000000000000000000000000000000000000000000000000000000000000000000000000000000000000000000000000000000000000000000000000000000000000000000000000000000000000000000000000000000000000000000000000000000000000000000000000000000000000000000000000000000",
      "type": "0x2",
      "transactionHash": "0x4b44ee3bd6977ea20ec338383d948dcdce3588549a9b5f153f35877ead100406",
      "transactionIndex": "0xc",
      "blockHash": "0x12c083753dadc77ed6449f25cb837a508d88f921e0fceebbe43c59cd7fcee303",
      "blockNumber": "0x9be1192",
      "gasUsed": "0xd435",
      "effectiveGasPrice": "0x66720b300",
      "from": "0x6faff29226219756aa40ce648dbc65fb41de5f72",
      "to": "0x95ce14ee82410c4a7296205e0c663969703dc857",
      "contractAddress": null
    },
    {
      "status": "0x1",
      "cumulativeGasUsed": "0x331415",
      "logs": [],
      "logsBloom": "0x00000000000000000000000000000000000000000000000000000000000000000000000000000000000000000000000000000000000000000000000000000000000000000000000000000000000000000000000000000000000000000000000000000000000000000000000000000000000000000000000000000000000000000000000000000000000000000000000000000000000000000000000000000000000000000000000000000000000000000000000000000000000000000000000000000000000000000000000000000000000000000000000000000000000000000000000000000000000000000000000000000000000000000000000000000000",
      "type": "0x2",
      "transactionHash": "0x8722bc68028b162c51f1214663390cde1fb4a14f31ac5f0434936d5b837551a8",
      "transactionIndex": "0xd",
      "blockHash": "0x12c083753dadc77ed6449f25cb837a508d88f921e0fceebbe43c59cd7fcee303",
      "blockNumber": "0x9be1192",
      "gasUsed": "0x677ce",
      "effectiveGasPrice": "0x66720b300",
      "from": "0x6faff29226219756aa40ce648dbc65fb41de5f72",
      "to": null,
      "contractAddress": "0xb6ffb5e85bcecbc3deac055a98548b688bf89e4a"
    },
    {
      "status": "0x1",
      "cumulativeGasUsed": "0x33e84a",
      "logs": [],
      "logsBloom": "0x00000000000000000000000000000000000000000000000000000000000000000000000000000000000000000000000000000000000000000000000000000000000000000000000000000000000000000000000000000000000000000000000000000000000000000000000000000000000000000000000000000000000000000000000000000000000000000000000000000000000000000000000000000000000000000000000000000000000000000000000000000000000000000000000000000000000000000000000000000000000000000000000000000000000000000000000000000000000000000000000000000000000000000000000000000000",
      "type": "0x2",
      "transactionHash": "0x5e440a425d2c3a349a45866f307d9edf16919cf056f46391815f8e685664f7a3",
      "transactionIndex": "0xe",
      "blockHash": "0x12c083753dadc77ed6449f25cb837a508d88f921e0fceebbe43c59cd7fcee303",
      "blockNumber": "0x9be1192",
      "gasUsed": "0xd435",
      "effectiveGasPrice": "0x66720b300",
      "from": "0x6faff29226219756aa40ce648dbc65fb41de5f72",
      "to": "0x95ce14ee82410c4a7296205e0c663969703dc857",
      "contractAddress": null
    },
    {
      "status": "0x1",
      "cumulativeGasUsed": "0x3a6018",
      "logs": [],
      "logsBloom": "0x00000000000000000000000000000000000000000000000000000000000000000000000000000000000000000000000000000000000000000000000000000000000000000000000000000000000000000000000000000000000000000000000000000000000000000000000000000000000000000000000000000000000000000000000000000000000000000000000000000000000000000000000000000000000000000000000000000000000000000000000000000000000000000000000000000000000000000000000000000000000000000000000000000000000000000000000000000000000000000000000000000000000000000000000000000000",
      "type": "0x2",
      "transactionHash": "0x8866412d50a6c9378540708dc671ba01715ca79744498bcc7b0f269bdc047c9a",
      "transactionIndex": "0xf",
      "blockHash": "0x12c083753dadc77ed6449f25cb837a508d88f921e0fceebbe43c59cd7fcee303",
      "blockNumber": "0x9be1192",
      "gasUsed": "0x677ce",
      "effectiveGasPrice": "0x66720b300",
      "from": "0x6faff29226219756aa40ce648dbc65fb41de5f72",
      "to": null,
      "contractAddress": "0xdc5c40815b2a7f3e337407296c23c8e28f7d0f26"
    },
    {
      "status": "0x1",
      "cumulativeGasUsed": "0x3b344d",
      "logs": [],
      "logsBloom": "0x00000000000000000000000000000000000000000000000000000000000000000000000000000000000000000000000000000000000000000000000000000000000000000000000000000000000000000000000000000000000000000000000000000000000000000000000000000000000000000000000000000000000000000000000000000000000000000000000000000000000000000000000000000000000000000000000000000000000000000000000000000000000000000000000000000000000000000000000000000000000000000000000000000000000000000000000000000000000000000000000000000000000000000000000000000000",
      "type": "0x2",
      "transactionHash": "0xaa2b1997e935c1c0f873ee59d7758071970d4eb586d01ba2c61026b8eea6202f",
      "transactionIndex": "0x10",
      "blockHash": "0x12c083753dadc77ed6449f25cb837a508d88f921e0fceebbe43c59cd7fcee303",
      "blockNumber": "0x9be1192",
      "gasUsed": "0xd435",
      "effectiveGasPrice": "0x66720b300",
      "from": "0x6faff29226219756aa40ce648dbc65fb41de5f72",
      "to": "0x95ce14ee82410c4a7296205e0c663969703dc857",
      "contractAddress": null
    },
    {
      "status": "0x1",
      "cumulativeGasUsed": "0x41ac1b",
      "logs": [],
      "logsBloom": "0x00000000000000000000000000000000000000000000000000000000000000000000000000000000000000000000000000000000000000000000000000000000000000000000000000000000000000000000000000000000000000000000000000000000000000000000000000000000000000000000000000000000000000000000000000000000000000000000000000000000000000000000000000000000000000000000000000000000000000000000000000000000000000000000000000000000000000000000000000000000000000000000000000000000000000000000000000000000000000000000000000000000000000000000000000000000",
      "type": "0x2",
      "transactionHash": "0xbc8267907ad2405658947cbff9e1728722f181207fece0df7151e2fbb51e12ee",
      "transactionIndex": "0x11",
      "blockHash": "0x12c083753dadc77ed6449f25cb837a508d88f921e0fceebbe43c59cd7fcee303",
      "blockNumber": "0x9be1192",
      "gasUsed": "0x677ce",
      "effectiveGasPrice": "0x66720b300",
      "from": "0x6faff29226219756aa40ce648dbc65fb41de5f72",
      "to": null,
      "contractAddress": "0xe647c6820d845173ae48f60f3d5954d7a3726c98"
    },
    {
      "status": "0x1",
      "cumulativeGasUsed": "0x428050",
      "logs": [],
      "logsBloom": "0x00000000000000000000000000000000000000000000000000000000000000000000000000000000000000000000000000000000000000000000000000000000000000000000000000000000000000000000000000000000000000000000000000000000000000000000000000000000000000000000000000000000000000000000000000000000000000000000000000000000000000000000000000000000000000000000000000000000000000000000000000000000000000000000000000000000000000000000000000000000000000000000000000000000000000000000000000000000000000000000000000000000000000000000000000000000",
      "type": "0x2",
      "transactionHash": "0x3a51d6fe914cbc1821ff445939eafefa46a53c610fb0b1ae54eaaa812730f339",
      "transactionIndex": "0x12",
      "blockHash": "0x12c083753dadc77ed6449f25cb837a508d88f921e0fceebbe43c59cd7fcee303",
      "blockNumber": "0x9be1192",
      "gasUsed": "0xd435",
      "effectiveGasPrice": "0x66720b300",
      "from": "0x6faff29226219756aa40ce648dbc65fb41de5f72",
      "to": "0x95ce14ee82410c4a7296205e0c663969703dc857",
      "contractAddress": null
    }
  ],
  "libraries": [],
  "pending": [],
  "returns": {},
  "timestamp": 1725032936,
  "chain": 1001,
  "commit": "cd51cc8"
}