{
  "transactions": [
    {
      "hash": "0xbbf0a09c144a8ed49eefe7b19ea2654760204383b852e8a6a053c820b7071a81",
      "transactionType": "CREATE",
      "contractName": "RaidTreasury",
      "contractAddress": "0x52788c9a3a77b6236492e4f22a54059a4a3efb6f",
      "function": null,
      "arguments": null,
      "transaction": {
        "from": "0x6faff29226219756aa40ce648dbc65fb41de5f72",
        "gas": "0xa4c0c",
        "value": "0x0",
        "input": "0x6080604052600180547332bf51fa408a0ee9b7a414c6a793760caf0861186001600160a01b031991821681179092556002805490911690911790553480156044575f80fd5b50600380546001600160a01b031916339081179091555f90815260208190526040902069021e19e0c9bab24000009055610381806100815f395ff3fe608060405260043610610057575f3560e01c80632d809cb61461009b5780633ccfd60b146100d95780638da5cb5b146100ef578063d7bb99ba14610126578063f10fdf5c1461012e578063fbec6f211461014e575f80fd5b36610097575f341180156100785750335f9081526020819052604090205415155b610080575f80fd5b600380546001600160a01b03191633908117909155005b5f80fd5b3480156100a6575f80fd5b506100c66100b53660046102ec565b5f6020819052908152604090205481565b6040519081526020015b60405180910390f35b3480156100e4575f80fd5b506100ed61016d565b005b3480156100fa575f80fd5b5060035461010e906001600160a01b031681565b6040516001600160a01b0390911681526020016100d0565b6100ed61027b565b348015610139575f80fd5b50335f908152602081905260409020546100c6565b348015610159575f80fd5b5060025461010e906001600160a01b031681565b6003546001600160a01b0316331461019857604051636db2465f60e01b815260040160405180910390fd5b6002546040516370a0823160e01b81523060048201526001600160a01b039091169063a9059cbb90339083906370a0823190602401602060405180830381865afa1580156101e8573d5f803e3d5ffd5b505050506040513d601f19601f8201168201806040525081019061020c9190610319565b6040516001600160e01b031960e085901b1681526001600160a01b03909216600483015260248201526044016020604051808303815f875af1158015610254573d5f803e3d5ffd5b505050506040513d601f19601f820116820180604052508101906102789190610330565b50565b66038d7ea4c68000341061028d575f80fd5b335f90815260208190526040812080543492906102ab90849061034f565b90915550506003546001600160a01b03165f908152602081905260408082205433835291205411156102ea57600380546001600160a01b031916331790555b565b5f602082840312156102fc575f80fd5b81356001600160a01b0381168114610312575f80fd5b9392505050565b5f60208284031215610329575f80fd5b5051919050565b5f60208284031215610340575f80fd5b81518015158114610312575f80fd5b8082018082111561036e57634e487b7160e01b5f52601160045260245ffd5b9291505056fea164736f6c6343000819000a",
        "nonce": "0x1fa",
        "chainId": "0x3e9"
      },
      "additionalContracts": [],
      "isFixedGasLimit": false
    },
    {
      "hash": "0x4cd6a44bb39ffb646280e57554fb64efd0e5faf81fd4dae87c08bbd4119f4842",
      "transactionType": "CALL",
      "contractName": null,
      "contractAddress": "0x95ce14ee82410c4a7296205e0c663969703dc857",
      "function": "addTreasuryCastle(address)",
      "arguments": [
        "0x52788C9a3A77b6236492e4F22a54059A4A3EfB6F"
      ],
      "transaction": {
        "from": "0x6faff29226219756aa40ce648dbc65fb41de5f72",
        "to": "0x95ce14ee82410c4a7296205e0c663969703dc857",
        "gas": "0x1a8a4",
        "value": "0x0",
        "input": "0x8deee15700000000000000000000000052788c9a3a77b6236492e4f22a54059a4a3efb6f",
        "nonce": "0x1fb",
        "chainId": "0x3e9"
      },
      "additionalContracts": [],
      "isFixedGasLimit": false
    },
    {
      "hash": "0xad329248bdedfeb0061e7e6cf6bf837868f93a7b8720eeb6ce2b2d2fe56bbd4b",
      "transactionType": "CREATE",
      "contractName": "RaidTreasury",
      "contractAddress": "0x88307d59556a6721ada793753de6757a520acb9a",
      "function": null,
      "arguments": null,
      "transaction": {
        "from": "0x6faff29226219756aa40ce648dbc65fb41de5f72",
        "gas": "0xa4c0c",
        "value": "0x0",
        "input": "0x6080604052600180547332bf51fa408a0ee9b7a414c6a793760caf0861186001600160a01b031991821681179092556002805490911690911790553480156044575f80fd5b50600380546001600160a01b031916339081179091555f90815260208190526040902069021e19e0c9bab24000009055610381806100815f395ff3fe608060405260043610610057575f3560e01c80632d809cb61461009b5780633ccfd60b146100d95780638da5cb5b146100ef578063d7bb99ba14610126578063f10fdf5c1461012e578063fbec6f211461014e575f80fd5b36610097575f341180156100785750335f9081526020819052604090205415155b610080575f80fd5b600380546001600160a01b03191633908117909155005b5f80fd5b3480156100a6575f80fd5b506100c66100b53660046102ec565b5f6020819052908152604090205481565b6040519081526020015b60405180910390f35b3480156100e4575f80fd5b506100ed61016d565b005b3480156100fa575f80fd5b5060035461010e906001600160a01b031681565b6040516001600160a01b0390911681526020016100d0565b6100ed61027b565b348015610139575f80fd5b50335f908152602081905260409020546100c6565b348015610159575f80fd5b5060025461010e906001600160a01b031681565b6003546001600160a01b0316331461019857604051636db2465f60e01b815260040160405180910390fd5b6002546040516370a0823160e01b81523060048201526001600160a01b039091169063a9059cbb90339083906370a0823190602401602060405180830381865afa1580156101e8573d5f803e3d5ffd5b505050506040513d601f19601f8201168201806040525081019061020c9190610319565b6040516001600160e01b031960e085901b1681526001600160a01b03909216600483015260248201526044016020604051808303815f875af1158015610254573d5f803e3d5ffd5b505050506040513d601f19601f820116820180604052508101906102789190610330565b50565b66038d7ea4c68000341061028d575f80fd5b335f90815260208190526040812080543492906102ab90849061034f565b90915550506003546001600160a01b03165f908152602081905260408082205433835291205411156102ea57600380546001600160a01b031916331790555b565b5f602082840312156102fc575f80fd5b81356001600160a01b0381168114610312575f80fd5b9392505050565b5f60208284031215610329575f80fd5b5051919050565b5f60208284031215610340575f80fd5b81518015158114610312575f80fd5b8082018082111561036e57634e487b7160e01b5f52601160045260245ffd5b9291505056fea164736f6c6343000819000a",
        "nonce": "0x1fc",
        "chainId": "0x3e9"
      },
      "additionalContracts": [],
      "isFixedGasLimit": false
    },
    {
      "hash": "0xe64f628a1a7752339d96f9b9296c6fdc7882ac3d062357ce17253ff0ea117aa6",
      "transactionType": "CALL",
      "contractName": null,
      "contractAddress": "0x95ce14ee82410c4a7296205e0c663969703dc857",
      "function": "addTreasuryCastle(address)",
      "arguments": [
        "0x88307d59556A6721ada793753de6757a520ACB9A"
      ],
      "transaction": {
        "from": "0x6faff29226219756aa40ce648dbc65fb41de5f72",
        "to": "0x95ce14ee82410c4a7296205e0c663969703dc857",
        "gas": "0x1a8a4",
        "value": "0x0",
        "input": "0x8deee15700000000000000000000000088307d59556a6721ada793753de6757a520acb9a",
        "nonce": "0x1fd",
        "chainId": "0x3e9"
      },
      "additionalContracts": [],
      "isFixedGasLimit": false
    },
    {
      "hash": "0xd2e8f3970dab58f63a90e4f027fcc97b36aa934167a53183cf1efaa82cb988fd",
      "transactionType": "CREATE",
      "contractName": "RaidTreasury",
      "contractAddress": "0x5f7e15a797b28f9ad1abaeed328c3fd7cdd26290",
      "function": null,
      "arguments": null,
      "transaction": {
        "from": "0x6faff29226219756aa40ce648dbc65fb41de5f72",
        "gas": "0xa4c0c",
        "value": "0x0",
        "input": "0x6080604052600180547332bf51fa408a0ee9b7a414c6a793760caf0861186001600160a01b031991821681179092556002805490911690911790553480156044575f80fd5b50600380546001600160a01b031916339081179091555f90815260208190526040902069021e19e0c9bab24000009055610381806100815f395ff3fe608060405260043610610057575f3560e01c80632d809cb61461009b5780633ccfd60b146100d95780638da5cb5b146100ef578063d7bb99ba14610126578063f10fdf5c1461012e578063fbec6f211461014e575f80fd5b36610097575f341180156100785750335f9081526020819052604090205415155b610080575f80fd5b600380546001600160a01b03191633908117909155005b5f80fd5b3480156100a6575f80fd5b506100c66100b53660046102ec565b5f6020819052908152604090205481565b6040519081526020015b60405180910390f35b3480156100e4575f80fd5b506100ed61016d565b005b3480156100fa575f80fd5b5060035461010e906001600160a01b031681565b6040516001600160a01b0390911681526020016100d0565b6100ed61027b565b348015610139575f80fd5b50335f908152602081905260409020546100c6565b348015610159575f80fd5b5060025461010e906001600160a01b031681565b6003546001600160a01b0316331461019857604051636db2465f60e01b815260040160405180910390fd5b6002546040516370a0823160e01b81523060048201526001600160a01b039091169063a9059cbb90339083906370a0823190602401602060405180830381865afa1580156101e8573d5f803e3d5ffd5b505050506040513d601f19601f8201168201806040525081019061020c9190610319565b6040516001600160e01b031960e085901b1681526001600160a01b03909216600483015260248201526044016020604051808303815f875af1158015610254573d5f803e3d5ffd5b505050506040513d601f19601f820116820180604052508101906102789190610330565b50565b66038d7ea4c68000341061028d575f80fd5b335f90815260208190526040812080543492906102ab90849061034f565b90915550506003546001600160a01b03165f908152602081905260408082205433835291205411156102ea57600380546001600160a01b031916331790555b565b5f602082840312156102fc575f80fd5b81356001600160a01b0381168114610312575f80fd5b9392505050565b5f60208284031215610329575f80fd5b5051919050565b5f60208284031215610340575f80fd5b81518015158114610312575f80fd5b8082018082111561036e57634e487b7160e01b5f52601160045260245ffd5b9291505056fea164736f6c6343000819000a",
        "nonce": "0x1fe",
        "chainId": "0x3e9"
      },
      "additionalContracts": [],
      "isFixedGasLimit": false
    },
    {
      "hash": "0x3b3e7566604fd48c8d20d8ca64e60324e7148f790516d605c86623222aea610e",
      "transactionType": "CALL",
      "contractName": null,
      "contractAddress": "0x95ce14ee82410c4a7296205e0c663969703dc857",
      "function": "addTreasuryCastle(address)",
      "arguments": [
        "0x5f7E15A797B28F9ad1abAEED328c3fd7cDD26290"
      ],
      "transaction": {
        "from": "0x6faff29226219756aa40ce648dbc65fb41de5f72",
        "to": "0x95ce14ee82410c4a7296205e0c663969703dc857",
        "gas": "0x1a8a4",
        "value": "0x0",
        "input": "0x8deee1570000000000000000000000005f7e15a797b28f9ad1abaeed328c3fd7cdd26290",
        "nonce": "0x1ff",
        "chainId": "0x3e9"
      },
      "additionalContracts": [],
      "isFixedGasLimit": false
    },
    {
      "hash": "0x64e08e9627733c032155db5a0b84437519eacc19f6f36e175eb64a9cc3edcedb",
      "transactionType": "CREATE",
      "contractName": "RaidTreasury",
      "contractAddress": "0x36f22d17b23273e2ca1105498b9c0381bc987eab",
      "function": null,
      "arguments": null,
      "transaction": {
        "from": "0x6faff29226219756aa40ce648dbc65fb41de5f72",
        "gas": "0xa4c0c",
        "value": "0x0",
        "input": "0x6080604052600180547332bf51fa408a0ee9b7a414c6a793760caf0861186001600160a01b031991821681179092556002805490911690911790553480156044575f80fd5b50600380546001600160a01b031916339081179091555f90815260208190526040902069021e19e0c9bab24000009055610381806100815f395ff3fe608060405260043610610057575f3560e01c80632d809cb61461009b5780633ccfd60b146100d95780638da5cb5b146100ef578063d7bb99ba14610126578063f10fdf5c1461012e578063fbec6f211461014e575f80fd5b36610097575f341180156100785750335f9081526020819052604090205415155b610080575f80fd5b600380546001600160a01b03191633908117909155005b5f80fd5b3480156100a6575f80fd5b506100c66100b53660046102ec565b5f6020819052908152604090205481565b6040519081526020015b60405180910390f35b3480156100e4575f80fd5b506100ed61016d565b005b3480156100fa575f80fd5b5060035461010e906001600160a01b031681565b6040516001600160a01b0390911681526020016100d0565b6100ed61027b565b348015610139575f80fd5b50335f908152602081905260409020546100c6565b348015610159575f80fd5b5060025461010e906001600160a01b031681565b6003546001600160a01b0316331461019857604051636db2465f60e01b815260040160405180910390fd5b6002546040516370a0823160e01b81523060048201526001600160a01b039091169063a9059cbb90339083906370a0823190602401602060405180830381865afa1580156101e8573d5f803e3d5ffd5b505050506040513d601f19601f8201168201806040525081019061020c9190610319565b6040516001600160e01b031960e085901b1681526001600160a01b03909216600483015260248201526044016020604051808303815f875af1158015610254573d5f803e3d5ffd5b505050506040513d601f19601f820116820180604052508101906102789190610330565b50565b66038d7ea4c68000341061028d575f80fd5b335f90815260208190526040812080543492906102ab90849061034f565b90915550506003546001600160a01b03165f908152602081905260408082205433835291205411156102ea57600380546001600160a01b031916331790555b565b5f602082840312156102fc575f80fd5b81356001600160a01b0381168114610312575f80fd5b9392505050565b5f60208284031215610329575f80fd5b5051919050565b5f60208284031215610340575f80fd5b81518015158114610312575f80fd5b8082018082111561036e57634e487b7160e01b5f52601160045260245ffd5b9291505056fea164736f6c6343000819000a",
        "nonce": "0x200",
        "chainId": "0x3e9"
      },
      "additionalContracts": [],
      "isFixedGasLimit": false
    },
    {
      "hash": "0x6a9b50a5dc4c258ee47652a2cc2fc3e2a57d1eec09a03d1697d976e97cbf09a7",
      "transactionType": "CALL",
      "contractName": null,
      "contractAddress": "0x95ce14ee82410c4a7296205e0c663969703dc857",
      "function": "addTreasuryCastle(address)",
      "arguments": [
        "0x36f22D17b23273e2ca1105498b9C0381bC987eaB"
      ],
      "transaction": {
        "from": "0x6faff29226219756aa40ce648dbc65fb41de5f72",
        "to": "0x95ce14ee82410c4a7296205e0c663969703dc857",
        "gas": "0x1a8a4",
        "value": "0x0",
        "input": "0x8deee15700000000000000000000000036f22d17b23273e2ca1105498b9c0381bc987eab",
        "nonce": "0x201",
        "chainId": "0x3e9"
      },
      "additionalContracts": [],
      "isFixedGasLimit": false
    },
    {
      "hash": "0x6b3ee2c304ab288adbda4d64147dce4c041e864c267c138656f5d9f31ad86a18",
      "transactionType": "CREATE",
      "contractName": "RaidTreasury",
      "contractAddress": "0x0a74129927bffdd1d8c7605ae52708fd8a6f366e",
      "function": null,
      "arguments": null,
      "transaction": {
        "from": "0x6faff29226219756aa40ce648dbc65fb41de5f72",
        "gas": "0xa4c0c",
        "value": "0x0",
        "input": "0x6080604052600180547332bf51fa408a0ee9b7a414c6a793760caf0861186001600160a01b031991821681179092556002805490911690911790553480156044575f80fd5b50600380546001600160a01b031916339081179091555f90815260208190526040902069021e19e0c9bab24000009055610381806100815f395ff3fe608060405260043610610057575f3560e01c80632d809cb61461009b5780633ccfd60b146100d95780638da5cb5b146100ef578063d7bb99ba14610126578063f10fdf5c1461012e578063fbec6f211461014e575f80fd5b36610097575f341180156100785750335f9081526020819052604090205415155b610080575f80fd5b600380546001600160a01b03191633908117909155005b5f80fd5b3480156100a6575f80fd5b506100c66100b53660046102ec565b5f6020819052908152604090205481565b6040519081526020015b60405180910390f35b3480156100e4575f80fd5b506100ed61016d565b005b3480156100fa575f80fd5b5060035461010e906001600160a01b031681565b6040516001600160a01b0390911681526020016100d0565b6100ed61027b565b348015610139575f80fd5b50335f908152602081905260409020546100c6565b348015610159575f80fd5b5060025461010e906001600160a01b031681565b6003546001600160a01b0316331461019857604051636db2465f60e01b815260040160405180910390fd5b6002546040516370a0823160e01b81523060048201526001600160a01b039091169063a9059cbb90339083906370a0823190602401602060405180830381865afa1580156101e8573d5f803e3d5ffd5b505050506040513d601f19601f8201168201806040525081019061020c9190610319565b6040516001600160e01b031960e085901b1681526001600160a01b03909216600483015260248201526044016020604051808303815f875af1158015610254573d5f803e3d5ffd5b505050506040513d601f19601f820116820180604052508101906102789190610330565b50565b66038d7ea4c68000341061028d575f80fd5b335f90815260208190526040812080543492906102ab90849061034f565b90915550506003546001600160a01b03165f908152602081905260408082205433835291205411156102ea57600380546001600160a01b031916331790555b565b5f602082840312156102fc575f80fd5b81356001600160a01b0381168114610312575f80fd5b9392505050565b5f60208284031215610329575f80fd5b5051919050565b5f60208284031215610340575f80fd5b81518015158114610312575f80fd5b8082018082111561036e57634e487b7160e01b5f52601160045260245ffd5b9291505056fea164736f6c6343000819000a",
        "nonce": "0x202",
        "chainId": "0x3e9"
      },
      "additionalContracts": [],
      "isFixedGasLimit": false
    },
    {
      "hash": "0x6bf6930f5ae9fd45bb9326a0e8122beb9b9118876808c5846942a89ecc1f0a08",
      "transactionType": "CALL",
      "contractName": null,
      "contractAddress": "0x95ce14ee82410c4a7296205e0c663969703dc857",
      "function": "addTreasuryCastle(address)",
      "arguments": [
        "0x0A74129927bFFDd1D8c7605Ae52708fD8A6f366E"
      ],
      "transaction": {
        "from": "0x6faff29226219756aa40ce648dbc65fb41de5f72",
        "to": "0x95ce14ee82410c4a7296205e0c663969703dc857",
        "gas": "0x1a8a4",
        "value": "0x0",
        "input": "0x8deee1570000000000000000000000000a74129927bffdd1d8c7605ae52708fd8a6f366e",
        "nonce": "0x203",
        "chainId": "0x3e9"
      },
      "additionalContracts": [],
      "isFixedGasLimit": false
    },
    {
      "hash": "0xf8a514096d552a626580c0bd69e8f0b5e2b341972c37f76174e7f839e7c52e3f",
      "transactionType": "CREATE",
      "contractName": "RaidTreasury",
      "contractAddress": "0x7c5da8ad3979e85df5ca2de8fa3bd1c3deaca9de",
      "function": null,
      "arguments": null,
      "transaction": {
        "from": "0x6faff29226219756aa40ce648dbc65fb41de5f72",
        "gas": "0xa4c0c",
        "value": "0x0",
        "input": "0x6080604052600180547332bf51fa408a0ee9b7a414c6a793760caf0861186001600160a01b031991821681179092556002805490911690911790553480156044575f80fd5b50600380546001600160a01b031916339081179091555f90815260208190526040902069021e19e0c9bab24000009055610381806100815f395ff3fe608060405260043610610057575f3560e01c80632d809cb61461009b5780633ccfd60b146100d95780638da5cb5b146100ef578063d7bb99ba14610126578063f10fdf5c1461012e578063fbec6f211461014e575f80fd5b36610097575f341180156100785750335f9081526020819052604090205415155b610080575f80fd5b600380546001600160a01b03191633908117909155005b5f80fd5b3480156100a6575f80fd5b506100c66100b53660046102ec565b5f6020819052908152604090205481565b6040519081526020015b60405180910390f35b3480156100e4575f80fd5b506100ed61016d565b005b3480156100fa575f80fd5b5060035461010e906001600160a01b031681565b6040516001600160a01b0390911681526020016100d0565b6100ed61027b565b348015610139575f80fd5b50335f908152602081905260409020546100c6565b348015610159575f80fd5b5060025461010e906001600160a01b031681565b6003546001600160a01b0316331461019857604051636db2465f60e01b815260040160405180910390fd5b6002546040516370a0823160e01b81523060048201526001600160a01b039091169063a9059cbb90339083906370a0823190602401602060405180830381865afa1580156101e8573d5f803e3d5ffd5b505050506040513d601f19601f8201168201806040525081019061020c9190610319565b6040516001600160e01b031960e085901b1681526001600160a01b03909216600483015260248201526044016020604051808303815f875af1158015610254573d5f803e3d5ffd5b505050506040513d601f19601f820116820180604052508101906102789190610330565b50565b66038d7ea4c68000341061028d575f80fd5b335f90815260208190526040812080543492906102ab90849061034f565b90915550506003546001600160a01b03165f908152602081905260408082205433835291205411156102ea57600380546001600160a01b031916331790555b565b5f602082840312156102fc575f80fd5b81356001600160a01b0381168114610312575f80fd5b9392505050565b5f60208284031215610329575f80fd5b5051919050565b5f60208284031215610340575f80fd5b81518015158114610312575f80fd5b8082018082111561036e57634e487b7160e01b5f52601160045260245ffd5b9291505056fea164736f6c6343000819000a",
        "nonce": "0x204",
        "chainId": "0x3e9"
      },
      "additionalContracts": [],
      "isFixedGasLimit": false
    },
    {
      "hash": "0x7f4647bd7db602656e7c95d9321534bdc2878e706081cb38c65f87bbd7cfc5ca",
      "transactionType": "CALL",
      "contractName": null,
      "contractAddress": "0x95ce14ee82410c4a7296205e0c663969703dc857",
      "function": "addTreasuryCastle(address)",
      "arguments": [
        "0x7c5DA8ad3979E85DF5CA2dE8Fa3bd1c3dEAca9de"
      ],
      "transaction": {
        "from": "0x6faff29226219756aa40ce648dbc65fb41de5f72",
        "to": "0x95ce14ee82410c4a7296205e0c663969703dc857",
        "gas": "0x1a8a4",
        "value": "0x0",
        "input": "0x8deee1570000000000000000000000007c5da8ad3979e85df5ca2de8fa3bd1c3deaca9de",
        "nonce": "0x205",
        "chainId": "0x3e9"
      },
      "additionalContracts": [],
      "isFixedGasLimit": false
    },
    {
      "hash": "0xf7b4e5e2544b17466350e0ac28b1f80af339f24f0ead492bc19cc61f3deca31e",
      "transactionType": "CREATE",
      "contractName": "RaidTreasury",
      "contractAddress": "0x3ff014989fb527a8d8d6c7278d85b10194b20551",
      "function": null,
      "arguments": null,
      "transaction": {
        "from": "0x6faff29226219756aa40ce648dbc65fb41de5f72",
        "gas": "0xa4c0c",
        "value": "0x0",
        "input": "0x6080604052600180547332bf51fa408a0ee9b7a414c6a793760caf0861186001600160a01b031991821681179092556002805490911690911790553480156044575f80fd5b50600380546001600160a01b031916339081179091555f90815260208190526040902069021e19e0c9bab24000009055610381806100815f395ff3fe608060405260043610610057575f3560e01c80632d809cb61461009b5780633ccfd60b146100d95780638da5cb5b146100ef578063d7bb99ba14610126578063f10fdf5c1461012e578063fbec6f211461014e575f80fd5b36610097575f341180156100785750335f9081526020819052604090205415155b610080575f80fd5b600380546001600160a01b03191633908117909155005b5f80fd5b3480156100a6575f80fd5b506100c66100b53660046102ec565b5f6020819052908152604090205481565b6040519081526020015b60405180910390f35b3480156100e4575f80fd5b506100ed61016d565b005b3480156100fa575f80fd5b5060035461010e906001600160a01b031681565b6040516001600160a01b0390911681526020016100d0565b6100ed61027b565b348015610139575f80fd5b50335f908152602081905260409020546100c6565b348015610159575f80fd5b5060025461010e906001600160a01b031681565b6003546001600160a01b0316331461019857604051636db2465f60e01b815260040160405180910390fd5b6002546040516370a0823160e01b81523060048201526001600160a01b039091169063a9059cbb90339083906370a0823190602401602060405180830381865afa1580156101e8573d5f803e3d5ffd5b505050506040513d601f19601f8201168201806040525081019061020c9190610319565b6040516001600160e01b031960e085901b1681526001600160a01b03909216600483015260248201526044016020604051808303815f875af1158015610254573d5f803e3d5ffd5b505050506040513d601f19601f820116820180604052508101906102789190610330565b50565b66038d7ea4c68000341061028d575f80fd5b335f90815260208190526040812080543492906102ab90849061034f565b90915550506003546001600160a01b03165f908152602081905260408082205433835291205411156102ea57600380546001600160a01b031916331790555b565b5f602082840312156102fc575f80fd5b81356001600160a01b0381168114610312575f80fd5b9392505050565b5f60208284031215610329575f80fd5b5051919050565b5f60208284031215610340575f80fd5b81518015158114610312575f80fd5b8082018082111561036e57634e487b7160e01b5f52601160045260245ffd5b9291505056fea164736f6c6343000819000a",
        "nonce": "0x206",
        "chainId": "0x3e9"
      },
      "additionalContracts": [],
      "isFixedGasLimit": false
    },
    {
      "hash": "0x2b72f29a82fa3e6919fc364c8af439ff403ca227791d2b02d5aa57ce01388742",
      "transactionType": "CALL",
      "contractName": null,
      "contractAddress": "0x95ce14ee82410c4a7296205e0c663969703dc857",
      "function": "addTreasuryCastle(address)",
      "arguments": [
        "0x3Ff014989fb527A8D8d6c7278D85b10194b20551"
      ],
      "transaction": {
        "from": "0x6faff29226219756aa40ce648dbc65fb41de5f72",
        "to": "0x95ce14ee82410c4a7296205e0c663969703dc857",
        "gas": "0x1a8a4",
        "value": "0x0",
        "input": "0x8deee1570000000000000000000000003ff014989fb527a8d8d6c7278d85b10194b20551",
        "nonce": "0x207",
        "chainId": "0x3e9"
      },
      "additionalContracts": [],
      "isFixedGasLimit": false
    },
    {
      "hash": "0x4e6746350889509322fbcc09a383defc55431b6cb7da7c32900f0e859a2cb726",
      "transactionType": "CREATE",
      "contractName": "RaidTreasury",
      "contractAddress": "0x7443fa8b4fffadafabefc25ca2a1ff5e836e9165",
      "function": null,
      "arguments": null,
      "transaction": {
        "from": "0x6faff29226219756aa40ce648dbc65fb41de5f72",
        "gas": "0xa4c0c",
        "value": "0x0",
        "input": "0x6080604052600180547332bf51fa408a0ee9b7a414c6a793760caf0861186001600160a01b031991821681179092556002805490911690911790553480156044575f80fd5b50600380546001600160a01b031916339081179091555f90815260208190526040902069021e19e0c9bab24000009055610381806100815f395ff3fe608060405260043610610057575f3560e01c80632d809cb61461009b5780633ccfd60b146100d95780638da5cb5b146100ef578063d7bb99ba14610126578063f10fdf5c1461012e578063fbec6f211461014e575f80fd5b36610097575f341180156100785750335f9081526020819052604090205415155b610080575f80fd5b600380546001600160a01b03191633908117909155005b5f80fd5b3480156100a6575f80fd5b506100c66100b53660046102ec565b5f6020819052908152604090205481565b6040519081526020015b60405180910390f35b3480156100e4575f80fd5b506100ed61016d565b005b3480156100fa575f80fd5b5060035461010e906001600160a01b031681565b6040516001600160a01b0390911681526020016100d0565b6100ed61027b565b348015610139575f80fd5b50335f908152602081905260409020546100c6565b348015610159575f80fd5b5060025461010e906001600160a01b031681565b6003546001600160a01b0316331461019857604051636db2465f60e01b815260040160405180910390fd5b6002546040516370a0823160e01b81523060048201526001600160a01b039091169063a9059cbb90339083906370a0823190602401602060405180830381865afa1580156101e8573d5f803e3d5ffd5b505050506040513d601f19601f8201168201806040525081019061020c9190610319565b6040516001600160e01b031960e085901b1681526001600160a01b03909216600483015260248201526044016020604051808303815f875af1158015610254573d5f803e3d5ffd5b505050506040513d601f19601f820116820180604052508101906102789190610330565b50565b66038d7ea4c68000341061028d575f80fd5b335f90815260208190526040812080543492906102ab90849061034f565b90915550506003546001600160a01b03165f908152602081905260408082205433835291205411156102ea57600380546001600160a01b031916331790555b565b5f602082840312156102fc575f80fd5b81356001600160a01b0381168114610312575f80fd5b9392505050565b5f60208284031215610329575f80fd5b5051919050565b5f60208284031215610340575f80fd5b81518015158114610312575f80fd5b8082018082111561036e57634e487b7160e01b5f52601160045260245ffd5b9291505056fea164736f6c6343000819000a",
        "nonce": "0x208",
        "chainId": "0x3e9"
      },
      "additionalContracts": [],
      "isFixedGasLimit": false
    },
    {
      "hash": "0xf12692317452857623e9d4d1a7c74af94ffcc91aad1bc1be7b6868fc0cf092ef",
      "transactionType": "CALL",
      "contractName": null,
      "contractAddress": "0x95ce14ee82410c4a7296205e0c663969703dc857",
      "function": "addTreasuryCastle(address)",
      "arguments": [
        "0x7443FA8b4FffAdafAbeFc25ca2a1FF5e836e9165"
      ],
      "transaction": {
        "from": "0x6faff29226219756aa40ce648dbc65fb41de5f72",
        "to": "0x95ce14ee82410c4a7296205e0c663969703dc857",
        "gas": "0x1a8a4",
        "value": "0x0",
        "input": "0x8deee1570000000000000000000000007443fa8b4fffadafabefc25ca2a1ff5e836e9165",
        "nonce": "0x209",
        "chainId": "0x3e9"
      },
      "additionalContracts": [],
      "isFixedGasLimit": false
    },
    {
      "hash": "0x536c6c142f4ac482a45a40db9df1465d48fc3a70a8eb704aeb2cbdb43c4b79e4",
      "transactionType": "CREATE",
      "contractName": "RaidTreasury",
      "contractAddress": "0x18099eb136744bd92aac30f9d7f57329d757d73e",
      "function": null,
      "arguments": null,
      "transaction": {
        "from": "0x6faff29226219756aa40ce648dbc65fb41de5f72",
        "gas": "0xa4c0c",
        "value": "0x0",
        "input": "0x6080604052600180547332bf51fa408a0ee9b7a414c6a793760caf0861186001600160a01b031991821681179092556002805490911690911790553480156044575f80fd5b50600380546001600160a01b031916339081179091555f90815260208190526040902069021e19e0c9bab24000009055610381806100815f395ff3fe608060405260043610610057575f3560e01c80632d809cb61461009b5780633ccfd60b146100d95780638da5cb5b146100ef578063d7bb99ba14610126578063f10fdf5c1461012e578063fbec6f211461014e575f80fd5b36610097575f341180156100785750335f9081526020819052604090205415155b610080575f80fd5b600380546001600160a01b03191633908117909155005b5f80fd5b3480156100a6575f80fd5b506100c66100b53660046102ec565b5f6020819052908152604090205481565b6040519081526020015b60405180910390f35b3480156100e4575f80fd5b506100ed61016d565b005b3480156100fa575f80fd5b5060035461010e906001600160a01b031681565b6040516001600160a01b0390911681526020016100d0565b6100ed61027b565b348015610139575f80fd5b50335f908152602081905260409020546100c6565b348015610159575f80fd5b5060025461010e906001600160a01b031681565b6003546001600160a01b0316331461019857604051636db2465f60e01b815260040160405180910390fd5b6002546040516370a0823160e01b81523060048201526001600160a01b039091169063a9059cbb90339083906370a0823190602401602060405180830381865afa1580156101e8573d5f803e3d5ffd5b505050506040513d601f19601f8201168201806040525081019061020c9190610319565b6040516001600160e01b031960e085901b1681526001600160a01b03909216600483015260248201526044016020604051808303815f875af1158015610254573d5f803e3d5ffd5b505050506040513d601f19601f820116820180604052508101906102789190610330565b50565b66038d7ea4c68000341061028d575f80fd5b335f90815260208190526040812080543492906102ab90849061034f565b90915550506003546001600160a01b03165f908152602081905260408082205433835291205411156102ea57600380546001600160a01b031916331790555b565b5f602082840312156102fc575f80fd5b81356001600160a01b0381168114610312575f80fd5b9392505050565b5f60208284031215610329575f80fd5b5051919050565b5f60208284031215610340575f80fd5b81518015158114610312575f80fd5b8082018082111561036e57634e487b7160e01b5f52601160045260245ffd5b9291505056fea164736f6c6343000819000a",
        "nonce": "0x20a",
        "chainId": "0x3e9"
      },
      "additionalContracts": [],
      "isFixedGasLimit": false
    },
    {
      "hash": "0xb0e0eac3d53bcdd26138af91004e8e65478511d407d7e0b081b2c14626c6402f",
      "transactionType": "CALL",
      "contractName": null,
      "contractAddress": "0x95ce14ee82410c4a7296205e0c663969703dc857",
      "function": "addTreasuryCastle(address)",
      "arguments": [
        "0x18099Eb136744bd92AAC30F9D7F57329D757d73E"
      ],
      "transaction": {
        "from": "0x6faff29226219756aa40ce648dbc65fb41de5f72",
        "to": "0x95ce14ee82410c4a7296205e0c663969703dc857",
        "gas": "0x1a8a4",
        "value": "0x0",
        "input": "0x8deee15700000000000000000000000018099eb136744bd92aac30f9d7f57329d757d73e",
        "nonce": "0x20b",
        "chainId": "0x3e9"
      },
      "additionalContracts": [],
      "isFixedGasLimit": false
    },
    {
      "hash": "0x415538b4209bc065e251a85b4adaba3f8ca3824294f6a44f85a79a616e6d02d9",
      "transactionType": "CREATE",
      "contractName": "RaidTreasury",
      "contractAddress": "0x0dd9ad619d810f47b333a2356e1de086df1291ed",
      "function": null,
      "arguments": null,
      "transaction": {
        "from": "0x6faff29226219756aa40ce648dbc65fb41de5f72",
        "gas": "0xa4c0c",
        "value": "0x0",
        "input": "0x6080604052600180547332bf51fa408a0ee9b7a414c6a793760caf0861186001600160a01b031991821681179092556002805490911690911790553480156044575f80fd5b50600380546001600160a01b031916339081179091555f90815260208190526040902069021e19e0c9bab24000009055610381806100815f395ff3fe608060405260043610610057575f3560e01c80632d809cb61461009b5780633ccfd60b146100d95780638da5cb5b146100ef578063d7bb99ba14610126578063f10fdf5c1461012e578063fbec6f211461014e575f80fd5b36610097575f341180156100785750335f9081526020819052604090205415155b610080575f80fd5b600380546001600160a01b03191633908117909155005b5f80fd5b3480156100a6575f80fd5b506100c66100b53660046102ec565b5f6020819052908152604090205481565b6040519081526020015b60405180910390f35b3480156100e4575f80fd5b506100ed61016d565b005b3480156100fa575f80fd5b5060035461010e906001600160a01b031681565b6040516001600160a01b0390911681526020016100d0565b6100ed61027b565b348015610139575f80fd5b50335f908152602081905260409020546100c6565b348015610159575f80fd5b5060025461010e906001600160a01b031681565b6003546001600160a01b0316331461019857604051636db2465f60e01b815260040160405180910390fd5b6002546040516370a0823160e01b81523060048201526001600160a01b039091169063a9059cbb90339083906370a0823190602401602060405180830381865afa1580156101e8573d5f803e3d5ffd5b505050506040513d601f19601f8201168201806040525081019061020c9190610319565b6040516001600160e01b031960e085901b1681526001600160a01b03909216600483015260248201526044016020604051808303815f875af1158015610254573d5f803e3d5ffd5b505050506040513d601f19601f820116820180604052508101906102789190610330565b50565b66038d7ea4c68000341061028d575f80fd5b335f90815260208190526040812080543492906102ab90849061034f565b90915550506003546001600160a01b03165f908152602081905260408082205433835291205411156102ea57600380546001600160a01b031916331790555b565b5f602082840312156102fc575f80fd5b81356001600160a01b0381168114610312575f80fd5b9392505050565b5f60208284031215610329575f80fd5b5051919050565b5f60208284031215610340575f80fd5b81518015158114610312575f80fd5b8082018082111561036e57634e487b7160e01b5f52601160045260245ffd5b9291505056fea164736f6c6343000819000a",
        "nonce": "0x20c",
        "chainId": "0x3e9"
      },
      "additionalContracts": [],
      "isFixedGasLimit": false
    },
    {
      "hash": "0x9f12422ddba897cfda14b82b24a77a1ce2b3a514e7e5455ddaf298039dd80bee",
      "transactionType": "CALL",
      "contractName": null,
      "contractAddress": "0x95ce14ee82410c4a7296205e0c663969703dc857",
      "function": "addTreasuryCastle(address)",
      "arguments": [
        "0x0dD9aD619D810f47B333A2356E1de086DF1291Ed"
      ],
      "transaction": {
        "from": "0x6faff29226219756aa40ce648dbc65fb41de5f72",
        "to": "0x95ce14ee82410c4a7296205e0c663969703dc857",
        "gas": "0x1a8a4",
        "value": "0x0",
        "input": "0x8deee1570000000000000000000000000dd9ad619d810f47b333a2356e1de086df1291ed",
        "nonce": "0x20d",
        "chainId": "0x3e9"
      },
      "additionalContracts": [],
      "isFixedGasLimit": false
    }
  ],
  "receipts": [
    {
      "status": "0x1",
      "cumulativeGasUsed": "0x677ce",
      "logs": [],
      "logsBloom": "0x00000000000000000000000000000000000000000000000000000000000000000000000000000000000000000000000000000000000000000000000000000000000000000000000000000000000000000000000000000000000000000000000000000000000000000000000000000000000000000000000000000000000000000000000000000000000000000000000000000000000000000000000000000000000000000000000000000000000000000000000000000000000000000000000000000000000000000000000000000000000000000000000000000000000000000000000000000000000000000000000000000000000000000000000000000000",
      "type": "0x2",
      "transactionHash": "0xbbf0a09c144a8ed49eefe7b19ea2654760204383b852e8a6a053c820b7071a81",
      "transactionIndex": "0x0",
      "blockHash": "0x90e659463d080af1dbcc42ed904cbce68691b2fb835ac2d8a907c54b4ddf8712",
      "blockNumber": "0x9bb26fb",
      "gasUsed": "0x677ce",
      "effectiveGasPrice": "0x5d21dba01",
      "from": "0x6faff29226219756aa40ce648dbc65fb41de5f72",
      "to": null,
      "contractAddress": "0x52788c9a3a77b6236492e4f22a54059a4a3efb6f"
    },
    {
      "status": "0x1",
      "cumulativeGasUsed": "0x353ae9",
      "logs": [],
      "logsBloom": "0x00000000000000000000000000000000000000000000000000000000000000000000000000000000000000000000000000000000000000000000000000000000000000000000000000000000000000000000000000000000000000000000000000000000000000000000000000000000000000000000000000000000000000000000000000000000000000000000000000000000000000000000000000000000000000000000000000000000000000000000000000000000000000000000000000000000000000000000000000000000000000000000000000000000000000000000000000000000000000000000000000000000000000000000000000000000",
      "type": "0x2",
      "transactionHash": "0x4cd6a44bb39ffb646280e57554fb64efd0e5faf81fd4dae87c08bbd4119f4842",
      "transactionIndex": "0x1",
      "blockHash": "0x964c9d109bc0850b107badd7b3291d53a2c276fdbdb10c03189d50ef7fa4c520",
      "blockNumber": "0x9bb26fc",
      "gasUsed": "0xd435",
      "effectiveGasPrice": "0x5d21dba01",
      "from": "0x6faff29226219756aa40ce648dbc65fb41de5f72",
      "to": "0x95ce14ee82410c4a7296205e0c663969703dc857",
      "contractAddress": null
    },
    {
      "status": "0x1",
      "cumulativeGasUsed": "0x3bb2b7",
      "logs": [],
      "logsBloom": "0x00000000000000000000000000000000000000000000000000000000000000000000000000000000000000000000000000000000000000000000000000000000000000000000000000000000000000000000000000000000000000000000000000000000000000000000000000000000000000000000000000000000000000000000000000000000000000000000000000000000000000000000000000000000000000000000000000000000000000000000000000000000000000000000000000000000000000000000000000000000000000000000000000000000000000000000000000000000000000000000000000000000000000000000000000000000",
      "type": "0x2",
      "transactionHash": "0xad329248bdedfeb0061e7e6cf6bf837868f93a7b8720eeb6ce2b2d2fe56bbd4b",
      "transactionIndex": "0x2",
      "blockHash": "0x964c9d109bc0850b107badd7b3291d53a2c276fdbdb10c03189d50ef7fa4c520",
      "blockNumber": "0x9bb26fc",
      "gasUsed": "0x677ce",
      "effectiveGasPrice": "0x5d21dba01",
      "from": "0x6faff29226219756aa40ce648dbc65fb41de5f72",
      "to": null,
      "contractAddress": "0x88307d59556a6721ada793753de6757a520acb9a"
    },
    {
      "status": "0x1",
      "cumulativeGasUsed": "0x3c86ec",
      "logs": [],
      "logsBloom": "0x00000000000000000000000000000000000000000000000000000000000000000000000000000000000000000000000000000000000000000000000000000000000000000000000000000000000000000000000000000000000000000000000000000000000000000000000000000000000000000000000000000000000000000000000000000000000000000000000000000000000000000000000000000000000000000000000000000000000000000000000000000000000000000000000000000000000000000000000000000000000000000000000000000000000000000000000000000000000000000000000000000000000000000000000000000000",
      "type": "0x2",
      "transactionHash": "0xe64f628a1a7752339d96f9b9296c6fdc7882ac3d062357ce17253ff0ea117aa6",
      "transactionIndex": "0x3",
      "blockHash": "0x964c9d109bc0850b107badd7b3291d53a2c276fdbdb10c03189d50ef7fa4c520",
      "blockNumber": "0x9bb26fc",
      "gasUsed": "0xd435",
      "effectiveGasPrice": "0x5d21dba01",
      "from": "0x6faff29226219756aa40ce648dbc65fb41de5f72",
      "to": "0x95ce14ee82410c4a7296205e0c663969703dc857",
      "contractAddress": null
    },
    {
      "status": "0x1",
      "cumulativeGasUsed": "0x42feba",
      "logs": [],
      "logsBloom": "0x00000000000000000000000000000000000000000000000000000000000000000000000000000000000000000000000000000000000000000000000000000000000000000000000000000000000000000000000000000000000000000000000000000000000000000000000000000000000000000000000000000000000000000000000000000000000000000000000000000000000000000000000000000000000000000000000000000000000000000000000000000000000000000000000000000000000000000000000000000000000000000000000000000000000000000000000000000000000000000000000000000000000000000000000000000000",
      "type": "0x2",
      "transactionHash": "0xd2e8f3970dab58f63a90e4f027fcc97b36aa934167a53183cf1efaa82cb988fd",
      "transactionIndex": "0x4",
      "blockHash": "0x964c9d109bc0850b107badd7b3291d53a2c276fdbdb10c03189d50ef7fa4c520",
      "blockNumber": "0x9bb26fc",
      "gasUsed": "0x677ce",
      "effectiveGasPrice": "0x5d21dba01",
      "from": "0x6faff29226219756aa40ce648dbc65fb41de5f72",
      "to": null,
      "contractAddress": "0x5f7e15a797b28f9ad1abaeed328c3fd7cdd26290"
    },
    {
      "status": "0x1",
      "cumulativeGasUsed": "0x43d2ef",
      "logs": [],
      "logsBloom": "0x00000000000000000000000000000000000000000000000000000000000000000000000000000000000000000000000000000000000000000000000000000000000000000000000000000000000000000000000000000000000000000000000000000000000000000000000000000000000000000000000000000000000000000000000000000000000000000000000000000000000000000000000000000000000000000000000000000000000000000000000000000000000000000000000000000000000000000000000000000000000000000000000000000000000000000000000000000000000000000000000000000000000000000000000000000000",
      "type": "0x2",
      "transactionHash": "0x3b3e7566604fd48c8d20d8ca64e60324e7148f790516d605c86623222aea610e",
      "transactionIndex": "0x5",
      "blockHash": "0x964c9d109bc0850b107badd7b3291d53a2c276fdbdb10c03189d50ef7fa4c520",
      "blockNumber": "0x9bb26fc",
      "gasUsed": "0xd435",
      "effectiveGasPrice": "0x5d21dba01",
      "from": "0x6faff29226219756aa40ce648dbc65fb41de5f72",
      "to": "0x95ce14ee82410c4a7296205e0c663969703dc857",
      "contractAddress": null
    },
    {
      "status": "0x1",
      "cumulativeGasUsed": "0x4a4abd",
      "logs": [],
      "logsBloom": "0x00000000000000000000000000000000000000000000000000000000000000000000000000000000000000000000000000000000000000000000000000000000000000000000000000000000000000000000000000000000000000000000000000000000000000000000000000000000000000000000000000000000000000000000000000000000000000000000000000000000000000000000000000000000000000000000000000000000000000000000000000000000000000000000000000000000000000000000000000000000000000000000000000000000000000000000000000000000000000000000000000000000000000000000000000000000",
      "type": "0x2",
      "transactionHash": "0x64e08e9627733c032155db5a0b84437519eacc19f6f36e175eb64a9cc3edcedb",
      "transactionIndex": "0x6",
      "blockHash": "0x964c9d109bc0850b107badd7b3291d53a2c276fdbdb10c03189d50ef7fa4c520",
      "blockNumber": "0x9bb26fc",
      "gasUsed": "0x677ce",
      "effectiveGasPrice": "0x5d21dba01",
      "from": "0x6faff29226219756aa40ce648dbc65fb41de5f72",
      "to": null,
      "contractAddress": "0x36f22d17b23273e2ca1105498b9c0381bc987eab"
    },
    {
      "status": "0x1",
      "cumulativeGasUsed": "0x4b1ef2",
      "logs": [],
      "logsBloom": "0x00000000000000000000000000000000000000000000000000000000000000000000000000000000000000000000000000000000000000000000000000000000000000000000000000000000000000000000000000000000000000000000000000000000000000000000000000000000000000000000000000000000000000000000000000000000000000000000000000000000000000000000000000000000000000000000000000000000000000000000000000000000000000000000000000000000000000000000000000000000000000000000000000000000000000000000000000000000000000000000000000000000000000000000000000000000",
      "type": "0x2",
      "transactionHash": "0x6a9b50a5dc4c258ee47652a2cc2fc3e2a57d1eec09a03d1697d976e97cbf09a7",
      "transactionIndex": "0x7",
      "blockHash": "0x964c9d109bc0850b107badd7b3291d53a2c276fdbdb10c03189d50ef7fa4c520",
      "blockNumber": "0x9bb26fc",
      "gasUsed": "0xd435",
      "effectiveGasPrice": "0x5d21dba01",
      "from": "0x6faff29226219756aa40ce648dbc65fb41de5f72",
      "to": "0x95ce14ee82410c4a7296205e0c663969703dc857",
      "contractAddress": null
    },
    {
      "status": "0x1",
      "cumulativeGasUsed": "0x5196c0",
      "logs": [],
      "logsBloom": "0x00000000000000000000000000000000000000000000000000000000000000000000000000000000000000000000000000000000000000000000000000000000000000000000000000000000000000000000000000000000000000000000000000000000000000000000000000000000000000000000000000000000000000000000000000000000000000000000000000000000000000000000000000000000000000000000000000000000000000000000000000000000000000000000000000000000000000000000000000000000000000000000000000000000000000000000000000000000000000000000000000000000000000000000000000000000",
      "type": "0x2",
      "transactionHash": "0x6b3ee2c304ab288adbda4d64147dce4c041e864c267c138656f5d9f31ad86a18",
      "transactionIndex": "0x8",
      "blockHash": "0x964c9d109bc0850b107badd7b3291d53a2c276fdbdb10c03189d50ef7fa4c520",
      "blockNumber": "0x9bb26fc",
      "gasUsed": "0x677ce",
      "effectiveGasPrice": "0x5d21dba01",
      "from": "0x6faff29226219756aa40ce648dbc65fb41de5f72",
      "to": null,
      "contractAddress": "0x0a74129927bffdd1d8c7605ae52708fd8a6f366e"
    },
    {
      "status": "0x1",
      "cumulativeGasUsed": "0x526af5",
      "logs": [],
      "logsBloom": "0x00000000000000000000000000000000000000000000000000000000000000000000000000000000000000000000000000000000000000000000000000000000000000000000000000000000000000000000000000000000000000000000000000000000000000000000000000000000000000000000000000000000000000000000000000000000000000000000000000000000000000000000000000000000000000000000000000000000000000000000000000000000000000000000000000000000000000000000000000000000000000000000000000000000000000000000000000000000000000000000000000000000000000000000000000000000",
      "type": "0x2",
      "transactionHash": "0x6bf6930f5ae9fd45bb9326a0e8122beb9b9118876808c5846942a89ecc1f0a08",
      "transactionIndex": "0x9",
      "blockHash": "0x964c9d109bc0850b107badd7b3291d53a2c276fdbdb10c03189d50ef7fa4c520",
      "blockNumber": "0x9bb26fc",
      "gasUsed": "0xd435",
      "effectiveGasPrice": "0x5d21dba01",
      "from": "0x6faff29226219756aa40ce648dbc65fb41de5f72",
      "to": "0x95ce14ee82410c4a7296205e0c663969703dc857",
      "contractAddress": null
    },
    {
      "status": "0x1",
      "cumulativeGasUsed": "0x58e2c3",
      "logs": [],
      "logsBloom": "0x00000000000000000000000000000000000000000000000000000000000000000000000000000000000000000000000000000000000000000000000000000000000000000000000000000000000000000000000000000000000000000000000000000000000000000000000000000000000000000000000000000000000000000000000000000000000000000000000000000000000000000000000000000000000000000000000000000000000000000000000000000000000000000000000000000000000000000000000000000000000000000000000000000000000000000000000000000000000000000000000000000000000000000000000000000000",
      "type": "0x2",
      "transactionHash": "0xf8a514096d552a626580c0bd69e8f0b5e2b341972c37f76174e7f839e7c52e3f",
      "transactionIndex": "0xa",
      "blockHash": "0x964c9d109bc0850b107badd7b3291d53a2c276fdbdb10c03189d50ef7fa4c520",
      "blockNumber": "0x9bb26fc",
      "gasUsed": "0x677ce",
      "effectiveGasPrice": "0x5d21dba01",
      "from": "0x6faff29226219756aa40ce648dbc65fb41de5f72",
      "to": null,
      "contractAddress": "0x7c5da8ad3979e85df5ca2de8fa3bd1c3deaca9de"
    },
    {
      "status": "0x1",
      "cumulativeGasUsed": "0x59b6f8",
      "logs": [],
      "logsBloom": "0x00000000000000000000000000000000000000000000000000000000000000000000000000000000000000000000000000000000000000000000000000000000000000000000000000000000000000000000000000000000000000000000000000000000000000000000000000000000000000000000000000000000000000000000000000000000000000000000000000000000000000000000000000000000000000000000000000000000000000000000000000000000000000000000000000000000000000000000000000000000000000000000000000000000000000000000000000000000000000000000000000000000000000000000000000000000",
      "type": "0x2",
      "transactionHash": "0x7f4647bd7db602656e7c95d9321534bdc2878e706081cb38c65f87bbd7cfc5ca",
      "transactionIndex": "0xb",
      "blockHash": "0x964c9d109bc0850b107badd7b3291d53a2c276fdbdb10c03189d50ef7fa4c520",
      "blockNumber": "0x9bb26fc",
      "gasUsed": "0xd435",
      "effectiveGasPrice": "0x5d21dba01",
      "from": "0x6faff29226219756aa40ce648dbc65fb41de5f72",
      "to": "0x95ce14ee82410c4a7296205e0c663969703dc857",
      "contractAddress": null
    },
    {
      "status": "0x1",
      "cumulativeGasUsed": "0x602ec6",
      "logs": [],
      "logsBloom": "0x00000000000000000000000000000000000000000000000000000000000000000000000000000000000000000000000000000000000000000000000000000000000000000000000000000000000000000000000000000000000000000000000000000000000000000000000000000000000000000000000000000000000000000000000000000000000000000000000000000000000000000000000000000000000000000000000000000000000000000000000000000000000000000000000000000000000000000000000000000000000000000000000000000000000000000000000000000000000000000000000000000000000000000000000000000000",
      "type": "0x2",
      "transactionHash": "0xf7b4e5e2544b17466350e0ac28b1f80af339f24f0ead492bc19cc61f3deca31e",
      "transactionIndex": "0xc",
      "blockHash": "0x964c9d109bc0850b107badd7b3291d53a2c276fdbdb10c03189d50ef7fa4c520",
      "blockNumber": "0x9bb26fc",
      "gasUsed": "0x677ce",
      "effectiveGasPrice": "0x5d21dba01",
      "from": "0x6faff29226219756aa40ce648dbc65fb41de5f72",
      "to": null,
      "contractAddress": "0x3ff014989fb527a8d8d6c7278d85b10194b20551"
    },
    {
      "status": "0x1",
      "cumulativeGasUsed": "0x6102fb",
      "logs": [],
      "logsBloom": "0x00000000000000000000000000000000000000000000000000000000000000000000000000000000000000000000000000000000000000000000000000000000000000000000000000000000000000000000000000000000000000000000000000000000000000000000000000000000000000000000000000000000000000000000000000000000000000000000000000000000000000000000000000000000000000000000000000000000000000000000000000000000000000000000000000000000000000000000000000000000000000000000000000000000000000000000000000000000000000000000000000000000000000000000000000000000",
      "type": "0x2",
      "transactionHash": "0x2b72f29a82fa3e6919fc364c8af439ff403ca227791d2b02d5aa57ce01388742",
      "transactionIndex": "0xd",
      "blockHash": "0x964c9d109bc0850b107badd7b3291d53a2c276fdbdb10c03189d50ef7fa4c520",
      "blockNumber": "0x9bb26fc",
      "gasUsed": "0xd435",
      "effectiveGasPrice": "0x5d21dba01",
      "from": "0x6faff29226219756aa40ce648dbc65fb41de5f72",
      "to": "0x95ce14ee82410c4a7296205e0c663969703dc857",
      "contractAddress": null
    },
    {
      "status": "0x1",
      "cumulativeGasUsed": "0x677ac9",
      "logs": [],
      "logsBloom": "0x00000000000000000000000000000000000000000000000000000000000000000000000000000000000000000000000000000000000000000000000000000000000000000000000000000000000000000000000000000000000000000000000000000000000000000000000000000000000000000000000000000000000000000000000000000000000000000000000000000000000000000000000000000000000000000000000000000000000000000000000000000000000000000000000000000000000000000000000000000000000000000000000000000000000000000000000000000000000000000000000000000000000000000000000000000000",
      "type": "0x2",
      "transactionHash": "0x4e6746350889509322fbcc09a383defc55431b6cb7da7c32900f0e859a2cb726",
      "transactionIndex": "0xe",
      "blockHash": "0x964c9d109bc0850b107badd7b3291d53a2c276fdbdb10c03189d50ef7fa4c520",
      "blockNumber": "0x9bb26fc",
      "gasUsed": "0x677ce",
      "effectiveGasPrice": "0x5d21dba01",
      "from": "0x6faff29226219756aa40ce648dbc65fb41de5f72",
      "to": null,
      "contractAddress": "0x7443fa8b4fffadafabefc25ca2a1ff5e836e9165"
    },
    {
      "status": "0x1",
      "cumulativeGasUsed": "0x684efe",
      "logs": [],
      "logsBloom": "0x00000000000000000000000000000000000000000000000000000000000000000000000000000000000000000000000000000000000000000000000000000000000000000000000000000000000000000000000000000000000000000000000000000000000000000000000000000000000000000000000000000000000000000000000000000000000000000000000000000000000000000000000000000000000000000000000000000000000000000000000000000000000000000000000000000000000000000000000000000000000000000000000000000000000000000000000000000000000000000000000000000000000000000000000000000000",
      "type": "0x2",
      "transactionHash": "0xf12692317452857623e9d4d1a7c74af94ffcc91aad1bc1be7b6868fc0cf092ef",
      "transactionIndex": "0xf",
      "blockHash": "0x964c9d109bc0850b107badd7b3291d53a2c276fdbdb10c03189d50ef7fa4c520",
      "blockNumber": "0x9bb26fc",
      "gasUsed": "0xd435",
      "effectiveGasPrice": "0x5d21dba01",
      "from": "0x6faff29226219756aa40ce648dbc65fb41de5f72",
      "to": "0x95ce14ee82410c4a7296205e0c663969703dc857",
      "contractAddress": null
    },
    {
      "status": "0x1",
      "cumulativeGasUsed": "0x6ec6cc",
      "logs": [],
      "logsBloom": "0x00000000000000000000000000000000000000000000000000000000000000000000000000000000000000000000000000000000000000000000000000000000000000000000000000000000000000000000000000000000000000000000000000000000000000000000000000000000000000000000000000000000000000000000000000000000000000000000000000000000000000000000000000000000000000000000000000000000000000000000000000000000000000000000000000000000000000000000000000000000000000000000000000000000000000000000000000000000000000000000000000000000000000000000000000000000",
      "type": "0x2",
      "transactionHash": "0x536c6c142f4ac482a45a40db9df1465d48fc3a70a8eb704aeb2cbdb43c4b79e4",
      "transactionIndex": "0x10",
      "blockHash": "0x964c9d109bc0850b107badd7b3291d53a2c276fdbdb10c03189d50ef7fa4c520",
      "blockNumber": "0x9bb26fc",
      "gasUsed": "0x677ce",
      "effectiveGasPrice": "0x5d21dba01",
      "from": "0x6faff29226219756aa40ce648dbc65fb41de5f72",
      "to": null,
      "contractAddress": "0x18099eb136744bd92aac30f9d7f57329d757d73e"
    },
    {
      "status": "0x1",
      "cumulativeGasUsed": "0x6f9b01",
      "logs": [],
      "logsBloom": "0x00000000000000000000000000000000000000000000000000000000000000000000000000000000000000000000000000000000000000000000000000000000000000000000000000000000000000000000000000000000000000000000000000000000000000000000000000000000000000000000000000000000000000000000000000000000000000000000000000000000000000000000000000000000000000000000000000000000000000000000000000000000000000000000000000000000000000000000000000000000000000000000000000000000000000000000000000000000000000000000000000000000000000000000000000000000",
      "type": "0x2",
      "transactionHash": "0xb0e0eac3d53bcdd26138af91004e8e65478511d407d7e0b081b2c14626c6402f",
      "transactionIndex": "0x11",
      "blockHash": "0x964c9d109bc0850b107badd7b3291d53a2c276fdbdb10c03189d50ef7fa4c520",
      "blockNumber": "0x9bb26fc",
      "gasUsed": "0xd435",
      "effectiveGasPrice": "0x5d21dba01",
      "from": "0x6faff29226219756aa40ce648dbc65fb41de5f72",
      "to": "0x95ce14ee82410c4a7296205e0c663969703dc857",
      "contractAddress": null
    },
    {
      "status": "0x1",
      "cumulativeGasUsed": "0x677ce",
      "logs": [],
      "logsBloom": "0x00000000000000000000000000000000000000000000000000000000000000000000000000000000000000000000000000000000000000000000000000000000000000000000000000000000000000000000000000000000000000000000000000000000000000000000000000000000000000000000000000000000000000000000000000000000000000000000000000000000000000000000000000000000000000000000000000000000000000000000000000000000000000000000000000000000000000000000000000000000000000000000000000000000000000000000000000000000000000000000000000000000000000000000000000000000",
      "type": "0x2",
      "transactionHash": "0x415538b4209bc065e251a85b4adaba3f8ca3824294f6a44f85a79a616e6d02d9",
      "transactionIndex": "0x0",
      "blockHash": "0x13a3ac87411ed767c3f3aca31c993e07cb13bd16fdd323b6987ae2f7201f7b75",
      "blockNumber": "0x9bb26fd",
      "gasUsed": "0x677ce",
      "effectiveGasPrice": "0x5d21dba01",
      "from": "0x6faff29226219756aa40ce648dbc65fb41de5f72",
      "to": null,
      "contractAddress": "0x0dd9ad619d810f47b333a2356e1de086df1291ed"
    },
    {
      "status": "0x1",
      "cumulativeGasUsed": "0x74c03",
      "logs": [],
      "logsBloom": "0x00000000000000000000000000000000000000000000000000000000000000000000000000000000000000000000000000000000000000000000000000000000000000000000000000000000000000000000000000000000000000000000000000000000000000000000000000000000000000000000000000000000000000000000000000000000000000000000000000000000000000000000000000000000000000000000000000000000000000000000000000000000000000000000000000000000000000000000000000000000000000000000000000000000000000000000000000000000000000000000000000000000000000000000000000000000",
      "type": "0x2",
      "transactionHash": "0x9f12422ddba897cfda14b82b24a77a1ce2b3a514e7e5455ddaf298039dd80bee",
      "transactionIndex": "0x1",
      "blockHash": "0x13a3ac87411ed767c3f3aca31c993e07cb13bd16fdd323b6987ae2f7201f7b75",
      "blockNumber": "0x9bb26fd",
      "gasUsed": "0xd435",
      "effectiveGasPrice": "0x5d21dba01",
      "from": "0x6faff29226219756aa40ce648dbc65fb41de5f72",
      "to": "0x95ce14ee82410c4a7296205e0c663969703dc857",
      "contractAddress": null
    }
  ],
  "libraries": [],
  "pending": [],
  "returns": {},
  "timestamp": 1724841814,
  "chain": 1001,
  "commit": "773aafb"
}