{
  "transactions": [
    {
      "hash": "0x142a7b5fe583cda3d1128bba85652feaac218fad518bbbe04078fa1db77b6f29",
      "transactionType": "CALL",
      "contractName": null,
      "contractAddress": "0x61684fc62b6a0f1273f69d9fca0e264001a61db6",
      "function": "airdropERC20(address,address[],uint256[],uint256)",
      "arguments": [
        "0x0b1FfE056fD5CD4918747D5F4872901B6Ad87aBf",
        "[0xb3cA98BB125B071C2D15032150F129e8A697EB06, 0xfbC511E6cd7b9478ab8bc98Fa358fEa869624c1E, 0x130fe337B89101bc9197Eff4C3AdaBfb9364a212, 0x8Fc8cAA43109Ab3f0D6d62A707842ff2a6F6BA32, 0x2dD7Cd23a3f8C51EC5Cf47810440b93fbe1944b5]",
        "[0, 0, 0, 0, 0]",
        "0"
      ],
      "transaction": {
        "from": "0x6faff29226219756aa40ce648dbc65fb41de5f72",
        "to": "0x61684fc62b6a0f1273f69d9fca0e264001a61db6",
        "gas": "0x223e6",
        "value": "0x0",
        "input": "0x82947abe0000000000000000000000000b1ffe056fd5cd4918747d5f4872901b6ad87abf0000000000000000000000000000000000000000000000000000000000000080000000000000000000000000000000000000000000000000000000000000014000000000000000000000000000000000000000000000000000000000000000000000000000000000000000000000000000000000000000000000000000000005000000000000000000000000b3ca98bb125b071c2d15032150f129e8a697eb06000000000000000000000000fbc511e6cd7b9478ab8bc98fa358fea869624c1e000000000000000000000000130fe337b89101bc9197eff4c3adabfb9364a2120000000000000000000000008fc8caa43109ab3f0d6d62a707842ff2a6f6ba320000000000000000000000002dd7cd23a3f8c51ec5cf47810440b93fbe1944b5000000000000000000000000000000000000000000000000000000000000000500000000000000000000000000000000000000000000000000000000000000000000000000000000000000000000000000000000000000000000000000000000000000000000000000000000000000000000000000000000000000000000000000000000000000000000000000000000000000000000000000000000000000000000000000000000000000000000000000000000000000000000000000000000",
        "nonce": "0x8f",
        "chainId": "0x3e9"
      },
      "additionalContracts": [],
      "isFixedGasLimit": false
    }
  ],
  "receipts": [
    {
      "status": "0x1",
      "cumulativeGasUsed": "0x3623fe",
      "logs": [
        {
          "address": "0x0b1ffe056fd5cd4918747d5f4872901b6ad87abf",
          "topics": [
            "0xddf252ad1be2c89b69c2b068fc378daa952ba7f163c4a11628f55a4df523b3ef",
            "0x0000000000000000000000006faff29226219756aa40ce648dbc65fb41de5f72",
            "0x00000000000000000000000061684fc62b6a0f1273f69d9fca0e264001a61db6"
          ],
          "data": "0x0000000000000000000000000000000000000000000000000000000000000000",
          "blockHash": "0xff5e68103ba35ef8c525eca79962ed2d382b8208403c262041937527bf55dfe4",
          "blockNumber": "0x9b8471c",
          "transactionHash": "0x142a7b5fe583cda3d1128bba85652feaac218fad518bbbe04078fa1db77b6f29",
          "transactionIndex": "0x1",
          "logIndex": "0x21",
          "removed": false
        },
        {
          "address": "0x0b1ffe056fd5cd4918747d5f4872901b6ad87abf",
          "topics": [
            "0xddf252ad1be2c89b69c2b068fc378daa952ba7f163c4a11628f55a4df523b3ef",
            "0x00000000000000000000000061684fc62b6a0f1273f69d9fca0e264001a61db6",
            "0x000000000000000000000000b3ca98bb125b071c2d15032150f129e8a697eb06"
          ],
          "data": "0x0000000000000000000000000000000000000000000000000000000000000000",
          "blockHash": "0xff5e68103ba35ef8c525eca79962ed2d382b8208403c262041937527bf55dfe4",
          "blockNumber": "0x9b8471c",
          "transactionHash": "0x142a7b5fe583cda3d1128bba85652feaac218fad518bbbe04078fa1db77b6f29",
          "transactionIndex": "0x1",
          "logIndex": "0x22",
          "removed": false
        },
        {
          "address": "0x0b1ffe056fd5cd4918747d5f4872901b6ad87abf",
          "topics": [
            "0xddf252ad1be2c89b69c2b068fc378daa952ba7f163c4a11628f55a4df523b3ef",
            "0x00000000000000000000000061684fc62b6a0f1273f69d9fca0e264001a61db6",
            "0x000000000000000000000000fbc511e6cd7b9478ab8bc98fa358fea869624c1e"
          ],
          "data": "0x0000000000000000000000000000000000000000000000000000000000000000",
          "blockHash": "0xff5e68103ba35ef8c525eca79962ed2d382b8208403c262041937527bf55dfe4",
          "blockNumber": "0x9b8471c",
          "transactionHash": "0x142a7b5fe583cda3d1128bba85652feaac218fad518bbbe04078fa1db77b6f29",
          "transactionIndex": "0x1",
          "logIndex": "0x23",
          "removed": false
        },
        {
          "address": "0x0b1ffe056fd5cd4918747d5f4872901b6ad87abf",
          "topics": [
            "0xddf252ad1be2c89b69c2b068fc378daa952ba7f163c4a11628f55a4df523b3ef",
            "0x00000000000000000000000061684fc62b6a0f1273f69d9fca0e264001a61db6",
            "0x000000000000000000000000130fe337b89101bc9197eff4c3adabfb9364a212"
          ],
          "data": "0x0000000000000000000000000000000000000000000000000000000000000000",
          "blockHash": "0xff5e68103ba35ef8c525eca79962ed2d382b8208403c262041937527bf55dfe4",
          "blockNumber": "0x9b8471c",
          "transactionHash": "0x142a7b5fe583cda3d1128bba85652feaac218fad518bbbe04078fa1db77b6f29",
          "transactionIndex": "0x1",
          "logIndex": "0x24",
          "removed": false
        },
        {
          "address": "0x0b1ffe056fd5cd4918747d5f4872901b6ad87abf",
          "topics": [
            "0xddf252ad1be2c89b69c2b068fc378daa952ba7f163c4a11628f55a4df523b3ef",
            "0x00000000000000000000000061684fc62b6a0f1273f69d9fca0e264001a61db6",
            "0x0000000000000000000000008fc8caa43109ab3f0d6d62a707842ff2a6f6ba32"
          ],
          "data": "0x0000000000000000000000000000000000000000000000000000000000000000",
          "blockHash": "0xff5e68103ba35ef8c525eca79962ed2d382b8208403c262041937527bf55dfe4",
          "blockNumber": "0x9b8471c",
          "transactionHash": "0x142a7b5fe583cda3d1128bba85652feaac218fad518bbbe04078fa1db77b6f29",
          "transactionIndex": "0x1",
          "logIndex": "0x25",
          "removed": false
        },
        {
          "address": "0x0b1ffe056fd5cd4918747d5f4872901b6ad87abf",
          "topics": [
            "0xddf252ad1be2c89b69c2b068fc378daa952ba7f163c4a11628f55a4df523b3ef",
            "0x00000000000000000000000061684fc62b6a0f1273f69d9fca0e264001a61db6",
            "0x0000000000000000000000002dd7cd23a3f8c51ec5cf47810440b93fbe1944b5"
          ],
          "data": "0x0000000000000000000000000000000000000000000000000000000000000000",
          "blockHash": "0xff5e68103ba35ef8c525eca79962ed2d382b8208403c262041937527bf55dfe4",
          "blockNumber": "0x9b8471c",
          "transactionHash": "0x142a7b5fe583cda3d1128bba85652feaac218fad518bbbe04078fa1db77b6f29",
          "transactionIndex": "0x1",
          "logIndex": "0x26",
          "removed": false
        }
      ],
      "logsBloom": "0x00000000000000004000000080000000000000000000000000000000000000000000000000002008000000000000000040000000000000000000010080000000100000000000000000000008000000000000000000000000000000000000000000000000000000000000000000000000000000000004000000000010000000000000000000000200001020000000000000000000000200000000040000000000000000000000000000000000000000000000000001000020000000000000000000000002020000000000400000000000000000000000000000000000000004000040000000000000000000000000000800000001000000000008000000000000",
      "type": "0x2",
      "transactionHash": "0x142a7b5fe583cda3d1128bba85652feaac218fad518bbbe04078fa1db77b6f29",
      "transactionIndex": "0x1",
      "blockHash": "0xff5e68103ba35ef8c525eca79962ed2d382b8208403c262041937527bf55dfe4",
      "blockNumber": "0x9b8471c",
      "gasUsed": "0x1bd4a",
      "effectiveGasPrice": "0xcce416600",
      "from": "0x6faff29226219756aa40ce648dbc65fb41de5f72",
      "to": "0x61684fc62b6a0f1273f69d9fca0e264001a61db6",
      "contractAddress": null
    }
  ],
  "libraries": [],
  "pending": [],
  "returns": {},
  "timestamp": 1724653430,
  "chain": 1001,
  "commit": "86932e6"
}