{
  "transactions": [
    {
      "hash": "0xcfbe3873120f060c98d7711c8e89746803716df275481208ba80c0360980667f",
      "transactionType": "CALL",
      "contractName": null,
      "contractAddress": "0x0b1ffe056fd5cd4918747d5f4872901b6ad87abf",
      "function": "approve(address,uint256)",
      "arguments": [
        "0x61684fc62B6a0f1273f69D9Fca0E264001a61Db6",
        "50000000000000000000"
      ],
      "transaction": {
        "from": "0x6faff29226219756aa40ce648dbc65fb41de5f72",
        "to": "0x0b1ffe056fd5cd4918747d5f4872901b6ad87abf",
        "gas": "0x197d4",
        "value": "0x0",
        "input": "0x095ea7b300000000000000000000000061684fc62b6a0f1273f69d9fca0e264001a61db6000000000000000000000000000000000000000000000002b5e3af16b1880000",
        "nonce": "0x90",
        "chainId": "0x3e9"
      },
      "additionalContracts": [],
      "isFixedGasLimit": false
    },
    {
      "hash": "0xf84abd0f5dd7ec15c9e4db6a019997bfe2e0486383cfa08397f3eeccd5cc74bb",
      "transactionType": "CALL",
      "contractName": null,
      "contractAddress": "0x61684fc62b6a0f1273f69d9fca0e264001a61db6",
      "function": "airdropERC20(address,address[],uint256[],uint256)",
      "arguments": [
        "0x0b1FfE056fD5CD4918747D5F4872901B6Ad87aBf",
        "[0xb3cA98BB125B071C2D15032150F129e8A697EB06, 0xfbC511E6cd7b9478ab8bc98Fa358fEa869624c1E, 0x130fe337B89101bc9197Eff4C3AdaBfb9364a212, 0x8Fc8cAA43109Ab3f0D6d62A707842ff2a6F6BA32, 0x2dD7Cd23a3f8C51EC5Cf47810440b93fbe1944b5]",
        "[10000000000000000000, 10000000000000000000, 10000000000000000000, 10000000000000000000, 10000000000000000000]",
        "50000000000000000000"
      ],
      "transaction": {
        "from": "0x6faff29226219756aa40ce648dbc65fb41de5f72",
        "to": "0x61684fc62b6a0f1273f69d9fca0e264001a61db6",
        "gas": "0x56826",
        "value": "0x0",
        "input": "0x82947abe0000000000000000000000000b1ffe056fd5cd4918747d5f4872901b6ad87abf00000000000000000000000000000000000000000000000000000000000000800000000000000000000000000000000000000000000000000000000000000140000000000000000000000000000000000000000000000002b5e3af16b18800000000000000000000000000000000000000000000000000000000000000000005000000000000000000000000b3ca98bb125b071c2d15032150f129e8a697eb06000000000000000000000000fbc511e6cd7b9478ab8bc98fa358fea869624c1e000000000000000000000000130fe337b89101bc9197eff4c3adabfb9364a2120000000000000000000000008fc8caa43109ab3f0d6d62a707842ff2a6f6ba320000000000000000000000002dd7cd23a3f8c51ec5cf47810440b93fbe1944b500000000000000000000000000000000000000000000000000000000000000050000000000000000000000000000000000000000000000008ac7230489e800000000000000000000000000000000000000000000000000008ac7230489e800000000000000000000000000000000000000000000000000008ac7230489e800000000000000000000000000000000000000000000000000008ac7230489e800000000000000000000000000000000000000000000000000008ac7230489e80000",
        "nonce": "0x91",
        "chainId": "0x3e9"
      },
      "additionalContracts": [],
      "isFixedGasLimit": false
    }
  ],
  "receipts": [
    {
      "status": "0x1",
      "cumulativeGasUsed": "0xcd4e",
      "logs": [
        {
          "address": "0x0b1ffe056fd5cd4918747d5f4872901b6ad87abf",
          "topics": [
            "0x8c5be1e5ebec7d5bd14f71427d1e84f3dd0314c0f7b2291e5b200ac8c7c3b925",
            "0x0000000000000000000000006faff29226219756aa40ce648dbc65fb41de5f72",
            "0x00000000000000000000000061684fc62b6a0f1273f69d9fca0e264001a61db6"
          ],
          "data": "0x000000000000000000000000000000000000000000000002b5e3af16b1880000",
          "blockHash": "0x34d50bc52879c93027432c8ee4fe82a160bbe2fb82ec9e18b2adfcafa453b419",
          "blockNumber": "0x9b84984",
          "transactionHash": "0xcfbe3873120f060c98d7711c8e89746803716df275481208ba80c0360980667f",
          "transactionIndex": "0x0",
          "logIndex": "0x0",
          "removed": false
        }
      ],
      "logsBloom": "0x00000000000000000000000000000000000000000000000000000000000000000000000000000000000000000000000000000000000000000000010080200000000000000000000000000000000000000000000000000000000000000000000000000000000000000000000000000000000000000004000000000000000000000000000000000200000000000000000000000000000000000000000000000000020000000000000000000000000000000000000000000000000000000000000000000002000000000000000000000000000000000000000000000000000004000050000000000000000000000000000800000001000000000000000000000000",
      "type": "0x2",
      "transactionHash": "0xcfbe3873120f060c98d7711c8e89746803716df275481208ba80c0360980667f",
      "transactionIndex": "0x0",
      "blockHash": "0x34d50bc52879c93027432c8ee4fe82a160bbe2fb82ec9e18b2adfcafa453b419",
      "blockNumber": "0x9b84984",
      "gasUsed": "0xcd4e",
      "effectiveGasPrice": "0xcce416600",
      "from": "0x6faff29226219756aa40ce648dbc65fb41de5f72",
      "to": "0x0b1ffe056fd5cd4918747d5f4872901b6ad87abf",
      "contractAddress": null
    },
    {
      "status": "0x1",
      "cumulativeGasUsed": "0x41264",
      "logs": [
        {
          "address": "0x0b1ffe056fd5cd4918747d5f4872901b6ad87abf",
          "topics": [
            "0xddf252ad1be2c89b69c2b068fc378daa952ba7f163c4a11628f55a4df523b3ef",
            "0x0000000000000000000000006faff29226219756aa40ce648dbc65fb41de5f72",
            "0x00000000000000000000000061684fc62b6a0f1273f69d9fca0e264001a61db6"
          ],
          "data": "0x000000000000000000000000000000000000000000000002b5e3af16b1880000",
          "blockHash": "0x34d50bc52879c93027432c8ee4fe82a160bbe2fb82ec9e18b2adfcafa453b419",
          "blockNumber": "0x9b84984",
          "transactionHash": "0xf84abd0f5dd7ec15c9e4db6a019997bfe2e0486383cfa08397f3eeccd5cc74bb",
          "transactionIndex": "0x1",
          "logIndex": "0x1",
          "removed": false
        },
        {
          "address": "0x0b1ffe056fd5cd4918747d5f4872901b6ad87abf",
          "topics": [
            "0xddf252ad1be2c89b69c2b068fc378daa952ba7f163c4a11628f55a4df523b3ef",
            "0x00000000000000000000000061684fc62b6a0f1273f69d9fca0e264001a61db6",
            "0x000000000000000000000000b3ca98bb125b071c2d15032150f129e8a697eb06"
          ],
          "data": "0x0000000000000000000000000000000000000000000000008ac7230489e80000",
          "blockHash": "0x34d50bc52879c93027432c8ee4fe82a160bbe2fb82ec9e18b2adfcafa453b419",
          "blockNumber": "0x9b84984",
          "transactionHash": "0xf84abd0f5dd7ec15c9e4db6a019997bfe2e0486383cfa08397f3eeccd5cc74bb",
          "transactionIndex": "0x1",
          "logIndex": "0x2",
          "removed": false
        },
        {
          "address": "0x0b1ffe056fd5cd4918747d5f4872901b6ad87abf",
          "topics": [
            "0xddf252ad1be2c89b69c2b068fc378daa952ba7f163c4a11628f55a4df523b3ef",
            "0x00000000000000000000000061684fc62b6a0f1273f69d9fca0e264001a61db6",
            "0x000000000000000000000000fbc511e6cd7b9478ab8bc98fa358fea869624c1e"
          ],
          "data": "0x0000000000000000000000000000000000000000000000008ac7230489e80000",
          "blockHash": "0x34d50bc52879c93027432c8ee4fe82a160bbe2fb82ec9e18b2adfcafa453b419",
          "blockNumber": "0x9b84984",
          "transactionHash": "0xf84abd0f5dd7ec15c9e4db6a019997bfe2e0486383cfa08397f3eeccd5cc74bb",
          "transactionIndex": "0x1",
          "logIndex": "0x3",
          "removed": false
        },
        {
          "address": "0x0b1ffe056fd5cd4918747d5f4872901b6ad87abf",
          "topics": [
            "0xddf252ad1be2c89b69c2b068fc378daa952ba7f163c4a11628f55a4df523b3ef",
            "0x00000000000000000000000061684fc62b6a0f1273f69d9fca0e264001a61db6",
            "0x000000000000000000000000130fe337b89101bc9197eff4c3adabfb9364a212"
          ],
          "data": "0x0000000000000000000000000000000000000000000000008ac7230489e80000",
          "blockHash": "0x34d50bc52879c93027432c8ee4fe82a160bbe2fb82ec9e18b2adfcafa453b419",
          "blockNumber": "0x9b84984",
          "transactionHash": "0xf84abd0f5dd7ec15c9e4db6a019997bfe2e0486383cfa08397f3eeccd5cc74bb",
          "transactionIndex": "0x1",
          "logIndex": "0x4",
          "removed": false
        },
        {
          "address": "0x0b1ffe056fd5cd4918747d5f4872901b6ad87abf",
          "topics": [
            "0xddf252ad1be2c89b69c2b068fc378daa952ba7f163c4a11628f55a4df523b3ef",
            "0x00000000000000000000000061684fc62b6a0f1273f69d9fca0e264001a61db6",
            "0x0000000000000000000000008fc8caa43109ab3f0d6d62a707842ff2a6f6ba32"
          ],
          "data": "0x0000000000000000000000000000000000000000000000008ac7230489e80000",
          "blockHash": "0x34d50bc52879c93027432c8ee4fe82a160bbe2fb82ec9e18b2adfcafa453b419",
          "blockNumber": "0x9b84984",
          "transactionHash": "0xf84abd0f5dd7ec15c9e4db6a019997bfe2e0486383cfa08397f3eeccd5cc74bb",
          "transactionIndex": "0x1",
          "logIndex": "0x5",
          "removed": false
        },
        {
          "address": "0x0b1ffe056fd5cd4918747d5f4872901b6ad87abf",
          "topics": [
            "0xddf252ad1be2c89b69c2b068fc378daa952ba7f163c4a11628f55a4df523b3ef",
            "0x00000000000000000000000061684fc62b6a0f1273f69d9fca0e264001a61db6",
            "0x0000000000000000000000002dd7cd23a3f8c51ec5cf47810440b93fbe1944b5"
          ],
          "data": "0x0000000000000000000000000000000000000000000000008ac7230489e80000",
          "blockHash": "0x34d50bc52879c93027432c8ee4fe82a160bbe2fb82ec9e18b2adfcafa453b419",
          "blockNumber": "0x9b84984",
          "transactionHash": "0xf84abd0f5dd7ec15c9e4db6a019997bfe2e0486383cfa08397f3eeccd5cc74bb",
          "transactionIndex": "0x1",
          "logIndex": "0x6",
          "removed": false
        }
      ],
      "logsBloom": "0x00000000000000004000000080000000000000000000000000000000000000000000000000002008000000000000000040000000000000000000010080000000100000000000000000000008000000000000000000000000000000000000000000000000000000000000000000000000000000000004000000000010000000000000000000000200001020000000000000000000000200000000040000000000000000000000000000000000000000000000000001000020000000000000000000000002020000000000400000000000000000000000000000000000000004000040000000000000000000000000000800000001000000000008000000000000",
      "type": "0x2",
      "transactionHash": "0xf84abd0f5dd7ec15c9e4db6a019997bfe2e0486383cfa08397f3eeccd5cc74bb",
      "transactionIndex": "0x1",
      "blockHash": "0x34d50bc52879c93027432c8ee4fe82a160bbe2fb82ec9e18b2adfcafa453b419",
      "blockNumber": "0x9b84984",
      "gasUsed": "0x34516",
      "effectiveGasPrice": "0xcce416600",
      "from": "0x6faff29226219756aa40ce648dbc65fb41de5f72",
      "to": "0x61684fc62b6a0f1273f69d9fca0e264001a61db6",
      "contractAddress": null
    }
  ],
  "libraries": [],
  "pending": [],
  "returns": {},
  "timestamp": 1724654046,
  "chain": 1001,
  "commit": "86932e6"
}