{
  "transactions": [
    {
      "hash": "0x46c3064b9aa3dd088bb5e1e07d0807a152813d692d46f2421e5b84542986aa29",
      "transactionType": "CREATE",
      "contractName": "Vault",
      "contractAddress": "0x51f389021b2a80fcfe1eb2a7bfe8b24109c67670",
      "function": null,
      "arguments": [
        "0x6570796368786c6b677300000000000000000000000000000000000000000000"
      ],
      "transaction": {
        "from": "0x6faff29226219756aa40ce648dbc65fb41de5f72",
        "gas": "0x6732a",
        "value": "0x0",
        "input": "0x60806040525f80546001600160a01b031916737be02decc3dc3be771d851fcf457bd9baa99010a1790553480156033575f80fd5b5060405161028f38038061028f8339810160408190526050916069565b5f805460ff60a01b1916600160a01b179055600155607f565b5f602082840312156078575f80fd5b5051919050565b6102038061008c5f395ff3fe608060405234801561000f575f80fd5b506004361061003f575f3560e01c8063701385a014610043578063cf3090121461004d578063ec9b5b3a14610074575b5f80fd5b61004b610087565b005b5f5461006090600160a01b900460ff1681565b604051901515815260200160405180910390f35b61004b6100823660046101c8565b610197565b5f54600160a01b900460ff1615156001036100b557604051635adc30c160e11b815260040160405180910390fd5b5f8054604051632f745c5960e01b8152306004820181905260248201939093526001600160a01b03909116916323b872dd9133908490632f745c5990604401602060405180830381865afa15801561010f573d5f803e3d5ffd5b505050506040513d601f19601f8201168201806040525081019061013391906101df565b6040516001600160e01b031960e086901b1681526001600160a01b03938416600482015292909116602483015260448201526064015f604051808303815f87803b15801561017f575f80fd5b505af1158015610191573d5f803e3d5ffd5b50505050565b80600154036101af575f805460ff60a01b1916905550565b604051635ee88f9760e01b815260040160405180910390fd5b5f602082840312156101d8575f80fd5b5035919050565b5f602082840312156101ef575f80fd5b505191905056fea164736f6c6343000819000a6570796368786c6b677300000000000000000000000000000000000000000000",
        "nonce": "0x100",
        "chainId": "0x3e9"
      },
      "additionalContracts": [],
      "isFixedGasLimit": false
    },
    {
      "hash": "0xc17757019ad057dd9b329b63961b8b72384242edc4a48ea90ea0fb3356f26f6a",
      "transactionType": "CALL",
      "contractName": null,
      "contractAddress": "0x40a72f733a7168337cc2523d20511ad6a569a2c3",
      "function": "addGemCastle(address)",
      "arguments": [
        "0x51f389021B2A80fCfE1eB2a7bFE8b24109C67670"
      ],
      "transaction": {
        "from": "0x6faff29226219756aa40ce648dbc65fb41de5f72",
        "to": "0x40a72f733a7168337cc2523d20511ad6a569a2c3",
        "gas": "0x236c4",
        "value": "0x0",
        "input": "0x5862c89400000000000000000000000051f389021b2a80fcfe1eb2a7bfe8b24109c67670",
        "nonce": "0x101",
        "chainId": "0x3e9"
      },
      "additionalContracts": [],
      "isFixedGasLimit": false
    },
    {
      "hash": "0x2b824ff1d4224b8a3cbc68d5a62c0a121b196a418bd51a41dfc154b1f2b18279",
      "transactionType": "CREATE",
      "contractName": "Vault",
      "contractAddress": "0x9cf16f72cf9bc492cc0a0b6c25361cbc215326ac",
      "function": null,
      "arguments": [
        "0x6570796368786c6b677300000000000000000000000000000000000000000000"
      ],
      "transaction": {
        "from": "0x6faff29226219756aa40ce648dbc65fb41de5f72",
        "gas": "0x6732a",
        "value": "0x0",
        "input": "0x60806040525f80546001600160a01b031916737be02decc3dc3be771d851fcf457bd9baa99010a1790553480156033575f80fd5b5060405161028f38038061028f8339810160408190526050916069565b5f805460ff60a01b1916600160a01b179055600155607f565b5f602082840312156078575f80fd5b5051919050565b6102038061008c5f395ff3fe608060405234801561000f575f80fd5b506004361061003f575f3560e01c8063701385a014610043578063cf3090121461004d578063ec9b5b3a14610074575b5f80fd5b61004b610087565b005b5f5461006090600160a01b900460ff1681565b604051901515815260200160405180910390f35b61004b6100823660046101c8565b610197565b5f54600160a01b900460ff1615156001036100b557604051635adc30c160e11b815260040160405180910390fd5b5f8054604051632f745c5960e01b8152306004820181905260248201939093526001600160a01b03909116916323b872dd9133908490632f745c5990604401602060405180830381865afa15801561010f573d5f803e3d5ffd5b505050506040513d601f19601f8201168201806040525081019061013391906101df565b6040516001600160e01b031960e086901b1681526001600160a01b03938416600482015292909116602483015260448201526064015f604051808303815f87803b15801561017f575f80fd5b505af1158015610191573d5f803e3d5ffd5b50505050565b80600154036101af575f805460ff60a01b1916905550565b604051635ee88f9760e01b815260040160405180910390fd5b5f602082840312156101d8575f80fd5b5035919050565b5f602082840312156101ef575f80fd5b505191905056fea164736f6c6343000819000a6570796368786c6b677300000000000000000000000000000000000000000000",
        "nonce": "0x102",
        "chainId": "0x3e9"
      },
      "additionalContracts": [],
      "isFixedGasLimit": false
    },
    {
      "hash": "0xce7409fe27078c71a735983b1952989b4da057d7d2ee82b71b48d600f88f958a",
      "transactionType": "CALL",
      "contractName": null,
      "contractAddress": "0x40a72f733a7168337cc2523d20511ad6a569a2c3",
      "function": "addGemCastle(address)",
      "arguments": [
        "0x9CF16f72CF9BC492cc0A0B6c25361cBc215326Ac"
      ],
      "transaction": {
        "from": "0x6faff29226219756aa40ce648dbc65fb41de5f72",
        "to": "0x40a72f733a7168337cc2523d20511ad6a569a2c3",
        "gas": "0x1c1d0",
        "value": "0x0",
        "input": "0x5862c8940000000000000000000000009cf16f72cf9bc492cc0a0b6c25361cbc215326ac",
        "nonce": "0x103",
        "chainId": "0x3e9"
      },
      "additionalContracts": [],
      "isFixedGasLimit": false
    },
    {
      "hash": "0x9501da5444a94bff74739893a9b79678db62fe87282120da58987b5ede0b8d5a",
      "transactionType": "CREATE",
      "contractName": "Vault",
      "contractAddress": "0x576b8e71d8d0144e4cb378c4ead7313b1d5775a8",
      "function": null,
      "arguments": [
        "0x6570796368786c6b677300000000000000000000000000000000000000000000"
      ],
      "transaction": {
        "from": "0x6faff29226219756aa40ce648dbc65fb41de5f72",
        "gas": "0x6732a",
        "value": "0x0",
        "input": "0x60806040525f80546001600160a01b031916737be02decc3dc3be771d851fcf457bd9baa99010a1790553480156033575f80fd5b5060405161028f38038061028f8339810160408190526050916069565b5f805460ff60a01b1916600160a01b179055600155607f565b5f602082840312156078575f80fd5b5051919050565b6102038061008c5f395ff3fe608060405234801561000f575f80fd5b506004361061003f575f3560e01c8063701385a014610043578063cf3090121461004d578063ec9b5b3a14610074575b5f80fd5b61004b610087565b005b5f5461006090600160a01b900460ff1681565b604051901515815260200160405180910390f35b61004b6100823660046101c8565b610197565b5f54600160a01b900460ff1615156001036100b557604051635adc30c160e11b815260040160405180910390fd5b5f8054604051632f745c5960e01b8152306004820181905260248201939093526001600160a01b03909116916323b872dd9133908490632f745c5990604401602060405180830381865afa15801561010f573d5f803e3d5ffd5b505050506040513d601f19601f8201168201806040525081019061013391906101df565b6040516001600160e01b031960e086901b1681526001600160a01b03938416600482015292909116602483015260448201526064015f604051808303815f87803b15801561017f575f80fd5b505af1158015610191573d5f803e3d5ffd5b50505050565b80600154036101af575f805460ff60a01b1916905550565b604051635ee88f9760e01b815260040160405180910390fd5b5f602082840312156101d8575f80fd5b5035919050565b5f602082840312156101ef575f80fd5b505191905056fea164736f6c6343000819000a6570796368786c6b677300000000000000000000000000000000000000000000",
        "nonce": "0x104",
        "chainId": "0x3e9"
      },
      "additionalContracts": [],
      "isFixedGasLimit": false
    },
    {
      "hash": "0x28d487681917713effbb17ed5834419467182cf4a19d4a5ecc148d6d4d269dc2",
      "transactionType": "CALL",
      "contractName": null,
      "contractAddress": "0x40a72f733a7168337cc2523d20511ad6a569a2c3",
      "function": "addGemCastle(address)",
      "arguments": [
        "0x576B8e71D8d0144E4cb378C4EAd7313B1D5775A8"
      ],
      "transaction": {
        "from": "0x6faff29226219756aa40ce648dbc65fb41de5f72",
        "to": "0x40a72f733a7168337cc2523d20511ad6a569a2c3",
        "gas": "0x1c1d0",
        "value": "0x0",
        "input": "0x5862c894000000000000000000000000576b8e71d8d0144e4cb378c4ead7313b1d5775a8",
        "nonce": "0x105",
        "chainId": "0x3e9"
      },
      "additionalContracts": [],
      "isFixedGasLimit": false
    }
  ],
  "receipts": [
    {
      "status": "0x1",
      "cumulativeGasUsed": "0x41cbd",
      "logs": [],
      "logsBloom": "0x00000000000000000000000000000000000000000000000000000000000000000000000000000000000000000000000000000000000000000000000000000000000000000000000000000000000000000000000000000000000000000000000000000000000000000000000000000000000000000000000000000000000000000000000000000000000000000000000000000000000000000000000000000000000000000000000000000000000000000000000000000000000000000000000000000000000000000000000000000000000000000000000000000000000000000000000000000000000000000000000000000000000000000000000000000000",
      "type": "0x2",
      "transactionHash": "0x46c3064b9aa3dd088bb5e1e07d0807a152813d692d46f2421e5b84542986aa29",
      "transactionIndex": "0x0",
      "blockHash": "0x257a42c0ff471034ba66da072bb3a3ab1f7993d235d3d88ca10f01236abc3ff4",
      "blockNumber": "0x9b862d1",
      "gasUsed": "0x41cbd",
      "effectiveGasPrice": "0x5d21dba01",
      "from": "0x6faff29226219756aa40ce648dbc65fb41de5f72",
      "to": null,
      "contractAddress": "0x51f389021b2a80fcfe1eb2a7bfe8b24109c67670"
    },
    {
      "status": "0x1",
      "cumulativeGasUsed": "0x11717",
      "logs": [],
      "logsBloom": "0x00000000000000000000000000000000000000000000000000000000000000000000000000000000000000000000000000000000000000000000000000000000000000000000000000000000000000000000000000000000000000000000000000000000000000000000000000000000000000000000000000000000000000000000000000000000000000000000000000000000000000000000000000000000000000000000000000000000000000000000000000000000000000000000000000000000000000000000000000000000000000000000000000000000000000000000000000000000000000000000000000000000000000000000000000000000",
      "type": "0x2",
      "transactionHash": "0xc17757019ad057dd9b329b63961b8b72384242edc4a48ea90ea0fb3356f26f6a",
      "transactionIndex": "0x0",
      "blockHash": "0xfbc11072cb191fcb5857bc87813fe4984e7dec217fa75d7ee6441fa3cf913397",
      "blockNumber": "0x9b862d2",
      "gasUsed": "0x11717",
      "effectiveGasPrice": "0x5d21dba01",
      "from": "0x6faff29226219756aa40ce648dbc65fb41de5f72",
      "to": "0x40a72f733a7168337cc2523d20511ad6a569a2c3",
      "contractAddress": null
    },
    {
      "status": "0x1",
      "cumulativeGasUsed": "0x533d4",
      "logs": [],
      "logsBloom": "0x00000000000000000000000000000000000000000000000000000000000000000000000000000000000000000000000000000000000000000000000000000000000000000000000000000000000000000000000000000000000000000000000000000000000000000000000000000000000000000000000000000000000000000000000000000000000000000000000000000000000000000000000000000000000000000000000000000000000000000000000000000000000000000000000000000000000000000000000000000000000000000000000000000000000000000000000000000000000000000000000000000000000000000000000000000000",
      "type": "0x2",
      "transactionHash": "0x2b824ff1d4224b8a3cbc68d5a62c0a121b196a418bd51a41dfc154b1f2b18279",
      "transactionIndex": "0x1",
      "blockHash": "0xfbc11072cb191fcb5857bc87813fe4984e7dec217fa75d7ee6441fa3cf913397",
      "blockNumber": "0x9b862d2",
      "gasUsed": "0x41cbd",
      "effectiveGasPrice": "0x5d21dba01",
      "from": "0x6faff29226219756aa40ce648dbc65fb41de5f72",
      "to": null,
      "contractAddress": "0x9cf16f72cf9bc492cc0a0b6c25361cbc215326ac"
    },
    {
      "status": "0x1",
      "cumulativeGasUsed": "0x6081f",
      "logs": [],
      "logsBloom": "0x00000000000000000000000000000000000000000000000000000000000000000000000000000000000000000000000000000000000000000000000000000000000000000000000000000000000000000000000000000000000000000000000000000000000000000000000000000000000000000000000000000000000000000000000000000000000000000000000000000000000000000000000000000000000000000000000000000000000000000000000000000000000000000000000000000000000000000000000000000000000000000000000000000000000000000000000000000000000000000000000000000000000000000000000000000000",
      "type": "0x2",
      "transactionHash": "0xce7409fe27078c71a735983b1952989b4da057d7d2ee82b71b48d600f88f958a",
      "transactionIndex": "0x2",
      "blockHash": "0xfbc11072cb191fcb5857bc87813fe4984e7dec217fa75d7ee6441fa3cf913397",
      "blockNumber": "0x9b862d2",
      "gasUsed": "0xd44b",
      "effectiveGasPrice": "0x5d21dba01",
      "from": "0x6faff29226219756aa40ce648dbc65fb41de5f72",
      "to": "0x40a72f733a7168337cc2523d20511ad6a569a2c3",
      "contractAddress": null
    },
    {
      "status": "0x1",
      "cumulativeGasUsed": "0xa24dc",
      "logs": [],
      "logsBloom": "0x00000000000000000000000000000000000000000000000000000000000000000000000000000000000000000000000000000000000000000000000000000000000000000000000000000000000000000000000000000000000000000000000000000000000000000000000000000000000000000000000000000000000000000000000000000000000000000000000000000000000000000000000000000000000000000000000000000000000000000000000000000000000000000000000000000000000000000000000000000000000000000000000000000000000000000000000000000000000000000000000000000000000000000000000000000000",
      "type": "0x2",
      "transactionHash": "0x9501da5444a94bff74739893a9b79678db62fe87282120da58987b5ede0b8d5a",
      "transactionIndex": "0x3",
      "blockHash": "0xfbc11072cb191fcb5857bc87813fe4984e7dec217fa75d7ee6441fa3cf913397",
      "blockNumber": "0x9b862d2",
      "gasUsed": "0x41cbd",
      "effectiveGasPrice": "0x5d21dba01",
      "from": "0x6faff29226219756aa40ce648dbc65fb41de5f72",
      "to": null,
      "contractAddress": "0x576b8e71d8d0144e4cb378c4ead7313b1d5775a8"
    },
    {
      "status": "0x1",
      "cumulativeGasUsed": "0xaf927",
      "logs": [],
      "logsBloom": "0x00000000000000000000000000000000000000000000000000000000000000000000000000000000000000000000000000000000000000000000000000000000000000000000000000000000000000000000000000000000000000000000000000000000000000000000000000000000000000000000000000000000000000000000000000000000000000000000000000000000000000000000000000000000000000000000000000000000000000000000000000000000000000000000000000000000000000000000000000000000000000000000000000000000000000000000000000000000000000000000000000000000000000000000000000000000",
      "type": "0x2",
      "transactionHash": "0x28d487681917713effbb17ed5834419467182cf4a19d4a5ecc148d6d4d269dc2",
      "transactionIndex": "0x4",
      "blockHash": "0xfbc11072cb191fcb5857bc87813fe4984e7dec217fa75d7ee6441fa3cf913397",
      "blockNumber": "0x9b862d2",
      "gasUsed": "0xd44b",
      "effectiveGasPrice": "0x5d21dba01",
      "from": "0x6faff29226219756aa40ce648dbc65fb41de5f72",
      "to": "0x40a72f733a7168337cc2523d20511ad6a569a2c3",
      "contractAddress": null
    }
  ],
  "libraries": [],
  "pending": [],
  "returns": {},
  "timestamp": 1724660523,
  "chain": 1001,
  "commit": "d61a3f6"
}