{
  "transactions": [
    {
      "hash": "0x7dd5db568cda5f7778c3467c24fea5a914d86723463be2e312deb969c17b82e8",
      "transactionType": "CREATE",
      "contractName": "Vault",
      "contractAddress": "0x2ca2480eb18873dd48665c358dc431913d818a08",
      "function": null,
      "arguments": [
        "0x6570796368786c6b677300000000000000000000000000000000000000000000"
      ],
      "transaction": {
        "from": "0x6faff29226219756aa40ce648dbc65fb41de5f72",
        "gas": "0x6732a",
        "value": "0x0",
        "input": "0x60806040525f80546001600160a01b031916737be02decc3dc3be771d851fcf457bd9baa99010a1790553480156033575f80fd5b5060405161028f38038061028f8339810160408190526050916069565b5f805460ff60a01b1916600160a01b179055600155607f565b5f602082840312156078575f80fd5b5051919050565b6102038061008c5f395ff3fe608060405234801561000f575f80fd5b506004361061003f575f3560e01c8063701385a014610043578063cf3090121461004d578063ec9b5b3a14610074575b5f80fd5b61004b610087565b005b5f5461006090600160a01b900460ff1681565b604051901515815260200160405180910390f35b61004b6100823660046101c8565b610197565b5f54600160a01b900460ff1615156001036100b557604051635adc30c160e11b815260040160405180910390fd5b5f8054604051632f745c5960e01b8152306004820181905260248201939093526001600160a01b03909116916323b872dd9133908490632f745c5990604401602060405180830381865afa15801561010f573d5f803e3d5ffd5b505050506040513d601f19601f8201168201806040525081019061013391906101df565b6040516001600160e01b031960e086901b1681526001600160a01b03938416600482015292909116602483015260448201526064015f604051808303815f87803b15801561017f575f80fd5b505af1158015610191573d5f803e3d5ffd5b50505050565b80600154036101af575f805460ff60a01b1916905550565b604051635ee88f9760e01b815260040160405180910390fd5b5f602082840312156101d8575f80fd5b5035919050565b5f602082840312156101ef575f80fd5b505191905056fea164736f6c6343000819000a6570796368786c6b677300000000000000000000000000000000000000000000",
        "nonce": "0x286",
        "chainId": "0x3e9"
      },
      "additionalContracts": [],
      "isFixedGasLimit": false
    },
    {
      "hash": "0x6e482ecf2250b0d403a16ae29382377ee0b4690229efd9de419b2be55082f55e",
      "transactionType": "CALL",
      "contractName": null,
      "contractAddress": "0x95ce14ee82410c4a7296205e0c663969703dc857",
      "function": "addGemCastle(address)",
      "arguments": [
        "0x2cA2480Eb18873dd48665C358dC431913d818A08"
      ],
      "transaction": {
        "from": "0x6faff29226219756aa40ce648dbc65fb41de5f72",
        "to": "0x95ce14ee82410c4a7296205e0c663969703dc857",
        "gas": "0x1c204",
        "value": "0x0",
        "input": "0x5862c8940000000000000000000000002ca2480eb18873dd48665c358dc431913d818a08",
        "nonce": "0x287",
        "chainId": "0x3e9"
      },
      "additionalContracts": [],
      "isFixedGasLimit": false
    },
    {
      "hash": "0xc92a19f430e4f37a9f2d5c6b444f4fc4ac13e005452eaeda6cd86ecb6179fce3",
      "transactionType": "CREATE",
      "contractName": "Vault",
      "contractAddress": "0x9c43389d0eda801447c375fbdb324b572312428d",
      "function": null,
      "arguments": [
        "0x6570796368786c6b677300000000000000000000000000000000000000000000"
      ],
      "transaction": {
        "from": "0x6faff29226219756aa40ce648dbc65fb41de5f72",
        "gas": "0x6732a",
        "value": "0x0",
        "input": "0x60806040525f80546001600160a01b031916737be02decc3dc3be771d851fcf457bd9baa99010a1790553480156033575f80fd5b5060405161028f38038061028f8339810160408190526050916069565b5f805460ff60a01b1916600160a01b179055600155607f565b5f602082840312156078575f80fd5b5051919050565b6102038061008c5f395ff3fe608060405234801561000f575f80fd5b506004361061003f575f3560e01c8063701385a014610043578063cf3090121461004d578063ec9b5b3a14610074575b5f80fd5b61004b610087565b005b5f5461006090600160a01b900460ff1681565b604051901515815260200160405180910390f35b61004b6100823660046101c8565b610197565b5f54600160a01b900460ff1615156001036100b557604051635adc30c160e11b815260040160405180910390fd5b5f8054604051632f745c5960e01b8152306004820181905260248201939093526001600160a01b03909116916323b872dd9133908490632f745c5990604401602060405180830381865afa15801561010f573d5f803e3d5ffd5b505050506040513d601f19601f8201168201806040525081019061013391906101df565b6040516001600160e01b031960e086901b1681526001600160a01b03938416600482015292909116602483015260448201526064015f604051808303815f87803b15801561017f575f80fd5b505af1158015610191573d5f803e3d5ffd5b50505050565b80600154036101af575f805460ff60a01b1916905550565b604051635ee88f9760e01b815260040160405180910390fd5b5f602082840312156101d8575f80fd5b5035919050565b5f602082840312156101ef575f80fd5b505191905056fea164736f6c6343000819000a6570796368786c6b677300000000000000000000000000000000000000000000",
        "nonce": "0x288",
        "chainId": "0x3e9"
      },
      "additionalContracts": [],
      "isFixedGasLimit": false
    },
    {
      "hash": "0x66f80366c5ed91c065c752bd98ceb06ca8b2426cf7651de8f881d97b7c45b393",
      "transactionType": "CALL",
      "contractName": null,
      "contractAddress": "0x95ce14ee82410c4a7296205e0c663969703dc857",
      "function": "addGemCastle(address)",
      "arguments": [
        "0x9C43389D0EDa801447c375fBDb324B572312428d"
      ],
      "transaction": {
        "from": "0x6faff29226219756aa40ce648dbc65fb41de5f72",
        "to": "0x95ce14ee82410c4a7296205e0c663969703dc857",
        "gas": "0x1c204",
        "value": "0x0",
        "input": "0x5862c8940000000000000000000000009c43389d0eda801447c375fbdb324b572312428d",
        "nonce": "0x289",
        "chainId": "0x3e9"
      },
      "additionalContracts": [],
      "isFixedGasLimit": false
    },
    {
      "hash": "0x198c26d73f19a93f026d7057893f7ff982e6401c0c6a0ced39cd43a69278d919",
      "transactionType": "CREATE",
      "contractName": "Vault",
      "contractAddress": "0x586a2df3a1ae4467d18cce89d67c838747f3e673",
      "function": null,
      "arguments": [
        "0x6570796368786c6b677300000000000000000000000000000000000000000000"
      ],
      "transaction": {
        "from": "0x6faff29226219756aa40ce648dbc65fb41de5f72",
        "gas": "0x6732a",
        "value": "0x0",
        "input": "0x60806040525f80546001600160a01b031916737be02decc3dc3be771d851fcf457bd9baa99010a1790553480156033575f80fd5b5060405161028f38038061028f8339810160408190526050916069565b5f805460ff60a01b1916600160a01b179055600155607f565b5f602082840312156078575f80fd5b5051919050565b6102038061008c5f395ff3fe608060405234801561000f575f80fd5b506004361061003f575f3560e01c8063701385a014610043578063cf3090121461004d578063ec9b5b3a14610074575b5f80fd5b61004b610087565b005b5f5461006090600160a01b900460ff1681565b604051901515815260200160405180910390f35b61004b6100823660046101c8565b610197565b5f54600160a01b900460ff1615156001036100b557604051635adc30c160e11b815260040160405180910390fd5b5f8054604051632f745c5960e01b8152306004820181905260248201939093526001600160a01b03909116916323b872dd9133908490632f745c5990604401602060405180830381865afa15801561010f573d5f803e3d5ffd5b505050506040513d601f19601f8201168201806040525081019061013391906101df565b6040516001600160e01b031960e086901b1681526001600160a01b03938416600482015292909116602483015260448201526064015f604051808303815f87803b15801561017f575f80fd5b505af1158015610191573d5f803e3d5ffd5b50505050565b80600154036101af575f805460ff60a01b1916905550565b604051635ee88f9760e01b815260040160405180910390fd5b5f602082840312156101d8575f80fd5b5035919050565b5f602082840312156101ef575f80fd5b505191905056fea164736f6c6343000819000a6570796368786c6b677300000000000000000000000000000000000000000000",
        "nonce": "0x28a",
        "chainId": "0x3e9"
      },
      "additionalContracts": [],
      "isFixedGasLimit": false
    },
    {
      "hash": "0x96dd81a98ee6b9d52e868d500d1d2ba12ca4f3fe4dc69d95e1c821734371c2e6",
      "transactionType": "CALL",
      "contractName": null,
      "contractAddress": "0x95ce14ee82410c4a7296205e0c663969703dc857",
      "function": "addGemCastle(address)",
      "arguments": [
        "0x586a2Df3a1Ae4467d18cCE89d67c838747F3e673"
      ],
      "transaction": {
        "from": "0x6faff29226219756aa40ce648dbc65fb41de5f72",
        "to": "0x95ce14ee82410c4a7296205e0c663969703dc857",
        "gas": "0x1c204",
        "value": "0x0",
        "input": "0x5862c894000000000000000000000000586a2df3a1ae4467d18cce89d67c838747f3e673",
        "nonce": "0x28b",
        "chainId": "0x3e9"
      },
      "additionalContracts": [],
      "isFixedGasLimit": false
    },
    {
      "hash": "0x46e070c46088fb295551d8556fa5daa7983fa38a084e28bbb72f357b1e7596c5",
      "transactionType": "CREATE",
      "contractName": "Vault",
      "contractAddress": "0x6fbc5a6efdb2ed69df794bf4f3ca69f2b51c6643",
      "function": null,
      "arguments": [
        "0x6570796368786c6b677300000000000000000000000000000000000000000000"
      ],
      "transaction": {
        "from": "0x6faff29226219756aa40ce648dbc65fb41de5f72",
        "gas": "0x6732a",
        "value": "0x0",
        "input": "0x60806040525f80546001600160a01b031916737be02decc3dc3be771d851fcf457bd9baa99010a1790553480156033575f80fd5b5060405161028f38038061028f8339810160408190526050916069565b5f805460ff60a01b1916600160a01b179055600155607f565b5f602082840312156078575f80fd5b5051919050565b6102038061008c5f395ff3fe608060405234801561000f575f80fd5b506004361061003f575f3560e01c8063701385a014610043578063cf3090121461004d578063ec9b5b3a14610074575b5f80fd5b61004b610087565b005b5f5461006090600160a01b900460ff1681565b604051901515815260200160405180910390f35b61004b6100823660046101c8565b610197565b5f54600160a01b900460ff1615156001036100b557604051635adc30c160e11b815260040160405180910390fd5b5f8054604051632f745c5960e01b8152306004820181905260248201939093526001600160a01b03909116916323b872dd9133908490632f745c5990604401602060405180830381865afa15801561010f573d5f803e3d5ffd5b505050506040513d601f19601f8201168201806040525081019061013391906101df565b6040516001600160e01b031960e086901b1681526001600160a01b03938416600482015292909116602483015260448201526064015f604051808303815f87803b15801561017f575f80fd5b505af1158015610191573d5f803e3d5ffd5b50505050565b80600154036101af575f805460ff60a01b1916905550565b604051635ee88f9760e01b815260040160405180910390fd5b5f602082840312156101d8575f80fd5b5035919050565b5f602082840312156101ef575f80fd5b505191905056fea164736f6c6343000819000a6570796368786c6b677300000000000000000000000000000000000000000000",
        "nonce": "0x28c",
        "chainId": "0x3e9"
      },
      "additionalContracts": [],
      "isFixedGasLimit": false
    },
    {
      "hash": "0x82f6e5773c906fac10cba272375f639e5d08cabbf59798899d1be63011f2020f",
      "transactionType": "CALL",
      "contractName": null,
      "contractAddress": "0x95ce14ee82410c4a7296205e0c663969703dc857",
      "function": "addGemCastle(address)",
      "arguments": [
        "0x6FBC5a6EfdB2ED69df794bF4F3ca69F2b51c6643"
      ],
      "transaction": {
        "from": "0x6faff29226219756aa40ce648dbc65fb41de5f72",
        "to": "0x95ce14ee82410c4a7296205e0c663969703dc857",
        "gas": "0x1c204",
        "value": "0x0",
        "input": "0x5862c8940000000000000000000000006fbc5a6efdb2ed69df794bf4f3ca69f2b51c6643",
        "nonce": "0x28d",
        "chainId": "0x3e9"
      },
      "additionalContracts": [],
      "isFixedGasLimit": false
    },
    {
      "hash": "0x29745afc1a7e0709857211be29091ff87e5d37499bcaaee37dd9a7407c786f4a",
      "transactionType": "CREATE",
      "contractName": "Vault",
      "contractAddress": "0x62fb5cecca4ba514aa771957a23480a432c8621a",
      "function": null,
      "arguments": [
        "0x6570796368786c6b677300000000000000000000000000000000000000000000"
      ],
      "transaction": {
        "from": "0x6faff29226219756aa40ce648dbc65fb41de5f72",
        "gas": "0x6732a",
        "value": "0x0",
        "input": "0x60806040525f80546001600160a01b031916737be02decc3dc3be771d851fcf457bd9baa99010a1790553480156033575f80fd5b5060405161028f38038061028f8339810160408190526050916069565b5f805460ff60a01b1916600160a01b179055600155607f565b5f602082840312156078575f80fd5b5051919050565b6102038061008c5f395ff3fe608060405234801561000f575f80fd5b506004361061003f575f3560e01c8063701385a014610043578063cf3090121461004d578063ec9b5b3a14610074575b5f80fd5b61004b610087565b005b5f5461006090600160a01b900460ff1681565b604051901515815260200160405180910390f35b61004b6100823660046101c8565b610197565b5f54600160a01b900460ff1615156001036100b557604051635adc30c160e11b815260040160405180910390fd5b5f8054604051632f745c5960e01b8152306004820181905260248201939093526001600160a01b03909116916323b872dd9133908490632f745c5990604401602060405180830381865afa15801561010f573d5f803e3d5ffd5b505050506040513d601f19601f8201168201806040525081019061013391906101df565b6040516001600160e01b031960e086901b1681526001600160a01b03938416600482015292909116602483015260448201526064015f604051808303815f87803b15801561017f575f80fd5b505af1158015610191573d5f803e3d5ffd5b50505050565b80600154036101af575f805460ff60a01b1916905550565b604051635ee88f9760e01b815260040160405180910390fd5b5f602082840312156101d8575f80fd5b5035919050565b5f602082840312156101ef575f80fd5b505191905056fea164736f6c6343000819000a6570796368786c6b677300000000000000000000000000000000000000000000",
        "nonce": "0x28e",
        "chainId": "0x3e9"
      },
      "additionalContracts": [],
      "isFixedGasLimit": false
    },
    {
      "hash": "0x33481fc253f7593fbd0c59c0f60e7a833f19e0540b0fdec3dcc1834548a38055",
      "transactionType": "CALL",
      "contractName": null,
      "contractAddress": "0x95ce14ee82410c4a7296205e0c663969703dc857",
      "function": "addGemCastle(address)",
      "arguments": [
        "0x62FB5CECCA4Ba514AA771957A23480a432c8621A"
      ],
      "transaction": {
        "from": "0x6faff29226219756aa40ce648dbc65fb41de5f72",
        "to": "0x95ce14ee82410c4a7296205e0c663969703dc857",
        "gas": "0x1c204",
        "value": "0x0",
        "input": "0x5862c89400000000000000000000000062fb5cecca4ba514aa771957a23480a432c8621a",
        "nonce": "0x28f",
        "chainId": "0x3e9"
      },
      "additionalContracts": [],
      "isFixedGasLimit": false
    },
    {
      "hash": "0xf81b80d4bc63d67dd9255a5a4286f3f4683c928641494d385cd3b16fa97f54a2",
      "transactionType": "CREATE",
      "contractName": "Vault",
      "contractAddress": "0xdd1a10ec99b0bddb54d608c8c504a453b50ffe68",
      "function": null,
      "arguments": [
        "0x6570796368786c6b677300000000000000000000000000000000000000000000"
      ],
      "transaction": {
        "from": "0x6faff29226219756aa40ce648dbc65fb41de5f72",
        "gas": "0x6732a",
        "value": "0x0",
        "input": "0x60806040525f80546001600160a01b031916737be02decc3dc3be771d851fcf457bd9baa99010a1790553480156033575f80fd5b5060405161028f38038061028f8339810160408190526050916069565b5f805460ff60a01b1916600160a01b179055600155607f565b5f602082840312156078575f80fd5b5051919050565b6102038061008c5f395ff3fe608060405234801561000f575f80fd5b506004361061003f575f3560e01c8063701385a014610043578063cf3090121461004d578063ec9b5b3a14610074575b5f80fd5b61004b610087565b005b5f5461006090600160a01b900460ff1681565b604051901515815260200160405180910390f35b61004b6100823660046101c8565b610197565b5f54600160a01b900460ff1615156001036100b557604051635adc30c160e11b815260040160405180910390fd5b5f8054604051632f745c5960e01b8152306004820181905260248201939093526001600160a01b03909116916323b872dd9133908490632f745c5990604401602060405180830381865afa15801561010f573d5f803e3d5ffd5b505050506040513d601f19601f8201168201806040525081019061013391906101df565b6040516001600160e01b031960e086901b1681526001600160a01b03938416600482015292909116602483015260448201526064015f604051808303815f87803b15801561017f575f80fd5b505af1158015610191573d5f803e3d5ffd5b50505050565b80600154036101af575f805460ff60a01b1916905550565b604051635ee88f9760e01b815260040160405180910390fd5b5f602082840312156101d8575f80fd5b5035919050565b5f602082840312156101ef575f80fd5b505191905056fea164736f6c6343000819000a6570796368786c6b677300000000000000000000000000000000000000000000",
        "nonce": "0x290",
        "chainId": "0x3e9"
      },
      "additionalContracts": [],
      "isFixedGasLimit": false
    },
    {
      "hash": "0x978d9d84d17661e20fba73f958e61a24d887ace80d778a618d2f28e6b8bf27c0",
      "transactionType": "CALL",
      "contractName": null,
      "contractAddress": "0x95ce14ee82410c4a7296205e0c663969703dc857",
      "function": "addGemCastle(address)",
      "arguments": [
        "0xdd1A10eC99B0bddb54D608c8C504A453b50ffe68"
      ],
      "transaction": {
        "from": "0x6faff29226219756aa40ce648dbc65fb41de5f72",
        "to": "0x95ce14ee82410c4a7296205e0c663969703dc857",
        "gas": "0x1c204",
        "value": "0x0",
        "input": "0x5862c894000000000000000000000000dd1a10ec99b0bddb54d608c8c504a453b50ffe68",
        "nonce": "0x291",
        "chainId": "0x3e9"
      },
      "additionalContracts": [],
      "isFixedGasLimit": false
    },
    {
      "hash": "0x52e19bca43e0a54cf485f105ecfa32ce1dacd2f7e3da1ab4c24001cc4dab247f",
      "transactionType": "CREATE",
      "contractName": "Vault",
      "contractAddress": "0x0c6b8cccf0ea98135893182e7aa23a35eee7e669",
      "function": null,
      "arguments": [
        "0x6570796368786c6b677300000000000000000000000000000000000000000000"
      ],
      "transaction": {
        "from": "0x6faff29226219756aa40ce648dbc65fb41de5f72",
        "gas": "0x6732a",
        "value": "0x0",
        "input": "0x60806040525f80546001600160a01b031916737be02decc3dc3be771d851fcf457bd9baa99010a1790553480156033575f80fd5b5060405161028f38038061028f8339810160408190526050916069565b5f805460ff60a01b1916600160a01b179055600155607f565b5f602082840312156078575f80fd5b5051919050565b6102038061008c5f395ff3fe608060405234801561000f575f80fd5b506004361061003f575f3560e01c8063701385a014610043578063cf3090121461004d578063ec9b5b3a14610074575b5f80fd5b61004b610087565b005b5f5461006090600160a01b900460ff1681565b604051901515815260200160405180910390f35b61004b6100823660046101c8565b610197565b5f54600160a01b900460ff1615156001036100b557604051635adc30c160e11b815260040160405180910390fd5b5f8054604051632f745c5960e01b8152306004820181905260248201939093526001600160a01b03909116916323b872dd9133908490632f745c5990604401602060405180830381865afa15801561010f573d5f803e3d5ffd5b505050506040513d601f19601f8201168201806040525081019061013391906101df565b6040516001600160e01b031960e086901b1681526001600160a01b03938416600482015292909116602483015260448201526064015f604051808303815f87803b15801561017f575f80fd5b505af1158015610191573d5f803e3d5ffd5b50505050565b80600154036101af575f805460ff60a01b1916905550565b604051635ee88f9760e01b815260040160405180910390fd5b5f602082840312156101d8575f80fd5b5035919050565b5f602082840312156101ef575f80fd5b505191905056fea164736f6c6343000819000a6570796368786c6b677300000000000000000000000000000000000000000000",
        "nonce": "0x292",
        "chainId": "0x3e9"
      },
      "additionalContracts": [],
      "isFixedGasLimit": false
    },
    {
      "hash": "0xc745c263fedeac03963dac440b308a94660e52d3882f4483943d74bf18153485",
      "transactionType": "CALL",
      "contractName": null,
      "contractAddress": "0x95ce14ee82410c4a7296205e0c663969703dc857",
      "function": "addGemCastle(address)",
      "arguments": [
        "0x0C6b8Cccf0ea98135893182e7Aa23A35EeE7e669"
      ],
      "transaction": {
        "from": "0x6faff29226219756aa40ce648dbc65fb41de5f72",
        "to": "0x95ce14ee82410c4a7296205e0c663969703dc857",
        "gas": "0x1c204",
        "value": "0x0",
        "input": "0x5862c8940000000000000000000000000c6b8cccf0ea98135893182e7aa23a35eee7e669",
        "nonce": "0x293",
        "chainId": "0x3e9"
      },
      "additionalContracts": [],
      "isFixedGasLimit": false
    },
    {
      "hash": "0xe78d0fa8889c64dc9bbf97ed402a8bc9cdd8a1683900ad8809e14004d385788f",
      "transactionType": "CREATE",
      "contractName": "Vault",
      "contractAddress": "0xefda337476cee8967203a6da09bce9545fdac3f3",
      "function": null,
      "arguments": [
        "0x6570796368786c6b677300000000000000000000000000000000000000000000"
      ],
      "transaction": {
        "from": "0x6faff29226219756aa40ce648dbc65fb41de5f72",
        "gas": "0x6732a",
        "value": "0x0",
        "input": "0x60806040525f80546001600160a01b031916737be02decc3dc3be771d851fcf457bd9baa99010a1790553480156033575f80fd5b5060405161028f38038061028f8339810160408190526050916069565b5f805460ff60a01b1916600160a01b179055600155607f565b5f602082840312156078575f80fd5b5051919050565b6102038061008c5f395ff3fe608060405234801561000f575f80fd5b506004361061003f575f3560e01c8063701385a014610043578063cf3090121461004d578063ec9b5b3a14610074575b5f80fd5b61004b610087565b005b5f5461006090600160a01b900460ff1681565b604051901515815260200160405180910390f35b61004b6100823660046101c8565b610197565b5f54600160a01b900460ff1615156001036100b557604051635adc30c160e11b815260040160405180910390fd5b5f8054604051632f745c5960e01b8152306004820181905260248201939093526001600160a01b03909116916323b872dd9133908490632f745c5990604401602060405180830381865afa15801561010f573d5f803e3d5ffd5b505050506040513d601f19601f8201168201806040525081019061013391906101df565b6040516001600160e01b031960e086901b1681526001600160a01b03938416600482015292909116602483015260448201526064015f604051808303815f87803b15801561017f575f80fd5b505af1158015610191573d5f803e3d5ffd5b50505050565b80600154036101af575f805460ff60a01b1916905550565b604051635ee88f9760e01b815260040160405180910390fd5b5f602082840312156101d8575f80fd5b5035919050565b5f602082840312156101ef575f80fd5b505191905056fea164736f6c6343000819000a6570796368786c6b677300000000000000000000000000000000000000000000",
        "nonce": "0x294",
        "chainId": "0x3e9"
      },
      "additionalContracts": [],
      "isFixedGasLimit": false
    },
    {
      "hash": "0xf922709bb11243c7629943e5477e6fe3661ab039949795dec0966ea64f6695e9",
      "transactionType": "CALL",
      "contractName": null,
      "contractAddress": "0x95ce14ee82410c4a7296205e0c663969703dc857",
      "function": "addGemCastle(address)",
      "arguments": [
        "0xEfdA337476cEe8967203a6Da09bCe9545fDAC3F3"
      ],
      "transaction": {
        "from": "0x6faff29226219756aa40ce648dbc65fb41de5f72",
        "to": "0x95ce14ee82410c4a7296205e0c663969703dc857",
        "gas": "0x1c204",
        "value": "0x0",
        "input": "0x5862c894000000000000000000000000efda337476cee8967203a6da09bce9545fdac3f3",
        "nonce": "0x295",
        "chainId": "0x3e9"
      },
      "additionalContracts": [],
      "isFixedGasLimit": false
    },
    {
      "hash": "0x59079b88c9cdd65f4fcb6a299df5778f1d49a24cbb8417a410e6963c33ce9234",
      "transactionType": "CREATE",
      "contractName": "Vault",
      "contractAddress": "0x88b8c1de718ae300d6f7fef907197f0602622031",
      "function": null,
      "arguments": [
        "0x6570796368786c6b677300000000000000000000000000000000000000000000"
      ],
      "transaction": {
        "from": "0x6faff29226219756aa40ce648dbc65fb41de5f72",
        "gas": "0x6732a",
        "value": "0x0",
        "input": "0x60806040525f80546001600160a01b031916737be02decc3dc3be771d851fcf457bd9baa99010a1790553480156033575f80fd5b5060405161028f38038061028f8339810160408190526050916069565b5f805460ff60a01b1916600160a01b179055600155607f565b5f602082840312156078575f80fd5b5051919050565b6102038061008c5f395ff3fe608060405234801561000f575f80fd5b506004361061003f575f3560e01c8063701385a014610043578063cf3090121461004d578063ec9b5b3a14610074575b5f80fd5b61004b610087565b005b5f5461006090600160a01b900460ff1681565b604051901515815260200160405180910390f35b61004b6100823660046101c8565b610197565b5f54600160a01b900460ff1615156001036100b557604051635adc30c160e11b815260040160405180910390fd5b5f8054604051632f745c5960e01b8152306004820181905260248201939093526001600160a01b03909116916323b872dd9133908490632f745c5990604401602060405180830381865afa15801561010f573d5f803e3d5ffd5b505050506040513d601f19601f8201168201806040525081019061013391906101df565b6040516001600160e01b031960e086901b1681526001600160a01b03938416600482015292909116602483015260448201526064015f604051808303815f87803b15801561017f575f80fd5b505af1158015610191573d5f803e3d5ffd5b50505050565b80600154036101af575f805460ff60a01b1916905550565b604051635ee88f9760e01b815260040160405180910390fd5b5f602082840312156101d8575f80fd5b5035919050565b5f602082840312156101ef575f80fd5b505191905056fea164736f6c6343000819000a6570796368786c6b677300000000000000000000000000000000000000000000",
        "nonce": "0x296",
        "chainId": "0x3e9"
      },
      "additionalContracts": [],
      "isFixedGasLimit": false
    },
    {
      "hash": "0xb189331a4fc8cf2c02f2a7b5dcea9d7480fc7afeafe229f985dc6a537c487690",
      "transactionType": "CALL",
      "contractName": null,
      "contractAddress": "0x95ce14ee82410c4a7296205e0c663969703dc857",
      "function": "addGemCastle(address)",
      "arguments": [
        "0x88b8c1De718Ae300D6F7fEF907197f0602622031"
      ],
      "transaction": {
        "from": "0x6faff29226219756aa40ce648dbc65fb41de5f72",
        "to": "0x95ce14ee82410c4a7296205e0c663969703dc857",
        "gas": "0x1a8ea",
        "value": "0x0",
        "input": "0x5862c89400000000000000000000000088b8c1de718ae300d6f7fef907197f0602622031",
        "nonce": "0x297",
        "chainId": "0x3e9"
      },
      "additionalContracts": [],
      "isFixedGasLimit": false
    },
    {
      "hash": "0x03319418c22e2f777b3b2c7c7a3677c6f7501b32e3e8d14b88b61f535b2aaea2",
      "transactionType": "CREATE",
      "contractName": "Vault",
      "contractAddress": "0xde2d3cd8540b87957ba688f47a98a4476c35c8c0",
      "function": null,
      "arguments": [
        "0x6570796368786c6b677300000000000000000000000000000000000000000000"
      ],
      "transaction": {
        "from": "0x6faff29226219756aa40ce648dbc65fb41de5f72",
        "gas": "0x6732a",
        "value": "0x0",
        "input": "0x60806040525f80546001600160a01b031916737be02decc3dc3be771d851fcf457bd9baa99010a1790553480156033575f80fd5b5060405161028f38038061028f8339810160408190526050916069565b5f805460ff60a01b1916600160a01b179055600155607f565b5f602082840312156078575f80fd5b5051919050565b6102038061008c5f395ff3fe608060405234801561000f575f80fd5b506004361061003f575f3560e01c8063701385a014610043578063cf3090121461004d578063ec9b5b3a14610074575b5f80fd5b61004b610087565b005b5f5461006090600160a01b900460ff1681565b604051901515815260200160405180910390f35b61004b6100823660046101c8565b610197565b5f54600160a01b900460ff1615156001036100b557604051635adc30c160e11b815260040160405180910390fd5b5f8054604051632f745c5960e01b8152306004820181905260248201939093526001600160a01b03909116916323b872dd9133908490632f745c5990604401602060405180830381865afa15801561010f573d5f803e3d5ffd5b505050506040513d601f19601f8201168201806040525081019061013391906101df565b6040516001600160e01b031960e086901b1681526001600160a01b03938416600482015292909116602483015260448201526064015f604051808303815f87803b15801561017f575f80fd5b505af1158015610191573d5f803e3d5ffd5b50505050565b80600154036101af575f805460ff60a01b1916905550565b604051635ee88f9760e01b815260040160405180910390fd5b5f602082840312156101d8575f80fd5b5035919050565b5f602082840312156101ef575f80fd5b505191905056fea164736f6c6343000819000a6570796368786c6b677300000000000000000000000000000000000000000000",
        "nonce": "0x298",
        "chainId": "0x3e9"
      },
      "additionalContracts": [],
      "isFixedGasLimit": false
    },
    {
      "hash": "0xcaf2db534b2f3fa54c08dda7f2163e3daa9c53b513317d26ba0224f42dcf595c",
      "transactionType": "CALL",
      "contractName": null,
      "contractAddress": "0x95ce14ee82410c4a7296205e0c663969703dc857",
      "function": "addGemCastle(address)",
      "arguments": [
        "0xdE2d3cD8540B87957BA688f47a98a4476C35C8C0"
      ],
      "transaction": {
        "from": "0x6faff29226219756aa40ce648dbc65fb41de5f72",
        "to": "0x95ce14ee82410c4a7296205e0c663969703dc857",
        "gas": "0x1c204",
        "value": "0x0",
        "input": "0x5862c894000000000000000000000000de2d3cd8540b87957ba688f47a98a4476c35c8c0",
        "nonce": "0x299",
        "chainId": "0x3e9"
      },
      "additionalContracts": [],
      "isFixedGasLimit": false
    }
  ],
  "receipts": [
    {
      "status": "0x1",
      "cumulativeGasUsed": "0x41cbd",
      "logs": [],
      "logsBloom": "0x00000000000000000000000000000000000000000000000000000000000000000000000000000000000000000000000000000000000000000000000000000000000000000000000000000000000000000000000000000000000000000000000000000000000000000000000000000000000000000000000000000000000000000000000000000000000000000000000000000000000000000000000000000000000000000000000000000000000000000000000000000000000000000000000000000000000000000000000000000000000000000000000000000000000000000000000000000000000000000000000000000000000000000000000000000000",
      "type": "0x2",
      "transactionHash": "0x7dd5db568cda5f7778c3467c24fea5a914d86723463be2e312deb969c17b82e8",
      "transactionIndex": "0x0",
      "blockHash": "0xdffa2c5e479aa9f892349907b909c7d71b9cb4060bc66f28f55257a088705df5",
      "blockNumber": "0x9bb2b64",
      "gasUsed": "0x41cbd",
      "effectiveGasPrice": "0x7aef40a00",
      "from": "0x6faff29226219756aa40ce648dbc65fb41de5f72",
      "to": null,
      "contractAddress": "0x2ca2480eb18873dd48665c358dc431913d818a08"
    },
    {
      "status": "0x1",
      "cumulativeGasUsed": "0x4f11f",
      "logs": [],
      "logsBloom": "0x00000000000000000000000000000000000000000000000000000000000000000000000000000000000000000000000000000000000000000000000000000000000000000000000000000000000000000000000000000000000000000000000000000000000000000000000000000000000000000000000000000000000000000000000000000000000000000000000000000000000000000000000000000000000000000000000000000000000000000000000000000000000000000000000000000000000000000000000000000000000000000000000000000000000000000000000000000000000000000000000000000000000000000000000000000000",
      "type": "0x2",
      "transactionHash": "0x6e482ecf2250b0d403a16ae29382377ee0b4690229efd9de419b2be55082f55e",
      "transactionIndex": "0x1",
      "blockHash": "0xdffa2c5e479aa9f892349907b909c7d71b9cb4060bc66f28f55257a088705df5",
      "blockNumber": "0x9bb2b64",
      "gasUsed": "0xd462",
      "effectiveGasPrice": "0x7aef40a00",
      "from": "0x6faff29226219756aa40ce648dbc65fb41de5f72",
      "to": "0x95ce14ee82410c4a7296205e0c663969703dc857",
      "contractAddress": null
    },
    {
      "status": "0x1",
      "cumulativeGasUsed": "0x90ddc",
      "logs": [],
      "logsBloom": "0x00000000000000000000000000000000000000000000000000000000000000000000000000000000000000000000000000000000000000000000000000000000000000000000000000000000000000000000000000000000000000000000000000000000000000000000000000000000000000000000000000000000000000000000000000000000000000000000000000000000000000000000000000000000000000000000000000000000000000000000000000000000000000000000000000000000000000000000000000000000000000000000000000000000000000000000000000000000000000000000000000000000000000000000000000000000",
      "type": "0x2",
      "transactionHash": "0xc92a19f430e4f37a9f2d5c6b444f4fc4ac13e005452eaeda6cd86ecb6179fce3",
      "transactionIndex": "0x2",
      "blockHash": "0xdffa2c5e479aa9f892349907b909c7d71b9cb4060bc66f28f55257a088705df5",
      "blockNumber": "0x9bb2b64",
      "gasUsed": "0x41cbd",
      "effectiveGasPrice": "0x7aef40a00",
      "from": "0x6faff29226219756aa40ce648dbc65fb41de5f72",
      "to": null,
      "contractAddress": "0x9c43389d0eda801447c375fbdb324b572312428d"
    },
    {
      "status": "0x1",
      "cumulativeGasUsed": "0x9e23e",
      "logs": [],
      "logsBloom": "0x00000000000000000000000000000000000000000000000000000000000000000000000000000000000000000000000000000000000000000000000000000000000000000000000000000000000000000000000000000000000000000000000000000000000000000000000000000000000000000000000000000000000000000000000000000000000000000000000000000000000000000000000000000000000000000000000000000000000000000000000000000000000000000000000000000000000000000000000000000000000000000000000000000000000000000000000000000000000000000000000000000000000000000000000000000000",
      "type": "0x2",
      "transactionHash": "0x66f80366c5ed91c065c752bd98ceb06ca8b2426cf7651de8f881d97b7c45b393",
      "transactionIndex": "0x3",
      "blockHash": "0xdffa2c5e479aa9f892349907b909c7d71b9cb4060bc66f28f55257a088705df5",
      "blockNumber": "0x9bb2b64",
      "gasUsed": "0xd462",
      "effectiveGasPrice": "0x7aef40a00",
      "from": "0x6faff29226219756aa40ce648dbc65fb41de5f72",
      "to": "0x95ce14ee82410c4a7296205e0c663969703dc857",
      "contractAddress": null
    },
    {
      "status": "0x1",
      "cumulativeGasUsed": "0xdfefb",
      "logs": [],
      "logsBloom": "0x00000000000000000000000000000000000000000000000000000000000000000000000000000000000000000000000000000000000000000000000000000000000000000000000000000000000000000000000000000000000000000000000000000000000000000000000000000000000000000000000000000000000000000000000000000000000000000000000000000000000000000000000000000000000000000000000000000000000000000000000000000000000000000000000000000000000000000000000000000000000000000000000000000000000000000000000000000000000000000000000000000000000000000000000000000000",
      "type": "0x2",
      "transactionHash": "0x198c26d73f19a93f026d7057893f7ff982e6401c0c6a0ced39cd43a69278d919",
      "transactionIndex": "0x4",
      "blockHash": "0xdffa2c5e479aa9f892349907b909c7d71b9cb4060bc66f28f55257a088705df5",
      "blockNumber": "0x9bb2b64",
      "gasUsed": "0x41cbd",
      "effectiveGasPrice": "0x7aef40a00",
      "from": "0x6faff29226219756aa40ce648dbc65fb41de5f72",
      "to": null,
      "contractAddress": "0x586a2df3a1ae4467d18cce89d67c838747f3e673"
    },
    {
      "status": "0x1",
      "cumulativeGasUsed": "0xed35d",
      "logs": [],
      "logsBloom": "0x00000000000000000000000000000000000000000000000000000000000000000000000000000000000000000000000000000000000000000000000000000000000000000000000000000000000000000000000000000000000000000000000000000000000000000000000000000000000000000000000000000000000000000000000000000000000000000000000000000000000000000000000000000000000000000000000000000000000000000000000000000000000000000000000000000000000000000000000000000000000000000000000000000000000000000000000000000000000000000000000000000000000000000000000000000000",
      "type": "0x2",
      "transactionHash": "0x96dd81a98ee6b9d52e868d500d1d2ba12ca4f3fe4dc69d95e1c821734371c2e6",
      "transactionIndex": "0x5",
      "blockHash": "0xdffa2c5e479aa9f892349907b909c7d71b9cb4060bc66f28f55257a088705df5",
      "blockNumber": "0x9bb2b64",
      "gasUsed": "0xd462",
      "effectiveGasPrice": "0x7aef40a00",
      "from": "0x6faff29226219756aa40ce648dbc65fb41de5f72",
      "to": "0x95ce14ee82410c4a7296205e0c663969703dc857",
      "contractAddress": null
    },
    {
      "status": "0x1",
      "cumulativeGasUsed": "0x12f01a",
      "logs": [],
      "logsBloom": "0x00000000000000000000000000000000000000000000000000000000000000000000000000000000000000000000000000000000000000000000000000000000000000000000000000000000000000000000000000000000000000000000000000000000000000000000000000000000000000000000000000000000000000000000000000000000000000000000000000000000000000000000000000000000000000000000000000000000000000000000000000000000000000000000000000000000000000000000000000000000000000000000000000000000000000000000000000000000000000000000000000000000000000000000000000000000",
      "type": "0x2",
      "transactionHash": "0x46e070c46088fb295551d8556fa5daa7983fa38a084e28bbb72f357b1e7596c5",
      "transactionIndex": "0x6",
      "blockHash": "0xdffa2c5e479aa9f892349907b909c7d71b9cb4060bc66f28f55257a088705df5",
      "blockNumber": "0x9bb2b64",
      "gasUsed": "0x41cbd",
      "effectiveGasPrice": "0x7aef40a00",
      "from": "0x6faff29226219756aa40ce648dbc65fb41de5f72",
      "to": null,
      "contractAddress": "0x6fbc5a6efdb2ed69df794bf4f3ca69f2b51c6643"
    },
    {
      "status": "0x1",
      "cumulativeGasUsed": "0x13c47c",
      "logs": [],
      "logsBloom": "0x00000000000000000000000000000000000000000000000000000000000000000000000000000000000000000000000000000000000000000000000000000000000000000000000000000000000000000000000000000000000000000000000000000000000000000000000000000000000000000000000000000000000000000000000000000000000000000000000000000000000000000000000000000000000000000000000000000000000000000000000000000000000000000000000000000000000000000000000000000000000000000000000000000000000000000000000000000000000000000000000000000000000000000000000000000000",
      "type": "0x2",
      "transactionHash": "0x82f6e5773c906fac10cba272375f639e5d08cabbf59798899d1be63011f2020f",
      "transactionIndex": "0x7",
      "blockHash": "0xdffa2c5e479aa9f892349907b909c7d71b9cb4060bc66f28f55257a088705df5",
      "blockNumber": "0x9bb2b64",
      "gasUsed": "0xd462",
      "effectiveGasPrice": "0x7aef40a00",
      "from": "0x6faff29226219756aa40ce648dbc65fb41de5f72",
      "to": "0x95ce14ee82410c4a7296205e0c663969703dc857",
      "contractAddress": null
    },
    {
      "status": "0x1",
      "cumulativeGasUsed": "0x17e139",
      "logs": [],
      "logsBloom": "0x00000000000000000000000000000000000000000000000000000000000000000000000000000000000000000000000000000000000000000000000000000000000000000000000000000000000000000000000000000000000000000000000000000000000000000000000000000000000000000000000000000000000000000000000000000000000000000000000000000000000000000000000000000000000000000000000000000000000000000000000000000000000000000000000000000000000000000000000000000000000000000000000000000000000000000000000000000000000000000000000000000000000000000000000000000000",
      "type": "0x2",
      "transactionHash": "0x29745afc1a7e0709857211be29091ff87e5d37499bcaaee37dd9a7407c786f4a",
      "transactionIndex": "0x8",
      "blockHash": "0xdffa2c5e479aa9f892349907b909c7d71b9cb4060bc66f28f55257a088705df5",
      "blockNumber": "0x9bb2b64",
      "gasUsed": "0x41cbd",
      "effectiveGasPrice": "0x7aef40a00",
      "from": "0x6faff29226219756aa40ce648dbc65fb41de5f72",
      "to": null,
      "contractAddress": "0x62fb5cecca4ba514aa771957a23480a432c8621a"
    },
    {
      "status": "0x1",
      "cumulativeGasUsed": "0x18b59b",
      "logs": [],
      "logsBloom": "0x00000000000000000000000000000000000000000000000000000000000000000000000000000000000000000000000000000000000000000000000000000000000000000000000000000000000000000000000000000000000000000000000000000000000000000000000000000000000000000000000000000000000000000000000000000000000000000000000000000000000000000000000000000000000000000000000000000000000000000000000000000000000000000000000000000000000000000000000000000000000000000000000000000000000000000000000000000000000000000000000000000000000000000000000000000000",
      "type": "0x2",
      "transactionHash": "0x33481fc253f7593fbd0c59c0f60e7a833f19e0540b0fdec3dcc1834548a38055",
      "transactionIndex": "0x9",
      "blockHash": "0xdffa2c5e479aa9f892349907b909c7d71b9cb4060bc66f28f55257a088705df5",
      "blockNumber": "0x9bb2b64",
      "gasUsed": "0xd462",
      "effectiveGasPrice": "0x7aef40a00",
      "from": "0x6faff29226219756aa40ce648dbc65fb41de5f72",
      "to": "0x95ce14ee82410c4a7296205e0c663969703dc857",
      "contractAddress": null
    },
    {
      "status": "0x1",
      "cumulativeGasUsed": "0x1cd258",
      "logs": [],
      "logsBloom": "0x00000000000000000000000000000000000000000000000000000000000000000000000000000000000000000000000000000000000000000000000000000000000000000000000000000000000000000000000000000000000000000000000000000000000000000000000000000000000000000000000000000000000000000000000000000000000000000000000000000000000000000000000000000000000000000000000000000000000000000000000000000000000000000000000000000000000000000000000000000000000000000000000000000000000000000000000000000000000000000000000000000000000000000000000000000000",
      "type": "0x2",
      "transactionHash": "0xf81b80d4bc63d67dd9255a5a4286f3f4683c928641494d385cd3b16fa97f54a2",
      "transactionIndex": "0xa",
      "blockHash": "0xdffa2c5e479aa9f892349907b909c7d71b9cb4060bc66f28f55257a088705df5",
      "blockNumber": "0x9bb2b64",
      "gasUsed": "0x41cbd",
      "effectiveGasPrice": "0x7aef40a00",
      "from": "0x6faff29226219756aa40ce648dbc65fb41de5f72",
      "to": null,
      "contractAddress": "0xdd1a10ec99b0bddb54d608c8c504a453b50ffe68"
    },
    {
      "status": "0x1",
      "cumulativeGasUsed": "0x1da6ba",
      "logs": [],
      "logsBloom": "0x00000000000000000000000000000000000000000000000000000000000000000000000000000000000000000000000000000000000000000000000000000000000000000000000000000000000000000000000000000000000000000000000000000000000000000000000000000000000000000000000000000000000000000000000000000000000000000000000000000000000000000000000000000000000000000000000000000000000000000000000000000000000000000000000000000000000000000000000000000000000000000000000000000000000000000000000000000000000000000000000000000000000000000000000000000000",
      "type": "0x2",
      "transactionHash": "0x978d9d84d17661e20fba73f958e61a24d887ace80d778a618d2f28e6b8bf27c0",
      "transactionIndex": "0xb",
      "blockHash": "0xdffa2c5e479aa9f892349907b909c7d71b9cb4060bc66f28f55257a088705df5",
      "blockNumber": "0x9bb2b64",
      "gasUsed": "0xd462",
      "effectiveGasPrice": "0x7aef40a00",
      "from": "0x6faff29226219756aa40ce648dbc65fb41de5f72",
      "to": "0x95ce14ee82410c4a7296205e0c663969703dc857",
      "contractAddress": null
    },
    {
      "status": "0x1",
      "cumulativeGasUsed": "0x21c377",
      "logs": [],
      "logsBloom": "0x00000000000000000000000000000000000000000000000000000000000000000000000000000000000000000000000000000000000000000000000000000000000000000000000000000000000000000000000000000000000000000000000000000000000000000000000000000000000000000000000000000000000000000000000000000000000000000000000000000000000000000000000000000000000000000000000000000000000000000000000000000000000000000000000000000000000000000000000000000000000000000000000000000000000000000000000000000000000000000000000000000000000000000000000000000000",
      "type": "0x2",
      "transactionHash": "0x52e19bca43e0a54cf485f105ecfa32ce1dacd2f7e3da1ab4c24001cc4dab247f",
      "transactionIndex": "0xc",
      "blockHash": "0xdffa2c5e479aa9f892349907b909c7d71b9cb4060bc66f28f55257a088705df5",
      "blockNumber": "0x9bb2b64",
      "gasUsed": "0x41cbd",
      "effectiveGasPrice": "0x7aef40a00",
      "from": "0x6faff29226219756aa40ce648dbc65fb41de5f72",
      "to": null,
      "contractAddress": "0x0c6b8cccf0ea98135893182e7aa23a35eee7e669"
    },
    {
      "status": "0x1",
      "cumulativeGasUsed": "0x2297d9",
      "logs": [],
      "logsBloom": "0x00000000000000000000000000000000000000000000000000000000000000000000000000000000000000000000000000000000000000000000000000000000000000000000000000000000000000000000000000000000000000000000000000000000000000000000000000000000000000000000000000000000000000000000000000000000000000000000000000000000000000000000000000000000000000000000000000000000000000000000000000000000000000000000000000000000000000000000000000000000000000000000000000000000000000000000000000000000000000000000000000000000000000000000000000000000",
      "type": "0x2",
      "transactionHash": "0xc745c263fedeac03963dac440b308a94660e52d3882f4483943d74bf18153485",
      "transactionIndex": "0xd",
      "blockHash": "0xdffa2c5e479aa9f892349907b909c7d71b9cb4060bc66f28f55257a088705df5",
      "blockNumber": "0x9bb2b64",
      "gasUsed": "0xd462",
      "effectiveGasPrice": "0x7aef40a00",
      "from": "0x6faff29226219756aa40ce648dbc65fb41de5f72",
      "to": "0x95ce14ee82410c4a7296205e0c663969703dc857",
      "contractAddress": null
    },
    {
      "status": "0x1",
      "cumulativeGasUsed": "0x26b496",
      "logs": [],
      "logsBloom": "0x00000000000000000000000000000000000000000000000000000000000000000000000000000000000000000000000000000000000000000000000000000000000000000000000000000000000000000000000000000000000000000000000000000000000000000000000000000000000000000000000000000000000000000000000000000000000000000000000000000000000000000000000000000000000000000000000000000000000000000000000000000000000000000000000000000000000000000000000000000000000000000000000000000000000000000000000000000000000000000000000000000000000000000000000000000000",
      "type": "0x2",
      "transactionHash": "0xe78d0fa8889c64dc9bbf97ed402a8bc9cdd8a1683900ad8809e14004d385788f",
      "transactionIndex": "0xe",
      "blockHash": "0xdffa2c5e479aa9f892349907b909c7d71b9cb4060bc66f28f55257a088705df5",
      "blockNumber": "0x9bb2b64",
      "gasUsed": "0x41cbd",
      "effectiveGasPrice": "0x7aef40a00",
      "from": "0x6faff29226219756aa40ce648dbc65fb41de5f72",
      "to": null,
      "contractAddress": "0xefda337476cee8967203a6da09bce9545fdac3f3"
    },
    {
      "status": "0x1",
      "cumulativeGasUsed": "0xd462",
      "logs": [],
      "logsBloom": "0x00000000000000000000000000000000000000000000000000000000000000000000000000000000000000000000000000000000000000000000000000000000000000000000000000000000000000000000000000000000000000000000000000000000000000000000000000000000000000000000000000000000000000000000000000000000000000000000000000000000000000000000000000000000000000000000000000000000000000000000000000000000000000000000000000000000000000000000000000000000000000000000000000000000000000000000000000000000000000000000000000000000000000000000000000000000",
      "type": "0x2",
      "transactionHash": "0xf922709bb11243c7629943e5477e6fe3661ab039949795dec0966ea64f6695e9",
      "transactionIndex": "0x0",
      "blockHash": "0xc7c07068b8c800ce04ec451e0648d1570df700b4ba72a47f0be8f0852df242cb",
      "blockNumber": "0x9bb2b65",
      "gasUsed": "0xd462",
      "effectiveGasPrice": "0x7aef40a00",
      "from": "0x6faff29226219756aa40ce648dbc65fb41de5f72",
      "to": "0x95ce14ee82410c4a7296205e0c663969703dc857",
      "contractAddress": null
    },
    {
      "status": "0x1",
      "cumulativeGasUsed": "0x4f11f",
      "logs": [],
      "logsBloom": "0x00000000000000000000000000000000000000000000000000000000000000000000000000000000000000000000000000000000000000000000000000000000000000000000000000000000000000000000000000000000000000000000000000000000000000000000000000000000000000000000000000000000000000000000000000000000000000000000000000000000000000000000000000000000000000000000000000000000000000000000000000000000000000000000000000000000000000000000000000000000000000000000000000000000000000000000000000000000000000000000000000000000000000000000000000000000",
      "type": "0x2",
      "transactionHash": "0x59079b88c9cdd65f4fcb6a299df5778f1d49a24cbb8417a410e6963c33ce9234",
      "transactionIndex": "0x1",
      "blockHash": "0xc7c07068b8c800ce04ec451e0648d1570df700b4ba72a47f0be8f0852df242cb",
      "blockNumber": "0x9bb2b65",
      "gasUsed": "0x41cbd",
      "effectiveGasPrice": "0x7aef40a00",
      "from": "0x6faff29226219756aa40ce648dbc65fb41de5f72",
      "to": null,
      "contractAddress": "0x88b8c1de718ae300d6f7fef907197f0602622031"
    },
    {
      "status": "0x1",
      "cumulativeGasUsed": "0x5c581",
      "logs": [],
      "logsBloom": "0x00000000000000000000000000000000000000000000000000000000000000000000000000000000000000000000000000000000000000000000000000000000000000000000000000000000000000000000000000000000000000000000000000000000000000000000000000000000000000000000000000000000000000000000000000000000000000000000000000000000000000000000000000000000000000000000000000000000000000000000000000000000000000000000000000000000000000000000000000000000000000000000000000000000000000000000000000000000000000000000000000000000000000000000000000000000",
      "type": "0x2",
      "transactionHash": "0xb189331a4fc8cf2c02f2a7b5dcea9d7480fc7afeafe229f985dc6a537c487690",
      "transactionIndex": "0x2",
      "blockHash": "0xc7c07068b8c800ce04ec451e0648d1570df700b4ba72a47f0be8f0852df242cb",
      "blockNumber": "0x9bb2b65",
      "gasUsed": "0xd462",
      "effectiveGasPrice": "0x7aef40a00",
      "from": "0x6faff29226219756aa40ce648dbc65fb41de5f72",
      "to": "0x95ce14ee82410c4a7296205e0c663969703dc857",
      "contractAddress": null
    },
    {
      "status": "0x1",
      "cumulativeGasUsed": "0x9e23e",
      "logs": [],
      "logsBloom": "0x00000000000000000000000000000000000000000000000000000000000000000000000000000000000000000000000000000000000000000000000000000000000000000000000000000000000000000000000000000000000000000000000000000000000000000000000000000000000000000000000000000000000000000000000000000000000000000000000000000000000000000000000000000000000000000000000000000000000000000000000000000000000000000000000000000000000000000000000000000000000000000000000000000000000000000000000000000000000000000000000000000000000000000000000000000000",
      "type": "0x2",
      "transactionHash": "0x03319418c22e2f777b3b2c7c7a3677c6f7501b32e3e8d14b88b61f535b2aaea2",
      "transactionIndex": "0x3",
      "blockHash": "0xc7c07068b8c800ce04ec451e0648d1570df700b4ba72a47f0be8f0852df242cb",
      "blockNumber": "0x9bb2b65",
      "gasUsed": "0x41cbd",
      "effectiveGasPrice": "0x7aef40a00",
      "from": "0x6faff29226219756aa40ce648dbc65fb41de5f72",
      "to": null,
      "contractAddress": "0xde2d3cd8540b87957ba688f47a98a4476c35c8c0"
    },
    {
      "status": "0x1",
      "cumulativeGasUsed": "0xab6a0",
      "logs": [],
      "logsBloom": "0x00000000000000000000000000000000000000000000000000000000000000000000000000000000000000000000000000000000000000000000000000000000000000000000000000000000000000000000000000000000000000000000000000000000000000000000000000000000000000000000000000000000000000000000000000000000000000000000000000000000000000000000000000000000000000000000000000000000000000000000000000000000000000000000000000000000000000000000000000000000000000000000000000000000000000000000000000000000000000000000000000000000000000000000000000000000",
      "type": "0x2",
      "transactionHash": "0xcaf2db534b2f3fa54c08dda7f2163e3daa9c53b513317d26ba0224f42dcf595c",
      "transactionIndex": "0x4",
      "blockHash": "0xc7c07068b8c800ce04ec451e0648d1570df700b4ba72a47f0be8f0852df242cb",
      "blockNumber": "0x9bb2b65",
      "gasUsed": "0xd462",
      "effectiveGasPrice": "0x7aef40a00",
      "from": "0x6faff29226219756aa40ce648dbc65fb41de5f72",
      "to": "0x95ce14ee82410c4a7296205e0c663969703dc857",
      "contractAddress": null
    }
  ],
  "libraries": [],
  "pending": [],
  "returns": {},
  "timestamp": 1724842942,
  "chain": 1001,
  "commit": "cd51cc8"
}