{
  "transactions": [
    {
      "hash": "0x929a44f6d0df7d949f50b0ad5a810ef247cf5bd56fa717ef90eef9a3ad0ac314",
      "transactionType": "CREATE",
      "contractName": "Vault",
      "contractAddress": "0x1d8d8bb3ba5b31423ca23700dc7d7dd216dd0fc1",
      "function": null,
      "arguments": [
        "0x6570796368786c6b677300000000000000000000000000000000000000000000"
      ],
      "transaction": {
        "from": "0x6faff29226219756aa40ce648dbc65fb41de5f72",
        "gas": "0x6732a",
        "value": "0x0",
        "input": "0x60806040525f80546001600160a01b031916737be02decc3dc3be771d851fcf457bd9baa99010a1790553480156033575f80fd5b5060405161028f38038061028f8339810160408190526050916069565b5f805460ff60a01b1916600160a01b179055600155607f565b5f602082840312156078575f80fd5b5051919050565b6102038061008c5f395ff3fe608060405234801561000f575f80fd5b506004361061003f575f3560e01c8063701385a014610043578063cf3090121461004d578063ec9b5b3a14610074575b5f80fd5b61004b610087565b005b5f5461006090600160a01b900460ff1681565b604051901515815260200160405180910390f35b61004b6100823660046101c8565b610197565b5f54600160a01b900460ff1615156001036100b557604051635adc30c160e11b815260040160405180910390fd5b5f8054604051632f745c5960e01b8152306004820181905260248201939093526001600160a01b03909116916323b872dd9133908490632f745c5990604401602060405180830381865afa15801561010f573d5f803e3d5ffd5b505050506040513d601f19601f8201168201806040525081019061013391906101df565b6040516001600160e01b031960e086901b1681526001600160a01b03938416600482015292909116602483015260448201526064015f604051808303815f87803b15801561017f575f80fd5b505af1158015610191573d5f803e3d5ffd5b50505050565b80600154036101af575f805460ff60a01b1916905550565b604051635ee88f9760e01b815260040160405180910390fd5b5f602082840312156101d8575f80fd5b5035919050565b5f602082840312156101ef575f80fd5b505191905056fea164736f6c6343000819000a6570796368786c6b677300000000000000000000000000000000000000000000",
        "nonce": "0x236",
        "chainId": "0x3e9"
      },
      "additionalContracts": [],
      "isFixedGasLimit": false
    },
    {
      "hash": "0xa0865fc60907bb9bf26562f08ae36c1625170870925d3c57ce5a3347729f231e",
      "transactionType": "CALL",
      "contractName": null,
      "contractAddress": "0x95ce14ee82410c4a7296205e0c663969703dc857",
      "function": "addGemCastle(address)",
      "arguments": [
        "0x1D8d8Bb3BA5b31423CA23700dc7D7DD216dd0FC1"
      ],
      "transaction": {
        "from": "0x6faff29226219756aa40ce648dbc65fb41de5f72",
        "to": "0x95ce14ee82410c4a7296205e0c663969703dc857",
        "gas": "0x25834",
        "value": "0x0",
        "input": "0x5862c8940000000000000000000000001d8d8bb3ba5b31423ca23700dc7d7dd216dd0fc1",
        "nonce": "0x237",
        "chainId": "0x3e9"
      },
      "additionalContracts": [],
      "isFixedGasLimit": false
    },
    {
      "hash": "0x7eb9fd0e6ddd6589057a79e20abcb39a0870c494926c800014ec9b2a8240124e",
      "transactionType": "CREATE",
      "contractName": "Vault",
      "contractAddress": "0xa2788daaf8be2de5f6cb80708bbf49ffd315150c",
      "function": null,
      "arguments": [
        "0x6570796368786c6b677300000000000000000000000000000000000000000000"
      ],
      "transaction": {
        "from": "0x6faff29226219756aa40ce648dbc65fb41de5f72",
        "gas": "0x6732a",
        "value": "0x0",
        "input": "0x60806040525f80546001600160a01b031916737be02decc3dc3be771d851fcf457bd9baa99010a1790553480156033575f80fd5b5060405161028f38038061028f8339810160408190526050916069565b5f805460ff60a01b1916600160a01b179055600155607f565b5f602082840312156078575f80fd5b5051919050565b6102038061008c5f395ff3fe608060405234801561000f575f80fd5b506004361061003f575f3560e01c8063701385a014610043578063cf3090121461004d578063ec9b5b3a14610074575b5f80fd5b61004b610087565b005b5f5461006090600160a01b900460ff1681565b604051901515815260200160405180910390f35b61004b6100823660046101c8565b610197565b5f54600160a01b900460ff1615156001036100b557604051635adc30c160e11b815260040160405180910390fd5b5f8054604051632f745c5960e01b8152306004820181905260248201939093526001600160a01b03909116916323b872dd9133908490632f745c5990604401602060405180830381865afa15801561010f573d5f803e3d5ffd5b505050506040513d601f19601f8201168201806040525081019061013391906101df565b6040516001600160e01b031960e086901b1681526001600160a01b03938416600482015292909116602483015260448201526064015f604051808303815f87803b15801561017f575f80fd5b505af1158015610191573d5f803e3d5ffd5b50505050565b80600154036101af575f805460ff60a01b1916905550565b604051635ee88f9760e01b815260040160405180910390fd5b5f602082840312156101d8575f80fd5b5035919050565b5f602082840312156101ef575f80fd5b505191905056fea164736f6c6343000819000a6570796368786c6b677300000000000000000000000000000000000000000000",
        "nonce": "0x238",
        "chainId": "0x3e9"
      },
      "additionalContracts": [],
      "isFixedGasLimit": false
    },
    {
      "hash": "0x74479b0eefbd96a06752047103e5c3b32fc0d929fec8e43e9676dca599e0780e",
      "transactionType": "CALL",
      "contractName": null,
      "contractAddress": "0x95ce14ee82410c4a7296205e0c663969703dc857",
      "function": "addGemCastle(address)",
      "arguments": [
        "0xA2788DAAf8BE2dE5f6CB80708bBF49FFD315150C"
      ],
      "transaction": {
        "from": "0x6faff29226219756aa40ce648dbc65fb41de5f72",
        "to": "0x95ce14ee82410c4a7296205e0c663969703dc857",
        "gas": "0x1c204",
        "value": "0x0",
        "input": "0x5862c894000000000000000000000000a2788daaf8be2de5f6cb80708bbf49ffd315150c",
        "nonce": "0x239",
        "chainId": "0x3e9"
      },
      "additionalContracts": [],
      "isFixedGasLimit": false
    },
    {
      "hash": "0x0979a98cd920b85ddd81b21cca297d9dc10f18926d0f33d4ced0367572d39e0d",
      "transactionType": "CREATE",
      "contractName": "Vault",
      "contractAddress": "0x360513fa58f45bc2fae25a60e6c4d51d35f430d6",
      "function": null,
      "arguments": [
        "0x6570796368786c6b677300000000000000000000000000000000000000000000"
      ],
      "transaction": {
        "from": "0x6faff29226219756aa40ce648dbc65fb41de5f72",
        "gas": "0x6732a",
        "value": "0x0",
        "input": "0x60806040525f80546001600160a01b031916737be02decc3dc3be771d851fcf457bd9baa99010a1790553480156033575f80fd5b5060405161028f38038061028f8339810160408190526050916069565b5f805460ff60a01b1916600160a01b179055600155607f565b5f602082840312156078575f80fd5b5051919050565b6102038061008c5f395ff3fe608060405234801561000f575f80fd5b506004361061003f575f3560e01c8063701385a014610043578063cf3090121461004d578063ec9b5b3a14610074575b5f80fd5b61004b610087565b005b5f5461006090600160a01b900460ff1681565b604051901515815260200160405180910390f35b61004b6100823660046101c8565b610197565b5f54600160a01b900460ff1615156001036100b557604051635adc30c160e11b815260040160405180910390fd5b5f8054604051632f745c5960e01b8152306004820181905260248201939093526001600160a01b03909116916323b872dd9133908490632f745c5990604401602060405180830381865afa15801561010f573d5f803e3d5ffd5b505050506040513d601f19601f8201168201806040525081019061013391906101df565b6040516001600160e01b031960e086901b1681526001600160a01b03938416600482015292909116602483015260448201526064015f604051808303815f87803b15801561017f575f80fd5b505af1158015610191573d5f803e3d5ffd5b50505050565b80600154036101af575f805460ff60a01b1916905550565b604051635ee88f9760e01b815260040160405180910390fd5b5f602082840312156101d8575f80fd5b5035919050565b5f602082840312156101ef575f80fd5b505191905056fea164736f6c6343000819000a6570796368786c6b677300000000000000000000000000000000000000000000",
        "nonce": "0x23a",
        "chainId": "0x3e9"
      },
      "additionalContracts": [],
      "isFixedGasLimit": false
    },
    {
      "hash": "0xfabbfaef130821c09f110324988e00fe551c057157ae91593ee64244ce48e6f1",
      "transactionType": "CALL",
      "contractName": null,
      "contractAddress": "0x95ce14ee82410c4a7296205e0c663969703dc857",
      "function": "addGemCastle(address)",
      "arguments": [
        "0x360513fA58f45Bc2FAe25A60e6c4D51D35f430D6"
      ],
      "transaction": {
        "from": "0x6faff29226219756aa40ce648dbc65fb41de5f72",
        "to": "0x95ce14ee82410c4a7296205e0c663969703dc857",
        "gas": "0x1c204",
        "value": "0x0",
        "input": "0x5862c894000000000000000000000000360513fa58f45bc2fae25a60e6c4d51d35f430d6",
        "nonce": "0x23b",
        "chainId": "0x3e9"
      },
      "additionalContracts": [],
      "isFixedGasLimit": false
    },
    {
      "hash": "0x5e5fb3c8633bbe5f32b5dec3707dcebdf13c08e2f51127e28f95ec2622addc6e",
      "transactionType": "CREATE",
      "contractName": "Vault",
      "contractAddress": "0x11cb966dbe6e72936c041f1e6141413d2848eff1",
      "function": null,
      "arguments": [
        "0x6570796368786c6b677300000000000000000000000000000000000000000000"
      ],
      "transaction": {
        "from": "0x6faff29226219756aa40ce648dbc65fb41de5f72",
        "gas": "0x6732a",
        "value": "0x0",
        "input": "0x60806040525f80546001600160a01b031916737be02decc3dc3be771d851fcf457bd9baa99010a1790553480156033575f80fd5b5060405161028f38038061028f8339810160408190526050916069565b5f805460ff60a01b1916600160a01b179055600155607f565b5f602082840312156078575f80fd5b5051919050565b6102038061008c5f395ff3fe608060405234801561000f575f80fd5b506004361061003f575f3560e01c8063701385a014610043578063cf3090121461004d578063ec9b5b3a14610074575b5f80fd5b61004b610087565b005b5f5461006090600160a01b900460ff1681565b604051901515815260200160405180910390f35b61004b6100823660046101c8565b610197565b5f54600160a01b900460ff1615156001036100b557604051635adc30c160e11b815260040160405180910390fd5b5f8054604051632f745c5960e01b8152306004820181905260248201939093526001600160a01b03909116916323b872dd9133908490632f745c5990604401602060405180830381865afa15801561010f573d5f803e3d5ffd5b505050506040513d601f19601f8201168201806040525081019061013391906101df565b6040516001600160e01b031960e086901b1681526001600160a01b03938416600482015292909116602483015260448201526064015f604051808303815f87803b15801561017f575f80fd5b505af1158015610191573d5f803e3d5ffd5b50505050565b80600154036101af575f805460ff60a01b1916905550565b604051635ee88f9760e01b815260040160405180910390fd5b5f602082840312156101d8575f80fd5b5035919050565b5f602082840312156101ef575f80fd5b505191905056fea164736f6c6343000819000a6570796368786c6b677300000000000000000000000000000000000000000000",
        "nonce": "0x23c",
        "chainId": "0x3e9"
      },
      "additionalContracts": [],
      "isFixedGasLimit": false
    },
    {
      "hash": "0x91a94d458c4b58dd93d5bc1f01baf5f7561582281d4676362bdccc5d810fd02e",
      "transactionType": "CALL",
      "contractName": null,
      "contractAddress": "0x95ce14ee82410c4a7296205e0c663969703dc857",
      "function": "addGemCastle(address)",
      "arguments": [
        "0x11cB966DBe6E72936c041F1e6141413d2848EFF1"
      ],
      "transaction": {
        "from": "0x6faff29226219756aa40ce648dbc65fb41de5f72",
        "to": "0x95ce14ee82410c4a7296205e0c663969703dc857",
        "gas": "0x1c204",
        "value": "0x0",
        "input": "0x5862c89400000000000000000000000011cb966dbe6e72936c041f1e6141413d2848eff1",
        "nonce": "0x23d",
        "chainId": "0x3e9"
      },
      "additionalContracts": [],
      "isFixedGasLimit": false
    },
    {
      "hash": "0xd7e9900fbefdbc7f9a6e2976944d863f21213bec2a09ed12b6cc630325943718",
      "transactionType": "CREATE",
      "contractName": "Vault",
      "contractAddress": "0x7442e13c273a1abb99406a20d12abf536eaa3a0c",
      "function": null,
      "arguments": [
        "0x6570796368786c6b677300000000000000000000000000000000000000000000"
      ],
      "transaction": {
        "from": "0x6faff29226219756aa40ce648dbc65fb41de5f72",
        "gas": "0x6732a",
        "value": "0x0",
        "input": "0x60806040525f80546001600160a01b031916737be02decc3dc3be771d851fcf457bd9baa99010a1790553480156033575f80fd5b5060405161028f38038061028f8339810160408190526050916069565b5f805460ff60a01b1916600160a01b179055600155607f565b5f602082840312156078575f80fd5b5051919050565b6102038061008c5f395ff3fe608060405234801561000f575f80fd5b506004361061003f575f3560e01c8063701385a014610043578063cf3090121461004d578063ec9b5b3a14610074575b5f80fd5b61004b610087565b005b5f5461006090600160a01b900460ff1681565b604051901515815260200160405180910390f35b61004b6100823660046101c8565b610197565b5f54600160a01b900460ff1615156001036100b557604051635adc30c160e11b815260040160405180910390fd5b5f8054604051632f745c5960e01b8152306004820181905260248201939093526001600160a01b03909116916323b872dd9133908490632f745c5990604401602060405180830381865afa15801561010f573d5f803e3d5ffd5b505050506040513d601f19601f8201168201806040525081019061013391906101df565b6040516001600160e01b031960e086901b1681526001600160a01b03938416600482015292909116602483015260448201526064015f604051808303815f87803b15801561017f575f80fd5b505af1158015610191573d5f803e3d5ffd5b50505050565b80600154036101af575f805460ff60a01b1916905550565b604051635ee88f9760e01b815260040160405180910390fd5b5f602082840312156101d8575f80fd5b5035919050565b5f602082840312156101ef575f80fd5b505191905056fea164736f6c6343000819000a6570796368786c6b677300000000000000000000000000000000000000000000",
        "nonce": "0x23e",
        "chainId": "0x3e9"
      },
      "additionalContracts": [],
      "isFixedGasLimit": false
    },
    {
      "hash": "0x5a846bf0e3e1794dcf881ec8b46fb2b494ecbb5427e915f9369bbb3c947479d8",
      "transactionType": "CALL",
      "contractName": null,
      "contractAddress": "0x95ce14ee82410c4a7296205e0c663969703dc857",
      "function": "addGemCastle(address)",
      "arguments": [
        "0x7442E13C273a1abb99406A20D12Abf536EaA3A0c"
      ],
      "transaction": {
        "from": "0x6faff29226219756aa40ce648dbc65fb41de5f72",
        "to": "0x95ce14ee82410c4a7296205e0c663969703dc857",
        "gas": "0x1c204",
        "value": "0x0",
        "input": "0x5862c8940000000000000000000000007442e13c273a1abb99406a20d12abf536eaa3a0c",
        "nonce": "0x23f",
        "chainId": "0x3e9"
      },
      "additionalContracts": [],
      "isFixedGasLimit": false
    },
    {
      "hash": "0x957dfb77373b63d8b39dfb8a5f5ea93e464a8a3dc6246826fe27322bcc3d6eda",
      "transactionType": "CREATE",
      "contractName": "Vault",
      "contractAddress": "0xb52362351b8941a20b9ed6673ec1b012f88444ed",
      "function": null,
      "arguments": [
        "0x6570796368786c6b677300000000000000000000000000000000000000000000"
      ],
      "transaction": {
        "from": "0x6faff29226219756aa40ce648dbc65fb41de5f72",
        "gas": "0x6732a",
        "value": "0x0",
        "input": "0x60806040525f80546001600160a01b031916737be02decc3dc3be771d851fcf457bd9baa99010a1790553480156033575f80fd5b5060405161028f38038061028f8339810160408190526050916069565b5f805460ff60a01b1916600160a01b179055600155607f565b5f602082840312156078575f80fd5b5051919050565b6102038061008c5f395ff3fe608060405234801561000f575f80fd5b506004361061003f575f3560e01c8063701385a014610043578063cf3090121461004d578063ec9b5b3a14610074575b5f80fd5b61004b610087565b005b5f5461006090600160a01b900460ff1681565b604051901515815260200160405180910390f35b61004b6100823660046101c8565b610197565b5f54600160a01b900460ff1615156001036100b557604051635adc30c160e11b815260040160405180910390fd5b5f8054604051632f745c5960e01b8152306004820181905260248201939093526001600160a01b03909116916323b872dd9133908490632f745c5990604401602060405180830381865afa15801561010f573d5f803e3d5ffd5b505050506040513d601f19601f8201168201806040525081019061013391906101df565b6040516001600160e01b031960e086901b1681526001600160a01b03938416600482015292909116602483015260448201526064015f604051808303815f87803b15801561017f575f80fd5b505af1158015610191573d5f803e3d5ffd5b50505050565b80600154036101af575f805460ff60a01b1916905550565b604051635ee88f9760e01b815260040160405180910390fd5b5f602082840312156101d8575f80fd5b5035919050565b5f602082840312156101ef575f80fd5b505191905056fea164736f6c6343000819000a6570796368786c6b677300000000000000000000000000000000000000000000",
        "nonce": "0x240",
        "chainId": "0x3e9"
      },
      "additionalContracts": [],
      "isFixedGasLimit": false
    },
    {
      "hash": "0x3990905f1d0c2e3745592ef1b201a683e02a6b3f3849c1634aec41ce8f3652fc",
      "transactionType": "CALL",
      "contractName": null,
      "contractAddress": "0x95ce14ee82410c4a7296205e0c663969703dc857",
      "function": "addGemCastle(address)",
      "arguments": [
        "0xb52362351b8941A20b9eD6673ec1B012f88444Ed"
      ],
      "transaction": {
        "from": "0x6faff29226219756aa40ce648dbc65fb41de5f72",
        "to": "0x95ce14ee82410c4a7296205e0c663969703dc857",
        "gas": "0x1c204",
        "value": "0x0",
        "input": "0x5862c894000000000000000000000000b52362351b8941a20b9ed6673ec1b012f88444ed",
        "nonce": "0x241",
        "chainId": "0x3e9"
      },
      "additionalContracts": [],
      "isFixedGasLimit": false
    },
    {
      "hash": "0x9d00ea67ab3e2a712d1aa41cfadc3342967bf754ca521547de252758dd0ed287",
      "transactionType": "CREATE",
      "contractName": "Vault",
      "contractAddress": "0xbf72feda0fc2ef5c5aa088363f5b0fccfff72c17",
      "function": null,
      "arguments": [
        "0x6570796368786c6b677300000000000000000000000000000000000000000000"
      ],
      "transaction": {
        "from": "0x6faff29226219756aa40ce648dbc65fb41de5f72",
        "gas": "0x6732a",
        "value": "0x0",
        "input": "0x60806040525f80546001600160a01b031916737be02decc3dc3be771d851fcf457bd9baa99010a1790553480156033575f80fd5b5060405161028f38038061028f8339810160408190526050916069565b5f805460ff60a01b1916600160a01b179055600155607f565b5f602082840312156078575f80fd5b5051919050565b6102038061008c5f395ff3fe608060405234801561000f575f80fd5b506004361061003f575f3560e01c8063701385a014610043578063cf3090121461004d578063ec9b5b3a14610074575b5f80fd5b61004b610087565b005b5f5461006090600160a01b900460ff1681565b604051901515815260200160405180910390f35b61004b6100823660046101c8565b610197565b5f54600160a01b900460ff1615156001036100b557604051635adc30c160e11b815260040160405180910390fd5b5f8054604051632f745c5960e01b8152306004820181905260248201939093526001600160a01b03909116916323b872dd9133908490632f745c5990604401602060405180830381865afa15801561010f573d5f803e3d5ffd5b505050506040513d601f19601f8201168201806040525081019061013391906101df565b6040516001600160e01b031960e086901b1681526001600160a01b03938416600482015292909116602483015260448201526064015f604051808303815f87803b15801561017f575f80fd5b505af1158015610191573d5f803e3d5ffd5b50505050565b80600154036101af575f805460ff60a01b1916905550565b604051635ee88f9760e01b815260040160405180910390fd5b5f602082840312156101d8575f80fd5b5035919050565b5f602082840312156101ef575f80fd5b505191905056fea164736f6c6343000819000a6570796368786c6b677300000000000000000000000000000000000000000000",
        "nonce": "0x242",
        "chainId": "0x3e9"
      },
      "additionalContracts": [],
      "isFixedGasLimit": false
    },
    {
      "hash": "0x778d6a5a6d00bb426172ad5cd826f37502ec9e29e753425d9115a9630deee7ec",
      "transactionType": "CALL",
      "contractName": null,
      "contractAddress": "0x95ce14ee82410c4a7296205e0c663969703dc857",
      "function": "addGemCastle(address)",
      "arguments": [
        "0xbF72FEdA0fc2EF5c5aa088363f5B0FCCfFf72C17"
      ],
      "transaction": {
        "from": "0x6faff29226219756aa40ce648dbc65fb41de5f72",
        "to": "0x95ce14ee82410c4a7296205e0c663969703dc857",
        "gas": "0x1c204",
        "value": "0x0",
        "input": "0x5862c894000000000000000000000000bf72feda0fc2ef5c5aa088363f5b0fccfff72c17",
        "nonce": "0x243",
        "chainId": "0x3e9"
      },
      "additionalContracts": [],
      "isFixedGasLimit": false
    },
    {
      "hash": "0x20af340536d6064abd8fe6969209fb02fe903d37ffd4172c662cf4a160a34e10",
      "transactionType": "CREATE",
      "contractName": "Vault",
      "contractAddress": "0x5a35d6c436782c52982fd1b0324e73c18459b5e7",
      "function": null,
      "arguments": [
        "0x6570796368786c6b677300000000000000000000000000000000000000000000"
      ],
      "transaction": {
        "from": "0x6faff29226219756aa40ce648dbc65fb41de5f72",
        "gas": "0x6732a",
        "value": "0x0",
        "input": "0x60806040525f80546001600160a01b031916737be02decc3dc3be771d851fcf457bd9baa99010a1790553480156033575f80fd5b5060405161028f38038061028f8339810160408190526050916069565b5f805460ff60a01b1916600160a01b179055600155607f565b5f602082840312156078575f80fd5b5051919050565b6102038061008c5f395ff3fe608060405234801561000f575f80fd5b506004361061003f575f3560e01c8063701385a014610043578063cf3090121461004d578063ec9b5b3a14610074575b5f80fd5b61004b610087565b005b5f5461006090600160a01b900460ff1681565b604051901515815260200160405180910390f35b61004b6100823660046101c8565b610197565b5f54600160a01b900460ff1615156001036100b557604051635adc30c160e11b815260040160405180910390fd5b5f8054604051632f745c5960e01b8152306004820181905260248201939093526001600160a01b03909116916323b872dd9133908490632f745c5990604401602060405180830381865afa15801561010f573d5f803e3d5ffd5b505050506040513d601f19601f8201168201806040525081019061013391906101df565b6040516001600160e01b031960e086901b1681526001600160a01b03938416600482015292909116602483015260448201526064015f604051808303815f87803b15801561017f575f80fd5b505af1158015610191573d5f803e3d5ffd5b50505050565b80600154036101af575f805460ff60a01b1916905550565b604051635ee88f9760e01b815260040160405180910390fd5b5f602082840312156101d8575f80fd5b5035919050565b5f602082840312156101ef575f80fd5b505191905056fea164736f6c6343000819000a6570796368786c6b677300000000000000000000000000000000000000000000",
        "nonce": "0x244",
        "chainId": "0x3e9"
      },
      "additionalContracts": [],
      "isFixedGasLimit": false
    },
    {
      "hash": "0xd2022796e8770e9b7e757c6043d9db35896b4c415aeae7914e174ad8f4efddf8",
      "transactionType": "CALL",
      "contractName": null,
      "contractAddress": "0x95ce14ee82410c4a7296205e0c663969703dc857",
      "function": "addGemCastle(address)",
      "arguments": [
        "0x5A35D6c436782C52982FD1B0324e73c18459b5e7"
      ],
      "transaction": {
        "from": "0x6faff29226219756aa40ce648dbc65fb41de5f72",
        "to": "0x95ce14ee82410c4a7296205e0c663969703dc857",
        "gas": "0x1c204",
        "value": "0x0",
        "input": "0x5862c8940000000000000000000000005a35d6c436782c52982fd1b0324e73c18459b5e7",
        "nonce": "0x245",
        "chainId": "0x3e9"
      },
      "additionalContracts": [],
      "isFixedGasLimit": false
    },
    {
      "hash": "0x619852cab5706041fc484792a692e141026e338354d2b917c83c914402120116",
      "transactionType": "CREATE",
      "contractName": "Vault",
      "contractAddress": "0xa22e523f4481c531772ed49802c6a1db39c7490f",
      "function": null,
      "arguments": [
        "0x6570796368786c6b677300000000000000000000000000000000000000000000"
      ],
      "transaction": {
        "from": "0x6faff29226219756aa40ce648dbc65fb41de5f72",
        "gas": "0x6732a",
        "value": "0x0",
        "input": "0x60806040525f80546001600160a01b031916737be02decc3dc3be771d851fcf457bd9baa99010a1790553480156033575f80fd5b5060405161028f38038061028f8339810160408190526050916069565b5f805460ff60a01b1916600160a01b179055600155607f565b5f602082840312156078575f80fd5b5051919050565b6102038061008c5f395ff3fe608060405234801561000f575f80fd5b506004361061003f575f3560e01c8063701385a014610043578063cf3090121461004d578063ec9b5b3a14610074575b5f80fd5b61004b610087565b005b5f5461006090600160a01b900460ff1681565b604051901515815260200160405180910390f35b61004b6100823660046101c8565b610197565b5f54600160a01b900460ff1615156001036100b557604051635adc30c160e11b815260040160405180910390fd5b5f8054604051632f745c5960e01b8152306004820181905260248201939093526001600160a01b03909116916323b872dd9133908490632f745c5990604401602060405180830381865afa15801561010f573d5f803e3d5ffd5b505050506040513d601f19601f8201168201806040525081019061013391906101df565b6040516001600160e01b031960e086901b1681526001600160a01b03938416600482015292909116602483015260448201526064015f604051808303815f87803b15801561017f575f80fd5b505af1158015610191573d5f803e3d5ffd5b50505050565b80600154036101af575f805460ff60a01b1916905550565b604051635ee88f9760e01b815260040160405180910390fd5b5f602082840312156101d8575f80fd5b5035919050565b5f602082840312156101ef575f80fd5b505191905056fea164736f6c6343000819000a6570796368786c6b677300000000000000000000000000000000000000000000",
        "nonce": "0x246",
        "chainId": "0x3e9"
      },
      "additionalContracts": [],
      "isFixedGasLimit": false
    },
    {
      "hash": "0xc387c6e325525c18be8eac71828dd5a3d964dd11a411ddfb4d4651abe7dade77",
      "transactionType": "CALL",
      "contractName": null,
      "contractAddress": "0x95ce14ee82410c4a7296205e0c663969703dc857",
      "function": "addGemCastle(address)",
      "arguments": [
        "0xa22e523f4481c531772Ed49802c6a1dB39c7490f"
      ],
      "transaction": {
        "from": "0x6faff29226219756aa40ce648dbc65fb41de5f72",
        "to": "0x95ce14ee82410c4a7296205e0c663969703dc857",
        "gas": "0x1c204",
        "value": "0x0",
        "input": "0x5862c894000000000000000000000000a22e523f4481c531772ed49802c6a1db39c7490f",
        "nonce": "0x247",
        "chainId": "0x3e9"
      },
      "additionalContracts": [],
      "isFixedGasLimit": false
    },
    {
      "hash": "0x6f98b034f095c1591df073878c0c6bbf8a860774a5b9356bea7f0b7d2e633e78",
      "transactionType": "CREATE",
      "contractName": "Vault",
      "contractAddress": "0x759a877d88be8f5049f5b05da222e9172d8a575f",
      "function": null,
      "arguments": [
        "0x6570796368786c6b677300000000000000000000000000000000000000000000"
      ],
      "transaction": {
        "from": "0x6faff29226219756aa40ce648dbc65fb41de5f72",
        "gas": "0x6732a",
        "value": "0x0",
        "input": "0x60806040525f80546001600160a01b031916737be02decc3dc3be771d851fcf457bd9baa99010a1790553480156033575f80fd5b5060405161028f38038061028f8339810160408190526050916069565b5f805460ff60a01b1916600160a01b179055600155607f565b5f602082840312156078575f80fd5b5051919050565b6102038061008c5f395ff3fe608060405234801561000f575f80fd5b506004361061003f575f3560e01c8063701385a014610043578063cf3090121461004d578063ec9b5b3a14610074575b5f80fd5b61004b610087565b005b5f5461006090600160a01b900460ff1681565b604051901515815260200160405180910390f35b61004b6100823660046101c8565b610197565b5f54600160a01b900460ff1615156001036100b557604051635adc30c160e11b815260040160405180910390fd5b5f8054604051632f745c5960e01b8152306004820181905260248201939093526001600160a01b03909116916323b872dd9133908490632f745c5990604401602060405180830381865afa15801561010f573d5f803e3d5ffd5b505050506040513d601f19601f8201168201806040525081019061013391906101df565b6040516001600160e01b031960e086901b1681526001600160a01b03938416600482015292909116602483015260448201526064015f604051808303815f87803b15801561017f575f80fd5b505af1158015610191573d5f803e3d5ffd5b50505050565b80600154036101af575f805460ff60a01b1916905550565b604051635ee88f9760e01b815260040160405180910390fd5b5f602082840312156101d8575f80fd5b5035919050565b5f602082840312156101ef575f80fd5b505191905056fea164736f6c6343000819000a6570796368786c6b677300000000000000000000000000000000000000000000",
        "nonce": "0x248",
        "chainId": "0x3e9"
      },
      "additionalContracts": [],
      "isFixedGasLimit": false
    },
    {
      "hash": "0xfcbef2e76eea7db962d04ed5554221823938c699d378f9e236e2b574650f678b",
      "transactionType": "CALL",
      "contractName": null,
      "contractAddress": "0x95ce14ee82410c4a7296205e0c663969703dc857",
      "function": "addGemCastle(address)",
      "arguments": [
        "0x759A877d88BE8f5049F5b05Da222E9172D8A575f"
      ],
      "transaction": {
        "from": "0x6faff29226219756aa40ce648dbc65fb41de5f72",
        "to": "0x95ce14ee82410c4a7296205e0c663969703dc857",
        "gas": "0x1c204",
        "value": "0x0",
        "input": "0x5862c894000000000000000000000000759a877d88be8f5049f5b05da222e9172d8a575f",
        "nonce": "0x249",
        "chainId": "0x3e9"
      },
      "additionalContracts": [],
      "isFixedGasLimit": false
    }
  ],
  "receipts": [
    {
      "status": "0x1",
      "cumulativeGasUsed": "0x41cbd",
      "logs": [],
      "logsBloom": "0x00000000000000000000000000000000000000000000000000000000000000000000000000000000000000000000000000000000000000000000000000000000000000000000000000000000000000000000000000000000000000000000000000000000000000000000000000000000000000000000000000000000000000000000000000000000000000000000000000000000000000000000000000000000000000000000000000000000000000000000000000000000000000000000000000000000000000000000000000000000000000000000000000000000000000000000000000000000000000000000000000000000000000000000000000000000",
      "type": "0x2",
      "transactionHash": "0x929a44f6d0df7d949f50b0ad5a810ef247cf5bd56fa717ef90eef9a3ad0ac314",
      "transactionIndex": "0x0",
      "blockHash": "0x3569dd10b2b0b5b5233e2bddb86af78a23497c5ea485c54d6129a32d0bf92c1c",
      "blockNumber": "0x9bb29af",
      "gasUsed": "0x41cbd",
      "effectiveGasPrice": "0x7aef40a00",
      "from": "0x6faff29226219756aa40ce648dbc65fb41de5f72",
      "to": null,
      "contractAddress": "0x1d8d8bb3ba5b31423ca23700dc7d7dd216dd0fc1"
    },
    {
      "status": "0x1",
      "cumulativeGasUsed": "0x533eb",
      "logs": [],
      "logsBloom": "0x00000000000000000000000000000000000000000000000000000000000000000000000000000000000000000000000000000000000000000000000000000000000000000000000000000000000000000000000000000000000000000000000000000000000000000000000000000000000000000000000000000000000000000000000000000000000000000000000000000000000000000000000000000000000000000000000000000000000000000000000000000000000000000000000000000000000000000000000000000000000000000000000000000000000000000000000000000000000000000000000000000000000000000000000000000000",
      "type": "0x2",
      "transactionHash": "0xa0865fc60907bb9bf26562f08ae36c1625170870925d3c57ce5a3347729f231e",
      "transactionIndex": "0x1",
      "blockHash": "0x3569dd10b2b0b5b5233e2bddb86af78a23497c5ea485c54d6129a32d0bf92c1c",
      "blockNumber": "0x9bb29af",
      "gasUsed": "0x1172e",
      "effectiveGasPrice": "0x7aef40a00",
      "from": "0x6faff29226219756aa40ce648dbc65fb41de5f72",
      "to": "0x95ce14ee82410c4a7296205e0c663969703dc857",
      "contractAddress": null
    },
    {
      "status": "0x1",
      "cumulativeGasUsed": "0x950a8",
      "logs": [],
      "logsBloom": "0x00000000000000000000000000000000000000000000000000000000000000000000000000000000000000000000000000000000000000000000000000000000000000000000000000000000000000000000000000000000000000000000000000000000000000000000000000000000000000000000000000000000000000000000000000000000000000000000000000000000000000000000000000000000000000000000000000000000000000000000000000000000000000000000000000000000000000000000000000000000000000000000000000000000000000000000000000000000000000000000000000000000000000000000000000000000",
      "type": "0x2",
      "transactionHash": "0x7eb9fd0e6ddd6589057a79e20abcb39a0870c494926c800014ec9b2a8240124e",
      "transactionIndex": "0x2",
      "blockHash": "0x3569dd10b2b0b5b5233e2bddb86af78a23497c5ea485c54d6129a32d0bf92c1c",
      "blockNumber": "0x9bb29af",
      "gasUsed": "0x41cbd",
      "effectiveGasPrice": "0x7aef40a00",
      "from": "0x6faff29226219756aa40ce648dbc65fb41de5f72",
      "to": null,
      "contractAddress": "0xa2788daaf8be2de5f6cb80708bbf49ffd315150c"
    },
    {
      "status": "0x1",
      "cumulativeGasUsed": "0xa250a",
      "logs": [],
      "logsBloom": "0x00000000000000000000000000000000000000000000000000000000000000000000000000000000000000000000000000000000000000000000000000000000000000000000000000000000000000000000000000000000000000000000000000000000000000000000000000000000000000000000000000000000000000000000000000000000000000000000000000000000000000000000000000000000000000000000000000000000000000000000000000000000000000000000000000000000000000000000000000000000000000000000000000000000000000000000000000000000000000000000000000000000000000000000000000000000",
      "type": "0x2",
      "transactionHash": "0x74479b0eefbd96a06752047103e5c3b32fc0d929fec8e43e9676dca599e0780e",
      "transactionIndex": "0x3",
      "blockHash": "0x3569dd10b2b0b5b5233e2bddb86af78a23497c5ea485c54d6129a32d0bf92c1c",
      "blockNumber": "0x9bb29af",
      "gasUsed": "0xd462",
      "effectiveGasPrice": "0x7aef40a00",
      "from": "0x6faff29226219756aa40ce648dbc65fb41de5f72",
      "to": "0x95ce14ee82410c4a7296205e0c663969703dc857",
      "contractAddress": null
    },
    {
      "status": "0x1",
      "cumulativeGasUsed": "0xe41c7",
      "logs": [],
      "logsBloom": "0x00000000000000000000000000000000000000000000000000000000000000000000000000000000000000000000000000000000000000000000000000000000000000000000000000000000000000000000000000000000000000000000000000000000000000000000000000000000000000000000000000000000000000000000000000000000000000000000000000000000000000000000000000000000000000000000000000000000000000000000000000000000000000000000000000000000000000000000000000000000000000000000000000000000000000000000000000000000000000000000000000000000000000000000000000000000",
      "type": "0x2",
      "transactionHash": "0x0979a98cd920b85ddd81b21cca297d9dc10f18926d0f33d4ced0367572d39e0d",
      "transactionIndex": "0x4",
      "blockHash": "0x3569dd10b2b0b5b5233e2bddb86af78a23497c5ea485c54d6129a32d0bf92c1c",
      "blockNumber": "0x9bb29af",
      "gasUsed": "0x41cbd",
      "effectiveGasPrice": "0x7aef40a00",
      "from": "0x6faff29226219756aa40ce648dbc65fb41de5f72",
      "to": null,
      "contractAddress": "0x360513fa58f45bc2fae25a60e6c4d51d35f430d6"
    },
    {
      "status": "0x1",
      "cumulativeGasUsed": "0xf1629",
      "logs": [],
      "logsBloom": "0x00000000000000000000000000000000000000000000000000000000000000000000000000000000000000000000000000000000000000000000000000000000000000000000000000000000000000000000000000000000000000000000000000000000000000000000000000000000000000000000000000000000000000000000000000000000000000000000000000000000000000000000000000000000000000000000000000000000000000000000000000000000000000000000000000000000000000000000000000000000000000000000000000000000000000000000000000000000000000000000000000000000000000000000000000000000",
      "type": "0x2",
      "transactionHash": "0xfabbfaef130821c09f110324988e00fe551c057157ae91593ee64244ce48e6f1",
      "transactionIndex": "0x5",
      "blockHash": "0x3569dd10b2b0b5b5233e2bddb86af78a23497c5ea485c54d6129a32d0bf92c1c",
      "blockNumber": "0x9bb29af",
      "gasUsed": "0xd462",
      "effectiveGasPrice": "0x7aef40a00",
      "from": "0x6faff29226219756aa40ce648dbc65fb41de5f72",
      "to": "0x95ce14ee82410c4a7296205e0c663969703dc857",
      "contractAddress": null
    },
    {
      "status": "0x1",
      "cumulativeGasUsed": "0x1332e6",
      "logs": [],
      "logsBloom": "0x00000000000000000000000000000000000000000000000000000000000000000000000000000000000000000000000000000000000000000000000000000000000000000000000000000000000000000000000000000000000000000000000000000000000000000000000000000000000000000000000000000000000000000000000000000000000000000000000000000000000000000000000000000000000000000000000000000000000000000000000000000000000000000000000000000000000000000000000000000000000000000000000000000000000000000000000000000000000000000000000000000000000000000000000000000000",
      "type": "0x2",
      "transactionHash": "0x5e5fb3c8633bbe5f32b5dec3707dcebdf13c08e2f51127e28f95ec2622addc6e",
      "transactionIndex": "0x6",
      "blockHash": "0x3569dd10b2b0b5b5233e2bddb86af78a23497c5ea485c54d6129a32d0bf92c1c",
      "blockNumber": "0x9bb29af",
      "gasUsed": "0x41cbd",
      "effectiveGasPrice": "0x7aef40a00",
      "from": "0x6faff29226219756aa40ce648dbc65fb41de5f72",
      "to": null,
      "contractAddress": "0x11cb966dbe6e72936c041f1e6141413d2848eff1"
    },
    {
      "status": "0x1",
      "cumulativeGasUsed": "0x140748",
      "logs": [],
      "logsBloom": "0x00000000000000000000000000000000000000000000000000000000000000000000000000000000000000000000000000000000000000000000000000000000000000000000000000000000000000000000000000000000000000000000000000000000000000000000000000000000000000000000000000000000000000000000000000000000000000000000000000000000000000000000000000000000000000000000000000000000000000000000000000000000000000000000000000000000000000000000000000000000000000000000000000000000000000000000000000000000000000000000000000000000000000000000000000000000",
      "type": "0x2",
      "transactionHash": "0x91a94d458c4b58dd93d5bc1f01baf5f7561582281d4676362bdccc5d810fd02e",
      "transactionIndex": "0x7",
      "blockHash": "0x3569dd10b2b0b5b5233e2bddb86af78a23497c5ea485c54d6129a32d0bf92c1c",
      "blockNumber": "0x9bb29af",
      "gasUsed": "0xd462",
      "effectiveGasPrice": "0x7aef40a00",
      "from": "0x6faff29226219756aa40ce648dbc65fb41de5f72",
      "to": "0x95ce14ee82410c4a7296205e0c663969703dc857",
      "contractAddress": null
    },
    {
      "status": "0x1",
      "cumulativeGasUsed": "0x182405",
      "logs": [],
      "logsBloom": "0x00000000000000000000000000000000000000000000000000000000000000000000000000000000000000000000000000000000000000000000000000000000000000000000000000000000000000000000000000000000000000000000000000000000000000000000000000000000000000000000000000000000000000000000000000000000000000000000000000000000000000000000000000000000000000000000000000000000000000000000000000000000000000000000000000000000000000000000000000000000000000000000000000000000000000000000000000000000000000000000000000000000000000000000000000000000",
      "type": "0x2",
      "transactionHash": "0xd7e9900fbefdbc7f9a6e2976944d863f21213bec2a09ed12b6cc630325943718",
      "transactionIndex": "0x8",
      "blockHash": "0x3569dd10b2b0b5b5233e2bddb86af78a23497c5ea485c54d6129a32d0bf92c1c",
      "blockNumber": "0x9bb29af",
      "gasUsed": "0x41cbd",
      "effectiveGasPrice": "0x7aef40a00",
      "from": "0x6faff29226219756aa40ce648dbc65fb41de5f72",
      "to": null,
      "contractAddress": "0x7442e13c273a1abb99406a20d12abf536eaa3a0c"
    },
    {
      "status": "0x1",
      "cumulativeGasUsed": "0x18f867",
      "logs": [],
      "logsBloom": "0x00000000000000000000000000000000000000000000000000000000000000000000000000000000000000000000000000000000000000000000000000000000000000000000000000000000000000000000000000000000000000000000000000000000000000000000000000000000000000000000000000000000000000000000000000000000000000000000000000000000000000000000000000000000000000000000000000000000000000000000000000000000000000000000000000000000000000000000000000000000000000000000000000000000000000000000000000000000000000000000000000000000000000000000000000000000",
      "type": "0x2",
      "transactionHash": "0x5a846bf0e3e1794dcf881ec8b46fb2b494ecbb5427e915f9369bbb3c947479d8",
      "transactionIndex": "0x9",
      "blockHash": "0x3569dd10b2b0b5b5233e2bddb86af78a23497c5ea485c54d6129a32d0bf92c1c",
      "blockNumber": "0x9bb29af",
      "gasUsed": "0xd462",
      "effectiveGasPrice": "0x7aef40a00",
      "from": "0x6faff29226219756aa40ce648dbc65fb41de5f72",
      "to": "0x95ce14ee82410c4a7296205e0c663969703dc857",
      "contractAddress": null
    },
    {
      "status": "0x1",
      "cumulativeGasUsed": "0x1d1524",
      "logs": [],
      "logsBloom": "0x00000000000000000000000000000000000000000000000000000000000000000000000000000000000000000000000000000000000000000000000000000000000000000000000000000000000000000000000000000000000000000000000000000000000000000000000000000000000000000000000000000000000000000000000000000000000000000000000000000000000000000000000000000000000000000000000000000000000000000000000000000000000000000000000000000000000000000000000000000000000000000000000000000000000000000000000000000000000000000000000000000000000000000000000000000000",
      "type": "0x2",
      "transactionHash": "0x957dfb77373b63d8b39dfb8a5f5ea93e464a8a3dc6246826fe27322bcc3d6eda",
      "transactionIndex": "0xa",
      "blockHash": "0x3569dd10b2b0b5b5233e2bddb86af78a23497c5ea485c54d6129a32d0bf92c1c",
      "blockNumber": "0x9bb29af",
      "gasUsed": "0x41cbd",
      "effectiveGasPrice": "0x7aef40a00",
      "from": "0x6faff29226219756aa40ce648dbc65fb41de5f72",
      "to": null,
      "contractAddress": "0xb52362351b8941a20b9ed6673ec1b012f88444ed"
    },
    {
      "status": "0x1",
      "cumulativeGasUsed": "0x1de986",
      "logs": [],
      "logsBloom": "0x00000000000000000000000000000000000000000000000000000000000000000000000000000000000000000000000000000000000000000000000000000000000000000000000000000000000000000000000000000000000000000000000000000000000000000000000000000000000000000000000000000000000000000000000000000000000000000000000000000000000000000000000000000000000000000000000000000000000000000000000000000000000000000000000000000000000000000000000000000000000000000000000000000000000000000000000000000000000000000000000000000000000000000000000000000000",
      "type": "0x2",
      "transactionHash": "0x3990905f1d0c2e3745592ef1b201a683e02a6b3f3849c1634aec41ce8f3652fc",
      "transactionIndex": "0xb",
      "blockHash": "0x3569dd10b2b0b5b5233e2bddb86af78a23497c5ea485c54d6129a32d0bf92c1c",
      "blockNumber": "0x9bb29af",
      "gasUsed": "0xd462",
      "effectiveGasPrice": "0x7aef40a00",
      "from": "0x6faff29226219756aa40ce648dbc65fb41de5f72",
      "to": "0x95ce14ee82410c4a7296205e0c663969703dc857",
      "contractAddress": null
    },
    {
      "status": "0x1",
      "cumulativeGasUsed": "0x220643",
      "logs": [],
      "logsBloom": "0x00000000000000000000000000000000000000000000000000000000000000000000000000000000000000000000000000000000000000000000000000000000000000000000000000000000000000000000000000000000000000000000000000000000000000000000000000000000000000000000000000000000000000000000000000000000000000000000000000000000000000000000000000000000000000000000000000000000000000000000000000000000000000000000000000000000000000000000000000000000000000000000000000000000000000000000000000000000000000000000000000000000000000000000000000000000",
      "type": "0x2",
      "transactionHash": "0x9d00ea67ab3e2a712d1aa41cfadc3342967bf754ca521547de252758dd0ed287",
      "transactionIndex": "0xc",
      "blockHash": "0x3569dd10b2b0b5b5233e2bddb86af78a23497c5ea485c54d6129a32d0bf92c1c",
      "blockNumber": "0x9bb29af",
      "gasUsed": "0x41cbd",
      "effectiveGasPrice": "0x7aef40a00",
      "from": "0x6faff29226219756aa40ce648dbc65fb41de5f72",
      "to": null,
      "contractAddress": "0xbf72feda0fc2ef5c5aa088363f5b0fccfff72c17"
    },
    {
      "status": "0x1",
      "cumulativeGasUsed": "0x22daa5",
      "logs": [],
      "logsBloom": "0x00000000000000000000000000000000000000000000000000000000000000000000000000000000000000000000000000000000000000000000000000000000000000000000000000000000000000000000000000000000000000000000000000000000000000000000000000000000000000000000000000000000000000000000000000000000000000000000000000000000000000000000000000000000000000000000000000000000000000000000000000000000000000000000000000000000000000000000000000000000000000000000000000000000000000000000000000000000000000000000000000000000000000000000000000000000",
      "type": "0x2",
      "transactionHash": "0x778d6a5a6d00bb426172ad5cd826f37502ec9e29e753425d9115a9630deee7ec",
      "transactionIndex": "0xd",
      "blockHash": "0x3569dd10b2b0b5b5233e2bddb86af78a23497c5ea485c54d6129a32d0bf92c1c",
      "blockNumber": "0x9bb29af",
      "gasUsed": "0xd462",
      "effectiveGasPrice": "0x7aef40a00",
      "from": "0x6faff29226219756aa40ce648dbc65fb41de5f72",
      "to": "0x95ce14ee82410c4a7296205e0c663969703dc857",
      "contractAddress": null
    },
    {
      "status": "0x1",
      "cumulativeGasUsed": "0x26f762",
      "logs": [],
      "logsBloom": "0x00000000000000000000000000000000000000000000000000000000000000000000000000000000000000000000000000000000000000000000000000000000000000000000000000000000000000000000000000000000000000000000000000000000000000000000000000000000000000000000000000000000000000000000000000000000000000000000000000000000000000000000000000000000000000000000000000000000000000000000000000000000000000000000000000000000000000000000000000000000000000000000000000000000000000000000000000000000000000000000000000000000000000000000000000000000",
      "type": "0x2",
      "transactionHash": "0x20af340536d6064abd8fe6969209fb02fe903d37ffd4172c662cf4a160a34e10",
      "transactionIndex": "0xe",
      "blockHash": "0x3569dd10b2b0b5b5233e2bddb86af78a23497c5ea485c54d6129a32d0bf92c1c",
      "blockNumber": "0x9bb29af",
      "gasUsed": "0x41cbd",
      "effectiveGasPrice": "0x7aef40a00",
      "from": "0x6faff29226219756aa40ce648dbc65fb41de5f72",
      "to": null,
      "contractAddress": "0x5a35d6c436782c52982fd1b0324e73c18459b5e7"
    },
    {
      "status": "0x1",
      "cumulativeGasUsed": "0x27cbc4",
      "logs": [],
      "logsBloom": "0x00000000000000000000000000000000000000000000000000000000000000000000000000000000000000000000000000000000000000000000000000000000000000000000000000000000000000000000000000000000000000000000000000000000000000000000000000000000000000000000000000000000000000000000000000000000000000000000000000000000000000000000000000000000000000000000000000000000000000000000000000000000000000000000000000000000000000000000000000000000000000000000000000000000000000000000000000000000000000000000000000000000000000000000000000000000",
      "type": "0x2",
      "transactionHash": "0xd2022796e8770e9b7e757c6043d9db35896b4c415aeae7914e174ad8f4efddf8",
      "transactionIndex": "0xf",
      "blockHash": "0x3569dd10b2b0b5b5233e2bddb86af78a23497c5ea485c54d6129a32d0bf92c1c",
      "blockNumber": "0x9bb29af",
      "gasUsed": "0xd462",
      "effectiveGasPrice": "0x7aef40a00",
      "from": "0x6faff29226219756aa40ce648dbc65fb41de5f72",
      "to": "0x95ce14ee82410c4a7296205e0c663969703dc857",
      "contractAddress": null
    },
    {
      "status": "0x1",
      "cumulativeGasUsed": "0x2be881",
      "logs": [],
      "logsBloom": "0x00000000000000000000000000000000000000000000000000000000000000000000000000000000000000000000000000000000000000000000000000000000000000000000000000000000000000000000000000000000000000000000000000000000000000000000000000000000000000000000000000000000000000000000000000000000000000000000000000000000000000000000000000000000000000000000000000000000000000000000000000000000000000000000000000000000000000000000000000000000000000000000000000000000000000000000000000000000000000000000000000000000000000000000000000000000",
      "type": "0x2",
      "transactionHash": "0x619852cab5706041fc484792a692e141026e338354d2b917c83c914402120116",
      "transactionIndex": "0x10",
      "blockHash": "0x3569dd10b2b0b5b5233e2bddb86af78a23497c5ea485c54d6129a32d0bf92c1c",
      "blockNumber": "0x9bb29af",
      "gasUsed": "0x41cbd",
      "effectiveGasPrice": "0x7aef40a00",
      "from": "0x6faff29226219756aa40ce648dbc65fb41de5f72",
      "to": null,
      "contractAddress": "0xa22e523f4481c531772ed49802c6a1db39c7490f"
    },
    {
      "status": "0x1",
      "cumulativeGasUsed": "0x2cbce3",
      "logs": [],
      "logsBloom": "0x00000000000000000000000000000000000000000000000000000000000000000000000000000000000000000000000000000000000000000000000000000000000000000000000000000000000000000000000000000000000000000000000000000000000000000000000000000000000000000000000000000000000000000000000000000000000000000000000000000000000000000000000000000000000000000000000000000000000000000000000000000000000000000000000000000000000000000000000000000000000000000000000000000000000000000000000000000000000000000000000000000000000000000000000000000000",
      "type": "0x2",
      "transactionHash": "0xc387c6e325525c18be8eac71828dd5a3d964dd11a411ddfb4d4651abe7dade77",
      "transactionIndex": "0x11",
      "blockHash": "0x3569dd10b2b0b5b5233e2bddb86af78a23497c5ea485c54d6129a32d0bf92c1c",
      "blockNumber": "0x9bb29af",
      "gasUsed": "0xd462",
      "effectiveGasPrice": "0x7aef40a00",
      "from": "0x6faff29226219756aa40ce648dbc65fb41de5f72",
      "to": "0x95ce14ee82410c4a7296205e0c663969703dc857",
      "contractAddress": null
    },
    {
      "status": "0x1",
      "cumulativeGasUsed": "0x30d9a0",
      "logs": [],
      "logsBloom": "0x00000000000000000000000000000000000000000000000000000000000000000000000000000000000000000000000000000000000000000000000000000000000000000000000000000000000000000000000000000000000000000000000000000000000000000000000000000000000000000000000000000000000000000000000000000000000000000000000000000000000000000000000000000000000000000000000000000000000000000000000000000000000000000000000000000000000000000000000000000000000000000000000000000000000000000000000000000000000000000000000000000000000000000000000000000000",
      "type": "0x2",
      "transactionHash": "0x6f98b034f095c1591df073878c0c6bbf8a860774a5b9356bea7f0b7d2e633e78",
      "transactionIndex": "0x12",
      "blockHash": "0x3569dd10b2b0b5b5233e2bddb86af78a23497c5ea485c54d6129a32d0bf92c1c",
      "blockNumber": "0x9bb29af",
      "gasUsed": "0x41cbd",
      "effectiveGasPrice": "0x7aef40a00",
      "from": "0x6faff29226219756aa40ce648dbc65fb41de5f72",
      "to": null,
      "contractAddress": "0x759a877d88be8f5049f5b05da222e9172d8a575f"
    },
    {
      "status": "0x1",
      "cumulativeGasUsed": "0x31ae02",
      "logs": [],
      "logsBloom": "0x00000000000000000000000000000000000000000000000000000000000000000000000000000000000000000000000000000000000000000000000000000000000000000000000000000000000000000000000000000000000000000000000000000000000000000000000000000000000000000000000000000000000000000000000000000000000000000000000000000000000000000000000000000000000000000000000000000000000000000000000000000000000000000000000000000000000000000000000000000000000000000000000000000000000000000000000000000000000000000000000000000000000000000000000000000000",
      "type": "0x2",
      "transactionHash": "0xfcbef2e76eea7db962d04ed5554221823938c699d378f9e236e2b574650f678b",
      "transactionIndex": "0x13",
      "blockHash": "0x3569dd10b2b0b5b5233e2bddb86af78a23497c5ea485c54d6129a32d0bf92c1c",
      "blockNumber": "0x9bb29af",
      "gasUsed": "0xd462",
      "effectiveGasPrice": "0x7aef40a00",
      "from": "0x6faff29226219756aa40ce648dbc65fb41de5f72",
      "to": "0x95ce14ee82410c4a7296205e0c663969703dc857",
      "contractAddress": null
    }
  ],
  "libraries": [],
  "pending": [],
  "returns": {},
  "timestamp": 1724842505,
  "chain": 1001,
  "commit": "cd51cc8"
}