{
  "transactions": [
    {
      "hash": "0x167a7b03bff7c8cd16c389ccb4f090b94bd5212b7bdba9726133f669cce0d8c4",
      "transactionType": "CREATE",
      "contractName": "Vault",
      "contractAddress": "0x2a9be34ad42d34eb82cdd2d20876d0ef5d38903e",
      "function": null,
      "arguments": [
        "0x6570796368786c6b677300000000000000000000000000000000000000000000"
      ],
      "transaction": {
        "from": "0x6faff29226219756aa40ce648dbc65fb41de5f72",
        "gas": "0x6732a",
        "value": "0x0",
        "input": "0x60806040525f80546001600160a01b031916737be02decc3dc3be771d851fcf457bd9baa99010a1790553480156033575f80fd5b5060405161028f38038061028f8339810160408190526050916069565b5f805460ff60a01b1916600160a01b179055600155607f565b5f602082840312156078575f80fd5b5051919050565b6102038061008c5f395ff3fe608060405234801561000f575f80fd5b506004361061003f575f3560e01c8063701385a014610043578063cf3090121461004d578063ec9b5b3a14610074575b5f80fd5b61004b610087565b005b5f5461006090600160a01b900460ff1681565b604051901515815260200160405180910390f35b61004b6100823660046101c8565b610197565b5f54600160a01b900460ff1615156001036100b557604051635adc30c160e11b815260040160405180910390fd5b5f8054604051632f745c5960e01b8152306004820181905260248201939093526001600160a01b03909116916323b872dd9133908490632f745c5990604401602060405180830381865afa15801561010f573d5f803e3d5ffd5b505050506040513d601f19601f8201168201806040525081019061013391906101df565b6040516001600160e01b031960e086901b1681526001600160a01b03938416600482015292909116602483015260448201526064015f604051808303815f87803b15801561017f575f80fd5b505af1158015610191573d5f803e3d5ffd5b50505050565b80600154036101af575f805460ff60a01b1916905550565b604051635ee88f9760e01b815260040160405180910390fd5b5f602082840312156101d8575f80fd5b5035919050565b5f602082840312156101ef575f80fd5b505191905056fea164736f6c6343000819000a6570796368786c6b677300000000000000000000000000000000000000000000",
        "nonce": "0x25e",
        "chainId": "0x3e9"
      },
      "additionalContracts": [],
      "isFixedGasLimit": false
    },
    {
      "hash": "0x6c1c85cb4a418cf4f595bb65d06c31b466a2507896fc737c001a3158e485f4e6",
      "transactionType": "CALL",
      "contractName": null,
      "contractAddress": "0x95ce14ee82410c4a7296205e0c663969703dc857",
      "function": "addGemCastle(address)",
      "arguments": [
        "0x2a9bE34aD42D34Eb82CDd2d20876d0Ef5d38903E"
      ],
      "transaction": {
        "from": "0x6faff29226219756aa40ce648dbc65fb41de5f72",
        "to": "0x95ce14ee82410c4a7296205e0c663969703dc857",
        "gas": "0x1c204",
        "value": "0x0",
        "input": "0x5862c8940000000000000000000000002a9be34ad42d34eb82cdd2d20876d0ef5d38903e",
        "nonce": "0x25f",
        "chainId": "0x3e9"
      },
      "additionalContracts": [],
      "isFixedGasLimit": false
    },
    {
      "hash": "0xeb36dfa6e7202ea88e9f50fc25f7cfe220706854c98da08d3c9990e9a7082bb6",
      "transactionType": "CREATE",
      "contractName": "Vault",
      "contractAddress": "0xdbec1eac4eac661dd410c2d772654d34099d7571",
      "function": null,
      "arguments": [
        "0x6570796368786c6b677300000000000000000000000000000000000000000000"
      ],
      "transaction": {
        "from": "0x6faff29226219756aa40ce648dbc65fb41de5f72",
        "gas": "0x6732a",
        "value": "0x0",
        "input": "0x60806040525f80546001600160a01b031916737be02decc3dc3be771d851fcf457bd9baa99010a1790553480156033575f80fd5b5060405161028f38038061028f8339810160408190526050916069565b5f805460ff60a01b1916600160a01b179055600155607f565b5f602082840312156078575f80fd5b5051919050565b6102038061008c5f395ff3fe608060405234801561000f575f80fd5b506004361061003f575f3560e01c8063701385a014610043578063cf3090121461004d578063ec9b5b3a14610074575b5f80fd5b61004b610087565b005b5f5461006090600160a01b900460ff1681565b604051901515815260200160405180910390f35b61004b6100823660046101c8565b610197565b5f54600160a01b900460ff1615156001036100b557604051635adc30c160e11b815260040160405180910390fd5b5f8054604051632f745c5960e01b8152306004820181905260248201939093526001600160a01b03909116916323b872dd9133908490632f745c5990604401602060405180830381865afa15801561010f573d5f803e3d5ffd5b505050506040513d601f19601f8201168201806040525081019061013391906101df565b6040516001600160e01b031960e086901b1681526001600160a01b03938416600482015292909116602483015260448201526064015f604051808303815f87803b15801561017f575f80fd5b505af1158015610191573d5f803e3d5ffd5b50505050565b80600154036101af575f805460ff60a01b1916905550565b604051635ee88f9760e01b815260040160405180910390fd5b5f602082840312156101d8575f80fd5b5035919050565b5f602082840312156101ef575f80fd5b505191905056fea164736f6c6343000819000a6570796368786c6b677300000000000000000000000000000000000000000000",
        "nonce": "0x260",
        "chainId": "0x3e9"
      },
      "additionalContracts": [],
      "isFixedGasLimit": false
    },
    {
      "hash": "0xcc09c11f72853e68f03bd01b391fd7d11ffd378a736ee3ebd101acd0bb6fe288",
      "transactionType": "CALL",
      "contractName": null,
      "contractAddress": "0x95ce14ee82410c4a7296205e0c663969703dc857",
      "function": "addGemCastle(address)",
      "arguments": [
        "0xDbEC1EaC4eac661DD410c2D772654D34099d7571"
      ],
      "transaction": {
        "from": "0x6faff29226219756aa40ce648dbc65fb41de5f72",
        "to": "0x95ce14ee82410c4a7296205e0c663969703dc857",
        "gas": "0x1c204",
        "value": "0x0",
        "input": "0x5862c894000000000000000000000000dbec1eac4eac661dd410c2d772654d34099d7571",
        "nonce": "0x261",
        "chainId": "0x3e9"
      },
      "additionalContracts": [],
      "isFixedGasLimit": false
    },
    {
      "hash": "0xec5f02eee4d717f80cf014d7cafdf6408087518a7918c73d6c0c22484bdb6523",
      "transactionType": "CREATE",
      "contractName": "Vault",
      "contractAddress": "0xaf4bae9969997268b9e4222777ed0aacbc1b4bca",
      "function": null,
      "arguments": [
        "0x6570796368786c6b677300000000000000000000000000000000000000000000"
      ],
      "transaction": {
        "from": "0x6faff29226219756aa40ce648dbc65fb41de5f72",
        "gas": "0x6732a",
        "value": "0x0",
        "input": "0x60806040525f80546001600160a01b031916737be02decc3dc3be771d851fcf457bd9baa99010a1790553480156033575f80fd5b5060405161028f38038061028f8339810160408190526050916069565b5f805460ff60a01b1916600160a01b179055600155607f565b5f602082840312156078575f80fd5b5051919050565b6102038061008c5f395ff3fe608060405234801561000f575f80fd5b506004361061003f575f3560e01c8063701385a014610043578063cf3090121461004d578063ec9b5b3a14610074575b5f80fd5b61004b610087565b005b5f5461006090600160a01b900460ff1681565b604051901515815260200160405180910390f35b61004b6100823660046101c8565b610197565b5f54600160a01b900460ff1615156001036100b557604051635adc30c160e11b815260040160405180910390fd5b5f8054604051632f745c5960e01b8152306004820181905260248201939093526001600160a01b03909116916323b872dd9133908490632f745c5990604401602060405180830381865afa15801561010f573d5f803e3d5ffd5b505050506040513d601f19601f8201168201806040525081019061013391906101df565b6040516001600160e01b031960e086901b1681526001600160a01b03938416600482015292909116602483015260448201526064015f604051808303815f87803b15801561017f575f80fd5b505af1158015610191573d5f803e3d5ffd5b50505050565b80600154036101af575f805460ff60a01b1916905550565b604051635ee88f9760e01b815260040160405180910390fd5b5f602082840312156101d8575f80fd5b5035919050565b5f602082840312156101ef575f80fd5b505191905056fea164736f6c6343000819000a6570796368786c6b677300000000000000000000000000000000000000000000",
        "nonce": "0x262",
        "chainId": "0x3e9"
      },
      "additionalContracts": [],
      "isFixedGasLimit": false
    },
    {
      "hash": "0x119224740dd0c9b347b7da21f3df1cfe258767198d12af3770d9659912d981d0",
      "transactionType": "CALL",
      "contractName": null,
      "contractAddress": "0x95ce14ee82410c4a7296205e0c663969703dc857",
      "function": "addGemCastle(address)",
      "arguments": [
        "0xAf4BAE9969997268b9e4222777eD0AaCBC1b4bcA"
      ],
      "transaction": {
        "from": "0x6faff29226219756aa40ce648dbc65fb41de5f72",
        "to": "0x95ce14ee82410c4a7296205e0c663969703dc857",
        "gas": "0x1c204",
        "value": "0x0",
        "input": "0x5862c894000000000000000000000000af4bae9969997268b9e4222777ed0aacbc1b4bca",
        "nonce": "0x263",
        "chainId": "0x3e9"
      },
      "additionalContracts": [],
      "isFixedGasLimit": false
    },
    {
      "hash": "0xd278f2df1d4095976aaa1dbcd2d9f7a399fb90169244e269821cb3298cb388ca",
      "transactionType": "CREATE",
      "contractName": "Vault",
      "contractAddress": "0x98884a6c748db1144e84eb08585ab82064d95675",
      "function": null,
      "arguments": [
        "0x6570796368786c6b677300000000000000000000000000000000000000000000"
      ],
      "transaction": {
        "from": "0x6faff29226219756aa40ce648dbc65fb41de5f72",
        "gas": "0x6732a",
        "value": "0x0",
        "input": "0x60806040525f80546001600160a01b031916737be02decc3dc3be771d851fcf457bd9baa99010a1790553480156033575f80fd5b5060405161028f38038061028f8339810160408190526050916069565b5f805460ff60a01b1916600160a01b179055600155607f565b5f602082840312156078575f80fd5b5051919050565b6102038061008c5f395ff3fe608060405234801561000f575f80fd5b506004361061003f575f3560e01c8063701385a014610043578063cf3090121461004d578063ec9b5b3a14610074575b5f80fd5b61004b610087565b005b5f5461006090600160a01b900460ff1681565b604051901515815260200160405180910390f35b61004b6100823660046101c8565b610197565b5f54600160a01b900460ff1615156001036100b557604051635adc30c160e11b815260040160405180910390fd5b5f8054604051632f745c5960e01b8152306004820181905260248201939093526001600160a01b03909116916323b872dd9133908490632f745c5990604401602060405180830381865afa15801561010f573d5f803e3d5ffd5b505050506040513d601f19601f8201168201806040525081019061013391906101df565b6040516001600160e01b031960e086901b1681526001600160a01b03938416600482015292909116602483015260448201526064015f604051808303815f87803b15801561017f575f80fd5b505af1158015610191573d5f803e3d5ffd5b50505050565b80600154036101af575f805460ff60a01b1916905550565b604051635ee88f9760e01b815260040160405180910390fd5b5f602082840312156101d8575f80fd5b5035919050565b5f602082840312156101ef575f80fd5b505191905056fea164736f6c6343000819000a6570796368786c6b677300000000000000000000000000000000000000000000",
        "nonce": "0x264",
        "chainId": "0x3e9"
      },
      "additionalContracts": [],
      "isFixedGasLimit": false
    },
    {
      "hash": "0x4bc82807cf188648254f8a2b4680ac239534027141338c23f825e8c62f31dc63",
      "transactionType": "CALL",
      "contractName": null,
      "contractAddress": "0x95ce14ee82410c4a7296205e0c663969703dc857",
      "function": "addGemCastle(address)",
      "arguments": [
        "0x98884a6C748dB1144e84Eb08585AB82064d95675"
      ],
      "transaction": {
        "from": "0x6faff29226219756aa40ce648dbc65fb41de5f72",
        "to": "0x95ce14ee82410c4a7296205e0c663969703dc857",
        "gas": "0x1c204",
        "value": "0x0",
        "input": "0x5862c89400000000000000000000000098884a6c748db1144e84eb08585ab82064d95675",
        "nonce": "0x265",
        "chainId": "0x3e9"
      },
      "additionalContracts": [],
      "isFixedGasLimit": false
    },
    {
      "hash": "0x5f0d67a30810f6eec2c291b409783157ae76aa6f39117da802979fcfcdab8e4a",
      "transactionType": "CREATE",
      "contractName": "Vault",
      "contractAddress": "0x27b9525f5a5b245cef7224ad82cd51426f6b7e38",
      "function": null,
      "arguments": [
        "0x6570796368786c6b677300000000000000000000000000000000000000000000"
      ],
      "transaction": {
        "from": "0x6faff29226219756aa40ce648dbc65fb41de5f72",
        "gas": "0x6732a",
        "value": "0x0",
        "input": "0x60806040525f80546001600160a01b031916737be02decc3dc3be771d851fcf457bd9baa99010a1790553480156033575f80fd5b5060405161028f38038061028f8339810160408190526050916069565b5f805460ff60a01b1916600160a01b179055600155607f565b5f602082840312156078575f80fd5b5051919050565b6102038061008c5f395ff3fe608060405234801561000f575f80fd5b506004361061003f575f3560e01c8063701385a014610043578063cf3090121461004d578063ec9b5b3a14610074575b5f80fd5b61004b610087565b005b5f5461006090600160a01b900460ff1681565b604051901515815260200160405180910390f35b61004b6100823660046101c8565b610197565b5f54600160a01b900460ff1615156001036100b557604051635adc30c160e11b815260040160405180910390fd5b5f8054604051632f745c5960e01b8152306004820181905260248201939093526001600160a01b03909116916323b872dd9133908490632f745c5990604401602060405180830381865afa15801561010f573d5f803e3d5ffd5b505050506040513d601f19601f8201168201806040525081019061013391906101df565b6040516001600160e01b031960e086901b1681526001600160a01b03938416600482015292909116602483015260448201526064015f604051808303815f87803b15801561017f575f80fd5b505af1158015610191573d5f803e3d5ffd5b50505050565b80600154036101af575f805460ff60a01b1916905550565b604051635ee88f9760e01b815260040160405180910390fd5b5f602082840312156101d8575f80fd5b5035919050565b5f602082840312156101ef575f80fd5b505191905056fea164736f6c6343000819000a6570796368786c6b677300000000000000000000000000000000000000000000",
        "nonce": "0x266",
        "chainId": "0x3e9"
      },
      "additionalContracts": [],
      "isFixedGasLimit": false
    },
    {
      "hash": "0x704d30b73dcd51051cb5affb7e23050a63238e95398d623849d754d1818906c8",
      "transactionType": "CALL",
      "contractName": null,
      "contractAddress": "0x95ce14ee82410c4a7296205e0c663969703dc857",
      "function": "addGemCastle(address)",
      "arguments": [
        "0x27B9525f5A5B245CeF7224ad82cD51426f6b7e38"
      ],
      "transaction": {
        "from": "0x6faff29226219756aa40ce648dbc65fb41de5f72",
        "to": "0x95ce14ee82410c4a7296205e0c663969703dc857",
        "gas": "0x1c204",
        "value": "0x0",
        "input": "0x5862c89400000000000000000000000027b9525f5a5b245cef7224ad82cd51426f6b7e38",
        "nonce": "0x267",
        "chainId": "0x3e9"
      },
      "additionalContracts": [],
      "isFixedGasLimit": false
    },
    {
      "hash": "0xa537155904db06c8e56a92d6a94b20bfb263310e41d7837d363483da96d6e957",
      "transactionType": "CREATE",
      "contractName": "Vault",
      "contractAddress": "0xe4eea2018742810b9f844a03f873d8bb57192ee4",
      "function": null,
      "arguments": [
        "0x6570796368786c6b677300000000000000000000000000000000000000000000"
      ],
      "transaction": {
        "from": "0x6faff29226219756aa40ce648dbc65fb41de5f72",
        "gas": "0x6732a",
        "value": "0x0",
        "input": "0x60806040525f80546001600160a01b031916737be02decc3dc3be771d851fcf457bd9baa99010a1790553480156033575f80fd5b5060405161028f38038061028f8339810160408190526050916069565b5f805460ff60a01b1916600160a01b179055600155607f565b5f602082840312156078575f80fd5b5051919050565b6102038061008c5f395ff3fe608060405234801561000f575f80fd5b506004361061003f575f3560e01c8063701385a014610043578063cf3090121461004d578063ec9b5b3a14610074575b5f80fd5b61004b610087565b005b5f5461006090600160a01b900460ff1681565b604051901515815260200160405180910390f35b61004b6100823660046101c8565b610197565b5f54600160a01b900460ff1615156001036100b557604051635adc30c160e11b815260040160405180910390fd5b5f8054604051632f745c5960e01b8152306004820181905260248201939093526001600160a01b03909116916323b872dd9133908490632f745c5990604401602060405180830381865afa15801561010f573d5f803e3d5ffd5b505050506040513d601f19601f8201168201806040525081019061013391906101df565b6040516001600160e01b031960e086901b1681526001600160a01b03938416600482015292909116602483015260448201526064015f604051808303815f87803b15801561017f575f80fd5b505af1158015610191573d5f803e3d5ffd5b50505050565b80600154036101af575f805460ff60a01b1916905550565b604051635ee88f9760e01b815260040160405180910390fd5b5f602082840312156101d8575f80fd5b5035919050565b5f602082840312156101ef575f80fd5b505191905056fea164736f6c6343000819000a6570796368786c6b677300000000000000000000000000000000000000000000",
        "nonce": "0x268",
        "chainId": "0x3e9"
      },
      "additionalContracts": [],
      "isFixedGasLimit": false
    },
    {
      "hash": "0x54d2d269e5ccbc3dcfe4d04abc29122f7acf76fd9335294081bea4341d027c9f",
      "transactionType": "CALL",
      "contractName": null,
      "contractAddress": "0x95ce14ee82410c4a7296205e0c663969703dc857",
      "function": "addGemCastle(address)",
      "arguments": [
        "0xe4eEa2018742810b9F844a03f873D8bb57192Ee4"
      ],
      "transaction": {
        "from": "0x6faff29226219756aa40ce648dbc65fb41de5f72",
        "to": "0x95ce14ee82410c4a7296205e0c663969703dc857",
        "gas": "0x1c204",
        "value": "0x0",
        "input": "0x5862c894000000000000000000000000e4eea2018742810b9f844a03f873d8bb57192ee4",
        "nonce": "0x269",
        "chainId": "0x3e9"
      },
      "additionalContracts": [],
      "isFixedGasLimit": false
    },
    {
      "hash": "0x224c8f90e6fe1c03491386ad40541d3ca55974ef3383397a326ac2f0d37443dd",
      "transactionType": "CREATE",
      "contractName": "Vault",
      "contractAddress": "0x2d3a9a5dd2cb73cc6d284db61382ff3b2741c205",
      "function": null,
      "arguments": [
        "0x6570796368786c6b677300000000000000000000000000000000000000000000"
      ],
      "transaction": {
        "from": "0x6faff29226219756aa40ce648dbc65fb41de5f72",
        "gas": "0x6732a",
        "value": "0x0",
        "input": "0x60806040525f80546001600160a01b031916737be02decc3dc3be771d851fcf457bd9baa99010a1790553480156033575f80fd5b5060405161028f38038061028f8339810160408190526050916069565b5f805460ff60a01b1916600160a01b179055600155607f565b5f602082840312156078575f80fd5b5051919050565b6102038061008c5f395ff3fe608060405234801561000f575f80fd5b506004361061003f575f3560e01c8063701385a014610043578063cf3090121461004d578063ec9b5b3a14610074575b5f80fd5b61004b610087565b005b5f5461006090600160a01b900460ff1681565b604051901515815260200160405180910390f35b61004b6100823660046101c8565b610197565b5f54600160a01b900460ff1615156001036100b557604051635adc30c160e11b815260040160405180910390fd5b5f8054604051632f745c5960e01b8152306004820181905260248201939093526001600160a01b03909116916323b872dd9133908490632f745c5990604401602060405180830381865afa15801561010f573d5f803e3d5ffd5b505050506040513d601f19601f8201168201806040525081019061013391906101df565b6040516001600160e01b031960e086901b1681526001600160a01b03938416600482015292909116602483015260448201526064015f604051808303815f87803b15801561017f575f80fd5b505af1158015610191573d5f803e3d5ffd5b50505050565b80600154036101af575f805460ff60a01b1916905550565b604051635ee88f9760e01b815260040160405180910390fd5b5f602082840312156101d8575f80fd5b5035919050565b5f602082840312156101ef575f80fd5b505191905056fea164736f6c6343000819000a6570796368786c6b677300000000000000000000000000000000000000000000",
        "nonce": "0x26a",
        "chainId": "0x3e9"
      },
      "additionalContracts": [],
      "isFixedGasLimit": false
    },
    {
      "hash": "0xef2dd07df85d2abc08caf5a56c789c2174cf8e32d27e71e4c4dcdf4bc14413d2",
      "transactionType": "CALL",
      "contractName": null,
      "contractAddress": "0x95ce14ee82410c4a7296205e0c663969703dc857",
      "function": "addGemCastle(address)",
      "arguments": [
        "0x2d3A9A5Dd2cB73Cc6D284Db61382fF3B2741c205"
      ],
      "transaction": {
        "from": "0x6faff29226219756aa40ce648dbc65fb41de5f72",
        "to": "0x95ce14ee82410c4a7296205e0c663969703dc857",
        "gas": "0x1c204",
        "value": "0x0",
        "input": "0x5862c8940000000000000000000000002d3a9a5dd2cb73cc6d284db61382ff3b2741c205",
        "nonce": "0x26b",
        "chainId": "0x3e9"
      },
      "additionalContracts": [],
      "isFixedGasLimit": false
    },
    {
      "hash": "0xaa80d1098ce95e2341af381bafd4311d5db0feb13695f01f776683036d86c17e",
      "transactionType": "CREATE",
      "contractName": "Vault",
      "contractAddress": "0xa90d7d5d8a6418cf16104e3f370aa0eb58fdda83",
      "function": null,
      "arguments": [
        "0x6570796368786c6b677300000000000000000000000000000000000000000000"
      ],
      "transaction": {
        "from": "0x6faff29226219756aa40ce648dbc65fb41de5f72",
        "gas": "0x6732a",
        "value": "0x0",
        "input": "0x60806040525f80546001600160a01b031916737be02decc3dc3be771d851fcf457bd9baa99010a1790553480156033575f80fd5b5060405161028f38038061028f8339810160408190526050916069565b5f805460ff60a01b1916600160a01b179055600155607f565b5f602082840312156078575f80fd5b5051919050565b6102038061008c5f395ff3fe608060405234801561000f575f80fd5b506004361061003f575f3560e01c8063701385a014610043578063cf3090121461004d578063ec9b5b3a14610074575b5f80fd5b61004b610087565b005b5f5461006090600160a01b900460ff1681565b604051901515815260200160405180910390f35b61004b6100823660046101c8565b610197565b5f54600160a01b900460ff1615156001036100b557604051635adc30c160e11b815260040160405180910390fd5b5f8054604051632f745c5960e01b8152306004820181905260248201939093526001600160a01b03909116916323b872dd9133908490632f745c5990604401602060405180830381865afa15801561010f573d5f803e3d5ffd5b505050506040513d601f19601f8201168201806040525081019061013391906101df565b6040516001600160e01b031960e086901b1681526001600160a01b03938416600482015292909116602483015260448201526064015f604051808303815f87803b15801561017f575f80fd5b505af1158015610191573d5f803e3d5ffd5b50505050565b80600154036101af575f805460ff60a01b1916905550565b604051635ee88f9760e01b815260040160405180910390fd5b5f602082840312156101d8575f80fd5b5035919050565b5f602082840312156101ef575f80fd5b505191905056fea164736f6c6343000819000a6570796368786c6b677300000000000000000000000000000000000000000000",
        "nonce": "0x26c",
        "chainId": "0x3e9"
      },
      "additionalContracts": [],
      "isFixedGasLimit": false
    },
    {
      "hash": "0xc2be860d46cdb0a892a309efbf2814ce7f70a54562dd65238fe2f91ea40b6f19",
      "transactionType": "CALL",
      "contractName": null,
      "contractAddress": "0x95ce14ee82410c4a7296205e0c663969703dc857",
      "function": "addGemCastle(address)",
      "arguments": [
        "0xa90d7d5D8A6418CF16104E3f370aA0eB58fDDA83"
      ],
      "transaction": {
        "from": "0x6faff29226219756aa40ce648dbc65fb41de5f72",
        "to": "0x95ce14ee82410c4a7296205e0c663969703dc857",
        "gas": "0x1c204",
        "value": "0x0",
        "input": "0x5862c894000000000000000000000000a90d7d5d8a6418cf16104e3f370aa0eb58fdda83",
        "nonce": "0x26d",
        "chainId": "0x3e9"
      },
      "additionalContracts": [],
      "isFixedGasLimit": false
    },
    {
      "hash": "0xfdf519f5f1900959148d246cd85465aa772d89c4ed6ac1d6c7def5b17d9f724e",
      "transactionType": "CREATE",
      "contractName": "Vault",
      "contractAddress": "0x5af7afe11d6d03ca5c97db5ff086da70a7aa693e",
      "function": null,
      "arguments": [
        "0x6570796368786c6b677300000000000000000000000000000000000000000000"
      ],
      "transaction": {
        "from": "0x6faff29226219756aa40ce648dbc65fb41de5f72",
        "gas": "0x6732a",
        "value": "0x0",
        "input": "0x60806040525f80546001600160a01b031916737be02decc3dc3be771d851fcf457bd9baa99010a1790553480156033575f80fd5b5060405161028f38038061028f8339810160408190526050916069565b5f805460ff60a01b1916600160a01b179055600155607f565b5f602082840312156078575f80fd5b5051919050565b6102038061008c5f395ff3fe608060405234801561000f575f80fd5b506004361061003f575f3560e01c8063701385a014610043578063cf3090121461004d578063ec9b5b3a14610074575b5f80fd5b61004b610087565b005b5f5461006090600160a01b900460ff1681565b604051901515815260200160405180910390f35b61004b6100823660046101c8565b610197565b5f54600160a01b900460ff1615156001036100b557604051635adc30c160e11b815260040160405180910390fd5b5f8054604051632f745c5960e01b8152306004820181905260248201939093526001600160a01b03909116916323b872dd9133908490632f745c5990604401602060405180830381865afa15801561010f573d5f803e3d5ffd5b505050506040513d601f19601f8201168201806040525081019061013391906101df565b6040516001600160e01b031960e086901b1681526001600160a01b03938416600482015292909116602483015260448201526064015f604051808303815f87803b15801561017f575f80fd5b505af1158015610191573d5f803e3d5ffd5b50505050565b80600154036101af575f805460ff60a01b1916905550565b604051635ee88f9760e01b815260040160405180910390fd5b5f602082840312156101d8575f80fd5b5035919050565b5f602082840312156101ef575f80fd5b505191905056fea164736f6c6343000819000a6570796368786c6b677300000000000000000000000000000000000000000000",
        "nonce": "0x26e",
        "chainId": "0x3e9"
      },
      "additionalContracts": [],
      "isFixedGasLimit": false
    },
    {
      "hash": "0xc984fc917453540e44907211e7c08e55ef6cfecd35f687665e3453610ae7586d",
      "transactionType": "CALL",
      "contractName": null,
      "contractAddress": "0x95ce14ee82410c4a7296205e0c663969703dc857",
      "function": "addGemCastle(address)",
      "arguments": [
        "0x5AF7afE11D6d03Ca5c97DB5ff086da70A7aA693e"
      ],
      "transaction": {
        "from": "0x6faff29226219756aa40ce648dbc65fb41de5f72",
        "to": "0x95ce14ee82410c4a7296205e0c663969703dc857",
        "gas": "0x1c204",
        "value": "0x0",
        "input": "0x5862c8940000000000000000000000005af7afe11d6d03ca5c97db5ff086da70a7aa693e",
        "nonce": "0x26f",
        "chainId": "0x3e9"
      },
      "additionalContracts": [],
      "isFixedGasLimit": false
    },
    {
      "hash": "0x724730b4369e67bc462e378ed9a098fc9ef86cfd8c059971c6722cd2e0e52600",
      "transactionType": "CREATE",
      "contractName": "Vault",
      "contractAddress": "0x3ab5640430ba918e2b158f015416c092192f0fe6",
      "function": null,
      "arguments": [
        "0x6570796368786c6b677300000000000000000000000000000000000000000000"
      ],
      "transaction": {
        "from": "0x6faff29226219756aa40ce648dbc65fb41de5f72",
        "gas": "0x6732a",
        "value": "0x0",
        "input": "0x60806040525f80546001600160a01b031916737be02decc3dc3be771d851fcf457bd9baa99010a1790553480156033575f80fd5b5060405161028f38038061028f8339810160408190526050916069565b5f805460ff60a01b1916600160a01b179055600155607f565b5f602082840312156078575f80fd5b5051919050565b6102038061008c5f395ff3fe608060405234801561000f575f80fd5b506004361061003f575f3560e01c8063701385a014610043578063cf3090121461004d578063ec9b5b3a14610074575b5f80fd5b61004b610087565b005b5f5461006090600160a01b900460ff1681565b604051901515815260200160405180910390f35b61004b6100823660046101c8565b610197565b5f54600160a01b900460ff1615156001036100b557604051635adc30c160e11b815260040160405180910390fd5b5f8054604051632f745c5960e01b8152306004820181905260248201939093526001600160a01b03909116916323b872dd9133908490632f745c5990604401602060405180830381865afa15801561010f573d5f803e3d5ffd5b505050506040513d601f19601f8201168201806040525081019061013391906101df565b6040516001600160e01b031960e086901b1681526001600160a01b03938416600482015292909116602483015260448201526064015f604051808303815f87803b15801561017f575f80fd5b505af1158015610191573d5f803e3d5ffd5b50505050565b80600154036101af575f805460ff60a01b1916905550565b604051635ee88f9760e01b815260040160405180910390fd5b5f602082840312156101d8575f80fd5b5035919050565b5f602082840312156101ef575f80fd5b505191905056fea164736f6c6343000819000a6570796368786c6b677300000000000000000000000000000000000000000000",
        "nonce": "0x270",
        "chainId": "0x3e9"
      },
      "additionalContracts": [],
      "isFixedGasLimit": false
    },
    {
      "hash": "0x6148cc5894cf120903bb1fccd5f5eb05e81ddf6b6eef991c5c54a65b6c6346cd",
      "transactionType": "CALL",
      "contractName": null,
      "contractAddress": "0x95ce14ee82410c4a7296205e0c663969703dc857",
      "function": "addGemCastle(address)",
      "arguments": [
        "0x3aB5640430Ba918e2B158F015416c092192F0FE6"
      ],
      "transaction": {
        "from": "0x6faff29226219756aa40ce648dbc65fb41de5f72",
        "to": "0x95ce14ee82410c4a7296205e0c663969703dc857",
        "gas": "0x1c204",
        "value": "0x0",
        "input": "0x5862c8940000000000000000000000003ab5640430ba918e2b158f015416c092192f0fe6",
        "nonce": "0x271",
        "chainId": "0x3e9"
      },
      "additionalContracts": [],
      "isFixedGasLimit": false
    }
  ],
  "receipts": [
    {
      "status": "0x1",
      "cumulativeGasUsed": "0x41cbd",
      "logs": [],
      "logsBloom": "0x00000000000000000000000000000000000000000000000000000000000000000000000000000000000000000000000000000000000000000000000000000000000000000000000000000000000000000000000000000000000000000000000000000000000000000000000000000000000000000000000000000000000000000000000000000000000000000000000000000000000000000000000000000000000000000000000000000000000000000000000000000000000000000000000000000000000000000000000000000000000000000000000000000000000000000000000000000000000000000000000000000000000000000000000000000000",
      "type": "0x2",
      "transactionHash": "0x167a7b03bff7c8cd16c389ccb4f090b94bd5212b7bdba9726133f669cce0d8c4",
      "transactionIndex": "0x0",
      "blockHash": "0x7fc33ee8aa1f3a41d55c4f6ade85cf48ae30e0defaa4800b6d35036615614c4f",
      "blockNumber": "0x9bb2a6c",
      "gasUsed": "0x41cbd",
      "effectiveGasPrice": "0x70b0a5e80",
      "from": "0x6faff29226219756aa40ce648dbc65fb41de5f72",
      "to": null,
      "contractAddress": "0x2a9be34ad42d34eb82cdd2d20876d0ef5d38903e"
    },
    {
      "status": "0x1",
      "cumulativeGasUsed": "0x4f11f",
      "logs": [],
      "logsBloom": "0x00000000000000000000000000000000000000000000000000000000000000000000000000000000000000000000000000000000000000000000000000000000000000000000000000000000000000000000000000000000000000000000000000000000000000000000000000000000000000000000000000000000000000000000000000000000000000000000000000000000000000000000000000000000000000000000000000000000000000000000000000000000000000000000000000000000000000000000000000000000000000000000000000000000000000000000000000000000000000000000000000000000000000000000000000000000",
      "type": "0x2",
      "transactionHash": "0x6c1c85cb4a418cf4f595bb65d06c31b466a2507896fc737c001a3158e485f4e6",
      "transactionIndex": "0x1",
      "blockHash": "0x7fc33ee8aa1f3a41d55c4f6ade85cf48ae30e0defaa4800b6d35036615614c4f",
      "blockNumber": "0x9bb2a6c",
      "gasUsed": "0xd462",
      "effectiveGasPrice": "0x70b0a5e80",
      "from": "0x6faff29226219756aa40ce648dbc65fb41de5f72",
      "to": "0x95ce14ee82410c4a7296205e0c663969703dc857",
      "contractAddress": null
    },
    {
      "status": "0x1",
      "cumulativeGasUsed": "0x90ddc",
      "logs": [],
      "logsBloom": "0x00000000000000000000000000000000000000000000000000000000000000000000000000000000000000000000000000000000000000000000000000000000000000000000000000000000000000000000000000000000000000000000000000000000000000000000000000000000000000000000000000000000000000000000000000000000000000000000000000000000000000000000000000000000000000000000000000000000000000000000000000000000000000000000000000000000000000000000000000000000000000000000000000000000000000000000000000000000000000000000000000000000000000000000000000000000",
      "type": "0x2",
      "transactionHash": "0xeb36dfa6e7202ea88e9f50fc25f7cfe220706854c98da08d3c9990e9a7082bb6",
      "transactionIndex": "0x2",
      "blockHash": "0x7fc33ee8aa1f3a41d55c4f6ade85cf48ae30e0defaa4800b6d35036615614c4f",
      "blockNumber": "0x9bb2a6c",
      "gasUsed": "0x41cbd",
      "effectiveGasPrice": "0x70b0a5e80",
      "from": "0x6faff29226219756aa40ce648dbc65fb41de5f72",
      "to": null,
      "contractAddress": "0xdbec1eac4eac661dd410c2d772654d34099d7571"
    },
    {
      "status": "0x1",
      "cumulativeGasUsed": "0x9e23e",
      "logs": [],
      "logsBloom": "0x00000000000000000000000000000000000000000000000000000000000000000000000000000000000000000000000000000000000000000000000000000000000000000000000000000000000000000000000000000000000000000000000000000000000000000000000000000000000000000000000000000000000000000000000000000000000000000000000000000000000000000000000000000000000000000000000000000000000000000000000000000000000000000000000000000000000000000000000000000000000000000000000000000000000000000000000000000000000000000000000000000000000000000000000000000000",
      "type": "0x2",
      "transactionHash": "0xcc09c11f72853e68f03bd01b391fd7d11ffd378a736ee3ebd101acd0bb6fe288",
      "transactionIndex": "0x3",
      "blockHash": "0x7fc33ee8aa1f3a41d55c4f6ade85cf48ae30e0defaa4800b6d35036615614c4f",
      "blockNumber": "0x9bb2a6c",
      "gasUsed": "0xd462",
      "effectiveGasPrice": "0x70b0a5e80",
      "from": "0x6faff29226219756aa40ce648dbc65fb41de5f72",
      "to": "0x95ce14ee82410c4a7296205e0c663969703dc857",
      "contractAddress": null
    },
    {
      "status": "0x1",
      "cumulativeGasUsed": "0xdfefb",
      "logs": [],
      "logsBloom": "0x00000000000000000000000000000000000000000000000000000000000000000000000000000000000000000000000000000000000000000000000000000000000000000000000000000000000000000000000000000000000000000000000000000000000000000000000000000000000000000000000000000000000000000000000000000000000000000000000000000000000000000000000000000000000000000000000000000000000000000000000000000000000000000000000000000000000000000000000000000000000000000000000000000000000000000000000000000000000000000000000000000000000000000000000000000000",
      "type": "0x2",
      "transactionHash": "0xec5f02eee4d717f80cf014d7cafdf6408087518a7918c73d6c0c22484bdb6523",
      "transactionIndex": "0x4",
      "blockHash": "0x7fc33ee8aa1f3a41d55c4f6ade85cf48ae30e0defaa4800b6d35036615614c4f",
      "blockNumber": "0x9bb2a6c",
      "gasUsed": "0x41cbd",
      "effectiveGasPrice": "0x70b0a5e80",
      "from": "0x6faff29226219756aa40ce648dbc65fb41de5f72",
      "to": null,
      "contractAddress": "0xaf4bae9969997268b9e4222777ed0aacbc1b4bca"
    },
    {
      "status": "0x1",
      "cumulativeGasUsed": "0xed35d",
      "logs": [],
      "logsBloom": "0x00000000000000000000000000000000000000000000000000000000000000000000000000000000000000000000000000000000000000000000000000000000000000000000000000000000000000000000000000000000000000000000000000000000000000000000000000000000000000000000000000000000000000000000000000000000000000000000000000000000000000000000000000000000000000000000000000000000000000000000000000000000000000000000000000000000000000000000000000000000000000000000000000000000000000000000000000000000000000000000000000000000000000000000000000000000",
      "type": "0x2",
      "transactionHash": "0x119224740dd0c9b347b7da21f3df1cfe258767198d12af3770d9659912d981d0",
      "transactionIndex": "0x5",
      "blockHash": "0x7fc33ee8aa1f3a41d55c4f6ade85cf48ae30e0defaa4800b6d35036615614c4f",
      "blockNumber": "0x9bb2a6c",
      "gasUsed": "0xd462",
      "effectiveGasPrice": "0x70b0a5e80",
      "from": "0x6faff29226219756aa40ce648dbc65fb41de5f72",
      "to": "0x95ce14ee82410c4a7296205e0c663969703dc857",
      "contractAddress": null
    },
    {
      "status": "0x1",
      "cumulativeGasUsed": "0x12f01a",
      "logs": [],
      "logsBloom": "0x00000000000000000000000000000000000000000000000000000000000000000000000000000000000000000000000000000000000000000000000000000000000000000000000000000000000000000000000000000000000000000000000000000000000000000000000000000000000000000000000000000000000000000000000000000000000000000000000000000000000000000000000000000000000000000000000000000000000000000000000000000000000000000000000000000000000000000000000000000000000000000000000000000000000000000000000000000000000000000000000000000000000000000000000000000000",
      "type": "0x2",
      "transactionHash": "0xd278f2df1d4095976aaa1dbcd2d9f7a399fb90169244e269821cb3298cb388ca",
      "transactionIndex": "0x6",
      "blockHash": "0x7fc33ee8aa1f3a41d55c4f6ade85cf48ae30e0defaa4800b6d35036615614c4f",
      "blockNumber": "0x9bb2a6c",
      "gasUsed": "0x41cbd",
      "effectiveGasPrice": "0x70b0a5e80",
      "from": "0x6faff29226219756aa40ce648dbc65fb41de5f72",
      "to": null,
      "contractAddress": "0x98884a6c748db1144e84eb08585ab82064d95675"
    },
    {
      "status": "0x1",
      "cumulativeGasUsed": "0x13c47c",
      "logs": [],
      "logsBloom": "0x00000000000000000000000000000000000000000000000000000000000000000000000000000000000000000000000000000000000000000000000000000000000000000000000000000000000000000000000000000000000000000000000000000000000000000000000000000000000000000000000000000000000000000000000000000000000000000000000000000000000000000000000000000000000000000000000000000000000000000000000000000000000000000000000000000000000000000000000000000000000000000000000000000000000000000000000000000000000000000000000000000000000000000000000000000000",
      "type": "0x2",
      "transactionHash": "0x4bc82807cf188648254f8a2b4680ac239534027141338c23f825e8c62f31dc63",
      "transactionIndex": "0x7",
      "blockHash": "0x7fc33ee8aa1f3a41d55c4f6ade85cf48ae30e0defaa4800b6d35036615614c4f",
      "blockNumber": "0x9bb2a6c",
      "gasUsed": "0xd462",
      "effectiveGasPrice": "0x70b0a5e80",
      "from": "0x6faff29226219756aa40ce648dbc65fb41de5f72",
      "to": "0x95ce14ee82410c4a7296205e0c663969703dc857",
      "contractAddress": null
    },
    {
      "status": "0x1",
      "cumulativeGasUsed": "0x17e139",
      "logs": [],
      "logsBloom": "0x00000000000000000000000000000000000000000000000000000000000000000000000000000000000000000000000000000000000000000000000000000000000000000000000000000000000000000000000000000000000000000000000000000000000000000000000000000000000000000000000000000000000000000000000000000000000000000000000000000000000000000000000000000000000000000000000000000000000000000000000000000000000000000000000000000000000000000000000000000000000000000000000000000000000000000000000000000000000000000000000000000000000000000000000000000000",
      "type": "0x2",
      "transactionHash": "0x5f0d67a30810f6eec2c291b409783157ae76aa6f39117da802979fcfcdab8e4a",
      "transactionIndex": "0x8",
      "blockHash": "0x7fc33ee8aa1f3a41d55c4f6ade85cf48ae30e0defaa4800b6d35036615614c4f",
      "blockNumber": "0x9bb2a6c",
      "gasUsed": "0x41cbd",
      "effectiveGasPrice": "0x70b0a5e80",
      "from": "0x6faff29226219756aa40ce648dbc65fb41de5f72",
      "to": null,
      "contractAddress": "0x27b9525f5a5b245cef7224ad82cd51426f6b7e38"
    },
    {
      "status": "0x1",
      "cumulativeGasUsed": "0x18b59b",
      "logs": [],
      "logsBloom": "0x00000000000000000000000000000000000000000000000000000000000000000000000000000000000000000000000000000000000000000000000000000000000000000000000000000000000000000000000000000000000000000000000000000000000000000000000000000000000000000000000000000000000000000000000000000000000000000000000000000000000000000000000000000000000000000000000000000000000000000000000000000000000000000000000000000000000000000000000000000000000000000000000000000000000000000000000000000000000000000000000000000000000000000000000000000000",
      "type": "0x2",
      "transactionHash": "0x704d30b73dcd51051cb5affb7e23050a63238e95398d623849d754d1818906c8",
      "transactionIndex": "0x9",
      "blockHash": "0x7fc33ee8aa1f3a41d55c4f6ade85cf48ae30e0defaa4800b6d35036615614c4f",
      "blockNumber": "0x9bb2a6c",
      "gasUsed": "0xd462",
      "effectiveGasPrice": "0x70b0a5e80",
      "from": "0x6faff29226219756aa40ce648dbc65fb41de5f72",
      "to": "0x95ce14ee82410c4a7296205e0c663969703dc857",
      "contractAddress": null
    },
    {
      "status": "0x1",
      "cumulativeGasUsed": "0x1cd258",
      "logs": [],
      "logsBloom": "0x00000000000000000000000000000000000000000000000000000000000000000000000000000000000000000000000000000000000000000000000000000000000000000000000000000000000000000000000000000000000000000000000000000000000000000000000000000000000000000000000000000000000000000000000000000000000000000000000000000000000000000000000000000000000000000000000000000000000000000000000000000000000000000000000000000000000000000000000000000000000000000000000000000000000000000000000000000000000000000000000000000000000000000000000000000000",
      "type": "0x2",
      "transactionHash": "0xa537155904db06c8e56a92d6a94b20bfb263310e41d7837d363483da96d6e957",
      "transactionIndex": "0xa",
      "blockHash": "0x7fc33ee8aa1f3a41d55c4f6ade85cf48ae30e0defaa4800b6d35036615614c4f",
      "blockNumber": "0x9bb2a6c",
      "gasUsed": "0x41cbd",
      "effectiveGasPrice": "0x70b0a5e80",
      "from": "0x6faff29226219756aa40ce648dbc65fb41de5f72",
      "to": null,
      "contractAddress": "0xe4eea2018742810b9f844a03f873d8bb57192ee4"
    },
    {
      "status": "0x1",
      "cumulativeGasUsed": "0x1da6ba",
      "logs": [],
      "logsBloom": "0x00000000000000000000000000000000000000000000000000000000000000000000000000000000000000000000000000000000000000000000000000000000000000000000000000000000000000000000000000000000000000000000000000000000000000000000000000000000000000000000000000000000000000000000000000000000000000000000000000000000000000000000000000000000000000000000000000000000000000000000000000000000000000000000000000000000000000000000000000000000000000000000000000000000000000000000000000000000000000000000000000000000000000000000000000000000",
      "type": "0x2",
      "transactionHash": "0x54d2d269e5ccbc3dcfe4d04abc29122f7acf76fd9335294081bea4341d027c9f",
      "transactionIndex": "0xb",
      "blockHash": "0x7fc33ee8aa1f3a41d55c4f6ade85cf48ae30e0defaa4800b6d35036615614c4f",
      "blockNumber": "0x9bb2a6c",
      "gasUsed": "0xd462",
      "effectiveGasPrice": "0x70b0a5e80",
      "from": "0x6faff29226219756aa40ce648dbc65fb41de5f72",
      "to": "0x95ce14ee82410c4a7296205e0c663969703dc857",
      "contractAddress": null
    },
    {
      "status": "0x1",
      "cumulativeGasUsed": "0x21c377",
      "logs": [],
      "logsBloom": "0x00000000000000000000000000000000000000000000000000000000000000000000000000000000000000000000000000000000000000000000000000000000000000000000000000000000000000000000000000000000000000000000000000000000000000000000000000000000000000000000000000000000000000000000000000000000000000000000000000000000000000000000000000000000000000000000000000000000000000000000000000000000000000000000000000000000000000000000000000000000000000000000000000000000000000000000000000000000000000000000000000000000000000000000000000000000",
      "type": "0x2",
      "transactionHash": "0x224c8f90e6fe1c03491386ad40541d3ca55974ef3383397a326ac2f0d37443dd",
      "transactionIndex": "0xc",
      "blockHash": "0x7fc33ee8aa1f3a41d55c4f6ade85cf48ae30e0defaa4800b6d35036615614c4f",
      "blockNumber": "0x9bb2a6c",
      "gasUsed": "0x41cbd",
      "effectiveGasPrice": "0x70b0a5e80",
      "from": "0x6faff29226219756aa40ce648dbc65fb41de5f72",
      "to": null,
      "contractAddress": "0x2d3a9a5dd2cb73cc6d284db61382ff3b2741c205"
    },
    {
      "status": "0x1",
      "cumulativeGasUsed": "0x2297d9",
      "logs": [],
      "logsBloom": "0x00000000000000000000000000000000000000000000000000000000000000000000000000000000000000000000000000000000000000000000000000000000000000000000000000000000000000000000000000000000000000000000000000000000000000000000000000000000000000000000000000000000000000000000000000000000000000000000000000000000000000000000000000000000000000000000000000000000000000000000000000000000000000000000000000000000000000000000000000000000000000000000000000000000000000000000000000000000000000000000000000000000000000000000000000000000",
      "type": "0x2",
      "transactionHash": "0xef2dd07df85d2abc08caf5a56c789c2174cf8e32d27e71e4c4dcdf4bc14413d2",
      "transactionIndex": "0xd",
      "blockHash": "0x7fc33ee8aa1f3a41d55c4f6ade85cf48ae30e0defaa4800b6d35036615614c4f",
      "blockNumber": "0x9bb2a6c",
      "gasUsed": "0xd462",
      "effectiveGasPrice": "0x70b0a5e80",
      "from": "0x6faff29226219756aa40ce648dbc65fb41de5f72",
      "to": "0x95ce14ee82410c4a7296205e0c663969703dc857",
      "contractAddress": null
    },
    {
      "status": "0x1",
      "cumulativeGasUsed": "0x26b496",
      "logs": [],
      "logsBloom": "0x00000000000000000000000000000000000000000000000000000000000000000000000000000000000000000000000000000000000000000000000000000000000000000000000000000000000000000000000000000000000000000000000000000000000000000000000000000000000000000000000000000000000000000000000000000000000000000000000000000000000000000000000000000000000000000000000000000000000000000000000000000000000000000000000000000000000000000000000000000000000000000000000000000000000000000000000000000000000000000000000000000000000000000000000000000000",
      "type": "0x2",
      "transactionHash": "0xaa80d1098ce95e2341af381bafd4311d5db0feb13695f01f776683036d86c17e",
      "transactionIndex": "0xe",
      "blockHash": "0x7fc33ee8aa1f3a41d55c4f6ade85cf48ae30e0defaa4800b6d35036615614c4f",
      "blockNumber": "0x9bb2a6c",
      "gasUsed": "0x41cbd",
      "effectiveGasPrice": "0x70b0a5e80",
      "from": "0x6faff29226219756aa40ce648dbc65fb41de5f72",
      "to": null,
      "contractAddress": "0xa90d7d5d8a6418cf16104e3f370aa0eb58fdda83"
    },
    {
      "status": "0x1",
      "cumulativeGasUsed": "0x2788f8",
      "logs": [],
      "logsBloom": "0x00000000000000000000000000000000000000000000000000000000000000000000000000000000000000000000000000000000000000000000000000000000000000000000000000000000000000000000000000000000000000000000000000000000000000000000000000000000000000000000000000000000000000000000000000000000000000000000000000000000000000000000000000000000000000000000000000000000000000000000000000000000000000000000000000000000000000000000000000000000000000000000000000000000000000000000000000000000000000000000000000000000000000000000000000000000",
      "type": "0x2",
      "transactionHash": "0xc2be860d46cdb0a892a309efbf2814ce7f70a54562dd65238fe2f91ea40b6f19",
      "transactionIndex": "0xf",
      "blockHash": "0x7fc33ee8aa1f3a41d55c4f6ade85cf48ae30e0defaa4800b6d35036615614c4f",
      "blockNumber": "0x9bb2a6c",
      "gasUsed": "0xd462",
      "effectiveGasPrice": "0x70b0a5e80",
      "from": "0x6faff29226219756aa40ce648dbc65fb41de5f72",
      "to": "0x95ce14ee82410c4a7296205e0c663969703dc857",
      "contractAddress": null
    },
    {
      "status": "0x1",
      "cumulativeGasUsed": "0x2ba5b5",
      "logs": [],
      "logsBloom": "0x00000000000000000000000000000000000000000000000000000000000000000000000000000000000000000000000000000000000000000000000000000000000000000000000000000000000000000000000000000000000000000000000000000000000000000000000000000000000000000000000000000000000000000000000000000000000000000000000000000000000000000000000000000000000000000000000000000000000000000000000000000000000000000000000000000000000000000000000000000000000000000000000000000000000000000000000000000000000000000000000000000000000000000000000000000000",
      "type": "0x2",
      "transactionHash": "0xfdf519f5f1900959148d246cd85465aa772d89c4ed6ac1d6c7def5b17d9f724e",
      "transactionIndex": "0x10",
      "blockHash": "0x7fc33ee8aa1f3a41d55c4f6ade85cf48ae30e0defaa4800b6d35036615614c4f",
      "blockNumber": "0x9bb2a6c",
      "gasUsed": "0x41cbd",
      "effectiveGasPrice": "0x70b0a5e80",
      "from": "0x6faff29226219756aa40ce648dbc65fb41de5f72",
      "to": null,
      "contractAddress": "0x5af7afe11d6d03ca5c97db5ff086da70a7aa693e"
    },
    {
      "status": "0x1",
      "cumulativeGasUsed": "0x2c7a17",
      "logs": [],
      "logsBloom": "0x00000000000000000000000000000000000000000000000000000000000000000000000000000000000000000000000000000000000000000000000000000000000000000000000000000000000000000000000000000000000000000000000000000000000000000000000000000000000000000000000000000000000000000000000000000000000000000000000000000000000000000000000000000000000000000000000000000000000000000000000000000000000000000000000000000000000000000000000000000000000000000000000000000000000000000000000000000000000000000000000000000000000000000000000000000000",
      "type": "0x2",
      "transactionHash": "0xc984fc917453540e44907211e7c08e55ef6cfecd35f687665e3453610ae7586d",
      "transactionIndex": "0x11",
      "blockHash": "0x7fc33ee8aa1f3a41d55c4f6ade85cf48ae30e0defaa4800b6d35036615614c4f",
      "blockNumber": "0x9bb2a6c",
      "gasUsed": "0xd462",
      "effectiveGasPrice": "0x70b0a5e80",
      "from": "0x6faff29226219756aa40ce648dbc65fb41de5f72",
      "to": "0x95ce14ee82410c4a7296205e0c663969703dc857",
      "contractAddress": null
    },
    {
      "status": "0x1",
      "cumulativeGasUsed": "0x3096d4",
      "logs": [],
      "logsBloom": "0x00000000000000000000000000000000000000000000000000000000000000000000000000000000000000000000000000000000000000000000000000000000000000000000000000000000000000000000000000000000000000000000000000000000000000000000000000000000000000000000000000000000000000000000000000000000000000000000000000000000000000000000000000000000000000000000000000000000000000000000000000000000000000000000000000000000000000000000000000000000000000000000000000000000000000000000000000000000000000000000000000000000000000000000000000000000",
      "type": "0x2",
      "transactionHash": "0x724730b4369e67bc462e378ed9a098fc9ef86cfd8c059971c6722cd2e0e52600",
      "transactionIndex": "0x12",
      "blockHash": "0x7fc33ee8aa1f3a41d55c4f6ade85cf48ae30e0defaa4800b6d35036615614c4f",
      "blockNumber": "0x9bb2a6c",
      "gasUsed": "0x41cbd",
      "effectiveGasPrice": "0x70b0a5e80",
      "from": "0x6faff29226219756aa40ce648dbc65fb41de5f72",
      "to": null,
      "contractAddress": "0x3ab5640430ba918e2b158f015416c092192f0fe6"
    },
    {
      "status": "0x1",
      "cumulativeGasUsed": "0x316b36",
      "logs": [],
      "logsBloom": "0x00000000000000000000000000000000000000000000000000000000000000000000000000000000000000000000000000000000000000000000000000000000000000000000000000000000000000000000000000000000000000000000000000000000000000000000000000000000000000000000000000000000000000000000000000000000000000000000000000000000000000000000000000000000000000000000000000000000000000000000000000000000000000000000000000000000000000000000000000000000000000000000000000000000000000000000000000000000000000000000000000000000000000000000000000000000",
      "type": "0x2",
      "transactionHash": "0x6148cc5894cf120903bb1fccd5f5eb05e81ddf6b6eef991c5c54a65b6c6346cd",
      "transactionIndex": "0x13",
      "blockHash": "0x7fc33ee8aa1f3a41d55c4f6ade85cf48ae30e0defaa4800b6d35036615614c4f",
      "blockNumber": "0x9bb2a6c",
      "gasUsed": "0xd462",
      "effectiveGasPrice": "0x70b0a5e80",
      "from": "0x6faff29226219756aa40ce648dbc65fb41de5f72",
      "to": "0x95ce14ee82410c4a7296205e0c663969703dc857",
      "contractAddress": null
    }
  ],
  "libraries": [],
  "pending": [],
  "returns": {},
  "timestamp": 1724842694,
  "chain": 1001,
  "commit": "cd51cc8"
}