{
  "transactions": [
    {
      "hash": "0xd51d05a4f6e319020b17046f11f8b383c979e46a69d3c08dd43fe544d2f64ed0",
      "transactionType": "CREATE",
      "contractName": "Vault",
      "contractAddress": "0x9fea76e6c4117a5c0666b06b33543f4d68046cc5",
      "function": null,
      "arguments": [
        "0x6570796368786c6b677300000000000000000000000000000000000000000000"
      ],
      "transaction": {
        "from": "0x6faff29226219756aa40ce648dbc65fb41de5f72",
        "gas": "0x6732a",
        "value": "0x0",
        "input": "0x60806040525f80546001600160a01b031916737be02decc3dc3be771d851fcf457bd9baa99010a1790553480156033575f80fd5b5060405161028f38038061028f8339810160408190526050916069565b5f805460ff60a01b1916600160a01b179055600155607f565b5f602082840312156078575f80fd5b5051919050565b6102038061008c5f395ff3fe608060405234801561000f575f80fd5b506004361061003f575f3560e01c8063701385a014610043578063cf3090121461004d578063ec9b5b3a14610074575b5f80fd5b61004b610087565b005b5f5461006090600160a01b900460ff1681565b604051901515815260200160405180910390f35b61004b6100823660046101c8565b610197565b5f54600160a01b900460ff1615156001036100b557604051635adc30c160e11b815260040160405180910390fd5b5f8054604051632f745c5960e01b8152306004820181905260248201939093526001600160a01b03909116916323b872dd9133908490632f745c5990604401602060405180830381865afa15801561010f573d5f803e3d5ffd5b505050506040513d601f19601f8201168201806040525081019061013391906101df565b6040516001600160e01b031960e086901b1681526001600160a01b03938416600482015292909116602483015260448201526064015f604051808303815f87803b15801561017f575f80fd5b505af1158015610191573d5f803e3d5ffd5b50505050565b80600154036101af575f805460ff60a01b1916905550565b604051635ee88f9760e01b815260040160405180910390fd5b5f602082840312156101d8575f80fd5b5035919050565b5f602082840312156101ef575f80fd5b505191905056fea164736f6c6343000819000a6570796368786c6b677300000000000000000000000000000000000000000000",
        "nonce": "0x29a",
        "chainId": "0x3e9"
      },
      "additionalContracts": [],
      "isFixedGasLimit": false
    },
    {
      "hash": "0x053ff08618a4d68ff1c84a3bf2e6159a4867f0412f72de2abc3e2085f4a26c50",
      "transactionType": "CALL",
      "contractName": null,
      "contractAddress": "0x95ce14ee82410c4a7296205e0c663969703dc857",
      "function": "addGemCastle(address)",
      "arguments": [
        "0x9fea76E6c4117a5c0666b06B33543f4D68046CC5"
      ],
      "transaction": {
        "from": "0x6faff29226219756aa40ce648dbc65fb41de5f72",
        "to": "0x95ce14ee82410c4a7296205e0c663969703dc857",
        "gas": "0x1c204",
        "value": "0x0",
        "input": "0x5862c8940000000000000000000000009fea76e6c4117a5c0666b06b33543f4d68046cc5",
        "nonce": "0x29b",
        "chainId": "0x3e9"
      },
      "additionalContracts": [],
      "isFixedGasLimit": false
    },
    {
      "hash": "0x48b52861d56ddcc376a559078e0d706117c0a481d3b581dedf30e52574be96a3",
      "transactionType": "CREATE",
      "contractName": "Vault",
      "contractAddress": "0xdc7c48ae3c9d6af2998a14357725291198924f0c",
      "function": null,
      "arguments": [
        "0x6570796368786c6b677300000000000000000000000000000000000000000000"
      ],
      "transaction": {
        "from": "0x6faff29226219756aa40ce648dbc65fb41de5f72",
        "gas": "0x6732a",
        "value": "0x0",
        "input": "0x60806040525f80546001600160a01b031916737be02decc3dc3be771d851fcf457bd9baa99010a1790553480156033575f80fd5b5060405161028f38038061028f8339810160408190526050916069565b5f805460ff60a01b1916600160a01b179055600155607f565b5f602082840312156078575f80fd5b5051919050565b6102038061008c5f395ff3fe608060405234801561000f575f80fd5b506004361061003f575f3560e01c8063701385a014610043578063cf3090121461004d578063ec9b5b3a14610074575b5f80fd5b61004b610087565b005b5f5461006090600160a01b900460ff1681565b604051901515815260200160405180910390f35b61004b6100823660046101c8565b610197565b5f54600160a01b900460ff1615156001036100b557604051635adc30c160e11b815260040160405180910390fd5b5f8054604051632f745c5960e01b8152306004820181905260248201939093526001600160a01b03909116916323b872dd9133908490632f745c5990604401602060405180830381865afa15801561010f573d5f803e3d5ffd5b505050506040513d601f19601f8201168201806040525081019061013391906101df565b6040516001600160e01b031960e086901b1681526001600160a01b03938416600482015292909116602483015260448201526064015f604051808303815f87803b15801561017f575f80fd5b505af1158015610191573d5f803e3d5ffd5b50505050565b80600154036101af575f805460ff60a01b1916905550565b604051635ee88f9760e01b815260040160405180910390fd5b5f602082840312156101d8575f80fd5b5035919050565b5f602082840312156101ef575f80fd5b505191905056fea164736f6c6343000819000a6570796368786c6b677300000000000000000000000000000000000000000000",
        "nonce": "0x29c",
        "chainId": "0x3e9"
      },
      "additionalContracts": [],
      "isFixedGasLimit": false
    },
    {
      "hash": "0x433c45e50bf1d83ed71a413b9d7f82372f39f534385367d6d5a1ec28fc73948e",
      "transactionType": "CALL",
      "contractName": null,
      "contractAddress": "0x95ce14ee82410c4a7296205e0c663969703dc857",
      "function": "addGemCastle(address)",
      "arguments": [
        "0xdC7C48ae3C9d6af2998a14357725291198924F0C"
      ],
      "transaction": {
        "from": "0x6faff29226219756aa40ce648dbc65fb41de5f72",
        "to": "0x95ce14ee82410c4a7296205e0c663969703dc857",
        "gas": "0x1c204",
        "value": "0x0",
        "input": "0x5862c894000000000000000000000000dc7c48ae3c9d6af2998a14357725291198924f0c",
        "nonce": "0x29d",
        "chainId": "0x3e9"
      },
      "additionalContracts": [],
      "isFixedGasLimit": false
    },
    {
      "hash": "0x0a7141125d8b66b91fea88612a94d609d56f23fd69a9dd30c17553dc40589333",
      "transactionType": "CREATE",
      "contractName": "Vault",
      "contractAddress": "0x4c2f8e4a1168bc641b1a05d83718a02723e453e3",
      "function": null,
      "arguments": [
        "0x6570796368786c6b677300000000000000000000000000000000000000000000"
      ],
      "transaction": {
        "from": "0x6faff29226219756aa40ce648dbc65fb41de5f72",
        "gas": "0x6732a",
        "value": "0x0",
        "input": "0x60806040525f80546001600160a01b031916737be02decc3dc3be771d851fcf457bd9baa99010a1790553480156033575f80fd5b5060405161028f38038061028f8339810160408190526050916069565b5f805460ff60a01b1916600160a01b179055600155607f565b5f602082840312156078575f80fd5b5051919050565b6102038061008c5f395ff3fe608060405234801561000f575f80fd5b506004361061003f575f3560e01c8063701385a014610043578063cf3090121461004d578063ec9b5b3a14610074575b5f80fd5b61004b610087565b005b5f5461006090600160a01b900460ff1681565b604051901515815260200160405180910390f35b61004b6100823660046101c8565b610197565b5f54600160a01b900460ff1615156001036100b557604051635adc30c160e11b815260040160405180910390fd5b5f8054604051632f745c5960e01b8152306004820181905260248201939093526001600160a01b03909116916323b872dd9133908490632f745c5990604401602060405180830381865afa15801561010f573d5f803e3d5ffd5b505050506040513d601f19601f8201168201806040525081019061013391906101df565b6040516001600160e01b031960e086901b1681526001600160a01b03938416600482015292909116602483015260448201526064015f604051808303815f87803b15801561017f575f80fd5b505af1158015610191573d5f803e3d5ffd5b50505050565b80600154036101af575f805460ff60a01b1916905550565b604051635ee88f9760e01b815260040160405180910390fd5b5f602082840312156101d8575f80fd5b5035919050565b5f602082840312156101ef575f80fd5b505191905056fea164736f6c6343000819000a6570796368786c6b677300000000000000000000000000000000000000000000",
        "nonce": "0x29e",
        "chainId": "0x3e9"
      },
      "additionalContracts": [],
      "isFixedGasLimit": false
    },
    {
      "hash": "0x7b82ee792190010e8f3d168590d1c2e7451859bb23a80bcf3dc9d2d9abfdb94f",
      "transactionType": "CALL",
      "contractName": null,
      "contractAddress": "0x95ce14ee82410c4a7296205e0c663969703dc857",
      "function": "addGemCastle(address)",
      "arguments": [
        "0x4c2f8e4A1168BC641b1A05d83718A02723E453e3"
      ],
      "transaction": {
        "from": "0x6faff29226219756aa40ce648dbc65fb41de5f72",
        "to": "0x95ce14ee82410c4a7296205e0c663969703dc857",
        "gas": "0x1c204",
        "value": "0x0",
        "input": "0x5862c8940000000000000000000000004c2f8e4a1168bc641b1a05d83718a02723e453e3",
        "nonce": "0x29f",
        "chainId": "0x3e9"
      },
      "additionalContracts": [],
      "isFixedGasLimit": false
    },
    {
      "hash": "0x049fec97abb93213aefa05d5cb47f956ca550fa9f4ecc53517a1c880df6b4907",
      "transactionType": "CREATE",
      "contractName": "Vault",
      "contractAddress": "0xcb439e9f788afa66eff61037d2828abe61ea955f",
      "function": null,
      "arguments": [
        "0x6570796368786c6b677300000000000000000000000000000000000000000000"
      ],
      "transaction": {
        "from": "0x6faff29226219756aa40ce648dbc65fb41de5f72",
        "gas": "0x6732a",
        "value": "0x0",
        "input": "0x60806040525f80546001600160a01b031916737be02decc3dc3be771d851fcf457bd9baa99010a1790553480156033575f80fd5b5060405161028f38038061028f8339810160408190526050916069565b5f805460ff60a01b1916600160a01b179055600155607f565b5f602082840312156078575f80fd5b5051919050565b6102038061008c5f395ff3fe608060405234801561000f575f80fd5b506004361061003f575f3560e01c8063701385a014610043578063cf3090121461004d578063ec9b5b3a14610074575b5f80fd5b61004b610087565b005b5f5461006090600160a01b900460ff1681565b604051901515815260200160405180910390f35b61004b6100823660046101c8565b610197565b5f54600160a01b900460ff1615156001036100b557604051635adc30c160e11b815260040160405180910390fd5b5f8054604051632f745c5960e01b8152306004820181905260248201939093526001600160a01b03909116916323b872dd9133908490632f745c5990604401602060405180830381865afa15801561010f573d5f803e3d5ffd5b505050506040513d601f19601f8201168201806040525081019061013391906101df565b6040516001600160e01b031960e086901b1681526001600160a01b03938416600482015292909116602483015260448201526064015f604051808303815f87803b15801561017f575f80fd5b505af1158015610191573d5f803e3d5ffd5b50505050565b80600154036101af575f805460ff60a01b1916905550565b604051635ee88f9760e01b815260040160405180910390fd5b5f602082840312156101d8575f80fd5b5035919050565b5f602082840312156101ef575f80fd5b505191905056fea164736f6c6343000819000a6570796368786c6b677300000000000000000000000000000000000000000000",
        "nonce": "0x2a0",
        "chainId": "0x3e9"
      },
      "additionalContracts": [],
      "isFixedGasLimit": false
    },
    {
      "hash": "0xba0f3f3c0b69bb495ad4d6cde700797073cc9ea879a557677c6eb5750f1e0874",
      "transactionType": "CALL",
      "contractName": null,
      "contractAddress": "0x95ce14ee82410c4a7296205e0c663969703dc857",
      "function": "addGemCastle(address)",
      "arguments": [
        "0xCB439e9F788aFa66EFf61037D2828aBE61EA955F"
      ],
      "transaction": {
        "from": "0x6faff29226219756aa40ce648dbc65fb41de5f72",
        "to": "0x95ce14ee82410c4a7296205e0c663969703dc857",
        "gas": "0x1c204",
        "value": "0x0",
        "input": "0x5862c894000000000000000000000000cb439e9f788afa66eff61037d2828abe61ea955f",
        "nonce": "0x2a1",
        "chainId": "0x3e9"
      },
      "additionalContracts": [],
      "isFixedGasLimit": false
    },
    {
      "hash": "0x168cd5473f12139e0fc01f05ee9eccd460c49b7197c5aa3eeb0fef6fd776cbbf",
      "transactionType": "CREATE",
      "contractName": "Vault",
      "contractAddress": "0xb3ecbcbfe0cfca00269176f43c7d398740f6a6fd",
      "function": null,
      "arguments": [
        "0x6570796368786c6b677300000000000000000000000000000000000000000000"
      ],
      "transaction": {
        "from": "0x6faff29226219756aa40ce648dbc65fb41de5f72",
        "gas": "0x6732a",
        "value": "0x0",
        "input": "0x60806040525f80546001600160a01b031916737be02decc3dc3be771d851fcf457bd9baa99010a1790553480156033575f80fd5b5060405161028f38038061028f8339810160408190526050916069565b5f805460ff60a01b1916600160a01b179055600155607f565b5f602082840312156078575f80fd5b5051919050565b6102038061008c5f395ff3fe608060405234801561000f575f80fd5b506004361061003f575f3560e01c8063701385a014610043578063cf3090121461004d578063ec9b5b3a14610074575b5f80fd5b61004b610087565b005b5f5461006090600160a01b900460ff1681565b604051901515815260200160405180910390f35b61004b6100823660046101c8565b610197565b5f54600160a01b900460ff1615156001036100b557604051635adc30c160e11b815260040160405180910390fd5b5f8054604051632f745c5960e01b8152306004820181905260248201939093526001600160a01b03909116916323b872dd9133908490632f745c5990604401602060405180830381865afa15801561010f573d5f803e3d5ffd5b505050506040513d601f19601f8201168201806040525081019061013391906101df565b6040516001600160e01b031960e086901b1681526001600160a01b03938416600482015292909116602483015260448201526064015f604051808303815f87803b15801561017f575f80fd5b505af1158015610191573d5f803e3d5ffd5b50505050565b80600154036101af575f805460ff60a01b1916905550565b604051635ee88f9760e01b815260040160405180910390fd5b5f602082840312156101d8575f80fd5b5035919050565b5f602082840312156101ef575f80fd5b505191905056fea164736f6c6343000819000a6570796368786c6b677300000000000000000000000000000000000000000000",
        "nonce": "0x2a2",
        "chainId": "0x3e9"
      },
      "additionalContracts": [],
      "isFixedGasLimit": false
    },
    {
      "hash": "0x9190e676f2d8be2a2e39cb8b15db608a583619ad509483c0fb1b4c7370b3f1a8",
      "transactionType": "CALL",
      "contractName": null,
      "contractAddress": "0x95ce14ee82410c4a7296205e0c663969703dc857",
      "function": "addGemCastle(address)",
      "arguments": [
        "0xb3ECBcbFe0CfCa00269176f43C7d398740F6A6Fd"
      ],
      "transaction": {
        "from": "0x6faff29226219756aa40ce648dbc65fb41de5f72",
        "to": "0x95ce14ee82410c4a7296205e0c663969703dc857",
        "gas": "0x1a8ea",
        "value": "0x0",
        "input": "0x5862c894000000000000000000000000b3ecbcbfe0cfca00269176f43c7d398740f6a6fd",
        "nonce": "0x2a3",
        "chainId": "0x3e9"
      },
      "additionalContracts": [],
      "isFixedGasLimit": false
    },
    {
      "hash": "0xdaa83329b66f0e4265b0d6e6a2da54fefbcf75fe10f635cb2fbdd74d757328de",
      "transactionType": "CREATE",
      "contractName": "Vault",
      "contractAddress": "0x81ac7051c449142bc5c64b2ad8fdce2b0cd45dd7",
      "function": null,
      "arguments": [
        "0x6570796368786c6b677300000000000000000000000000000000000000000000"
      ],
      "transaction": {
        "from": "0x6faff29226219756aa40ce648dbc65fb41de5f72",
        "gas": "0x6732a",
        "value": "0x0",
        "input": "0x60806040525f80546001600160a01b031916737be02decc3dc3be771d851fcf457bd9baa99010a1790553480156033575f80fd5b5060405161028f38038061028f8339810160408190526050916069565b5f805460ff60a01b1916600160a01b179055600155607f565b5f602082840312156078575f80fd5b5051919050565b6102038061008c5f395ff3fe608060405234801561000f575f80fd5b506004361061003f575f3560e01c8063701385a014610043578063cf3090121461004d578063ec9b5b3a14610074575b5f80fd5b61004b610087565b005b5f5461006090600160a01b900460ff1681565b604051901515815260200160405180910390f35b61004b6100823660046101c8565b610197565b5f54600160a01b900460ff1615156001036100b557604051635adc30c160e11b815260040160405180910390fd5b5f8054604051632f745c5960e01b8152306004820181905260248201939093526001600160a01b03909116916323b872dd9133908490632f745c5990604401602060405180830381865afa15801561010f573d5f803e3d5ffd5b505050506040513d601f19601f8201168201806040525081019061013391906101df565b6040516001600160e01b031960e086901b1681526001600160a01b03938416600482015292909116602483015260448201526064015f604051808303815f87803b15801561017f575f80fd5b505af1158015610191573d5f803e3d5ffd5b50505050565b80600154036101af575f805460ff60a01b1916905550565b604051635ee88f9760e01b815260040160405180910390fd5b5f602082840312156101d8575f80fd5b5035919050565b5f602082840312156101ef575f80fd5b505191905056fea164736f6c6343000819000a6570796368786c6b677300000000000000000000000000000000000000000000",
        "nonce": "0x2a4",
        "chainId": "0x3e9"
      },
      "additionalContracts": [],
      "isFixedGasLimit": false
    },
    {
      "hash": "0xb0de040de80403f79a424a373b18e982cd6822d3c8d2ed3fa8680e1f4a29ad65",
      "transactionType": "CALL",
      "contractName": null,
      "contractAddress": "0x95ce14ee82410c4a7296205e0c663969703dc857",
      "function": "addGemCastle(address)",
      "arguments": [
        "0x81ac7051c449142bC5c64b2aD8fDCE2B0cd45dD7"
      ],
      "transaction": {
        "from": "0x6faff29226219756aa40ce648dbc65fb41de5f72",
        "to": "0x95ce14ee82410c4a7296205e0c663969703dc857",
        "gas": "0x1c204",
        "value": "0x0",
        "input": "0x5862c89400000000000000000000000081ac7051c449142bc5c64b2ad8fdce2b0cd45dd7",
        "nonce": "0x2a5",
        "chainId": "0x3e9"
      },
      "additionalContracts": [],
      "isFixedGasLimit": false
    },
    {
      "hash": "0x2f5df5471e5d22ccaa2a831737a5431e29df39e493123545bd7bd9b9f4c38b97",
      "transactionType": "CREATE",
      "contractName": "Vault",
      "contractAddress": "0xfbe6e43ad49f42b7c9528a5326c168533708b47f",
      "function": null,
      "arguments": [
        "0x6570796368786c6b677300000000000000000000000000000000000000000000"
      ],
      "transaction": {
        "from": "0x6faff29226219756aa40ce648dbc65fb41de5f72",
        "gas": "0x6732a",
        "value": "0x0",
        "input": "0x60806040525f80546001600160a01b031916737be02decc3dc3be771d851fcf457bd9baa99010a1790553480156033575f80fd5b5060405161028f38038061028f8339810160408190526050916069565b5f805460ff60a01b1916600160a01b179055600155607f565b5f602082840312156078575f80fd5b5051919050565b6102038061008c5f395ff3fe608060405234801561000f575f80fd5b506004361061003f575f3560e01c8063701385a014610043578063cf3090121461004d578063ec9b5b3a14610074575b5f80fd5b61004b610087565b005b5f5461006090600160a01b900460ff1681565b604051901515815260200160405180910390f35b61004b6100823660046101c8565b610197565b5f54600160a01b900460ff1615156001036100b557604051635adc30c160e11b815260040160405180910390fd5b5f8054604051632f745c5960e01b8152306004820181905260248201939093526001600160a01b03909116916323b872dd9133908490632f745c5990604401602060405180830381865afa15801561010f573d5f803e3d5ffd5b505050506040513d601f19601f8201168201806040525081019061013391906101df565b6040516001600160e01b031960e086901b1681526001600160a01b03938416600482015292909116602483015260448201526064015f604051808303815f87803b15801561017f575f80fd5b505af1158015610191573d5f803e3d5ffd5b50505050565b80600154036101af575f805460ff60a01b1916905550565b604051635ee88f9760e01b815260040160405180910390fd5b5f602082840312156101d8575f80fd5b5035919050565b5f602082840312156101ef575f80fd5b505191905056fea164736f6c6343000819000a6570796368786c6b677300000000000000000000000000000000000000000000",
        "nonce": "0x2a6",
        "chainId": "0x3e9"
      },
      "additionalContracts": [],
      "isFixedGasLimit": false
    },
    {
      "hash": "0x12d6668f916157834d595717b97c812c80cb6b1263937fadeda9e9a29778ebb0",
      "transactionType": "CALL",
      "contractName": null,
      "contractAddress": "0x95ce14ee82410c4a7296205e0c663969703dc857",
      "function": "addGemCastle(address)",
      "arguments": [
        "0xFbe6e43ad49F42B7c9528A5326c168533708b47f"
      ],
      "transaction": {
        "from": "0x6faff29226219756aa40ce648dbc65fb41de5f72",
        "to": "0x95ce14ee82410c4a7296205e0c663969703dc857",
        "gas": "0x1c204",
        "value": "0x0",
        "input": "0x5862c894000000000000000000000000fbe6e43ad49f42b7c9528a5326c168533708b47f",
        "nonce": "0x2a7",
        "chainId": "0x3e9"
      },
      "additionalContracts": [],
      "isFixedGasLimit": false
    },
    {
      "hash": "0x532582c4f6abf56a1f91c4f52f034f555e7201dea2ec654701e5e51cf4cd010d",
      "transactionType": "CREATE",
      "contractName": "Vault",
      "contractAddress": "0xbb27fadd32001d1b1d42c1ba8cd3abf870f800f7",
      "function": null,
      "arguments": [
        "0x6570796368786c6b677300000000000000000000000000000000000000000000"
      ],
      "transaction": {
        "from": "0x6faff29226219756aa40ce648dbc65fb41de5f72",
        "gas": "0x6732a",
        "value": "0x0",
        "input": "0x60806040525f80546001600160a01b031916737be02decc3dc3be771d851fcf457bd9baa99010a1790553480156033575f80fd5b5060405161028f38038061028f8339810160408190526050916069565b5f805460ff60a01b1916600160a01b179055600155607f565b5f602082840312156078575f80fd5b5051919050565b6102038061008c5f395ff3fe608060405234801561000f575f80fd5b506004361061003f575f3560e01c8063701385a014610043578063cf3090121461004d578063ec9b5b3a14610074575b5f80fd5b61004b610087565b005b5f5461006090600160a01b900460ff1681565b604051901515815260200160405180910390f35b61004b6100823660046101c8565b610197565b5f54600160a01b900460ff1615156001036100b557604051635adc30c160e11b815260040160405180910390fd5b5f8054604051632f745c5960e01b8152306004820181905260248201939093526001600160a01b03909116916323b872dd9133908490632f745c5990604401602060405180830381865afa15801561010f573d5f803e3d5ffd5b505050506040513d601f19601f8201168201806040525081019061013391906101df565b6040516001600160e01b031960e086901b1681526001600160a01b03938416600482015292909116602483015260448201526064015f604051808303815f87803b15801561017f575f80fd5b505af1158015610191573d5f803e3d5ffd5b50505050565b80600154036101af575f805460ff60a01b1916905550565b604051635ee88f9760e01b815260040160405180910390fd5b5f602082840312156101d8575f80fd5b5035919050565b5f602082840312156101ef575f80fd5b505191905056fea164736f6c6343000819000a6570796368786c6b677300000000000000000000000000000000000000000000",
        "nonce": "0x2a8",
        "chainId": "0x3e9"
      },
      "additionalContracts": [],
      "isFixedGasLimit": false
    },
    {
      "hash": "0xe1160e41fd0904d2ed2b7f0ffed579941334f1c41a16073f9790290944273ffd",
      "transactionType": "CALL",
      "contractName": null,
      "contractAddress": "0x95ce14ee82410c4a7296205e0c663969703dc857",
      "function": "addGemCastle(address)",
      "arguments": [
        "0xbB27fADd32001d1B1d42C1ba8cD3AbF870f800f7"
      ],
      "transaction": {
        "from": "0x6faff29226219756aa40ce648dbc65fb41de5f72",
        "to": "0x95ce14ee82410c4a7296205e0c663969703dc857",
        "gas": "0x1c1ce",
        "value": "0x0",
        "input": "0x5862c894000000000000000000000000bb27fadd32001d1b1d42c1ba8cd3abf870f800f7",
        "nonce": "0x2a9",
        "chainId": "0x3e9"
      },
      "additionalContracts": [],
      "isFixedGasLimit": false
    },
    {
      "hash": "0x21e6edd2e8cd2d26bf0eb1832047ffee477aedbea304ed08ad72f5b7f280a890",
      "transactionType": "CREATE",
      "contractName": "Vault",
      "contractAddress": "0x2c474a3557bdef839e55b5263c8088f8f322e0ae",
      "function": null,
      "arguments": [
        "0x6570796368786c6b677300000000000000000000000000000000000000000000"
      ],
      "transaction": {
        "from": "0x6faff29226219756aa40ce648dbc65fb41de5f72",
        "gas": "0x6732a",
        "value": "0x0",
        "input": "0x60806040525f80546001600160a01b031916737be02decc3dc3be771d851fcf457bd9baa99010a1790553480156033575f80fd5b5060405161028f38038061028f8339810160408190526050916069565b5f805460ff60a01b1916600160a01b179055600155607f565b5f602082840312156078575f80fd5b5051919050565b6102038061008c5f395ff3fe608060405234801561000f575f80fd5b506004361061003f575f3560e01c8063701385a014610043578063cf3090121461004d578063ec9b5b3a14610074575b5f80fd5b61004b610087565b005b5f5461006090600160a01b900460ff1681565b604051901515815260200160405180910390f35b61004b6100823660046101c8565b610197565b5f54600160a01b900460ff1615156001036100b557604051635adc30c160e11b815260040160405180910390fd5b5f8054604051632f745c5960e01b8152306004820181905260248201939093526001600160a01b03909116916323b872dd9133908490632f745c5990604401602060405180830381865afa15801561010f573d5f803e3d5ffd5b505050506040513d601f19601f8201168201806040525081019061013391906101df565b6040516001600160e01b031960e086901b1681526001600160a01b03938416600482015292909116602483015260448201526064015f604051808303815f87803b15801561017f575f80fd5b505af1158015610191573d5f803e3d5ffd5b50505050565b80600154036101af575f805460ff60a01b1916905550565b604051635ee88f9760e01b815260040160405180910390fd5b5f602082840312156101d8575f80fd5b5035919050565b5f602082840312156101ef575f80fd5b505191905056fea164736f6c6343000819000a6570796368786c6b677300000000000000000000000000000000000000000000",
        "nonce": "0x2aa",
        "chainId": "0x3e9"
      },
      "additionalContracts": [],
      "isFixedGasLimit": false
    },
    {
      "hash": "0x074c0a40c3331c39dd66ae832bda5ee9beed7053f0e482f2cdc8ffbd09ad1068",
      "transactionType": "CALL",
      "contractName": null,
      "contractAddress": "0x95ce14ee82410c4a7296205e0c663969703dc857",
      "function": "addGemCastle(address)",
      "arguments": [
        "0x2c474a3557bdef839E55b5263c8088f8F322E0aE"
      ],
      "transaction": {
        "from": "0x6faff29226219756aa40ce648dbc65fb41de5f72",
        "to": "0x95ce14ee82410c4a7296205e0c663969703dc857",
        "gas": "0x1c204",
        "value": "0x0",
        "input": "0x5862c8940000000000000000000000002c474a3557bdef839e55b5263c8088f8f322e0ae",
        "nonce": "0x2ab",
        "chainId": "0x3e9"
      },
      "additionalContracts": [],
      "isFixedGasLimit": false
    },
    {
      "hash": "0x6316e1580ca7d0c8fe531628b24d6e5417d056100489f2fcc3235f6e6f47b8db",
      "transactionType": "CREATE",
      "contractName": "Vault",
      "contractAddress": "0x99bc90f72f700eae75b047c1a0786203811bae79",
      "function": null,
      "arguments": [
        "0x6570796368786c6b677300000000000000000000000000000000000000000000"
      ],
      "transaction": {
        "from": "0x6faff29226219756aa40ce648dbc65fb41de5f72",
        "gas": "0x6732a",
        "value": "0x0",
        "input": "0x60806040525f80546001600160a01b031916737be02decc3dc3be771d851fcf457bd9baa99010a1790553480156033575f80fd5b5060405161028f38038061028f8339810160408190526050916069565b5f805460ff60a01b1916600160a01b179055600155607f565b5f602082840312156078575f80fd5b5051919050565b6102038061008c5f395ff3fe608060405234801561000f575f80fd5b506004361061003f575f3560e01c8063701385a014610043578063cf3090121461004d578063ec9b5b3a14610074575b5f80fd5b61004b610087565b005b5f5461006090600160a01b900460ff1681565b604051901515815260200160405180910390f35b61004b6100823660046101c8565b610197565b5f54600160a01b900460ff1615156001036100b557604051635adc30c160e11b815260040160405180910390fd5b5f8054604051632f745c5960e01b8152306004820181905260248201939093526001600160a01b03909116916323b872dd9133908490632f745c5990604401602060405180830381865afa15801561010f573d5f803e3d5ffd5b505050506040513d601f19601f8201168201806040525081019061013391906101df565b6040516001600160e01b031960e086901b1681526001600160a01b03938416600482015292909116602483015260448201526064015f604051808303815f87803b15801561017f575f80fd5b505af1158015610191573d5f803e3d5ffd5b50505050565b80600154036101af575f805460ff60a01b1916905550565b604051635ee88f9760e01b815260040160405180910390fd5b5f602082840312156101d8575f80fd5b5035919050565b5f602082840312156101ef575f80fd5b505191905056fea164736f6c6343000819000a6570796368786c6b677300000000000000000000000000000000000000000000",
        "nonce": "0x2ac",
        "chainId": "0x3e9"
      },
      "additionalContracts": [],
      "isFixedGasLimit": false
    },
    {
      "hash": "0x81d6f56a0730b34201933d1997eaebbcd41d2e0be9767c36d1623d2ec0849656",
      "transactionType": "CALL",
      "contractName": null,
      "contractAddress": "0x95ce14ee82410c4a7296205e0c663969703dc857",
      "function": "addGemCastle(address)",
      "arguments": [
        "0x99bC90F72F700eAE75B047C1A0786203811BAe79"
      ],
      "transaction": {
        "from": "0x6faff29226219756aa40ce648dbc65fb41de5f72",
        "to": "0x95ce14ee82410c4a7296205e0c663969703dc857",
        "gas": "0x1c204",
        "value": "0x0",
        "input": "0x5862c89400000000000000000000000099bc90f72f700eae75b047c1a0786203811bae79",
        "nonce": "0x2ad",
        "chainId": "0x3e9"
      },
      "additionalContracts": [],
      "isFixedGasLimit": false
    }
  ],
  "receipts": [
    {
      "status": "0x1",
      "cumulativeGasUsed": "0x41cbd",
      "logs": [],
      "logsBloom": "0x00000000000000000000000000000000000000000000000000000000000000000000000000000000000000000000000000000000000000000000000000000000000000000000000000000000000000000000000000000000000000000000000000000000000000000000000000000000000000000000000000000000000000000000000000000000000000000000000000000000000000000000000000000000000000000000000000000000000000000000000000000000000000000000000000000000000000000000000000000000000000000000000000000000000000000000000000000000000000000000000000000000000000000000000000000000",
      "type": "0x2",
      "transactionHash": "0xd51d05a4f6e319020b17046f11f8b383c979e46a69d3c08dd43fe544d2f64ed0",
      "transactionIndex": "0x0",
      "blockHash": "0x6924aba215bd50102670f90277d753c880ef0dccdb1f0ea2ebecb2a2c61df364",
      "blockNumber": "0x9bb2bfe",
      "gasUsed": "0x41cbd",
      "effectiveGasPrice": "0x7aef40a00",
      "from": "0x6faff29226219756aa40ce648dbc65fb41de5f72",
      "to": null,
      "contractAddress": "0x9fea76e6c4117a5c0666b06b33543f4d68046cc5"
    },
    {
      "status": "0x1",
      "cumulativeGasUsed": "0x4f11f",
      "logs": [],
      "logsBloom": "0x00000000000000000000000000000000000000000000000000000000000000000000000000000000000000000000000000000000000000000000000000000000000000000000000000000000000000000000000000000000000000000000000000000000000000000000000000000000000000000000000000000000000000000000000000000000000000000000000000000000000000000000000000000000000000000000000000000000000000000000000000000000000000000000000000000000000000000000000000000000000000000000000000000000000000000000000000000000000000000000000000000000000000000000000000000000",
      "type": "0x2",
      "transactionHash": "0x053ff08618a4d68ff1c84a3bf2e6159a4867f0412f72de2abc3e2085f4a26c50",
      "transactionIndex": "0x1",
      "blockHash": "0x6924aba215bd50102670f90277d753c880ef0dccdb1f0ea2ebecb2a2c61df364",
      "blockNumber": "0x9bb2bfe",
      "gasUsed": "0xd462",
      "effectiveGasPrice": "0x7aef40a00",
      "from": "0x6faff29226219756aa40ce648dbc65fb41de5f72",
      "to": "0x95ce14ee82410c4a7296205e0c663969703dc857",
      "contractAddress": null
    },
    {
      "status": "0x1",
      "cumulativeGasUsed": "0x90ddc",
      "logs": [],
      "logsBloom": "0x00000000000000000000000000000000000000000000000000000000000000000000000000000000000000000000000000000000000000000000000000000000000000000000000000000000000000000000000000000000000000000000000000000000000000000000000000000000000000000000000000000000000000000000000000000000000000000000000000000000000000000000000000000000000000000000000000000000000000000000000000000000000000000000000000000000000000000000000000000000000000000000000000000000000000000000000000000000000000000000000000000000000000000000000000000000",
      "type": "0x2",
      "transactionHash": "0x48b52861d56ddcc376a559078e0d706117c0a481d3b581dedf30e52574be96a3",
      "transactionIndex": "0x2",
      "blockHash": "0x6924aba215bd50102670f90277d753c880ef0dccdb1f0ea2ebecb2a2c61df364",
      "blockNumber": "0x9bb2bfe",
      "gasUsed": "0x41cbd",
      "effectiveGasPrice": "0x7aef40a00",
      "from": "0x6faff29226219756aa40ce648dbc65fb41de5f72",
      "to": null,
      "contractAddress": "0xdc7c48ae3c9d6af2998a14357725291198924f0c"
    },
    {
      "status": "0x1",
      "cumulativeGasUsed": "0x9e23e",
      "logs": [],
      "logsBloom": "0x00000000000000000000000000000000000000000000000000000000000000000000000000000000000000000000000000000000000000000000000000000000000000000000000000000000000000000000000000000000000000000000000000000000000000000000000000000000000000000000000000000000000000000000000000000000000000000000000000000000000000000000000000000000000000000000000000000000000000000000000000000000000000000000000000000000000000000000000000000000000000000000000000000000000000000000000000000000000000000000000000000000000000000000000000000000",
      "type": "0x2",
      "transactionHash": "0x433c45e50bf1d83ed71a413b9d7f82372f39f534385367d6d5a1ec28fc73948e",
      "transactionIndex": "0x3",
      "blockHash": "0x6924aba215bd50102670f90277d753c880ef0dccdb1f0ea2ebecb2a2c61df364",
      "blockNumber": "0x9bb2bfe",
      "gasUsed": "0xd462",
      "effectiveGasPrice": "0x7aef40a00",
      "from": "0x6faff29226219756aa40ce648dbc65fb41de5f72",
      "to": "0x95ce14ee82410c4a7296205e0c663969703dc857",
      "contractAddress": null
    },
    {
      "status": "0x1",
      "cumulativeGasUsed": "0xdfefb",
      "logs": [],
      "logsBloom": "0x00000000000000000000000000000000000000000000000000000000000000000000000000000000000000000000000000000000000000000000000000000000000000000000000000000000000000000000000000000000000000000000000000000000000000000000000000000000000000000000000000000000000000000000000000000000000000000000000000000000000000000000000000000000000000000000000000000000000000000000000000000000000000000000000000000000000000000000000000000000000000000000000000000000000000000000000000000000000000000000000000000000000000000000000000000000",
      "type": "0x2",
      "transactionHash": "0x0a7141125d8b66b91fea88612a94d609d56f23fd69a9dd30c17553dc40589333",
      "transactionIndex": "0x4",
      "blockHash": "0x6924aba215bd50102670f90277d753c880ef0dccdb1f0ea2ebecb2a2c61df364",
      "blockNumber": "0x9bb2bfe",
      "gasUsed": "0x41cbd",
      "effectiveGasPrice": "0x7aef40a00",
      "from": "0x6faff29226219756aa40ce648dbc65fb41de5f72",
      "to": null,
      "contractAddress": "0x4c2f8e4a1168bc641b1a05d83718a02723e453e3"
    },
    {
      "status": "0x1",
      "cumulativeGasUsed": "0xed35d",
      "logs": [],
      "logsBloom": "0x00000000000000000000000000000000000000000000000000000000000000000000000000000000000000000000000000000000000000000000000000000000000000000000000000000000000000000000000000000000000000000000000000000000000000000000000000000000000000000000000000000000000000000000000000000000000000000000000000000000000000000000000000000000000000000000000000000000000000000000000000000000000000000000000000000000000000000000000000000000000000000000000000000000000000000000000000000000000000000000000000000000000000000000000000000000",
      "type": "0x2",
      "transactionHash": "0x7b82ee792190010e8f3d168590d1c2e7451859bb23a80bcf3dc9d2d9abfdb94f",
      "transactionIndex": "0x5",
      "blockHash": "0x6924aba215bd50102670f90277d753c880ef0dccdb1f0ea2ebecb2a2c61df364",
      "blockNumber": "0x9bb2bfe",
      "gasUsed": "0xd462",
      "effectiveGasPrice": "0x7aef40a00",
      "from": "0x6faff29226219756aa40ce648dbc65fb41de5f72",
      "to": "0x95ce14ee82410c4a7296205e0c663969703dc857",
      "contractAddress": null
    },
    {
      "status": "0x1",
      "cumulativeGasUsed": "0x12f01a",
      "logs": [],
      "logsBloom": "0x00000000000000000000000000000000000000000000000000000000000000000000000000000000000000000000000000000000000000000000000000000000000000000000000000000000000000000000000000000000000000000000000000000000000000000000000000000000000000000000000000000000000000000000000000000000000000000000000000000000000000000000000000000000000000000000000000000000000000000000000000000000000000000000000000000000000000000000000000000000000000000000000000000000000000000000000000000000000000000000000000000000000000000000000000000000",
      "type": "0x2",
      "transactionHash": "0x049fec97abb93213aefa05d5cb47f956ca550fa9f4ecc53517a1c880df6b4907",
      "transactionIndex": "0x6",
      "blockHash": "0x6924aba215bd50102670f90277d753c880ef0dccdb1f0ea2ebecb2a2c61df364",
      "blockNumber": "0x9bb2bfe",
      "gasUsed": "0x41cbd",
      "effectiveGasPrice": "0x7aef40a00",
      "from": "0x6faff29226219756aa40ce648dbc65fb41de5f72",
      "to": null,
      "contractAddress": "0xcb439e9f788afa66eff61037d2828abe61ea955f"
    },
    {
      "status": "0x1",
      "cumulativeGasUsed": "0x13c47c",
      "logs": [],
      "logsBloom": "0x00000000000000000000000000000000000000000000000000000000000000000000000000000000000000000000000000000000000000000000000000000000000000000000000000000000000000000000000000000000000000000000000000000000000000000000000000000000000000000000000000000000000000000000000000000000000000000000000000000000000000000000000000000000000000000000000000000000000000000000000000000000000000000000000000000000000000000000000000000000000000000000000000000000000000000000000000000000000000000000000000000000000000000000000000000000",
      "type": "0x2",
      "transactionHash": "0xba0f3f3c0b69bb495ad4d6cde700797073cc9ea879a557677c6eb5750f1e0874",
      "transactionIndex": "0x7",
      "blockHash": "0x6924aba215bd50102670f90277d753c880ef0dccdb1f0ea2ebecb2a2c61df364",
      "blockNumber": "0x9bb2bfe",
      "gasUsed": "0xd462",
      "effectiveGasPrice": "0x7aef40a00",
      "from": "0x6faff29226219756aa40ce648dbc65fb41de5f72",
      "to": "0x95ce14ee82410c4a7296205e0c663969703dc857",
      "contractAddress": null
    },
    {
      "status": "0x1",
      "cumulativeGasUsed": "0x17e139",
      "logs": [],
      "logsBloom": "0x00000000000000000000000000000000000000000000000000000000000000000000000000000000000000000000000000000000000000000000000000000000000000000000000000000000000000000000000000000000000000000000000000000000000000000000000000000000000000000000000000000000000000000000000000000000000000000000000000000000000000000000000000000000000000000000000000000000000000000000000000000000000000000000000000000000000000000000000000000000000000000000000000000000000000000000000000000000000000000000000000000000000000000000000000000000",
      "type": "0x2",
      "transactionHash": "0x168cd5473f12139e0fc01f05ee9eccd460c49b7197c5aa3eeb0fef6fd776cbbf",
      "transactionIndex": "0x8",
      "blockHash": "0x6924aba215bd50102670f90277d753c880ef0dccdb1f0ea2ebecb2a2c61df364",
      "blockNumber": "0x9bb2bfe",
      "gasUsed": "0x41cbd",
      "effectiveGasPrice": "0x7aef40a00",
      "from": "0x6faff29226219756aa40ce648dbc65fb41de5f72",
      "to": null,
      "contractAddress": "0xb3ecbcbfe0cfca00269176f43c7d398740f6a6fd"
    },
    {
      "status": "0x1",
      "cumulativeGasUsed": "0x18b59b",
      "logs": [],
      "logsBloom": "0x00000000000000000000000000000000000000000000000000000000000000000000000000000000000000000000000000000000000000000000000000000000000000000000000000000000000000000000000000000000000000000000000000000000000000000000000000000000000000000000000000000000000000000000000000000000000000000000000000000000000000000000000000000000000000000000000000000000000000000000000000000000000000000000000000000000000000000000000000000000000000000000000000000000000000000000000000000000000000000000000000000000000000000000000000000000",
      "type": "0x2",
      "transactionHash": "0x9190e676f2d8be2a2e39cb8b15db608a583619ad509483c0fb1b4c7370b3f1a8",
      "transactionIndex": "0x9",
      "blockHash": "0x6924aba215bd50102670f90277d753c880ef0dccdb1f0ea2ebecb2a2c61df364",
      "blockNumber": "0x9bb2bfe",
      "gasUsed": "0xd462",
      "effectiveGasPrice": "0x7aef40a00",
      "from": "0x6faff29226219756aa40ce648dbc65fb41de5f72",
      "to": "0x95ce14ee82410c4a7296205e0c663969703dc857",
      "contractAddress": null
    },
    {
      "status": "0x1",
      "cumulativeGasUsed": "0x1cd258",
      "logs": [],
      "logsBloom": "0x00000000000000000000000000000000000000000000000000000000000000000000000000000000000000000000000000000000000000000000000000000000000000000000000000000000000000000000000000000000000000000000000000000000000000000000000000000000000000000000000000000000000000000000000000000000000000000000000000000000000000000000000000000000000000000000000000000000000000000000000000000000000000000000000000000000000000000000000000000000000000000000000000000000000000000000000000000000000000000000000000000000000000000000000000000000",
      "type": "0x2",
      "transactionHash": "0xdaa83329b66f0e4265b0d6e6a2da54fefbcf75fe10f635cb2fbdd74d757328de",
      "transactionIndex": "0xa",
      "blockHash": "0x6924aba215bd50102670f90277d753c880ef0dccdb1f0ea2ebecb2a2c61df364",
      "blockNumber": "0x9bb2bfe",
      "gasUsed": "0x41cbd",
      "effectiveGasPrice": "0x7aef40a00",
      "from": "0x6faff29226219756aa40ce648dbc65fb41de5f72",
      "to": null,
      "contractAddress": "0x81ac7051c449142bc5c64b2ad8fdce2b0cd45dd7"
    },
    {
      "status": "0x1",
      "cumulativeGasUsed": "0x1da6ba",
      "logs": [],
      "logsBloom": "0x00000000000000000000000000000000000000000000000000000000000000000000000000000000000000000000000000000000000000000000000000000000000000000000000000000000000000000000000000000000000000000000000000000000000000000000000000000000000000000000000000000000000000000000000000000000000000000000000000000000000000000000000000000000000000000000000000000000000000000000000000000000000000000000000000000000000000000000000000000000000000000000000000000000000000000000000000000000000000000000000000000000000000000000000000000000",
      "type": "0x2",
      "transactionHash": "0xb0de040de80403f79a424a373b18e982cd6822d3c8d2ed3fa8680e1f4a29ad65",
      "transactionIndex": "0xb",
      "blockHash": "0x6924aba215bd50102670f90277d753c880ef0dccdb1f0ea2ebecb2a2c61df364",
      "blockNumber": "0x9bb2bfe",
      "gasUsed": "0xd462",
      "effectiveGasPrice": "0x7aef40a00",
      "from": "0x6faff29226219756aa40ce648dbc65fb41de5f72",
      "to": "0x95ce14ee82410c4a7296205e0c663969703dc857",
      "contractAddress": null
    },
    {
      "status": "0x1",
      "cumulativeGasUsed": "0x21c377",
      "logs": [],
      "logsBloom": "0x00000000000000000000000000000000000000000000000000000000000000000000000000000000000000000000000000000000000000000000000000000000000000000000000000000000000000000000000000000000000000000000000000000000000000000000000000000000000000000000000000000000000000000000000000000000000000000000000000000000000000000000000000000000000000000000000000000000000000000000000000000000000000000000000000000000000000000000000000000000000000000000000000000000000000000000000000000000000000000000000000000000000000000000000000000000",
      "type": "0x2",
      "transactionHash": "0x2f5df5471e5d22ccaa2a831737a5431e29df39e493123545bd7bd9b9f4c38b97",
      "transactionIndex": "0xc",
      "blockHash": "0x6924aba215bd50102670f90277d753c880ef0dccdb1f0ea2ebecb2a2c61df364",
      "blockNumber": "0x9bb2bfe",
      "gasUsed": "0x41cbd",
      "effectiveGasPrice": "0x7aef40a00",
      "from": "0x6faff29226219756aa40ce648dbc65fb41de5f72",
      "to": null,
      "contractAddress": "0xfbe6e43ad49f42b7c9528a5326c168533708b47f"
    },
    {
      "status": "0x1",
      "cumulativeGasUsed": "0x2297d9",
      "logs": [],
      "logsBloom": "0x00000000000000000000000000000000000000000000000000000000000000000000000000000000000000000000000000000000000000000000000000000000000000000000000000000000000000000000000000000000000000000000000000000000000000000000000000000000000000000000000000000000000000000000000000000000000000000000000000000000000000000000000000000000000000000000000000000000000000000000000000000000000000000000000000000000000000000000000000000000000000000000000000000000000000000000000000000000000000000000000000000000000000000000000000000000",
      "type": "0x2",
      "transactionHash": "0x12d6668f916157834d595717b97c812c80cb6b1263937fadeda9e9a29778ebb0",
      "transactionIndex": "0xd",
      "blockHash": "0x6924aba215bd50102670f90277d753c880ef0dccdb1f0ea2ebecb2a2c61df364",
      "blockNumber": "0x9bb2bfe",
      "gasUsed": "0xd462",
      "effectiveGasPrice": "0x7aef40a00",
      "from": "0x6faff29226219756aa40ce648dbc65fb41de5f72",
      "to": "0x95ce14ee82410c4a7296205e0c663969703dc857",
      "contractAddress": null
    },
    {
      "status": "0x1",
      "cumulativeGasUsed": "0x26b496",
      "logs": [],
      "logsBloom": "0x00000000000000000000000000000000000000000000000000000000000000000000000000000000000000000000000000000000000000000000000000000000000000000000000000000000000000000000000000000000000000000000000000000000000000000000000000000000000000000000000000000000000000000000000000000000000000000000000000000000000000000000000000000000000000000000000000000000000000000000000000000000000000000000000000000000000000000000000000000000000000000000000000000000000000000000000000000000000000000000000000000000000000000000000000000000",
      "type": "0x2",
      "transactionHash": "0x532582c4f6abf56a1f91c4f52f034f555e7201dea2ec654701e5e51cf4cd010d",
      "transactionIndex": "0xe",
      "blockHash": "0x6924aba215bd50102670f90277d753c880ef0dccdb1f0ea2ebecb2a2c61df364",
      "blockNumber": "0x9bb2bfe",
      "gasUsed": "0x41cbd",
      "effectiveGasPrice": "0x7aef40a00",
      "from": "0x6faff29226219756aa40ce648dbc65fb41de5f72",
      "to": null,
      "contractAddress": "0xbb27fadd32001d1b1d42c1ba8cd3abf870f800f7"
    },
    {
      "status": "0x1",
      "cumulativeGasUsed": "0x2788f8",
      "logs": [],
      "logsBloom": "0x00000000000000000000000000000000000000000000000000000000000000000000000000000000000000000000000000000000000000000000000000000000000000000000000000000000000000000000000000000000000000000000000000000000000000000000000000000000000000000000000000000000000000000000000000000000000000000000000000000000000000000000000000000000000000000000000000000000000000000000000000000000000000000000000000000000000000000000000000000000000000000000000000000000000000000000000000000000000000000000000000000000000000000000000000000000",
      "type": "0x2",
      "transactionHash": "0xe1160e41fd0904d2ed2b7f0ffed579941334f1c41a16073f9790290944273ffd",
      "transactionIndex": "0xf",
      "blockHash": "0x6924aba215bd50102670f90277d753c880ef0dccdb1f0ea2ebecb2a2c61df364",
      "blockNumber": "0x9bb2bfe",
      "gasUsed": "0xd462",
      "effectiveGasPrice": "0x7aef40a00",
      "from": "0x6faff29226219756aa40ce648dbc65fb41de5f72",
      "to": "0x95ce14ee82410c4a7296205e0c663969703dc857",
      "contractAddress": null
    },
    {
      "status": "0x1",
      "cumulativeGasUsed": "0x2ba5b5",
      "logs": [],
      "logsBloom": "0x00000000000000000000000000000000000000000000000000000000000000000000000000000000000000000000000000000000000000000000000000000000000000000000000000000000000000000000000000000000000000000000000000000000000000000000000000000000000000000000000000000000000000000000000000000000000000000000000000000000000000000000000000000000000000000000000000000000000000000000000000000000000000000000000000000000000000000000000000000000000000000000000000000000000000000000000000000000000000000000000000000000000000000000000000000000",
      "type": "0x2",
      "transactionHash": "0x21e6edd2e8cd2d26bf0eb1832047ffee477aedbea304ed08ad72f5b7f280a890",
      "transactionIndex": "0x10",
      "blockHash": "0x6924aba215bd50102670f90277d753c880ef0dccdb1f0ea2ebecb2a2c61df364",
      "blockNumber": "0x9bb2bfe",
      "gasUsed": "0x41cbd",
      "effectiveGasPrice": "0x7aef40a00",
      "from": "0x6faff29226219756aa40ce648dbc65fb41de5f72",
      "to": null,
      "contractAddress": "0x2c474a3557bdef839e55b5263c8088f8f322e0ae"
    },
    {
      "status": "0x1",
      "cumulativeGasUsed": "0x2c7a17",
      "logs": [],
      "logsBloom": "0x00000000000000000000000000000000000000000000000000000000000000000000000000000000000000000000000000000000000000000000000000000000000000000000000000000000000000000000000000000000000000000000000000000000000000000000000000000000000000000000000000000000000000000000000000000000000000000000000000000000000000000000000000000000000000000000000000000000000000000000000000000000000000000000000000000000000000000000000000000000000000000000000000000000000000000000000000000000000000000000000000000000000000000000000000000000",
      "type": "0x2",
      "transactionHash": "0x074c0a40c3331c39dd66ae832bda5ee9beed7053f0e482f2cdc8ffbd09ad1068",
      "transactionIndex": "0x11",
      "blockHash": "0x6924aba215bd50102670f90277d753c880ef0dccdb1f0ea2ebecb2a2c61df364",
      "blockNumber": "0x9bb2bfe",
      "gasUsed": "0xd462",
      "effectiveGasPrice": "0x7aef40a00",
      "from": "0x6faff29226219756aa40ce648dbc65fb41de5f72",
      "to": "0x95ce14ee82410c4a7296205e0c663969703dc857",
      "contractAddress": null
    },
    {
      "status": "0x1",
      "cumulativeGasUsed": "0x3096d4",
      "logs": [],
      "logsBloom": "0x00000000000000000000000000000000000000000000000000000000000000000000000000000000000000000000000000000000000000000000000000000000000000000000000000000000000000000000000000000000000000000000000000000000000000000000000000000000000000000000000000000000000000000000000000000000000000000000000000000000000000000000000000000000000000000000000000000000000000000000000000000000000000000000000000000000000000000000000000000000000000000000000000000000000000000000000000000000000000000000000000000000000000000000000000000000",
      "type": "0x2",
      "transactionHash": "0x6316e1580ca7d0c8fe531628b24d6e5417d056100489f2fcc3235f6e6f47b8db",
      "transactionIndex": "0x12",
      "blockHash": "0x6924aba215bd50102670f90277d753c880ef0dccdb1f0ea2ebecb2a2c61df364",
      "blockNumber": "0x9bb2bfe",
      "gasUsed": "0x41cbd",
      "effectiveGasPrice": "0x7aef40a00",
      "from": "0x6faff29226219756aa40ce648dbc65fb41de5f72",
      "to": null,
      "contractAddress": "0x99bc90f72f700eae75b047c1a0786203811bae79"
    },
    {
      "status": "0x1",
      "cumulativeGasUsed": "0x316b36",
      "logs": [],
      "logsBloom": "0x00000000000000000000000000000000000000000000000000000000000000000000000000000000000000000000000000000000000000000000000000000000000000000000000000000000000000000000000000000000000000000000000000000000000000000000000000000000000000000000000000000000000000000000000000000000000000000000000000000000000000000000000000000000000000000000000000000000000000000000000000000000000000000000000000000000000000000000000000000000000000000000000000000000000000000000000000000000000000000000000000000000000000000000000000000000",
      "type": "0x2",
      "transactionHash": "0x81d6f56a0730b34201933d1997eaebbcd41d2e0be9767c36d1623d2ec0849656",
      "transactionIndex": "0x13",
      "blockHash": "0x6924aba215bd50102670f90277d753c880ef0dccdb1f0ea2ebecb2a2c61df364",
      "blockNumber": "0x9bb2bfe",
      "gasUsed": "0xd462",
      "effectiveGasPrice": "0x7aef40a00",
      "from": "0x6faff29226219756aa40ce648dbc65fb41de5f72",
      "to": "0x95ce14ee82410c4a7296205e0c663969703dc857",
      "contractAddress": null
    }
  ],
  "libraries": [],
  "pending": [],
  "returns": {},
  "timestamp": 1724843096,
  "chain": 1001,
  "commit": "cd51cc8"
}