{
  "transactions": [
    {
      "hash": "0xf8fc42c717d9a2bdb9c047155041a2a0089922bd1c25045da7e01b92460dd209",
      "transactionType": "CREATE",
      "contractName": "Vault",
      "contractAddress": "0x687144958f60cb2a8c3e2ac15a15e1b0b446e6e8",
      "function": null,
      "arguments": [
        "0x6570796368786c6b677300000000000000000000000000000000000000000000"
      ],
      "transaction": {
        "from": "0x6faff29226219756aa40ce648dbc65fb41de5f72",
        "gas": "0x6732a",
        "value": "0x0",
        "input": "0x60806040525f80546001600160a01b031916737be02decc3dc3be771d851fcf457bd9baa99010a1790553480156033575f80fd5b5060405161028f38038061028f8339810160408190526050916069565b5f805460ff60a01b1916600160a01b179055600155607f565b5f602082840312156078575f80fd5b5051919050565b6102038061008c5f395ff3fe608060405234801561000f575f80fd5b506004361061003f575f3560e01c8063701385a014610043578063cf3090121461004d578063ec9b5b3a14610074575b5f80fd5b61004b610087565b005b5f5461006090600160a01b900460ff1681565b604051901515815260200160405180910390f35b61004b6100823660046101c8565b610197565b5f54600160a01b900460ff1615156001036100b557604051635adc30c160e11b815260040160405180910390fd5b5f8054604051632f745c5960e01b8152306004820181905260248201939093526001600160a01b03909116916323b872dd9133908490632f745c5990604401602060405180830381865afa15801561010f573d5f803e3d5ffd5b505050506040513d601f19601f8201168201806040525081019061013391906101df565b6040516001600160e01b031960e086901b1681526001600160a01b03938416600482015292909116602483015260448201526064015f604051808303815f87803b15801561017f575f80fd5b505af1158015610191573d5f803e3d5ffd5b50505050565b80600154036101af575f805460ff60a01b1916905550565b604051635ee88f9760e01b815260040160405180910390fd5b5f602082840312156101d8575f80fd5b5035919050565b5f602082840312156101ef575f80fd5b505191905056fea164736f6c6343000819000a6570796368786c6b677300000000000000000000000000000000000000000000",
        "nonce": "0x2ae",
        "chainId": "0x3e9"
      },
      "additionalContracts": [],
      "isFixedGasLimit": false
    },
    {
      "hash": "0x5652ff2ba9e365975f4caff801a5238b2d132710b038c71b2c17c7313577f3e7",
      "transactionType": "CALL",
      "contractName": null,
      "contractAddress": "0x95ce14ee82410c4a7296205e0c663969703dc857",
      "function": "addGemCastle(address)",
      "arguments": [
        "0x687144958F60cB2a8c3e2AC15A15E1B0B446e6e8"
      ],
      "transaction": {
        "from": "0x6faff29226219756aa40ce648dbc65fb41de5f72",
        "to": "0x95ce14ee82410c4a7296205e0c663969703dc857",
        "gas": "0x1c204",
        "value": "0x0",
        "input": "0x5862c894000000000000000000000000687144958f60cb2a8c3e2ac15a15e1b0b446e6e8",
        "nonce": "0x2af",
        "chainId": "0x3e9"
      },
      "additionalContracts": [],
      "isFixedGasLimit": false
    },
    {
      "hash": "0xa3b0aa9f553187245ade02b8909cd97ca38afbc273bbb27ff9b74d924b771cdd",
      "transactionType": "CREATE",
      "contractName": "Vault",
      "contractAddress": "0xe1ee23f549d0443129a6264886d6b704ceb12a2f",
      "function": null,
      "arguments": [
        "0x6570796368786c6b677300000000000000000000000000000000000000000000"
      ],
      "transaction": {
        "from": "0x6faff29226219756aa40ce648dbc65fb41de5f72",
        "gas": "0x6732a",
        "value": "0x0",
        "input": "0x60806040525f80546001600160a01b031916737be02decc3dc3be771d851fcf457bd9baa99010a1790553480156033575f80fd5b5060405161028f38038061028f8339810160408190526050916069565b5f805460ff60a01b1916600160a01b179055600155607f565b5f602082840312156078575f80fd5b5051919050565b6102038061008c5f395ff3fe608060405234801561000f575f80fd5b506004361061003f575f3560e01c8063701385a014610043578063cf3090121461004d578063ec9b5b3a14610074575b5f80fd5b61004b610087565b005b5f5461006090600160a01b900460ff1681565b604051901515815260200160405180910390f35b61004b6100823660046101c8565b610197565b5f54600160a01b900460ff1615156001036100b557604051635adc30c160e11b815260040160405180910390fd5b5f8054604051632f745c5960e01b8152306004820181905260248201939093526001600160a01b03909116916323b872dd9133908490632f745c5990604401602060405180830381865afa15801561010f573d5f803e3d5ffd5b505050506040513d601f19601f8201168201806040525081019061013391906101df565b6040516001600160e01b031960e086901b1681526001600160a01b03938416600482015292909116602483015260448201526064015f604051808303815f87803b15801561017f575f80fd5b505af1158015610191573d5f803e3d5ffd5b50505050565b80600154036101af575f805460ff60a01b1916905550565b604051635ee88f9760e01b815260040160405180910390fd5b5f602082840312156101d8575f80fd5b5035919050565b5f602082840312156101ef575f80fd5b505191905056fea164736f6c6343000819000a6570796368786c6b677300000000000000000000000000000000000000000000",
        "nonce": "0x2b0",
        "chainId": "0x3e9"
      },
      "additionalContracts": [],
      "isFixedGasLimit": false
    },
    {
      "hash": "0xabc5cc323e870cd758e399a9334fa275cb81db0e9f5a6a13b22c4743c6185bd7",
      "transactionType": "CALL",
      "contractName": null,
      "contractAddress": "0x95ce14ee82410c4a7296205e0c663969703dc857",
      "function": "addGemCastle(address)",
      "arguments": [
        "0xE1eE23f549D0443129A6264886D6B704Ceb12a2f"
      ],
      "transaction": {
        "from": "0x6faff29226219756aa40ce648dbc65fb41de5f72",
        "to": "0x95ce14ee82410c4a7296205e0c663969703dc857",
        "gas": "0x1c204",
        "value": "0x0",
        "input": "0x5862c894000000000000000000000000e1ee23f549d0443129a6264886d6b704ceb12a2f",
        "nonce": "0x2b1",
        "chainId": "0x3e9"
      },
      "additionalContracts": [],
      "isFixedGasLimit": false
    },
    {
      "hash": "0x4af8eb645e042c52e36de5494f9166472320bb494a3cf45c2e37475ea3b87fb1",
      "transactionType": "CREATE",
      "contractName": "Vault",
      "contractAddress": "0x4c7c3aeeb0077dff85b19d7ca64877f95a84fab9",
      "function": null,
      "arguments": [
        "0x6570796368786c6b677300000000000000000000000000000000000000000000"
      ],
      "transaction": {
        "from": "0x6faff29226219756aa40ce648dbc65fb41de5f72",
        "gas": "0x6732a",
        "value": "0x0",
        "input": "0x60806040525f80546001600160a01b031916737be02decc3dc3be771d851fcf457bd9baa99010a1790553480156033575f80fd5b5060405161028f38038061028f8339810160408190526050916069565b5f805460ff60a01b1916600160a01b179055600155607f565b5f602082840312156078575f80fd5b5051919050565b6102038061008c5f395ff3fe608060405234801561000f575f80fd5b506004361061003f575f3560e01c8063701385a014610043578063cf3090121461004d578063ec9b5b3a14610074575b5f80fd5b61004b610087565b005b5f5461006090600160a01b900460ff1681565b604051901515815260200160405180910390f35b61004b6100823660046101c8565b610197565b5f54600160a01b900460ff1615156001036100b557604051635adc30c160e11b815260040160405180910390fd5b5f8054604051632f745c5960e01b8152306004820181905260248201939093526001600160a01b03909116916323b872dd9133908490632f745c5990604401602060405180830381865afa15801561010f573d5f803e3d5ffd5b505050506040513d601f19601f8201168201806040525081019061013391906101df565b6040516001600160e01b031960e086901b1681526001600160a01b03938416600482015292909116602483015260448201526064015f604051808303815f87803b15801561017f575f80fd5b505af1158015610191573d5f803e3d5ffd5b50505050565b80600154036101af575f805460ff60a01b1916905550565b604051635ee88f9760e01b815260040160405180910390fd5b5f602082840312156101d8575f80fd5b5035919050565b5f602082840312156101ef575f80fd5b505191905056fea164736f6c6343000819000a6570796368786c6b677300000000000000000000000000000000000000000000",
        "nonce": "0x2b2",
        "chainId": "0x3e9"
      },
      "additionalContracts": [],
      "isFixedGasLimit": false
    },
    {
      "hash": "0x27ebd8d2eb894a0f7a698d6500b057d00b10f81e59807f95b69a85019647ff5e",
      "transactionType": "CALL",
      "contractName": null,
      "contractAddress": "0x95ce14ee82410c4a7296205e0c663969703dc857",
      "function": "addGemCastle(address)",
      "arguments": [
        "0x4c7c3AEeB0077DFf85B19D7CA64877f95A84FaB9"
      ],
      "transaction": {
        "from": "0x6faff29226219756aa40ce648dbc65fb41de5f72",
        "to": "0x95ce14ee82410c4a7296205e0c663969703dc857",
        "gas": "0x1c204",
        "value": "0x0",
        "input": "0x5862c8940000000000000000000000004c7c3aeeb0077dff85b19d7ca64877f95a84fab9",
        "nonce": "0x2b3",
        "chainId": "0x3e9"
      },
      "additionalContracts": [],
      "isFixedGasLimit": false
    },
    {
      "hash": "0x0fb76cb12a2ed7a944cddb4bff83f96eac9dd3b0a2a7daa90bc4683d1824118b",
      "transactionType": "CREATE",
      "contractName": "Vault",
      "contractAddress": "0xef940d06cf6368c98745592d287dc34948031535",
      "function": null,
      "arguments": [
        "0x6570796368786c6b677300000000000000000000000000000000000000000000"
      ],
      "transaction": {
        "from": "0x6faff29226219756aa40ce648dbc65fb41de5f72",
        "gas": "0x6732a",
        "value": "0x0",
        "input": "0x60806040525f80546001600160a01b031916737be02decc3dc3be771d851fcf457bd9baa99010a1790553480156033575f80fd5b5060405161028f38038061028f8339810160408190526050916069565b5f805460ff60a01b1916600160a01b179055600155607f565b5f602082840312156078575f80fd5b5051919050565b6102038061008c5f395ff3fe608060405234801561000f575f80fd5b506004361061003f575f3560e01c8063701385a014610043578063cf3090121461004d578063ec9b5b3a14610074575b5f80fd5b61004b610087565b005b5f5461006090600160a01b900460ff1681565b604051901515815260200160405180910390f35b61004b6100823660046101c8565b610197565b5f54600160a01b900460ff1615156001036100b557604051635adc30c160e11b815260040160405180910390fd5b5f8054604051632f745c5960e01b8152306004820181905260248201939093526001600160a01b03909116916323b872dd9133908490632f745c5990604401602060405180830381865afa15801561010f573d5f803e3d5ffd5b505050506040513d601f19601f8201168201806040525081019061013391906101df565b6040516001600160e01b031960e086901b1681526001600160a01b03938416600482015292909116602483015260448201526064015f604051808303815f87803b15801561017f575f80fd5b505af1158015610191573d5f803e3d5ffd5b50505050565b80600154036101af575f805460ff60a01b1916905550565b604051635ee88f9760e01b815260040160405180910390fd5b5f602082840312156101d8575f80fd5b5035919050565b5f602082840312156101ef575f80fd5b505191905056fea164736f6c6343000819000a6570796368786c6b677300000000000000000000000000000000000000000000",
        "nonce": "0x2b4",
        "chainId": "0x3e9"
      },
      "additionalContracts": [],
      "isFixedGasLimit": false
    },
    {
      "hash": "0x77132371c8cf5b9fe1e2db938918d0d84d66bfbb154e0d00ff8a7eef192581b4",
      "transactionType": "CALL",
      "contractName": null,
      "contractAddress": "0x95ce14ee82410c4a7296205e0c663969703dc857",
      "function": "addGemCastle(address)",
      "arguments": [
        "0xef940D06Cf6368C98745592D287dC34948031535"
      ],
      "transaction": {
        "from": "0x6faff29226219756aa40ce648dbc65fb41de5f72",
        "to": "0x95ce14ee82410c4a7296205e0c663969703dc857",
        "gas": "0x1c204",
        "value": "0x0",
        "input": "0x5862c894000000000000000000000000ef940d06cf6368c98745592d287dc34948031535",
        "nonce": "0x2b5",
        "chainId": "0x3e9"
      },
      "additionalContracts": [],
      "isFixedGasLimit": false
    },
    {
      "hash": "0xab5ff2c71f027ec592279a370fbd91d92d4947c1b0ed2bc5dbbd89d85590d897",
      "transactionType": "CREATE",
      "contractName": "Vault",
      "contractAddress": "0x65278edbc8a7aa4bce5a574882bd135c3169fd06",
      "function": null,
      "arguments": [
        "0x6570796368786c6b677300000000000000000000000000000000000000000000"
      ],
      "transaction": {
        "from": "0x6faff29226219756aa40ce648dbc65fb41de5f72",
        "gas": "0x6732a",
        "value": "0x0",
        "input": "0x60806040525f80546001600160a01b031916737be02decc3dc3be771d851fcf457bd9baa99010a1790553480156033575f80fd5b5060405161028f38038061028f8339810160408190526050916069565b5f805460ff60a01b1916600160a01b179055600155607f565b5f602082840312156078575f80fd5b5051919050565b6102038061008c5f395ff3fe608060405234801561000f575f80fd5b506004361061003f575f3560e01c8063701385a014610043578063cf3090121461004d578063ec9b5b3a14610074575b5f80fd5b61004b610087565b005b5f5461006090600160a01b900460ff1681565b604051901515815260200160405180910390f35b61004b6100823660046101c8565b610197565b5f54600160a01b900460ff1615156001036100b557604051635adc30c160e11b815260040160405180910390fd5b5f8054604051632f745c5960e01b8152306004820181905260248201939093526001600160a01b03909116916323b872dd9133908490632f745c5990604401602060405180830381865afa15801561010f573d5f803e3d5ffd5b505050506040513d601f19601f8201168201806040525081019061013391906101df565b6040516001600160e01b031960e086901b1681526001600160a01b03938416600482015292909116602483015260448201526064015f604051808303815f87803b15801561017f575f80fd5b505af1158015610191573d5f803e3d5ffd5b50505050565b80600154036101af575f805460ff60a01b1916905550565b604051635ee88f9760e01b815260040160405180910390fd5b5f602082840312156101d8575f80fd5b5035919050565b5f602082840312156101ef575f80fd5b505191905056fea164736f6c6343000819000a6570796368786c6b677300000000000000000000000000000000000000000000",
        "nonce": "0x2b6",
        "chainId": "0x3e9"
      },
      "additionalContracts": [],
      "isFixedGasLimit": false
    },
    {
      "hash": "0x3b24d97a10681dbd4cbadc3131ce4871241353115c4ebdc07741e09099c14396",
      "transactionType": "CALL",
      "contractName": null,
      "contractAddress": "0x95ce14ee82410c4a7296205e0c663969703dc857",
      "function": "addGemCastle(address)",
      "arguments": [
        "0x65278EDBc8A7aa4BCe5A574882Bd135C3169fD06"
      ],
      "transaction": {
        "from": "0x6faff29226219756aa40ce648dbc65fb41de5f72",
        "to": "0x95ce14ee82410c4a7296205e0c663969703dc857",
        "gas": "0x1c204",
        "value": "0x0",
        "input": "0x5862c89400000000000000000000000065278edbc8a7aa4bce5a574882bd135c3169fd06",
        "nonce": "0x2b7",
        "chainId": "0x3e9"
      },
      "additionalContracts": [],
      "isFixedGasLimit": false
    },
    {
      "hash": "0xceebbd2565f715c21aa8126bae9c4fbe648cb14b2b2ae8930d7ee16e8aebc659",
      "transactionType": "CREATE",
      "contractName": "Vault",
      "contractAddress": "0xbdfd7ffc1613c100b46cf73c7a7f78fa43c76e52",
      "function": null,
      "arguments": [
        "0x6570796368786c6b677300000000000000000000000000000000000000000000"
      ],
      "transaction": {
        "from": "0x6faff29226219756aa40ce648dbc65fb41de5f72",
        "gas": "0x6732a",
        "value": "0x0",
        "input": "0x60806040525f80546001600160a01b031916737be02decc3dc3be771d851fcf457bd9baa99010a1790553480156033575f80fd5b5060405161028f38038061028f8339810160408190526050916069565b5f805460ff60a01b1916600160a01b179055600155607f565b5f602082840312156078575f80fd5b5051919050565b6102038061008c5f395ff3fe608060405234801561000f575f80fd5b506004361061003f575f3560e01c8063701385a014610043578063cf3090121461004d578063ec9b5b3a14610074575b5f80fd5b61004b610087565b005b5f5461006090600160a01b900460ff1681565b604051901515815260200160405180910390f35b61004b6100823660046101c8565b610197565b5f54600160a01b900460ff1615156001036100b557604051635adc30c160e11b815260040160405180910390fd5b5f8054604051632f745c5960e01b8152306004820181905260248201939093526001600160a01b03909116916323b872dd9133908490632f745c5990604401602060405180830381865afa15801561010f573d5f803e3d5ffd5b505050506040513d601f19601f8201168201806040525081019061013391906101df565b6040516001600160e01b031960e086901b1681526001600160a01b03938416600482015292909116602483015260448201526064015f604051808303815f87803b15801561017f575f80fd5b505af1158015610191573d5f803e3d5ffd5b50505050565b80600154036101af575f805460ff60a01b1916905550565b604051635ee88f9760e01b815260040160405180910390fd5b5f602082840312156101d8575f80fd5b5035919050565b5f602082840312156101ef575f80fd5b505191905056fea164736f6c6343000819000a6570796368786c6b677300000000000000000000000000000000000000000000",
        "nonce": "0x2b8",
        "chainId": "0x3e9"
      },
      "additionalContracts": [],
      "isFixedGasLimit": false
    },
    {
      "hash": "0xde6139a3e1ac10fb83d3d4a98884e435c7bc3d627e736fc9487ffb1e81b17fdc",
      "transactionType": "CALL",
      "contractName": null,
      "contractAddress": "0x95ce14ee82410c4a7296205e0c663969703dc857",
      "function": "addGemCastle(address)",
      "arguments": [
        "0xbdFd7fFc1613C100B46Cf73C7A7f78FA43C76e52"
      ],
      "transaction": {
        "from": "0x6faff29226219756aa40ce648dbc65fb41de5f72",
        "to": "0x95ce14ee82410c4a7296205e0c663969703dc857",
        "gas": "0x1a8ea",
        "value": "0x0",
        "input": "0x5862c894000000000000000000000000bdfd7ffc1613c100b46cf73c7a7f78fa43c76e52",
        "nonce": "0x2b9",
        "chainId": "0x3e9"
      },
      "additionalContracts": [],
      "isFixedGasLimit": false
    },
    {
      "hash": "0x55a2a81c36f3106b38a98e16ab4931c95914497e9d1995b3a9ee887e91198ba1",
      "transactionType": "CREATE",
      "contractName": "Vault",
      "contractAddress": "0xa70f5cbe88a44e250f03ad754a40eb9ed4a231b5",
      "function": null,
      "arguments": [
        "0x6570796368786c6b677300000000000000000000000000000000000000000000"
      ],
      "transaction": {
        "from": "0x6faff29226219756aa40ce648dbc65fb41de5f72",
        "gas": "0x6732a",
        "value": "0x0",
        "input": "0x60806040525f80546001600160a01b031916737be02decc3dc3be771d851fcf457bd9baa99010a1790553480156033575f80fd5b5060405161028f38038061028f8339810160408190526050916069565b5f805460ff60a01b1916600160a01b179055600155607f565b5f602082840312156078575f80fd5b5051919050565b6102038061008c5f395ff3fe608060405234801561000f575f80fd5b506004361061003f575f3560e01c8063701385a014610043578063cf3090121461004d578063ec9b5b3a14610074575b5f80fd5b61004b610087565b005b5f5461006090600160a01b900460ff1681565b604051901515815260200160405180910390f35b61004b6100823660046101c8565b610197565b5f54600160a01b900460ff1615156001036100b557604051635adc30c160e11b815260040160405180910390fd5b5f8054604051632f745c5960e01b8152306004820181905260248201939093526001600160a01b03909116916323b872dd9133908490632f745c5990604401602060405180830381865afa15801561010f573d5f803e3d5ffd5b505050506040513d601f19601f8201168201806040525081019061013391906101df565b6040516001600160e01b031960e086901b1681526001600160a01b03938416600482015292909116602483015260448201526064015f604051808303815f87803b15801561017f575f80fd5b505af1158015610191573d5f803e3d5ffd5b50505050565b80600154036101af575f805460ff60a01b1916905550565b604051635ee88f9760e01b815260040160405180910390fd5b5f602082840312156101d8575f80fd5b5035919050565b5f602082840312156101ef575f80fd5b505191905056fea164736f6c6343000819000a6570796368786c6b677300000000000000000000000000000000000000000000",
        "nonce": "0x2ba",
        "chainId": "0x3e9"
      },
      "additionalContracts": [],
      "isFixedGasLimit": false
    },
    {
      "hash": "0x8c96187762b61ce2ce97c129ab1461c65717aaf769de615f499d8c809b4f1e62",
      "transactionType": "CALL",
      "contractName": null,
      "contractAddress": "0x95ce14ee82410c4a7296205e0c663969703dc857",
      "function": "addGemCastle(address)",
      "arguments": [
        "0xa70F5CBe88A44e250F03ad754A40EB9ED4a231b5"
      ],
      "transaction": {
        "from": "0x6faff29226219756aa40ce648dbc65fb41de5f72",
        "to": "0x95ce14ee82410c4a7296205e0c663969703dc857",
        "gas": "0x1c204",
        "value": "0x0",
        "input": "0x5862c894000000000000000000000000a70f5cbe88a44e250f03ad754a40eb9ed4a231b5",
        "nonce": "0x2bb",
        "chainId": "0x3e9"
      },
      "additionalContracts": [],
      "isFixedGasLimit": false
    },
    {
      "hash": "0xe4f33470e37bf7756683ded8e96e9290362f5555fb4ffcea604c6b821e4b392a",
      "transactionType": "CREATE",
      "contractName": "Vault",
      "contractAddress": "0xd398fa82f1c16d859f576a1b40284aff74dd106d",
      "function": null,
      "arguments": [
        "0x6570796368786c6b677300000000000000000000000000000000000000000000"
      ],
      "transaction": {
        "from": "0x6faff29226219756aa40ce648dbc65fb41de5f72",
        "gas": "0x6732a",
        "value": "0x0",
        "input": "0x60806040525f80546001600160a01b031916737be02decc3dc3be771d851fcf457bd9baa99010a1790553480156033575f80fd5b5060405161028f38038061028f8339810160408190526050916069565b5f805460ff60a01b1916600160a01b179055600155607f565b5f602082840312156078575f80fd5b5051919050565b6102038061008c5f395ff3fe608060405234801561000f575f80fd5b506004361061003f575f3560e01c8063701385a014610043578063cf3090121461004d578063ec9b5b3a14610074575b5f80fd5b61004b610087565b005b5f5461006090600160a01b900460ff1681565b604051901515815260200160405180910390f35b61004b6100823660046101c8565b610197565b5f54600160a01b900460ff1615156001036100b557604051635adc30c160e11b815260040160405180910390fd5b5f8054604051632f745c5960e01b8152306004820181905260248201939093526001600160a01b03909116916323b872dd9133908490632f745c5990604401602060405180830381865afa15801561010f573d5f803e3d5ffd5b505050506040513d601f19601f8201168201806040525081019061013391906101df565b6040516001600160e01b031960e086901b1681526001600160a01b03938416600482015292909116602483015260448201526064015f604051808303815f87803b15801561017f575f80fd5b505af1158015610191573d5f803e3d5ffd5b50505050565b80600154036101af575f805460ff60a01b1916905550565b604051635ee88f9760e01b815260040160405180910390fd5b5f602082840312156101d8575f80fd5b5035919050565b5f602082840312156101ef575f80fd5b505191905056fea164736f6c6343000819000a6570796368786c6b677300000000000000000000000000000000000000000000",
        "nonce": "0x2bc",
        "chainId": "0x3e9"
      },
      "additionalContracts": [],
      "isFixedGasLimit": false
    },
    {
      "hash": "0xda37e18cdf22e1013dbc5d5b708dcadb6f3aa5207960cbb79db3b3e77766e2d9",
      "transactionType": "CALL",
      "contractName": null,
      "contractAddress": "0x95ce14ee82410c4a7296205e0c663969703dc857",
      "function": "addGemCastle(address)",
      "arguments": [
        "0xd398FA82F1c16D859F576a1b40284Aff74dd106d"
      ],
      "transaction": {
        "from": "0x6faff29226219756aa40ce648dbc65fb41de5f72",
        "to": "0x95ce14ee82410c4a7296205e0c663969703dc857",
        "gas": "0x1c204",
        "value": "0x0",
        "input": "0x5862c894000000000000000000000000d398fa82f1c16d859f576a1b40284aff74dd106d",
        "nonce": "0x2bd",
        "chainId": "0x3e9"
      },
      "additionalContracts": [],
      "isFixedGasLimit": false
    },
    {
      "hash": "0x82f4c8fcd82e62e8513472c472c2c344658c78c0b9a2a8c72949ab5616170700",
      "transactionType": "CREATE",
      "contractName": "Vault",
      "contractAddress": "0xb55c2c28603f015c4cec64ba3632734139a3e5e2",
      "function": null,
      "arguments": [
        "0x6570796368786c6b677300000000000000000000000000000000000000000000"
      ],
      "transaction": {
        "from": "0x6faff29226219756aa40ce648dbc65fb41de5f72",
        "gas": "0x6732a",
        "value": "0x0",
        "input": "0x60806040525f80546001600160a01b031916737be02decc3dc3be771d851fcf457bd9baa99010a1790553480156033575f80fd5b5060405161028f38038061028f8339810160408190526050916069565b5f805460ff60a01b1916600160a01b179055600155607f565b5f602082840312156078575f80fd5b5051919050565b6102038061008c5f395ff3fe608060405234801561000f575f80fd5b506004361061003f575f3560e01c8063701385a014610043578063cf3090121461004d578063ec9b5b3a14610074575b5f80fd5b61004b610087565b005b5f5461006090600160a01b900460ff1681565b604051901515815260200160405180910390f35b61004b6100823660046101c8565b610197565b5f54600160a01b900460ff1615156001036100b557604051635adc30c160e11b815260040160405180910390fd5b5f8054604051632f745c5960e01b8152306004820181905260248201939093526001600160a01b03909116916323b872dd9133908490632f745c5990604401602060405180830381865afa15801561010f573d5f803e3d5ffd5b505050506040513d601f19601f8201168201806040525081019061013391906101df565b6040516001600160e01b031960e086901b1681526001600160a01b03938416600482015292909116602483015260448201526064015f604051808303815f87803b15801561017f575f80fd5b505af1158015610191573d5f803e3d5ffd5b50505050565b80600154036101af575f805460ff60a01b1916905550565b604051635ee88f9760e01b815260040160405180910390fd5b5f602082840312156101d8575f80fd5b5035919050565b5f602082840312156101ef575f80fd5b505191905056fea164736f6c6343000819000a6570796368786c6b677300000000000000000000000000000000000000000000",
        "nonce": "0x2be",
        "chainId": "0x3e9"
      },
      "additionalContracts": [],
      "isFixedGasLimit": false
    },
    {
      "hash": "0x7d833f098e0c08a283c7cb90f4bb761a53daad3c1ac65712e0902dc31ae4cd4e",
      "transactionType": "CALL",
      "contractName": null,
      "contractAddress": "0x95ce14ee82410c4a7296205e0c663969703dc857",
      "function": "addGemCastle(address)",
      "arguments": [
        "0xB55c2c28603f015c4cEC64bA3632734139A3e5E2"
      ],
      "transaction": {
        "from": "0x6faff29226219756aa40ce648dbc65fb41de5f72",
        "to": "0x95ce14ee82410c4a7296205e0c663969703dc857",
        "gas": "0x1c204",
        "value": "0x0",
        "input": "0x5862c894000000000000000000000000b55c2c28603f015c4cec64ba3632734139a3e5e2",
        "nonce": "0x2bf",
        "chainId": "0x3e9"
      },
      "additionalContracts": [],
      "isFixedGasLimit": false
    },
    {
      "hash": "0x2d62d483238569e63667a2ea85b59a160a0b6e0bf454b84bbe9c9833809dd80f",
      "transactionType": "CREATE",
      "contractName": "Vault",
      "contractAddress": "0xb54b0ed2dcfdb910e7dbe9c186eb621769f1a2f1",
      "function": null,
      "arguments": [
        "0x6570796368786c6b677300000000000000000000000000000000000000000000"
      ],
      "transaction": {
        "from": "0x6faff29226219756aa40ce648dbc65fb41de5f72",
        "gas": "0x6732a",
        "value": "0x0",
        "input": "0x60806040525f80546001600160a01b031916737be02decc3dc3be771d851fcf457bd9baa99010a1790553480156033575f80fd5b5060405161028f38038061028f8339810160408190526050916069565b5f805460ff60a01b1916600160a01b179055600155607f565b5f602082840312156078575f80fd5b5051919050565b6102038061008c5f395ff3fe608060405234801561000f575f80fd5b506004361061003f575f3560e01c8063701385a014610043578063cf3090121461004d578063ec9b5b3a14610074575b5f80fd5b61004b610087565b005b5f5461006090600160a01b900460ff1681565b604051901515815260200160405180910390f35b61004b6100823660046101c8565b610197565b5f54600160a01b900460ff1615156001036100b557604051635adc30c160e11b815260040160405180910390fd5b5f8054604051632f745c5960e01b8152306004820181905260248201939093526001600160a01b03909116916323b872dd9133908490632f745c5990604401602060405180830381865afa15801561010f573d5f803e3d5ffd5b505050506040513d601f19601f8201168201806040525081019061013391906101df565b6040516001600160e01b031960e086901b1681526001600160a01b03938416600482015292909116602483015260448201526064015f604051808303815f87803b15801561017f575f80fd5b505af1158015610191573d5f803e3d5ffd5b50505050565b80600154036101af575f805460ff60a01b1916905550565b604051635ee88f9760e01b815260040160405180910390fd5b5f602082840312156101d8575f80fd5b5035919050565b5f602082840312156101ef575f80fd5b505191905056fea164736f6c6343000819000a6570796368786c6b677300000000000000000000000000000000000000000000",
        "nonce": "0x2c0",
        "chainId": "0x3e9"
      },
      "additionalContracts": [],
      "isFixedGasLimit": false
    },
    {
      "hash": "0x712175ca7ae5ef6d534c083e6ce99afb1c85b2634c2483e49e76f7bcd959549e",
      "transactionType": "CALL",
      "contractName": null,
      "contractAddress": "0x95ce14ee82410c4a7296205e0c663969703dc857",
      "function": "addGemCastle(address)",
      "arguments": [
        "0xB54b0ed2dcFDB910e7DBe9c186eB621769f1A2f1"
      ],
      "transaction": {
        "from": "0x6faff29226219756aa40ce648dbc65fb41de5f72",
        "to": "0x95ce14ee82410c4a7296205e0c663969703dc857",
        "gas": "0x1c204",
        "value": "0x0",
        "input": "0x5862c894000000000000000000000000b54b0ed2dcfdb910e7dbe9c186eb621769f1a2f1",
        "nonce": "0x2c1",
        "chainId": "0x3e9"
      },
      "additionalContracts": [],
      "isFixedGasLimit": false
    }
  ],
  "receipts": [
    {
      "status": "0x1",
      "cumulativeGasUsed": "0x41cbd",
      "logs": [],
      "logsBloom": "0x00000000000000000000000000000000000000000000000000000000000000000000000000000000000000000000000000000000000000000000000000000000000000000000000000000000000000000000000000000000000000000000000000000000000000000000000000000000000000000000000000000000000000000000000000000000000000000000000000000000000000000000000000000000000000000000000000000000000000000000000000000000000000000000000000000000000000000000000000000000000000000000000000000000000000000000000000000000000000000000000000000000000000000000000000000000",
      "type": "0x2",
      "transactionHash": "0xf8fc42c717d9a2bdb9c047155041a2a0089922bd1c25045da7e01b92460dd209",
      "transactionIndex": "0x0",
      "blockHash": "0x00a328e71a7ecaf2f26efcc16bfc1c63ef0926c0db27855aa1d2a4aced037f35",
      "blockNumber": "0x9bb2c59",
      "gasUsed": "0x41cbd",
      "effectiveGasPrice": "0x7aef40a00",
      "from": "0x6faff29226219756aa40ce648dbc65fb41de5f72",
      "to": null,
      "contractAddress": "0x687144958f60cb2a8c3e2ac15a15e1b0b446e6e8"
    },
    {
      "status": "0x1",
      "cumulativeGasUsed": "0x4f11f",
      "logs": [],
      "logsBloom": "0x00000000000000000000000000000000000000000000000000000000000000000000000000000000000000000000000000000000000000000000000000000000000000000000000000000000000000000000000000000000000000000000000000000000000000000000000000000000000000000000000000000000000000000000000000000000000000000000000000000000000000000000000000000000000000000000000000000000000000000000000000000000000000000000000000000000000000000000000000000000000000000000000000000000000000000000000000000000000000000000000000000000000000000000000000000000",
      "type": "0x2",
      "transactionHash": "0x5652ff2ba9e365975f4caff801a5238b2d132710b038c71b2c17c7313577f3e7",
      "transactionIndex": "0x1",
      "blockHash": "0x00a328e71a7ecaf2f26efcc16bfc1c63ef0926c0db27855aa1d2a4aced037f35",
      "blockNumber": "0x9bb2c59",
      "gasUsed": "0xd462",
      "effectiveGasPrice": "0x7aef40a00",
      "from": "0x6faff29226219756aa40ce648dbc65fb41de5f72",
      "to": "0x95ce14ee82410c4a7296205e0c663969703dc857",
      "contractAddress": null
    },
    {
      "status": "0x1",
      "cumulativeGasUsed": "0x90ddc",
      "logs": [],
      "logsBloom": "0x00000000000000000000000000000000000000000000000000000000000000000000000000000000000000000000000000000000000000000000000000000000000000000000000000000000000000000000000000000000000000000000000000000000000000000000000000000000000000000000000000000000000000000000000000000000000000000000000000000000000000000000000000000000000000000000000000000000000000000000000000000000000000000000000000000000000000000000000000000000000000000000000000000000000000000000000000000000000000000000000000000000000000000000000000000000",
      "type": "0x2",
      "transactionHash": "0xa3b0aa9f553187245ade02b8909cd97ca38afbc273bbb27ff9b74d924b771cdd",
      "transactionIndex": "0x2",
      "blockHash": "0x00a328e71a7ecaf2f26efcc16bfc1c63ef0926c0db27855aa1d2a4aced037f35",
      "blockNumber": "0x9bb2c59",
      "gasUsed": "0x41cbd",
      "effectiveGasPrice": "0x7aef40a00",
      "from": "0x6faff29226219756aa40ce648dbc65fb41de5f72",
      "to": null,
      "contractAddress": "0xe1ee23f549d0443129a6264886d6b704ceb12a2f"
    },
    {
      "status": "0x1",
      "cumulativeGasUsed": "0x9e23e",
      "logs": [],
      "logsBloom": "0x00000000000000000000000000000000000000000000000000000000000000000000000000000000000000000000000000000000000000000000000000000000000000000000000000000000000000000000000000000000000000000000000000000000000000000000000000000000000000000000000000000000000000000000000000000000000000000000000000000000000000000000000000000000000000000000000000000000000000000000000000000000000000000000000000000000000000000000000000000000000000000000000000000000000000000000000000000000000000000000000000000000000000000000000000000000",
      "type": "0x2",
      "transactionHash": "0xabc5cc323e870cd758e399a9334fa275cb81db0e9f5a6a13b22c4743c6185bd7",
      "transactionIndex": "0x3",
      "blockHash": "0x00a328e71a7ecaf2f26efcc16bfc1c63ef0926c0db27855aa1d2a4aced037f35",
      "blockNumber": "0x9bb2c59",
      "gasUsed": "0xd462",
      "effectiveGasPrice": "0x7aef40a00",
      "from": "0x6faff29226219756aa40ce648dbc65fb41de5f72",
      "to": "0x95ce14ee82410c4a7296205e0c663969703dc857",
      "contractAddress": null
    },
    {
      "status": "0x1",
      "cumulativeGasUsed": "0xdfefb",
      "logs": [],
      "logsBloom": "0x00000000000000000000000000000000000000000000000000000000000000000000000000000000000000000000000000000000000000000000000000000000000000000000000000000000000000000000000000000000000000000000000000000000000000000000000000000000000000000000000000000000000000000000000000000000000000000000000000000000000000000000000000000000000000000000000000000000000000000000000000000000000000000000000000000000000000000000000000000000000000000000000000000000000000000000000000000000000000000000000000000000000000000000000000000000",
      "type": "0x2",
      "transactionHash": "0x4af8eb645e042c52e36de5494f9166472320bb494a3cf45c2e37475ea3b87fb1",
      "transactionIndex": "0x4",
      "blockHash": "0x00a328e71a7ecaf2f26efcc16bfc1c63ef0926c0db27855aa1d2a4aced037f35",
      "blockNumber": "0x9bb2c59",
      "gasUsed": "0x41cbd",
      "effectiveGasPrice": "0x7aef40a00",
      "from": "0x6faff29226219756aa40ce648dbc65fb41de5f72",
      "to": null,
      "contractAddress": "0x4c7c3aeeb0077dff85b19d7ca64877f95a84fab9"
    },
    {
      "status": "0x1",
      "cumulativeGasUsed": "0xed35d",
      "logs": [],
      "logsBloom": "0x00000000000000000000000000000000000000000000000000000000000000000000000000000000000000000000000000000000000000000000000000000000000000000000000000000000000000000000000000000000000000000000000000000000000000000000000000000000000000000000000000000000000000000000000000000000000000000000000000000000000000000000000000000000000000000000000000000000000000000000000000000000000000000000000000000000000000000000000000000000000000000000000000000000000000000000000000000000000000000000000000000000000000000000000000000000",
      "type": "0x2",
      "transactionHash": "0x27ebd8d2eb894a0f7a698d6500b057d00b10f81e59807f95b69a85019647ff5e",
      "transactionIndex": "0x5",
      "blockHash": "0x00a328e71a7ecaf2f26efcc16bfc1c63ef0926c0db27855aa1d2a4aced037f35",
      "blockNumber": "0x9bb2c59",
      "gasUsed": "0xd462",
      "effectiveGasPrice": "0x7aef40a00",
      "from": "0x6faff29226219756aa40ce648dbc65fb41de5f72",
      "to": "0x95ce14ee82410c4a7296205e0c663969703dc857",
      "contractAddress": null
    },
    {
      "status": "0x1",
      "cumulativeGasUsed": "0x12f01a",
      "logs": [],
      "logsBloom": "0x00000000000000000000000000000000000000000000000000000000000000000000000000000000000000000000000000000000000000000000000000000000000000000000000000000000000000000000000000000000000000000000000000000000000000000000000000000000000000000000000000000000000000000000000000000000000000000000000000000000000000000000000000000000000000000000000000000000000000000000000000000000000000000000000000000000000000000000000000000000000000000000000000000000000000000000000000000000000000000000000000000000000000000000000000000000",
      "type": "0x2",
      "transactionHash": "0x0fb76cb12a2ed7a944cddb4bff83f96eac9dd3b0a2a7daa90bc4683d1824118b",
      "transactionIndex": "0x6",
      "blockHash": "0x00a328e71a7ecaf2f26efcc16bfc1c63ef0926c0db27855aa1d2a4aced037f35",
      "blockNumber": "0x9bb2c59",
      "gasUsed": "0x41cbd",
      "effectiveGasPrice": "0x7aef40a00",
      "from": "0x6faff29226219756aa40ce648dbc65fb41de5f72",
      "to": null,
      "contractAddress": "0xef940d06cf6368c98745592d287dc34948031535"
    },
    {
      "status": "0x1",
      "cumulativeGasUsed": "0x13c47c",
      "logs": [],
      "logsBloom": "0x00000000000000000000000000000000000000000000000000000000000000000000000000000000000000000000000000000000000000000000000000000000000000000000000000000000000000000000000000000000000000000000000000000000000000000000000000000000000000000000000000000000000000000000000000000000000000000000000000000000000000000000000000000000000000000000000000000000000000000000000000000000000000000000000000000000000000000000000000000000000000000000000000000000000000000000000000000000000000000000000000000000000000000000000000000000",
      "type": "0x2",
      "transactionHash": "0x77132371c8cf5b9fe1e2db938918d0d84d66bfbb154e0d00ff8a7eef192581b4",
      "transactionIndex": "0x7",
      "blockHash": "0x00a328e71a7ecaf2f26efcc16bfc1c63ef0926c0db27855aa1d2a4aced037f35",
      "blockNumber": "0x9bb2c59",
      "gasUsed": "0xd462",
      "effectiveGasPrice": "0x7aef40a00",
      "from": "0x6faff29226219756aa40ce648dbc65fb41de5f72",
      "to": "0x95ce14ee82410c4a7296205e0c663969703dc857",
      "contractAddress": null
    },
    {
      "status": "0x1",
      "cumulativeGasUsed": "0x17e139",
      "logs": [],
      "logsBloom": "0x00000000000000000000000000000000000000000000000000000000000000000000000000000000000000000000000000000000000000000000000000000000000000000000000000000000000000000000000000000000000000000000000000000000000000000000000000000000000000000000000000000000000000000000000000000000000000000000000000000000000000000000000000000000000000000000000000000000000000000000000000000000000000000000000000000000000000000000000000000000000000000000000000000000000000000000000000000000000000000000000000000000000000000000000000000000",
      "type": "0x2",
      "transactionHash": "0xab5ff2c71f027ec592279a370fbd91d92d4947c1b0ed2bc5dbbd89d85590d897",
      "transactionIndex": "0x8",
      "blockHash": "0x00a328e71a7ecaf2f26efcc16bfc1c63ef0926c0db27855aa1d2a4aced037f35",
      "blockNumber": "0x9bb2c59",
      "gasUsed": "0x41cbd",
      "effectiveGasPrice": "0x7aef40a00",
      "from": "0x6faff29226219756aa40ce648dbc65fb41de5f72",
      "to": null,
      "contractAddress": "0x65278edbc8a7aa4bce5a574882bd135c3169fd06"
    },
    {
      "status": "0x1",
      "cumulativeGasUsed": "0x18b59b",
      "logs": [],
      "logsBloom": "0x00000000000000000000000000000000000000000000000000000000000000000000000000000000000000000000000000000000000000000000000000000000000000000000000000000000000000000000000000000000000000000000000000000000000000000000000000000000000000000000000000000000000000000000000000000000000000000000000000000000000000000000000000000000000000000000000000000000000000000000000000000000000000000000000000000000000000000000000000000000000000000000000000000000000000000000000000000000000000000000000000000000000000000000000000000000",
      "type": "0x2",
      "transactionHash": "0x3b24d97a10681dbd4cbadc3131ce4871241353115c4ebdc07741e09099c14396",
      "transactionIndex": "0x9",
      "blockHash": "0x00a328e71a7ecaf2f26efcc16bfc1c63ef0926c0db27855aa1d2a4aced037f35",
      "blockNumber": "0x9bb2c59",
      "gasUsed": "0xd462",
      "effectiveGasPrice": "0x7aef40a00",
      "from": "0x6faff29226219756aa40ce648dbc65fb41de5f72",
      "to": "0x95ce14ee82410c4a7296205e0c663969703dc857",
      "contractAddress": null
    },
    {
      "status": "0x1",
      "cumulativeGasUsed": "0x1cd258",
      "logs": [],
      "logsBloom": "0x00000000000000000000000000000000000000000000000000000000000000000000000000000000000000000000000000000000000000000000000000000000000000000000000000000000000000000000000000000000000000000000000000000000000000000000000000000000000000000000000000000000000000000000000000000000000000000000000000000000000000000000000000000000000000000000000000000000000000000000000000000000000000000000000000000000000000000000000000000000000000000000000000000000000000000000000000000000000000000000000000000000000000000000000000000000",
      "type": "0x2",
      "transactionHash": "0xceebbd2565f715c21aa8126bae9c4fbe648cb14b2b2ae8930d7ee16e8aebc659",
      "transactionIndex": "0xa",
      "blockHash": "0x00a328e71a7ecaf2f26efcc16bfc1c63ef0926c0db27855aa1d2a4aced037f35",
      "blockNumber": "0x9bb2c59",
      "gasUsed": "0x41cbd",
      "effectiveGasPrice": "0x7aef40a00",
      "from": "0x6faff29226219756aa40ce648dbc65fb41de5f72",
      "to": null,
      "contractAddress": "0xbdfd7ffc1613c100b46cf73c7a7f78fa43c76e52"
    },
    {
      "status": "0x1",
      "cumulativeGasUsed": "0x1da6ba",
      "logs": [],
      "logsBloom": "0x00000000000000000000000000000000000000000000000000000000000000000000000000000000000000000000000000000000000000000000000000000000000000000000000000000000000000000000000000000000000000000000000000000000000000000000000000000000000000000000000000000000000000000000000000000000000000000000000000000000000000000000000000000000000000000000000000000000000000000000000000000000000000000000000000000000000000000000000000000000000000000000000000000000000000000000000000000000000000000000000000000000000000000000000000000000",
      "type": "0x2",
      "transactionHash": "0xde6139a3e1ac10fb83d3d4a98884e435c7bc3d627e736fc9487ffb1e81b17fdc",
      "transactionIndex": "0xb",
      "blockHash": "0x00a328e71a7ecaf2f26efcc16bfc1c63ef0926c0db27855aa1d2a4aced037f35",
      "blockNumber": "0x9bb2c59",
      "gasUsed": "0xd462",
      "effectiveGasPrice": "0x7aef40a00",
      "from": "0x6faff29226219756aa40ce648dbc65fb41de5f72",
      "to": "0x95ce14ee82410c4a7296205e0c663969703dc857",
      "contractAddress": null
    },
    {
      "status": "0x1",
      "cumulativeGasUsed": "0x21c377",
      "logs": [],
      "logsBloom": "0x00000000000000000000000000000000000000000000000000000000000000000000000000000000000000000000000000000000000000000000000000000000000000000000000000000000000000000000000000000000000000000000000000000000000000000000000000000000000000000000000000000000000000000000000000000000000000000000000000000000000000000000000000000000000000000000000000000000000000000000000000000000000000000000000000000000000000000000000000000000000000000000000000000000000000000000000000000000000000000000000000000000000000000000000000000000",
      "type": "0x2",
      "transactionHash": "0x55a2a81c36f3106b38a98e16ab4931c95914497e9d1995b3a9ee887e91198ba1",
      "transactionIndex": "0xc",
      "blockHash": "0x00a328e71a7ecaf2f26efcc16bfc1c63ef0926c0db27855aa1d2a4aced037f35",
      "blockNumber": "0x9bb2c59",
      "gasUsed": "0x41cbd",
      "effectiveGasPrice": "0x7aef40a00",
      "from": "0x6faff29226219756aa40ce648dbc65fb41de5f72",
      "to": null,
      "contractAddress": "0xa70f5cbe88a44e250f03ad754a40eb9ed4a231b5"
    },
    {
      "status": "0x1",
      "cumulativeGasUsed": "0x2297d9",
      "logs": [],
      "logsBloom": "0x00000000000000000000000000000000000000000000000000000000000000000000000000000000000000000000000000000000000000000000000000000000000000000000000000000000000000000000000000000000000000000000000000000000000000000000000000000000000000000000000000000000000000000000000000000000000000000000000000000000000000000000000000000000000000000000000000000000000000000000000000000000000000000000000000000000000000000000000000000000000000000000000000000000000000000000000000000000000000000000000000000000000000000000000000000000",
      "type": "0x2",
      "transactionHash": "0x8c96187762b61ce2ce97c129ab1461c65717aaf769de615f499d8c809b4f1e62",
      "transactionIndex": "0xd",
      "blockHash": "0x00a328e71a7ecaf2f26efcc16bfc1c63ef0926c0db27855aa1d2a4aced037f35",
      "blockNumber": "0x9bb2c59",
      "gasUsed": "0xd462",
      "effectiveGasPrice": "0x7aef40a00",
      "from": "0x6faff29226219756aa40ce648dbc65fb41de5f72",
      "to": "0x95ce14ee82410c4a7296205e0c663969703dc857",
      "contractAddress": null
    },
    {
      "status": "0x1",
      "cumulativeGasUsed": "0x26b496",
      "logs": [],
      "logsBloom": "0x00000000000000000000000000000000000000000000000000000000000000000000000000000000000000000000000000000000000000000000000000000000000000000000000000000000000000000000000000000000000000000000000000000000000000000000000000000000000000000000000000000000000000000000000000000000000000000000000000000000000000000000000000000000000000000000000000000000000000000000000000000000000000000000000000000000000000000000000000000000000000000000000000000000000000000000000000000000000000000000000000000000000000000000000000000000",
      "type": "0x2",
      "transactionHash": "0xe4f33470e37bf7756683ded8e96e9290362f5555fb4ffcea604c6b821e4b392a",
      "transactionIndex": "0xe",
      "blockHash": "0x00a328e71a7ecaf2f26efcc16bfc1c63ef0926c0db27855aa1d2a4aced037f35",
      "blockNumber": "0x9bb2c59",
      "gasUsed": "0x41cbd",
      "effectiveGasPrice": "0x7aef40a00",
      "from": "0x6faff29226219756aa40ce648dbc65fb41de5f72",
      "to": null,
      "contractAddress": "0xd398fa82f1c16d859f576a1b40284aff74dd106d"
    },
    {
      "status": "0x1",
      "cumulativeGasUsed": "0x2788f8",
      "logs": [],
      "logsBloom": "0x00000000000000000000000000000000000000000000000000000000000000000000000000000000000000000000000000000000000000000000000000000000000000000000000000000000000000000000000000000000000000000000000000000000000000000000000000000000000000000000000000000000000000000000000000000000000000000000000000000000000000000000000000000000000000000000000000000000000000000000000000000000000000000000000000000000000000000000000000000000000000000000000000000000000000000000000000000000000000000000000000000000000000000000000000000000",
      "type": "0x2",
      "transactionHash": "0xda37e18cdf22e1013dbc5d5b708dcadb6f3aa5207960cbb79db3b3e77766e2d9",
      "transactionIndex": "0xf",
      "blockHash": "0x00a328e71a7ecaf2f26efcc16bfc1c63ef0926c0db27855aa1d2a4aced037f35",
      "blockNumber": "0x9bb2c59",
      "gasUsed": "0xd462",
      "effectiveGasPrice": "0x7aef40a00",
      "from": "0x6faff29226219756aa40ce648dbc65fb41de5f72",
      "to": "0x95ce14ee82410c4a7296205e0c663969703dc857",
      "contractAddress": null
    },
    {
      "status": "0x1",
      "cumulativeGasUsed": "0x2ba5b5",
      "logs": [],
      "logsBloom": "0x00000000000000000000000000000000000000000000000000000000000000000000000000000000000000000000000000000000000000000000000000000000000000000000000000000000000000000000000000000000000000000000000000000000000000000000000000000000000000000000000000000000000000000000000000000000000000000000000000000000000000000000000000000000000000000000000000000000000000000000000000000000000000000000000000000000000000000000000000000000000000000000000000000000000000000000000000000000000000000000000000000000000000000000000000000000",
      "type": "0x2",
      "transactionHash": "0x82f4c8fcd82e62e8513472c472c2c344658c78c0b9a2a8c72949ab5616170700",
      "transactionIndex": "0x10",
      "blockHash": "0x00a328e71a7ecaf2f26efcc16bfc1c63ef0926c0db27855aa1d2a4aced037f35",
      "blockNumber": "0x9bb2c59",
      "gasUsed": "0x41cbd",
      "effectiveGasPrice": "0x7aef40a00",
      "from": "0x6faff29226219756aa40ce648dbc65fb41de5f72",
      "to": null,
      "contractAddress": "0xb55c2c28603f015c4cec64ba3632734139a3e5e2"
    },
    {
      "status": "0x1",
      "cumulativeGasUsed": "0x2c7a17",
      "logs": [],
      "logsBloom": "0x00000000000000000000000000000000000000000000000000000000000000000000000000000000000000000000000000000000000000000000000000000000000000000000000000000000000000000000000000000000000000000000000000000000000000000000000000000000000000000000000000000000000000000000000000000000000000000000000000000000000000000000000000000000000000000000000000000000000000000000000000000000000000000000000000000000000000000000000000000000000000000000000000000000000000000000000000000000000000000000000000000000000000000000000000000000",
      "type": "0x2",
      "transactionHash": "0x7d833f098e0c08a283c7cb90f4bb761a53daad3c1ac65712e0902dc31ae4cd4e",
      "transactionIndex": "0x11",
      "blockHash": "0x00a328e71a7ecaf2f26efcc16bfc1c63ef0926c0db27855aa1d2a4aced037f35",
      "blockNumber": "0x9bb2c59",
      "gasUsed": "0xd462",
      "effectiveGasPrice": "0x7aef40a00",
      "from": "0x6faff29226219756aa40ce648dbc65fb41de5f72",
      "to": "0x95ce14ee82410c4a7296205e0c663969703dc857",
      "contractAddress": null
    },
    {
      "status": "0x1",
      "cumulativeGasUsed": "0x3096d4",
      "logs": [],
      "logsBloom": "0x00000000000000000000000000000000000000000000000000000000000000000000000000000000000000000000000000000000000000000000000000000000000000000000000000000000000000000000000000000000000000000000000000000000000000000000000000000000000000000000000000000000000000000000000000000000000000000000000000000000000000000000000000000000000000000000000000000000000000000000000000000000000000000000000000000000000000000000000000000000000000000000000000000000000000000000000000000000000000000000000000000000000000000000000000000000",
      "type": "0x2",
      "transactionHash": "0x2d62d483238569e63667a2ea85b59a160a0b6e0bf454b84bbe9c9833809dd80f",
      "transactionIndex": "0x12",
      "blockHash": "0x00a328e71a7ecaf2f26efcc16bfc1c63ef0926c0db27855aa1d2a4aced037f35",
      "blockNumber": "0x9bb2c59",
      "gasUsed": "0x41cbd",
      "effectiveGasPrice": "0x7aef40a00",
      "from": "0x6faff29226219756aa40ce648dbc65fb41de5f72",
      "to": null,
      "contractAddress": "0xb54b0ed2dcfdb910e7dbe9c186eb621769f1a2f1"
    },
    {
      "status": "0x1",
      "cumulativeGasUsed": "0x316b36",
      "logs": [],
      "logsBloom": "0x00000000000000000000000000000000000000000000000000000000000000000000000000000000000000000000000000000000000000000000000000000000000000000000000000000000000000000000000000000000000000000000000000000000000000000000000000000000000000000000000000000000000000000000000000000000000000000000000000000000000000000000000000000000000000000000000000000000000000000000000000000000000000000000000000000000000000000000000000000000000000000000000000000000000000000000000000000000000000000000000000000000000000000000000000000000",
      "type": "0x2",
      "transactionHash": "0x712175ca7ae5ef6d534c083e6ce99afb1c85b2634c2483e49e76f7bcd959549e",
      "transactionIndex": "0x13",
      "blockHash": "0x00a328e71a7ecaf2f26efcc16bfc1c63ef0926c0db27855aa1d2a4aced037f35",
      "blockNumber": "0x9bb2c59",
      "gasUsed": "0xd462",
      "effectiveGasPrice": "0x7aef40a00",
      "from": "0x6faff29226219756aa40ce648dbc65fb41de5f72",
      "to": "0x95ce14ee82410c4a7296205e0c663969703dc857",
      "contractAddress": null
    }
  ],
  "libraries": [],
  "pending": [],
  "returns": {},
  "timestamp": 1724843187,
  "chain": 1001,
  "commit": "cd51cc8"
}