{
  "transactions": [
    {
      "hash": "0x8b4e63662075d38fc377e08861d9efa0363d8c88ebb91622a8583f02bbaca06a",
      "transactionType": "CREATE",
      "contractName": "BanditFort",
      "contractAddress": "0xac6ed3b091618dd67c7edd4b2b661942e41db54e",
      "function": null,
      "arguments": null,
      "transaction": {
        "from": "0x6faff29226219756aa40ce648dbc65fb41de5f72",
        "gas": "0x522fc",
        "value": "0x0",
        "input": "0x6080604052600280546001600160a01b0319908116339081179092555f805490911690911790553460015561013b806100375f395ff3fe608060405260043610610036575f3560e01c80638da5cb5b146100b3578063b86cf42d146100ef578063e3ac5d261461010b575f80fd5b366100af576001543410158061005657506002546001600160a01b031633145b61005e575f80fd5b5f80546040516001600160a01b03909116913480156108fc02929091818181858888f19350505050158015610095573d5f803e3d5ffd5b505f80546001600160a01b03191633179055346001819055005b5f80fd5b3480156100be575f80fd5b506002546100d2906001600160a01b031681565b6040516001600160a01b0390911681526020015b60405180910390f35b3480156100fa575f80fd5b505f546001600160a01b03166100d2565b348015610116575f80fd5b5061012060015481565b6040519081526020016100e656fea164736f6c6343000819000a",
        "nonce": "0x312",
        "chainId": "0x3e9"
      },
      "additionalContracts": [],
      "isFixedGasLimit": false
    },
    {
      "hash": "0xffd616add2b47d296533f15b7849641d79eb4cf8fb57e7d292162d825464dd8f",
      "transactionType": "CALL",
      "contractName": null,
      "contractAddress": "0x95ce14ee82410c4a7296205e0c663969703dc857",
      "function": "addBanditFort(address)",
      "arguments": [
        "0xaC6ED3b091618DD67c7EdD4B2B661942e41dB54E"
      ],
      "transaction": {
        "from": "0x6faff29226219756aa40ce648dbc65fb41de5f72",
        "to": "0x95ce14ee82410c4a7296205e0c663969703dc857",
        "gas": "0x1a930",
        "value": "0x0",
        "input": "0xb32a9302000000000000000000000000ac6ed3b091618dd67c7edd4b2b661942e41db54e",
        "nonce": "0x313",
        "chainId": "0x3e9"
      },
      "additionalContracts": [],
      "isFixedGasLimit": false
    },
    {
      "hash": "0x1b778f753dc34cccf16416b2e8b491c2a1c1535ba365ed0273fafe8d69fc4828",
      "transactionType": "CREATE",
      "contractName": "BanditFort",
      "contractAddress": "0x6d8e9a4b71fef7e881b774fd1dd6683cd12150ef",
      "function": null,
      "arguments": null,
      "transaction": {
        "from": "0x6faff29226219756aa40ce648dbc65fb41de5f72",
        "gas": "0x522fc",
        "value": "0x0",
        "input": "0x6080604052600280546001600160a01b0319908116339081179092555f805490911690911790553460015561013b806100375f395ff3fe608060405260043610610036575f3560e01c80638da5cb5b146100b3578063b86cf42d146100ef578063e3ac5d261461010b575f80fd5b366100af576001543410158061005657506002546001600160a01b031633145b61005e575f80fd5b5f80546040516001600160a01b03909116913480156108fc02929091818181858888f19350505050158015610095573d5f803e3d5ffd5b505f80546001600160a01b03191633179055346001819055005b5f80fd5b3480156100be575f80fd5b506002546100d2906001600160a01b031681565b6040516001600160a01b0390911681526020015b60405180910390f35b3480156100fa575f80fd5b505f546001600160a01b03166100d2565b348015610116575f80fd5b5061012060015481565b6040519081526020016100e656fea164736f6c6343000819000a",
        "nonce": "0x314",
        "chainId": "0x3e9"
      },
      "additionalContracts": [],
      "isFixedGasLimit": false
    },
    {
      "hash": "0x720c0082b0385c0554b878f1ce90a6cc1ab386c734ca3558e2c7cba18b6014c6",
      "transactionType": "CALL",
      "contractName": null,
      "contractAddress": "0x95ce14ee82410c4a7296205e0c663969703dc857",
      "function": "addBanditFort(address)",
      "arguments": [
        "0x6d8e9A4b71fEF7E881b774fD1dd6683cD12150ef"
      ],
      "transaction": {
        "from": "0x6faff29226219756aa40ce648dbc65fb41de5f72",
        "to": "0x95ce14ee82410c4a7296205e0c663969703dc857",
        "gas": "0x1a930",
        "value": "0x0",
        "input": "0xb32a93020000000000000000000000006d8e9a4b71fef7e881b774fd1dd6683cd12150ef",
        "nonce": "0x315",
        "chainId": "0x3e9"
      },
      "additionalContracts": [],
      "isFixedGasLimit": false
    },
    {
      "hash": "0xcfa4620731faf8111c0adc3d7898f46b7cb61e0cdad9c702d8092eff077d3c1f",
      "transactionType": "CREATE",
      "contractName": "BanditFort",
      "contractAddress": "0xd3fe9292cba7704444d2e70731508cab922160d5",
      "function": null,
      "arguments": null,
      "transaction": {
        "from": "0x6faff29226219756aa40ce648dbc65fb41de5f72",
        "gas": "0x522fc",
        "value": "0x0",
        "input": "0x6080604052600280546001600160a01b0319908116339081179092555f805490911690911790553460015561013b806100375f395ff3fe608060405260043610610036575f3560e01c80638da5cb5b146100b3578063b86cf42d146100ef578063e3ac5d261461010b575f80fd5b366100af576001543410158061005657506002546001600160a01b031633145b61005e575f80fd5b5f80546040516001600160a01b03909116913480156108fc02929091818181858888f19350505050158015610095573d5f803e3d5ffd5b505f80546001600160a01b03191633179055346001819055005b5f80fd5b3480156100be575f80fd5b506002546100d2906001600160a01b031681565b6040516001600160a01b0390911681526020015b60405180910390f35b3480156100fa575f80fd5b505f546001600160a01b03166100d2565b348015610116575f80fd5b5061012060015481565b6040519081526020016100e656fea164736f6c6343000819000a",
        "nonce": "0x316",
        "chainId": "0x3e9"
      },
      "additionalContracts": [],
      "isFixedGasLimit": false
    },
    {
      "hash": "0x6a85be4fe0c404061b6d3f4ca54117417a4abb2cbdc1feda872e0de948265bb3",
      "transactionType": "CALL",
      "contractName": null,
      "contractAddress": "0x95ce14ee82410c4a7296205e0c663969703dc857",
      "function": "addBanditFort(address)",
      "arguments": [
        "0xd3Fe9292CBa7704444d2e70731508Cab922160D5"
      ],
      "transaction": {
        "from": "0x6faff29226219756aa40ce648dbc65fb41de5f72",
        "to": "0x95ce14ee82410c4a7296205e0c663969703dc857",
        "gas": "0x1a930",
        "value": "0x0",
        "input": "0xb32a9302000000000000000000000000d3fe9292cba7704444d2e70731508cab922160d5",
        "nonce": "0x317",
        "chainId": "0x3e9"
      },
      "additionalContracts": [],
      "isFixedGasLimit": false
    },
    {
      "hash": "0x96bc64a44a9b518492075aed29471969560aa4fddb84b0be8b94d628f2256116",
      "transactionType": "CREATE",
      "contractName": "BanditFort",
      "contractAddress": "0xeb5caf353c70b8b875c057aca9269017492e8bf5",
      "function": null,
      "arguments": null,
      "transaction": {
        "from": "0x6faff29226219756aa40ce648dbc65fb41de5f72",
        "gas": "0x522fc",
        "value": "0x0",
        "input": "0x6080604052600280546001600160a01b0319908116339081179092555f805490911690911790553460015561013b806100375f395ff3fe608060405260043610610036575f3560e01c80638da5cb5b146100b3578063b86cf42d146100ef578063e3ac5d261461010b575f80fd5b366100af576001543410158061005657506002546001600160a01b031633145b61005e575f80fd5b5f80546040516001600160a01b03909116913480156108fc02929091818181858888f19350505050158015610095573d5f803e3d5ffd5b505f80546001600160a01b03191633179055346001819055005b5f80fd5b3480156100be575f80fd5b506002546100d2906001600160a01b031681565b6040516001600160a01b0390911681526020015b60405180910390f35b3480156100fa575f80fd5b505f546001600160a01b03166100d2565b348015610116575f80fd5b5061012060015481565b6040519081526020016100e656fea164736f6c6343000819000a",
        "nonce": "0x318",
        "chainId": "0x3e9"
      },
      "additionalContracts": [],
      "isFixedGasLimit": false
    },
    {
      "hash": "0xfdf84ce39cab01322d585ad3065b1b42b62292eccce0adbbc68c2ec1c98acb42",
      "transactionType": "CALL",
      "contractName": null,
      "contractAddress": "0x95ce14ee82410c4a7296205e0c663969703dc857",
      "function": "addBanditFort(address)",
      "arguments": [
        "0xEb5cAF353C70b8B875C057aca9269017492e8bF5"
      ],
      "transaction": {
        "from": "0x6faff29226219756aa40ce648dbc65fb41de5f72",
        "to": "0x95ce14ee82410c4a7296205e0c663969703dc857",
        "gas": "0x1a930",
        "value": "0x0",
        "input": "0xb32a9302000000000000000000000000eb5caf353c70b8b875c057aca9269017492e8bf5",
        "nonce": "0x319",
        "chainId": "0x3e9"
      },
      "additionalContracts": [],
      "isFixedGasLimit": false
    },
    {
      "hash": "0x1d90aec4c080fce4264c8889bd4d67cb7178614bf871541f7b26a36356579bbd",
      "transactionType": "CREATE",
      "contractName": "BanditFort",
      "contractAddress": "0xa2addfab54ce0b504f17c7fbcd1c811c1793b31a",
      "function": null,
      "arguments": null,
      "transaction": {
        "from": "0x6faff29226219756aa40ce648dbc65fb41de5f72",
        "gas": "0x522fc",
        "value": "0x0",
        "input": "0x6080604052600280546001600160a01b0319908116339081179092555f805490911690911790553460015561013b806100375f395ff3fe608060405260043610610036575f3560e01c80638da5cb5b146100b3578063b86cf42d146100ef578063e3ac5d261461010b575f80fd5b366100af576001543410158061005657506002546001600160a01b031633145b61005e575f80fd5b5f80546040516001600160a01b03909116913480156108fc02929091818181858888f19350505050158015610095573d5f803e3d5ffd5b505f80546001600160a01b03191633179055346001819055005b5f80fd5b3480156100be575f80fd5b506002546100d2906001600160a01b031681565b6040516001600160a01b0390911681526020015b60405180910390f35b3480156100fa575f80fd5b505f546001600160a01b03166100d2565b348015610116575f80fd5b5061012060015481565b6040519081526020016100e656fea164736f6c6343000819000a",
        "nonce": "0x31a",
        "chainId": "0x3e9"
      },
      "additionalContracts": [],
      "isFixedGasLimit": false
    },
    {
      "hash": "0x3c71ef6200a0860d1b926a2411612d89cb1cf626e313ad7949f46579d2fd695a",
      "transactionType": "CALL",
      "contractName": null,
      "contractAddress": "0x95ce14ee82410c4a7296205e0c663969703dc857",
      "function": "addBanditFort(address)",
      "arguments": [
        "0xA2aDDfaB54CE0b504f17c7fBCD1C811c1793B31A"
      ],
      "transaction": {
        "from": "0x6faff29226219756aa40ce648dbc65fb41de5f72",
        "to": "0x95ce14ee82410c4a7296205e0c663969703dc857",
        "gas": "0x1a930",
        "value": "0x0",
        "input": "0xb32a9302000000000000000000000000a2addfab54ce0b504f17c7fbcd1c811c1793b31a",
        "nonce": "0x31b",
        "chainId": "0x3e9"
      },
      "additionalContracts": [],
      "isFixedGasLimit": false
    },
    {
      "hash": "0xa29cd6b581b6402fc10b880fc02c5e75aa649a14b8b5dd2314f6b79814bb51ab",
      "transactionType": "CREATE",
      "contractName": "BanditFort",
      "contractAddress": "0xf6827ab6db73421f8a992694b3b557a970ddf1ea",
      "function": null,
      "arguments": null,
      "transaction": {
        "from": "0x6faff29226219756aa40ce648dbc65fb41de5f72",
        "gas": "0x522fc",
        "value": "0x0",
        "input": "0x6080604052600280546001600160a01b0319908116339081179092555f805490911690911790553460015561013b806100375f395ff3fe608060405260043610610036575f3560e01c80638da5cb5b146100b3578063b86cf42d146100ef578063e3ac5d261461010b575f80fd5b366100af576001543410158061005657506002546001600160a01b031633145b61005e575f80fd5b5f80546040516001600160a01b03909116913480156108fc02929091818181858888f19350505050158015610095573d5f803e3d5ffd5b505f80546001600160a01b03191633179055346001819055005b5f80fd5b3480156100be575f80fd5b506002546100d2906001600160a01b031681565b6040516001600160a01b0390911681526020015b60405180910390f35b3480156100fa575f80fd5b505f546001600160a01b03166100d2565b348015610116575f80fd5b5061012060015481565b6040519081526020016100e656fea164736f6c6343000819000a",
        "nonce": "0x31c",
        "chainId": "0x3e9"
      },
      "additionalContracts": [],
      "isFixedGasLimit": false
    },
    {
      "hash": "0x969c426ee66725643f054f7eec3025b3039c68d5c0913a17e39acb0c23fe61d3",
      "transactionType": "CALL",
      "contractName": null,
      "contractAddress": "0x95ce14ee82410c4a7296205e0c663969703dc857",
      "function": "addBanditFort(address)",
      "arguments": [
        "0xF6827ab6dB73421F8A992694B3b557a970ddF1ea"
      ],
      "transaction": {
        "from": "0x6faff29226219756aa40ce648dbc65fb41de5f72",
        "to": "0x95ce14ee82410c4a7296205e0c663969703dc857",
        "gas": "0x1a930",
        "value": "0x0",
        "input": "0xb32a9302000000000000000000000000f6827ab6db73421f8a992694b3b557a970ddf1ea",
        "nonce": "0x31d",
        "chainId": "0x3e9"
      },
      "additionalContracts": [],
      "isFixedGasLimit": false
    },
    {
      "hash": "0x75c8967044346f796d9a274ad63682c49dd80a95415ba8a60fde3e2361a7ef0d",
      "transactionType": "CREATE",
      "contractName": "BanditFort",
      "contractAddress": "0x6f4dcb2cc630578330b4ecc282cd2bbb342b0d4f",
      "function": null,
      "arguments": null,
      "transaction": {
        "from": "0x6faff29226219756aa40ce648dbc65fb41de5f72",
        "gas": "0x522fc",
        "value": "0x0",
        "input": "0x6080604052600280546001600160a01b0319908116339081179092555f805490911690911790553460015561013b806100375f395ff3fe608060405260043610610036575f3560e01c80638da5cb5b146100b3578063b86cf42d146100ef578063e3ac5d261461010b575f80fd5b366100af576001543410158061005657506002546001600160a01b031633145b61005e575f80fd5b5f80546040516001600160a01b03909116913480156108fc02929091818181858888f19350505050158015610095573d5f803e3d5ffd5b505f80546001600160a01b03191633179055346001819055005b5f80fd5b3480156100be575f80fd5b506002546100d2906001600160a01b031681565b6040516001600160a01b0390911681526020015b60405180910390f35b3480156100fa575f80fd5b505f546001600160a01b03166100d2565b348015610116575f80fd5b5061012060015481565b6040519081526020016100e656fea164736f6c6343000819000a",
        "nonce": "0x31e",
        "chainId": "0x3e9"
      },
      "additionalContracts": [],
      "isFixedGasLimit": false
    },
    {
      "hash": "0xf7b473ed3fce81eba86c57b4341262e5d0779697176cdf030c2308396450303b",
      "transactionType": "CALL",
      "contractName": null,
      "contractAddress": "0x95ce14ee82410c4a7296205e0c663969703dc857",
      "function": "addBanditFort(address)",
      "arguments": [
        "0x6f4DCb2CC630578330B4EcC282cd2Bbb342b0d4f"
      ],
      "transaction": {
        "from": "0x6faff29226219756aa40ce648dbc65fb41de5f72",
        "to": "0x95ce14ee82410c4a7296205e0c663969703dc857",
        "gas": "0x1a930",
        "value": "0x0",
        "input": "0xb32a93020000000000000000000000006f4dcb2cc630578330b4ecc282cd2bbb342b0d4f",
        "nonce": "0x31f",
        "chainId": "0x3e9"
      },
      "additionalContracts": [],
      "isFixedGasLimit": false
    },
    {
      "hash": "0x62244e32d4de4a37cdca27f5f0cd45f899cd99f82a19ac82e5b3c5470895039d",
      "transactionType": "CREATE",
      "contractName": "BanditFort",
      "contractAddress": "0xb91ca0671d833c81f0532862a82299f3c1a11b80",
      "function": null,
      "arguments": null,
      "transaction": {
        "from": "0x6faff29226219756aa40ce648dbc65fb41de5f72",
        "gas": "0x522fc",
        "value": "0x0",
        "input": "0x6080604052600280546001600160a01b0319908116339081179092555f805490911690911790553460015561013b806100375f395ff3fe608060405260043610610036575f3560e01c80638da5cb5b146100b3578063b86cf42d146100ef578063e3ac5d261461010b575f80fd5b366100af576001543410158061005657506002546001600160a01b031633145b61005e575f80fd5b5f80546040516001600160a01b03909116913480156108fc02929091818181858888f19350505050158015610095573d5f803e3d5ffd5b505f80546001600160a01b03191633179055346001819055005b5f80fd5b3480156100be575f80fd5b506002546100d2906001600160a01b031681565b6040516001600160a01b0390911681526020015b60405180910390f35b3480156100fa575f80fd5b505f546001600160a01b03166100d2565b348015610116575f80fd5b5061012060015481565b6040519081526020016100e656fea164736f6c6343000819000a",
        "nonce": "0x320",
        "chainId": "0x3e9"
      },
      "additionalContracts": [],
      "isFixedGasLimit": false
    },
    {
      "hash": "0x7ca9e9c3512d0dccdc5a7a64f364b8150f6102d8585983e1d0a32dfa28dcfa86",
      "transactionType": "CALL",
      "contractName": null,
      "contractAddress": "0x95ce14ee82410c4a7296205e0c663969703dc857",
      "function": "addBanditFort(address)",
      "arguments": [
        "0xB91cA0671D833c81F0532862A82299f3C1a11b80"
      ],
      "transaction": {
        "from": "0x6faff29226219756aa40ce648dbc65fb41de5f72",
        "to": "0x95ce14ee82410c4a7296205e0c663969703dc857",
        "gas": "0x1a930",
        "value": "0x0",
        "input": "0xb32a9302000000000000000000000000b91ca0671d833c81f0532862a82299f3c1a11b80",
        "nonce": "0x321",
        "chainId": "0x3e9"
      },
      "additionalContracts": [],
      "isFixedGasLimit": false
    },
    {
      "hash": "0x49f256e411488675661ecbba40208b6e120a6b023bd00638bb58a240e7beebec",
      "transactionType": "CREATE",
      "contractName": "BanditFort",
      "contractAddress": "0x075337f775fcb991da60020f1e3ffa51d97415ad",
      "function": null,
      "arguments": null,
      "transaction": {
        "from": "0x6faff29226219756aa40ce648dbc65fb41de5f72",
        "gas": "0x522fc",
        "value": "0x0",
        "input": "0x6080604052600280546001600160a01b0319908116339081179092555f805490911690911790553460015561013b806100375f395ff3fe608060405260043610610036575f3560e01c80638da5cb5b146100b3578063b86cf42d146100ef578063e3ac5d261461010b575f80fd5b366100af576001543410158061005657506002546001600160a01b031633145b61005e575f80fd5b5f80546040516001600160a01b03909116913480156108fc02929091818181858888f19350505050158015610095573d5f803e3d5ffd5b505f80546001600160a01b03191633179055346001819055005b5f80fd5b3480156100be575f80fd5b506002546100d2906001600160a01b031681565b6040516001600160a01b0390911681526020015b60405180910390f35b3480156100fa575f80fd5b505f546001600160a01b03166100d2565b348015610116575f80fd5b5061012060015481565b6040519081526020016100e656fea164736f6c6343000819000a",
        "nonce": "0x322",
        "chainId": "0x3e9"
      },
      "additionalContracts": [],
      "isFixedGasLimit": false
    },
    {
      "hash": "0x0789ca2c7206f98788d2d8feb5b30c111a04d34a277ac017fc94856119cd615f",
      "transactionType": "CALL",
      "contractName": null,
      "contractAddress": "0x95ce14ee82410c4a7296205e0c663969703dc857",
      "function": "addBanditFort(address)",
      "arguments": [
        "0x075337f775Fcb991DA60020f1e3fFa51D97415AD"
      ],
      "transaction": {
        "from": "0x6faff29226219756aa40ce648dbc65fb41de5f72",
        "to": "0x95ce14ee82410c4a7296205e0c663969703dc857",
        "gas": "0x1a930",
        "value": "0x0",
        "input": "0xb32a9302000000000000000000000000075337f775fcb991da60020f1e3ffa51d97415ad",
        "nonce": "0x323",
        "chainId": "0x3e9"
      },
      "additionalContracts": [],
      "isFixedGasLimit": false
    },
    {
      "hash": "0x4251705756a0971b50994cf472905b4f59e4876c66cb930c6732472f09acc855",
      "transactionType": "CREATE",
      "contractName": "BanditFort",
      "contractAddress": "0x254c4f50d0bfc8c67c9408aeab03e4b0a20ce5dc",
      "function": null,
      "arguments": null,
      "transaction": {
        "from": "0x6faff29226219756aa40ce648dbc65fb41de5f72",
        "gas": "0x522fc",
        "value": "0x0",
        "input": "0x6080604052600280546001600160a01b0319908116339081179092555f805490911690911790553460015561013b806100375f395ff3fe608060405260043610610036575f3560e01c80638da5cb5b146100b3578063b86cf42d146100ef578063e3ac5d261461010b575f80fd5b366100af576001543410158061005657506002546001600160a01b031633145b61005e575f80fd5b5f80546040516001600160a01b03909116913480156108fc02929091818181858888f19350505050158015610095573d5f803e3d5ffd5b505f80546001600160a01b03191633179055346001819055005b5f80fd5b3480156100be575f80fd5b506002546100d2906001600160a01b031681565b6040516001600160a01b0390911681526020015b60405180910390f35b3480156100fa575f80fd5b505f546001600160a01b03166100d2565b348015610116575f80fd5b5061012060015481565b6040519081526020016100e656fea164736f6c6343000819000a",
        "nonce": "0x324",
        "chainId": "0x3e9"
      },
      "additionalContracts": [],
      "isFixedGasLimit": false
    },
    {
      "hash": "0x19c85da3ea865b82fea15ad4cb5baa1c1ec29c058712b4df11f3ca2b1cfdfb0f",
      "transactionType": "CALL",
      "contractName": null,
      "contractAddress": "0x95ce14ee82410c4a7296205e0c663969703dc857",
      "function": "addBanditFort(address)",
      "arguments": [
        "0x254c4F50D0bfC8C67C9408AeAb03E4B0a20CE5dc"
      ],
      "transaction": {
        "from": "0x6faff29226219756aa40ce648dbc65fb41de5f72",
        "to": "0x95ce14ee82410c4a7296205e0c663969703dc857",
        "gas": "0x1a930",
        "value": "0x0",
        "input": "0xb32a9302000000000000000000000000254c4f50d0bfc8c67c9408aeab03e4b0a20ce5dc",
        "nonce": "0x325",
        "chainId": "0x3e9"
      },
      "additionalContracts": [],
      "isFixedGasLimit": false
    }
  ],
  "receipts": [
    {
      "status": "0x1",
      "cumulativeGasUsed": "0x30ba6",
      "logs": [],
      "logsBloom": "0x00000000000000000000000000000000000000000000000000000000000000000000000000000000000000000000000000000000000000000000000000000000000000000000000000000000000000000000000000000000000000000000000000000000000000000000000000000000000000000000000000000000000000000000000000000000000000000000000000000000000000000000000000000000000000000000000000000000000000000000000000000000000000000000000000000000000000000000000000000000000000000000000000000000000000000000000000000000000000000000000000000000000000000000000000000000",
      "type": "0x2",
      "transactionHash": "0x8b4e63662075d38fc377e08861d9efa0363d8c88ebb91622a8583f02bbaca06a",
      "transactionIndex": "0x0",
      "blockHash": "0xdd5c14023932ca8eaa736cd5861afab096104302aff1a91b3d9414080f2a041c",
      "blockNumber": "0x9bc7024",
      "gasUsed": "0x30ba6",
      "effectiveGasPrice": "0x66720b300",
      "from": "0x6faff29226219756aa40ce648dbc65fb41de5f72",
      "to": null,
      "contractAddress": "0xac6ed3b091618dd67c7edd4b2b661942e41db54e"
    },
    {
      "status": "0x1",
      "cumulativeGasUsed": "0x3e01d",
      "logs": [],
      "logsBloom": "0x00000000000000000000000000000000000000000000000000000000000000000000000000000000000000000000000000000000000000000000000000000000000000000000000000000000000000000000000000000000000000000000000000000000000000000000000000000000000000000000000000000000000000000000000000000000000000000000000000000000000000000000000000000000000000000000000000000000000000000000000000000000000000000000000000000000000000000000000000000000000000000000000000000000000000000000000000000000000000000000000000000000000000000000000000000000",
      "type": "0x2",
      "transactionHash": "0xffd616add2b47d296533f15b7849641d79eb4cf8fb57e7d292162d825464dd8f",
      "transactionIndex": "0x1",
      "blockHash": "0xdd5c14023932ca8eaa736cd5861afab096104302aff1a91b3d9414080f2a041c",
      "blockNumber": "0x9bc7024",
      "gasUsed": "0xd477",
      "effectiveGasPrice": "0x66720b300",
      "from": "0x6faff29226219756aa40ce648dbc65fb41de5f72",
      "to": "0x95ce14ee82410c4a7296205e0c663969703dc857",
      "contractAddress": null
    },
    {
      "status": "0x1",
      "cumulativeGasUsed": "0x6ebc3",
      "logs": [],
      "logsBloom": "0x00000000000000000000000000000000000000000000000000000000000000000000000000000000000000000000000000000000000000000000000000000000000000000000000000000000000000000000000000000000000000000000000000000000000000000000000000000000000000000000000000000000000000000000000000000000000000000000000000000000000000000000000000000000000000000000000000000000000000000000000000000000000000000000000000000000000000000000000000000000000000000000000000000000000000000000000000000000000000000000000000000000000000000000000000000000",
      "type": "0x2",
      "transactionHash": "0x1b778f753dc34cccf16416b2e8b491c2a1c1535ba365ed0273fafe8d69fc4828",
      "transactionIndex": "0x2",
      "blockHash": "0xdd5c14023932ca8eaa736cd5861afab096104302aff1a91b3d9414080f2a041c",
      "blockNumber": "0x9bc7024",
      "gasUsed": "0x30ba6",
      "effectiveGasPrice": "0x66720b300",
      "from": "0x6faff29226219756aa40ce648dbc65fb41de5f72",
      "to": null,
      "contractAddress": "0x6d8e9a4b71fef7e881b774fd1dd6683cd12150ef"
    },
    {
      "status": "0x1",
      "cumulativeGasUsed": "0x7c03a",
      "logs": [],
      "logsBloom": "0x00000000000000000000000000000000000000000000000000000000000000000000000000000000000000000000000000000000000000000000000000000000000000000000000000000000000000000000000000000000000000000000000000000000000000000000000000000000000000000000000000000000000000000000000000000000000000000000000000000000000000000000000000000000000000000000000000000000000000000000000000000000000000000000000000000000000000000000000000000000000000000000000000000000000000000000000000000000000000000000000000000000000000000000000000000000",
      "type": "0x2",
      "transactionHash": "0x720c0082b0385c0554b878f1ce90a6cc1ab386c734ca3558e2c7cba18b6014c6",
      "transactionIndex": "0x3",
      "blockHash": "0xdd5c14023932ca8eaa736cd5861afab096104302aff1a91b3d9414080f2a041c",
      "blockNumber": "0x9bc7024",
      "gasUsed": "0xd477",
      "effectiveGasPrice": "0x66720b300",
      "from": "0x6faff29226219756aa40ce648dbc65fb41de5f72",
      "to": "0x95ce14ee82410c4a7296205e0c663969703dc857",
      "contractAddress": null
    },
    {
      "status": "0x1",
      "cumulativeGasUsed": "0xacbe0",
      "logs": [],
      "logsBloom": "0x00000000000000000000000000000000000000000000000000000000000000000000000000000000000000000000000000000000000000000000000000000000000000000000000000000000000000000000000000000000000000000000000000000000000000000000000000000000000000000000000000000000000000000000000000000000000000000000000000000000000000000000000000000000000000000000000000000000000000000000000000000000000000000000000000000000000000000000000000000000000000000000000000000000000000000000000000000000000000000000000000000000000000000000000000000000",
      "type": "0x2",
      "transactionHash": "0xcfa4620731faf8111c0adc3d7898f46b7cb61e0cdad9c702d8092eff077d3c1f",
      "transactionIndex": "0x4",
      "blockHash": "0xdd5c14023932ca8eaa736cd5861afab096104302aff1a91b3d9414080f2a041c",
      "blockNumber": "0x9bc7024",
      "gasUsed": "0x30ba6",
      "effectiveGasPrice": "0x66720b300",
      "from": "0x6faff29226219756aa40ce648dbc65fb41de5f72",
      "to": null,
      "contractAddress": "0xd3fe9292cba7704444d2e70731508cab922160d5"
    },
    {
      "status": "0x1",
      "cumulativeGasUsed": "0xba057",
      "logs": [],
      "logsBloom": "0x00000000000000000000000000000000000000000000000000000000000000000000000000000000000000000000000000000000000000000000000000000000000000000000000000000000000000000000000000000000000000000000000000000000000000000000000000000000000000000000000000000000000000000000000000000000000000000000000000000000000000000000000000000000000000000000000000000000000000000000000000000000000000000000000000000000000000000000000000000000000000000000000000000000000000000000000000000000000000000000000000000000000000000000000000000000",
      "type": "0x2",
      "transactionHash": "0x6a85be4fe0c404061b6d3f4ca54117417a4abb2cbdc1feda872e0de948265bb3",
      "transactionIndex": "0x5",
      "blockHash": "0xdd5c14023932ca8eaa736cd5861afab096104302aff1a91b3d9414080f2a041c",
      "blockNumber": "0x9bc7024",
      "gasUsed": "0xd477",
      "effectiveGasPrice": "0x66720b300",
      "from": "0x6faff29226219756aa40ce648dbc65fb41de5f72",
      "to": "0x95ce14ee82410c4a7296205e0c663969703dc857",
      "contractAddress": null
    },
    {
      "status": "0x1",
      "cumulativeGasUsed": "0xeabfd",
      "logs": [],
      "logsBloom": "0x00000000000000000000000000000000000000000000000000000000000000000000000000000000000000000000000000000000000000000000000000000000000000000000000000000000000000000000000000000000000000000000000000000000000000000000000000000000000000000000000000000000000000000000000000000000000000000000000000000000000000000000000000000000000000000000000000000000000000000000000000000000000000000000000000000000000000000000000000000000000000000000000000000000000000000000000000000000000000000000000000000000000000000000000000000000",
      "type": "0x2",
      "transactionHash": "0x96bc64a44a9b518492075aed29471969560aa4fddb84b0be8b94d628f2256116",
      "transactionIndex": "0x6",
      "blockHash": "0xdd5c14023932ca8eaa736cd5861afab096104302aff1a91b3d9414080f2a041c",
      "blockNumber": "0x9bc7024",
      "gasUsed": "0x30ba6",
      "effectiveGasPrice": "0x66720b300",
      "from": "0x6faff29226219756aa40ce648dbc65fb41de5f72",
      "to": null,
      "contractAddress": "0xeb5caf353c70b8b875c057aca9269017492e8bf5"
    },
    {
      "status": "0x1",
      "cumulativeGasUsed": "0xf8074",
      "logs": [],
      "logsBloom": "0x00000000000000000000000000000000000000000000000000000000000000000000000000000000000000000000000000000000000000000000000000000000000000000000000000000000000000000000000000000000000000000000000000000000000000000000000000000000000000000000000000000000000000000000000000000000000000000000000000000000000000000000000000000000000000000000000000000000000000000000000000000000000000000000000000000000000000000000000000000000000000000000000000000000000000000000000000000000000000000000000000000000000000000000000000000000",
      "type": "0x2",
      "transactionHash": "0xfdf84ce39cab01322d585ad3065b1b42b62292eccce0adbbc68c2ec1c98acb42",
      "transactionIndex": "0x7",
      "blockHash": "0xdd5c14023932ca8eaa736cd5861afab096104302aff1a91b3d9414080f2a041c",
      "blockNumber": "0x9bc7024",
      "gasUsed": "0xd477",
      "effectiveGasPrice": "0x66720b300",
      "from": "0x6faff29226219756aa40ce648dbc65fb41de5f72",
      "to": "0x95ce14ee82410c4a7296205e0c663969703dc857",
      "contractAddress": null
    },
    {
      "status": "0x1",
      "cumulativeGasUsed": "0x30ba6",
      "logs": [],
      "logsBloom": "0x00000000000000000000000000000000000000000000000000000000000000000000000000000000000000000000000000000000000000000000000000000000000000000000000000000000000000000000000000000000000000000000000000000000000000000000000000000000000000000000000000000000000000000000000000000000000000000000000000000000000000000000000000000000000000000000000000000000000000000000000000000000000000000000000000000000000000000000000000000000000000000000000000000000000000000000000000000000000000000000000000000000000000000000000000000000",
      "type": "0x2",
      "transactionHash": "0x1d90aec4c080fce4264c8889bd4d67cb7178614bf871541f7b26a36356579bbd",
      "transactionIndex": "0x0",
      "blockHash": "0x818aab5e7017064f479a5dfdb662ebba5df3ccbe28bb1dd90ff3cabae4003d4a",
      "blockNumber": "0x9bc7025",
      "gasUsed": "0x30ba6",
      "effectiveGasPrice": "0x66720b300",
      "from": "0x6faff29226219756aa40ce648dbc65fb41de5f72",
      "to": null,
      "contractAddress": "0xa2addfab54ce0b504f17c7fbcd1c811c1793b31a"
    },
    {
      "status": "0x1",
      "cumulativeGasUsed": "0x3e01d",
      "logs": [],
      "logsBloom": "0x00000000000000000000000000000000000000000000000000000000000000000000000000000000000000000000000000000000000000000000000000000000000000000000000000000000000000000000000000000000000000000000000000000000000000000000000000000000000000000000000000000000000000000000000000000000000000000000000000000000000000000000000000000000000000000000000000000000000000000000000000000000000000000000000000000000000000000000000000000000000000000000000000000000000000000000000000000000000000000000000000000000000000000000000000000000",
      "type": "0x2",
      "transactionHash": "0x3c71ef6200a0860d1b926a2411612d89cb1cf626e313ad7949f46579d2fd695a",
      "transactionIndex": "0x1",
      "blockHash": "0x818aab5e7017064f479a5dfdb662ebba5df3ccbe28bb1dd90ff3cabae4003d4a",
      "blockNumber": "0x9bc7025",
      "gasUsed": "0xd477",
      "effectiveGasPrice": "0x66720b300",
      "from": "0x6faff29226219756aa40ce648dbc65fb41de5f72",
      "to": "0x95ce14ee82410c4a7296205e0c663969703dc857",
      "contractAddress": null
    },
    {
      "status": "0x1",
      "cumulativeGasUsed": "0x6ebc3",
      "logs": [],
      "logsBloom": "0x00000000000000000000000000000000000000000000000000000000000000000000000000000000000000000000000000000000000000000000000000000000000000000000000000000000000000000000000000000000000000000000000000000000000000000000000000000000000000000000000000000000000000000000000000000000000000000000000000000000000000000000000000000000000000000000000000000000000000000000000000000000000000000000000000000000000000000000000000000000000000000000000000000000000000000000000000000000000000000000000000000000000000000000000000000000",
      "type": "0x2",
      "transactionHash": "0xa29cd6b581b6402fc10b880fc02c5e75aa649a14b8b5dd2314f6b79814bb51ab",
      "transactionIndex": "0x2",
      "blockHash": "0x818aab5e7017064f479a5dfdb662ebba5df3ccbe28bb1dd90ff3cabae4003d4a",
      "blockNumber": "0x9bc7025",
      "gasUsed": "0x30ba6",
      "effectiveGasPrice": "0x66720b300",
      "from": "0x6faff29226219756aa40ce648dbc65fb41de5f72",
      "to": null,
      "contractAddress": "0xf6827ab6db73421f8a992694b3b557a970ddf1ea"
    },
    {
      "status": "0x1",
      "cumulativeGasUsed": "0x7c03a",
      "logs": [],
      "logsBloom": "0x00000000000000000000000000000000000000000000000000000000000000000000000000000000000000000000000000000000000000000000000000000000000000000000000000000000000000000000000000000000000000000000000000000000000000000000000000000000000000000000000000000000000000000000000000000000000000000000000000000000000000000000000000000000000000000000000000000000000000000000000000000000000000000000000000000000000000000000000000000000000000000000000000000000000000000000000000000000000000000000000000000000000000000000000000000000",
      "type": "0x2",
      "transactionHash": "0x969c426ee66725643f054f7eec3025b3039c68d5c0913a17e39acb0c23fe61d3",
      "transactionIndex": "0x3",
      "blockHash": "0x818aab5e7017064f479a5dfdb662ebba5df3ccbe28bb1dd90ff3cabae4003d4a",
      "blockNumber": "0x9bc7025",
      "gasUsed": "0xd477",
      "effectiveGasPrice": "0x66720b300",
      "from": "0x6faff29226219756aa40ce648dbc65fb41de5f72",
      "to": "0x95ce14ee82410c4a7296205e0c663969703dc857",
      "contractAddress": null
    },
    {
      "status": "0x1",
      "cumulativeGasUsed": "0xacbe0",
      "logs": [],
      "logsBloom": "0x00000000000000000000000000000000000000000000000000000000000000000000000000000000000000000000000000000000000000000000000000000000000000000000000000000000000000000000000000000000000000000000000000000000000000000000000000000000000000000000000000000000000000000000000000000000000000000000000000000000000000000000000000000000000000000000000000000000000000000000000000000000000000000000000000000000000000000000000000000000000000000000000000000000000000000000000000000000000000000000000000000000000000000000000000000000",
      "type": "0x2",
      "transactionHash": "0x75c8967044346f796d9a274ad63682c49dd80a95415ba8a60fde3e2361a7ef0d",
      "transactionIndex": "0x4",
      "blockHash": "0x818aab5e7017064f479a5dfdb662ebba5df3ccbe28bb1dd90ff3cabae4003d4a",
      "blockNumber": "0x9bc7025",
      "gasUsed": "0x30ba6",
      "effectiveGasPrice": "0x66720b300",
      "from": "0x6faff29226219756aa40ce648dbc65fb41de5f72",
      "to": null,
      "contractAddress": "0x6f4dcb2cc630578330b4ecc282cd2bbb342b0d4f"
    },
    {
      "status": "0x1",
      "cumulativeGasUsed": "0xba057",
      "logs": [],
      "logsBloom": "0x00000000000000000000000000000000000000000000000000000000000000000000000000000000000000000000000000000000000000000000000000000000000000000000000000000000000000000000000000000000000000000000000000000000000000000000000000000000000000000000000000000000000000000000000000000000000000000000000000000000000000000000000000000000000000000000000000000000000000000000000000000000000000000000000000000000000000000000000000000000000000000000000000000000000000000000000000000000000000000000000000000000000000000000000000000000",
      "type": "0x2",
      "transactionHash": "0xf7b473ed3fce81eba86c57b4341262e5d0779697176cdf030c2308396450303b",
      "transactionIndex": "0x5",
      "blockHash": "0x818aab5e7017064f479a5dfdb662ebba5df3ccbe28bb1dd90ff3cabae4003d4a",
      "blockNumber": "0x9bc7025",
      "gasUsed": "0xd477",
      "effectiveGasPrice": "0x66720b300",
      "from": "0x6faff29226219756aa40ce648dbc65fb41de5f72",
      "to": "0x95ce14ee82410c4a7296205e0c663969703dc857",
      "contractAddress": null
    },
    {
      "status": "0x1",
      "cumulativeGasUsed": "0xeabfd",
      "logs": [],
      "logsBloom": "0x00000000000000000000000000000000000000000000000000000000000000000000000000000000000000000000000000000000000000000000000000000000000000000000000000000000000000000000000000000000000000000000000000000000000000000000000000000000000000000000000000000000000000000000000000000000000000000000000000000000000000000000000000000000000000000000000000000000000000000000000000000000000000000000000000000000000000000000000000000000000000000000000000000000000000000000000000000000000000000000000000000000000000000000000000000000",
      "type": "0x2",
      "transactionHash": "0x62244e32d4de4a37cdca27f5f0cd45f899cd99f82a19ac82e5b3c5470895039d",
      "transactionIndex": "0x6",
      "blockHash": "0x818aab5e7017064f479a5dfdb662ebba5df3ccbe28bb1dd90ff3cabae4003d4a",
      "blockNumber": "0x9bc7025",
      "gasUsed": "0x30ba6",
      "effectiveGasPrice": "0x66720b300",
      "from": "0x6faff29226219756aa40ce648dbc65fb41de5f72",
      "to": null,
      "contractAddress": "0xb91ca0671d833c81f0532862a82299f3c1a11b80"
    },
    {
      "status": "0x1",
      "cumulativeGasUsed": "0xf8074",
      "logs": [],
      "logsBloom": "0x00000000000000000000000000000000000000000000000000000000000000000000000000000000000000000000000000000000000000000000000000000000000000000000000000000000000000000000000000000000000000000000000000000000000000000000000000000000000000000000000000000000000000000000000000000000000000000000000000000000000000000000000000000000000000000000000000000000000000000000000000000000000000000000000000000000000000000000000000000000000000000000000000000000000000000000000000000000000000000000000000000000000000000000000000000000",
      "type": "0x2",
      "transactionHash": "0x7ca9e9c3512d0dccdc5a7a64f364b8150f6102d8585983e1d0a32dfa28dcfa86",
      "transactionIndex": "0x7",
      "blockHash": "0x818aab5e7017064f479a5dfdb662ebba5df3ccbe28bb1dd90ff3cabae4003d4a",
      "blockNumber": "0x9bc7025",
      "gasUsed": "0xd477",
      "effectiveGasPrice": "0x66720b300",
      "from": "0x6faff29226219756aa40ce648dbc65fb41de5f72",
      "to": "0x95ce14ee82410c4a7296205e0c663969703dc857",
      "contractAddress": null
    },
    {
      "status": "0x1",
      "cumulativeGasUsed": "0x128c1a",
      "logs": [],
      "logsBloom": "0x00000000000000000000000000000000000000000000000000000000000000000000000000000000000000000000000000000000000000000000000000000000000000000000000000000000000000000000000000000000000000000000000000000000000000000000000000000000000000000000000000000000000000000000000000000000000000000000000000000000000000000000000000000000000000000000000000000000000000000000000000000000000000000000000000000000000000000000000000000000000000000000000000000000000000000000000000000000000000000000000000000000000000000000000000000000",
      "type": "0x2",
      "transactionHash": "0x49f256e411488675661ecbba40208b6e120a6b023bd00638bb58a240e7beebec",
      "transactionIndex": "0x8",
      "blockHash": "0x818aab5e7017064f479a5dfdb662ebba5df3ccbe28bb1dd90ff3cabae4003d4a",
      "blockNumber": "0x9bc7025",
      "gasUsed": "0x30ba6",
      "effectiveGasPrice": "0x66720b300",
      "from": "0x6faff29226219756aa40ce648dbc65fb41de5f72",
      "to": null,
      "contractAddress": "0x075337f775fcb991da60020f1e3ffa51d97415ad"
    },
    {
      "status": "0x1",
      "cumulativeGasUsed": "0x136091",
      "logs": [],
      "logsBloom": "0x00000000000000000000000000000000000000000000000000000000000000000000000000000000000000000000000000000000000000000000000000000000000000000000000000000000000000000000000000000000000000000000000000000000000000000000000000000000000000000000000000000000000000000000000000000000000000000000000000000000000000000000000000000000000000000000000000000000000000000000000000000000000000000000000000000000000000000000000000000000000000000000000000000000000000000000000000000000000000000000000000000000000000000000000000000000",
      "type": "0x2",
      "transactionHash": "0x0789ca2c7206f98788d2d8feb5b30c111a04d34a277ac017fc94856119cd615f",
      "transactionIndex": "0x9",
      "blockHash": "0x818aab5e7017064f479a5dfdb662ebba5df3ccbe28bb1dd90ff3cabae4003d4a",
      "blockNumber": "0x9bc7025",
      "gasUsed": "0xd477",
      "effectiveGasPrice": "0x66720b300",
      "from": "0x6faff29226219756aa40ce648dbc65fb41de5f72",
      "to": "0x95ce14ee82410c4a7296205e0c663969703dc857",
      "contractAddress": null
    },
    {
      "status": "0x1",
      "cumulativeGasUsed": "0x166c37",
      "logs": [],
      "logsBloom": "0x00000000000000000000000000000000000000000000000000000000000000000000000000000000000000000000000000000000000000000000000000000000000000000000000000000000000000000000000000000000000000000000000000000000000000000000000000000000000000000000000000000000000000000000000000000000000000000000000000000000000000000000000000000000000000000000000000000000000000000000000000000000000000000000000000000000000000000000000000000000000000000000000000000000000000000000000000000000000000000000000000000000000000000000000000000000",
      "type": "0x2",
      "transactionHash": "0x4251705756a0971b50994cf472905b4f59e4876c66cb930c6732472f09acc855",
      "transactionIndex": "0xa",
      "blockHash": "0x818aab5e7017064f479a5dfdb662ebba5df3ccbe28bb1dd90ff3cabae4003d4a",
      "blockNumber": "0x9bc7025",
      "gasUsed": "0x30ba6",
      "effectiveGasPrice": "0x66720b300",
      "from": "0x6faff29226219756aa40ce648dbc65fb41de5f72",
      "to": null,
      "contractAddress": "0x254c4f50d0bfc8c67c9408aeab03e4b0a20ce5dc"
    },
    {
      "status": "0x1",
      "cumulativeGasUsed": "0x1740ae",
      "logs": [],
      "logsBloom": "0x00000000000000000000000000000000000000000000000000000000000000000000000000000000000000000000000000000000000000000000000000000000000000000000000000000000000000000000000000000000000000000000000000000000000000000000000000000000000000000000000000000000000000000000000000000000000000000000000000000000000000000000000000000000000000000000000000000000000000000000000000000000000000000000000000000000000000000000000000000000000000000000000000000000000000000000000000000000000000000000000000000000000000000000000000000000",
      "type": "0x2",
      "transactionHash": "0x19c85da3ea865b82fea15ad4cb5baa1c1ec29c058712b4df11f3ca2b1cfdfb0f",
      "transactionIndex": "0xb",
      "blockHash": "0x818aab5e7017064f479a5dfdb662ebba5df3ccbe28bb1dd90ff3cabae4003d4a",
      "blockNumber": "0x9bc7025",
      "gasUsed": "0xd477",
      "effectiveGasPrice": "0x66720b300",
      "from": "0x6faff29226219756aa40ce648dbc65fb41de5f72",
      "to": "0x95ce14ee82410c4a7296205e0c663969703dc857",
      "contractAddress": null
    }
  ],
  "libraries": [],
  "pending": [],
  "returns": {},
  "timestamp": 1724926079,
  "chain": 1001,
  "commit": "cd51cc8"
}