{
  "transactions": [
    {
      "hash": "0xb9b938ec1e446c4147b5984c90e848f6ee447e966774ae05457c5abd85156b63",
      "transactionType": "CREATE",
      "contractName": "BanditFort",
      "contractAddress": "0x8d1ec9bb33879573360c6f2f8d4563947bd3d060",
      "function": null,
      "arguments": null,
      "transaction": {
        "from": "0x6faff29226219756aa40ce648dbc65fb41de5f72",
        "gas": "0x522fc",
        "value": "0x0",
        "input": "0x6080604052600280546001600160a01b0319908116339081179092555f805490911690911790553460015561013b806100375f395ff3fe608060405260043610610036575f3560e01c80638da5cb5b146100b3578063b86cf42d146100ef578063e3ac5d261461010b575f80fd5b366100af576001543410158061005657506002546001600160a01b031633145b61005e575f80fd5b5f80546040516001600160a01b03909116913480156108fc02929091818181858888f19350505050158015610095573d5f803e3d5ffd5b505f80546001600160a01b03191633179055346001819055005b5f80fd5b3480156100be575f80fd5b506002546100d2906001600160a01b031681565b6040516001600160a01b0390911681526020015b60405180910390f35b3480156100fa575f80fd5b505f546001600160a01b03166100d2565b348015610116575f80fd5b5061012060015481565b6040519081526020016100e656fea164736f6c6343000819000a",
        "nonce": "0x362",
        "chainId": "0x3e9"
      },
      "additionalContracts": [],
      "isFixedGasLimit": false
    },
    {
      "hash": "0x5c32cd92d5333c657f5b66ae8616644507f3fba903dd8ff2bf816ed4de32431d",
      "transactionType": "CALL",
      "contractName": null,
      "contractAddress": "0x95ce14ee82410c4a7296205e0c663969703dc857",
      "function": "addBanditFort(address)",
      "arguments": [
        "0x8D1EC9Bb33879573360C6F2F8d4563947BD3D060"
      ],
      "transaction": {
        "from": "0x6faff29226219756aa40ce648dbc65fb41de5f72",
        "to": "0x95ce14ee82410c4a7296205e0c663969703dc857",
        "gas": "0x1a930",
        "value": "0x0",
        "input": "0xb32a93020000000000000000000000008d1ec9bb33879573360c6f2f8d4563947bd3d060",
        "nonce": "0x363",
        "chainId": "0x3e9"
      },
      "additionalContracts": [],
      "isFixedGasLimit": false
    },
    {
      "hash": "0xb05ec30d279711efd0fe6c5628519d1333fdb7967432af73639bca1191647f22",
      "transactionType": "CREATE",
      "contractName": "BanditFort",
      "contractAddress": "0x82c0b304ec5fd8ff66cf9aef3353291b1e85d348",
      "function": null,
      "arguments": null,
      "transaction": {
        "from": "0x6faff29226219756aa40ce648dbc65fb41de5f72",
        "gas": "0x522fc",
        "value": "0x0",
        "input": "0x6080604052600280546001600160a01b0319908116339081179092555f805490911690911790553460015561013b806100375f395ff3fe608060405260043610610036575f3560e01c80638da5cb5b146100b3578063b86cf42d146100ef578063e3ac5d261461010b575f80fd5b366100af576001543410158061005657506002546001600160a01b031633145b61005e575f80fd5b5f80546040516001600160a01b03909116913480156108fc02929091818181858888f19350505050158015610095573d5f803e3d5ffd5b505f80546001600160a01b03191633179055346001819055005b5f80fd5b3480156100be575f80fd5b506002546100d2906001600160a01b031681565b6040516001600160a01b0390911681526020015b60405180910390f35b3480156100fa575f80fd5b505f546001600160a01b03166100d2565b348015610116575f80fd5b5061012060015481565b6040519081526020016100e656fea164736f6c6343000819000a",
        "nonce": "0x364",
        "chainId": "0x3e9"
      },
      "additionalContracts": [],
      "isFixedGasLimit": false
    },
    {
      "hash": "0xdd8b78bfb88f9d013b7383e3f75f8aac9088a83f346aa276f99d57a60a71eb10",
      "transactionType": "CALL",
      "contractName": null,
      "contractAddress": "0x95ce14ee82410c4a7296205e0c663969703dc857",
      "function": "addBanditFort(address)",
      "arguments": [
        "0x82C0b304EC5fd8Ff66CF9aef3353291b1E85d348"
      ],
      "transaction": {
        "from": "0x6faff29226219756aa40ce648dbc65fb41de5f72",
        "to": "0x95ce14ee82410c4a7296205e0c663969703dc857",
        "gas": "0x1a930",
        "value": "0x0",
        "input": "0xb32a930200000000000000000000000082c0b304ec5fd8ff66cf9aef3353291b1e85d348",
        "nonce": "0x365",
        "chainId": "0x3e9"
      },
      "additionalContracts": [],
      "isFixedGasLimit": false
    },
    {
      "hash": "0x694dd10b9d4a522ed3f362c38114ea28ce0481cdb6c0cb3951ba075b27d564ba",
      "transactionType": "CREATE",
      "contractName": "BanditFort",
      "contractAddress": "0x76baf7109d44713a79135cf7675d0e26305ddf97",
      "function": null,
      "arguments": null,
      "transaction": {
        "from": "0x6faff29226219756aa40ce648dbc65fb41de5f72",
        "gas": "0x522fc",
        "value": "0x0",
        "input": "0x6080604052600280546001600160a01b0319908116339081179092555f805490911690911790553460015561013b806100375f395ff3fe608060405260043610610036575f3560e01c80638da5cb5b146100b3578063b86cf42d146100ef578063e3ac5d261461010b575f80fd5b366100af576001543410158061005657506002546001600160a01b031633145b61005e575f80fd5b5f80546040516001600160a01b03909116913480156108fc02929091818181858888f19350505050158015610095573d5f803e3d5ffd5b505f80546001600160a01b03191633179055346001819055005b5f80fd5b3480156100be575f80fd5b506002546100d2906001600160a01b031681565b6040516001600160a01b0390911681526020015b60405180910390f35b3480156100fa575f80fd5b505f546001600160a01b03166100d2565b348015610116575f80fd5b5061012060015481565b6040519081526020016100e656fea164736f6c6343000819000a",
        "nonce": "0x366",
        "chainId": "0x3e9"
      },
      "additionalContracts": [],
      "isFixedGasLimit": false
    },
    {
      "hash": "0x01f73f8d059fcde2359d1945e871a9c5707abaa1b0c8354bde33c547904c7c71",
      "transactionType": "CALL",
      "contractName": null,
      "contractAddress": "0x95ce14ee82410c4a7296205e0c663969703dc857",
      "function": "addBanditFort(address)",
      "arguments": [
        "0x76baF7109d44713A79135CF7675D0E26305dDF97"
      ],
      "transaction": {
        "from": "0x6faff29226219756aa40ce648dbc65fb41de5f72",
        "to": "0x95ce14ee82410c4a7296205e0c663969703dc857",
        "gas": "0x1a930",
        "value": "0x0",
        "input": "0xb32a930200000000000000000000000076baf7109d44713a79135cf7675d0e26305ddf97",
        "nonce": "0x367",
        "chainId": "0x3e9"
      },
      "additionalContracts": [],
      "isFixedGasLimit": false
    },
    {
      "hash": "0x1593ece080c3abbd89700233f1c9ed4f94ece5766163aa25b8984230d06f859c",
      "transactionType": "CREATE",
      "contractName": "BanditFort",
      "contractAddress": "0x7e4526293c6cf24a9d62f3dfa897386431488798",
      "function": null,
      "arguments": null,
      "transaction": {
        "from": "0x6faff29226219756aa40ce648dbc65fb41de5f72",
        "gas": "0x522fc",
        "value": "0x0",
        "input": "0x6080604052600280546001600160a01b0319908116339081179092555f805490911690911790553460015561013b806100375f395ff3fe608060405260043610610036575f3560e01c80638da5cb5b146100b3578063b86cf42d146100ef578063e3ac5d261461010b575f80fd5b366100af576001543410158061005657506002546001600160a01b031633145b61005e575f80fd5b5f80546040516001600160a01b03909116913480156108fc02929091818181858888f19350505050158015610095573d5f803e3d5ffd5b505f80546001600160a01b03191633179055346001819055005b5f80fd5b3480156100be575f80fd5b506002546100d2906001600160a01b031681565b6040516001600160a01b0390911681526020015b60405180910390f35b3480156100fa575f80fd5b505f546001600160a01b03166100d2565b348015610116575f80fd5b5061012060015481565b6040519081526020016100e656fea164736f6c6343000819000a",
        "nonce": "0x368",
        "chainId": "0x3e9"
      },
      "additionalContracts": [],
      "isFixedGasLimit": false
    },
    {
      "hash": "0x89948be32a85a6371121ca2036dc89c47a9dd8920f5d53ec05e95f3038c443a1",
      "transactionType": "CALL",
      "contractName": null,
      "contractAddress": "0x95ce14ee82410c4a7296205e0c663969703dc857",
      "function": "addBanditFort(address)",
      "arguments": [
        "0x7e4526293c6Cf24a9d62F3dfA897386431488798"
      ],
      "transaction": {
        "from": "0x6faff29226219756aa40ce648dbc65fb41de5f72",
        "to": "0x95ce14ee82410c4a7296205e0c663969703dc857",
        "gas": "0x1a930",
        "value": "0x0",
        "input": "0xb32a93020000000000000000000000007e4526293c6cf24a9d62f3dfa897386431488798",
        "nonce": "0x369",
        "chainId": "0x3e9"
      },
      "additionalContracts": [],
      "isFixedGasLimit": false
    },
    {
      "hash": "0x962e91fed12b4d944601c914c8a7a08b5dc8ac3ec014e312a144b07617b75962",
      "transactionType": "CREATE",
      "contractName": "BanditFort",
      "contractAddress": "0xada62b90beb0f7a878a352ab3869f2e96c23ddd5",
      "function": null,
      "arguments": null,
      "transaction": {
        "from": "0x6faff29226219756aa40ce648dbc65fb41de5f72",
        "gas": "0x522fc",
        "value": "0x0",
        "input": "0x6080604052600280546001600160a01b0319908116339081179092555f805490911690911790553460015561013b806100375f395ff3fe608060405260043610610036575f3560e01c80638da5cb5b146100b3578063b86cf42d146100ef578063e3ac5d261461010b575f80fd5b366100af576001543410158061005657506002546001600160a01b031633145b61005e575f80fd5b5f80546040516001600160a01b03909116913480156108fc02929091818181858888f19350505050158015610095573d5f803e3d5ffd5b505f80546001600160a01b03191633179055346001819055005b5f80fd5b3480156100be575f80fd5b506002546100d2906001600160a01b031681565b6040516001600160a01b0390911681526020015b60405180910390f35b3480156100fa575f80fd5b505f546001600160a01b03166100d2565b348015610116575f80fd5b5061012060015481565b6040519081526020016100e656fea164736f6c6343000819000a",
        "nonce": "0x36a",
        "chainId": "0x3e9"
      },
      "additionalContracts": [],
      "isFixedGasLimit": false
    },
    {
      "hash": "0x7dcefdd345be22d50c0ba067e518be6d8f07a0a39b38013b14f176a6a005c56b",
      "transactionType": "CALL",
      "contractName": null,
      "contractAddress": "0x95ce14ee82410c4a7296205e0c663969703dc857",
      "function": "addBanditFort(address)",
      "arguments": [
        "0xADA62b90BeB0f7a878a352Ab3869f2E96C23ddd5"
      ],
      "transaction": {
        "from": "0x6faff29226219756aa40ce648dbc65fb41de5f72",
        "to": "0x95ce14ee82410c4a7296205e0c663969703dc857",
        "gas": "0x1a930",
        "value": "0x0",
        "input": "0xb32a9302000000000000000000000000ada62b90beb0f7a878a352ab3869f2e96c23ddd5",
        "nonce": "0x36b",
        "chainId": "0x3e9"
      },
      "additionalContracts": [],
      "isFixedGasLimit": false
    },
    {
      "hash": "0xfe0d7cefa4e45e06f599aef24a78a7637d0274a35d36edb0b323b859afc6a8e3",
      "transactionType": "CREATE",
      "contractName": "BanditFort",
      "contractAddress": "0x02980e8dfe2e7108fd0975d337db2999d667a25b",
      "function": null,
      "arguments": null,
      "transaction": {
        "from": "0x6faff29226219756aa40ce648dbc65fb41de5f72",
        "gas": "0x522fc",
        "value": "0x0",
        "input": "0x6080604052600280546001600160a01b0319908116339081179092555f805490911690911790553460015561013b806100375f395ff3fe608060405260043610610036575f3560e01c80638da5cb5b146100b3578063b86cf42d146100ef578063e3ac5d261461010b575f80fd5b366100af576001543410158061005657506002546001600160a01b031633145b61005e575f80fd5b5f80546040516001600160a01b03909116913480156108fc02929091818181858888f19350505050158015610095573d5f803e3d5ffd5b505f80546001600160a01b03191633179055346001819055005b5f80fd5b3480156100be575f80fd5b506002546100d2906001600160a01b031681565b6040516001600160a01b0390911681526020015b60405180910390f35b3480156100fa575f80fd5b505f546001600160a01b03166100d2565b348015610116575f80fd5b5061012060015481565b6040519081526020016100e656fea164736f6c6343000819000a",
        "nonce": "0x36c",
        "chainId": "0x3e9"
      },
      "additionalContracts": [],
      "isFixedGasLimit": false
    },
    {
      "hash": "0xec2106a34abcb91f7c30a8290ea19dda873b127b86878cab3d7ee7db037cb731",
      "transactionType": "CALL",
      "contractName": null,
      "contractAddress": "0x95ce14ee82410c4a7296205e0c663969703dc857",
      "function": "addBanditFort(address)",
      "arguments": [
        "0x02980E8dFe2e7108Fd0975d337Db2999d667A25b"
      ],
      "transaction": {
        "from": "0x6faff29226219756aa40ce648dbc65fb41de5f72",
        "to": "0x95ce14ee82410c4a7296205e0c663969703dc857",
        "gas": "0x1a930",
        "value": "0x0",
        "input": "0xb32a930200000000000000000000000002980e8dfe2e7108fd0975d337db2999d667a25b",
        "nonce": "0x36d",
        "chainId": "0x3e9"
      },
      "additionalContracts": [],
      "isFixedGasLimit": false
    },
    {
      "hash": "0x5921b9a52aec7c0ac67b61f742131d261cb865dbb3ff72c40cb72127da3cf222",
      "transactionType": "CREATE",
      "contractName": "BanditFort",
      "contractAddress": "0xf0c74fe3c80a278f11db5df339269ca9c6cfac40",
      "function": null,
      "arguments": null,
      "transaction": {
        "from": "0x6faff29226219756aa40ce648dbc65fb41de5f72",
        "gas": "0x522fc",
        "value": "0x0",
        "input": "0x6080604052600280546001600160a01b0319908116339081179092555f805490911690911790553460015561013b806100375f395ff3fe608060405260043610610036575f3560e01c80638da5cb5b146100b3578063b86cf42d146100ef578063e3ac5d261461010b575f80fd5b366100af576001543410158061005657506002546001600160a01b031633145b61005e575f80fd5b5f80546040516001600160a01b03909116913480156108fc02929091818181858888f19350505050158015610095573d5f803e3d5ffd5b505f80546001600160a01b03191633179055346001819055005b5f80fd5b3480156100be575f80fd5b506002546100d2906001600160a01b031681565b6040516001600160a01b0390911681526020015b60405180910390f35b3480156100fa575f80fd5b505f546001600160a01b03166100d2565b348015610116575f80fd5b5061012060015481565b6040519081526020016100e656fea164736f6c6343000819000a",
        "nonce": "0x36e",
        "chainId": "0x3e9"
      },
      "additionalContracts": [],
      "isFixedGasLimit": false
    },
    {
      "hash": "0xf7c9422de950b33ffab4d80b5b1328199c2ff5cbe58cca3d40acd8edcedc7e9b",
      "transactionType": "CALL",
      "contractName": null,
      "contractAddress": "0x95ce14ee82410c4a7296205e0c663969703dc857",
      "function": "addBanditFort(address)",
      "arguments": [
        "0xf0c74FE3C80a278F11DB5dF339269Ca9c6cfaC40"
      ],
      "transaction": {
        "from": "0x6faff29226219756aa40ce648dbc65fb41de5f72",
        "to": "0x95ce14ee82410c4a7296205e0c663969703dc857",
        "gas": "0x1a930",
        "value": "0x0",
        "input": "0xb32a9302000000000000000000000000f0c74fe3c80a278f11db5df339269ca9c6cfac40",
        "nonce": "0x36f",
        "chainId": "0x3e9"
      },
      "additionalContracts": [],
      "isFixedGasLimit": false
    },
    {
      "hash": "0xa1e578b3cae4782638d7ac4ffe8ed650a3f5bb78d76f5f5d1dfd807268e76671",
      "transactionType": "CREATE",
      "contractName": "BanditFort",
      "contractAddress": "0xecec8d919871af2d3747075538fc04affd14b3c2",
      "function": null,
      "arguments": null,
      "transaction": {
        "from": "0x6faff29226219756aa40ce648dbc65fb41de5f72",
        "gas": "0x522fc",
        "value": "0x0",
        "input": "0x6080604052600280546001600160a01b0319908116339081179092555f805490911690911790553460015561013b806100375f395ff3fe608060405260043610610036575f3560e01c80638da5cb5b146100b3578063b86cf42d146100ef578063e3ac5d261461010b575f80fd5b366100af576001543410158061005657506002546001600160a01b031633145b61005e575f80fd5b5f80546040516001600160a01b03909116913480156108fc02929091818181858888f19350505050158015610095573d5f803e3d5ffd5b505f80546001600160a01b03191633179055346001819055005b5f80fd5b3480156100be575f80fd5b506002546100d2906001600160a01b031681565b6040516001600160a01b0390911681526020015b60405180910390f35b3480156100fa575f80fd5b505f546001600160a01b03166100d2565b348015610116575f80fd5b5061012060015481565b6040519081526020016100e656fea164736f6c6343000819000a",
        "nonce": "0x370",
        "chainId": "0x3e9"
      },
      "additionalContracts": [],
      "isFixedGasLimit": false
    },
    {
      "hash": "0xad8d5db3e2c5e9f8751d1980955576ab7941506ce98f91f3d24c9aaeee223a0a",
      "transactionType": "CALL",
      "contractName": null,
      "contractAddress": "0x95ce14ee82410c4a7296205e0c663969703dc857",
      "function": "addBanditFort(address)",
      "arguments": [
        "0xeCEc8D919871aF2d3747075538Fc04AffD14b3C2"
      ],
      "transaction": {
        "from": "0x6faff29226219756aa40ce648dbc65fb41de5f72",
        "to": "0x95ce14ee82410c4a7296205e0c663969703dc857",
        "gas": "0x1a930",
        "value": "0x0",
        "input": "0xb32a9302000000000000000000000000ecec8d919871af2d3747075538fc04affd14b3c2",
        "nonce": "0x371",
        "chainId": "0x3e9"
      },
      "additionalContracts": [],
      "isFixedGasLimit": false
    },
    {
      "hash": "0x1c4d920e40b783a09010b781558cd96d91cd6d9c05d6981b9410d2591166b738",
      "transactionType": "CREATE",
      "contractName": "BanditFort",
      "contractAddress": "0x843cde63c507758ac267143bc418529426032d34",
      "function": null,
      "arguments": null,
      "transaction": {
        "from": "0x6faff29226219756aa40ce648dbc65fb41de5f72",
        "gas": "0x522fc",
        "value": "0x0",
        "input": "0x6080604052600280546001600160a01b0319908116339081179092555f805490911690911790553460015561013b806100375f395ff3fe608060405260043610610036575f3560e01c80638da5cb5b146100b3578063b86cf42d146100ef578063e3ac5d261461010b575f80fd5b366100af576001543410158061005657506002546001600160a01b031633145b61005e575f80fd5b5f80546040516001600160a01b03909116913480156108fc02929091818181858888f19350505050158015610095573d5f803e3d5ffd5b505f80546001600160a01b03191633179055346001819055005b5f80fd5b3480156100be575f80fd5b506002546100d2906001600160a01b031681565b6040516001600160a01b0390911681526020015b60405180910390f35b3480156100fa575f80fd5b505f546001600160a01b03166100d2565b348015610116575f80fd5b5061012060015481565b6040519081526020016100e656fea164736f6c6343000819000a",
        "nonce": "0x372",
        "chainId": "0x3e9"
      },
      "additionalContracts": [],
      "isFixedGasLimit": false
    },
    {
      "hash": "0x1409d253e144c7e0d616538fdf9032a76f6a60794077517a1d8e42e3fd97c8dc",
      "transactionType": "CALL",
      "contractName": null,
      "contractAddress": "0x95ce14ee82410c4a7296205e0c663969703dc857",
      "function": "addBanditFort(address)",
      "arguments": [
        "0x843CDE63c507758Ac267143Bc418529426032d34"
      ],
      "transaction": {
        "from": "0x6faff29226219756aa40ce648dbc65fb41de5f72",
        "to": "0x95ce14ee82410c4a7296205e0c663969703dc857",
        "gas": "0x1a930",
        "value": "0x0",
        "input": "0xb32a9302000000000000000000000000843cde63c507758ac267143bc418529426032d34",
        "nonce": "0x373",
        "chainId": "0x3e9"
      },
      "additionalContracts": [],
      "isFixedGasLimit": false
    },
    {
      "hash": "0xe48dd1a559cadcfb3a6f90a5df454ec69794f0e81a8bc8c78490d623335805c2",
      "transactionType": "CREATE",
      "contractName": "BanditFort",
      "contractAddress": "0x77884c6cb3ebfaa376059b7ddc16472645c0f36d",
      "function": null,
      "arguments": null,
      "transaction": {
        "from": "0x6faff29226219756aa40ce648dbc65fb41de5f72",
        "gas": "0x522fc",
        "value": "0x0",
        "input": "0x6080604052600280546001600160a01b0319908116339081179092555f805490911690911790553460015561013b806100375f395ff3fe608060405260043610610036575f3560e01c80638da5cb5b146100b3578063b86cf42d146100ef578063e3ac5d261461010b575f80fd5b366100af576001543410158061005657506002546001600160a01b031633145b61005e575f80fd5b5f80546040516001600160a01b03909116913480156108fc02929091818181858888f19350505050158015610095573d5f803e3d5ffd5b505f80546001600160a01b03191633179055346001819055005b5f80fd5b3480156100be575f80fd5b506002546100d2906001600160a01b031681565b6040516001600160a01b0390911681526020015b60405180910390f35b3480156100fa575f80fd5b505f546001600160a01b03166100d2565b348015610116575f80fd5b5061012060015481565b6040519081526020016100e656fea164736f6c6343000819000a",
        "nonce": "0x374",
        "chainId": "0x3e9"
      },
      "additionalContracts": [],
      "isFixedGasLimit": false
    },
    {
      "hash": "0x744b28454039be9fd63b42619cfabdefdae397561206f21b625753c4f43bfdc8",
      "transactionType": "CALL",
      "contractName": null,
      "contractAddress": "0x95ce14ee82410c4a7296205e0c663969703dc857",
      "function": "addBanditFort(address)",
      "arguments": [
        "0x77884c6CB3ebfaA376059b7dDc16472645c0F36D"
      ],
      "transaction": {
        "from": "0x6faff29226219756aa40ce648dbc65fb41de5f72",
        "to": "0x95ce14ee82410c4a7296205e0c663969703dc857",
        "gas": "0x1a930",
        "value": "0x0",
        "input": "0xb32a930200000000000000000000000077884c6cb3ebfaa376059b7ddc16472645c0f36d",
        "nonce": "0x375",
        "chainId": "0x3e9"
      },
      "additionalContracts": [],
      "isFixedGasLimit": false
    }
  ],
  "receipts": [
    {
      "status": "0x1",
      "cumulativeGasUsed": "0x30ba6",
      "logs": [],
      "logsBloom": "0x00000000000000000000000000000000000000000000000000000000000000000000000000000000000000000000000000000000000000000000000000000000000000000000000000000000000000000000000000000000000000000000000000000000000000000000000000000000000000000000000000000000000000000000000000000000000000000000000000000000000000000000000000000000000000000000000000000000000000000000000000000000000000000000000000000000000000000000000000000000000000000000000000000000000000000000000000000000000000000000000000000000000000000000000000000000",
      "type": "0x2",
      "transactionHash": "0xb9b938ec1e446c4147b5984c90e848f6ee447e966774ae05457c5abd85156b63",
      "transactionIndex": "0x0",
      "blockHash": "0x9f914fa3e210136ac8b2b4f042b0e54a5999724bdc389de1baadeed2420f59d7",
      "blockNumber": "0x9bc770f",
      "gasUsed": "0x30ba6",
      "effectiveGasPrice": "0x66720b300",
      "from": "0x6faff29226219756aa40ce648dbc65fb41de5f72",
      "to": null,
      "contractAddress": "0x8d1ec9bb33879573360c6f2f8d4563947bd3d060"
    },
    {
      "status": "0x1",
      "cumulativeGasUsed": "0x3e01d",
      "logs": [],
      "logsBloom": "0x00000000000000000000000000000000000000000000000000000000000000000000000000000000000000000000000000000000000000000000000000000000000000000000000000000000000000000000000000000000000000000000000000000000000000000000000000000000000000000000000000000000000000000000000000000000000000000000000000000000000000000000000000000000000000000000000000000000000000000000000000000000000000000000000000000000000000000000000000000000000000000000000000000000000000000000000000000000000000000000000000000000000000000000000000000000",
      "type": "0x2",
      "transactionHash": "0x5c32cd92d5333c657f5b66ae8616644507f3fba903dd8ff2bf816ed4de32431d",
      "transactionIndex": "0x1",
      "blockHash": "0x9f914fa3e210136ac8b2b4f042b0e54a5999724bdc389de1baadeed2420f59d7",
      "blockNumber": "0x9bc770f",
      "gasUsed": "0xd477",
      "effectiveGasPrice": "0x66720b300",
      "from": "0x6faff29226219756aa40ce648dbc65fb41de5f72",
      "to": "0x95ce14ee82410c4a7296205e0c663969703dc857",
      "contractAddress": null
    },
    {
      "status": "0x1",
      "cumulativeGasUsed": "0x6ebc3",
      "logs": [],
      "logsBloom": "0x00000000000000000000000000000000000000000000000000000000000000000000000000000000000000000000000000000000000000000000000000000000000000000000000000000000000000000000000000000000000000000000000000000000000000000000000000000000000000000000000000000000000000000000000000000000000000000000000000000000000000000000000000000000000000000000000000000000000000000000000000000000000000000000000000000000000000000000000000000000000000000000000000000000000000000000000000000000000000000000000000000000000000000000000000000000",
      "type": "0x2",
      "transactionHash": "0xb05ec30d279711efd0fe6c5628519d1333fdb7967432af73639bca1191647f22",
      "transactionIndex": "0x2",
      "blockHash": "0x9f914fa3e210136ac8b2b4f042b0e54a5999724bdc389de1baadeed2420f59d7",
      "blockNumber": "0x9bc770f",
      "gasUsed": "0x30ba6",
      "effectiveGasPrice": "0x66720b300",
      "from": "0x6faff29226219756aa40ce648dbc65fb41de5f72",
      "to": null,
      "contractAddress": "0x82c0b304ec5fd8ff66cf9aef3353291b1e85d348"
    },
    {
      "status": "0x1",
      "cumulativeGasUsed": "0x7c03a",
      "logs": [],
      "logsBloom": "0x00000000000000000000000000000000000000000000000000000000000000000000000000000000000000000000000000000000000000000000000000000000000000000000000000000000000000000000000000000000000000000000000000000000000000000000000000000000000000000000000000000000000000000000000000000000000000000000000000000000000000000000000000000000000000000000000000000000000000000000000000000000000000000000000000000000000000000000000000000000000000000000000000000000000000000000000000000000000000000000000000000000000000000000000000000000",
      "type": "0x2",
      "transactionHash": "0xdd8b78bfb88f9d013b7383e3f75f8aac9088a83f346aa276f99d57a60a71eb10",
      "transactionIndex": "0x3",
      "blockHash": "0x9f914fa3e210136ac8b2b4f042b0e54a5999724bdc389de1baadeed2420f59d7",
      "blockNumber": "0x9bc770f",
      "gasUsed": "0xd477",
      "effectiveGasPrice": "0x66720b300",
      "from": "0x6faff29226219756aa40ce648dbc65fb41de5f72",
      "to": "0x95ce14ee82410c4a7296205e0c663969703dc857",
      "contractAddress": null
    },
    {
      "status": "0x1",
      "cumulativeGasUsed": "0xacbe0",
      "logs": [],
      "logsBloom": "0x00000000000000000000000000000000000000000000000000000000000000000000000000000000000000000000000000000000000000000000000000000000000000000000000000000000000000000000000000000000000000000000000000000000000000000000000000000000000000000000000000000000000000000000000000000000000000000000000000000000000000000000000000000000000000000000000000000000000000000000000000000000000000000000000000000000000000000000000000000000000000000000000000000000000000000000000000000000000000000000000000000000000000000000000000000000",
      "type": "0x2",
      "transactionHash": "0x694dd10b9d4a522ed3f362c38114ea28ce0481cdb6c0cb3951ba075b27d564ba",
      "transactionIndex": "0x4",
      "blockHash": "0x9f914fa3e210136ac8b2b4f042b0e54a5999724bdc389de1baadeed2420f59d7",
      "blockNumber": "0x9bc770f",
      "gasUsed": "0x30ba6",
      "effectiveGasPrice": "0x66720b300",
      "from": "0x6faff29226219756aa40ce648dbc65fb41de5f72",
      "to": null,
      "contractAddress": "0x76baf7109d44713a79135cf7675d0e26305ddf97"
    },
    {
      "status": "0x1",
      "cumulativeGasUsed": "0xba057",
      "logs": [],
      "logsBloom": "0x00000000000000000000000000000000000000000000000000000000000000000000000000000000000000000000000000000000000000000000000000000000000000000000000000000000000000000000000000000000000000000000000000000000000000000000000000000000000000000000000000000000000000000000000000000000000000000000000000000000000000000000000000000000000000000000000000000000000000000000000000000000000000000000000000000000000000000000000000000000000000000000000000000000000000000000000000000000000000000000000000000000000000000000000000000000",
      "type": "0x2",
      "transactionHash": "0x01f73f8d059fcde2359d1945e871a9c5707abaa1b0c8354bde33c547904c7c71",
      "transactionIndex": "0x5",
      "blockHash": "0x9f914fa3e210136ac8b2b4f042b0e54a5999724bdc389de1baadeed2420f59d7",
      "blockNumber": "0x9bc770f",
      "gasUsed": "0xd477",
      "effectiveGasPrice": "0x66720b300",
      "from": "0x6faff29226219756aa40ce648dbc65fb41de5f72",
      "to": "0x95ce14ee82410c4a7296205e0c663969703dc857",
      "contractAddress": null
    },
    {
      "status": "0x1",
      "cumulativeGasUsed": "0xeabfd",
      "logs": [],
      "logsBloom": "0x00000000000000000000000000000000000000000000000000000000000000000000000000000000000000000000000000000000000000000000000000000000000000000000000000000000000000000000000000000000000000000000000000000000000000000000000000000000000000000000000000000000000000000000000000000000000000000000000000000000000000000000000000000000000000000000000000000000000000000000000000000000000000000000000000000000000000000000000000000000000000000000000000000000000000000000000000000000000000000000000000000000000000000000000000000000",
      "type": "0x2",
      "transactionHash": "0x1593ece080c3abbd89700233f1c9ed4f94ece5766163aa25b8984230d06f859c",
      "transactionIndex": "0x6",
      "blockHash": "0x9f914fa3e210136ac8b2b4f042b0e54a5999724bdc389de1baadeed2420f59d7",
      "blockNumber": "0x9bc770f",
      "gasUsed": "0x30ba6",
      "effectiveGasPrice": "0x66720b300",
      "from": "0x6faff29226219756aa40ce648dbc65fb41de5f72",
      "to": null,
      "contractAddress": "0x7e4526293c6cf24a9d62f3dfa897386431488798"
    },
    {
      "status": "0x1",
      "cumulativeGasUsed": "0xf8074",
      "logs": [],
      "logsBloom": "0x00000000000000000000000000000000000000000000000000000000000000000000000000000000000000000000000000000000000000000000000000000000000000000000000000000000000000000000000000000000000000000000000000000000000000000000000000000000000000000000000000000000000000000000000000000000000000000000000000000000000000000000000000000000000000000000000000000000000000000000000000000000000000000000000000000000000000000000000000000000000000000000000000000000000000000000000000000000000000000000000000000000000000000000000000000000",
      "type": "0x2",
      "transactionHash": "0x89948be32a85a6371121ca2036dc89c47a9dd8920f5d53ec05e95f3038c443a1",
      "transactionIndex": "0x7",
      "blockHash": "0x9f914fa3e210136ac8b2b4f042b0e54a5999724bdc389de1baadeed2420f59d7",
      "blockNumber": "0x9bc770f",
      "gasUsed": "0xd477",
      "effectiveGasPrice": "0x66720b300",
      "from": "0x6faff29226219756aa40ce648dbc65fb41de5f72",
      "to": "0x95ce14ee82410c4a7296205e0c663969703dc857",
      "contractAddress": null
    },
    {
      "status": "0x1",
      "cumulativeGasUsed": "0x128c1a",
      "logs": [],
      "logsBloom": "0x00000000000000000000000000000000000000000000000000000000000000000000000000000000000000000000000000000000000000000000000000000000000000000000000000000000000000000000000000000000000000000000000000000000000000000000000000000000000000000000000000000000000000000000000000000000000000000000000000000000000000000000000000000000000000000000000000000000000000000000000000000000000000000000000000000000000000000000000000000000000000000000000000000000000000000000000000000000000000000000000000000000000000000000000000000000",
      "type": "0x2",
      "transactionHash": "0x962e91fed12b4d944601c914c8a7a08b5dc8ac3ec014e312a144b07617b75962",
      "transactionIndex": "0x8",
      "blockHash": "0x9f914fa3e210136ac8b2b4f042b0e54a5999724bdc389de1baadeed2420f59d7",
      "blockNumber": "0x9bc770f",
      "gasUsed": "0x30ba6",
      "effectiveGasPrice": "0x66720b300",
      "from": "0x6faff29226219756aa40ce648dbc65fb41de5f72",
      "to": null,
      "contractAddress": "0xada62b90beb0f7a878a352ab3869f2e96c23ddd5"
    },
    {
      "status": "0x1",
      "cumulativeGasUsed": "0x136091",
      "logs": [],
      "logsBloom": "0x00000000000000000000000000000000000000000000000000000000000000000000000000000000000000000000000000000000000000000000000000000000000000000000000000000000000000000000000000000000000000000000000000000000000000000000000000000000000000000000000000000000000000000000000000000000000000000000000000000000000000000000000000000000000000000000000000000000000000000000000000000000000000000000000000000000000000000000000000000000000000000000000000000000000000000000000000000000000000000000000000000000000000000000000000000000",
      "type": "0x2",
      "transactionHash": "0x7dcefdd345be22d50c0ba067e518be6d8f07a0a39b38013b14f176a6a005c56b",
      "transactionIndex": "0x9",
      "blockHash": "0x9f914fa3e210136ac8b2b4f042b0e54a5999724bdc389de1baadeed2420f59d7",
      "blockNumber": "0x9bc770f",
      "gasUsed": "0xd477",
      "effectiveGasPrice": "0x66720b300",
      "from": "0x6faff29226219756aa40ce648dbc65fb41de5f72",
      "to": "0x95ce14ee82410c4a7296205e0c663969703dc857",
      "contractAddress": null
    },
    {
      "status": "0x1",
      "cumulativeGasUsed": "0x166c37",
      "logs": [],
      "logsBloom": "0x00000000000000000000000000000000000000000000000000000000000000000000000000000000000000000000000000000000000000000000000000000000000000000000000000000000000000000000000000000000000000000000000000000000000000000000000000000000000000000000000000000000000000000000000000000000000000000000000000000000000000000000000000000000000000000000000000000000000000000000000000000000000000000000000000000000000000000000000000000000000000000000000000000000000000000000000000000000000000000000000000000000000000000000000000000000",
      "type": "0x2",
      "transactionHash": "0xfe0d7cefa4e45e06f599aef24a78a7637d0274a35d36edb0b323b859afc6a8e3",
      "transactionIndex": "0xa",
      "blockHash": "0x9f914fa3e210136ac8b2b4f042b0e54a5999724bdc389de1baadeed2420f59d7",
      "blockNumber": "0x9bc770f",
      "gasUsed": "0x30ba6",
      "effectiveGasPrice": "0x66720b300",
      "from": "0x6faff29226219756aa40ce648dbc65fb41de5f72",
      "to": null,
      "contractAddress": "0x02980e8dfe2e7108fd0975d337db2999d667a25b"
    },
    {
      "status": "0x1",
      "cumulativeGasUsed": "0x1740ae",
      "logs": [],
      "logsBloom": "0x00000000000000000000000000000000000000000000000000000000000000000000000000000000000000000000000000000000000000000000000000000000000000000000000000000000000000000000000000000000000000000000000000000000000000000000000000000000000000000000000000000000000000000000000000000000000000000000000000000000000000000000000000000000000000000000000000000000000000000000000000000000000000000000000000000000000000000000000000000000000000000000000000000000000000000000000000000000000000000000000000000000000000000000000000000000",
      "type": "0x2",
      "transactionHash": "0xec2106a34abcb91f7c30a8290ea19dda873b127b86878cab3d7ee7db037cb731",
      "transactionIndex": "0xb",
      "blockHash": "0x9f914fa3e210136ac8b2b4f042b0e54a5999724bdc389de1baadeed2420f59d7",
      "blockNumber": "0x9bc770f",
      "gasUsed": "0xd477",
      "effectiveGasPrice": "0x66720b300",
      "from": "0x6faff29226219756aa40ce648dbc65fb41de5f72",
      "to": "0x95ce14ee82410c4a7296205e0c663969703dc857",
      "contractAddress": null
    },
    {
      "status": "0x1",
      "cumulativeGasUsed": "0x1a4c54",
      "logs": [],
      "logsBloom": "0x00000000000000000000000000000000000000000000000000000000000000000000000000000000000000000000000000000000000000000000000000000000000000000000000000000000000000000000000000000000000000000000000000000000000000000000000000000000000000000000000000000000000000000000000000000000000000000000000000000000000000000000000000000000000000000000000000000000000000000000000000000000000000000000000000000000000000000000000000000000000000000000000000000000000000000000000000000000000000000000000000000000000000000000000000000000",
      "type": "0x2",
      "transactionHash": "0x5921b9a52aec7c0ac67b61f742131d261cb865dbb3ff72c40cb72127da3cf222",
      "transactionIndex": "0xc",
      "blockHash": "0x9f914fa3e210136ac8b2b4f042b0e54a5999724bdc389de1baadeed2420f59d7",
      "blockNumber": "0x9bc770f",
      "gasUsed": "0x30ba6",
      "effectiveGasPrice": "0x66720b300",
      "from": "0x6faff29226219756aa40ce648dbc65fb41de5f72",
      "to": null,
      "contractAddress": "0xf0c74fe3c80a278f11db5df339269ca9c6cfac40"
    },
    {
      "status": "0x1",
      "cumulativeGasUsed": "0x1b20cb",
      "logs": [],
      "logsBloom": "0x00000000000000000000000000000000000000000000000000000000000000000000000000000000000000000000000000000000000000000000000000000000000000000000000000000000000000000000000000000000000000000000000000000000000000000000000000000000000000000000000000000000000000000000000000000000000000000000000000000000000000000000000000000000000000000000000000000000000000000000000000000000000000000000000000000000000000000000000000000000000000000000000000000000000000000000000000000000000000000000000000000000000000000000000000000000",
      "type": "0x2",
      "transactionHash": "0xf7c9422de950b33ffab4d80b5b1328199c2ff5cbe58cca3d40acd8edcedc7e9b",
      "transactionIndex": "0xd",
      "blockHash": "0x9f914fa3e210136ac8b2b4f042b0e54a5999724bdc389de1baadeed2420f59d7",
      "blockNumber": "0x9bc770f",
      "gasUsed": "0xd477",
      "effectiveGasPrice": "0x66720b300",
      "from": "0x6faff29226219756aa40ce648dbc65fb41de5f72",
      "to": "0x95ce14ee82410c4a7296205e0c663969703dc857",
      "contractAddress": null
    },
    {
      "status": "0x1",
      "cumulativeGasUsed": "0x1e2c71",
      "logs": [],
      "logsBloom": "0x00000000000000000000000000000000000000000000000000000000000000000000000000000000000000000000000000000000000000000000000000000000000000000000000000000000000000000000000000000000000000000000000000000000000000000000000000000000000000000000000000000000000000000000000000000000000000000000000000000000000000000000000000000000000000000000000000000000000000000000000000000000000000000000000000000000000000000000000000000000000000000000000000000000000000000000000000000000000000000000000000000000000000000000000000000000",
      "type": "0x2",
      "transactionHash": "0xa1e578b3cae4782638d7ac4ffe8ed650a3f5bb78d76f5f5d1dfd807268e76671",
      "transactionIndex": "0xe",
      "blockHash": "0x9f914fa3e210136ac8b2b4f042b0e54a5999724bdc389de1baadeed2420f59d7",
      "blockNumber": "0x9bc770f",
      "gasUsed": "0x30ba6",
      "effectiveGasPrice": "0x66720b300",
      "from": "0x6faff29226219756aa40ce648dbc65fb41de5f72",
      "to": null,
      "contractAddress": "0xecec8d919871af2d3747075538fc04affd14b3c2"
    },
    {
      "status": "0x1",
      "cumulativeGasUsed": "0x1f00e8",
      "logs": [],
      "logsBloom": "0x00000000000000000000000000000000000000000000000000000000000000000000000000000000000000000000000000000000000000000000000000000000000000000000000000000000000000000000000000000000000000000000000000000000000000000000000000000000000000000000000000000000000000000000000000000000000000000000000000000000000000000000000000000000000000000000000000000000000000000000000000000000000000000000000000000000000000000000000000000000000000000000000000000000000000000000000000000000000000000000000000000000000000000000000000000000",
      "type": "0x2",
      "transactionHash": "0xad8d5db3e2c5e9f8751d1980955576ab7941506ce98f91f3d24c9aaeee223a0a",
      "transactionIndex": "0xf",
      "blockHash": "0x9f914fa3e210136ac8b2b4f042b0e54a5999724bdc389de1baadeed2420f59d7",
      "blockNumber": "0x9bc770f",
      "gasUsed": "0xd477",
      "effectiveGasPrice": "0x66720b300",
      "from": "0x6faff29226219756aa40ce648dbc65fb41de5f72",
      "to": "0x95ce14ee82410c4a7296205e0c663969703dc857",
      "contractAddress": null
    },
    {
      "status": "0x1",
      "cumulativeGasUsed": "0x220c8e",
      "logs": [],
      "logsBloom": "0x00000000000000000000000000000000000000000000000000000000000000000000000000000000000000000000000000000000000000000000000000000000000000000000000000000000000000000000000000000000000000000000000000000000000000000000000000000000000000000000000000000000000000000000000000000000000000000000000000000000000000000000000000000000000000000000000000000000000000000000000000000000000000000000000000000000000000000000000000000000000000000000000000000000000000000000000000000000000000000000000000000000000000000000000000000000",
      "type": "0x2",
      "transactionHash": "0x1c4d920e40b783a09010b781558cd96d91cd6d9c05d6981b9410d2591166b738",
      "transactionIndex": "0x10",
      "blockHash": "0x9f914fa3e210136ac8b2b4f042b0e54a5999724bdc389de1baadeed2420f59d7",
      "blockNumber": "0x9bc770f",
      "gasUsed": "0x30ba6",
      "effectiveGasPrice": "0x66720b300",
      "from": "0x6faff29226219756aa40ce648dbc65fb41de5f72",
      "to": null,
      "contractAddress": "0x843cde63c507758ac267143bc418529426032d34"
    },
    {
      "status": "0x1",
      "cumulativeGasUsed": "0x22e105",
      "logs": [],
      "logsBloom": "0x00000000000000000000000000000000000000000000000000000000000000000000000000000000000000000000000000000000000000000000000000000000000000000000000000000000000000000000000000000000000000000000000000000000000000000000000000000000000000000000000000000000000000000000000000000000000000000000000000000000000000000000000000000000000000000000000000000000000000000000000000000000000000000000000000000000000000000000000000000000000000000000000000000000000000000000000000000000000000000000000000000000000000000000000000000000",
      "type": "0x2",
      "transactionHash": "0x1409d253e144c7e0d616538fdf9032a76f6a60794077517a1d8e42e3fd97c8dc",
      "transactionIndex": "0x11",
      "blockHash": "0x9f914fa3e210136ac8b2b4f042b0e54a5999724bdc389de1baadeed2420f59d7",
      "blockNumber": "0x9bc770f",
      "gasUsed": "0xd477",
      "effectiveGasPrice": "0x66720b300",
      "from": "0x6faff29226219756aa40ce648dbc65fb41de5f72",
      "to": "0x95ce14ee82410c4a7296205e0c663969703dc857",
      "contractAddress": null
    },
    {
      "status": "0x1",
      "cumulativeGasUsed": "0x25ecab",
      "logs": [],
      "logsBloom": "0x00000000000000000000000000000000000000000000000000000000000000000000000000000000000000000000000000000000000000000000000000000000000000000000000000000000000000000000000000000000000000000000000000000000000000000000000000000000000000000000000000000000000000000000000000000000000000000000000000000000000000000000000000000000000000000000000000000000000000000000000000000000000000000000000000000000000000000000000000000000000000000000000000000000000000000000000000000000000000000000000000000000000000000000000000000000",
      "type": "0x2",
      "transactionHash": "0xe48dd1a559cadcfb3a6f90a5df454ec69794f0e81a8bc8c78490d623335805c2",
      "transactionIndex": "0x12",
      "blockHash": "0x9f914fa3e210136ac8b2b4f042b0e54a5999724bdc389de1baadeed2420f59d7",
      "blockNumber": "0x9bc770f",
      "gasUsed": "0x30ba6",
      "effectiveGasPrice": "0x66720b300",
      "from": "0x6faff29226219756aa40ce648dbc65fb41de5f72",
      "to": null,
      "contractAddress": "0x77884c6cb3ebfaa376059b7ddc16472645c0f36d"
    },
    {
      "status": "0x1",
      "cumulativeGasUsed": "0x26c122",
      "logs": [],
      "logsBloom": "0x00000000000000000000000000000000000000000000000000000000000000000000000000000000000000000000000000000000000000000000000000000000000000000000000000000000000000000000000000000000000000000000000000000000000000000000000000000000000000000000000000000000000000000000000000000000000000000000000000000000000000000000000000000000000000000000000000000000000000000000000000000000000000000000000000000000000000000000000000000000000000000000000000000000000000000000000000000000000000000000000000000000000000000000000000000000",
      "type": "0x2",
      "transactionHash": "0x744b28454039be9fd63b42619cfabdefdae397561206f21b625753c4f43bfdc8",
      "transactionIndex": "0x13",
      "blockHash": "0x9f914fa3e210136ac8b2b4f042b0e54a5999724bdc389de1baadeed2420f59d7",
      "blockNumber": "0x9bc770f",
      "gasUsed": "0xd477",
      "effectiveGasPrice": "0x66720b300",
      "from": "0x6faff29226219756aa40ce648dbc65fb41de5f72",
      "to": "0x95ce14ee82410c4a7296205e0c663969703dc857",
      "contractAddress": null
    }
  ],
  "libraries": [],
  "pending": [],
  "returns": {},
  "timestamp": 1724927849,
  "chain": 1001,
  "commit": "cd51cc8"
}