{
  "transactions": [
    {
      "hash": "0x0034cb2a5a088fffb7c3d11f7d1a137510f9dbe26dab96930fc3195268cc36b6",
      "transactionType": "CREATE",
      "contractName": "BanditFort",
      "contractAddress": "0x069fa80e865f20637d4a25e362390c834ababb99",
      "function": null,
      "arguments": null,
      "transaction": {
        "from": "0x6faff29226219756aa40ce648dbc65fb41de5f72",
        "gas": "0x522fc",
        "value": "0x0",
        "input": "0x6080604052600280546001600160a01b0319908116339081179092555f805490911690911790553460015561013b806100375f395ff3fe608060405260043610610036575f3560e01c80638da5cb5b146100b3578063b86cf42d146100ef578063e3ac5d261461010b575f80fd5b366100af576001543410158061005657506002546001600160a01b031633145b61005e575f80fd5b5f80546040516001600160a01b03909116913480156108fc02929091818181858888f19350505050158015610095573d5f803e3d5ffd5b505f80546001600160a01b03191633179055346001819055005b5f80fd5b3480156100be575f80fd5b506002546100d2906001600160a01b031681565b6040516001600160a01b0390911681526020015b60405180910390f35b3480156100fa575f80fd5b505f546001600160a01b03166100d2565b348015610116575f80fd5b5061012060015481565b6040519081526020016100e656fea164736f6c6343000819000a",
        "nonce": "0x326",
        "chainId": "0x3e9"
      },
      "additionalContracts": [],
      "isFixedGasLimit": false
    },
    {
      "hash": "0x0a0d910876465e39576ba703cfc29d37e3a3e9c705e0b7606c0529489332296b",
      "transactionType": "CALL",
      "contractName": null,
      "contractAddress": "0x95ce14ee82410c4a7296205e0c663969703dc857",
      "function": "addBanditFort(address)",
      "arguments": [
        "0x069fa80e865f20637d4A25E362390C834ababB99"
      ],
      "transaction": {
        "from": "0x6faff29226219756aa40ce648dbc65fb41de5f72",
        "to": "0x95ce14ee82410c4a7296205e0c663969703dc857",
        "gas": "0x1a930",
        "value": "0x0",
        "input": "0xb32a9302000000000000000000000000069fa80e865f20637d4a25e362390c834ababb99",
        "nonce": "0x327",
        "chainId": "0x3e9"
      },
      "additionalContracts": [],
      "isFixedGasLimit": false
    },
    {
      "hash": "0x217d5f97ec678201f6e760b1b9564915fddab8ed36efd275e53d13e8433908b0",
      "transactionType": "CREATE",
      "contractName": "BanditFort",
      "contractAddress": "0x0f499ca5d57a9aa04a715b9c21fa75bf96018d59",
      "function": null,
      "arguments": null,
      "transaction": {
        "from": "0x6faff29226219756aa40ce648dbc65fb41de5f72",
        "gas": "0x522fc",
        "value": "0x0",
        "input": "0x6080604052600280546001600160a01b0319908116339081179092555f805490911690911790553460015561013b806100375f395ff3fe608060405260043610610036575f3560e01c80638da5cb5b146100b3578063b86cf42d146100ef578063e3ac5d261461010b575f80fd5b366100af576001543410158061005657506002546001600160a01b031633145b61005e575f80fd5b5f80546040516001600160a01b03909116913480156108fc02929091818181858888f19350505050158015610095573d5f803e3d5ffd5b505f80546001600160a01b03191633179055346001819055005b5f80fd5b3480156100be575f80fd5b506002546100d2906001600160a01b031681565b6040516001600160a01b0390911681526020015b60405180910390f35b3480156100fa575f80fd5b505f546001600160a01b03166100d2565b348015610116575f80fd5b5061012060015481565b6040519081526020016100e656fea164736f6c6343000819000a",
        "nonce": "0x328",
        "chainId": "0x3e9"
      },
      "additionalContracts": [],
      "isFixedGasLimit": false
    },
    {
      "hash": "0x79519e029b782abf8397abedbce6771fe5f70a1f876a32873ec717f11f72b19f",
      "transactionType": "CALL",
      "contractName": null,
      "contractAddress": "0x95ce14ee82410c4a7296205e0c663969703dc857",
      "function": "addBanditFort(address)",
      "arguments": [
        "0x0f499cA5d57A9AA04A715B9c21FA75BF96018D59"
      ],
      "transaction": {
        "from": "0x6faff29226219756aa40ce648dbc65fb41de5f72",
        "to": "0x95ce14ee82410c4a7296205e0c663969703dc857",
        "gas": "0x1a930",
        "value": "0x0",
        "input": "0xb32a93020000000000000000000000000f499ca5d57a9aa04a715b9c21fa75bf96018d59",
        "nonce": "0x329",
        "chainId": "0x3e9"
      },
      "additionalContracts": [],
      "isFixedGasLimit": false
    },
    {
      "hash": "0x3403ded31e981889b316196c6b8e7a8847c501ca840a30cba8205b73085390cb",
      "transactionType": "CREATE",
      "contractName": "BanditFort",
      "contractAddress": "0x6f8e164d2740a0a615918d7c77a8fc13e7967123",
      "function": null,
      "arguments": null,
      "transaction": {
        "from": "0x6faff29226219756aa40ce648dbc65fb41de5f72",
        "gas": "0x522fc",
        "value": "0x0",
        "input": "0x6080604052600280546001600160a01b0319908116339081179092555f805490911690911790553460015561013b806100375f395ff3fe608060405260043610610036575f3560e01c80638da5cb5b146100b3578063b86cf42d146100ef578063e3ac5d261461010b575f80fd5b366100af576001543410158061005657506002546001600160a01b031633145b61005e575f80fd5b5f80546040516001600160a01b03909116913480156108fc02929091818181858888f19350505050158015610095573d5f803e3d5ffd5b505f80546001600160a01b03191633179055346001819055005b5f80fd5b3480156100be575f80fd5b506002546100d2906001600160a01b031681565b6040516001600160a01b0390911681526020015b60405180910390f35b3480156100fa575f80fd5b505f546001600160a01b03166100d2565b348015610116575f80fd5b5061012060015481565b6040519081526020016100e656fea164736f6c6343000819000a",
        "nonce": "0x32a",
        "chainId": "0x3e9"
      },
      "additionalContracts": [],
      "isFixedGasLimit": false
    },
    {
      "hash": "0x6b7929a286a11b7a1896998f24fafa5ac644983b2462da0d5a0cb53187ca326c",
      "transactionType": "CALL",
      "contractName": null,
      "contractAddress": "0x95ce14ee82410c4a7296205e0c663969703dc857",
      "function": "addBanditFort(address)",
      "arguments": [
        "0x6F8E164d2740A0a615918D7c77A8fc13e7967123"
      ],
      "transaction": {
        "from": "0x6faff29226219756aa40ce648dbc65fb41de5f72",
        "to": "0x95ce14ee82410c4a7296205e0c663969703dc857",
        "gas": "0x1a930",
        "value": "0x0",
        "input": "0xb32a93020000000000000000000000006f8e164d2740a0a615918d7c77a8fc13e7967123",
        "nonce": "0x32b",
        "chainId": "0x3e9"
      },
      "additionalContracts": [],
      "isFixedGasLimit": false
    },
    {
      "hash": "0x01dce9f478784f9cd1b0ab96f2048d9dbe75a0493a30c0f390e63c980ef4be1f",
      "transactionType": "CREATE",
      "contractName": "BanditFort",
      "contractAddress": "0x6bb57f64d2db5072997da0d560692907c47cc31d",
      "function": null,
      "arguments": null,
      "transaction": {
        "from": "0x6faff29226219756aa40ce648dbc65fb41de5f72",
        "gas": "0x522fc",
        "value": "0x0",
        "input": "0x6080604052600280546001600160a01b0319908116339081179092555f805490911690911790553460015561013b806100375f395ff3fe608060405260043610610036575f3560e01c80638da5cb5b146100b3578063b86cf42d146100ef578063e3ac5d261461010b575f80fd5b366100af576001543410158061005657506002546001600160a01b031633145b61005e575f80fd5b5f80546040516001600160a01b03909116913480156108fc02929091818181858888f19350505050158015610095573d5f803e3d5ffd5b505f80546001600160a01b03191633179055346001819055005b5f80fd5b3480156100be575f80fd5b506002546100d2906001600160a01b031681565b6040516001600160a01b0390911681526020015b60405180910390f35b3480156100fa575f80fd5b505f546001600160a01b03166100d2565b348015610116575f80fd5b5061012060015481565b6040519081526020016100e656fea164736f6c6343000819000a",
        "nonce": "0x32c",
        "chainId": "0x3e9"
      },
      "additionalContracts": [],
      "isFixedGasLimit": false
    },
    {
      "hash": "0xbb1cec0a7ff7c8bd4c8f78c680eceb11f2cc5c9d2cbf7f17a774bf02c386f6e2",
      "transactionType": "CALL",
      "contractName": null,
      "contractAddress": "0x95ce14ee82410c4a7296205e0c663969703dc857",
      "function": "addBanditFort(address)",
      "arguments": [
        "0x6bB57f64d2dB5072997da0d560692907c47cc31D"
      ],
      "transaction": {
        "from": "0x6faff29226219756aa40ce648dbc65fb41de5f72",
        "to": "0x95ce14ee82410c4a7296205e0c663969703dc857",
        "gas": "0x1a930",
        "value": "0x0",
        "input": "0xb32a93020000000000000000000000006bb57f64d2db5072997da0d560692907c47cc31d",
        "nonce": "0x32d",
        "chainId": "0x3e9"
      },
      "additionalContracts": [],
      "isFixedGasLimit": false
    },
    {
      "hash": "0x483081c07d11c46ece707d964e3d90298ec5a4b5f4e434ea68a5d7dad3cef927",
      "transactionType": "CREATE",
      "contractName": "BanditFort",
      "contractAddress": "0x40c0edc5781fc370b3bd14611009b08bae19e1ad",
      "function": null,
      "arguments": null,
      "transaction": {
        "from": "0x6faff29226219756aa40ce648dbc65fb41de5f72",
        "gas": "0x522fc",
        "value": "0x0",
        "input": "0x6080604052600280546001600160a01b0319908116339081179092555f805490911690911790553460015561013b806100375f395ff3fe608060405260043610610036575f3560e01c80638da5cb5b146100b3578063b86cf42d146100ef578063e3ac5d261461010b575f80fd5b366100af576001543410158061005657506002546001600160a01b031633145b61005e575f80fd5b5f80546040516001600160a01b03909116913480156108fc02929091818181858888f19350505050158015610095573d5f803e3d5ffd5b505f80546001600160a01b03191633179055346001819055005b5f80fd5b3480156100be575f80fd5b506002546100d2906001600160a01b031681565b6040516001600160a01b0390911681526020015b60405180910390f35b3480156100fa575f80fd5b505f546001600160a01b03166100d2565b348015610116575f80fd5b5061012060015481565b6040519081526020016100e656fea164736f6c6343000819000a",
        "nonce": "0x32e",
        "chainId": "0x3e9"
      },
      "additionalContracts": [],
      "isFixedGasLimit": false
    },
    {
      "hash": "0x19a8531113af003d247e97bec7cc42bcb7a63808e6550311a92b960d361ddbe4",
      "transactionType": "CALL",
      "contractName": null,
      "contractAddress": "0x95ce14ee82410c4a7296205e0c663969703dc857",
      "function": "addBanditFort(address)",
      "arguments": [
        "0x40C0eDC5781fc370b3bD14611009b08bAe19e1AD"
      ],
      "transaction": {
        "from": "0x6faff29226219756aa40ce648dbc65fb41de5f72",
        "to": "0x95ce14ee82410c4a7296205e0c663969703dc857",
        "gas": "0x1a930",
        "value": "0x0",
        "input": "0xb32a930200000000000000000000000040c0edc5781fc370b3bd14611009b08bae19e1ad",
        "nonce": "0x32f",
        "chainId": "0x3e9"
      },
      "additionalContracts": [],
      "isFixedGasLimit": false
    },
    {
      "hash": "0x7eba7a308f257652dd0f30d15e97310c6db4434842fb2dc0c0417850a839ff6a",
      "transactionType": "CREATE",
      "contractName": "BanditFort",
      "contractAddress": "0x05b22816a43cbed1927a8c7b6b90a02e25888e11",
      "function": null,
      "arguments": null,
      "transaction": {
        "from": "0x6faff29226219756aa40ce648dbc65fb41de5f72",
        "gas": "0x522fc",
        "value": "0x0",
        "input": "0x6080604052600280546001600160a01b0319908116339081179092555f805490911690911790553460015561013b806100375f395ff3fe608060405260043610610036575f3560e01c80638da5cb5b146100b3578063b86cf42d146100ef578063e3ac5d261461010b575f80fd5b366100af576001543410158061005657506002546001600160a01b031633145b61005e575f80fd5b5f80546040516001600160a01b03909116913480156108fc02929091818181858888f19350505050158015610095573d5f803e3d5ffd5b505f80546001600160a01b03191633179055346001819055005b5f80fd5b3480156100be575f80fd5b506002546100d2906001600160a01b031681565b6040516001600160a01b0390911681526020015b60405180910390f35b3480156100fa575f80fd5b505f546001600160a01b03166100d2565b348015610116575f80fd5b5061012060015481565b6040519081526020016100e656fea164736f6c6343000819000a",
        "nonce": "0x330",
        "chainId": "0x3e9"
      },
      "additionalContracts": [],
      "isFixedGasLimit": false
    },
    {
      "hash": "0xde9fab6a34e052b1e1f370f2534b4202a18bc581af22f71af0c75137f73733f3",
      "transactionType": "CALL",
      "contractName": null,
      "contractAddress": "0x95ce14ee82410c4a7296205e0c663969703dc857",
      "function": "addBanditFort(address)",
      "arguments": [
        "0x05b22816A43CBEd1927A8c7b6b90A02e25888e11"
      ],
      "transaction": {
        "from": "0x6faff29226219756aa40ce648dbc65fb41de5f72",
        "to": "0x95ce14ee82410c4a7296205e0c663969703dc857",
        "gas": "0x1a930",
        "value": "0x0",
        "input": "0xb32a930200000000000000000000000005b22816a43cbed1927a8c7b6b90a02e25888e11",
        "nonce": "0x331",
        "chainId": "0x3e9"
      },
      "additionalContracts": [],
      "isFixedGasLimit": false
    },
    {
      "hash": "0x795dbf2653e1a198a1095318639e12973d2a7920442b5da2567fcc181fa77031",
      "transactionType": "CREATE",
      "contractName": "BanditFort",
      "contractAddress": "0xaf9fb2e8f5824084545d815beb8ea23884765cf7",
      "function": null,
      "arguments": null,
      "transaction": {
        "from": "0x6faff29226219756aa40ce648dbc65fb41de5f72",
        "gas": "0x522fc",
        "value": "0x0",
        "input": "0x6080604052600280546001600160a01b0319908116339081179092555f805490911690911790553460015561013b806100375f395ff3fe608060405260043610610036575f3560e01c80638da5cb5b146100b3578063b86cf42d146100ef578063e3ac5d261461010b575f80fd5b366100af576001543410158061005657506002546001600160a01b031633145b61005e575f80fd5b5f80546040516001600160a01b03909116913480156108fc02929091818181858888f19350505050158015610095573d5f803e3d5ffd5b505f80546001600160a01b03191633179055346001819055005b5f80fd5b3480156100be575f80fd5b506002546100d2906001600160a01b031681565b6040516001600160a01b0390911681526020015b60405180910390f35b3480156100fa575f80fd5b505f546001600160a01b03166100d2565b348015610116575f80fd5b5061012060015481565b6040519081526020016100e656fea164736f6c6343000819000a",
        "nonce": "0x332",
        "chainId": "0x3e9"
      },
      "additionalContracts": [],
      "isFixedGasLimit": false
    },
    {
      "hash": "0x0182acc25f4c1bc4f1833e3af462b751c5a943582802e0e45316617bac80c50a",
      "transactionType": "CALL",
      "contractName": null,
      "contractAddress": "0x95ce14ee82410c4a7296205e0c663969703dc857",
      "function": "addBanditFort(address)",
      "arguments": [
        "0xAF9fb2E8F5824084545D815BEb8Ea23884765cf7"
      ],
      "transaction": {
        "from": "0x6faff29226219756aa40ce648dbc65fb41de5f72",
        "to": "0x95ce14ee82410c4a7296205e0c663969703dc857",
        "gas": "0x1a930",
        "value": "0x0",
        "input": "0xb32a9302000000000000000000000000af9fb2e8f5824084545d815beb8ea23884765cf7",
        "nonce": "0x333",
        "chainId": "0x3e9"
      },
      "additionalContracts": [],
      "isFixedGasLimit": false
    },
    {
      "hash": "0x985bcc59f5cf52577a4beca954a10299e670acbca3909561076d7ccd97c9d770",
      "transactionType": "CREATE",
      "contractName": "BanditFort",
      "contractAddress": "0xa927a2e03abde34c26eabf38e8b32c4e6d301467",
      "function": null,
      "arguments": null,
      "transaction": {
        "from": "0x6faff29226219756aa40ce648dbc65fb41de5f72",
        "gas": "0x522fc",
        "value": "0x0",
        "input": "0x6080604052600280546001600160a01b0319908116339081179092555f805490911690911790553460015561013b806100375f395ff3fe608060405260043610610036575f3560e01c80638da5cb5b146100b3578063b86cf42d146100ef578063e3ac5d261461010b575f80fd5b366100af576001543410158061005657506002546001600160a01b031633145b61005e575f80fd5b5f80546040516001600160a01b03909116913480156108fc02929091818181858888f19350505050158015610095573d5f803e3d5ffd5b505f80546001600160a01b03191633179055346001819055005b5f80fd5b3480156100be575f80fd5b506002546100d2906001600160a01b031681565b6040516001600160a01b0390911681526020015b60405180910390f35b3480156100fa575f80fd5b505f546001600160a01b03166100d2565b348015610116575f80fd5b5061012060015481565b6040519081526020016100e656fea164736f6c6343000819000a",
        "nonce": "0x334",
        "chainId": "0x3e9"
      },
      "additionalContracts": [],
      "isFixedGasLimit": false
    },
    {
      "hash": "0x8bc856f6812881df9e14c8446c091ba9525221fc387f021c072bce480dd1d850",
      "transactionType": "CALL",
      "contractName": null,
      "contractAddress": "0x95ce14ee82410c4a7296205e0c663969703dc857",
      "function": "addBanditFort(address)",
      "arguments": [
        "0xA927a2e03AbDe34c26EABf38e8B32c4E6D301467"
      ],
      "transaction": {
        "from": "0x6faff29226219756aa40ce648dbc65fb41de5f72",
        "to": "0x95ce14ee82410c4a7296205e0c663969703dc857",
        "gas": "0x1a930",
        "value": "0x0",
        "input": "0xb32a9302000000000000000000000000a927a2e03abde34c26eabf38e8b32c4e6d301467",
        "nonce": "0x335",
        "chainId": "0x3e9"
      },
      "additionalContracts": [],
      "isFixedGasLimit": false
    },
    {
      "hash": "0x718e8e42ef30f7886207a650b6bac8dc818e696d6429e9a7e4a768fb36413d32",
      "transactionType": "CREATE",
      "contractName": "BanditFort",
      "contractAddress": "0xb13a04cfae338a02fa9a130cfd5cdee5ba2e4645",
      "function": null,
      "arguments": null,
      "transaction": {
        "from": "0x6faff29226219756aa40ce648dbc65fb41de5f72",
        "gas": "0x522fc",
        "value": "0x0",
        "input": "0x6080604052600280546001600160a01b0319908116339081179092555f805490911690911790553460015561013b806100375f395ff3fe608060405260043610610036575f3560e01c80638da5cb5b146100b3578063b86cf42d146100ef578063e3ac5d261461010b575f80fd5b366100af576001543410158061005657506002546001600160a01b031633145b61005e575f80fd5b5f80546040516001600160a01b03909116913480156108fc02929091818181858888f19350505050158015610095573d5f803e3d5ffd5b505f80546001600160a01b03191633179055346001819055005b5f80fd5b3480156100be575f80fd5b506002546100d2906001600160a01b031681565b6040516001600160a01b0390911681526020015b60405180910390f35b3480156100fa575f80fd5b505f546001600160a01b03166100d2565b348015610116575f80fd5b5061012060015481565b6040519081526020016100e656fea164736f6c6343000819000a",
        "nonce": "0x336",
        "chainId": "0x3e9"
      },
      "additionalContracts": [],
      "isFixedGasLimit": false
    },
    {
      "hash": "0x2d5798ab7fafd52790504ee4afbdcc1c0cacb2c00d717c4808437c0f741db3b7",
      "transactionType": "CALL",
      "contractName": null,
      "contractAddress": "0x95ce14ee82410c4a7296205e0c663969703dc857",
      "function": "addBanditFort(address)",
      "arguments": [
        "0xb13A04cFAE338a02fA9A130Cfd5CdEE5BA2e4645"
      ],
      "transaction": {
        "from": "0x6faff29226219756aa40ce648dbc65fb41de5f72",
        "to": "0x95ce14ee82410c4a7296205e0c663969703dc857",
        "gas": "0x1a930",
        "value": "0x0",
        "input": "0xb32a9302000000000000000000000000b13a04cfae338a02fa9a130cfd5cdee5ba2e4645",
        "nonce": "0x337",
        "chainId": "0x3e9"
      },
      "additionalContracts": [],
      "isFixedGasLimit": false
    },
    {
      "hash": "0x6635e7fc61dc524e419449ad7256f5c01acb80373c116035573bc3d350eac871",
      "transactionType": "CREATE",
      "contractName": "BanditFort",
      "contractAddress": "0xaab9c3122ed44374233bfe26f3ee3b6d33fd4b26",
      "function": null,
      "arguments": null,
      "transaction": {
        "from": "0x6faff29226219756aa40ce648dbc65fb41de5f72",
        "gas": "0x522fc",
        "value": "0x0",
        "input": "0x6080604052600280546001600160a01b0319908116339081179092555f805490911690911790553460015561013b806100375f395ff3fe608060405260043610610036575f3560e01c80638da5cb5b146100b3578063b86cf42d146100ef578063e3ac5d261461010b575f80fd5b366100af576001543410158061005657506002546001600160a01b031633145b61005e575f80fd5b5f80546040516001600160a01b03909116913480156108fc02929091818181858888f19350505050158015610095573d5f803e3d5ffd5b505f80546001600160a01b03191633179055346001819055005b5f80fd5b3480156100be575f80fd5b506002546100d2906001600160a01b031681565b6040516001600160a01b0390911681526020015b60405180910390f35b3480156100fa575f80fd5b505f546001600160a01b03166100d2565b348015610116575f80fd5b5061012060015481565b6040519081526020016100e656fea164736f6c6343000819000a",
        "nonce": "0x338",
        "chainId": "0x3e9"
      },
      "additionalContracts": [],
      "isFixedGasLimit": false
    },
    {
      "hash": "0xf6d15941a7a820b8e6088aa7417b43a7e5b77e62d9af9ebb0374f668c7fc4d95",
      "transactionType": "CALL",
      "contractName": null,
      "contractAddress": "0x95ce14ee82410c4a7296205e0c663969703dc857",
      "function": "addBanditFort(address)",
      "arguments": [
        "0xAAB9c3122eD44374233bFe26F3Ee3B6d33FD4B26"
      ],
      "transaction": {
        "from": "0x6faff29226219756aa40ce648dbc65fb41de5f72",
        "to": "0x95ce14ee82410c4a7296205e0c663969703dc857",
        "gas": "0x1a930",
        "value": "0x0",
        "input": "0xb32a9302000000000000000000000000aab9c3122ed44374233bfe26f3ee3b6d33fd4b26",
        "nonce": "0x339",
        "chainId": "0x3e9"
      },
      "additionalContracts": [],
      "isFixedGasLimit": false
    }
  ],
  "receipts": [
    {
      "status": "0x1",
      "cumulativeGasUsed": "0x30ba6",
      "logs": [],
      "logsBloom": "0x00000000000000000000000000000000000000000000000000000000000000000000000000000000000000000000000000000000000000000000000000000000000000000000000000000000000000000000000000000000000000000000000000000000000000000000000000000000000000000000000000000000000000000000000000000000000000000000000000000000000000000000000000000000000000000000000000000000000000000000000000000000000000000000000000000000000000000000000000000000000000000000000000000000000000000000000000000000000000000000000000000000000000000000000000000000",
      "type": "0x2",
      "transactionHash": "0x0034cb2a5a088fffb7c3d11f7d1a137510f9dbe26dab96930fc3195268cc36b6",
      "transactionIndex": "0x0",
      "blockHash": "0xca7acdd6013adfce6956d24a12cd352c3f24c4327b201c0926492ebf6d8594d9",
      "blockNumber": "0x9bc704f",
      "gasUsed": "0x30ba6",
      "effectiveGasPrice": "0x66720b300",
      "from": "0x6faff29226219756aa40ce648dbc65fb41de5f72",
      "to": null,
      "contractAddress": "0x069fa80e865f20637d4a25e362390c834ababb99"
    },
    {
      "status": "0x1",
      "cumulativeGasUsed": "0x3e01d",
      "logs": [],
      "logsBloom": "0x00000000000000000000000000000000000000000000000000000000000000000000000000000000000000000000000000000000000000000000000000000000000000000000000000000000000000000000000000000000000000000000000000000000000000000000000000000000000000000000000000000000000000000000000000000000000000000000000000000000000000000000000000000000000000000000000000000000000000000000000000000000000000000000000000000000000000000000000000000000000000000000000000000000000000000000000000000000000000000000000000000000000000000000000000000000",
      "type": "0x2",
      "transactionHash": "0x0a0d910876465e39576ba703cfc29d37e3a3e9c705e0b7606c0529489332296b",
      "transactionIndex": "0x1",
      "blockHash": "0xca7acdd6013adfce6956d24a12cd352c3f24c4327b201c0926492ebf6d8594d9",
      "blockNumber": "0x9bc704f",
      "gasUsed": "0xd477",
      "effectiveGasPrice": "0x66720b300",
      "from": "0x6faff29226219756aa40ce648dbc65fb41de5f72",
      "to": "0x95ce14ee82410c4a7296205e0c663969703dc857",
      "contractAddress": null
    },
    {
      "status": "0x1",
      "cumulativeGasUsed": "0x6ebc3",
      "logs": [],
      "logsBloom": "0x00000000000000000000000000000000000000000000000000000000000000000000000000000000000000000000000000000000000000000000000000000000000000000000000000000000000000000000000000000000000000000000000000000000000000000000000000000000000000000000000000000000000000000000000000000000000000000000000000000000000000000000000000000000000000000000000000000000000000000000000000000000000000000000000000000000000000000000000000000000000000000000000000000000000000000000000000000000000000000000000000000000000000000000000000000000",
      "type": "0x2",
      "transactionHash": "0x217d5f97ec678201f6e760b1b9564915fddab8ed36efd275e53d13e8433908b0",
      "transactionIndex": "0x2",
      "blockHash": "0xca7acdd6013adfce6956d24a12cd352c3f24c4327b201c0926492ebf6d8594d9",
      "blockNumber": "0x9bc704f",
      "gasUsed": "0x30ba6",
      "effectiveGasPrice": "0x66720b300",
      "from": "0x6faff29226219756aa40ce648dbc65fb41de5f72",
      "to": null,
      "contractAddress": "0x0f499ca5d57a9aa04a715b9c21fa75bf96018d59"
    },
    {
      "status": "0x1",
      "cumulativeGasUsed": "0x7c03a",
      "logs": [],
      "logsBloom": "0x00000000000000000000000000000000000000000000000000000000000000000000000000000000000000000000000000000000000000000000000000000000000000000000000000000000000000000000000000000000000000000000000000000000000000000000000000000000000000000000000000000000000000000000000000000000000000000000000000000000000000000000000000000000000000000000000000000000000000000000000000000000000000000000000000000000000000000000000000000000000000000000000000000000000000000000000000000000000000000000000000000000000000000000000000000000",
      "type": "0x2",
      "transactionHash": "0x79519e029b782abf8397abedbce6771fe5f70a1f876a32873ec717f11f72b19f",
      "transactionIndex": "0x3",
      "blockHash": "0xca7acdd6013adfce6956d24a12cd352c3f24c4327b201c0926492ebf6d8594d9",
      "blockNumber": "0x9bc704f",
      "gasUsed": "0xd477",
      "effectiveGasPrice": "0x66720b300",
      "from": "0x6faff29226219756aa40ce648dbc65fb41de5f72",
      "to": "0x95ce14ee82410c4a7296205e0c663969703dc857",
      "contractAddress": null
    },
    {
      "status": "0x1",
      "cumulativeGasUsed": "0xacbe0",
      "logs": [],
      "logsBloom": "0x00000000000000000000000000000000000000000000000000000000000000000000000000000000000000000000000000000000000000000000000000000000000000000000000000000000000000000000000000000000000000000000000000000000000000000000000000000000000000000000000000000000000000000000000000000000000000000000000000000000000000000000000000000000000000000000000000000000000000000000000000000000000000000000000000000000000000000000000000000000000000000000000000000000000000000000000000000000000000000000000000000000000000000000000000000000",
      "type": "0x2",
      "transactionHash": "0x3403ded31e981889b316196c6b8e7a8847c501ca840a30cba8205b73085390cb",
      "transactionIndex": "0x4",
      "blockHash": "0xca7acdd6013adfce6956d24a12cd352c3f24c4327b201c0926492ebf6d8594d9",
      "blockNumber": "0x9bc704f",
      "gasUsed": "0x30ba6",
      "effectiveGasPrice": "0x66720b300",
      "from": "0x6faff29226219756aa40ce648dbc65fb41de5f72",
      "to": null,
      "contractAddress": "0x6f8e164d2740a0a615918d7c77a8fc13e7967123"
    },
    {
      "status": "0x1",
      "cumulativeGasUsed": "0xba057",
      "logs": [],
      "logsBloom": "0x00000000000000000000000000000000000000000000000000000000000000000000000000000000000000000000000000000000000000000000000000000000000000000000000000000000000000000000000000000000000000000000000000000000000000000000000000000000000000000000000000000000000000000000000000000000000000000000000000000000000000000000000000000000000000000000000000000000000000000000000000000000000000000000000000000000000000000000000000000000000000000000000000000000000000000000000000000000000000000000000000000000000000000000000000000000",
      "type": "0x2",
      "transactionHash": "0x6b7929a286a11b7a1896998f24fafa5ac644983b2462da0d5a0cb53187ca326c",
      "transactionIndex": "0x5",
      "blockHash": "0xca7acdd6013adfce6956d24a12cd352c3f24c4327b201c0926492ebf6d8594d9",
      "blockNumber": "0x9bc704f",
      "gasUsed": "0xd477",
      "effectiveGasPrice": "0x66720b300",
      "from": "0x6faff29226219756aa40ce648dbc65fb41de5f72",
      "to": "0x95ce14ee82410c4a7296205e0c663969703dc857",
      "contractAddress": null
    },
    {
      "status": "0x1",
      "cumulativeGasUsed": "0xeabfd",
      "logs": [],
      "logsBloom": "0x00000000000000000000000000000000000000000000000000000000000000000000000000000000000000000000000000000000000000000000000000000000000000000000000000000000000000000000000000000000000000000000000000000000000000000000000000000000000000000000000000000000000000000000000000000000000000000000000000000000000000000000000000000000000000000000000000000000000000000000000000000000000000000000000000000000000000000000000000000000000000000000000000000000000000000000000000000000000000000000000000000000000000000000000000000000",
      "type": "0x2",
      "transactionHash": "0x01dce9f478784f9cd1b0ab96f2048d9dbe75a0493a30c0f390e63c980ef4be1f",
      "transactionIndex": "0x6",
      "blockHash": "0xca7acdd6013adfce6956d24a12cd352c3f24c4327b201c0926492ebf6d8594d9",
      "blockNumber": "0x9bc704f",
      "gasUsed": "0x30ba6",
      "effectiveGasPrice": "0x66720b300",
      "from": "0x6faff29226219756aa40ce648dbc65fb41de5f72",
      "to": null,
      "contractAddress": "0x6bb57f64d2db5072997da0d560692907c47cc31d"
    },
    {
      "status": "0x1",
      "cumulativeGasUsed": "0xf8074",
      "logs": [],
      "logsBloom": "0x00000000000000000000000000000000000000000000000000000000000000000000000000000000000000000000000000000000000000000000000000000000000000000000000000000000000000000000000000000000000000000000000000000000000000000000000000000000000000000000000000000000000000000000000000000000000000000000000000000000000000000000000000000000000000000000000000000000000000000000000000000000000000000000000000000000000000000000000000000000000000000000000000000000000000000000000000000000000000000000000000000000000000000000000000000000",
      "type": "0x2",
      "transactionHash": "0xbb1cec0a7ff7c8bd4c8f78c680eceb11f2cc5c9d2cbf7f17a774bf02c386f6e2",
      "transactionIndex": "0x7",
      "blockHash": "0xca7acdd6013adfce6956d24a12cd352c3f24c4327b201c0926492ebf6d8594d9",
      "blockNumber": "0x9bc704f",
      "gasUsed": "0xd477",
      "effectiveGasPrice": "0x66720b300",
      "from": "0x6faff29226219756aa40ce648dbc65fb41de5f72",
      "to": "0x95ce14ee82410c4a7296205e0c663969703dc857",
      "contractAddress": null
    },
    {
      "status": "0x1",
      "cumulativeGasUsed": "0x30ba6",
      "logs": [],
      "logsBloom": "0x00000000000000000000000000000000000000000000000000000000000000000000000000000000000000000000000000000000000000000000000000000000000000000000000000000000000000000000000000000000000000000000000000000000000000000000000000000000000000000000000000000000000000000000000000000000000000000000000000000000000000000000000000000000000000000000000000000000000000000000000000000000000000000000000000000000000000000000000000000000000000000000000000000000000000000000000000000000000000000000000000000000000000000000000000000000",
      "type": "0x2",
      "transactionHash": "0x483081c07d11c46ece707d964e3d90298ec5a4b5f4e434ea68a5d7dad3cef927",
      "transactionIndex": "0x0",
      "blockHash": "0x36d31cf9dec95dd0dfb29336cbb6d6f0383fc47d02b15d137a52cababac30879",
      "blockNumber": "0x9bc7050",
      "gasUsed": "0x30ba6",
      "effectiveGasPrice": "0x66720b300",
      "from": "0x6faff29226219756aa40ce648dbc65fb41de5f72",
      "to": null,
      "contractAddress": "0x40c0edc5781fc370b3bd14611009b08bae19e1ad"
    },
    {
      "status": "0x1",
      "cumulativeGasUsed": "0x3e01d",
      "logs": [],
      "logsBloom": "0x00000000000000000000000000000000000000000000000000000000000000000000000000000000000000000000000000000000000000000000000000000000000000000000000000000000000000000000000000000000000000000000000000000000000000000000000000000000000000000000000000000000000000000000000000000000000000000000000000000000000000000000000000000000000000000000000000000000000000000000000000000000000000000000000000000000000000000000000000000000000000000000000000000000000000000000000000000000000000000000000000000000000000000000000000000000",
      "type": "0x2",
      "transactionHash": "0x19a8531113af003d247e97bec7cc42bcb7a63808e6550311a92b960d361ddbe4",
      "transactionIndex": "0x1",
      "blockHash": "0x36d31cf9dec95dd0dfb29336cbb6d6f0383fc47d02b15d137a52cababac30879",
      "blockNumber": "0x9bc7050",
      "gasUsed": "0xd477",
      "effectiveGasPrice": "0x66720b300",
      "from": "0x6faff29226219756aa40ce648dbc65fb41de5f72",
      "to": "0x95ce14ee82410c4a7296205e0c663969703dc857",
      "contractAddress": null
    },
    {
      "status": "0x1",
      "cumulativeGasUsed": "0x6ebc3",
      "logs": [],
      "logsBloom": "0x00000000000000000000000000000000000000000000000000000000000000000000000000000000000000000000000000000000000000000000000000000000000000000000000000000000000000000000000000000000000000000000000000000000000000000000000000000000000000000000000000000000000000000000000000000000000000000000000000000000000000000000000000000000000000000000000000000000000000000000000000000000000000000000000000000000000000000000000000000000000000000000000000000000000000000000000000000000000000000000000000000000000000000000000000000000",
      "type": "0x2",
      "transactionHash": "0x7eba7a308f257652dd0f30d15e97310c6db4434842fb2dc0c0417850a839ff6a",
      "transactionIndex": "0x2",
      "blockHash": "0x36d31cf9dec95dd0dfb29336cbb6d6f0383fc47d02b15d137a52cababac30879",
      "blockNumber": "0x9bc7050",
      "gasUsed": "0x30ba6",
      "effectiveGasPrice": "0x66720b300",
      "from": "0x6faff29226219756aa40ce648dbc65fb41de5f72",
      "to": null,
      "contractAddress": "0x05b22816a43cbed1927a8c7b6b90a02e25888e11"
    },
    {
      "status": "0x1",
      "cumulativeGasUsed": "0x7c03a",
      "logs": [],
      "logsBloom": "0x00000000000000000000000000000000000000000000000000000000000000000000000000000000000000000000000000000000000000000000000000000000000000000000000000000000000000000000000000000000000000000000000000000000000000000000000000000000000000000000000000000000000000000000000000000000000000000000000000000000000000000000000000000000000000000000000000000000000000000000000000000000000000000000000000000000000000000000000000000000000000000000000000000000000000000000000000000000000000000000000000000000000000000000000000000000",
      "type": "0x2",
      "transactionHash": "0xde9fab6a34e052b1e1f370f2534b4202a18bc581af22f71af0c75137f73733f3",
      "transactionIndex": "0x3",
      "blockHash": "0x36d31cf9dec95dd0dfb29336cbb6d6f0383fc47d02b15d137a52cababac30879",
      "blockNumber": "0x9bc7050",
      "gasUsed": "0xd477",
      "effectiveGasPrice": "0x66720b300",
      "from": "0x6faff29226219756aa40ce648dbc65fb41de5f72",
      "to": "0x95ce14ee82410c4a7296205e0c663969703dc857",
      "contractAddress": null
    },
    {
      "status": "0x1",
      "cumulativeGasUsed": "0xacbe0",
      "logs": [],
      "logsBloom": "0x00000000000000000000000000000000000000000000000000000000000000000000000000000000000000000000000000000000000000000000000000000000000000000000000000000000000000000000000000000000000000000000000000000000000000000000000000000000000000000000000000000000000000000000000000000000000000000000000000000000000000000000000000000000000000000000000000000000000000000000000000000000000000000000000000000000000000000000000000000000000000000000000000000000000000000000000000000000000000000000000000000000000000000000000000000000",
      "type": "0x2",
      "transactionHash": "0x795dbf2653e1a198a1095318639e12973d2a7920442b5da2567fcc181fa77031",
      "transactionIndex": "0x4",
      "blockHash": "0x36d31cf9dec95dd0dfb29336cbb6d6f0383fc47d02b15d137a52cababac30879",
      "blockNumber": "0x9bc7050",
      "gasUsed": "0x30ba6",
      "effectiveGasPrice": "0x66720b300",
      "from": "0x6faff29226219756aa40ce648dbc65fb41de5f72",
      "to": null,
      "contractAddress": "0xaf9fb2e8f5824084545d815beb8ea23884765cf7"
    },
    {
      "status": "0x1",
      "cumulativeGasUsed": "0xba057",
      "logs": [],
      "logsBloom": "0x00000000000000000000000000000000000000000000000000000000000000000000000000000000000000000000000000000000000000000000000000000000000000000000000000000000000000000000000000000000000000000000000000000000000000000000000000000000000000000000000000000000000000000000000000000000000000000000000000000000000000000000000000000000000000000000000000000000000000000000000000000000000000000000000000000000000000000000000000000000000000000000000000000000000000000000000000000000000000000000000000000000000000000000000000000000",
      "type": "0x2",
      "transactionHash": "0x0182acc25f4c1bc4f1833e3af462b751c5a943582802e0e45316617bac80c50a",
      "transactionIndex": "0x5",
      "blockHash": "0x36d31cf9dec95dd0dfb29336cbb6d6f0383fc47d02b15d137a52cababac30879",
      "blockNumber": "0x9bc7050",
      "gasUsed": "0xd477",
      "effectiveGasPrice": "0x66720b300",
      "from": "0x6faff29226219756aa40ce648dbc65fb41de5f72",
      "to": "0x95ce14ee82410c4a7296205e0c663969703dc857",
      "contractAddress": null
    },
    {
      "status": "0x1",
      "cumulativeGasUsed": "0xeabfd",
      "logs": [],
      "logsBloom": "0x00000000000000000000000000000000000000000000000000000000000000000000000000000000000000000000000000000000000000000000000000000000000000000000000000000000000000000000000000000000000000000000000000000000000000000000000000000000000000000000000000000000000000000000000000000000000000000000000000000000000000000000000000000000000000000000000000000000000000000000000000000000000000000000000000000000000000000000000000000000000000000000000000000000000000000000000000000000000000000000000000000000000000000000000000000000",
      "type": "0x2",
      "transactionHash": "0x985bcc59f5cf52577a4beca954a10299e670acbca3909561076d7ccd97c9d770",
      "transactionIndex": "0x6",
      "blockHash": "0x36d31cf9dec95dd0dfb29336cbb6d6f0383fc47d02b15d137a52cababac30879",
      "blockNumber": "0x9bc7050",
      "gasUsed": "0x30ba6",
      "effectiveGasPrice": "0x66720b300",
      "from": "0x6faff29226219756aa40ce648dbc65fb41de5f72",
      "to": null,
      "contractAddress": "0xa927a2e03abde34c26eabf38e8b32c4e6d301467"
    },
    {
      "status": "0x1",
      "cumulativeGasUsed": "0xf8074",
      "logs": [],
      "logsBloom": "0x00000000000000000000000000000000000000000000000000000000000000000000000000000000000000000000000000000000000000000000000000000000000000000000000000000000000000000000000000000000000000000000000000000000000000000000000000000000000000000000000000000000000000000000000000000000000000000000000000000000000000000000000000000000000000000000000000000000000000000000000000000000000000000000000000000000000000000000000000000000000000000000000000000000000000000000000000000000000000000000000000000000000000000000000000000000",
      "type": "0x2",
      "transactionHash": "0x8bc856f6812881df9e14c8446c091ba9525221fc387f021c072bce480dd1d850",
      "transactionIndex": "0x7",
      "blockHash": "0x36d31cf9dec95dd0dfb29336cbb6d6f0383fc47d02b15d137a52cababac30879",
      "blockNumber": "0x9bc7050",
      "gasUsed": "0xd477",
      "effectiveGasPrice": "0x66720b300",
      "from": "0x6faff29226219756aa40ce648dbc65fb41de5f72",
      "to": "0x95ce14ee82410c4a7296205e0c663969703dc857",
      "contractAddress": null
    },
    {
      "status": "0x1",
      "cumulativeGasUsed": "0x128c1a",
      "logs": [],
      "logsBloom": "0x00000000000000000000000000000000000000000000000000000000000000000000000000000000000000000000000000000000000000000000000000000000000000000000000000000000000000000000000000000000000000000000000000000000000000000000000000000000000000000000000000000000000000000000000000000000000000000000000000000000000000000000000000000000000000000000000000000000000000000000000000000000000000000000000000000000000000000000000000000000000000000000000000000000000000000000000000000000000000000000000000000000000000000000000000000000",
      "type": "0x2",
      "transactionHash": "0x718e8e42ef30f7886207a650b6bac8dc818e696d6429e9a7e4a768fb36413d32",
      "transactionIndex": "0x8",
      "blockHash": "0x36d31cf9dec95dd0dfb29336cbb6d6f0383fc47d02b15d137a52cababac30879",
      "blockNumber": "0x9bc7050",
      "gasUsed": "0x30ba6",
      "effectiveGasPrice": "0x66720b300",
      "from": "0x6faff29226219756aa40ce648dbc65fb41de5f72",
      "to": null,
      "contractAddress": "0xb13a04cfae338a02fa9a130cfd5cdee5ba2e4645"
    },
    {
      "status": "0x1",
      "cumulativeGasUsed": "0x136091",
      "logs": [],
      "logsBloom": "0x00000000000000000000000000000000000000000000000000000000000000000000000000000000000000000000000000000000000000000000000000000000000000000000000000000000000000000000000000000000000000000000000000000000000000000000000000000000000000000000000000000000000000000000000000000000000000000000000000000000000000000000000000000000000000000000000000000000000000000000000000000000000000000000000000000000000000000000000000000000000000000000000000000000000000000000000000000000000000000000000000000000000000000000000000000000",
      "type": "0x2",
      "transactionHash": "0x2d5798ab7fafd52790504ee4afbdcc1c0cacb2c00d717c4808437c0f741db3b7",
      "transactionIndex": "0x9",
      "blockHash": "0x36d31cf9dec95dd0dfb29336cbb6d6f0383fc47d02b15d137a52cababac30879",
      "blockNumber": "0x9bc7050",
      "gasUsed": "0xd477",
      "effectiveGasPrice": "0x66720b300",
      "from": "0x6faff29226219756aa40ce648dbc65fb41de5f72",
      "to": "0x95ce14ee82410c4a7296205e0c663969703dc857",
      "contractAddress": null
    },
    {
      "status": "0x1",
      "cumulativeGasUsed": "0x166c37",
      "logs": [],
      "logsBloom": "0x00000000000000000000000000000000000000000000000000000000000000000000000000000000000000000000000000000000000000000000000000000000000000000000000000000000000000000000000000000000000000000000000000000000000000000000000000000000000000000000000000000000000000000000000000000000000000000000000000000000000000000000000000000000000000000000000000000000000000000000000000000000000000000000000000000000000000000000000000000000000000000000000000000000000000000000000000000000000000000000000000000000000000000000000000000000",
      "type": "0x2",
      "transactionHash": "0x6635e7fc61dc524e419449ad7256f5c01acb80373c116035573bc3d350eac871",
      "transactionIndex": "0xa",
      "blockHash": "0x36d31cf9dec95dd0dfb29336cbb6d6f0383fc47d02b15d137a52cababac30879",
      "blockNumber": "0x9bc7050",
      "gasUsed": "0x30ba6",
      "effectiveGasPrice": "0x66720b300",
      "from": "0x6faff29226219756aa40ce648dbc65fb41de5f72",
      "to": null,
      "contractAddress": "0xaab9c3122ed44374233bfe26f3ee3b6d33fd4b26"
    },
    {
      "status": "0x1",
      "cumulativeGasUsed": "0x1740ae",
      "logs": [],
      "logsBloom": "0x00000000000000000000000000000000000000000000000000000000000000000000000000000000000000000000000000000000000000000000000000000000000000000000000000000000000000000000000000000000000000000000000000000000000000000000000000000000000000000000000000000000000000000000000000000000000000000000000000000000000000000000000000000000000000000000000000000000000000000000000000000000000000000000000000000000000000000000000000000000000000000000000000000000000000000000000000000000000000000000000000000000000000000000000000000000",
      "type": "0x2",
      "transactionHash": "0xf6d15941a7a820b8e6088aa7417b43a7e5b77e62d9af9ebb0374f668c7fc4d95",
      "transactionIndex": "0xb",
      "blockHash": "0x36d31cf9dec95dd0dfb29336cbb6d6f0383fc47d02b15d137a52cababac30879",
      "blockNumber": "0x9bc7050",
      "gasUsed": "0xd477",
      "effectiveGasPrice": "0x66720b300",
      "from": "0x6faff29226219756aa40ce648dbc65fb41de5f72",
      "to": "0x95ce14ee82410c4a7296205e0c663969703dc857",
      "contractAddress": null
    }
  ],
  "libraries": [],
  "pending": [],
  "returns": {},
  "timestamp": 1724926121,
  "chain": 1001,
  "commit": "cd51cc8"
}