{
  "transactions": [
    {
      "hash": "0x7ae076e07701c89660fabfa132d582d0de8b4b9304a1d83822f901c88eff28e9",
      "transactionType": "CREATE",
      "contractName": "BanditFort",
      "contractAddress": "0x55a092ae6ffce30195b8add4dadfa7009aeaa4eb",
      "function": null,
      "arguments": null,
      "transaction": {
        "from": "0x6faff29226219756aa40ce648dbc65fb41de5f72",
        "gas": "0x522fc",
        "value": "0x0",
        "input": "0x6080604052600280546001600160a01b0319908116339081179092555f805490911690911790553460015561013b806100375f395ff3fe608060405260043610610036575f3560e01c80638da5cb5b146100b3578063b86cf42d146100ef578063e3ac5d261461010b575f80fd5b366100af576001543410158061005657506002546001600160a01b031633145b61005e575f80fd5b5f80546040516001600160a01b03909116913480156108fc02929091818181858888f19350505050158015610095573d5f803e3d5ffd5b505f80546001600160a01b03191633179055346001819055005b5f80fd5b3480156100be575f80fd5b506002546100d2906001600160a01b031681565b6040516001600160a01b0390911681526020015b60405180910390f35b3480156100fa575f80fd5b505f546001600160a01b03166100d2565b348015610116575f80fd5b5061012060015481565b6040519081526020016100e656fea164736f6c6343000819000a",
        "nonce": "0x376",
        "chainId": "0x3e9"
      },
      "additionalContracts": [],
      "isFixedGasLimit": false
    },
    {
      "hash": "0xc6a3ca033ac720d4bc4ef3282d713a134b37f652b9a6c0955fcb2f90f059e7d3",
      "transactionType": "CALL",
      "contractName": null,
      "contractAddress": "0x95ce14ee82410c4a7296205e0c663969703dc857",
      "function": "addBanditFort(address)",
      "arguments": [
        "0x55A092aE6fFCe30195B8ADd4DADfa7009aeaa4eb"
      ],
      "transaction": {
        "from": "0x6faff29226219756aa40ce648dbc65fb41de5f72",
        "to": "0x95ce14ee82410c4a7296205e0c663969703dc857",
        "gas": "0x1c218",
        "value": "0x0",
        "input": "0xb32a930200000000000000000000000055a092ae6ffce30195b8add4dadfa7009aeaa4eb",
        "nonce": "0x377",
        "chainId": "0x3e9"
      },
      "additionalContracts": [],
      "isFixedGasLimit": false
    },
    {
      "hash": "0x68de5d3aaf7d58c55912f1127e4ac3dcfceef0e55477c3539e87d427f7021859",
      "transactionType": "CREATE",
      "contractName": "BanditFort",
      "contractAddress": "0xf400b1843ee02ef423db28491b216b9ebf617e71",
      "function": null,
      "arguments": null,
      "transaction": {
        "from": "0x6faff29226219756aa40ce648dbc65fb41de5f72",
        "gas": "0x522fc",
        "value": "0x0",
        "input": "0x6080604052600280546001600160a01b0319908116339081179092555f805490911690911790553460015561013b806100375f395ff3fe608060405260043610610036575f3560e01c80638da5cb5b146100b3578063b86cf42d146100ef578063e3ac5d261461010b575f80fd5b366100af576001543410158061005657506002546001600160a01b031633145b61005e575f80fd5b5f80546040516001600160a01b03909116913480156108fc02929091818181858888f19350505050158015610095573d5f803e3d5ffd5b505f80546001600160a01b03191633179055346001819055005b5f80fd5b3480156100be575f80fd5b506002546100d2906001600160a01b031681565b6040516001600160a01b0390911681526020015b60405180910390f35b3480156100fa575f80fd5b505f546001600160a01b03166100d2565b348015610116575f80fd5b5061012060015481565b6040519081526020016100e656fea164736f6c6343000819000a",
        "nonce": "0x378",
        "chainId": "0x3e9"
      },
      "additionalContracts": [],
      "isFixedGasLimit": false
    },
    {
      "hash": "0xeb717e2a8d008a226f8d018f12bef8dc7dee2714a295ffce90fe6c7ac6fcf38b",
      "transactionType": "CALL",
      "contractName": null,
      "contractAddress": "0x95ce14ee82410c4a7296205e0c663969703dc857",
      "function": "addBanditFort(address)",
      "arguments": [
        "0xf400b1843EE02Ef423DB28491b216B9ebF617E71"
      ],
      "transaction": {
        "from": "0x6faff29226219756aa40ce648dbc65fb41de5f72",
        "to": "0x95ce14ee82410c4a7296205e0c663969703dc857",
        "gas": "0x1c218",
        "value": "0x0",
        "input": "0xb32a9302000000000000000000000000f400b1843ee02ef423db28491b216b9ebf617e71",
        "nonce": "0x379",
        "chainId": "0x3e9"
      },
      "additionalContracts": [],
      "isFixedGasLimit": false
    },
    {
      "hash": "0x626763b482c3b7162ff7af914ca7169fe4b10ba86c58f67c3192ef753fe1fc2c",
      "transactionType": "CREATE",
      "contractName": "BanditFort",
      "contractAddress": "0x082fc9357f6c05ec1b91f75b6a95b3449fff28e4",
      "function": null,
      "arguments": null,
      "transaction": {
        "from": "0x6faff29226219756aa40ce648dbc65fb41de5f72",
        "gas": "0x522fc",
        "value": "0x0",
        "input": "0x6080604052600280546001600160a01b0319908116339081179092555f805490911690911790553460015561013b806100375f395ff3fe608060405260043610610036575f3560e01c80638da5cb5b146100b3578063b86cf42d146100ef578063e3ac5d261461010b575f80fd5b366100af576001543410158061005657506002546001600160a01b031633145b61005e575f80fd5b5f80546040516001600160a01b03909116913480156108fc02929091818181858888f19350505050158015610095573d5f803e3d5ffd5b505f80546001600160a01b03191633179055346001819055005b5f80fd5b3480156100be575f80fd5b506002546100d2906001600160a01b031681565b6040516001600160a01b0390911681526020015b60405180910390f35b3480156100fa575f80fd5b505f546001600160a01b03166100d2565b348015610116575f80fd5b5061012060015481565b6040519081526020016100e656fea164736f6c6343000819000a",
        "nonce": "0x37a",
        "chainId": "0x3e9"
      },
      "additionalContracts": [],
      "isFixedGasLimit": false
    },
    {
      "hash": "0xaf225c76fe20f06a358cbd1d31e15b2ff190ea50ad0b0bf8e42629a17bb072e9",
      "transactionType": "CALL",
      "contractName": null,
      "contractAddress": "0x95ce14ee82410c4a7296205e0c663969703dc857",
      "function": "addBanditFort(address)",
      "arguments": [
        "0x082Fc9357f6c05ec1b91f75b6A95B3449fff28e4"
      ],
      "transaction": {
        "from": "0x6faff29226219756aa40ce648dbc65fb41de5f72",
        "to": "0x95ce14ee82410c4a7296205e0c663969703dc857",
        "gas": "0x1a930",
        "value": "0x0",
        "input": "0xb32a9302000000000000000000000000082fc9357f6c05ec1b91f75b6a95b3449fff28e4",
        "nonce": "0x37b",
        "chainId": "0x3e9"
      },
      "additionalContracts": [],
      "isFixedGasLimit": false
    },
    {
      "hash": "0xf91ba667e9f4f7d94badbe482b570fbd63b98eb46715a93e37139742ee08bbaa",
      "transactionType": "CREATE",
      "contractName": "BanditFort",
      "contractAddress": "0x13d1ce02cd79a676d808c5f74e155fa38213c51f",
      "function": null,
      "arguments": null,
      "transaction": {
        "from": "0x6faff29226219756aa40ce648dbc65fb41de5f72",
        "gas": "0x522fc",
        "value": "0x0",
        "input": "0x6080604052600280546001600160a01b0319908116339081179092555f805490911690911790553460015561013b806100375f395ff3fe608060405260043610610036575f3560e01c80638da5cb5b146100b3578063b86cf42d146100ef578063e3ac5d261461010b575f80fd5b366100af576001543410158061005657506002546001600160a01b031633145b61005e575f80fd5b5f80546040516001600160a01b03909116913480156108fc02929091818181858888f19350505050158015610095573d5f803e3d5ffd5b505f80546001600160a01b03191633179055346001819055005b5f80fd5b3480156100be575f80fd5b506002546100d2906001600160a01b031681565b6040516001600160a01b0390911681526020015b60405180910390f35b3480156100fa575f80fd5b505f546001600160a01b03166100d2565b348015610116575f80fd5b5061012060015481565b6040519081526020016100e656fea164736f6c6343000819000a",
        "nonce": "0x37c",
        "chainId": "0x3e9"
      },
      "additionalContracts": [],
      "isFixedGasLimit": false
    },
    {
      "hash": "0x16368da865282eebca370966fa5175bcaaa9b3522db94e391b9fb77a111d3b18",
      "transactionType": "CALL",
      "contractName": null,
      "contractAddress": "0x95ce14ee82410c4a7296205e0c663969703dc857",
      "function": "addBanditFort(address)",
      "arguments": [
        "0x13d1Ce02cd79a676D808c5F74e155Fa38213C51f"
      ],
      "transaction": {
        "from": "0x6faff29226219756aa40ce648dbc65fb41de5f72",
        "to": "0x95ce14ee82410c4a7296205e0c663969703dc857",
        "gas": "0x1a930",
        "value": "0x0",
        "input": "0xb32a930200000000000000000000000013d1ce02cd79a676d808c5f74e155fa38213c51f",
        "nonce": "0x37d",
        "chainId": "0x3e9"
      },
      "additionalContracts": [],
      "isFixedGasLimit": false
    },
    {
      "hash": "0xdf865c5ff813ac7bc776c14b2970c5963b4d1c42e7c5410525dced85ad4affe7",
      "transactionType": "CREATE",
      "contractName": "BanditFort",
      "contractAddress": "0xbcf220a3bf6f0144acff388abd980da278ea1eb0",
      "function": null,
      "arguments": null,
      "transaction": {
        "from": "0x6faff29226219756aa40ce648dbc65fb41de5f72",
        "gas": "0x522fc",
        "value": "0x0",
        "input": "0x6080604052600280546001600160a01b0319908116339081179092555f805490911690911790553460015561013b806100375f395ff3fe608060405260043610610036575f3560e01c80638da5cb5b146100b3578063b86cf42d146100ef578063e3ac5d261461010b575f80fd5b366100af576001543410158061005657506002546001600160a01b031633145b61005e575f80fd5b5f80546040516001600160a01b03909116913480156108fc02929091818181858888f19350505050158015610095573d5f803e3d5ffd5b505f80546001600160a01b03191633179055346001819055005b5f80fd5b3480156100be575f80fd5b506002546100d2906001600160a01b031681565b6040516001600160a01b0390911681526020015b60405180910390f35b3480156100fa575f80fd5b505f546001600160a01b03166100d2565b348015610116575f80fd5b5061012060015481565b6040519081526020016100e656fea164736f6c6343000819000a",
        "nonce": "0x37e",
        "chainId": "0x3e9"
      },
      "additionalContracts": [],
      "isFixedGasLimit": false
    },
    {
      "hash": "0x5b15cb0fd9f2b38ef4299d53b54dc48a824b9e629de3ef8c21da2f5801b4fd56",
      "transactionType": "CALL",
      "contractName": null,
      "contractAddress": "0x95ce14ee82410c4a7296205e0c663969703dc857",
      "function": "addBanditFort(address)",
      "arguments": [
        "0xBcf220A3bF6f0144AcfF388aBd980Da278eA1eB0"
      ],
      "transaction": {
        "from": "0x6faff29226219756aa40ce648dbc65fb41de5f72",
        "to": "0x95ce14ee82410c4a7296205e0c663969703dc857",
        "gas": "0x1a930",
        "value": "0x0",
        "input": "0xb32a9302000000000000000000000000bcf220a3bf6f0144acff388abd980da278ea1eb0",
        "nonce": "0x37f",
        "chainId": "0x3e9"
      },
      "additionalContracts": [],
      "isFixedGasLimit": false
    },
    {
      "hash": "0xc802e2f542b09f224cea8a6897860e1dad1844d284fed84a7d31d733a4e2d1a5",
      "transactionType": "CREATE",
      "contractName": "BanditFort",
      "contractAddress": "0x9274e7c8d5dcf49db91754092040b53bb938dd20",
      "function": null,
      "arguments": null,
      "transaction": {
        "from": "0x6faff29226219756aa40ce648dbc65fb41de5f72",
        "gas": "0x522fc",
        "value": "0x0",
        "input": "0x6080604052600280546001600160a01b0319908116339081179092555f805490911690911790553460015561013b806100375f395ff3fe608060405260043610610036575f3560e01c80638da5cb5b146100b3578063b86cf42d146100ef578063e3ac5d261461010b575f80fd5b366100af576001543410158061005657506002546001600160a01b031633145b61005e575f80fd5b5f80546040516001600160a01b03909116913480156108fc02929091818181858888f19350505050158015610095573d5f803e3d5ffd5b505f80546001600160a01b03191633179055346001819055005b5f80fd5b3480156100be575f80fd5b506002546100d2906001600160a01b031681565b6040516001600160a01b0390911681526020015b60405180910390f35b3480156100fa575f80fd5b505f546001600160a01b03166100d2565b348015610116575f80fd5b5061012060015481565b6040519081526020016100e656fea164736f6c6343000819000a",
        "nonce": "0x380",
        "chainId": "0x3e9"
      },
      "additionalContracts": [],
      "isFixedGasLimit": false
    },
    {
      "hash": "0xc8f5a7f2877fd0b921259752e9eb5c047d957bda18db411ac9993dad3c9d2d3f",
      "transactionType": "CALL",
      "contractName": null,
      "contractAddress": "0x95ce14ee82410c4a7296205e0c663969703dc857",
      "function": "addBanditFort(address)",
      "arguments": [
        "0x9274e7C8D5DCF49dB91754092040B53bb938dD20"
      ],
      "transaction": {
        "from": "0x6faff29226219756aa40ce648dbc65fb41de5f72",
        "to": "0x95ce14ee82410c4a7296205e0c663969703dc857",
        "gas": "0x1a930",
        "value": "0x0",
        "input": "0xb32a93020000000000000000000000009274e7c8d5dcf49db91754092040b53bb938dd20",
        "nonce": "0x381",
        "chainId": "0x3e9"
      },
      "additionalContracts": [],
      "isFixedGasLimit": false
    },
    {
      "hash": "0xc069c4b6d1269f406b38df870abc31e536f1911ee07562027f376812876bff90",
      "transactionType": "CREATE",
      "contractName": "BanditFort",
      "contractAddress": "0xa05eb5f1a76e3af9d5eaf8872f3bed20128b66e2",
      "function": null,
      "arguments": null,
      "transaction": {
        "from": "0x6faff29226219756aa40ce648dbc65fb41de5f72",
        "gas": "0x522fc",
        "value": "0x0",
        "input": "0x6080604052600280546001600160a01b0319908116339081179092555f805490911690911790553460015561013b806100375f395ff3fe608060405260043610610036575f3560e01c80638da5cb5b146100b3578063b86cf42d146100ef578063e3ac5d261461010b575f80fd5b366100af576001543410158061005657506002546001600160a01b031633145b61005e575f80fd5b5f80546040516001600160a01b03909116913480156108fc02929091818181858888f19350505050158015610095573d5f803e3d5ffd5b505f80546001600160a01b03191633179055346001819055005b5f80fd5b3480156100be575f80fd5b506002546100d2906001600160a01b031681565b6040516001600160a01b0390911681526020015b60405180910390f35b3480156100fa575f80fd5b505f546001600160a01b03166100d2565b348015610116575f80fd5b5061012060015481565b6040519081526020016100e656fea164736f6c6343000819000a",
        "nonce": "0x382",
        "chainId": "0x3e9"
      },
      "additionalContracts": [],
      "isFixedGasLimit": false
    },
    {
      "hash": "0x105e0e1aed81aeab29a4aeb01c517ff64a699d79be1bea2d246ff352e58ef3b9",
      "transactionType": "CALL",
      "contractName": null,
      "contractAddress": "0x95ce14ee82410c4a7296205e0c663969703dc857",
      "function": "addBanditFort(address)",
      "arguments": [
        "0xA05Eb5F1A76e3aF9d5eAF8872f3BeD20128b66E2"
      ],
      "transaction": {
        "from": "0x6faff29226219756aa40ce648dbc65fb41de5f72",
        "to": "0x95ce14ee82410c4a7296205e0c663969703dc857",
        "gas": "0x1a930",
        "value": "0x0",
        "input": "0xb32a9302000000000000000000000000a05eb5f1a76e3af9d5eaf8872f3bed20128b66e2",
        "nonce": "0x383",
        "chainId": "0x3e9"
      },
      "additionalContracts": [],
      "isFixedGasLimit": false
    },
    {
      "hash": "0x04478dab88c8f7cb9a2656288fd2313d9334e97da925a597ed05e445ba35fa40",
      "transactionType": "CREATE",
      "contractName": "BanditFort",
      "contractAddress": "0x8041a6ead767ef541e8a728e3c05df59e1af5384",
      "function": null,
      "arguments": null,
      "transaction": {
        "from": "0x6faff29226219756aa40ce648dbc65fb41de5f72",
        "gas": "0x522fc",
        "value": "0x0",
        "input": "0x6080604052600280546001600160a01b0319908116339081179092555f805490911690911790553460015561013b806100375f395ff3fe608060405260043610610036575f3560e01c80638da5cb5b146100b3578063b86cf42d146100ef578063e3ac5d261461010b575f80fd5b366100af576001543410158061005657506002546001600160a01b031633145b61005e575f80fd5b5f80546040516001600160a01b03909116913480156108fc02929091818181858888f19350505050158015610095573d5f803e3d5ffd5b505f80546001600160a01b03191633179055346001819055005b5f80fd5b3480156100be575f80fd5b506002546100d2906001600160a01b031681565b6040516001600160a01b0390911681526020015b60405180910390f35b3480156100fa575f80fd5b505f546001600160a01b03166100d2565b348015610116575f80fd5b5061012060015481565b6040519081526020016100e656fea164736f6c6343000819000a",
        "nonce": "0x384",
        "chainId": "0x3e9"
      },
      "additionalContracts": [],
      "isFixedGasLimit": false
    },
    {
      "hash": "0xde167b595bc7ba34824fe59ce55836a9e4bf706fcbf20127707e3960038064e2",
      "transactionType": "CALL",
      "contractName": null,
      "contractAddress": "0x95ce14ee82410c4a7296205e0c663969703dc857",
      "function": "addBanditFort(address)",
      "arguments": [
        "0x8041a6eAd767ef541E8A728E3C05DF59e1af5384"
      ],
      "transaction": {
        "from": "0x6faff29226219756aa40ce648dbc65fb41de5f72",
        "to": "0x95ce14ee82410c4a7296205e0c663969703dc857",
        "gas": "0x1a930",
        "value": "0x0",
        "input": "0xb32a93020000000000000000000000008041a6ead767ef541e8a728e3c05df59e1af5384",
        "nonce": "0x385",
        "chainId": "0x3e9"
      },
      "additionalContracts": [],
      "isFixedGasLimit": false
    },
    {
      "hash": "0x26b9e5cbe63a434afde9c21d589dca27c52d41ce2fb2b50141db67b969487c7f",
      "transactionType": "CREATE",
      "contractName": "BanditFort",
      "contractAddress": "0x5fdd96847b6ca8ce8ee1a275d46bf9c3cf228bb5",
      "function": null,
      "arguments": null,
      "transaction": {
        "from": "0x6faff29226219756aa40ce648dbc65fb41de5f72",
        "gas": "0x522fc",
        "value": "0x0",
        "input": "0x6080604052600280546001600160a01b0319908116339081179092555f805490911690911790553460015561013b806100375f395ff3fe608060405260043610610036575f3560e01c80638da5cb5b146100b3578063b86cf42d146100ef578063e3ac5d261461010b575f80fd5b366100af576001543410158061005657506002546001600160a01b031633145b61005e575f80fd5b5f80546040516001600160a01b03909116913480156108fc02929091818181858888f19350505050158015610095573d5f803e3d5ffd5b505f80546001600160a01b03191633179055346001819055005b5f80fd5b3480156100be575f80fd5b506002546100d2906001600160a01b031681565b6040516001600160a01b0390911681526020015b60405180910390f35b3480156100fa575f80fd5b505f546001600160a01b03166100d2565b348015610116575f80fd5b5061012060015481565b6040519081526020016100e656fea164736f6c6343000819000a",
        "nonce": "0x386",
        "chainId": "0x3e9"
      },
      "additionalContracts": [],
      "isFixedGasLimit": false
    },
    {
      "hash": "0x340a706db78d4f09ec2d3a600ee6f364c4069a7bf7c637ac357b551a21a5bd69",
      "transactionType": "CALL",
      "contractName": null,
      "contractAddress": "0x95ce14ee82410c4a7296205e0c663969703dc857",
      "function": "addBanditFort(address)",
      "arguments": [
        "0x5FDD96847b6Ca8CE8eE1A275D46bF9C3cF228bB5"
      ],
      "transaction": {
        "from": "0x6faff29226219756aa40ce648dbc65fb41de5f72",
        "to": "0x95ce14ee82410c4a7296205e0c663969703dc857",
        "gas": "0x1a930",
        "value": "0x0",
        "input": "0xb32a93020000000000000000000000005fdd96847b6ca8ce8ee1a275d46bf9c3cf228bb5",
        "nonce": "0x387",
        "chainId": "0x3e9"
      },
      "additionalContracts": [],
      "isFixedGasLimit": false
    },
    {
      "hash": "0xadb235c04351a99a0293b917bd1504ba8cd9803e3420e97169b751a8c22672a8",
      "transactionType": "CREATE",
      "contractName": "BanditFort",
      "contractAddress": "0xa3503cbd2c5d7d273cf1983a070a8d8a57edd34e",
      "function": null,
      "arguments": null,
      "transaction": {
        "from": "0x6faff29226219756aa40ce648dbc65fb41de5f72",
        "gas": "0x522fc",
        "value": "0x0",
        "input": "0x6080604052600280546001600160a01b0319908116339081179092555f805490911690911790553460015561013b806100375f395ff3fe608060405260043610610036575f3560e01c80638da5cb5b146100b3578063b86cf42d146100ef578063e3ac5d261461010b575f80fd5b366100af576001543410158061005657506002546001600160a01b031633145b61005e575f80fd5b5f80546040516001600160a01b03909116913480156108fc02929091818181858888f19350505050158015610095573d5f803e3d5ffd5b505f80546001600160a01b03191633179055346001819055005b5f80fd5b3480156100be575f80fd5b506002546100d2906001600160a01b031681565b6040516001600160a01b0390911681526020015b60405180910390f35b3480156100fa575f80fd5b505f546001600160a01b03166100d2565b348015610116575f80fd5b5061012060015481565b6040519081526020016100e656fea164736f6c6343000819000a",
        "nonce": "0x388",
        "chainId": "0x3e9"
      },
      "additionalContracts": [],
      "isFixedGasLimit": false
    },
    {
      "hash": "0x72a67c157a14f5e6457d2a365de407a5443c78dc887a642b402e76f46c4356d8",
      "transactionType": "CALL",
      "contractName": null,
      "contractAddress": "0x95ce14ee82410c4a7296205e0c663969703dc857",
      "function": "addBanditFort(address)",
      "arguments": [
        "0xA3503CBd2C5D7D273Cf1983A070A8d8A57eDd34e"
      ],
      "transaction": {
        "from": "0x6faff29226219756aa40ce648dbc65fb41de5f72",
        "to": "0x95ce14ee82410c4a7296205e0c663969703dc857",
        "gas": "0x1a930",
        "value": "0x0",
        "input": "0xb32a9302000000000000000000000000a3503cbd2c5d7d273cf1983a070a8d8a57edd34e",
        "nonce": "0x389",
        "chainId": "0x3e9"
      },
      "additionalContracts": [],
      "isFixedGasLimit": false
    }
  ],
  "receipts": [
    {
      "status": "0x1",
      "cumulativeGasUsed": "0x30ba6",
      "logs": [],
      "logsBloom": "0x00000000000000000000000000000000000000000000000000000000000000000000000000000000000000000000000000000000000000000000000000000000000000000000000000000000000000000000000000000000000000000000000000000000000000000000000000000000000000000000000000000000000000000000000000000000000000000000000000000000000000000000000000000000000000000000000000000000000000000000000000000000000000000000000000000000000000000000000000000000000000000000000000000000000000000000000000000000000000000000000000000000000000000000000000000000",
      "type": "0x2",
      "transactionHash": "0x7ae076e07701c89660fabfa132d582d0de8b4b9304a1d83822f901c88eff28e9",
      "transactionIndex": "0x0",
      "blockHash": "0xc63dec63a862172c0e87baf75f4f14d37b211c569fb5d7c744f5c972e1307678",
      "blockNumber": "0x9bc7736",
      "gasUsed": "0x30ba6",
      "effectiveGasPrice": "0x66720b300",
      "from": "0x6faff29226219756aa40ce648dbc65fb41de5f72",
      "to": null,
      "contractAddress": "0x55a092ae6ffce30195b8add4dadfa7009aeaa4eb"
    },
    {
      "status": "0x1",
      "cumulativeGasUsed": "0x3e01d",
      "logs": [],
      "logsBloom": "0x00000000000000000000000000000000000000000000000000000000000000000000000000000000000000000000000000000000000000000000000000000000000000000000000000000000000000000000000000000000000000000000000000000000000000000000000000000000000000000000000000000000000000000000000000000000000000000000000000000000000000000000000000000000000000000000000000000000000000000000000000000000000000000000000000000000000000000000000000000000000000000000000000000000000000000000000000000000000000000000000000000000000000000000000000000000",
      "type": "0x2",
      "transactionHash": "0xc6a3ca033ac720d4bc4ef3282d713a134b37f652b9a6c0955fcb2f90f059e7d3",
      "transactionIndex": "0x1",
      "blockHash": "0xc63dec63a862172c0e87baf75f4f14d37b211c569fb5d7c744f5c972e1307678",
      "blockNumber": "0x9bc7736",
      "gasUsed": "0xd477",
      "effectiveGasPrice": "0x66720b300",
      "from": "0x6faff29226219756aa40ce648dbc65fb41de5f72",
      "to": "0x95ce14ee82410c4a7296205e0c663969703dc857",
      "contractAddress": null
    },
    {
      "status": "0x1",
      "cumulativeGasUsed": "0x6ebc3",
      "logs": [],
      "logsBloom": "0x00000000000000000000000000000000000000000000000000000000000000000000000000000000000000000000000000000000000000000000000000000000000000000000000000000000000000000000000000000000000000000000000000000000000000000000000000000000000000000000000000000000000000000000000000000000000000000000000000000000000000000000000000000000000000000000000000000000000000000000000000000000000000000000000000000000000000000000000000000000000000000000000000000000000000000000000000000000000000000000000000000000000000000000000000000000",
      "type": "0x2",
      "transactionHash": "0x68de5d3aaf7d58c55912f1127e4ac3dcfceef0e55477c3539e87d427f7021859",
      "transactionIndex": "0x2",
      "blockHash": "0xc63dec63a862172c0e87baf75f4f14d37b211c569fb5d7c744f5c972e1307678",
      "blockNumber": "0x9bc7736",
      "gasUsed": "0x30ba6",
      "effectiveGasPrice": "0x66720b300",
      "from": "0x6faff29226219756aa40ce648dbc65fb41de5f72",
      "to": null,
      "contractAddress": "0xf400b1843ee02ef423db28491b216b9ebf617e71"
    },
    {
      "status": "0x1",
      "cumulativeGasUsed": "0x7c03a",
      "logs": [],
      "logsBloom": "0x00000000000000000000000000000000000000000000000000000000000000000000000000000000000000000000000000000000000000000000000000000000000000000000000000000000000000000000000000000000000000000000000000000000000000000000000000000000000000000000000000000000000000000000000000000000000000000000000000000000000000000000000000000000000000000000000000000000000000000000000000000000000000000000000000000000000000000000000000000000000000000000000000000000000000000000000000000000000000000000000000000000000000000000000000000000",
      "type": "0x2",
      "transactionHash": "0xeb717e2a8d008a226f8d018f12bef8dc7dee2714a295ffce90fe6c7ac6fcf38b",
      "transactionIndex": "0x3",
      "blockHash": "0xc63dec63a862172c0e87baf75f4f14d37b211c569fb5d7c744f5c972e1307678",
      "blockNumber": "0x9bc7736",
      "gasUsed": "0xd477",
      "effectiveGasPrice": "0x66720b300",
      "from": "0x6faff29226219756aa40ce648dbc65fb41de5f72",
      "to": "0x95ce14ee82410c4a7296205e0c663969703dc857",
      "contractAddress": null
    },
    {
      "status": "0x1",
      "cumulativeGasUsed": "0xacbe0",
      "logs": [],
      "logsBloom": "0x00000000000000000000000000000000000000000000000000000000000000000000000000000000000000000000000000000000000000000000000000000000000000000000000000000000000000000000000000000000000000000000000000000000000000000000000000000000000000000000000000000000000000000000000000000000000000000000000000000000000000000000000000000000000000000000000000000000000000000000000000000000000000000000000000000000000000000000000000000000000000000000000000000000000000000000000000000000000000000000000000000000000000000000000000000000",
      "type": "0x2",
      "transactionHash": "0x626763b482c3b7162ff7af914ca7169fe4b10ba86c58f67c3192ef753fe1fc2c",
      "transactionIndex": "0x4",
      "blockHash": "0xc63dec63a862172c0e87baf75f4f14d37b211c569fb5d7c744f5c972e1307678",
      "blockNumber": "0x9bc7736",
      "gasUsed": "0x30ba6",
      "effectiveGasPrice": "0x66720b300",
      "from": "0x6faff29226219756aa40ce648dbc65fb41de5f72",
      "to": null,
      "contractAddress": "0x082fc9357f6c05ec1b91f75b6a95b3449fff28e4"
    },
    {
      "status": "0x1",
      "cumulativeGasUsed": "0xba057",
      "logs": [],
      "logsBloom": "0x00000000000000000000000000000000000000000000000000000000000000000000000000000000000000000000000000000000000000000000000000000000000000000000000000000000000000000000000000000000000000000000000000000000000000000000000000000000000000000000000000000000000000000000000000000000000000000000000000000000000000000000000000000000000000000000000000000000000000000000000000000000000000000000000000000000000000000000000000000000000000000000000000000000000000000000000000000000000000000000000000000000000000000000000000000000",
      "type": "0x2",
      "transactionHash": "0xaf225c76fe20f06a358cbd1d31e15b2ff190ea50ad0b0bf8e42629a17bb072e9",
      "transactionIndex": "0x5",
      "blockHash": "0xc63dec63a862172c0e87baf75f4f14d37b211c569fb5d7c744f5c972e1307678",
      "blockNumber": "0x9bc7736",
      "gasUsed": "0xd477",
      "effectiveGasPrice": "0x66720b300",
      "from": "0x6faff29226219756aa40ce648dbc65fb41de5f72",
      "to": "0x95ce14ee82410c4a7296205e0c663969703dc857",
      "contractAddress": null
    },
    {
      "status": "0x1",
      "cumulativeGasUsed": "0xeabfd",
      "logs": [],
      "logsBloom": "0x00000000000000000000000000000000000000000000000000000000000000000000000000000000000000000000000000000000000000000000000000000000000000000000000000000000000000000000000000000000000000000000000000000000000000000000000000000000000000000000000000000000000000000000000000000000000000000000000000000000000000000000000000000000000000000000000000000000000000000000000000000000000000000000000000000000000000000000000000000000000000000000000000000000000000000000000000000000000000000000000000000000000000000000000000000000",
      "type": "0x2",
      "transactionHash": "0xf91ba667e9f4f7d94badbe482b570fbd63b98eb46715a93e37139742ee08bbaa",
      "transactionIndex": "0x6",
      "blockHash": "0xc63dec63a862172c0e87baf75f4f14d37b211c569fb5d7c744f5c972e1307678",
      "blockNumber": "0x9bc7736",
      "gasUsed": "0x30ba6",
      "effectiveGasPrice": "0x66720b300",
      "from": "0x6faff29226219756aa40ce648dbc65fb41de5f72",
      "to": null,
      "contractAddress": "0x13d1ce02cd79a676d808c5f74e155fa38213c51f"
    },
    {
      "status": "0x1",
      "cumulativeGasUsed": "0xf8074",
      "logs": [],
      "logsBloom": "0x00000000000000000000000000000000000000000000000000000000000000000000000000000000000000000000000000000000000000000000000000000000000000000000000000000000000000000000000000000000000000000000000000000000000000000000000000000000000000000000000000000000000000000000000000000000000000000000000000000000000000000000000000000000000000000000000000000000000000000000000000000000000000000000000000000000000000000000000000000000000000000000000000000000000000000000000000000000000000000000000000000000000000000000000000000000",
      "type": "0x2",
      "transactionHash": "0x16368da865282eebca370966fa5175bcaaa9b3522db94e391b9fb77a111d3b18",
      "transactionIndex": "0x7",
      "blockHash": "0xc63dec63a862172c0e87baf75f4f14d37b211c569fb5d7c744f5c972e1307678",
      "blockNumber": "0x9bc7736",
      "gasUsed": "0xd477",
      "effectiveGasPrice": "0x66720b300",
      "from": "0x6faff29226219756aa40ce648dbc65fb41de5f72",
      "to": "0x95ce14ee82410c4a7296205e0c663969703dc857",
      "contractAddress": null
    },
    {
      "status": "0x1",
      "cumulativeGasUsed": "0x30ba6",
      "logs": [],
      "logsBloom": "0x00000000000000000000000000000000000000000000000000000000000000000000000000000000000000000000000000000000000000000000000000000000000000000000000000000000000000000000000000000000000000000000000000000000000000000000000000000000000000000000000000000000000000000000000000000000000000000000000000000000000000000000000000000000000000000000000000000000000000000000000000000000000000000000000000000000000000000000000000000000000000000000000000000000000000000000000000000000000000000000000000000000000000000000000000000000",
      "type": "0x2",
      "transactionHash": "0xdf865c5ff813ac7bc776c14b2970c5963b4d1c42e7c5410525dced85ad4affe7",
      "transactionIndex": "0x0",
      "blockHash": "0x2909e34e48ed078dfacac6ac0fd8bdcc15e84c6d397c954a75b90e95f9b1394f",
      "blockNumber": "0x9bc7737",
      "gasUsed": "0x30ba6",
      "effectiveGasPrice": "0x66720b300",
      "from": "0x6faff29226219756aa40ce648dbc65fb41de5f72",
      "to": null,
      "contractAddress": "0xbcf220a3bf6f0144acff388abd980da278ea1eb0"
    },
    {
      "status": "0x1",
      "cumulativeGasUsed": "0x3e01d",
      "logs": [],
      "logsBloom": "0x00000000000000000000000000000000000000000000000000000000000000000000000000000000000000000000000000000000000000000000000000000000000000000000000000000000000000000000000000000000000000000000000000000000000000000000000000000000000000000000000000000000000000000000000000000000000000000000000000000000000000000000000000000000000000000000000000000000000000000000000000000000000000000000000000000000000000000000000000000000000000000000000000000000000000000000000000000000000000000000000000000000000000000000000000000000",
      "type": "0x2",
      "transactionHash": "0x5b15cb0fd9f2b38ef4299d53b54dc48a824b9e629de3ef8c21da2f5801b4fd56",
      "transactionIndex": "0x1",
      "blockHash": "0x2909e34e48ed078dfacac6ac0fd8bdcc15e84c6d397c954a75b90e95f9b1394f",
      "blockNumber": "0x9bc7737",
      "gasUsed": "0xd477",
      "effectiveGasPrice": "0x66720b300",
      "from": "0x6faff29226219756aa40ce648dbc65fb41de5f72",
      "to": "0x95ce14ee82410c4a7296205e0c663969703dc857",
      "contractAddress": null
    },
    {
      "status": "0x1",
      "cumulativeGasUsed": "0x6ebc3",
      "logs": [],
      "logsBloom": "0x00000000000000000000000000000000000000000000000000000000000000000000000000000000000000000000000000000000000000000000000000000000000000000000000000000000000000000000000000000000000000000000000000000000000000000000000000000000000000000000000000000000000000000000000000000000000000000000000000000000000000000000000000000000000000000000000000000000000000000000000000000000000000000000000000000000000000000000000000000000000000000000000000000000000000000000000000000000000000000000000000000000000000000000000000000000",
      "type": "0x2",
      "transactionHash": "0xc802e2f542b09f224cea8a6897860e1dad1844d284fed84a7d31d733a4e2d1a5",
      "transactionIndex": "0x2",
      "blockHash": "0x2909e34e48ed078dfacac6ac0fd8bdcc15e84c6d397c954a75b90e95f9b1394f",
      "blockNumber": "0x9bc7737",
      "gasUsed": "0x30ba6",
      "effectiveGasPrice": "0x66720b300",
      "from": "0x6faff29226219756aa40ce648dbc65fb41de5f72",
      "to": null,
      "contractAddress": "0x9274e7c8d5dcf49db91754092040b53bb938dd20"
    },
    {
      "status": "0x1",
      "cumulativeGasUsed": "0x7c03a",
      "logs": [],
      "logsBloom": "0x00000000000000000000000000000000000000000000000000000000000000000000000000000000000000000000000000000000000000000000000000000000000000000000000000000000000000000000000000000000000000000000000000000000000000000000000000000000000000000000000000000000000000000000000000000000000000000000000000000000000000000000000000000000000000000000000000000000000000000000000000000000000000000000000000000000000000000000000000000000000000000000000000000000000000000000000000000000000000000000000000000000000000000000000000000000",
      "type": "0x2",
      "transactionHash": "0xc8f5a7f2877fd0b921259752e9eb5c047d957bda18db411ac9993dad3c9d2d3f",
      "transactionIndex": "0x3",
      "blockHash": "0x2909e34e48ed078dfacac6ac0fd8bdcc15e84c6d397c954a75b90e95f9b1394f",
      "blockNumber": "0x9bc7737",
      "gasUsed": "0xd477",
      "effectiveGasPrice": "0x66720b300",
      "from": "0x6faff29226219756aa40ce648dbc65fb41de5f72",
      "to": "0x95ce14ee82410c4a7296205e0c663969703dc857",
      "contractAddress": null
    },
    {
      "status": "0x1",
      "cumulativeGasUsed": "0xacbe0",
      "logs": [],
      "logsBloom": "0x00000000000000000000000000000000000000000000000000000000000000000000000000000000000000000000000000000000000000000000000000000000000000000000000000000000000000000000000000000000000000000000000000000000000000000000000000000000000000000000000000000000000000000000000000000000000000000000000000000000000000000000000000000000000000000000000000000000000000000000000000000000000000000000000000000000000000000000000000000000000000000000000000000000000000000000000000000000000000000000000000000000000000000000000000000000",
      "type": "0x2",
      "transactionHash": "0xc069c4b6d1269f406b38df870abc31e536f1911ee07562027f376812876bff90",
      "transactionIndex": "0x4",
      "blockHash": "0x2909e34e48ed078dfacac6ac0fd8bdcc15e84c6d397c954a75b90e95f9b1394f",
      "blockNumber": "0x9bc7737",
      "gasUsed": "0x30ba6",
      "effectiveGasPrice": "0x66720b300",
      "from": "0x6faff29226219756aa40ce648dbc65fb41de5f72",
      "to": null,
      "contractAddress": "0xa05eb5f1a76e3af9d5eaf8872f3bed20128b66e2"
    },
    {
      "status": "0x1",
      "cumulativeGasUsed": "0xba057",
      "logs": [],
      "logsBloom": "0x00000000000000000000000000000000000000000000000000000000000000000000000000000000000000000000000000000000000000000000000000000000000000000000000000000000000000000000000000000000000000000000000000000000000000000000000000000000000000000000000000000000000000000000000000000000000000000000000000000000000000000000000000000000000000000000000000000000000000000000000000000000000000000000000000000000000000000000000000000000000000000000000000000000000000000000000000000000000000000000000000000000000000000000000000000000",
      "type": "0x2",
      "transactionHash": "0x105e0e1aed81aeab29a4aeb01c517ff64a699d79be1bea2d246ff352e58ef3b9",
      "transactionIndex": "0x5",
      "blockHash": "0x2909e34e48ed078dfacac6ac0fd8bdcc15e84c6d397c954a75b90e95f9b1394f",
      "blockNumber": "0x9bc7737",
      "gasUsed": "0xd477",
      "effectiveGasPrice": "0x66720b300",
      "from": "0x6faff29226219756aa40ce648dbc65fb41de5f72",
      "to": "0x95ce14ee82410c4a7296205e0c663969703dc857",
      "contractAddress": null
    },
    {
      "status": "0x1",
      "cumulativeGasUsed": "0xeabfd",
      "logs": [],
      "logsBloom": "0x00000000000000000000000000000000000000000000000000000000000000000000000000000000000000000000000000000000000000000000000000000000000000000000000000000000000000000000000000000000000000000000000000000000000000000000000000000000000000000000000000000000000000000000000000000000000000000000000000000000000000000000000000000000000000000000000000000000000000000000000000000000000000000000000000000000000000000000000000000000000000000000000000000000000000000000000000000000000000000000000000000000000000000000000000000000",
      "type": "0x2",
      "transactionHash": "0x04478dab88c8f7cb9a2656288fd2313d9334e97da925a597ed05e445ba35fa40",
      "transactionIndex": "0x6",
      "blockHash": "0x2909e34e48ed078dfacac6ac0fd8bdcc15e84c6d397c954a75b90e95f9b1394f",
      "blockNumber": "0x9bc7737",
      "gasUsed": "0x30ba6",
      "effectiveGasPrice": "0x66720b300",
      "from": "0x6faff29226219756aa40ce648dbc65fb41de5f72",
      "to": null,
      "contractAddress": "0x8041a6ead767ef541e8a728e3c05df59e1af5384"
    },
    {
      "status": "0x1",
      "cumulativeGasUsed": "0xf8074",
      "logs": [],
      "logsBloom": "0x00000000000000000000000000000000000000000000000000000000000000000000000000000000000000000000000000000000000000000000000000000000000000000000000000000000000000000000000000000000000000000000000000000000000000000000000000000000000000000000000000000000000000000000000000000000000000000000000000000000000000000000000000000000000000000000000000000000000000000000000000000000000000000000000000000000000000000000000000000000000000000000000000000000000000000000000000000000000000000000000000000000000000000000000000000000",
      "type": "0x2",
      "transactionHash": "0xde167b595bc7ba34824fe59ce55836a9e4bf706fcbf20127707e3960038064e2",
      "transactionIndex": "0x7",
      "blockHash": "0x2909e34e48ed078dfacac6ac0fd8bdcc15e84c6d397c954a75b90e95f9b1394f",
      "blockNumber": "0x9bc7737",
      "gasUsed": "0xd477",
      "effectiveGasPrice": "0x66720b300",
      "from": "0x6faff29226219756aa40ce648dbc65fb41de5f72",
      "to": "0x95ce14ee82410c4a7296205e0c663969703dc857",
      "contractAddress": null
    },
    {
      "status": "0x1",
      "cumulativeGasUsed": "0x128c1a",
      "logs": [],
      "logsBloom": "0x00000000000000000000000000000000000000000000000000000000000000000000000000000000000000000000000000000000000000000000000000000000000000000000000000000000000000000000000000000000000000000000000000000000000000000000000000000000000000000000000000000000000000000000000000000000000000000000000000000000000000000000000000000000000000000000000000000000000000000000000000000000000000000000000000000000000000000000000000000000000000000000000000000000000000000000000000000000000000000000000000000000000000000000000000000000",
      "type": "0x2",
      "transactionHash": "0x26b9e5cbe63a434afde9c21d589dca27c52d41ce2fb2b50141db67b969487c7f",
      "transactionIndex": "0x8",
      "blockHash": "0x2909e34e48ed078dfacac6ac0fd8bdcc15e84c6d397c954a75b90e95f9b1394f",
      "blockNumber": "0x9bc7737",
      "gasUsed": "0x30ba6",
      "effectiveGasPrice": "0x66720b300",
      "from": "0x6faff29226219756aa40ce648dbc65fb41de5f72",
      "to": null,
      "contractAddress": "0x5fdd96847b6ca8ce8ee1a275d46bf9c3cf228bb5"
    },
    {
      "status": "0x1",
      "cumulativeGasUsed": "0x136091",
      "logs": [],
      "logsBloom": "0x00000000000000000000000000000000000000000000000000000000000000000000000000000000000000000000000000000000000000000000000000000000000000000000000000000000000000000000000000000000000000000000000000000000000000000000000000000000000000000000000000000000000000000000000000000000000000000000000000000000000000000000000000000000000000000000000000000000000000000000000000000000000000000000000000000000000000000000000000000000000000000000000000000000000000000000000000000000000000000000000000000000000000000000000000000000",
      "type": "0x2",
      "transactionHash": "0x340a706db78d4f09ec2d3a600ee6f364c4069a7bf7c637ac357b551a21a5bd69",
      "transactionIndex": "0x9",
      "blockHash": "0x2909e34e48ed078dfacac6ac0fd8bdcc15e84c6d397c954a75b90e95f9b1394f",
      "blockNumber": "0x9bc7737",
      "gasUsed": "0xd477",
      "effectiveGasPrice": "0x66720b300",
      "from": "0x6faff29226219756aa40ce648dbc65fb41de5f72",
      "to": "0x95ce14ee82410c4a7296205e0c663969703dc857",
      "contractAddress": null
    },
    {
      "status": "0x1",
      "cumulativeGasUsed": "0x166c37",
      "logs": [],
      "logsBloom": "0x00000000000000000000000000000000000000000000000000000000000000000000000000000000000000000000000000000000000000000000000000000000000000000000000000000000000000000000000000000000000000000000000000000000000000000000000000000000000000000000000000000000000000000000000000000000000000000000000000000000000000000000000000000000000000000000000000000000000000000000000000000000000000000000000000000000000000000000000000000000000000000000000000000000000000000000000000000000000000000000000000000000000000000000000000000000",
      "type": "0x2",
      "transactionHash": "0xadb235c04351a99a0293b917bd1504ba8cd9803e3420e97169b751a8c22672a8",
      "transactionIndex": "0xa",
      "blockHash": "0x2909e34e48ed078dfacac6ac0fd8bdcc15e84c6d397c954a75b90e95f9b1394f",
      "blockNumber": "0x9bc7737",
      "gasUsed": "0x30ba6",
      "effectiveGasPrice": "0x66720b300",
      "from": "0x6faff29226219756aa40ce648dbc65fb41de5f72",
      "to": null,
      "contractAddress": "0xa3503cbd2c5d7d273cf1983a070a8d8a57edd34e"
    },
    {
      "status": "0x1",
      "cumulativeGasUsed": "0x1740ae",
      "logs": [],
      "logsBloom": "0x00000000000000000000000000000000000000000000000000000000000000000000000000000000000000000000000000000000000000000000000000000000000000000000000000000000000000000000000000000000000000000000000000000000000000000000000000000000000000000000000000000000000000000000000000000000000000000000000000000000000000000000000000000000000000000000000000000000000000000000000000000000000000000000000000000000000000000000000000000000000000000000000000000000000000000000000000000000000000000000000000000000000000000000000000000000",
      "type": "0x2",
      "transactionHash": "0x72a67c157a14f5e6457d2a365de407a5443c78dc887a642b402e76f46c4356d8",
      "transactionIndex": "0xb",
      "blockHash": "0x2909e34e48ed078dfacac6ac0fd8bdcc15e84c6d397c954a75b90e95f9b1394f",
      "blockNumber": "0x9bc7737",
      "gasUsed": "0xd477",
      "effectiveGasPrice": "0x66720b300",
      "from": "0x6faff29226219756aa40ce648dbc65fb41de5f72",
      "to": "0x95ce14ee82410c4a7296205e0c663969703dc857",
      "contractAddress": null
    }
  ],
  "libraries": [],
  "pending": [],
  "returns": {},
  "timestamp": 1724927889,
  "chain": 1001,
  "commit": "cd51cc8"
}