{
  "transactions": [
    {
      "hash": "0x12adeede34b9532080f1ea3557f26bf8660f706ce5aa180898226e698bc13c83",
      "transactionType": "CREATE",
      "contractName": "BanditFort",
      "contractAddress": "0xefaf2babdf0fe22a026b92f75cd668e0ae04fc42",
      "function": null,
      "arguments": null,
      "transaction": {
        "from": "0x6faff29226219756aa40ce648dbc65fb41de5f72",
        "gas": "0x522fc",
        "value": "0x0",
        "input": "0x6080604052600280546001600160a01b0319908116339081179092555f805490911690911790553460015561013b806100375f395ff3fe608060405260043610610036575f3560e01c80638da5cb5b146100b3578063b86cf42d146100ef578063e3ac5d261461010b575f80fd5b366100af576001543410158061005657506002546001600160a01b031633145b61005e575f80fd5b5f80546040516001600160a01b03909116913480156108fc02929091818181858888f19350505050158015610095573d5f803e3d5ffd5b505f80546001600160a01b03191633179055346001819055005b5f80fd5b3480156100be575f80fd5b506002546100d2906001600160a01b031681565b6040516001600160a01b0390911681526020015b60405180910390f35b3480156100fa575f80fd5b505f546001600160a01b03166100d2565b348015610116575f80fd5b5061012060015481565b6040519081526020016100e656fea164736f6c6343000819000a",
        "nonce": "0x33a",
        "chainId": "0x3e9"
      },
      "additionalContracts": [],
      "isFixedGasLimit": false
    },
    {
      "hash": "0x8626deef274d88400e730b07f8d42a1a1d8d15a86a0bfce59435ef36227837c6",
      "transactionType": "CALL",
      "contractName": null,
      "contractAddress": "0x95ce14ee82410c4a7296205e0c663969703dc857",
      "function": "addBanditFort(address)",
      "arguments": [
        "0xefaf2BaBDf0FE22A026b92f75CD668e0aE04fc42"
      ],
      "transaction": {
        "from": "0x6faff29226219756aa40ce648dbc65fb41de5f72",
        "to": "0x95ce14ee82410c4a7296205e0c663969703dc857",
        "gas": "0x1a930",
        "value": "0x0",
        "input": "0xb32a9302000000000000000000000000efaf2babdf0fe22a026b92f75cd668e0ae04fc42",
        "nonce": "0x33b",
        "chainId": "0x3e9"
      },
      "additionalContracts": [],
      "isFixedGasLimit": false
    },
    {
      "hash": "0xfd72f03440b04036d8841727a774c12066c0a3cd5764a89183de936997047872",
      "transactionType": "CREATE",
      "contractName": "BanditFort",
      "contractAddress": "0xd30648d6e33c8994d4e93c8b2203258d25a92ebb",
      "function": null,
      "arguments": null,
      "transaction": {
        "from": "0x6faff29226219756aa40ce648dbc65fb41de5f72",
        "gas": "0x522fc",
        "value": "0x0",
        "input": "0x6080604052600280546001600160a01b0319908116339081179092555f805490911690911790553460015561013b806100375f395ff3fe608060405260043610610036575f3560e01c80638da5cb5b146100b3578063b86cf42d146100ef578063e3ac5d261461010b575f80fd5b366100af576001543410158061005657506002546001600160a01b031633145b61005e575f80fd5b5f80546040516001600160a01b03909116913480156108fc02929091818181858888f19350505050158015610095573d5f803e3d5ffd5b505f80546001600160a01b03191633179055346001819055005b5f80fd5b3480156100be575f80fd5b506002546100d2906001600160a01b031681565b6040516001600160a01b0390911681526020015b60405180910390f35b3480156100fa575f80fd5b505f546001600160a01b03166100d2565b348015610116575f80fd5b5061012060015481565b6040519081526020016100e656fea164736f6c6343000819000a",
        "nonce": "0x33c",
        "chainId": "0x3e9"
      },
      "additionalContracts": [],
      "isFixedGasLimit": false
    },
    {
      "hash": "0x7fbc11f68c386b21d0e65920ac4ebb5bcfdeb031ccc7987ead2b4675e2b3b80f",
      "transactionType": "CALL",
      "contractName": null,
      "contractAddress": "0x95ce14ee82410c4a7296205e0c663969703dc857",
      "function": "addBanditFort(address)",
      "arguments": [
        "0xD30648D6e33C8994d4e93c8B2203258D25a92eBb"
      ],
      "transaction": {
        "from": "0x6faff29226219756aa40ce648dbc65fb41de5f72",
        "to": "0x95ce14ee82410c4a7296205e0c663969703dc857",
        "gas": "0x1a930",
        "value": "0x0",
        "input": "0xb32a9302000000000000000000000000d30648d6e33c8994d4e93c8b2203258d25a92ebb",
        "nonce": "0x33d",
        "chainId": "0x3e9"
      },
      "additionalContracts": [],
      "isFixedGasLimit": false
    },
    {
      "hash": "0x62b324e7478d07bccce7176af716eb2fce985e972bcb7127697725cc06633a25",
      "transactionType": "CREATE",
      "contractName": "BanditFort",
      "contractAddress": "0x242cb51e14e9f4a0d9430ee2196b0af1b02924d6",
      "function": null,
      "arguments": null,
      "transaction": {
        "from": "0x6faff29226219756aa40ce648dbc65fb41de5f72",
        "gas": "0x522fc",
        "value": "0x0",
        "input": "0x6080604052600280546001600160a01b0319908116339081179092555f805490911690911790553460015561013b806100375f395ff3fe608060405260043610610036575f3560e01c80638da5cb5b146100b3578063b86cf42d146100ef578063e3ac5d261461010b575f80fd5b366100af576001543410158061005657506002546001600160a01b031633145b61005e575f80fd5b5f80546040516001600160a01b03909116913480156108fc02929091818181858888f19350505050158015610095573d5f803e3d5ffd5b505f80546001600160a01b03191633179055346001819055005b5f80fd5b3480156100be575f80fd5b506002546100d2906001600160a01b031681565b6040516001600160a01b0390911681526020015b60405180910390f35b3480156100fa575f80fd5b505f546001600160a01b03166100d2565b348015610116575f80fd5b5061012060015481565b6040519081526020016100e656fea164736f6c6343000819000a",
        "nonce": "0x33e",
        "chainId": "0x3e9"
      },
      "additionalContracts": [],
      "isFixedGasLimit": false
    },
    {
      "hash": "0x69354ca43fdf101a903053baca8308425f7e01acf729224a08ef2c29f2f1fc2b",
      "transactionType": "CALL",
      "contractName": null,
      "contractAddress": "0x95ce14ee82410c4a7296205e0c663969703dc857",
      "function": "addBanditFort(address)",
      "arguments": [
        "0x242cB51E14e9F4a0d9430EE2196b0af1B02924d6"
      ],
      "transaction": {
        "from": "0x6faff29226219756aa40ce648dbc65fb41de5f72",
        "to": "0x95ce14ee82410c4a7296205e0c663969703dc857",
        "gas": "0x1a930",
        "value": "0x0",
        "input": "0xb32a9302000000000000000000000000242cb51e14e9f4a0d9430ee2196b0af1b02924d6",
        "nonce": "0x33f",
        "chainId": "0x3e9"
      },
      "additionalContracts": [],
      "isFixedGasLimit": false
    },
    {
      "hash": "0x5093f4ef1d9951946e55d2d80b72bde19193720d8b28328e3b391a479108852d",
      "transactionType": "CREATE",
      "contractName": "BanditFort",
      "contractAddress": "0xe75a6534aa070431f80ca5d79f6fdb1b63ffab03",
      "function": null,
      "arguments": null,
      "transaction": {
        "from": "0x6faff29226219756aa40ce648dbc65fb41de5f72",
        "gas": "0x522fc",
        "value": "0x0",
        "input": "0x6080604052600280546001600160a01b0319908116339081179092555f805490911690911790553460015561013b806100375f395ff3fe608060405260043610610036575f3560e01c80638da5cb5b146100b3578063b86cf42d146100ef578063e3ac5d261461010b575f80fd5b366100af576001543410158061005657506002546001600160a01b031633145b61005e575f80fd5b5f80546040516001600160a01b03909116913480156108fc02929091818181858888f19350505050158015610095573d5f803e3d5ffd5b505f80546001600160a01b03191633179055346001819055005b5f80fd5b3480156100be575f80fd5b506002546100d2906001600160a01b031681565b6040516001600160a01b0390911681526020015b60405180910390f35b3480156100fa575f80fd5b505f546001600160a01b03166100d2565b348015610116575f80fd5b5061012060015481565b6040519081526020016100e656fea164736f6c6343000819000a",
        "nonce": "0x340",
        "chainId": "0x3e9"
      },
      "additionalContracts": [],
      "isFixedGasLimit": false
    },
    {
      "hash": "0xcd6c256fab092ee8043b6e859987bda6aaf1a016690b7ddf27cb109a4452f0e7",
      "transactionType": "CALL",
      "contractName": null,
      "contractAddress": "0x95ce14ee82410c4a7296205e0c663969703dc857",
      "function": "addBanditFort(address)",
      "arguments": [
        "0xe75A6534AA070431f80CA5D79F6FdB1b63ffAb03"
      ],
      "transaction": {
        "from": "0x6faff29226219756aa40ce648dbc65fb41de5f72",
        "to": "0x95ce14ee82410c4a7296205e0c663969703dc857",
        "gas": "0x1a930",
        "value": "0x0",
        "input": "0xb32a9302000000000000000000000000e75a6534aa070431f80ca5d79f6fdb1b63ffab03",
        "nonce": "0x341",
        "chainId": "0x3e9"
      },
      "additionalContracts": [],
      "isFixedGasLimit": false
    },
    {
      "hash": "0xeb204296fed9b6878d2bddce9fbf4d5f1ae0715dee6a76e90d6e458c1e9a2914",
      "transactionType": "CREATE",
      "contractName": "BanditFort",
      "contractAddress": "0x8f8fb360259fd16cf0acadb44755c5cf8618eb28",
      "function": null,
      "arguments": null,
      "transaction": {
        "from": "0x6faff29226219756aa40ce648dbc65fb41de5f72",
        "gas": "0x522fc",
        "value": "0x0",
        "input": "0x6080604052600280546001600160a01b0319908116339081179092555f805490911690911790553460015561013b806100375f395ff3fe608060405260043610610036575f3560e01c80638da5cb5b146100b3578063b86cf42d146100ef578063e3ac5d261461010b575f80fd5b366100af576001543410158061005657506002546001600160a01b031633145b61005e575f80fd5b5f80546040516001600160a01b03909116913480156108fc02929091818181858888f19350505050158015610095573d5f803e3d5ffd5b505f80546001600160a01b03191633179055346001819055005b5f80fd5b3480156100be575f80fd5b506002546100d2906001600160a01b031681565b6040516001600160a01b0390911681526020015b60405180910390f35b3480156100fa575f80fd5b505f546001600160a01b03166100d2565b348015610116575f80fd5b5061012060015481565b6040519081526020016100e656fea164736f6c6343000819000a",
        "nonce": "0x342",
        "chainId": "0x3e9"
      },
      "additionalContracts": [],
      "isFixedGasLimit": false
    },
    {
      "hash": "0x69df3ab1a39c420098cee3b6bcdd50d60a0f08d0f93aae335286d88534308528",
      "transactionType": "CALL",
      "contractName": null,
      "contractAddress": "0x95ce14ee82410c4a7296205e0c663969703dc857",
      "function": "addBanditFort(address)",
      "arguments": [
        "0x8f8fb360259fd16Cf0AcADb44755C5Cf8618EB28"
      ],
      "transaction": {
        "from": "0x6faff29226219756aa40ce648dbc65fb41de5f72",
        "to": "0x95ce14ee82410c4a7296205e0c663969703dc857",
        "gas": "0x1a930",
        "value": "0x0",
        "input": "0xb32a93020000000000000000000000008f8fb360259fd16cf0acadb44755c5cf8618eb28",
        "nonce": "0x343",
        "chainId": "0x3e9"
      },
      "additionalContracts": [],
      "isFixedGasLimit": false
    },
    {
      "hash": "0x7a5d8f749543d5fbb8389ecd50617d21cdee4157ab567603ae5e374c1a159b5e",
      "transactionType": "CREATE",
      "contractName": "BanditFort",
      "contractAddress": "0x2dccfb23d5c6442892d9c513e179d496d0d39c1d",
      "function": null,
      "arguments": null,
      "transaction": {
        "from": "0x6faff29226219756aa40ce648dbc65fb41de5f72",
        "gas": "0x522fc",
        "value": "0x0",
        "input": "0x6080604052600280546001600160a01b0319908116339081179092555f805490911690911790553460015561013b806100375f395ff3fe608060405260043610610036575f3560e01c80638da5cb5b146100b3578063b86cf42d146100ef578063e3ac5d261461010b575f80fd5b366100af576001543410158061005657506002546001600160a01b031633145b61005e575f80fd5b5f80546040516001600160a01b03909116913480156108fc02929091818181858888f19350505050158015610095573d5f803e3d5ffd5b505f80546001600160a01b03191633179055346001819055005b5f80fd5b3480156100be575f80fd5b506002546100d2906001600160a01b031681565b6040516001600160a01b0390911681526020015b60405180910390f35b3480156100fa575f80fd5b505f546001600160a01b03166100d2565b348015610116575f80fd5b5061012060015481565b6040519081526020016100e656fea164736f6c6343000819000a",
        "nonce": "0x344",
        "chainId": "0x3e9"
      },
      "additionalContracts": [],
      "isFixedGasLimit": false
    },
    {
      "hash": "0x5e4a289f9d7ada7e418a65b38a1b423a3e92cf7e66b965c1ee6e9ad279370828",
      "transactionType": "CALL",
      "contractName": null,
      "contractAddress": "0x95ce14ee82410c4a7296205e0c663969703dc857",
      "function": "addBanditFort(address)",
      "arguments": [
        "0x2DCCFb23d5c6442892D9c513E179d496D0d39c1D"
      ],
      "transaction": {
        "from": "0x6faff29226219756aa40ce648dbc65fb41de5f72",
        "to": "0x95ce14ee82410c4a7296205e0c663969703dc857",
        "gas": "0x1a930",
        "value": "0x0",
        "input": "0xb32a93020000000000000000000000002dccfb23d5c6442892d9c513e179d496d0d39c1d",
        "nonce": "0x345",
        "chainId": "0x3e9"
      },
      "additionalContracts": [],
      "isFixedGasLimit": false
    },
    {
      "hash": "0xe8668d931ee6e6aae701f7dd465db3eb47dc2a7eb76ad35730cc17d3e1c208e4",
      "transactionType": "CREATE",
      "contractName": "BanditFort",
      "contractAddress": "0xa4045b8067465735a7f989482f872704dccaea15",
      "function": null,
      "arguments": null,
      "transaction": {
        "from": "0x6faff29226219756aa40ce648dbc65fb41de5f72",
        "gas": "0x522fc",
        "value": "0x0",
        "input": "0x6080604052600280546001600160a01b0319908116339081179092555f805490911690911790553460015561013b806100375f395ff3fe608060405260043610610036575f3560e01c80638da5cb5b146100b3578063b86cf42d146100ef578063e3ac5d261461010b575f80fd5b366100af576001543410158061005657506002546001600160a01b031633145b61005e575f80fd5b5f80546040516001600160a01b03909116913480156108fc02929091818181858888f19350505050158015610095573d5f803e3d5ffd5b505f80546001600160a01b03191633179055346001819055005b5f80fd5b3480156100be575f80fd5b506002546100d2906001600160a01b031681565b6040516001600160a01b0390911681526020015b60405180910390f35b3480156100fa575f80fd5b505f546001600160a01b03166100d2565b348015610116575f80fd5b5061012060015481565b6040519081526020016100e656fea164736f6c6343000819000a",
        "nonce": "0x346",
        "chainId": "0x3e9"
      },
      "additionalContracts": [],
      "isFixedGasLimit": false
    },
    {
      "hash": "0xb47830ac1acc25bc0b99eac76b598d82572de58bab30c1da17ec6a75f4510ca6",
      "transactionType": "CALL",
      "contractName": null,
      "contractAddress": "0x95ce14ee82410c4a7296205e0c663969703dc857",
      "function": "addBanditFort(address)",
      "arguments": [
        "0xA4045b8067465735A7F989482f872704DccaEA15"
      ],
      "transaction": {
        "from": "0x6faff29226219756aa40ce648dbc65fb41de5f72",
        "to": "0x95ce14ee82410c4a7296205e0c663969703dc857",
        "gas": "0x1a930",
        "value": "0x0",
        "input": "0xb32a9302000000000000000000000000a4045b8067465735a7f989482f872704dccaea15",
        "nonce": "0x347",
        "chainId": "0x3e9"
      },
      "additionalContracts": [],
      "isFixedGasLimit": false
    },
    {
      "hash": "0x9cb18682df3fc5d7ed763f615ac6c97e2108dcaaa3d25159340464ba44c59ab5",
      "transactionType": "CREATE",
      "contractName": "BanditFort",
      "contractAddress": "0xf1c83f805206d992ad8a6a75dfe828ec6b2aa444",
      "function": null,
      "arguments": null,
      "transaction": {
        "from": "0x6faff29226219756aa40ce648dbc65fb41de5f72",
        "gas": "0x522fc",
        "value": "0x0",
        "input": "0x6080604052600280546001600160a01b0319908116339081179092555f805490911690911790553460015561013b806100375f395ff3fe608060405260043610610036575f3560e01c80638da5cb5b146100b3578063b86cf42d146100ef578063e3ac5d261461010b575f80fd5b366100af576001543410158061005657506002546001600160a01b031633145b61005e575f80fd5b5f80546040516001600160a01b03909116913480156108fc02929091818181858888f19350505050158015610095573d5f803e3d5ffd5b505f80546001600160a01b03191633179055346001819055005b5f80fd5b3480156100be575f80fd5b506002546100d2906001600160a01b031681565b6040516001600160a01b0390911681526020015b60405180910390f35b3480156100fa575f80fd5b505f546001600160a01b03166100d2565b348015610116575f80fd5b5061012060015481565b6040519081526020016100e656fea164736f6c6343000819000a",
        "nonce": "0x348",
        "chainId": "0x3e9"
      },
      "additionalContracts": [],
      "isFixedGasLimit": false
    },
    {
      "hash": "0xa282502704b0c4cc593cdd549779d2c195d75f567300771b06748b7d14a3cd9d",
      "transactionType": "CALL",
      "contractName": null,
      "contractAddress": "0x95ce14ee82410c4a7296205e0c663969703dc857",
      "function": "addBanditFort(address)",
      "arguments": [
        "0xF1C83F805206d992Ad8A6a75dFE828eC6B2aA444"
      ],
      "transaction": {
        "from": "0x6faff29226219756aa40ce648dbc65fb41de5f72",
        "to": "0x95ce14ee82410c4a7296205e0c663969703dc857",
        "gas": "0x1a930",
        "value": "0x0",
        "input": "0xb32a9302000000000000000000000000f1c83f805206d992ad8a6a75dfe828ec6b2aa444",
        "nonce": "0x349",
        "chainId": "0x3e9"
      },
      "additionalContracts": [],
      "isFixedGasLimit": false
    },
    {
      "hash": "0x52201ca0cdc701d15edbd28575c882097e6a5a9bfb734801d097db190d8f08ef",
      "transactionType": "CREATE",
      "contractName": "BanditFort",
      "contractAddress": "0x8a605be3ee3b93903096008fe266d702c579d4e1",
      "function": null,
      "arguments": null,
      "transaction": {
        "from": "0x6faff29226219756aa40ce648dbc65fb41de5f72",
        "gas": "0x522fc",
        "value": "0x0",
        "input": "0x6080604052600280546001600160a01b0319908116339081179092555f805490911690911790553460015561013b806100375f395ff3fe608060405260043610610036575f3560e01c80638da5cb5b146100b3578063b86cf42d146100ef578063e3ac5d261461010b575f80fd5b366100af576001543410158061005657506002546001600160a01b031633145b61005e575f80fd5b5f80546040516001600160a01b03909116913480156108fc02929091818181858888f19350505050158015610095573d5f803e3d5ffd5b505f80546001600160a01b03191633179055346001819055005b5f80fd5b3480156100be575f80fd5b506002546100d2906001600160a01b031681565b6040516001600160a01b0390911681526020015b60405180910390f35b3480156100fa575f80fd5b505f546001600160a01b03166100d2565b348015610116575f80fd5b5061012060015481565b6040519081526020016100e656fea164736f6c6343000819000a",
        "nonce": "0x34a",
        "chainId": "0x3e9"
      },
      "additionalContracts": [],
      "isFixedGasLimit": false
    },
    {
      "hash": "0xd054aa8cc12d549d5197630bf6463f38301a68e17e55b18dfc86c70436cfb407",
      "transactionType": "CALL",
      "contractName": null,
      "contractAddress": "0x95ce14ee82410c4a7296205e0c663969703dc857",
      "function": "addBanditFort(address)",
      "arguments": [
        "0x8a605bE3ee3b93903096008fe266D702c579d4e1"
      ],
      "transaction": {
        "from": "0x6faff29226219756aa40ce648dbc65fb41de5f72",
        "to": "0x95ce14ee82410c4a7296205e0c663969703dc857",
        "gas": "0x1c218",
        "value": "0x0",
        "input": "0xb32a93020000000000000000000000008a605be3ee3b93903096008fe266d702c579d4e1",
        "nonce": "0x34b",
        "chainId": "0x3e9"
      },
      "additionalContracts": [],
      "isFixedGasLimit": false
    },
    {
      "hash": "0xdf70edb8d08c8e963b957d38495e5a53e0409b22e080f41e1f13c3a20612bd78",
      "transactionType": "CREATE",
      "contractName": "BanditFort",
      "contractAddress": "0x5b41db5199d5585e4c0ec74835de9eba28d0244a",
      "function": null,
      "arguments": null,
      "transaction": {
        "from": "0x6faff29226219756aa40ce648dbc65fb41de5f72",
        "gas": "0x522fc",
        "value": "0x0",
        "input": "0x6080604052600280546001600160a01b0319908116339081179092555f805490911690911790553460015561013b806100375f395ff3fe608060405260043610610036575f3560e01c80638da5cb5b146100b3578063b86cf42d146100ef578063e3ac5d261461010b575f80fd5b366100af576001543410158061005657506002546001600160a01b031633145b61005e575f80fd5b5f80546040516001600160a01b03909116913480156108fc02929091818181858888f19350505050158015610095573d5f803e3d5ffd5b505f80546001600160a01b03191633179055346001819055005b5f80fd5b3480156100be575f80fd5b506002546100d2906001600160a01b031681565b6040516001600160a01b0390911681526020015b60405180910390f35b3480156100fa575f80fd5b505f546001600160a01b03166100d2565b348015610116575f80fd5b5061012060015481565b6040519081526020016100e656fea164736f6c6343000819000a",
        "nonce": "0x34c",
        "chainId": "0x3e9"
      },
      "additionalContracts": [],
      "isFixedGasLimit": false
    },
    {
      "hash": "0x39bcf75fd203c65e09fbb9986acd4c55dc4009453051c70d4868ab3dd52077b6",
      "transactionType": "CALL",
      "contractName": null,
      "contractAddress": "0x95ce14ee82410c4a7296205e0c663969703dc857",
      "function": "addBanditFort(address)",
      "arguments": [
        "0x5b41Db5199D5585e4C0eC74835dE9EBA28d0244A"
      ],
      "transaction": {
        "from": "0x6faff29226219756aa40ce648dbc65fb41de5f72",
        "to": "0x95ce14ee82410c4a7296205e0c663969703dc857",
        "gas": "0x1a930",
        "value": "0x0",
        "input": "0xb32a93020000000000000000000000005b41db5199d5585e4c0ec74835de9eba28d0244a",
        "nonce": "0x34d",
        "chainId": "0x3e9"
      },
      "additionalContracts": [],
      "isFixedGasLimit": false
    }
  ],
  "receipts": [
    {
      "status": "0x1",
      "cumulativeGasUsed": "0x30ba6",
      "logs": [],
      "logsBloom": "0x00000000000000000000000000000000000000000000000000000000000000000000000000000000000000000000000000000000000000000000000000000000000000000000000000000000000000000000000000000000000000000000000000000000000000000000000000000000000000000000000000000000000000000000000000000000000000000000000000000000000000000000000000000000000000000000000000000000000000000000000000000000000000000000000000000000000000000000000000000000000000000000000000000000000000000000000000000000000000000000000000000000000000000000000000000000",
      "type": "0x2",
      "transactionHash": "0x12adeede34b9532080f1ea3557f26bf8660f706ce5aa180898226e698bc13c83",
      "transactionIndex": "0x0",
      "blockHash": "0x18810df644c670b1318dfa6b3d0225f6ca1df924dc48b19ec389fffbb1c801bf",
      "blockNumber": "0x9bc740e",
      "gasUsed": "0x30ba6",
      "effectiveGasPrice": "0x66720b300",
      "from": "0x6faff29226219756aa40ce648dbc65fb41de5f72",
      "to": null,
      "contractAddress": "0xefaf2babdf0fe22a026b92f75cd668e0ae04fc42"
    },
    {
      "status": "0x1",
      "cumulativeGasUsed": "0x3e01d",
      "logs": [],
      "logsBloom": "0x00000000000000000000000000000000000000000000000000000000000000000000000000000000000000000000000000000000000000000000000000000000000000000000000000000000000000000000000000000000000000000000000000000000000000000000000000000000000000000000000000000000000000000000000000000000000000000000000000000000000000000000000000000000000000000000000000000000000000000000000000000000000000000000000000000000000000000000000000000000000000000000000000000000000000000000000000000000000000000000000000000000000000000000000000000000",
      "type": "0x2",
      "transactionHash": "0x8626deef274d88400e730b07f8d42a1a1d8d15a86a0bfce59435ef36227837c6",
      "transactionIndex": "0x1",
      "blockHash": "0x18810df644c670b1318dfa6b3d0225f6ca1df924dc48b19ec389fffbb1c801bf",
      "blockNumber": "0x9bc740e",
      "gasUsed": "0xd477",
      "effectiveGasPrice": "0x66720b300",
      "from": "0x6faff29226219756aa40ce648dbc65fb41de5f72",
      "to": "0x95ce14ee82410c4a7296205e0c663969703dc857",
      "contractAddress": null
    },
    {
      "status": "0x1",
      "cumulativeGasUsed": "0x6ebc3",
      "logs": [],
      "logsBloom": "0x00000000000000000000000000000000000000000000000000000000000000000000000000000000000000000000000000000000000000000000000000000000000000000000000000000000000000000000000000000000000000000000000000000000000000000000000000000000000000000000000000000000000000000000000000000000000000000000000000000000000000000000000000000000000000000000000000000000000000000000000000000000000000000000000000000000000000000000000000000000000000000000000000000000000000000000000000000000000000000000000000000000000000000000000000000000",
      "type": "0x2",
      "transactionHash": "0xfd72f03440b04036d8841727a774c12066c0a3cd5764a89183de936997047872",
      "transactionIndex": "0x2",
      "blockHash": "0x18810df644c670b1318dfa6b3d0225f6ca1df924dc48b19ec389fffbb1c801bf",
      "blockNumber": "0x9bc740e",
      "gasUsed": "0x30ba6",
      "effectiveGasPrice": "0x66720b300",
      "from": "0x6faff29226219756aa40ce648dbc65fb41de5f72",
      "to": null,
      "contractAddress": "0xd30648d6e33c8994d4e93c8b2203258d25a92ebb"
    },
    {
      "status": "0x1",
      "cumulativeGasUsed": "0x7c03a",
      "logs": [],
      "logsBloom": "0x00000000000000000000000000000000000000000000000000000000000000000000000000000000000000000000000000000000000000000000000000000000000000000000000000000000000000000000000000000000000000000000000000000000000000000000000000000000000000000000000000000000000000000000000000000000000000000000000000000000000000000000000000000000000000000000000000000000000000000000000000000000000000000000000000000000000000000000000000000000000000000000000000000000000000000000000000000000000000000000000000000000000000000000000000000000",
      "type": "0x2",
      "transactionHash": "0x7fbc11f68c386b21d0e65920ac4ebb5bcfdeb031ccc7987ead2b4675e2b3b80f",
      "transactionIndex": "0x3",
      "blockHash": "0x18810df644c670b1318dfa6b3d0225f6ca1df924dc48b19ec389fffbb1c801bf",
      "blockNumber": "0x9bc740e",
      "gasUsed": "0xd477",
      "effectiveGasPrice": "0x66720b300",
      "from": "0x6faff29226219756aa40ce648dbc65fb41de5f72",
      "to": "0x95ce14ee82410c4a7296205e0c663969703dc857",
      "contractAddress": null
    },
    {
      "status": "0x1",
      "cumulativeGasUsed": "0xacbe0",
      "logs": [],
      "logsBloom": "0x00000000000000000000000000000000000000000000000000000000000000000000000000000000000000000000000000000000000000000000000000000000000000000000000000000000000000000000000000000000000000000000000000000000000000000000000000000000000000000000000000000000000000000000000000000000000000000000000000000000000000000000000000000000000000000000000000000000000000000000000000000000000000000000000000000000000000000000000000000000000000000000000000000000000000000000000000000000000000000000000000000000000000000000000000000000",
      "type": "0x2",
      "transactionHash": "0x62b324e7478d07bccce7176af716eb2fce985e972bcb7127697725cc06633a25",
      "transactionIndex": "0x4",
      "blockHash": "0x18810df644c670b1318dfa6b3d0225f6ca1df924dc48b19ec389fffbb1c801bf",
      "blockNumber": "0x9bc740e",
      "gasUsed": "0x30ba6",
      "effectiveGasPrice": "0x66720b300",
      "from": "0x6faff29226219756aa40ce648dbc65fb41de5f72",
      "to": null,
      "contractAddress": "0x242cb51e14e9f4a0d9430ee2196b0af1b02924d6"
    },
    {
      "status": "0x1",
      "cumulativeGasUsed": "0xba057",
      "logs": [],
      "logsBloom": "0x00000000000000000000000000000000000000000000000000000000000000000000000000000000000000000000000000000000000000000000000000000000000000000000000000000000000000000000000000000000000000000000000000000000000000000000000000000000000000000000000000000000000000000000000000000000000000000000000000000000000000000000000000000000000000000000000000000000000000000000000000000000000000000000000000000000000000000000000000000000000000000000000000000000000000000000000000000000000000000000000000000000000000000000000000000000",
      "type": "0x2",
      "transactionHash": "0x69354ca43fdf101a903053baca8308425f7e01acf729224a08ef2c29f2f1fc2b",
      "transactionIndex": "0x5",
      "blockHash": "0x18810df644c670b1318dfa6b3d0225f6ca1df924dc48b19ec389fffbb1c801bf",
      "blockNumber": "0x9bc740e",
      "gasUsed": "0xd477",
      "effectiveGasPrice": "0x66720b300",
      "from": "0x6faff29226219756aa40ce648dbc65fb41de5f72",
      "to": "0x95ce14ee82410c4a7296205e0c663969703dc857",
      "contractAddress": null
    },
    {
      "status": "0x1",
      "cumulativeGasUsed": "0xeabfd",
      "logs": [],
      "logsBloom": "0x00000000000000000000000000000000000000000000000000000000000000000000000000000000000000000000000000000000000000000000000000000000000000000000000000000000000000000000000000000000000000000000000000000000000000000000000000000000000000000000000000000000000000000000000000000000000000000000000000000000000000000000000000000000000000000000000000000000000000000000000000000000000000000000000000000000000000000000000000000000000000000000000000000000000000000000000000000000000000000000000000000000000000000000000000000000",
      "type": "0x2",
      "transactionHash": "0x5093f4ef1d9951946e55d2d80b72bde19193720d8b28328e3b391a479108852d",
      "transactionIndex": "0x6",
      "blockHash": "0x18810df644c670b1318dfa6b3d0225f6ca1df924dc48b19ec389fffbb1c801bf",
      "blockNumber": "0x9bc740e",
      "gasUsed": "0x30ba6",
      "effectiveGasPrice": "0x66720b300",
      "from": "0x6faff29226219756aa40ce648dbc65fb41de5f72",
      "to": null,
      "contractAddress": "0xe75a6534aa070431f80ca5d79f6fdb1b63ffab03"
    },
    {
      "status": "0x1",
      "cumulativeGasUsed": "0xf8074",
      "logs": [],
      "logsBloom": "0x00000000000000000000000000000000000000000000000000000000000000000000000000000000000000000000000000000000000000000000000000000000000000000000000000000000000000000000000000000000000000000000000000000000000000000000000000000000000000000000000000000000000000000000000000000000000000000000000000000000000000000000000000000000000000000000000000000000000000000000000000000000000000000000000000000000000000000000000000000000000000000000000000000000000000000000000000000000000000000000000000000000000000000000000000000000",
      "type": "0x2",
      "transactionHash": "0xcd6c256fab092ee8043b6e859987bda6aaf1a016690b7ddf27cb109a4452f0e7",
      "transactionIndex": "0x7",
      "blockHash": "0x18810df644c670b1318dfa6b3d0225f6ca1df924dc48b19ec389fffbb1c801bf",
      "blockNumber": "0x9bc740e",
      "gasUsed": "0xd477",
      "effectiveGasPrice": "0x66720b300",
      "from": "0x6faff29226219756aa40ce648dbc65fb41de5f72",
      "to": "0x95ce14ee82410c4a7296205e0c663969703dc857",
      "contractAddress": null
    },
    {
      "status": "0x1",
      "cumulativeGasUsed": "0x128c1a",
      "logs": [],
      "logsBloom": "0x00000000000000000000000000000000000000000000000000000000000000000000000000000000000000000000000000000000000000000000000000000000000000000000000000000000000000000000000000000000000000000000000000000000000000000000000000000000000000000000000000000000000000000000000000000000000000000000000000000000000000000000000000000000000000000000000000000000000000000000000000000000000000000000000000000000000000000000000000000000000000000000000000000000000000000000000000000000000000000000000000000000000000000000000000000000",
      "type": "0x2",
      "transactionHash": "0xeb204296fed9b6878d2bddce9fbf4d5f1ae0715dee6a76e90d6e458c1e9a2914",
      "transactionIndex": "0x8",
      "blockHash": "0x18810df644c670b1318dfa6b3d0225f6ca1df924dc48b19ec389fffbb1c801bf",
      "blockNumber": "0x9bc740e",
      "gasUsed": "0x30ba6",
      "effectiveGasPrice": "0x66720b300",
      "from": "0x6faff29226219756aa40ce648dbc65fb41de5f72",
      "to": null,
      "contractAddress": "0x8f8fb360259fd16cf0acadb44755c5cf8618eb28"
    },
    {
      "status": "0x1",
      "cumulativeGasUsed": "0x136091",
      "logs": [],
      "logsBloom": "0x00000000000000000000000000000000000000000000000000000000000000000000000000000000000000000000000000000000000000000000000000000000000000000000000000000000000000000000000000000000000000000000000000000000000000000000000000000000000000000000000000000000000000000000000000000000000000000000000000000000000000000000000000000000000000000000000000000000000000000000000000000000000000000000000000000000000000000000000000000000000000000000000000000000000000000000000000000000000000000000000000000000000000000000000000000000",
      "type": "0x2",
      "transactionHash": "0x69df3ab1a39c420098cee3b6bcdd50d60a0f08d0f93aae335286d88534308528",
      "transactionIndex": "0x9",
      "blockHash": "0x18810df644c670b1318dfa6b3d0225f6ca1df924dc48b19ec389fffbb1c801bf",
      "blockNumber": "0x9bc740e",
      "gasUsed": "0xd477",
      "effectiveGasPrice": "0x66720b300",
      "from": "0x6faff29226219756aa40ce648dbc65fb41de5f72",
      "to": "0x95ce14ee82410c4a7296205e0c663969703dc857",
      "contractAddress": null
    },
    {
      "status": "0x1",
      "cumulativeGasUsed": "0x166c37",
      "logs": [],
      "logsBloom": "0x00000000000000000000000000000000000000000000000000000000000000000000000000000000000000000000000000000000000000000000000000000000000000000000000000000000000000000000000000000000000000000000000000000000000000000000000000000000000000000000000000000000000000000000000000000000000000000000000000000000000000000000000000000000000000000000000000000000000000000000000000000000000000000000000000000000000000000000000000000000000000000000000000000000000000000000000000000000000000000000000000000000000000000000000000000000",
      "type": "0x2",
      "transactionHash": "0x7a5d8f749543d5fbb8389ecd50617d21cdee4157ab567603ae5e374c1a159b5e",
      "transactionIndex": "0xa",
      "blockHash": "0x18810df644c670b1318dfa6b3d0225f6ca1df924dc48b19ec389fffbb1c801bf",
      "blockNumber": "0x9bc740e",
      "gasUsed": "0x30ba6",
      "effectiveGasPrice": "0x66720b300",
      "from": "0x6faff29226219756aa40ce648dbc65fb41de5f72",
      "to": null,
      "contractAddress": "0x2dccfb23d5c6442892d9c513e179d496d0d39c1d"
    },
    {
      "status": "0x1",
      "cumulativeGasUsed": "0x1740ae",
      "logs": [],
      "logsBloom": "0x00000000000000000000000000000000000000000000000000000000000000000000000000000000000000000000000000000000000000000000000000000000000000000000000000000000000000000000000000000000000000000000000000000000000000000000000000000000000000000000000000000000000000000000000000000000000000000000000000000000000000000000000000000000000000000000000000000000000000000000000000000000000000000000000000000000000000000000000000000000000000000000000000000000000000000000000000000000000000000000000000000000000000000000000000000000",
      "type": "0x2",
      "transactionHash": "0x5e4a289f9d7ada7e418a65b38a1b423a3e92cf7e66b965c1ee6e9ad279370828",
      "transactionIndex": "0xb",
      "blockHash": "0x18810df644c670b1318dfa6b3d0225f6ca1df924dc48b19ec389fffbb1c801bf",
      "blockNumber": "0x9bc740e",
      "gasUsed": "0xd477",
      "effectiveGasPrice": "0x66720b300",
      "from": "0x6faff29226219756aa40ce648dbc65fb41de5f72",
      "to": "0x95ce14ee82410c4a7296205e0c663969703dc857",
      "contractAddress": null
    },
    {
      "status": "0x1",
      "cumulativeGasUsed": "0x1a4c54",
      "logs": [],
      "logsBloom": "0x00000000000000000000000000000000000000000000000000000000000000000000000000000000000000000000000000000000000000000000000000000000000000000000000000000000000000000000000000000000000000000000000000000000000000000000000000000000000000000000000000000000000000000000000000000000000000000000000000000000000000000000000000000000000000000000000000000000000000000000000000000000000000000000000000000000000000000000000000000000000000000000000000000000000000000000000000000000000000000000000000000000000000000000000000000000",
      "type": "0x2",
      "transactionHash": "0xe8668d931ee6e6aae701f7dd465db3eb47dc2a7eb76ad35730cc17d3e1c208e4",
      "transactionIndex": "0xc",
      "blockHash": "0x18810df644c670b1318dfa6b3d0225f6ca1df924dc48b19ec389fffbb1c801bf",
      "blockNumber": "0x9bc740e",
      "gasUsed": "0x30ba6",
      "effectiveGasPrice": "0x66720b300",
      "from": "0x6faff29226219756aa40ce648dbc65fb41de5f72",
      "to": null,
      "contractAddress": "0xa4045b8067465735a7f989482f872704dccaea15"
    },
    {
      "status": "0x1",
      "cumulativeGasUsed": "0x1b20cb",
      "logs": [],
      "logsBloom": "0x00000000000000000000000000000000000000000000000000000000000000000000000000000000000000000000000000000000000000000000000000000000000000000000000000000000000000000000000000000000000000000000000000000000000000000000000000000000000000000000000000000000000000000000000000000000000000000000000000000000000000000000000000000000000000000000000000000000000000000000000000000000000000000000000000000000000000000000000000000000000000000000000000000000000000000000000000000000000000000000000000000000000000000000000000000000",
      "type": "0x2",
      "transactionHash": "0xb47830ac1acc25bc0b99eac76b598d82572de58bab30c1da17ec6a75f4510ca6",
      "transactionIndex": "0xd",
      "blockHash": "0x18810df644c670b1318dfa6b3d0225f6ca1df924dc48b19ec389fffbb1c801bf",
      "blockNumber": "0x9bc740e",
      "gasUsed": "0xd477",
      "effectiveGasPrice": "0x66720b300",
      "from": "0x6faff29226219756aa40ce648dbc65fb41de5f72",
      "to": "0x95ce14ee82410c4a7296205e0c663969703dc857",
      "contractAddress": null
    },
    {
      "status": "0x1",
      "cumulativeGasUsed": "0x1e2c71",
      "logs": [],
      "logsBloom": "0x00000000000000000000000000000000000000000000000000000000000000000000000000000000000000000000000000000000000000000000000000000000000000000000000000000000000000000000000000000000000000000000000000000000000000000000000000000000000000000000000000000000000000000000000000000000000000000000000000000000000000000000000000000000000000000000000000000000000000000000000000000000000000000000000000000000000000000000000000000000000000000000000000000000000000000000000000000000000000000000000000000000000000000000000000000000",
      "type": "0x2",
      "transactionHash": "0x9cb18682df3fc5d7ed763f615ac6c97e2108dcaaa3d25159340464ba44c59ab5",
      "transactionIndex": "0xe",
      "blockHash": "0x18810df644c670b1318dfa6b3d0225f6ca1df924dc48b19ec389fffbb1c801bf",
      "blockNumber": "0x9bc740e",
      "gasUsed": "0x30ba6",
      "effectiveGasPrice": "0x66720b300",
      "from": "0x6faff29226219756aa40ce648dbc65fb41de5f72",
      "to": null,
      "contractAddress": "0xf1c83f805206d992ad8a6a75dfe828ec6b2aa444"
    },
    {
      "status": "0x1",
      "cumulativeGasUsed": "0xd477",
      "logs": [],
      "logsBloom": "0x00000000000000000000000000000000000000000000000000000000000000000000000000000000000000000000000000000000000000000000000000000000000000000000000000000000000000000000000000000000000000000000000000000000000000000000000000000000000000000000000000000000000000000000000000000000000000000000000000000000000000000000000000000000000000000000000000000000000000000000000000000000000000000000000000000000000000000000000000000000000000000000000000000000000000000000000000000000000000000000000000000000000000000000000000000000",
      "type": "0x2",
      "transactionHash": "0xa282502704b0c4cc593cdd549779d2c195d75f567300771b06748b7d14a3cd9d",
      "transactionIndex": "0x0",
      "blockHash": "0xe7c4ecc5dd47375d6b8c2a9c50a21617897e1e553f33242a2ddb1329e7d9d145",
      "blockNumber": "0x9bc740f",
      "gasUsed": "0xd477",
      "effectiveGasPrice": "0x66720b300",
      "from": "0x6faff29226219756aa40ce648dbc65fb41de5f72",
      "to": "0x95ce14ee82410c4a7296205e0c663969703dc857",
      "contractAddress": null
    },
    {
      "status": "0x1",
      "cumulativeGasUsed": "0x3e01d",
      "logs": [],
      "logsBloom": "0x00000000000000000000000000000000000000000000000000000000000000000000000000000000000000000000000000000000000000000000000000000000000000000000000000000000000000000000000000000000000000000000000000000000000000000000000000000000000000000000000000000000000000000000000000000000000000000000000000000000000000000000000000000000000000000000000000000000000000000000000000000000000000000000000000000000000000000000000000000000000000000000000000000000000000000000000000000000000000000000000000000000000000000000000000000000",
      "type": "0x2",
      "transactionHash": "0x52201ca0cdc701d15edbd28575c882097e6a5a9bfb734801d097db190d8f08ef",
      "transactionIndex": "0x1",
      "blockHash": "0xe7c4ecc5dd47375d6b8c2a9c50a21617897e1e553f33242a2ddb1329e7d9d145",
      "blockNumber": "0x9bc740f",
      "gasUsed": "0x30ba6",
      "effectiveGasPrice": "0x66720b300",
      "from": "0x6faff29226219756aa40ce648dbc65fb41de5f72",
      "to": null,
      "contractAddress": "0x8a605be3ee3b93903096008fe266d702c579d4e1"
    },
    {
      "status": "0x1",
      "cumulativeGasUsed": "0x4b494",
      "logs": [],
      "logsBloom": "0x00000000000000000000000000000000000000000000000000000000000000000000000000000000000000000000000000000000000000000000000000000000000000000000000000000000000000000000000000000000000000000000000000000000000000000000000000000000000000000000000000000000000000000000000000000000000000000000000000000000000000000000000000000000000000000000000000000000000000000000000000000000000000000000000000000000000000000000000000000000000000000000000000000000000000000000000000000000000000000000000000000000000000000000000000000000",
      "type": "0x2",
      "transactionHash": "0xd054aa8cc12d549d5197630bf6463f38301a68e17e55b18dfc86c70436cfb407",
      "transactionIndex": "0x2",
      "blockHash": "0xe7c4ecc5dd47375d6b8c2a9c50a21617897e1e553f33242a2ddb1329e7d9d145",
      "blockNumber": "0x9bc740f",
      "gasUsed": "0xd477",
      "effectiveGasPrice": "0x66720b300",
      "from": "0x6faff29226219756aa40ce648dbc65fb41de5f72",
      "to": "0x95ce14ee82410c4a7296205e0c663969703dc857",
      "contractAddress": null
    },
    {
      "status": "0x1",
      "cumulativeGasUsed": "0x7c03a",
      "logs": [],
      "logsBloom": "0x00000000000000000000000000000000000000000000000000000000000000000000000000000000000000000000000000000000000000000000000000000000000000000000000000000000000000000000000000000000000000000000000000000000000000000000000000000000000000000000000000000000000000000000000000000000000000000000000000000000000000000000000000000000000000000000000000000000000000000000000000000000000000000000000000000000000000000000000000000000000000000000000000000000000000000000000000000000000000000000000000000000000000000000000000000000",
      "type": "0x2",
      "transactionHash": "0xdf70edb8d08c8e963b957d38495e5a53e0409b22e080f41e1f13c3a20612bd78",
      "transactionIndex": "0x3",
      "blockHash": "0xe7c4ecc5dd47375d6b8c2a9c50a21617897e1e553f33242a2ddb1329e7d9d145",
      "blockNumber": "0x9bc740f",
      "gasUsed": "0x30ba6",
      "effectiveGasPrice": "0x66720b300",
      "from": "0x6faff29226219756aa40ce648dbc65fb41de5f72",
      "to": null,
      "contractAddress": "0x5b41db5199d5585e4c0ec74835de9eba28d0244a"
    },
    {
      "status": "0x1",
      "cumulativeGasUsed": "0x894b1",
      "logs": [],
      "logsBloom": "0x00000000000000000000000000000000000000000000000000000000000000000000000000000000000000000000000000000000000000000000000000000000000000000000000000000000000000000000000000000000000000000000000000000000000000000000000000000000000000000000000000000000000000000000000000000000000000000000000000000000000000000000000000000000000000000000000000000000000000000000000000000000000000000000000000000000000000000000000000000000000000000000000000000000000000000000000000000000000000000000000000000000000000000000000000000000",
      "type": "0x2",
      "transactionHash": "0x39bcf75fd203c65e09fbb9986acd4c55dc4009453051c70d4868ab3dd52077b6",
      "transactionIndex": "0x4",
      "blockHash": "0xe7c4ecc5dd47375d6b8c2a9c50a21617897e1e553f33242a2ddb1329e7d9d145",
      "blockNumber": "0x9bc740f",
      "gasUsed": "0xd477",
      "effectiveGasPrice": "0x66720b300",
      "from": "0x6faff29226219756aa40ce648dbc65fb41de5f72",
      "to": "0x95ce14ee82410c4a7296205e0c663969703dc857",
      "contractAddress": null
    }
  ],
  "libraries": [],
  "pending": [],
  "returns": {},
  "timestamp": 1724927081,
  "chain": 1001,
  "commit": "cd51cc8"
}