{
  "transactions": [
    {
      "hash": "0xf7141e0daca86ba95821d76b86068c99bbf6ea2a3431e6ac679edd76394efd36",
      "transactionType": "CALL",
      "contractName": null,
      "contractAddress": "0x51f389021b2a80fcfe1eb2a7bfe8b24109c67670",
      "function": "unlock(bytes32)",
      "arguments": [
        "0x6570796368786c6b677300000000000000000000000000000000000000000000"
      ],
      "transaction": {
        "from": "0x6faff29226219756aa40ce648dbc65fb41de5f72",
        "to": "0x51f389021b2a80fcfe1eb2a7bfe8b24109c67670",
        "gas": "0xee3a",
        "value": "0x0",
        "input": "0xec9b5b3a6570796368786c6b677300000000000000000000000000000000000000000000",
        "nonce": "0x109",
        "chainId": "0x3e9"
      },
      "additionalContracts": [],
      "isFixedGasLimit": false
    },
    {
      "hash": "0x54078265d982b089380764196e3d8c17ed1abd2a74cbe443ad3b78f89282c3ee",
      "transactionType": "CALL",
      "contractName": null,
      "contractAddress": "0x51f389021b2a80fcfe1eb2a7bfe8b24109c67670",
      "function": "takeDiamondGemStone()",
      "arguments": [],
      "transaction": {
        "from": "0x6faff29226219756aa40ce648dbc65fb41de5f72",
        "to": "0x51f389021b2a80fcfe1eb2a7bfe8b24109c67670",
        "gas": "0x2e8ae",
        "value": "0x0",
        "input": "0x701385a0",
        "nonce": "0x10a",
        "chainId": "0x3e9"
      },
      "additionalContracts": [],
      "isFixedGasLimit": false
    }
  ],
  "receipts": [
    {
      "status": "0x1",
      "cumulativeGasUsed": "0x7cf4",
      "logs": [],
      "logsBloom": "0x00000000000000000000000000000000000000000000000000000000000000000000000000000000000000000000000000000000000000000000000000000000000000000000000000000000000000000000000000000000000000000000000000000000000000000000000000000000000000000000000000000000000000000000000000000000000000000000000000000000000000000000000000000000000000000000000000000000000000000000000000000000000000000000000000000000000000000000000000000000000000000000000000000000000000000000000000000000000000000000000000000000000000000000000000000000",
      "type": "0x2",
      "transactionHash": "0xf7141e0daca86ba95821d76b86068c99bbf6ea2a3431e6ac679edd76394efd36",
      "transactionIndex": "0x0",
      "blockHash": "0xf5e2753a81fbdce224744d8c890092e16aab39e44f0961ab13be001030e06675",
      "blockNumber": "0x9b952b4",
      "gasUsed": "0x7cf4",
      "effectiveGasPrice": "0x5d21dba01",
      "from": "0x6faff29226219756aa40ce648dbc65fb41de5f72",
      "to": "0x51f389021b2a80fcfe1eb2a7bfe8b24109c67670",
      "contractAddress": null
    },
    {
      "status": "0x1",
      "cumulativeGasUsed": "0x1dcb4",
      "logs": [
        {
          "address": "0x7be02decc3dc3be771d851fcf457bd9baa99010a",
          "topics": [
            "0xddf252ad1be2c89b69c2b068fc378daa952ba7f163c4a11628f55a4df523b3ef",
            "0x00000000000000000000000051f389021b2a80fcfe1eb2a7bfe8b24109c67670",
            "0x0000000000000000000000006faff29226219756aa40ce648dbc65fb41de5f72",
            "0x0000000000000000000000000000000000000000000000000000000000000006"
          ],
          "data": "0x",
          "blockHash": "0xf5e2753a81fbdce224744d8c890092e16aab39e44f0961ab13be001030e06675",
          "blockNumber": "0x9b952b4",
          "transactionHash": "0x54078265d982b089380764196e3d8c17ed1abd2a74cbe443ad3b78f89282c3ee",
          "transactionIndex": "0x1",
          "logIndex": "0x0",
          "removed": false
        }
      ],
      "logsBloom": "0x00000000000000100000000000000000000000000000000000008000000000000000000000000000000000000000000000000000000401000000010000000000000000000000000000000008000000000000000000000000000000000000000000000000000000000000000000000000000000000000000000000010000000000000000400000000000000000000000000000000000000000000000000000000000000000008000000000000000000000000020000000000000000080000020000000002000000000000000000000000000000000000000000000000000000000040000000000000000000000000000800000000000000000000000000000000",
      "type": "0x2",
      "transactionHash": "0x54078265d982b089380764196e3d8c17ed1abd2a74cbe443ad3b78f89282c3ee",
      "transactionIndex": "0x1",
      "blockHash": "0xf5e2753a81fbdce224744d8c890092e16aab39e44f0961ab13be001030e06675",
      "blockNumber": "0x9b952b4",
      "gasUsed": "0x15fc0",
      "effectiveGasPrice": "0x5d21dba01",
      "from": "0x6faff29226219756aa40ce648dbc65fb41de5f72",
      "to": "0x51f389021b2a80fcfe1eb2a7bfe8b24109c67670",
      "contractAddress": null
    }
  ],
  "libraries": [],
  "pending": [],
  "returns": {},
  "timestamp": 1724721933,
  "chain": 1001,
  "commit": "31a5293"
}